{
  "address": "0x9dcdfb99CD64E4380014B397223A09c767813388",
  "abi": [
    {
      "inputs": [
        {
          "internalType": "contract IERC3156FlashLender",
          "name": "_flashLender",
          "type": "address"
        },
        {
          "internalType": "contract IOdosRouterV2",
          "name": "_odosRouter",
          "type": "address"
        }
      ],
      "stateMutability": "nonpayable",
      "type": "constructor"
    },
    {
      "inputs": [
        {
          "internalType": "uint256",
          "name": "debtTokenBalanceBeforeIncrease",
          "type": "uint256"
        },
        {
          "internalType": "uint256",
          "name": "debtTokenBalanceAfterIncrease",
          "type": "uint256"
        }
      ],
      "name": "DebtTokenBalanceNotIncreasedAfterIncreaseLeverage",
      "type": "error"
    },
    {
      "inputs": [
        {
          "internalType": "uint256",
          "name": "debtTokenReceived",
          "type": "uint256"
        },
        {
          "internalType": "uint256",
          "name": "debtTokenUsed",
          "type": "uint256"
        },
        {
          "internalType": "uint256",
          "name": "flashLoanFee",
          "type": "uint256"
        }
      ],
      "name": "DebtTokenReceivedNotMetUsedAmountWithFlashLoanFee",
      "type": "error"
    },
    {
      "inputs": [
        {
          "internalType": "uint256",
          "name": "requiredFlashLoanAmount",
          "type": "uint256"
        },
        {
          "internalType": "uint256",
          "name": "maxFlashLoanAmount",
          "type": "uint256"
        }
      ],
      "name": "FlashLoanAmountExceedsMaxAvailable",
      "type": "error"
    },
    {
      "inputs": [
        {
          "internalType": "address",
          "name": "currentDebtToken",
          "type": "address"
        },
        {
          "internalType": "address",
          "name": "dLoopCoreDebtToken",
          "type": "address"
        }
      ],
      "name": "IncompatibleDLoopCoreDebtToken",
      "type": "error"
    },
    {
      "inputs": [
        {
          "internalType": "uint256",
          "name": "leverageBeforeIncrease",
          "type": "uint256"
        },
        {
          "internalType": "uint256",
          "name": "leverageAfterIncrease",
          "type": "uint256"
        }
      ],
      "name": "LeverageNotIncreased",
      "type": "error"
    },
    {
      "inputs": [
        {
          "internalType": "uint256",
          "name": "outputTokenBalanceBefore",
          "type": "uint256"
        },
        {
          "internalType": "uint256",
          "name": "outputTokenBalanceAfter",
          "type": "uint256"
        }
      ],
      "name": "OutputTokenBalanceNotIncreasedAfterSwap",
      "type": "error"
    },
    {
      "inputs": [
        {
          "internalType": "address",
          "name": "owner",
          "type": "address"
        }
      ],
      "name": "OwnableInvalidOwner",
      "type": "error"
    },
    {
      "inputs": [
        {
          "internalType": "address",
          "name": "account",
          "type": "address"
        }
      ],
      "name": "OwnableUnauthorizedAccount",
      "type": "error"
    },
    {
      "inputs": [
        {
          "internalType": "uint256",
          "name": "receivedDebtTokenAmount",
          "type": "uint256"
        },
        {
          "internalType": "uint256",
          "name": "minOutputDebtTokenAmount",
          "type": "uint256"
        }
      ],
      "name": "ReceivedDebtTokenNotMetMinReceiveAmount",
      "type": "error"
    },
    {
      "inputs": [
        {
          "internalType": "uint256",
          "name": "receivedOutputTokenAmount",
          "type": "uint256"
        },
        {
          "internalType": "uint256",
          "name": "amountOut",
          "type": "uint256"
        }
      ],
      "name": "ReceivedOutputTokenAmountNotEqualAmountOut",
      "type": "error"
    },
    {
      "inputs": [],
      "name": "ReentrancyGuardReentrantCall",
      "type": "error"
    },
    {
      "inputs": [
        {
          "internalType": "uint256",
          "name": "requiredCollateralAmount",
          "type": "uint256"
        },
        {
          "internalType": "uint256",
          "name": "userCollateralBalance",
          "type": "uint256"
        },
        {
          "internalType": "uint256",
          "name": "additionalCollateralFromUser",
          "type": "uint256"
        }
      ],
      "name": "RequiredCollateralAmountExceedsUserBalance",
      "type": "error"
    },
    {
      "inputs": [
        {
          "internalType": "address",
          "name": "token",
          "type": "address"
        }
      ],
      "name": "SafeERC20FailedOperation",
      "type": "error"
    },
    {
      "inputs": [
        {
          "internalType": "uint256",
          "name": "spentInputTokenAmount",
          "type": "uint256"
        },
        {
          "internalType": "uint256",
          "name": "amountInMaximum",
          "type": "uint256"
        }
      ],
      "name": "SpentInputTokenAmountGreaterThanAmountInMaximum",
      "type": "error"
    },
    {
      "inputs": [
        {
          "internalType": "uint256",
          "name": "spentInputTokenAmount",
          "type": "uint256"
        },
        {
          "internalType": "uint256",
          "name": "returnedAmountIn",
          "type": "uint256"
        }
      ],
      "name": "SpentInputTokenAmountNotEqualReturnedAmountIn",
      "type": "error"
    },
    {
      "inputs": [
        {
          "internalType": "address",
          "name": "initiator",
          "type": "address"
        },
        {
          "internalType": "address",
          "name": "thisContract",
          "type": "address"
        }
      ],
      "name": "UnknownInitiator",
      "type": "error"
    },
    {
      "inputs": [
        {
          "internalType": "address",
          "name": "msgSender",
          "type": "address"
        },
        {
          "internalType": "address",
          "name": "flashLender",
          "type": "address"
        }
      ],
      "name": "UnknownLender",
      "type": "error"
    },
    {
      "anonymous": false,
      "inputs": [
        {
          "indexed": true,
          "internalType": "address",
          "name": "dLoopCore",
          "type": "address"
        },
        {
          "indexed": true,
          "internalType": "address",
          "name": "debtToken",
          "type": "address"
        },
        {
          "indexed": false,
          "internalType": "uint256",
          "name": "amount",
          "type": "uint256"
        }
      ],
      "name": "LeftoverDebtTokensTransferred",
      "type": "event"
    },
    {
      "anonymous": false,
      "inputs": [
        {
          "indexed": true,
          "internalType": "address",
          "name": "dLoopCore",
          "type": "address"
        },
        {
          "indexed": true,
          "internalType": "address",
          "name": "debtToken",
          "type": "address"
        },
        {
          "indexed": false,
          "internalType": "uint256",
          "name": "minAmount",
          "type": "uint256"
        }
      ],
      "name": "MinLeftoverDebtTokenAmountSet",
      "type": "event"
    },
    {
      "anonymous": false,
      "inputs": [
        {
          "indexed": true,
          "internalType": "address",
          "name": "previousOwner",
          "type": "address"
        },
        {
          "indexed": true,
          "internalType": "address",
          "name": "newOwner",
          "type": "address"
        }
      ],
      "name": "OwnershipTransferred",
      "type": "event"
    },
    {
      "inputs": [],
      "name": "FLASHLOAN_CALLBACK",
      "outputs": [
        {
          "internalType": "bytes32",
          "name": "",
          "type": "bytes32"
        }
      ],
      "stateMutability": "view",
      "type": "function"
    },
    {
      "inputs": [
        {
          "internalType": "uint256",
          "name": "",
          "type": "uint256"
        }
      ],
      "name": "existingDebtTokens",
      "outputs": [
        {
          "internalType": "address",
          "name": "",
          "type": "address"
        }
      ],
      "stateMutability": "view",
      "type": "function"
    },
    {
      "inputs": [],
      "name": "flashLender",
      "outputs": [
        {
          "internalType": "contract IERC3156FlashLender",
          "name": "",
          "type": "address"
        }
      ],
      "stateMutability": "view",
      "type": "function"
    },
    {
      "inputs": [],
      "name": "getRestrictedRescueTokens",
      "outputs": [
        {
          "internalType": "address[]",
          "name": "restrictedTokens",
          "type": "address[]"
        }
      ],
      "stateMutability": "view",
      "type": "function"
    },
    {
      "inputs": [
        {
          "internalType": "uint256",
          "name": "additionalCollateralFromUser",
          "type": "uint256"
        },
        {
          "internalType": "uint256",
          "name": "minOutputDebtTokenAmount",
          "type": "uint256"
        },
        {
          "internalType": "bytes",
          "name": "debtTokenToCollateralSwapData",
          "type": "bytes"
        },
        {
          "internalType": "contract DLoopCoreBase",
          "name": "dLoopCore",
          "type": "address"
        }
      ],
      "name": "increaseLeverage",
      "outputs": [
        {
          "internalType": "uint256",
          "name": "receivedDebtTokenAmount",
          "type": "uint256"
        }
      ],
      "stateMutability": "nonpayable",
      "type": "function"
    },
    {
      "inputs": [
        {
          "internalType": "address",
          "name": "",
          "type": "address"
        },
        {
          "internalType": "address",
          "name": "",
          "type": "address"
        }
      ],
      "name": "minLeftoverDebtTokenAmount",
      "outputs": [
        {
          "internalType": "uint256",
          "name": "",
          "type": "uint256"
        }
      ],
      "stateMutability": "view",
      "type": "function"
    },
    {
      "inputs": [],
      "name": "odosRouter",
      "outputs": [
        {
          "internalType": "contract IOdosRouterV2",
          "name": "",
          "type": "address"
        }
      ],
      "stateMutability": "view",
      "type": "function"
    },
    {
      "inputs": [
        {
          "internalType": "address",
          "name": "initiator",
          "type": "address"
        },
        {
          "internalType": "address",
          "name": "token",
          "type": "address"
        },
        {
          "internalType": "uint256",
          "name": "",
          "type": "uint256"
        },
        {
          "internalType": "uint256",
          "name": "fee",
          "type": "uint256"
        },
        {
          "internalType": "bytes",
          "name": "data",
          "type": "bytes"
        }
      ],
      "name": "onFlashLoan",
      "outputs": [
        {
          "internalType": "bytes32",
          "name": "",
          "type": "bytes32"
        }
      ],
      "stateMutability": "nonpayable",
      "type": "function"
    },
    {
      "inputs": [],
      "name": "owner",
      "outputs": [
        {
          "internalType": "address",
          "name": "",
          "type": "address"
        }
      ],
      "stateMutability": "view",
      "type": "function"
    },
    {
      "inputs": [],
      "name": "renounceOwnership",
      "outputs": [],
      "stateMutability": "nonpayable",
      "type": "function"
    },
    {
      "inputs": [
        {
          "internalType": "address",
          "name": "token",
          "type": "address"
        },
        {
          "internalType": "address",
          "name": "receiver",
          "type": "address"
        },
        {
          "internalType": "uint256",
          "name": "amount",
          "type": "uint256"
        }
      ],
      "name": "rescueToken",
      "outputs": [],
      "stateMutability": "nonpayable",
      "type": "function"
    },
    {
      "inputs": [
        {
          "internalType": "address",
          "name": "dLoopCore",
          "type": "address"
        },
        {
          "internalType": "address",
          "name": "debtToken",
          "type": "address"
        },
        {
          "internalType": "uint256",
          "name": "minAmount",
          "type": "uint256"
        }
      ],
      "name": "setMinLeftoverDebtTokenAmount",
      "outputs": [],
      "stateMutability": "nonpayable",
      "type": "function"
    },
    {
      "inputs": [
        {
          "internalType": "address",
          "name": "newOwner",
          "type": "address"
        }
      ],
      "name": "transferOwnership",
      "outputs": [],
      "stateMutability": "nonpayable",
      "type": "function"
    }
  ],
  "transactionHash": "0xb7dc6ecc33efef9166929113e51ff826468d79e97df7af9a5873a20b1a2ce863",
  "args": [
    "0x6D4599221A36C6eBD9BBF0c087e81bBcd76F6bEF",
    "0x0000000000000000000000000000000000000000"
  ],
  "numDeployments": 1,
  "solcInputHash": "de6f56ccd83a8ae15e8a9aff2988cbe9",
  "bytecode": "0x60c03461010e57601f61207d38819003918201601f19168301916001600160401b0383118484101761011357808492604094855283398101031261010e5780516001600160a01b0391828216820361010e576020015190828216820361010e5733156100f5576000543360018060a01b0319821617600055604051933391167f8be0079c531659141344cd1fd0a4f28419497f9722a3daafe3b4186f6b6457e0600080a36001805560805260a052611f53908161012a82396080518181816102d70152818161051401528181610679015281816106d00152818161073f01526112db015260a0518181816110af01526115b40152f35b604051631e4fbdf760e01b815260006004820152602490fd5b600080fd5b634e487b7160e01b600052604160045260246000fdfe6080604052600436101561001257600080fd5b6000803560e01c806323e30c8b146112885780632ae181041461124d5780632bbb7bfb146111fe578063500fc43414611138578063715018a6146110de5780638321928d146110995780638da5cb5b1461107257806399551c4c14610f5a5780639c69946414610306578063a7714458146102c1578063cdfed0ca1461027d578063e5711e8b1461013e5763f2fde38b146100ac57600080fd5b3461013b57602036600319011261013b576100c5611b02565b6100cd611bde565b6001600160a01b0390811690811561012257600054826bffffffffffffffffffffffff60a01b821617600055167f8be0079c531659141344cd1fd0a4f28419497f9722a3daafe3b4186f6b6457e0600080a380f35b604051631e4fbdf760e01b815260048101849052602490fd5b80fd5b503461013b5761014d36611b5c565b909291610158611bde565b610160611d1d565b604051918290600454808552826020809601600488527f8a35acfbc15ff81a39ae7d344fd709f28e8600b4aa8c65c6b64bfe7fe36bd19b92885b8882821061025e575050506101b192500383611c50565b845b825181101561024257600581901b83018501516001600160a01b038581169116146101fd5760001981146101e9576001016101b3565b634e487b7160e01b86526011600452602486fd5b60405162461bcd60e51b815260048101869052601e60248201527f43616e6e6f7420726573637565207265737472696374656420746f6b656e00006044820152606490fd5b8561025783896001600160a01b038816611c72565b6001805580f35b85546001600160a01b031684526001958601958895509301920161019a565b503461013b57602036600319011261013b576004359060045482101561013b5760206102a883611b91565b905460405160039290921b1c6001600160a01b03168152f35b503461013b578060031936011261013b576040517f00000000000000000000000000000000000000000000000000000000000000006001600160a01b03168152602090f35b503461013b57608036600319011261013b5760443567ffffffffffffffff8111610f5657610338903690600401611b2e565b90606435906001600160a01b0382168203610f5257610355611d1d565b604051632c805af560e21b8152906020826004816001600160a01b0387165afa918215610987578592610f31575b50604051631f1b131360e31b8152936020856004816001600160a01b0388165afa9485156109e2578695610f00575b50600435610eb8575b604080516305c2df2760e31b8152600160048201529290836024816001600160a01b0389165afa8015610aa25787938891610e6b575b50600190880b03610e0f576040516370a0823160e01b81523060048201526020816024816001600160a01b0389165afa8015610a63578890610ddb575b61043b9150600435611d5f565b80841115610b9a57839461045460209261048596611d82565b60405163031c53ef60e01b815260048101919091526001600160a01b03909116602482015293849081906044820190565b03816001600160a01b0389165afa928315610aa2578793610b65575b506040516359757aa560e01b815260048101939093526001600160a01b0386166024840152602083806044810103816001600160a01b0389165afa928315610aa2578793610b31575b5060405163613255ab60e01b81526001600160a01b038781166004830152602090829060249082907f0000000000000000000000000000000000000000000000000000000000000000165afa908115610a63578891610aff575b50808411610ae15750906105c96105e6926105806040519161056583611c0a565b33835260208301946004358652604084019889523691611dab565b9081606082015260018060a01b038816608082015260018060a01b039051169251955160405196879460208601526040850152606084015260a0608084015260c0830190611e05565b6001600160a01b03861660a083015203601f198101845283611c50565b60405163415c506960e01b8152906020826004816001600160a01b0388165afa9182156109e2578692610aad575b506040516370a0823160e01b8152306004820152926020846024816001600160a01b038a165afa938415610aa2578794610a6e575b50604051633676633960e21b81526001600160a01b038716600482015260248101839052602081806044810103817f00000000000000000000000000000000000000000000000000000000000000006001600160a01b03165afa908115610a63578891610a2d575b5090826106f96106c660209461073a96611d5f565b6001600160a01b037f00000000000000000000000000000000000000000000000000000000000000008116908b16611e2a565b604051632e7ff4ef60e11b81523060048201526001600160a01b03891660248201526044810191909152608060648201529283918291906084830190611e05565b0381897f00000000000000000000000000000000000000000000000000000000000000006001600160a01b03165af180156109e2576109ed575b5060405163415c506960e01b81526020816004816001600160a01b0388165afa9081156109e25786916109b0575b50818111156109925750506040516370a0823160e01b81523060048201526020816024816001600160a01b0388165afa908115610987578591610955575b508181111561093757906107f391611d82565b915b60243580841061091957506040516370a0823160e01b8152306004820152936001600160a01b03919091169190602085602481865afa94851561090c5781956108d1575b509180602095859360406108749660018060a01b038316815260028a52208360005288526040600020548211610880575b5050503390611c72565b60018055604051908152f35b7f4e3f2d8b03bac5ad67f4185a73f97f28f4161c0044ad1c5cc4d05a32844cc3019088906108b8846001600160a01b03831687611c72565b6040519384526001600160a01b031692a380388061086a565b9450916020853d602011610904575b816108ed60209383611c50565b810103126108ff579351939182610839565b600080fd5b3d91506108e0565b50604051903d90823e3d90fd5b8360449160405191631a62c31560e11b835260048301526024820152fd5b6044925060405191632b52614d60e21b835260048301526024820152fd5b90506020813d60201161097f575b8161097060209383611c50565b810103126108ff5751386107e0565b3d9150610963565b6040513d87823e3d90fd5b60449250604051916315f117cb60e31b835260048301526024820152fd5b90506020813d6020116109da575b816109cb60209383611c50565b810103126108ff5751386107a2565b3d91506109be565b6040513d88823e3d90fd5b6020813d602011610a25575b81610a0660209383611c50565b81010312610a21575180151503610a1d5738610774565b8480fd5b8580fd5b3d91506109f9565b9190506020823d602011610a5b575b81610a4960209383611c50565b810103126108ff57905161073a6106b1565b3d9150610a3c565b6040513d8a823e3d90fd5b9093506020813d602011610a9a575b81610a8a60209383611c50565b810103126108ff57519238610649565b3d9150610a7d565b6040513d89823e3d90fd5b9091506020813d602011610ad9575b81610ac960209383611c50565b810103126108ff57519038610614565b3d9150610abc565b8360449160405191639ebe447560e01b835260048301526024820152fd5b90506020813d602011610b29575b81610b1a60209383611c50565b810103126108ff575138610544565b3d9150610b0d565b9092506020813d602011610b5d575b81610b4d60209383611c50565b810103126108ff575191386104ea565b3d9150610b40565b92506020833d602011610b92575b81610b8060209383611c50565b810103126108ff5791519160206104a1565b3d9150610b73565b60405163415c506960e01b81529350915060209050826004816001600160a01b0388165afa9182156109e2578692610da7575b506040516370a0823160e01b8152306004820152926020846024816001600160a01b038a165afa938415610aa2578794610d6f575b50610c1a91906001600160a01b038681169116611e2a565b6001600160a01b0383163b15610a1d576040516303b91b0360e31b81526004803590820152602480359082015285908181604481836001600160a01b038a165af18015610d6457610d50575b505060405163415c506960e01b81526020816004816001600160a01b0388165afa9081156109e2578691610d1e575b50818111156109925750506040516370a0823160e01b81523060048201526020816024816001600160a01b0388165afa908115610987578591610cec575b50818111156109375790610ce691611d82565b916107f5565b90506020813d602011610d16575b81610d0760209383611c50565b810103126108ff575138610cd3565b3d9150610cfa565b90506020813d602011610d48575b81610d3960209383611c50565b810103126108ff575138610c95565b3d9150610d2c565b610d5990611c3c565b610a1d578438610c66565b6040513d84823e3d90fd5b919093506020823d602011610d9f575b81610d8c60209383611c50565b810103126108ff57905192610c1a610c02565b3d9150610d7f565b9091506020813d602011610dd3575b81610dc360209383611c50565b810103126108ff57519038610bcd565b3d9150610db6565b506020813d602011610e07575b81610df560209383611c50565b810103126108ff5761043b905161042e565b3d9150610de8565b60405162461bcd60e51b815260206004820152602e60248201527f43757272656e74206c6576657261676520697320616c7265616479206174206f60448201526d1c8818589bdd99481d185c99d95d60921b6064820152608490fd5b9350506040833d604011610eb0575b81610e8760409383611c50565b81010312610eac57602083519301519283880b8403610ea8579260016103f1565b8780fd5b8680fd5b3d9150610e7a565b610efb6040516323b872dd60e01b6020820152336024820152306044820152600435606482015260648152610eec81611c0a565b6001600160a01b038516611cb5565b6103bb565b610f2391955060203d602011610f2a575b610f1b8183611c50565b810190611d40565b93386103b2565b503d610f11565b610f4b91925060203d602011610f2a57610f1b8183611c50565b9038610383565b8380fd5b5080fd5b503461013b57610f6936611b5c565b610f74929192611d1d565b610f7c611bde565b60018060a01b0380921691828552600260205280604086209416938460005260205281604060002055838552600360205260408520805460ff811615610ff2575b50505060207f9067d95fcd0d43da091e18536229ac14598949db74197de4abbc82b90d0a66ad91604051908152a36001805580f35b60ff191660011790556004546801000000000000000081101561105e57916020916110448460017f9067d95fcd0d43da091e18536229ac14598949db74197de4abbc82b90d0a66ad9601600455611b91565b819291549060031b9188831b921b19161790559138610fbd565b634e487b7160e01b86526041600452602486fd5b503461013b578060031936011261013b57546040516001600160a01b039091168152602090f35b503461013b578060031936011261013b576040517f00000000000000000000000000000000000000000000000000000000000000006001600160a01b03168152602090f35b503461013b578060031936011261013b576110f7611bde565b600080546001600160a01b0319811682556001600160a01b03167f8be0079c531659141344cd1fd0a4f28419497f9722a3daafe3b4186f6b6457e08280a380f35b503461013b578060031936011261013b5760405180916004549081835260208093018092600483527f8a35acfbc15ff81a39ae7d344fd709f28e8600b4aa8c65c6b64bfe7fe36bd19b90835b8181106111e1575050508461119a910385611c50565b60405193838594850191818652518092526040850193925b8281106111c157505050500390f35b83516001600160a01b0316855286955093810193928101926001016111b2565b82546001600160a01b031684529286019260019283019201611184565b503461013b57604036600319011261013b57611218611b02565b6040611222611b18565b9260018060a01b03809316815260026020522091166000526020526020604060002054604051908152f35b503461013b578060031936011261013b5760206040517f439148f0bbc682ca079e46d6e2c2f0c1e3b820f1a291b069d8882abf8cf18dd98152f35b503461013b5760a036600319011261013b576112a2611b02565b906112ab611b18565b906084359267ffffffffffffffff93848111611afe576112cf903690600401611b2e565b90916112d9611d1d565b7f00000000000000000000000000000000000000000000000000000000000000006001600160a01b031633819003611ad55750306001600160a01b03821603611aac575090611329913691611dab565b916040519361133785611c0a565b828552826020860152826040860152606080860152826080860152835184019360a08160208701960312610f52576020810151916001600160a01b0383168303610a1d576040820151916060810151916080820151908111610eac5787603f828401011215610eac5760208183010151906113b182611d8f565b986113bf6040519a8b611c50565b828a52604083838601010111610ea85760a092916113e691604060208c0191850101611de2565b0151956001600160a01b0387168703610a215760018060a01b038716608089015260608801526040870152602086015260018060a01b0316845260405192632c805af560e21b845260208460048160018060a01b0385165afa938415611840578394611a8b575b50604051631f1b131360e31b8152916020836004816001600160a01b0386165afa928315611a80578493611a5f575b506001600160a01b0383811690821603611a3557506114a46040860151602087015190611d82565b6040516370a0823160e01b81523060048201526020816024816001600160a01b038a165afa908115610987578591611a01575b506114e191611d82565b60608601516040516370a0823160e01b8152306004820152909691906020816024816001600160a01b0389165afa9081156109e25786916119cf575b506040516370a0823160e01b8152306004820152976020896024816001600160a01b038c165afa988915610aa257879961199a575b506040516304ecaec960e31b81526001600160a01b038781166004830152891660248201526044810184905260001960648201523060848201524260a482015261010060c482015298906020908a9081906115b290610104830190611e05565b7f00000000000000000000000000000000000000000000000000000000000000006001600160a01b031660e4830152038173c2f9a1Ac5Ee53C35CedD925Bae8E367d7689c3e75af4988915610aa2578799611966575b506040516370a0823160e01b8152306004820152916020836024816001600160a01b038b165afa928315610a63578893611932575b506040516370a0823160e01b8152306004820152926020846024816001600160a01b038e165afa9384156119275789946118ef575b508181106118bb575b50508082101561189f579061168f91611d82565b908082036118815750506040516370a0823160e01b8152306004820152946020866024816001600160a01b0388165afa95861561098757859661184b575b506040820151602092916116ee91906001600160a01b038681169116611e2a565b01516001600160a01b0382163b15610f52576040516303b91b0360e31b81526004810191909152602481018490529083908290604490829084906001600160a01b03165af1801561184057611829575b506040516370a0823160e01b815230600482015290602090829060249082906001600160a01b03165afa91821561181d57916117eb575b5081811115610937579061178891611d82565b6064356117958184611d5f565b82106117c9576001805560206040517f439148f0bbc682ca079e46d6e2c2f0c1e3b820f1a291b069d8882abf8cf18dd98152f35b60649260405192630901cbd360e21b8452600484015260248301526044820152fd5b90506020813d602011611815575b8161180660209383611c50565b810103126108ff575138611775565b3d91506117f9565b604051903d90823e3d90fd5b60249192611838602092611c3c565b92915061173e565b6040513d85823e3d90fd5b9095506020813d602011611879575b8161186760209383611c50565b81010312610a1d5751946116ee6116cd565b3d915061185a565b6044925060405191638919e25360e01b835260048301526024820152fd5b604491604051916204bb6760e81b835260048301526024820152fd5b6118c491611d82565b8981036118d1578061167b565b6044908a60405191637654e04760e11b835260048301526024820152fd5b9093506020813d60201161191f575b8161190b60209383611c50565b8101031261191b57519238611672565b8880fd5b3d91506118fe565b6040513d8b823e3d90fd5b9092506020813d60201161195e575b8161194e60209383611c50565b81010312610ea85751913861163d565b3d9150611941565b9098506020813d602011611992575b8161198260209383611c50565b81010312610eac57519738611608565b3d9150611975565b98506020893d6020116119c7575b816119b560209383611c50565b81010312610eac579751976020611552565b3d91506119a8565b90506020813d6020116119f9575b816119ea60209383611c50565b81010312610a2157513861151d565b3d91506119dd565b90506020813d602011611a2d575b81611a1c60209383611c50565b81010312610a1d57516114e16114d7565b3d9150611a0f565b60405163c7f1118d60e01b81526001600160a01b0391821660048201529083166024820152604490fd5b611a7991935060203d602011610f2a57610f1b8183611c50565b913861147c565b6040513d86823e3d90fd5b611aa591945060203d602011610f2a57610f1b8183611c50565b923861144d565b604051636705ec4760e11b81526001600160a01b03919091166004820152306024820152604490fd5b604051631a01026f60e01b81523360048201526001600160a01b03919091166024820152604490fd5b8280fd5b600435906001600160a01b03821682036108ff57565b602435906001600160a01b03821682036108ff57565b9181601f840112156108ff5782359167ffffffffffffffff83116108ff57602083818601950101116108ff57565b60609060031901126108ff576001600160a01b039060043582811681036108ff579160243590811681036108ff579060443590565b600454811015611bc85760046000527f8a35acfbc15ff81a39ae7d344fd709f28e8600b4aa8c65c6b64bfe7fe36bd19b0190600090565b634e487b7160e01b600052603260045260246000fd5b6000546001600160a01b03163303611bf257565b60405163118cdaa760e01b8152336004820152602490fd5b60a0810190811067ffffffffffffffff821117611c2657604052565b634e487b7160e01b600052604160045260246000fd5b67ffffffffffffffff8111611c2657604052565b90601f8019910116810190811067ffffffffffffffff821117611c2657604052565b60405163a9059cbb60e01b60208201526001600160a01b03929092166024830152604480830193909352918152611cb391611cae606483611c50565b611cb5565b565b906000602091828151910182855af115611d11576000513d611d0857506001600160a01b0381163b155b611ce65750565b604051635274afe760e01b81526001600160a01b039091166004820152602490fd5b60011415611cdf565b6040513d6000823e3d90fd5b600260015414611d2e576002600155565b604051633ee5aeb560e01b8152600490fd5b908160209103126108ff57516001600160a01b03811681036108ff5790565b91908201809211611d6c57565b634e487b7160e01b600052601160045260246000fd5b91908203918211611d6c57565b67ffffffffffffffff8111611c2657601f01601f191660200190565b929192611db782611d8f565b91611dc56040519384611c50565b8294818452818301116108ff578281602093846000960137010152565b60005b838110611df55750506000910152565b8181015183820152602001611de5565b90602091611e1e81518092818552858086019101611de2565b601f01601f1916010190565b60405163095ea7b360e01b602082018181526001600160a01b038516602484015260448084019690965294825294939092611e66606485611c50565b60206000809386519082875af182513d82611ef8575b505015611e8c575b505050509050565b60405160208101969096526001600160a01b0316602486015260448086018290528552608085019067ffffffffffffffff821186831017611ee45750611eda9394611cae9160405282611cb5565b8038808080611e84565b634e487b7160e01b81526041600452602490fd5b909150611f1557506001600160a01b0383163b15155b3880611e7c565b600114611f0e56fea26469706673582212206d24ad0b68576acac053614ebb2864eb85ac7c5c16b7a5ae90c3a41ef3ec109d64736f6c63430008140033",
  "deployedBytecode": "0x6080604052600436101561001257600080fd5b6000803560e01c806323e30c8b146112885780632ae181041461124d5780632bbb7bfb146111fe578063500fc43414611138578063715018a6146110de5780638321928d146110995780638da5cb5b1461107257806399551c4c14610f5a5780639c69946414610306578063a7714458146102c1578063cdfed0ca1461027d578063e5711e8b1461013e5763f2fde38b146100ac57600080fd5b3461013b57602036600319011261013b576100c5611b02565b6100cd611bde565b6001600160a01b0390811690811561012257600054826bffffffffffffffffffffffff60a01b821617600055167f8be0079c531659141344cd1fd0a4f28419497f9722a3daafe3b4186f6b6457e0600080a380f35b604051631e4fbdf760e01b815260048101849052602490fd5b80fd5b503461013b5761014d36611b5c565b909291610158611bde565b610160611d1d565b604051918290600454808552826020809601600488527f8a35acfbc15ff81a39ae7d344fd709f28e8600b4aa8c65c6b64bfe7fe36bd19b92885b8882821061025e575050506101b192500383611c50565b845b825181101561024257600581901b83018501516001600160a01b038581169116146101fd5760001981146101e9576001016101b3565b634e487b7160e01b86526011600452602486fd5b60405162461bcd60e51b815260048101869052601e60248201527f43616e6e6f7420726573637565207265737472696374656420746f6b656e00006044820152606490fd5b8561025783896001600160a01b038816611c72565b6001805580f35b85546001600160a01b031684526001958601958895509301920161019a565b503461013b57602036600319011261013b576004359060045482101561013b5760206102a883611b91565b905460405160039290921b1c6001600160a01b03168152f35b503461013b578060031936011261013b576040517f00000000000000000000000000000000000000000000000000000000000000006001600160a01b03168152602090f35b503461013b57608036600319011261013b5760443567ffffffffffffffff8111610f5657610338903690600401611b2e565b90606435906001600160a01b0382168203610f5257610355611d1d565b604051632c805af560e21b8152906020826004816001600160a01b0387165afa918215610987578592610f31575b50604051631f1b131360e31b8152936020856004816001600160a01b0388165afa9485156109e2578695610f00575b50600435610eb8575b604080516305c2df2760e31b8152600160048201529290836024816001600160a01b0389165afa8015610aa25787938891610e6b575b50600190880b03610e0f576040516370a0823160e01b81523060048201526020816024816001600160a01b0389165afa8015610a63578890610ddb575b61043b9150600435611d5f565b80841115610b9a57839461045460209261048596611d82565b60405163031c53ef60e01b815260048101919091526001600160a01b03909116602482015293849081906044820190565b03816001600160a01b0389165afa928315610aa2578793610b65575b506040516359757aa560e01b815260048101939093526001600160a01b0386166024840152602083806044810103816001600160a01b0389165afa928315610aa2578793610b31575b5060405163613255ab60e01b81526001600160a01b038781166004830152602090829060249082907f0000000000000000000000000000000000000000000000000000000000000000165afa908115610a63578891610aff575b50808411610ae15750906105c96105e6926105806040519161056583611c0a565b33835260208301946004358652604084019889523691611dab565b9081606082015260018060a01b038816608082015260018060a01b039051169251955160405196879460208601526040850152606084015260a0608084015260c0830190611e05565b6001600160a01b03861660a083015203601f198101845283611c50565b60405163415c506960e01b8152906020826004816001600160a01b0388165afa9182156109e2578692610aad575b506040516370a0823160e01b8152306004820152926020846024816001600160a01b038a165afa938415610aa2578794610a6e575b50604051633676633960e21b81526001600160a01b038716600482015260248101839052602081806044810103817f00000000000000000000000000000000000000000000000000000000000000006001600160a01b03165afa908115610a63578891610a2d575b5090826106f96106c660209461073a96611d5f565b6001600160a01b037f00000000000000000000000000000000000000000000000000000000000000008116908b16611e2a565b604051632e7ff4ef60e11b81523060048201526001600160a01b03891660248201526044810191909152608060648201529283918291906084830190611e05565b0381897f00000000000000000000000000000000000000000000000000000000000000006001600160a01b03165af180156109e2576109ed575b5060405163415c506960e01b81526020816004816001600160a01b0388165afa9081156109e25786916109b0575b50818111156109925750506040516370a0823160e01b81523060048201526020816024816001600160a01b0388165afa908115610987578591610955575b508181111561093757906107f391611d82565b915b60243580841061091957506040516370a0823160e01b8152306004820152936001600160a01b03919091169190602085602481865afa94851561090c5781956108d1575b509180602095859360406108749660018060a01b038316815260028a52208360005288526040600020548211610880575b5050503390611c72565b60018055604051908152f35b7f4e3f2d8b03bac5ad67f4185a73f97f28f4161c0044ad1c5cc4d05a32844cc3019088906108b8846001600160a01b03831687611c72565b6040519384526001600160a01b031692a380388061086a565b9450916020853d602011610904575b816108ed60209383611c50565b810103126108ff579351939182610839565b600080fd5b3d91506108e0565b50604051903d90823e3d90fd5b8360449160405191631a62c31560e11b835260048301526024820152fd5b6044925060405191632b52614d60e21b835260048301526024820152fd5b90506020813d60201161097f575b8161097060209383611c50565b810103126108ff5751386107e0565b3d9150610963565b6040513d87823e3d90fd5b60449250604051916315f117cb60e31b835260048301526024820152fd5b90506020813d6020116109da575b816109cb60209383611c50565b810103126108ff5751386107a2565b3d91506109be565b6040513d88823e3d90fd5b6020813d602011610a25575b81610a0660209383611c50565b81010312610a21575180151503610a1d5738610774565b8480fd5b8580fd5b3d91506109f9565b9190506020823d602011610a5b575b81610a4960209383611c50565b810103126108ff57905161073a6106b1565b3d9150610a3c565b6040513d8a823e3d90fd5b9093506020813d602011610a9a575b81610a8a60209383611c50565b810103126108ff57519238610649565b3d9150610a7d565b6040513d89823e3d90fd5b9091506020813d602011610ad9575b81610ac960209383611c50565b810103126108ff57519038610614565b3d9150610abc565b8360449160405191639ebe447560e01b835260048301526024820152fd5b90506020813d602011610b29575b81610b1a60209383611c50565b810103126108ff575138610544565b3d9150610b0d565b9092506020813d602011610b5d575b81610b4d60209383611c50565b810103126108ff575191386104ea565b3d9150610b40565b92506020833d602011610b92575b81610b8060209383611c50565b810103126108ff5791519160206104a1565b3d9150610b73565b60405163415c506960e01b81529350915060209050826004816001600160a01b0388165afa9182156109e2578692610da7575b506040516370a0823160e01b8152306004820152926020846024816001600160a01b038a165afa938415610aa2578794610d6f575b50610c1a91906001600160a01b038681169116611e2a565b6001600160a01b0383163b15610a1d576040516303b91b0360e31b81526004803590820152602480359082015285908181604481836001600160a01b038a165af18015610d6457610d50575b505060405163415c506960e01b81526020816004816001600160a01b0388165afa9081156109e2578691610d1e575b50818111156109925750506040516370a0823160e01b81523060048201526020816024816001600160a01b0388165afa908115610987578591610cec575b50818111156109375790610ce691611d82565b916107f5565b90506020813d602011610d16575b81610d0760209383611c50565b810103126108ff575138610cd3565b3d9150610cfa565b90506020813d602011610d48575b81610d3960209383611c50565b810103126108ff575138610c95565b3d9150610d2c565b610d5990611c3c565b610a1d578438610c66565b6040513d84823e3d90fd5b919093506020823d602011610d9f575b81610d8c60209383611c50565b810103126108ff57905192610c1a610c02565b3d9150610d7f565b9091506020813d602011610dd3575b81610dc360209383611c50565b810103126108ff57519038610bcd565b3d9150610db6565b506020813d602011610e07575b81610df560209383611c50565b810103126108ff5761043b905161042e565b3d9150610de8565b60405162461bcd60e51b815260206004820152602e60248201527f43757272656e74206c6576657261676520697320616c7265616479206174206f60448201526d1c8818589bdd99481d185c99d95d60921b6064820152608490fd5b9350506040833d604011610eb0575b81610e8760409383611c50565b81010312610eac57602083519301519283880b8403610ea8579260016103f1565b8780fd5b8680fd5b3d9150610e7a565b610efb6040516323b872dd60e01b6020820152336024820152306044820152600435606482015260648152610eec81611c0a565b6001600160a01b038516611cb5565b6103bb565b610f2391955060203d602011610f2a575b610f1b8183611c50565b810190611d40565b93386103b2565b503d610f11565b610f4b91925060203d602011610f2a57610f1b8183611c50565b9038610383565b8380fd5b5080fd5b503461013b57610f6936611b5c565b610f74929192611d1d565b610f7c611bde565b60018060a01b0380921691828552600260205280604086209416938460005260205281604060002055838552600360205260408520805460ff811615610ff2575b50505060207f9067d95fcd0d43da091e18536229ac14598949db74197de4abbc82b90d0a66ad91604051908152a36001805580f35b60ff191660011790556004546801000000000000000081101561105e57916020916110448460017f9067d95fcd0d43da091e18536229ac14598949db74197de4abbc82b90d0a66ad9601600455611b91565b819291549060031b9188831b921b19161790559138610fbd565b634e487b7160e01b86526041600452602486fd5b503461013b578060031936011261013b57546040516001600160a01b039091168152602090f35b503461013b578060031936011261013b576040517f00000000000000000000000000000000000000000000000000000000000000006001600160a01b03168152602090f35b503461013b578060031936011261013b576110f7611bde565b600080546001600160a01b0319811682556001600160a01b03167f8be0079c531659141344cd1fd0a4f28419497f9722a3daafe3b4186f6b6457e08280a380f35b503461013b578060031936011261013b5760405180916004549081835260208093018092600483527f8a35acfbc15ff81a39ae7d344fd709f28e8600b4aa8c65c6b64bfe7fe36bd19b90835b8181106111e1575050508461119a910385611c50565b60405193838594850191818652518092526040850193925b8281106111c157505050500390f35b83516001600160a01b0316855286955093810193928101926001016111b2565b82546001600160a01b031684529286019260019283019201611184565b503461013b57604036600319011261013b57611218611b02565b6040611222611b18565b9260018060a01b03809316815260026020522091166000526020526020604060002054604051908152f35b503461013b578060031936011261013b5760206040517f439148f0bbc682ca079e46d6e2c2f0c1e3b820f1a291b069d8882abf8cf18dd98152f35b503461013b5760a036600319011261013b576112a2611b02565b906112ab611b18565b906084359267ffffffffffffffff93848111611afe576112cf903690600401611b2e565b90916112d9611d1d565b7f00000000000000000000000000000000000000000000000000000000000000006001600160a01b031633819003611ad55750306001600160a01b03821603611aac575090611329913691611dab565b916040519361133785611c0a565b828552826020860152826040860152606080860152826080860152835184019360a08160208701960312610f52576020810151916001600160a01b0383168303610a1d576040820151916060810151916080820151908111610eac5787603f828401011215610eac5760208183010151906113b182611d8f565b986113bf6040519a8b611c50565b828a52604083838601010111610ea85760a092916113e691604060208c0191850101611de2565b0151956001600160a01b0387168703610a215760018060a01b038716608089015260608801526040870152602086015260018060a01b0316845260405192632c805af560e21b845260208460048160018060a01b0385165afa938415611840578394611a8b575b50604051631f1b131360e31b8152916020836004816001600160a01b0386165afa928315611a80578493611a5f575b506001600160a01b0383811690821603611a3557506114a46040860151602087015190611d82565b6040516370a0823160e01b81523060048201526020816024816001600160a01b038a165afa908115610987578591611a01575b506114e191611d82565b60608601516040516370a0823160e01b8152306004820152909691906020816024816001600160a01b0389165afa9081156109e25786916119cf575b506040516370a0823160e01b8152306004820152976020896024816001600160a01b038c165afa988915610aa257879961199a575b506040516304ecaec960e31b81526001600160a01b038781166004830152891660248201526044810184905260001960648201523060848201524260a482015261010060c482015298906020908a9081906115b290610104830190611e05565b7f00000000000000000000000000000000000000000000000000000000000000006001600160a01b031660e4830152038173__$73ace4aa8e5f9c1a2b48f796123ca85165$__5af4988915610aa2578799611966575b506040516370a0823160e01b8152306004820152916020836024816001600160a01b038b165afa928315610a63578893611932575b506040516370a0823160e01b8152306004820152926020846024816001600160a01b038e165afa9384156119275789946118ef575b508181106118bb575b50508082101561189f579061168f91611d82565b908082036118815750506040516370a0823160e01b8152306004820152946020866024816001600160a01b0388165afa95861561098757859661184b575b506040820151602092916116ee91906001600160a01b038681169116611e2a565b01516001600160a01b0382163b15610f52576040516303b91b0360e31b81526004810191909152602481018490529083908290604490829084906001600160a01b03165af1801561184057611829575b506040516370a0823160e01b815230600482015290602090829060249082906001600160a01b03165afa91821561181d57916117eb575b5081811115610937579061178891611d82565b6064356117958184611d5f565b82106117c9576001805560206040517f439148f0bbc682ca079e46d6e2c2f0c1e3b820f1a291b069d8882abf8cf18dd98152f35b60649260405192630901cbd360e21b8452600484015260248301526044820152fd5b90506020813d602011611815575b8161180660209383611c50565b810103126108ff575138611775565b3d91506117f9565b604051903d90823e3d90fd5b60249192611838602092611c3c565b92915061173e565b6040513d85823e3d90fd5b9095506020813d602011611879575b8161186760209383611c50565b81010312610a1d5751946116ee6116cd565b3d915061185a565b6044925060405191638919e25360e01b835260048301526024820152fd5b604491604051916204bb6760e81b835260048301526024820152fd5b6118c491611d82565b8981036118d1578061167b565b6044908a60405191637654e04760e11b835260048301526024820152fd5b9093506020813d60201161191f575b8161190b60209383611c50565b8101031261191b57519238611672565b8880fd5b3d91506118fe565b6040513d8b823e3d90fd5b9092506020813d60201161195e575b8161194e60209383611c50565b81010312610ea85751913861163d565b3d9150611941565b9098506020813d602011611992575b8161198260209383611c50565b81010312610eac57519738611608565b3d9150611975565b98506020893d6020116119c7575b816119b560209383611c50565b81010312610eac579751976020611552565b3d91506119a8565b90506020813d6020116119f9575b816119ea60209383611c50565b81010312610a2157513861151d565b3d91506119dd565b90506020813d602011611a2d575b81611a1c60209383611c50565b81010312610a1d57516114e16114d7565b3d9150611a0f565b60405163c7f1118d60e01b81526001600160a01b0391821660048201529083166024820152604490fd5b611a7991935060203d602011610f2a57610f1b8183611c50565b913861147c565b6040513d86823e3d90fd5b611aa591945060203d602011610f2a57610f1b8183611c50565b923861144d565b604051636705ec4760e11b81526001600160a01b03919091166004820152306024820152604490fd5b604051631a01026f60e01b81523360048201526001600160a01b03919091166024820152604490fd5b8280fd5b600435906001600160a01b03821682036108ff57565b602435906001600160a01b03821682036108ff57565b9181601f840112156108ff5782359167ffffffffffffffff83116108ff57602083818601950101116108ff57565b60609060031901126108ff576001600160a01b039060043582811681036108ff579160243590811681036108ff579060443590565b600454811015611bc85760046000527f8a35acfbc15ff81a39ae7d344fd709f28e8600b4aa8c65c6b64bfe7fe36bd19b0190600090565b634e487b7160e01b600052603260045260246000fd5b6000546001600160a01b03163303611bf257565b60405163118cdaa760e01b8152336004820152602490fd5b60a0810190811067ffffffffffffffff821117611c2657604052565b634e487b7160e01b600052604160045260246000fd5b67ffffffffffffffff8111611c2657604052565b90601f8019910116810190811067ffffffffffffffff821117611c2657604052565b60405163a9059cbb60e01b60208201526001600160a01b03929092166024830152604480830193909352918152611cb391611cae606483611c50565b611cb5565b565b906000602091828151910182855af115611d11576000513d611d0857506001600160a01b0381163b155b611ce65750565b604051635274afe760e01b81526001600160a01b039091166004820152602490fd5b60011415611cdf565b6040513d6000823e3d90fd5b600260015414611d2e576002600155565b604051633ee5aeb560e01b8152600490fd5b908160209103126108ff57516001600160a01b03811681036108ff5790565b91908201809211611d6c57565b634e487b7160e01b600052601160045260246000fd5b91908203918211611d6c57565b67ffffffffffffffff8111611c2657601f01601f191660200190565b929192611db782611d8f565b91611dc56040519384611c50565b8294818452818301116108ff578281602093846000960137010152565b60005b838110611df55750506000910152565b8181015183820152602001611de5565b90602091611e1e81518092818552858086019101611de2565b601f01601f1916010190565b60405163095ea7b360e01b602082018181526001600160a01b038516602484015260448084019690965294825294939092611e66606485611c50565b60206000809386519082875af182513d82611ef8575b505015611e8c575b505050509050565b60405160208101969096526001600160a01b0316602486015260448086018290528552608085019067ffffffffffffffff821186831017611ee45750611eda9394611cae9160405282611cb5565b8038808080611e84565b634e487b7160e01b81526041600452602490fd5b909150611f1557506001600160a01b0383163b15155b3880611e7c565b600114611f0e56fea26469706673582212206d24ad0b68576acac053614ebb2864eb85ac7c5c16b7a5ae90c3a41ef3ec109d64736f6c63430008140033",
  "libraries": {
    "OdosSwapLogic": "0xc2f9a1Ac5Ee53C35CedD925Bae8E367d7689c3e7"
  },
  "devdoc": {
    "details": "Implementation of DLoopIncreaseLeverageBase with Odos swap functionality",
    "errors": {
      "OwnableInvalidOwner(address)": [
        {
          "details": "The owner is not a valid owner account. (eg. `address(0)`)"
        }
      ],
      "OwnableUnauthorizedAccount(address)": [
        {
          "details": "The caller account is not authorized to perform an operation."
        }
      ],
      "ReentrancyGuardReentrantCall()": [
        {
          "details": "Unauthorized reentrant call."
        }
      ],
      "SafeERC20FailedOperation(address)": [
        {
          "details": "An operation with an ERC-20 token failed."
        }
      ]
    },
    "kind": "dev",
    "methods": {
      "constructor": {
        "details": "Constructor for the DLoopIncreaseLeverageOdos contract",
        "params": {
          "_flashLender": "Address of the flash loan provider",
          "_odosRouter": "Address of the Odos router"
        }
      },
      "getRestrictedRescueTokens()": {
        "details": "Gets the restricted rescue tokens",
        "returns": {
          "restrictedTokens": "Restricted rescue tokens"
        }
      },
      "increaseLeverage(uint256,uint256,bytes,address)": {
        "details": "Increases leverage with flash loans      - Flash loans debt tokens, swaps to collateral tokens, calls increaseLeverage, uses received debt tokens to repay flash loan",
        "params": {
          "additionalCollateralFromUser": "Additional collateral token amount from user (can be 0)",
          "dLoopCore": "Address of the DLoopCore contract to use",
          "debtTokenToCollateralSwapData": "Swap data from debt token to collateral token",
          "minOutputDebtTokenAmount": "Minimum amount of debt token to receive (slippage protection)"
        },
        "returns": {
          "receivedDebtTokenAmount": "Amount of debt tokens received from increase leverage operation"
        }
      },
      "onFlashLoan(address,address,uint256,uint256,bytes)": {
        "details": "Callback function for flash loans",
        "params": {
          "data": "Additional data passed to the flash loan",
          "fee": "Flash loan fee",
          "initiator": "Address that initiated the flash loan",
          "token": "Address of the flash-borrowed token"
        },
        "returns": {
          "_0": "bytes32 The flash loan callback success bytes"
        }
      },
      "owner()": {
        "details": "Returns the address of the current owner."
      },
      "renounceOwnership()": {
        "details": "Leaves the contract without owner. It will not be possible to call `onlyOwner` functions. Can only be called by the current owner. NOTE: Renouncing ownership will leave the contract without an owner, thereby disabling any functionality that is only available to the owner."
      },
      "rescueToken(address,address,uint256)": {
        "details": "Rescues tokens accidentally sent to the contract (except for the collateral token and debt token)",
        "params": {
          "amount": "Amount of tokens to rescue",
          "receiver": "Address to receive the rescued tokens",
          "token": "Address of the token to rescue"
        }
      },
      "setMinLeftoverDebtTokenAmount(address,address,uint256)": {
        "details": "Sets the minimum leftover debt token amount for a given dLoopCore and debt token",
        "params": {
          "dLoopCore": "Address of the dLoopCore contract",
          "debtToken": "Address of the debt token",
          "minAmount": "Minimum leftover debt token amount for the given dLoopCore and debt token"
        }
      },
      "transferOwnership(address)": {
        "details": "Transfers ownership of the contract to a new account (`newOwner`). Can only be called by the current owner."
      }
    },
    "title": "DLoopIncreaseLeverageOdos",
    "version": 1
  },
  "userdoc": {
    "kind": "user",
    "methods": {},
    "version": 1
  },
  "storageLayout": {
    "storage": [
      {
        "astId": 387,
        "contract": "contracts/vaults/dloop/periphery/venue/odos/DLoopIncreaseLeverageOdos.sol:DLoopIncreaseLeverageOdos",
        "label": "_owner",
        "offset": 0,
        "slot": "0",
        "type": "t_address"
      },
      {
        "astId": 2793,
        "contract": "contracts/vaults/dloop/periphery/venue/odos/DLoopIncreaseLeverageOdos.sol:DLoopIncreaseLeverageOdos",
        "label": "_status",
        "offset": 0,
        "slot": "1",
        "type": "t_uint256"
      },
      {
        "astId": 15092,
        "contract": "contracts/vaults/dloop/periphery/venue/odos/DLoopIncreaseLeverageOdos.sol:DLoopIncreaseLeverageOdos",
        "label": "minLeftoverDebtTokenAmount",
        "offset": 0,
        "slot": "2",
        "type": "t_mapping(t_address,t_mapping(t_address,t_uint256))"
      },
      {
        "astId": 15096,
        "contract": "contracts/vaults/dloop/periphery/venue/odos/DLoopIncreaseLeverageOdos.sol:DLoopIncreaseLeverageOdos",
        "label": "_existingDebtTokensMap",
        "offset": 0,
        "slot": "3",
        "type": "t_mapping(t_address,t_bool)"
      },
      {
        "astId": 15099,
        "contract": "contracts/vaults/dloop/periphery/venue/odos/DLoopIncreaseLeverageOdos.sol:DLoopIncreaseLeverageOdos",
        "label": "existingDebtTokens",
        "offset": 0,
        "slot": "4",
        "type": "t_array(t_address)dyn_storage"
      }
    ],
    "types": {
      "t_address": {
        "encoding": "inplace",
        "label": "address",
        "numberOfBytes": "20"
      },
      "t_array(t_address)dyn_storage": {
        "base": "t_address",
        "encoding": "dynamic_array",
        "label": "address[]",
        "numberOfBytes": "32"
      },
      "t_bool": {
        "encoding": "inplace",
        "label": "bool",
        "numberOfBytes": "1"
      },
      "t_mapping(t_address,t_bool)": {
        "encoding": "mapping",
        "key": "t_address",
        "label": "mapping(address => bool)",
        "numberOfBytes": "32",
        "value": "t_bool"
      },
      "t_mapping(t_address,t_mapping(t_address,t_uint256))": {
        "encoding": "mapping",
        "key": "t_address",
        "label": "mapping(address => mapping(address => uint256))",
        "numberOfBytes": "32",
        "value": "t_mapping(t_address,t_uint256)"
      },
      "t_mapping(t_address,t_uint256)": {
        "encoding": "mapping",
        "key": "t_address",
        "label": "mapping(address => uint256)",
        "numberOfBytes": "32",
        "value": "t_uint256"
      },
      "t_uint256": {
        "encoding": "inplace",
        "label": "uint256",
        "numberOfBytes": "32"
      }
    }
  }
}