{
  "address": "0xE72fCCEACeeF7f4bADba821Dd6e513561bAd3901",
  "abi": [
    {
      "inputs": [
        {
          "internalType": "string",
          "name": "_name",
          "type": "string"
        },
        {
          "internalType": "string",
          "name": "_symbol",
          "type": "string"
        },
        {
          "internalType": "contract ERC20",
          "name": "_collateralToken",
          "type": "address"
        },
        {
          "internalType": "contract ERC20",
          "name": "_debtToken",
          "type": "address"
        },
        {
          "internalType": "contract IPoolAddressesProvider",
          "name": "_lendingPoolAddressesProvider",
          "type": "address"
        },
        {
          "internalType": "uint32",
          "name": "_targetLeverageBps",
          "type": "uint32"
        },
        {
          "internalType": "uint32",
          "name": "_lowerBoundTargetLeverageBps",
          "type": "uint32"
        },
        {
          "internalType": "uint32",
          "name": "_upperBoundTargetLeverageBps",
          "type": "uint32"
        },
        {
          "internalType": "uint256",
          "name": "_maxSubsidyBps",
          "type": "uint256"
        },
        {
          "internalType": "contract IRewardsController",
          "name": "_rewardsController",
          "type": "address"
        },
        {
          "internalType": "address",
          "name": "_dLendAssetToClaimFor",
          "type": "address"
        },
        {
          "internalType": "address",
          "name": "_targetStaticATokenWrapper",
          "type": "address"
        },
        {
          "internalType": "address",
          "name": "_treasury",
          "type": "address"
        },
        {
          "internalType": "uint256",
          "name": "_maxTreasuryFeeBps",
          "type": "uint256"
        },
        {
          "internalType": "uint256",
          "name": "_initialTreasuryFeeBps",
          "type": "uint256"
        },
        {
          "internalType": "uint256",
          "name": "_initialExchangeThreshold",
          "type": "uint256"
        }
      ],
      "stateMutability": "nonpayable",
      "type": "constructor"
    },
    {
      "inputs": [],
      "name": "AccessControlBadConfirmation",
      "type": "error"
    },
    {
      "inputs": [
        {
          "internalType": "address",
          "name": "account",
          "type": "address"
        },
        {
          "internalType": "bytes32",
          "name": "neededRole",
          "type": "bytes32"
        }
      ],
      "name": "AccessControlUnauthorizedAccount",
      "type": "error"
    },
    {
      "inputs": [
        {
          "internalType": "address",
          "name": "asset",
          "type": "address"
        }
      ],
      "name": "AssetPriceIsZero",
      "type": "error"
    },
    {
      "inputs": [
        {
          "internalType": "uint256",
          "name": "totalCollateralBase",
          "type": "uint256"
        },
        {
          "internalType": "uint256",
          "name": "totalDebtBase",
          "type": "uint256"
        }
      ],
      "name": "CollateralLessThanDebt",
      "type": "error"
    },
    {
      "inputs": [
        {
          "internalType": "uint256",
          "name": "newLeverageBps",
          "type": "uint256"
        },
        {
          "internalType": "uint256",
          "name": "targetLeverageBps",
          "type": "uint256"
        },
        {
          "internalType": "uint256",
          "name": "currentLeverageBps",
          "type": "uint256"
        }
      ],
      "name": "DecreaseLeverageOutOfRange",
      "type": "error"
    },
    {
      "inputs": [
        {
          "internalType": "uint256",
          "name": "currentBalance",
          "type": "uint256"
        },
        {
          "internalType": "uint256",
          "name": "newTotalAssets",
          "type": "uint256"
        }
      ],
      "name": "DepositInsufficientToSupply",
      "type": "error"
    },
    {
      "inputs": [
        {
          "internalType": "address",
          "name": "spender",
          "type": "address"
        },
        {
          "internalType": "uint256",
          "name": "allowance",
          "type": "uint256"
        },
        {
          "internalType": "uint256",
          "name": "needed",
          "type": "uint256"
        }
      ],
      "name": "ERC20InsufficientAllowance",
      "type": "error"
    },
    {
      "inputs": [
        {
          "internalType": "address",
          "name": "sender",
          "type": "address"
        },
        {
          "internalType": "uint256",
          "name": "balance",
          "type": "uint256"
        },
        {
          "internalType": "uint256",
          "name": "needed",
          "type": "uint256"
        }
      ],
      "name": "ERC20InsufficientBalance",
      "type": "error"
    },
    {
      "inputs": [
        {
          "internalType": "address",
          "name": "approver",
          "type": "address"
        }
      ],
      "name": "ERC20InvalidApprover",
      "type": "error"
    },
    {
      "inputs": [
        {
          "internalType": "address",
          "name": "receiver",
          "type": "address"
        }
      ],
      "name": "ERC20InvalidReceiver",
      "type": "error"
    },
    {
      "inputs": [
        {
          "internalType": "address",
          "name": "sender",
          "type": "address"
        }
      ],
      "name": "ERC20InvalidSender",
      "type": "error"
    },
    {
      "inputs": [
        {
          "internalType": "address",
          "name": "spender",
          "type": "address"
        }
      ],
      "name": "ERC20InvalidSpender",
      "type": "error"
    },
    {
      "inputs": [
        {
          "internalType": "address",
          "name": "receiver",
          "type": "address"
        },
        {
          "internalType": "uint256",
          "name": "assets",
          "type": "uint256"
        },
        {
          "internalType": "uint256",
          "name": "max",
          "type": "uint256"
        }
      ],
      "name": "ERC4626ExceededMaxDeposit",
      "type": "error"
    },
    {
      "inputs": [
        {
          "internalType": "address",
          "name": "receiver",
          "type": "address"
        },
        {
          "internalType": "uint256",
          "name": "shares",
          "type": "uint256"
        },
        {
          "internalType": "uint256",
          "name": "max",
          "type": "uint256"
        }
      ],
      "name": "ERC4626ExceededMaxMint",
      "type": "error"
    },
    {
      "inputs": [
        {
          "internalType": "address",
          "name": "owner",
          "type": "address"
        },
        {
          "internalType": "uint256",
          "name": "shares",
          "type": "uint256"
        },
        {
          "internalType": "uint256",
          "name": "max",
          "type": "uint256"
        }
      ],
      "name": "ERC4626ExceededMaxRedeem",
      "type": "error"
    },
    {
      "inputs": [
        {
          "internalType": "address",
          "name": "owner",
          "type": "address"
        },
        {
          "internalType": "uint256",
          "name": "assets",
          "type": "uint256"
        },
        {
          "internalType": "uint256",
          "name": "max",
          "type": "uint256"
        }
      ],
      "name": "ERC4626ExceededMaxWithdraw",
      "type": "error"
    },
    {
      "inputs": [
        {
          "internalType": "uint256",
          "name": "amount",
          "type": "uint256"
        },
        {
          "internalType": "uint256",
          "name": "threshold",
          "type": "uint256"
        }
      ],
      "name": "ExchangeAmountTooLow",
      "type": "error"
    },
    {
      "inputs": [
        {
          "internalType": "uint256",
          "name": "newLeverageBps",
          "type": "uint256"
        },
        {
          "internalType": "uint256",
          "name": "targetLeverageBps",
          "type": "uint256"
        },
        {
          "internalType": "uint256",
          "name": "currentLeverageBps",
          "type": "uint256"
        }
      ],
      "name": "IncreaseLeverageOutOfRange",
      "type": "error"
    },
    {
      "inputs": [
        {
          "internalType": "address",
          "name": "owner",
          "type": "address"
        },
        {
          "internalType": "address",
          "name": "spender",
          "type": "address"
        },
        {
          "internalType": "address",
          "name": "debtAsset",
          "type": "address"
        },
        {
          "internalType": "uint256",
          "name": "requiredAllowance",
          "type": "uint256"
        }
      ],
      "name": "InsufficientAllowanceOfDebtAssetToRepay",
      "type": "error"
    },
    {
      "inputs": [
        {
          "internalType": "address",
          "name": "owner",
          "type": "address"
        },
        {
          "internalType": "uint256",
          "name": "sharesToRedeem",
          "type": "uint256"
        },
        {
          "internalType": "uint256",
          "name": "shareBalance",
          "type": "uint256"
        }
      ],
      "name": "InsufficientShareBalanceToRedeem",
      "type": "error"
    },
    {
      "inputs": [
        {
          "internalType": "uint256",
          "name": "leverageBps",
          "type": "uint256"
        }
      ],
      "name": "InvalidLeverage",
      "type": "error"
    },
    {
      "inputs": [
        {
          "internalType": "uint256",
          "name": "lowerBound",
          "type": "uint256"
        },
        {
          "internalType": "uint256",
          "name": "targetLeverage",
          "type": "uint256"
        },
        {
          "internalType": "uint256",
          "name": "upperBound",
          "type": "uint256"
        }
      ],
      "name": "InvalidLeverageBounds",
      "type": "error"
    },
    {
      "inputs": [
        {
          "internalType": "uint256",
          "name": "currentLeverageBps",
          "type": "uint256"
        },
        {
          "internalType": "uint256",
          "name": "targetLeverageBps",
          "type": "uint256"
        }
      ],
      "name": "LeverageBelowTarget",
      "type": "error"
    },
    {
      "inputs": [
        {
          "internalType": "uint256",
          "name": "currentLeverageBps",
          "type": "uint256"
        },
        {
          "internalType": "uint256",
          "name": "targetLeverageBps",
          "type": "uint256"
        }
      ],
      "name": "LeverageExceedsTarget",
      "type": "error"
    },
    {
      "inputs": [
        {
          "internalType": "uint256",
          "name": "maxTreasuryFeeBps",
          "type": "uint256"
        }
      ],
      "name": "MaxTreasuryFeeTooHigh",
      "type": "error"
    },
    {
      "inputs": [
        {
          "internalType": "address",
          "name": "owner",
          "type": "address"
        }
      ],
      "name": "OwnableInvalidOwner",
      "type": "error"
    },
    {
      "inputs": [
        {
          "internalType": "address",
          "name": "account",
          "type": "address"
        }
      ],
      "name": "OwnableUnauthorizedAccount",
      "type": "error"
    },
    {
      "inputs": [
        {
          "internalType": "string",
          "name": "operation",
          "type": "string"
        },
        {
          "internalType": "uint256",
          "name": "receivedAmount",
          "type": "uint256"
        },
        {
          "internalType": "uint256",
          "name": "minReceivedAmount",
          "type": "uint256"
        }
      ],
      "name": "RebalanceReceiveLessThanMinAmount",
      "type": "error"
    },
    {
      "inputs": [],
      "name": "ReentrancyGuardReentrantCall",
      "type": "error"
    },
    {
      "inputs": [
        {
          "internalType": "uint256",
          "name": "claimedAmountsLength",
          "type": "uint256"
        },
        {
          "internalType": "uint256",
          "name": "rewardTokensLength",
          "type": "uint256"
        }
      ],
      "name": "RewardAmountsLengthMismatch",
      "type": "error"
    },
    {
      "inputs": [
        {
          "internalType": "address",
          "name": "token",
          "type": "address"
        }
      ],
      "name": "SafeERC20FailedOperation",
      "type": "error"
    },
    {
      "inputs": [
        {
          "internalType": "address",
          "name": "token",
          "type": "address"
        },
        {
          "internalType": "uint256",
          "name": "tokenBalanceBefore",
          "type": "uint256"
        },
        {
          "internalType": "uint256",
          "name": "tokenBalanceAfter",
          "type": "uint256"
        },
        {
          "internalType": "uint256",
          "name": "expectedTokenBalance",
          "type": "uint256"
        }
      ],
      "name": "TokenBalanceNotDecreasedAfterRepay",
      "type": "error"
    },
    {
      "inputs": [
        {
          "internalType": "address",
          "name": "token",
          "type": "address"
        },
        {
          "internalType": "uint256",
          "name": "tokenBalanceBefore",
          "type": "uint256"
        },
        {
          "internalType": "uint256",
          "name": "tokenBalanceAfter",
          "type": "uint256"
        },
        {
          "internalType": "uint256",
          "name": "expectedTokenBalance",
          "type": "uint256"
        }
      ],
      "name": "TokenBalanceNotDecreasedAfterSupply",
      "type": "error"
    },
    {
      "inputs": [
        {
          "internalType": "address",
          "name": "token",
          "type": "address"
        },
        {
          "internalType": "uint256",
          "name": "tokenBalanceBefore",
          "type": "uint256"
        },
        {
          "internalType": "uint256",
          "name": "tokenBalanceAfter",
          "type": "uint256"
        },
        {
          "internalType": "uint256",
          "name": "expectedTokenBalance",
          "type": "uint256"
        }
      ],
      "name": "TokenBalanceNotIncreasedAfterBorrow",
      "type": "error"
    },
    {
      "inputs": [
        {
          "internalType": "address",
          "name": "token",
          "type": "address"
        },
        {
          "internalType": "uint256",
          "name": "tokenBalanceBefore",
          "type": "uint256"
        },
        {
          "internalType": "uint256",
          "name": "tokenBalanceAfter",
          "type": "uint256"
        },
        {
          "internalType": "uint256",
          "name": "expectedTokenBalance",
          "type": "uint256"
        }
      ],
      "name": "TokenBalanceNotIncreasedAfterWithdraw",
      "type": "error"
    },
    {
      "inputs": [
        {
          "internalType": "uint256",
          "name": "currentLeverageBps",
          "type": "uint256"
        },
        {
          "internalType": "uint256",
          "name": "lowerBoundTargetLeverageBps",
          "type": "uint256"
        },
        {
          "internalType": "uint256",
          "name": "upperBoundTargetLeverageBps",
          "type": "uint256"
        }
      ],
      "name": "TooImbalanced",
      "type": "error"
    },
    {
      "inputs": [
        {
          "internalType": "uint256",
          "name": "treasuryFee",
          "type": "uint256"
        },
        {
          "internalType": "uint256",
          "name": "rewardAmount",
          "type": "uint256"
        }
      ],
      "name": "TreasuryFeeExceedsRewardAmount",
      "type": "error"
    },
    {
      "inputs": [
        {
          "internalType": "uint256",
          "name": "treasuryFeeBps",
          "type": "uint256"
        },
        {
          "internalType": "uint256",
          "name": "maxTreasuryFeeBps",
          "type": "uint256"
        }
      ],
      "name": "TreasuryFeeTooHigh",
      "type": "error"
    },
    {
      "inputs": [
        {
          "internalType": "address",
          "name": "token",
          "type": "address"
        },
        {
          "internalType": "uint256",
          "name": "borrowedAmountBefore",
          "type": "uint256"
        },
        {
          "internalType": "uint256",
          "name": "borrowedAmountAfter",
          "type": "uint256"
        },
        {
          "internalType": "uint256",
          "name": "expectedBorrowedAmount",
          "type": "uint256"
        }
      ],
      "name": "UnexpectedBorrowAmountFromPool",
      "type": "error"
    },
    {
      "inputs": [
        {
          "internalType": "address",
          "name": "token",
          "type": "address"
        },
        {
          "internalType": "uint256",
          "name": "tokenBalanceBefore",
          "type": "uint256"
        },
        {
          "internalType": "uint256",
          "name": "tokenBalanceAfter",
          "type": "uint256"
        },
        {
          "internalType": "uint256",
          "name": "expectedTokenBalance",
          "type": "uint256"
        }
      ],
      "name": "UnexpectedRepayAmountToPool",
      "type": "error"
    },
    {
      "inputs": [
        {
          "internalType": "address",
          "name": "token",
          "type": "address"
        },
        {
          "internalType": "uint256",
          "name": "tokenBalanceBefore",
          "type": "uint256"
        },
        {
          "internalType": "uint256",
          "name": "tokenBalanceAfter",
          "type": "uint256"
        },
        {
          "internalType": "uint256",
          "name": "expectedTokenBalance",
          "type": "uint256"
        }
      ],
      "name": "UnexpectedSupplyAmountToPool",
      "type": "error"
    },
    {
      "inputs": [
        {
          "internalType": "address",
          "name": "token",
          "type": "address"
        },
        {
          "internalType": "uint256",
          "name": "withdrawableAmountBefore",
          "type": "uint256"
        },
        {
          "internalType": "uint256",
          "name": "withdrawableAmountAfter",
          "type": "uint256"
        },
        {
          "internalType": "uint256",
          "name": "expectedWithdrawableAmount",
          "type": "uint256"
        }
      ],
      "name": "UnexpectedWithdrawAmountFromPool",
      "type": "error"
    },
    {
      "inputs": [
        {
          "internalType": "address",
          "name": "token",
          "type": "address"
        },
        {
          "internalType": "uint256",
          "name": "assetToRemoveFromLending",
          "type": "uint256"
        },
        {
          "internalType": "uint256",
          "name": "withdrawableAmount",
          "type": "uint256"
        }
      ],
      "name": "WithdrawableIsLessThanRequired",
      "type": "error"
    },
    {
      "inputs": [],
      "name": "ZeroAddress",
      "type": "error"
    },
    {
      "inputs": [],
      "name": "ZeroExchangeAssetAddress",
      "type": "error"
    },
    {
      "inputs": [],
      "name": "ZeroExchangeThreshold",
      "type": "error"
    },
    {
      "inputs": [],
      "name": "ZeroReceiverAddress",
      "type": "error"
    },
    {
      "inputs": [],
      "name": "ZeroRewardTokens",
      "type": "error"
    },
    {
      "inputs": [],
      "name": "ZeroTreasuryAddress",
      "type": "error"
    },
    {
      "anonymous": false,
      "inputs": [
        {
          "indexed": true,
          "internalType": "address",
          "name": "owner",
          "type": "address"
        },
        {
          "indexed": true,
          "internalType": "address",
          "name": "spender",
          "type": "address"
        },
        {
          "indexed": false,
          "internalType": "uint256",
          "name": "value",
          "type": "uint256"
        }
      ],
      "name": "Approval",
      "type": "event"
    },
    {
      "anonymous": false,
      "inputs": [
        {
          "indexed": true,
          "internalType": "address",
          "name": "sender",
          "type": "address"
        },
        {
          "indexed": true,
          "internalType": "address",
          "name": "owner",
          "type": "address"
        },
        {
          "indexed": false,
          "internalType": "uint256",
          "name": "assets",
          "type": "uint256"
        },
        {
          "indexed": false,
          "internalType": "uint256",
          "name": "shares",
          "type": "uint256"
        }
      ],
      "name": "Deposit",
      "type": "event"
    },
    {
      "anonymous": false,
      "inputs": [
        {
          "indexed": false,
          "internalType": "uint256",
          "name": "oldExchangeThreshold",
          "type": "uint256"
        },
        {
          "indexed": false,
          "internalType": "uint256",
          "name": "newExchangeThreshold",
          "type": "uint256"
        }
      ],
      "name": "ExchangeThresholdUpdated",
      "type": "event"
    },
    {
      "anonymous": false,
      "inputs": [
        {
          "indexed": true,
          "internalType": "address",
          "name": "previousOwner",
          "type": "address"
        },
        {
          "indexed": true,
          "internalType": "address",
          "name": "newOwner",
          "type": "address"
        }
      ],
      "name": "OwnershipTransferred",
      "type": "event"
    },
    {
      "anonymous": false,
      "inputs": [
        {
          "indexed": false,
          "internalType": "address",
          "name": "exchangeAsset",
          "type": "address"
        },
        {
          "indexed": false,
          "internalType": "uint256",
          "name": "amount",
          "type": "uint256"
        },
        {
          "indexed": false,
          "internalType": "address[]",
          "name": "rewardTokens",
          "type": "address[]"
        }
      ],
      "name": "RewardCompounded",
      "type": "event"
    },
    {
      "anonymous": false,
      "inputs": [
        {
          "indexed": true,
          "internalType": "bytes32",
          "name": "role",
          "type": "bytes32"
        },
        {
          "indexed": true,
          "internalType": "bytes32",
          "name": "previousAdminRole",
          "type": "bytes32"
        },
        {
          "indexed": true,
          "internalType": "bytes32",
          "name": "newAdminRole",
          "type": "bytes32"
        }
      ],
      "name": "RoleAdminChanged",
      "type": "event"
    },
    {
      "anonymous": false,
      "inputs": [
        {
          "indexed": true,
          "internalType": "bytes32",
          "name": "role",
          "type": "bytes32"
        },
        {
          "indexed": true,
          "internalType": "address",
          "name": "account",
          "type": "address"
        },
        {
          "indexed": true,
          "internalType": "address",
          "name": "sender",
          "type": "address"
        }
      ],
      "name": "RoleGranted",
      "type": "event"
    },
    {
      "anonymous": false,
      "inputs": [
        {
          "indexed": true,
          "internalType": "bytes32",
          "name": "role",
          "type": "bytes32"
        },
        {
          "indexed": true,
          "internalType": "address",
          "name": "account",
          "type": "address"
        },
        {
          "indexed": true,
          "internalType": "address",
          "name": "sender",
          "type": "address"
        }
      ],
      "name": "RoleRevoked",
      "type": "event"
    },
    {
      "anonymous": false,
      "inputs": [
        {
          "indexed": true,
          "internalType": "address",
          "name": "from",
          "type": "address"
        },
        {
          "indexed": true,
          "internalType": "address",
          "name": "to",
          "type": "address"
        },
        {
          "indexed": false,
          "internalType": "uint256",
          "name": "value",
          "type": "uint256"
        }
      ],
      "name": "Transfer",
      "type": "event"
    },
    {
      "anonymous": false,
      "inputs": [
        {
          "indexed": false,
          "internalType": "uint256",
          "name": "oldTreasuryFeeBps",
          "type": "uint256"
        },
        {
          "indexed": false,
          "internalType": "uint256",
          "name": "newTreasuryFeeBps",
          "type": "uint256"
        }
      ],
      "name": "TreasuryFeeBpsUpdated",
      "type": "event"
    },
    {
      "anonymous": false,
      "inputs": [
        {
          "indexed": false,
          "internalType": "address",
          "name": "oldTreasury",
          "type": "address"
        },
        {
          "indexed": false,
          "internalType": "address",
          "name": "newTreasury",
          "type": "address"
        }
      ],
      "name": "TreasuryUpdated",
      "type": "event"
    },
    {
      "anonymous": false,
      "inputs": [
        {
          "indexed": true,
          "internalType": "address",
          "name": "sender",
          "type": "address"
        },
        {
          "indexed": true,
          "internalType": "address",
          "name": "receiver",
          "type": "address"
        },
        {
          "indexed": true,
          "internalType": "address",
          "name": "owner",
          "type": "address"
        },
        {
          "indexed": false,
          "internalType": "uint256",
          "name": "assets",
          "type": "uint256"
        },
        {
          "indexed": false,
          "internalType": "uint256",
          "name": "shares",
          "type": "uint256"
        }
      ],
      "name": "Withdraw",
      "type": "event"
    },
    {
      "inputs": [],
      "name": "AAVE_PRICE_ORACLE_DECIMALS",
      "outputs": [
        {
          "internalType": "uint8",
          "name": "",
          "type": "uint8"
        }
      ],
      "stateMutability": "view",
      "type": "function"
    },
    {
      "inputs": [],
      "name": "DEFAULT_ADMIN_ROLE",
      "outputs": [
        {
          "internalType": "bytes32",
          "name": "",
          "type": "bytes32"
        }
      ],
      "stateMutability": "view",
      "type": "function"
    },
    {
      "inputs": [],
      "name": "PERCENTAGE_FACTOR",
      "outputs": [
        {
          "internalType": "uint256",
          "name": "",
          "type": "uint256"
        }
      ],
      "stateMutability": "view",
      "type": "function"
    },
    {
      "inputs": [],
      "name": "REWARDS_MANAGER_ROLE",
      "outputs": [
        {
          "internalType": "bytes32",
          "name": "",
          "type": "bytes32"
        }
      ],
      "stateMutability": "view",
      "type": "function"
    },
    {
      "inputs": [],
      "name": "VARIABLE_LENDING_INTERST_RATE_MODE",
      "outputs": [
        {
          "internalType": "uint256",
          "name": "",
          "type": "uint256"
        }
      ],
      "stateMutability": "view",
      "type": "function"
    },
    {
      "inputs": [
        {
          "internalType": "address",
          "name": "owner",
          "type": "address"
        },
        {
          "internalType": "address",
          "name": "spender",
          "type": "address"
        }
      ],
      "name": "allowance",
      "outputs": [
        {
          "internalType": "uint256",
          "name": "",
          "type": "uint256"
        }
      ],
      "stateMutability": "view",
      "type": "function"
    },
    {
      "inputs": [
        {
          "internalType": "address",
          "name": "spender",
          "type": "address"
        },
        {
          "internalType": "uint256",
          "name": "value",
          "type": "uint256"
        }
      ],
      "name": "approve",
      "outputs": [
        {
          "internalType": "bool",
          "name": "",
          "type": "bool"
        }
      ],
      "stateMutability": "nonpayable",
      "type": "function"
    },
    {
      "inputs": [],
      "name": "asset",
      "outputs": [
        {
          "internalType": "address",
          "name": "",
          "type": "address"
        }
      ],
      "stateMutability": "view",
      "type": "function"
    },
    {
      "inputs": [
        {
          "internalType": "address",
          "name": "account",
          "type": "address"
        }
      ],
      "name": "balanceOf",
      "outputs": [
        {
          "internalType": "uint256",
          "name": "",
          "type": "uint256"
        }
      ],
      "stateMutability": "view",
      "type": "function"
    },
    {
      "inputs": [],
      "name": "collateralToken",
      "outputs": [
        {
          "internalType": "contract ERC20",
          "name": "",
          "type": "address"
        }
      ],
      "stateMutability": "view",
      "type": "function"
    },
    {
      "inputs": [
        {
          "internalType": "uint256",
          "name": "amount",
          "type": "uint256"
        },
        {
          "internalType": "address[]",
          "name": "rewardTokens",
          "type": "address[]"
        },
        {
          "internalType": "address",
          "name": "receiver",
          "type": "address"
        }
      ],
      "name": "compoundRewards",
      "outputs": [],
      "stateMutability": "nonpayable",
      "type": "function"
    },
    {
      "inputs": [
        {
          "internalType": "uint256",
          "name": "amountInBase",
          "type": "uint256"
        },
        {
          "internalType": "address",
          "name": "token",
          "type": "address"
        }
      ],
      "name": "convertFromBaseCurrencyToToken",
      "outputs": [
        {
          "internalType": "uint256",
          "name": "",
          "type": "uint256"
        }
      ],
      "stateMutability": "view",
      "type": "function"
    },
    {
      "inputs": [
        {
          "internalType": "uint256",
          "name": "amountInToken",
          "type": "uint256"
        },
        {
          "internalType": "address",
          "name": "token",
          "type": "address"
        }
      ],
      "name": "convertFromTokenAmountToBaseCurrency",
      "outputs": [
        {
          "internalType": "uint256",
          "name": "",
          "type": "uint256"
        }
      ],
      "stateMutability": "view",
      "type": "function"
    },
    {
      "inputs": [
        {
          "internalType": "uint256",
          "name": "shares",
          "type": "uint256"
        }
      ],
      "name": "convertToAssets",
      "outputs": [
        {
          "internalType": "uint256",
          "name": "",
          "type": "uint256"
        }
      ],
      "stateMutability": "view",
      "type": "function"
    },
    {
      "inputs": [
        {
          "internalType": "uint256",
          "name": "assets",
          "type": "uint256"
        }
      ],
      "name": "convertToShares",
      "outputs": [
        {
          "internalType": "uint256",
          "name": "",
          "type": "uint256"
        }
      ],
      "stateMutability": "view",
      "type": "function"
    },
    {
      "inputs": [],
      "name": "dLendAssetToClaimFor",
      "outputs": [
        {
          "internalType": "address",
          "name": "",
          "type": "address"
        }
      ],
      "stateMutability": "view",
      "type": "function"
    },
    {
      "inputs": [],
      "name": "dLendRewardsController",
      "outputs": [
        {
          "internalType": "contract IRewardsController",
          "name": "",
          "type": "address"
        }
      ],
      "stateMutability": "view",
      "type": "function"
    },
    {
      "inputs": [],
      "name": "debtToken",
      "outputs": [
        {
          "internalType": "contract ERC20",
          "name": "",
          "type": "address"
        }
      ],
      "stateMutability": "view",
      "type": "function"
    },
    {
      "inputs": [],
      "name": "decimals",
      "outputs": [
        {
          "internalType": "uint8",
          "name": "",
          "type": "uint8"
        }
      ],
      "stateMutability": "view",
      "type": "function"
    },
    {
      "inputs": [
        {
          "internalType": "uint256",
          "name": "additionalDebtTokenAmount",
          "type": "uint256"
        },
        {
          "internalType": "uint256",
          "name": "minReceivedAmount",
          "type": "uint256"
        }
      ],
      "name": "decreaseLeverage",
      "outputs": [],
      "stateMutability": "nonpayable",
      "type": "function"
    },
    {
      "inputs": [
        {
          "internalType": "uint256",
          "name": "assets",
          "type": "uint256"
        },
        {
          "internalType": "address",
          "name": "receiver",
          "type": "address"
        }
      ],
      "name": "deposit",
      "outputs": [
        {
          "internalType": "uint256",
          "name": "",
          "type": "uint256"
        }
      ],
      "stateMutability": "nonpayable",
      "type": "function"
    },
    {
      "inputs": [],
      "name": "exchangeAsset",
      "outputs": [
        {
          "internalType": "address",
          "name": "",
          "type": "address"
        }
      ],
      "stateMutability": "view",
      "type": "function"
    },
    {
      "inputs": [],
      "name": "exchangeThreshold",
      "outputs": [
        {
          "internalType": "uint256",
          "name": "",
          "type": "uint256"
        }
      ],
      "stateMutability": "view",
      "type": "function"
    },
    {
      "inputs": [
        {
          "internalType": "bool",
          "name": "useVaultTokenBalance",
          "type": "bool"
        }
      ],
      "name": "getAmountToReachTargetLeverage",
      "outputs": [
        {
          "internalType": "uint256",
          "name": "tokenAmount",
          "type": "uint256"
        },
        {
          "internalType": "int8",
          "name": "direction",
          "type": "int8"
        }
      ],
      "stateMutability": "view",
      "type": "function"
    },
    {
      "inputs": [
        {
          "internalType": "address",
          "name": "asset",
          "type": "address"
        }
      ],
      "name": "getAssetPriceFromOracle",
      "outputs": [
        {
          "internalType": "uint256",
          "name": "",
          "type": "uint256"
        }
      ],
      "stateMutability": "view",
      "type": "function"
    },
    {
      "inputs": [
        {
          "internalType": "address",
          "name": "collateralAsset",
          "type": "address"
        },
        {
          "internalType": "address",
          "name": "debtAsset",
          "type": "address"
        },
        {
          "internalType": "uint256",
          "name": "suppliedCollateralAmount",
          "type": "uint256"
        },
        {
          "internalType": "uint256",
          "name": "leverageBpsBeforeSupply",
          "type": "uint256"
        }
      ],
      "name": "getBorrowAmountThatKeepCurrentLeverage",
      "outputs": [
        {
          "internalType": "uint256",
          "name": "expectedBorrowAmount",
          "type": "uint256"
        }
      ],
      "stateMutability": "view",
      "type": "function"
    },
    {
      "inputs": [],
      "name": "getCollateralTokenAddress",
      "outputs": [
        {
          "internalType": "address",
          "name": "",
          "type": "address"
        }
      ],
      "stateMutability": "view",
      "type": "function"
    },
    {
      "inputs": [],
      "name": "getCurrentLeverageBps",
      "outputs": [
        {
          "internalType": "uint256",
          "name": "",
          "type": "uint256"
        }
      ],
      "stateMutability": "view",
      "type": "function"
    },
    {
      "inputs": [],
      "name": "getCurrentSubsidyBps",
      "outputs": [
        {
          "internalType": "uint256",
          "name": "",
          "type": "uint256"
        }
      ],
      "stateMutability": "view",
      "type": "function"
    },
    {
      "inputs": [
        {
          "internalType": "address",
          "name": "tokenAddress",
          "type": "address"
        }
      ],
      "name": "getDTokenBalance",
      "outputs": [
        {
          "internalType": "uint256",
          "name": "",
          "type": "uint256"
        }
      ],
      "stateMutability": "view",
      "type": "function"
    },
    {
      "inputs": [],
      "name": "getDebtTokenAddress",
      "outputs": [
        {
          "internalType": "address",
          "name": "",
          "type": "address"
        }
      ],
      "stateMutability": "view",
      "type": "function"
    },
    {
      "inputs": [],
      "name": "getDefaultMaxSubsidyBps",
      "outputs": [
        {
          "internalType": "uint256",
          "name": "",
          "type": "uint256"
        }
      ],
      "stateMutability": "view",
      "type": "function"
    },
    {
      "inputs": [],
      "name": "getLendingOracle",
      "outputs": [
        {
          "internalType": "contract IPriceOracleGetter",
          "name": "",
          "type": "address"
        }
      ],
      "stateMutability": "view",
      "type": "function"
    },
    {
      "inputs": [],
      "name": "getLendingPool",
      "outputs": [
        {
          "internalType": "contract IPool",
          "name": "",
          "type": "address"
        }
      ],
      "stateMutability": "view",
      "type": "function"
    },
    {
      "inputs": [],
      "name": "getLendingPoolAddress",
      "outputs": [
        {
          "internalType": "address",
          "name": "",
          "type": "address"
        }
      ],
      "stateMutability": "view",
      "type": "function"
    },
    {
      "inputs": [
        {
          "internalType": "uint256",
          "name": "assets",
          "type": "uint256"
        }
      ],
      "name": "getLeveragedAssets",
      "outputs": [
        {
          "internalType": "uint256",
          "name": "",
          "type": "uint256"
        }
      ],
      "stateMutability": "view",
      "type": "function"
    },
    {
      "inputs": [],
      "name": "getOracleAddress",
      "outputs": [
        {
          "internalType": "address",
          "name": "",
          "type": "address"
        }
      ],
      "stateMutability": "view",
      "type": "function"
    },
    {
      "inputs": [
        {
          "internalType": "address",
          "name": "collateralAsset",
          "type": "address"
        },
        {
          "internalType": "address",
          "name": "debtAsset",
          "type": "address"
        },
        {
          "internalType": "uint256",
          "name": "targetWithdrawAmount",
          "type": "uint256"
        },
        {
          "internalType": "uint256",
          "name": "leverageBpsBeforeRepayDebt",
          "type": "uint256"
        }
      ],
      "name": "getRepayAmountThatKeepCurrentLeverage",
      "outputs": [
        {
          "internalType": "uint256",
          "name": "repayAmount",
          "type": "uint256"
        }
      ],
      "stateMutability": "view",
      "type": "function"
    },
    {
      "inputs": [],
      "name": "getRestrictedRescueTokens",
      "outputs": [
        {
          "internalType": "address[]",
          "name": "",
          "type": "address[]"
        }
      ],
      "stateMutability": "view",
      "type": "function"
    },
    {
      "inputs": [
        {
          "internalType": "bytes32",
          "name": "role",
          "type": "bytes32"
        }
      ],
      "name": "getRoleAdmin",
      "outputs": [
        {
          "internalType": "bytes32",
          "name": "",
          "type": "bytes32"
        }
      ],
      "stateMutability": "view",
      "type": "function"
    },
    {
      "inputs": [
        {
          "internalType": "address",
          "name": "user",
          "type": "address"
        }
      ],
      "name": "getTotalCollateralAndDebtOfUserInBase",
      "outputs": [
        {
          "internalType": "uint256",
          "name": "totalCollateralBase",
          "type": "uint256"
        },
        {
          "internalType": "uint256",
          "name": "totalDebtBase",
          "type": "uint256"
        }
      ],
      "stateMutability": "view",
      "type": "function"
    },
    {
      "inputs": [
        {
          "internalType": "uint256",
          "name": "amount",
          "type": "uint256"
        }
      ],
      "name": "getTreasuryFee",
      "outputs": [
        {
          "internalType": "uint256",
          "name": "",
          "type": "uint256"
        }
      ],
      "stateMutability": "view",
      "type": "function"
    },
    {
      "inputs": [
        {
          "internalType": "bytes32",
          "name": "role",
          "type": "bytes32"
        },
        {
          "internalType": "address",
          "name": "account",
          "type": "address"
        }
      ],
      "name": "grantRole",
      "outputs": [],
      "stateMutability": "nonpayable",
      "type": "function"
    },
    {
      "inputs": [
        {
          "internalType": "bytes32",
          "name": "role",
          "type": "bytes32"
        },
        {
          "internalType": "address",
          "name": "account",
          "type": "address"
        }
      ],
      "name": "hasRole",
      "outputs": [
        {
          "internalType": "bool",
          "name": "",
          "type": "bool"
        }
      ],
      "stateMutability": "view",
      "type": "function"
    },
    {
      "inputs": [
        {
          "internalType": "uint256",
          "name": "additionalCollateralTokenAmount",
          "type": "uint256"
        },
        {
          "internalType": "uint256",
          "name": "minReceivedDebtTokenAmount",
          "type": "uint256"
        }
      ],
      "name": "increaseLeverage",
      "outputs": [],
      "stateMutability": "nonpayable",
      "type": "function"
    },
    {
      "inputs": [],
      "name": "isTooImbalanced",
      "outputs": [
        {
          "internalType": "bool",
          "name": "",
          "type": "bool"
        }
      ],
      "stateMutability": "view",
      "type": "function"
    },
    {
      "inputs": [],
      "name": "lendingPoolAddressesProvider",
      "outputs": [
        {
          "internalType": "contract IPoolAddressesProvider",
          "name": "",
          "type": "address"
        }
      ],
      "stateMutability": "view",
      "type": "function"
    },
    {
      "inputs": [],
      "name": "lowerBoundTargetLeverageBps",
      "outputs": [
        {
          "internalType": "uint32",
          "name": "",
          "type": "uint32"
        }
      ],
      "stateMutability": "view",
      "type": "function"
    },
    {
      "inputs": [
        {
          "internalType": "address",
          "name": "_user",
          "type": "address"
        }
      ],
      "name": "maxDeposit",
      "outputs": [
        {
          "internalType": "uint256",
          "name": "",
          "type": "uint256"
        }
      ],
      "stateMutability": "view",
      "type": "function"
    },
    {
      "inputs": [
        {
          "internalType": "address",
          "name": "_user",
          "type": "address"
        }
      ],
      "name": "maxMint",
      "outputs": [
        {
          "internalType": "uint256",
          "name": "",
          "type": "uint256"
        }
      ],
      "stateMutability": "view",
      "type": "function"
    },
    {
      "inputs": [
        {
          "internalType": "address",
          "name": "_user",
          "type": "address"
        }
      ],
      "name": "maxRedeem",
      "outputs": [
        {
          "internalType": "uint256",
          "name": "",
          "type": "uint256"
        }
      ],
      "stateMutability": "view",
      "type": "function"
    },
    {
      "inputs": [],
      "name": "maxSubsidyBps",
      "outputs": [
        {
          "internalType": "uint256",
          "name": "",
          "type": "uint256"
        }
      ],
      "stateMutability": "view",
      "type": "function"
    },
    {
      "inputs": [],
      "name": "maxTreasuryFeeBps",
      "outputs": [
        {
          "internalType": "uint256",
          "name": "",
          "type": "uint256"
        }
      ],
      "stateMutability": "view",
      "type": "function"
    },
    {
      "inputs": [
        {
          "internalType": "address",
          "name": "_user",
          "type": "address"
        }
      ],
      "name": "maxWithdraw",
      "outputs": [
        {
          "internalType": "uint256",
          "name": "",
          "type": "uint256"
        }
      ],
      "stateMutability": "view",
      "type": "function"
    },
    {
      "inputs": [
        {
          "internalType": "uint256",
          "name": "shares",
          "type": "uint256"
        },
        {
          "internalType": "address",
          "name": "receiver",
          "type": "address"
        }
      ],
      "name": "mint",
      "outputs": [
        {
          "internalType": "uint256",
          "name": "",
          "type": "uint256"
        }
      ],
      "stateMutability": "nonpayable",
      "type": "function"
    },
    {
      "inputs": [],
      "name": "name",
      "outputs": [
        {
          "internalType": "string",
          "name": "",
          "type": "string"
        }
      ],
      "stateMutability": "view",
      "type": "function"
    },
    {
      "inputs": [],
      "name": "owner",
      "outputs": [
        {
          "internalType": "address",
          "name": "",
          "type": "address"
        }
      ],
      "stateMutability": "view",
      "type": "function"
    },
    {
      "inputs": [
        {
          "internalType": "uint256",
          "name": "assets",
          "type": "uint256"
        }
      ],
      "name": "previewDeposit",
      "outputs": [
        {
          "internalType": "uint256",
          "name": "",
          "type": "uint256"
        }
      ],
      "stateMutability": "view",
      "type": "function"
    },
    {
      "inputs": [
        {
          "internalType": "uint256",
          "name": "shares",
          "type": "uint256"
        }
      ],
      "name": "previewMint",
      "outputs": [
        {
          "internalType": "uint256",
          "name": "",
          "type": "uint256"
        }
      ],
      "stateMutability": "view",
      "type": "function"
    },
    {
      "inputs": [
        {
          "internalType": "uint256",
          "name": "shares",
          "type": "uint256"
        }
      ],
      "name": "previewRedeem",
      "outputs": [
        {
          "internalType": "uint256",
          "name": "",
          "type": "uint256"
        }
      ],
      "stateMutability": "view",
      "type": "function"
    },
    {
      "inputs": [
        {
          "internalType": "uint256",
          "name": "assets",
          "type": "uint256"
        }
      ],
      "name": "previewWithdraw",
      "outputs": [
        {
          "internalType": "uint256",
          "name": "",
          "type": "uint256"
        }
      ],
      "stateMutability": "view",
      "type": "function"
    },
    {
      "inputs": [
        {
          "internalType": "uint256",
          "name": "shares",
          "type": "uint256"
        },
        {
          "internalType": "address",
          "name": "receiver",
          "type": "address"
        },
        {
          "internalType": "address",
          "name": "owner",
          "type": "address"
        }
      ],
      "name": "redeem",
      "outputs": [
        {
          "internalType": "uint256",
          "name": "",
          "type": "uint256"
        }
      ],
      "stateMutability": "nonpayable",
      "type": "function"
    },
    {
      "inputs": [],
      "name": "renounceOwnership",
      "outputs": [],
      "stateMutability": "nonpayable",
      "type": "function"
    },
    {
      "inputs": [
        {
          "internalType": "bytes32",
          "name": "role",
          "type": "bytes32"
        },
        {
          "internalType": "address",
          "name": "callerConfirmation",
          "type": "address"
        }
      ],
      "name": "renounceRole",
      "outputs": [],
      "stateMutability": "nonpayable",
      "type": "function"
    },
    {
      "inputs": [
        {
          "internalType": "address",
          "name": "token",
          "type": "address"
        },
        {
          "internalType": "address",
          "name": "receiver",
          "type": "address"
        },
        {
          "internalType": "uint256",
          "name": "amount",
          "type": "uint256"
        }
      ],
      "name": "rescueToken",
      "outputs": [],
      "stateMutability": "nonpayable",
      "type": "function"
    },
    {
      "inputs": [
        {
          "internalType": "bytes32",
          "name": "role",
          "type": "bytes32"
        },
        {
          "internalType": "address",
          "name": "account",
          "type": "address"
        }
      ],
      "name": "revokeRole",
      "outputs": [],
      "stateMutability": "nonpayable",
      "type": "function"
    },
    {
      "inputs": [
        {
          "internalType": "uint256",
          "name": "newExchangeThreshold",
          "type": "uint256"
        }
      ],
      "name": "setExchangeThreshold",
      "outputs": [],
      "stateMutability": "nonpayable",
      "type": "function"
    },
    {
      "inputs": [
        {
          "internalType": "uint32",
          "name": "_lowerBoundTargetLeverageBps",
          "type": "uint32"
        },
        {
          "internalType": "uint32",
          "name": "_upperBoundTargetLeverageBps",
          "type": "uint32"
        }
      ],
      "name": "setLeverageBounds",
      "outputs": [],
      "stateMutability": "nonpayable",
      "type": "function"
    },
    {
      "inputs": [
        {
          "internalType": "uint256",
          "name": "_maxSubsidyBps",
          "type": "uint256"
        }
      ],
      "name": "setMaxSubsidyBps",
      "outputs": [],
      "stateMutability": "nonpayable",
      "type": "function"
    },
    {
      "inputs": [
        {
          "internalType": "address",
          "name": "newTreasury",
          "type": "address"
        }
      ],
      "name": "setTreasury",
      "outputs": [],
      "stateMutability": "nonpayable",
      "type": "function"
    },
    {
      "inputs": [
        {
          "internalType": "uint256",
          "name": "newTreasuryFeeBps",
          "type": "uint256"
        }
      ],
      "name": "setTreasuryFeeBps",
      "outputs": [],
      "stateMutability": "nonpayable",
      "type": "function"
    },
    {
      "inputs": [
        {
          "internalType": "bytes4",
          "name": "interfaceId",
          "type": "bytes4"
        }
      ],
      "name": "supportsInterface",
      "outputs": [
        {
          "internalType": "bool",
          "name": "",
          "type": "bool"
        }
      ],
      "stateMutability": "view",
      "type": "function"
    },
    {
      "inputs": [],
      "name": "symbol",
      "outputs": [
        {
          "internalType": "string",
          "name": "",
          "type": "string"
        }
      ],
      "stateMutability": "view",
      "type": "function"
    },
    {
      "inputs": [],
      "name": "targetLeverageBps",
      "outputs": [
        {
          "internalType": "uint32",
          "name": "",
          "type": "uint32"
        }
      ],
      "stateMutability": "view",
      "type": "function"
    },
    {
      "inputs": [],
      "name": "targetStaticATokenWrapper",
      "outputs": [
        {
          "internalType": "address",
          "name": "",
          "type": "address"
        }
      ],
      "stateMutability": "view",
      "type": "function"
    },
    {
      "inputs": [],
      "name": "totalAssets",
      "outputs": [
        {
          "internalType": "uint256",
          "name": "",
          "type": "uint256"
        }
      ],
      "stateMutability": "view",
      "type": "function"
    },
    {
      "inputs": [],
      "name": "totalSupply",
      "outputs": [
        {
          "internalType": "uint256",
          "name": "",
          "type": "uint256"
        }
      ],
      "stateMutability": "view",
      "type": "function"
    },
    {
      "inputs": [
        {
          "internalType": "address",
          "name": "to",
          "type": "address"
        },
        {
          "internalType": "uint256",
          "name": "value",
          "type": "uint256"
        }
      ],
      "name": "transfer",
      "outputs": [
        {
          "internalType": "bool",
          "name": "",
          "type": "bool"
        }
      ],
      "stateMutability": "nonpayable",
      "type": "function"
    },
    {
      "inputs": [
        {
          "internalType": "address",
          "name": "from",
          "type": "address"
        },
        {
          "internalType": "address",
          "name": "to",
          "type": "address"
        },
        {
          "internalType": "uint256",
          "name": "value",
          "type": "uint256"
        }
      ],
      "name": "transferFrom",
      "outputs": [
        {
          "internalType": "bool",
          "name": "",
          "type": "bool"
        }
      ],
      "stateMutability": "nonpayable",
      "type": "function"
    },
    {
      "inputs": [
        {
          "internalType": "address",
          "name": "newOwner",
          "type": "address"
        }
      ],
      "name": "transferOwnership",
      "outputs": [],
      "stateMutability": "nonpayable",
      "type": "function"
    },
    {
      "inputs": [],
      "name": "treasury",
      "outputs": [
        {
          "internalType": "address",
          "name": "",
          "type": "address"
        }
      ],
      "stateMutability": "view",
      "type": "function"
    },
    {
      "inputs": [],
      "name": "treasuryFeeBps",
      "outputs": [
        {
          "internalType": "uint256",
          "name": "",
          "type": "uint256"
        }
      ],
      "stateMutability": "view",
      "type": "function"
    },
    {
      "inputs": [],
      "name": "upperBoundTargetLeverageBps",
      "outputs": [
        {
          "internalType": "uint32",
          "name": "",
          "type": "uint32"
        }
      ],
      "stateMutability": "view",
      "type": "function"
    },
    {
      "inputs": [
        {
          "internalType": "uint256",
          "name": "assets",
          "type": "uint256"
        },
        {
          "internalType": "address",
          "name": "receiver",
          "type": "address"
        },
        {
          "internalType": "address",
          "name": "owner",
          "type": "address"
        }
      ],
      "name": "withdraw",
      "outputs": [
        {
          "internalType": "uint256",
          "name": "",
          "type": "uint256"
        }
      ],
      "stateMutability": "nonpayable",
      "type": "function"
    }
  ],
  "transactionHash": "0xcea98e0c682166caec1193862f4ecb1c5efa5caef5a109cad1b7df2a25763350",
  "args": [
    "Leveraged sFRAX-dUSD Vault",
    "FRAX-dUSD-3x",
    "0x7123fe8EED4d657EE398484BD821283ad63F5CA2",
    "0x6D4599221A36C6eBD9BBF0c087e81bBcd76F6bEF",
    "0x7388c76F5EF76eeD84B456DD15f051eaC4dE370B",
    3000000,
    2000000,
    4000000,
    20000,
    "0x9faA9ad40dF566Fbfa9aA7F685d24697D389Faf6",
    "0x1723F63bcAf071Bc02806AB7Aab5e5fB96711581",
    "0x0000000000000000000000000000000000000000",
    "0xd2f775Ff2cD41bfe43C7A8c016eD10393553fe44",
    "1000",
    "500",
    "100"
  ],
  "numDeployments": 1,
  "solcInputHash": "0f0e651a543d920b135e9b46ecbaf27e",
  "bytecode": "0x6101e06040523462000b0e57620057c6803803809162000022826101e062000b13565b6101e0396101e0016102006101e082031262000b0e576101e0516001600160401b03811162000b0e57816200005b916101e00162000b53565b6102005190916001600160401b03821162000b0e576200007f916101e00162000b53565b6200008c61022062000bbd565b916200009a61024062000bbd565b6102605190916001600160a01b038216820362000b0e57620000be61028062000bd2565b93620000cc6102a062000bd2565b94620000da6102c062000bd2565b6102e0516103005191989196906001600160a01b038816880362000b0e576200010561032062000bbd565b986200011361034062000bbd565b9a6200012161036062000bbd565b610380516103a0516103c0518b51909b919a929993989392916001600160401b038211620009e05760035490600182811c9216801562000b03575b6020831014620009bf5781601f84931162000a91575b50602090601f831160011462000a0257600092620009f6575b50508160011b916000199060031b1c1916176003555b8051906001600160401b038211620009e05760045490600182811c92168015620009d5575b6020831014620009bf5781601f8493116200094d575b50602090601f8311600114620008be57600092620008b2575b50508160011b916000199060031b1c1916176004555b6200021f6001600160a01b03831662000d08565b9015620008a9575b60a0526001600160a01b0382166080523315620008905760058054336001600160a01b0319821681179092556001600160a01b03167f8be0079c531659141344cd1fd0a4f28419497f9722a3daafe3b4186f6b6457e0600080a3600160075585610100528160e05263ffffffff91828216620f424081106200082557808487161080159062000818575b620007f05750620002cb906001600160a01b031662000dce565b15620007a057620002e56001600160a01b03871662000dce565b156200075b5760c052600880546001600160401b031916919093161760209190911b67ffffffff00000000161790556009556001600160a01b0381161562000749576001600160a01b038216156200073757620f424083116200071e5782841162000700578415620006ee576001600160a01b0390811661012052600a80546001600160a01b0319169290911691909117905561014052600b55600c556200038d3362000be4565b50620003993362000c65565b5061016052610180526101a0526101c052600460206001600160a01b03620003c062000e9e565b166040519283809262e19f4760e81b82525afa9081156200065157600091620006ad575b506001600160a01b03166200065d57600460206001600160a01b036200040962000e9e565b1660405192838092638c89b64f60e01b82525afa908115620006515760009162000611575b506305f5e10003620005cc57604051614889908162000f1d823960805181612023015260a0518161214a015260c0518181816111a4015281816113b9015281816113fe01528181611a77015281816122170152818161238f01528181613d9c01528181613e2c01528181613f4f0152614213015260e05181818161094401528181610be001528181610d9201528181611070015281816114fb0152818161170f015281816123db0152818161253701528181612843015281816131e101528181613e7001528181613fea01526140930152610100518181816103ce0152818161096b01528181610c07015281816110f40152818161144e015281816115c80152818161179301528181612471015281816132bc01528181613f93015281816140e4015261415501526101205181818161193801528181611b270152611c8901526101405181818161137901526120b701526101605181818161088e015281816144f80152614583015261018051818181610e480152611e4b01526101a051818181611c2a015261233f01526101c051818181610e030152611e0d0152f35b60405162461bcd60e51b815260206004820152601960248201527f496e76616c6964207072696365206f7261636c6520756e6974000000000000006044820152606490fd5b6020813d60201162000648575b816200062d6020938362000b13565b8101031262000644575190506305f5e1006200042e565b5080fd5b3d91506200061e565b6040513d6000823e3d90fd5b60405162461bcd60e51b815260206004820152602260248201527f496e76616c6964207072696365206f7261636c6520626173652063757272656e604482015261637960f01b6064820152608490fd5b6020813d602011620006e5575b81620006c96020938362000b13565b810103126200064457620006de915062000bbd565b38620003e4565b3d9150620006ba565b6040516354a62ce560e01b8152600490fd5b6044848460405191636cef961f60e11b835260048301526024820152fd5b60405163a7519f3f60e01b815260048101849052602490fd5b6040516351dc806d60e11b8152600490fd5b604051631810b12760e21b8152600490fd5b60405162461bcd60e51b815260206004820152601c60248201527f4465627420746f6b656e206d75737420626520616e204552432d3230000000006044820152606490fd5b60405162461bcd60e51b815260206004820152602260248201527f436f6c6c61746572616c20746f6b656e206d75737420626520616e204552432d604482015261032360f41b6064820152608490fd5b858486606493826040519463b857eea760e01b86521660048501526024840152166044820152fd5b50838516811015620002b1565b60405162461bcd60e51b815260206004820152603560248201527f546172676574206c65766572616765206d757374206265206174206c6561737460448201527f203130302520696e20626173697320706f696e747300000000000000000000006064820152608490fd5b604051631e4fbdf760e01b815260006004820152602490fd5b50601262000227565b015190503880620001f5565b6004600090815293507f8a35acfbc15ff81a39ae7d344fd709f28e8600b4aa8c65c6b64bfe7fe36bd19b91905b601f198416851062000931576001945083601f1981161062000917575b505050811b016004556200020b565b015160001960f88460031b161c1916905538808062000908565b81810151835560209485019460019093019290910190620008eb565b60046000529091507f8a35acfbc15ff81a39ae7d344fd709f28e8600b4aa8c65c6b64bfe7fe36bd19b601f840160051c810160208510620009b7575b90849392915b601f830160051c82018110620009a7575050620001dc565b600081558594506001016200098f565b508062000989565b634e487b7160e01b600052602260045260246000fd5b91607f1691620001c6565b634e487b7160e01b600052604160045260246000fd5b0151905038806200018b565b6003600090815293507fc2575a0e9e593c00f959f8c92f12db2869c3395a3b0502d05e2516446f71f85b91905b601f198416851062000a75576001945083601f1981161062000a5b575b505050811b01600355620001a1565b015160001960f88460031b161c1916905538808062000a4c565b8181015183556020948501946001909301929091019062000a2f565b60036000529091507fc2575a0e9e593c00f959f8c92f12db2869c3395a3b0502d05e2516446f71f85b601f840160051c81016020851062000afb575b90849392915b601f830160051c8201811062000aeb57505062000172565b6000815585945060010162000ad3565b508062000acd565b91607f16916200015c565b600080fd5b601f909101601f19168101906001600160401b03821190821017620009e057604052565b6001600160401b038111620009e057601f01601f191660200190565b919080601f8401121562000b0e5782519062000b6f8262000b37565b9162000b7f604051938462000b13565b80835260209182828701011162000b0e5760005b81811062000ba957508260009394955001015290565b858101830151848201840152820162000b93565b51906001600160a01b038216820362000b0e57565b519063ffffffff8216820362000b0e57565b6001600160a01b031660008181527f54cdd369e4e8a8515e52ca72ec816c2101831ad1f18bf44102ed171459c9b4f8602052604081205490919060ff1662000c615781805260066020526040822081835260205260408220600160ff198254161790553391600080516020620057a68339815191528180a4600190565b5090565b6001600160a01b031660008181527ffe34ed5485dc9fe44fe8269f3027eee2e0a6e4cc4be0ba8f7d037ae76cfa28d360205260408120549091907f51785d261c3b3e8c2cfe2d0e108b9ab2b1fb703ff9e9e49aba4ebdc85c36152b9060ff1662000d035780835260066020526040832082845260205260408320600160ff19825416179055600080516020620057a6833981519152339380a4600190565b505090565b6040805163313ce56760e01b60208201908152600482529293929181016001600160401b03811182821017620009e0576040525160009384928392916001600160a01b03165afa3d1562000dc5573d9062000d638262000b37565b9162000d73604051938462000b13565b82523d84602084013e5b8062000db8575b62000d8f575b508190565b60208180518101031262000db4576020015160ff811162000d8a576001925060ff1690565b8280fd5b5060208151101562000d84565b60609062000d7d565b6040516318160ddd60e01b81526001600160a01b039190911690602090818082600481875afa918262000e6f575b505062000e0a575050600090565b80602492604051938480926370a0823160e01b82523060048301525afa918262000e40575b505062000e3b57600090565b600190565b813d831162000e67575b62000e56818362000b13565b8101031262000b0e57388062000e2f565b503d62000e4a565b813d831162000e96575b62000e85818362000b13565b8101031262000b0e57813862000dfc565b503d62000e79565b61016051604051631f94a27560e31b81526001600160a01b03916020908290600490829086165afa908115620006515760009162000edb57501690565b906020823d821162000f13575b8162000ef76020938362000b13565b8101031262000f10575062000f0c9062000bbd565b1690565b80fd5b3d915062000ee856fe6080604052600436101561001257600080fd5b60003560e01c806301e1d1141461282157806301ffc9a7146127cb5780630261bf8b146127b0578063031c53ef1461278a57806305eee57e1461276e57806306fdde03146126b057806307a2d13a14611a3357806309344c9c14612683578063095ea7b3146125cb5780630a28a477146125ad57806318160ddd1461258f5780631dc8d8181461236e5780631f52be641461232957806323b872dd14612307578063248a9ca3146122d85780632e16f938146122a15780632e80b858146116205780632f293a20146121d25780632f2ff15d14612193578063313ce56714612135578063331fb00f1461209957806336568abe1461205257806338d52e0f1461200d578063402d267d14610854578063415c506914611ff25780634603be6f14611a9f57806348631af914611a5657806349b4040214611a385780634cdad50614611a33578063500fc43414611a035780635033def7146119d457806356d1d4a2146119675780635898ec3b1461192257806359757aa5146118fc5780635b3f0549146118e05780635f36a742146118bd57806361d027b3146118945780636d483fe614610d7c5780636e553f65146116bb57806370a0823114611682578063715018a61461162557806374286e4014611620578063776efe47146113dd5780637aa7c3c11461139c5780637dd38d9a1461136157806380fbf1dd1461133d57806385bf8b7714610733578063863df9e7146113225780638bc4ec9b146112fc5780638da5cb5b146112d357806391d148541461128657806394bf804d1461101c57806395d89b4114610f17578063a0a9452614610ee9578063a217fddf14610ecd578063a9059cbb14610e9c578063a9f1a79814610e77578063acfec69014610e32578063ae37f47914610ded578063b18b78dd14610dc1578063b2016bd414610d7c578063b3d7f6b914610d5e578063b460af9414610b59578063ba087652146108bd578063bba00ba514610878578063c63d75b614610854578063c6e6f592146105c9578063c7101c1214610831578063ce96cb771461080e578063d267974c146103b8578063d547741f146107cd578063d905777e146107a2578063dd62ed3e14610751578063dde35bfd14610733578063e0dd2457146106f8578063e5711e8b14610637578063e80cfa5e14610619578063eaff4592146105eb578063ee01e5e7146105ce578063ef8b30f7146105c9578063f0f442601461052d578063f2fde38b1461049f578063f6d48ae2146104025763f8d89898146103b857600080fd5b346103fd5760003660031901126103fd576040517f00000000000000000000000000000000000000000000000000000000000000006001600160a01b03168152602090f35b600080fd5b346103fd576020806003193601126103fd576024816001600160a01b0361010061043261042d612887565b6145d6565b015116604051928380926370a0823160e01b82523060048301525afa90811561049357600091610466575b50604051908152f35b90508181813d831161048c575b61047d8183612c34565b810103126103fd57518261045d565b503d610473565b6040513d6000823e3d90fd5b346103fd5760203660031901126103fd576104b8612887565b6104c0612bbb565b6001600160a01b0390811690811561051457600554826bffffffffffffffffffffffff60a01b821617600555167f8be0079c531659141344cd1fd0a4f28419497f9722a3daafe3b4186f6b6457e0600080a3005b604051631e4fbdf760e01b815260006004820152602490fd5b346103fd5760203660031901126103fd57610546612887565b61054e612a24565b6001600160a01b0381811680156105b757600a80546001600160a01b03198116929092179055604080516001600160a01b0393909216831682529290911660208201527f4ab5be82436d353e61ca18726e984e561f5c1cc7c6d38b29d2553c790434705a9190a1005b6040516351dc806d60e11b8152600490fd5b612a06565b346103fd5760003660031901126103fd5760206040516127108152f35b346103fd5760203660031901126103fd576020620f4240610610600b54600435613354565b04604051908152f35b346103fd5760003660031901126103fd576020600b54604051908152f35b346103fd576106453661291a565b610650929192612bbb565b61065861319b565b6106606131d6565b9060005b82518110156106dd576001600160a01b038061068083866130e8565b51169085161461069857610693906130a6565b610664565b60405162461bcd60e51b815260206004820152601e60248201527f43616e6e6f7420726573637565207265737472696374656420746f6b656e00006044820152606490fd5b6106f182866001600160a01b0387166130fc565b6001600755005b346103fd5760003660031901126103fd5760206040517f51785d261c3b3e8c2cfe2d0e108b9ab2b1fb703ff9e9e49aba4ebdc85c36152b8152f35b346103fd5760003660031901126103fd576020600954604051908152f35b346103fd5760403660031901126103fd5761076a612887565b610772612871565b9060018060a01b038091166000526001602052604060002091166000526020526020604060002054604051908152f35b346103fd5760203660031901126103fd5760206107c56107c0612887565b6142c2565b604051908152f35b346103fd5760403660031901126103fd5761080c6004356107ec612871565b90806000526006602052610807600160406000200154612a9e565b612b44565b005b346103fd5760203660031901126103fd5760206107c561082c612887565b61428f565b346103fd5760203660031901126103fd5760206107c561084f612887565b613367565b346103fd5760203660031901126103fd5761086d612887565b5060206107c5614278565b346103fd5760003660031901126103fd576040517f00000000000000000000000000000000000000000000000000000000000000006001600160a01b03168152602090f35b346103fd576108cb366129d1565b91906108d6836142c2565b808311610b2957506108e782612f9a565b916108f061319b565b6001600160a01b0384811692338403610b19575b8360005260209560008752604060002054848110610aea57508415610ad1578361092d91612d6a565b6109356134f1565b610a9457610941614183565b827f00000000000000000000000000000000000000000000000000000000000000001690610994847f00000000000000000000000000000000000000000000000000000000000000001691888385613d63565b604051636eb1769f60e11b81523360048201523060248201528981604481865afa8015610493578291600091610a63575b5010610a39576109f9926109e98993836109e28895303385613532565b3091613a18565b6109f4308483613b92565b6130fc565b604051928584528684015216907ffbde797d201c681b91056529119e0b02407c7bb96a4a2c75c01fc9667232c8db60403392a46001600755604051908152f35b60849250604051916326938fb560e01b835233600484015230602484015260448301526064820152fd5b8092508b8092503d8311610a8d575b610a7c8183612c34565b810103126103fd578190518b6109c5565b503d610a72565b85610a9d614183565b60085460405163391f5eb560e01b8152600481019290925263ffffffff8082166024840152921c9091166044820152606490fd5b604051634b637e8f60e11b815260006004820152602490fd5b604051631bb4880160e11b81526001600160a01b03929092166004830152602482018590526044820152606490fd5b610b24833388612e26565b610904565b604051632e52afbb60e21b81526001600160a01b0385166004820152602481018490526044810191909152606490fd5b346103fd57610b67366129d1565b9190610b728361428f565b808311610d2e5750610b8382612f0a565b91610b8c61319b565b6001600160a01b0384811692338403610d1e575b8360005260209560008752604060002054868110610cef57508415610ad15785610bc991612d6a565b610bd16134f1565b610a9457610bdd614183565b827f00000000000000000000000000000000000000000000000000000000000000001690610c30847f00000000000000000000000000000000000000000000000000000000000000001691868385613d63565b604051636eb1769f60e11b81523360048201523060248201528981604481865afa8015610493578291600091610cbe575b5010610a3957610c7e926109e98793836109e28895303385613532565b604051928352848684015216907ffbde797d201c681b91056529119e0b02407c7bb96a4a2c75c01fc9667232c8db60403392a46001600755604051908152f35b8092508b8092503d8311610ce8575b610cd78183612c34565b810103126103fd578190518b610c61565b503d610ccd565b604051631bb4880160e11b81526001600160a01b03929092166004830152602482018790526044820152606490fd5b610d29853388612e26565b610ba0565b604051633fa733bb60e21b81526001600160a01b0385166004820152602481018490526044810191909152606490fd5b346103fd5760203660031901126103fd5760206107c5600435612f6b565b346103fd5760003660031901126103fd576040517f00000000000000000000000000000000000000000000000000000000000000006001600160a01b03168152602090f35b346103fd5760003660031901126103fd5760206001600160a01b03610de46144da565b16604051908152f35b346103fd5760003660031901126103fd576040517f00000000000000000000000000000000000000000000000000000000000000006001600160a01b03168152602090f35b346103fd5760003660031901126103fd576040517f00000000000000000000000000000000000000000000000000000000000000006001600160a01b03168152602090f35b346103fd5760003660031901126103fd576020610e926134f1565b6040519015158152f35b346103fd5760403660031901126103fd57610ec2610eb8612887565b6024359033612c56565b602060405160018152f35b346103fd5760003660031901126103fd57602060405160008152f35b346103fd5760203660031901126103fd57610f02612bbb565b610f0a61319b565b6004356009556001600755005b346103fd5760003660031901126103fd57604051600090600454600181811c90808316928315611012575b6020938484108114610ffc57838652908115610fdc5750600114610f81575b610f7d84610f7181880382612c34565b6040519182918261289d565b0390f35b600460009081529294507f8a35acfbc15ff81a39ae7d344fd709f28e8600b4aa8c65c6b64bfe7fe36bd19b5b828410610fc95750505081610f7d93610f719282010193610f61565b8054858501870152928501928101610fad565b60ff1916858501525050151560051b8201019150610f7181610f7d610f61565b634e487b7160e01b600052602260045260246000fd5b91607f1691610f42565b346103fd5760403660031901126103fd57600435611038612871565b611040614278565b808311611253575061105182612f6b565b9061105a61319b565b6110626134f1565b611215576001600160a01b037f00000000000000000000000000000000000000000000000000000000000000008116939061109f84303388613532565b6110a7614183565b6040516370a0823160e01b8152306004820152602096908781602481855afa908115610493576000916111e8575b508681106111ca57509084611126611132936110f2308a83613598565b7f000000000000000000000000000000000000000000000000000000000000000086169389908590801561119c5792613d63565b916109f4308483613846565b8216918215611183578161114591612d0e565b60405190838252848201527fdcbc1c05240f31ff3ad067ef1ee35ce4997762752e3a095284754544f4c709d760403392a36001600755604051908152f35b60405163ec442f0560e01b815260006004820152602490fd5b5063ffffffff7f00000000000000000000000000000000000000000000000000000000000000001692613d63565b6044908760405191635e13771960e01b835260048301526024820152fd5b90508781813d831161120e575b6111ff8183612c34565b810103126103fd5751886110d5565b503d6111f5565b61121d614183565b60085460405163391f5eb560e01b8152600481019290925263ffffffff808216602484015260209190911c166044820152606490fd5b60405163284ff66760e01b81526001600160a01b0392909216600483015260248201929092526044810191909152606490fd5b346103fd5760403660031901126103fd5761129f612871565b600435600052600660205260406000209060018060a01b0316600052602052602060ff604060002054166040519015158152f35b346103fd5760003660031901126103fd576005546040516001600160a01b039091168152602090f35b346103fd5760003660031901126103fd57602060085463ffffffff60405191831c168152f35b346103fd5760003660031901126103fd5760206107c5614209565b346103fd5760003660031901126103fd57602063ffffffff60085416604051908152f35b346103fd5760003660031901126103fd5760206040517f00000000000000000000000000000000000000000000000000000000000000008152f35b346103fd5760003660031901126103fd57602060405163ffffffff7f0000000000000000000000000000000000000000000000000000000000000000168152f35b346103fd576113eb36612904565b6113f361319b565b6113fb614183565b917f00000000000000000000000000000000000000000000000000000000000000009263ffffffff841691828211156115fb576114d29461143b826140c1565b91806115c0575b506001600160a01b03937f00000000000000000000000000000000000000000000000000000000000000008516936114d861147d86866134a3565b620f424061149a61149461148f614209565b612cf0565b83613354565b04998a916114cd6114c86114ad3061444a565b9190956114c26114bd828961358b565b61333c565b9661358b565b61358b565b612d01565b90612fff565b91821080156115b6575b6115865750505061152292916114f9913091613a18565b7f000000000000000000000000000000000000000000000000000000000000000016809361341b565b9080821061154157506106f19161153a308383613b92565b33906130fc565b60a49250604051916348a552d560e11b835260606004840152601060648401526f64656372656173654c6576657261676560801b608484015260248301526044820152fd5b604051636a3f633560e11b8152600481019290925263ffffffff9290921660248201526044810191909152606490fd5b50808210156114e2565b6115f59030337f00000000000000000000000000000000000000000000000000000000000000006001600160a01b0316613532565b86611442565b60405163de9f90d760e01b81526004810183905263ffffffff86166024820152604490fd5b61294f565b346103fd5760003660031901126103fd5761163e612bbb565b600580546001600160a01b031981169091556000906001600160a01b03167f8be0079c531659141344cd1fd0a4f28419497f9722a3daafe3b4186f6b6457e08280a3005b346103fd5760203660031901126103fd5760206107c56116a0612887565b6001600160a01b031660009081526020819052604090205490565b346103fd5760403660031901126103fd576004356116d7612871565b6116df614278565b80831161186157506116f082612f3c565b906116f961319b565b6117016134f1565b611215576001600160a01b037f00000000000000000000000000000000000000000000000000000000000000008116939061173e82303388613532565b611746614183565b6040516370a0823160e01b8152306004820152602096908781602481855afa90811561049357600091611834575b50848110611816575090846111266117c593611791308883613598565b7f000000000000000000000000000000000000000000000000000000000000000086169387908590801561119c5792613d63565b821691821561118357836117d891612d0e565b60405190815282848201527fdcbc1c05240f31ff3ad067ef1ee35ce4997762752e3a095284754544f4c709d760403392a36001600755604051908152f35b6044908560405191635e13771960e01b835260048301526024820152fd5b90508781813d831161185a575b61184b8183612c34565b810103126103fd575188611774565b503d611841565b604051633c8097d960e11b81526001600160a01b0392909216600483015260248201929092526044810191909152606490fd5b346103fd5760003660031901126103fd57600a546040516001600160a01b039091168152602090f35b346103fd5760003660031901126103fd5760206001600160a01b03610de4614565565b346103fd5760003660031901126103fd57602060405160028152f35b346103fd5760403660031901126103fd5760206107c561191a612871565b60043561341b565b346103fd5760003660031901126103fd576040517f00000000000000000000000000000000000000000000000000000000000000006001600160a01b03168152602090f35b346103fd5760203660031901126103fd57600435611983612a24565b80156119c25760407f46c287b860f967b39d89a1692e6486d60e4d66ea2cde369816239edaf4e0656991600c549080600c5582519182526020820152a1005b6040516354a62ce560e01b8152600490fd5b346103fd5760203660031901126103fd5760406119f76119f2612887565b61444a565b82519182526020820152f35b346103fd5760003660031901126103fd57610f7d611a1f6131d6565b604051918291602083526020830190612994565b6128e6565b346103fd5760003660031901126103fd576020600c54604051908152f35b346103fd5760203660031901126103fd576020620f424061061063ffffffff7f000000000000000000000000000000000000000000000000000000000000000016600435613354565b346103fd5760603660031901126103fd5760243567ffffffffffffffff8082116103fd57366023830112156103fd57808260040135116103fd57366024836004013560051b840101116103fd576044356001600160a01b038116908190036103fd57611b0961319b565b600c548060043510611fd2575015611f8457816004013515611fc0577f00000000000000000000000000000000000000000000000000000000000000006001600160a01b0316611b5d600435303384613532565b604051906060820190825260043560208301526060604083015283600401359052608081019060248401918260005b86600401358110611f9657505090807fc8efbc392b57771291983f003bd32ae9dc5e87ff1388a259b9acf272db4531d8920390a13015611f8457611bd383600401356131be565b91611be16040519384612c34565b6004840135808452601f1990611bf6906131be565b0136602085013760405190604082019082821090821117611f6e576040526001815260203681830137611c28816130b5565b7f00000000000000000000000000000000000000000000000000000000000000006001600160a01b0316905260005b84600401358110611d87575050815183600401358103611d65575060005b83600401358110611cad576106f1306004357f0000000000000000000000000000000000000000000000000000000000000000614301565b611cb781846130e8565b51620f4240611cc8600b5483613354565b04818111611d4857611d439291611d3e91611d3490611d13816001600160a01b03611d00611cfb8960048f01358d61480f565b61481f565b600a546001600160a01b031691166130fc565b6001600160a01b03611d2d611cfb8760048d01358b61480f565b169261358b565b90604435906130fc565b6130a6565b611c75565b6044916040519163270c46bf60e01b835260048301526024820152fd5b6044908460405191631aff8a1160e01b83526004830152600401356024820152fd5b6001600160a01b03611da1611cfb8360048901358761480f565b16908115611f5c576040516370a0823160e01b815230600482015291602083602481845afa92831561049357600093611f28575b506040516333028b9960e01b815260a0600482015260208180611dfb60a4820189612994565b60001960248301526001600160a01b037f000000000000000000000000000000000000000000000000000000000000000081166044840152306064840152608483018790529190039082906000907f0000000000000000000000000000000000000000000000000000000000000000165af1801561049357611efd575b506020602491604051928380926370a0823160e01b82523060048301525afa90811561049357600091611ec9575b50611ec492611eb49161358b565b611ebe82876130e8565b526130a6565b611c57565b90506020813d602011611ef5575b81611ee460209383612c34565b810103126103fd5751611ec4611ea6565b3d9150611ed7565b602090813d8311611f21575b611f138183612c34565b810103126103fd5787611e78565b503d611f09565b9092506020813d602011611f54575b81611f4460209383612c34565b810103126103fd57519187611dd5565b3d9150611f37565b60405163d92e233d60e01b8152600490fd5b634e487b7160e01b600052604160045260246000fd5b6040516313e6c64360e31b8152600490fd5b909182356001600160a01b03811691908290036103fd576020816001938293520193019101611b8c565b604051633ce287ef60e21b8152600490fd5b604490604051906301959e9f60e51b825260043560048301526024820152fd5b346103fd5760003660031901126103fd5760206107c5614183565b346103fd5760003660031901126103fd576040517f00000000000000000000000000000000000000000000000000000000000000006001600160a01b03168152602090f35b346103fd5760403660031901126103fd5761206b612871565b336001600160a01b038216036120875761080c90600435612b44565b60405163334bd91960e11b8152600490fd5b346103fd5760203660031901126103fd576004356120b5612a24565b7f0000000000000000000000000000000000000000000000000000000000000000808211612116577f7af7c1a20ca2d95ef775c520be0e875415f760d01d8ab209ad45bfe84839d68e604083600b549080600b5582519182526020820152a1005b604051636cef961f60e11b815260048101929092526024820152604490fd5b346103fd5760003660031901126103fd5760ff7f00000000000000000000000000000000000000000000000000000000000000001660ff811161217d57602090604051908152f35b634e487b7160e01b600052601160045260246000fd5b346103fd5760403660031901126103fd5761080c6004356121b2612871565b908060005260066020526121cd600160406000200154612a9e565b612ac4565b346103fd5760403660031901126103fd5760043563ffffffff908181168091036103fd5760243591808316908184036103fd5761220d612bbb565b61221561319b565b7f000000000000000000000000000000000000000000000000000000000000000016808310801590612297575b61227457505067ffffffff000000006008549260201b169167ffffffffffffffff191617176008556001600755600080f35b606493506040519263b857eea760e01b8452600484015260248301526044820152fd5b5081811015612242565b346103fd5760203660031901126103fd5760043580151581036103fd576122c9604091613d92565b825191825260000b6020820152f35b346103fd5760203660031901126103fd5760043560005260066020526020600160406000200154604051908152f35b346103fd57610ec26123183661291a565b91612324833383612e26565b612c56565b346103fd5760003660031901126103fd576040517f00000000000000000000000000000000000000000000000000000000000000006001600160a01b03168152602090f35b346103fd5761237c36612904565b61238461319b565b61238c614183565b917f00000000000000000000000000000000000000000000000000000000000000009063ffffffff8216908185101561256a576123c881613fc7565b908061252f575b506001600160a01b03927f000000000000000000000000000000000000000000000000000000000000000084169261240784846134a3565b9661244e620f424061242361241d61148f614209565b8b613354565b04986114d28a6114c86114c86124383061444a565b9190956124486114bd8289612d01565b96612d01565b9182118015612525575b6124f557505050612498929161246f913091613598565b7f000000000000000000000000000000000000000000000000000000000000000016809361341b565b908082106124b057506106f19161153a308383613846565b60a49250604051916348a552d560e11b835260606004840152601060648401526f696e6372656173654c6576657261676560801b608484015260248301526044820152fd5b604051630262805f60e11b8152600481019290925263ffffffff9290921660248201526044810191909152606490fd5b5080821115612458565b6125649030337f00000000000000000000000000000000000000000000000000000000000000006001600160a01b0316613532565b856123cf565b6040516312e9fceb60e21b81526004810186905263ffffffff84166024820152604490fd5b346103fd5760003660031901126103fd576020600254604051908152f35b346103fd5760203660031901126103fd5760206107c5600435612f0a565b346103fd5760403660031901126103fd576125e4612887565b60243590331561266a576001600160a01b031690811561265157336000526001602052604060002082600052602052806040600020556040519081527f8c5be1e5ebec7d5bd14f71427d1e84f3dd0314c0f7b2291e5b200ac8c7c3b92560203392a3602060405160018152f35b604051634a1406b160e11b815260006004820152602490fd5b60405163e602df0560e01b815260006004820152602490fd5b346103fd5760003660031901126103fd57602061269e6144da565b6040516001600160a01b039091168152f35b346103fd5760003660031901126103fd57604051600090600354600181811c90808316928315612764575b6020938484108114610ffc57838652908115610fdc575060011461270957610f7d84610f7181880382612c34565b600360009081529294507fc2575a0e9e593c00f959f8c92f12db2869c3395a3b0502d05e2516446f71f85b5b8284106127515750505081610f7d93610f719282010193610f61565b8054858501870152928501928101612735565b91607f16916126db565b346103fd5760003660031901126103fd57602060405160088152f35b346103fd5760403660031901126103fd5760206107c56127a8612871565b6004356134a3565b346103fd5760003660031901126103fd57602061269e614565565b346103fd5760203660031901126103fd5760043563ffffffff60e01b81168091036103fd57602090637965db0b60e01b8114908115612810575b506040519015158152f35b6301ffc9a760e01b14905082612805565b346103fd5760003660031901126103fd5760206107c56128403061444a565b507f00000000000000000000000000000000000000000000000000000000000000006001600160a01b03169061341b565b602435906001600160a01b03821682036103fd57565b600435906001600160a01b03821682036103fd57565b6020808252825181830181905290939260005b8281106128d257505060409293506000838284010152601f8019910116010190565b8181018601518482016040015285016128b0565b346103fd5760203660031901126103fd5760206107c5600435612f9a565b60409060031901126103fd576004359060243590565b60609060031901126103fd576001600160a01b039060043582811681036103fd579160243590811681036103fd579060443590565b346103fd5760803660031901126103fd576001600160a01b0360043581811681036103fd5760243591821682036103fd576020916107c5916064359160443591613d63565b90815180825260208080930193019160005b8281106129b4575050505090565b83516001600160a01b0316855293810193928101926001016129a6565b60609060031901126103fd57600435906001600160a01b039060243582811681036103fd579160443590811681036103fd5790565b346103fd5760203660031901126103fd5760206107c5600435612f3c565b3360009081527ffe34ed5485dc9fe44fe8269f3027eee2e0a6e4cc4be0ba8f7d037ae76cfa28d360205260409020547f51785d261c3b3e8c2cfe2d0e108b9ab2b1fb703ff9e9e49aba4ebdc85c36152b9060ff1615612a805750565b6044906040519063e2517d3f60e01b82523360048301526024820152fd5b80600052600660205260406000203360005260205260ff6040600020541615612a805750565b906000918083526006602052604083209160018060a01b03169182845260205260ff60408420541615600014612b3f5780835260066020526040832082845260205260408320600160ff198254161790557f2f8788117e7eff1d82e926ec794901d17c78024a50270940304540a733656f0d339380a4600190565b505090565b906000918083526006602052604083209160018060a01b03169182845260205260ff604084205416600014612b3f578083526006602052604083208284526020526040832060ff1981541690557ff6391f5c32d9c69d2a47ea670b442974b53935d1edc7fd64eb21e047a839171b339380a4600190565b6005546001600160a01b03163303612bcf57565b60405163118cdaa760e01b8152336004820152602490fd5b67ffffffffffffffff8111611f6e57604052565b6101e0810190811067ffffffffffffffff821117611f6e57604052565b6020810190811067ffffffffffffffff821117611f6e57604052565b90601f8019910116810190811067ffffffffffffffff821117611f6e57604052565b916001600160a01b03808416928315610ad157169283156111835760009083825281602052604082205490838210612cbe57509160408282600080516020614834833981519152958760209652828652038282205586815220818154019055604051908152a3565b60405163391434e360e21b81526001600160a01b03919091166004820152602481019190915260448101839052606490fd5b90620f424091820180921161217d57565b9190820180921161217d57565b6000805160206148348339815191526020600092612d2e85600254612d01565b6002556001600160a01b03169384158414612d555780600254036002555b604051908152a3565b84845283825260408420818154019055612d4c565b9091906001600160a01b0381169081612db45750600080516020614834833981519152602084612d9f60009596600254612d01565b6002555b8060025403600255604051908152a3565b92600082815280602052604081205494828610612df55750818160406000805160206148348339815191529460009798876020965283865203912055612da3565b60405163391434e360e21b81526001600160a01b039190911660048201526024810186905260448101839052606490fd5b9160018060a01b038093169160009383855260016020526040938486209183169182875260205284862054926000198410612e65575b50505050505050565b848410612ec957508015612eb1578115612e9957855260016020528385209085526020520391205538808080808080612e5c565b8451634a1406b160e11b815260048101879052602490fd5b845163e602df0560e01b815260048101879052602490fd5b8551637dc7a0d960e11b81526001600160a01b039190911660048201526024810184905260448101859052606490fd5b60ff16604d811161217d57600a0a90565b6002546001810180911161217d57612f246128403061444a565b906001820180921161217d57612f3992612fc9565b90565b6002546001810180911161217d57612f566128403061444a565b906001820180921161217d57612f3992613009565b612f776128403061444a565b6001810180911161217d57600254906001820180921161217d57612f3992612fc9565b612fa66128403061444a565b6001810180911161217d57600254906001820180921161217d57612f3992613009565b91612fd5818385613009565b918115612fe957612f399309151590612d01565b634e487b7160e01b600052601260045260246000fd5b8115612fe9570490565b909160001983830992808302928380861095039480860395146130995784831115613080579082910981600003821680920460028082600302188083028203028083028203028083028203028083028203028083028203028092029003029360018380600003040190848311900302920304170290565b82634e487b71600052156003026011186020526024601cfd5b505090612f399250612fff565b600019811461217d5760010190565b8051156130c25760200190565b634e487b7160e01b600052603260045260246000fd5b8051600110156130c25760400190565b80518210156130c25760209160051b010190565b60405163a9059cbb60e01b60208201526001600160a01b0392909216602483015260448083019390935291815261313d91613138606483612c34565b61313f565b565b906000602091828151910182855af115610493576000513d61319257506001600160a01b0381163b155b6131705750565b604051635274afe760e01b81526001600160a01b039091166004820152602490fd5b60011415613169565b6002600754146131ac576002600755565b604051633ee5aeb560e01b8152600490fd5b67ffffffffffffffff8111611f6e5760051b60200190565b6001600160a01b03907f0000000000000000000000000000000000000000000000000000000000000000821661320b816145d6565b90604051916080830183811067ffffffffffffffff821117611f6e57859161012091604052600385526060366020870137826101008201511661324d866130b5565b52826101408201511661325f866130d8565b52015116938251946002958610156130c2576060840152825185019182861161217d5761328b836131be565b926132996040519485612c34565b8084526132a8601f19916131be565b013660208501376132b8836130b5565b52807f0000000000000000000000000000000000000000000000000000000000000000166132e5836130d8565b52600092835b815181101561333357826132ff82846130e8565b511681880180891161331f5790611ebe61331a9392876130e8565b6132eb565b634e487b7160e01b87526011600452602487fd5b50919450505050565b90620f42409182810292818404149015171561217d57565b8181029291811591840414171561217d57565b6001600160a01b039060208261337b6144da565b169160246040518095819363b3596f0760e01b835216948560048301525afa918215610493576000926133cc575b5081156133b4575090565b6024906040519063339c9fa160e21b82526004820152fd5b90916020823d82116133fa575b816133e660209383612c34565b810103126133f757505190386133a9565b80fd5b3d91506133d9565b908160209103126103fd575160ff811681036103fd5790565b90600491602061342a83613367565b60405163313ce56760e01b815294909385919082906001600160a01b03165afa9081156104935761346a61347092612f3995600091613475575b50612ef9565b90613354565b612fff565b613496915060203d811161349c575b61348e8183612c34565b810190613402565b38613464565b503d613484565b9060206134b560049361346a84613367565b60405163313ce56760e01b815293909284919082906001600160a01b03165afa91821561049357612f39926114d2916000916134755750612ef9565b6134f9614183565b8015159081613506575090565b60085463ffffffff80821683109350908315613523575b50505090565b60201c1610905038808061351d565b6040516323b872dd60e01b60208201526001600160a01b03928316602482015292909116604483015260648083019390935291815260a081019181831067ffffffffffffffff841117611f6e5761313d9260405261313f565b9190820391821161217d57565b919060018060a01b0380841660408051916370a0823160e01b9384845260009460049730898701526020928387602481885afa96871561383c578897613809575b50806135e3614565565b875163095ea7b360e01b815291166001600160a01b0381168c8301908152602081018c90529093919086908290819060400103818d8b5af19081156137ff578a916137d2575b501561377d57823b156137795760848b8a8c9581958a958c51988997889663617ba03760e01b885287015260248601521660448401528160648401525af1801561376f5761375c575b50819060248551809581938252308c8301525afa9485156137515794613721575b5050818310156136eb57836136a8848461358b565b036136b557505050505050565b5163758ad4e760e01b81526001600160a01b03959095169385019384526020840152604083015260608201528190036080019150fd5b5163648195a560e11b81526001600160a01b03959095169385019384526020840152604083015260608201528190036080019150fd5b9080929450813d831161374a575b6137398183612c34565b810103126103fd5751913880613693565b503d61372f565b8351903d90823e3d90fd5b95613768839297612be7565b9590613672565b85513d89823e3d90fd5b8880fd5b865162461bcd60e51b8152808c01869052602960248201527f617070726f7665206661696c656420666f72206c656e64696e6720706f6f6c20604482015268696e20737570706c7960b81b6064820152608490fd5b6137f29150863d88116137f8575b6137ea8183612c34565b8101906142e9565b38613629565b503d6137e0565b88513d8c823e3d90fd5b9096508381813d8311613835575b6138218183612c34565b81010312613831575195386135d9565b8780fd5b503d613817565b86513d8a823e3d90fd5b9060018060a01b038083166040908151956370a0823160e01b8088526000943060048a0152602092838a602481885afa998a15613a0e57879a6139db575b508161388e614565565b16803b15613831579060a4898980948a51968795869463a415bcad60e01b86528c60048701526024860152600260448601528360648601521660848401525af180156139d1576139be575b508190602485518095819382523060048301525afa938415613751579361398e575b5050848211156139555782613910868461358b565b0361391c575050505050565b516371e5ed5360e01b81526001600160a01b03939093166004840152602483019390935260448201929092526064810191909152608490fd5b51631216cb9b60e11b81526001600160a01b03939093166004840152602483019390935260448201929092526064810191909152608490fd5b9080929350813d83116139b7575b6139a68183612c34565b810103126103fd57519038806138fb565b503d61399c565b946139ca839296612be7565b94906138d9565b85513d88823e3d90fd5b9099508381813d8311613a07575b6139f38183612c34565b81010312613a0357519838613884565b8680fd5b503d6139e9565b86513d89823e3d90fd5b604080516370a0823160e01b8082523060048301529094929392602092916001600160a01b038616918488602481865afa978815613b8757600098613b56575b5090613a6685928789614301565b602484518094819382523060048301525afa928315613b4b57600093613b1a575b505084821015613ae15782613a9c838761358b565b03613aa8575050505050565b51634023dad760e11b81526001600160a01b03939093166004840152602483019390935260448201929092526064810191909152608490fd5b516301b6cca560e11b81526001600160a01b03939093166004840152602483019390935260448201929092526064810191909152608490fd5b8181949293943d8311613b44575b613b328183612c34565b810103126133f7575051903880613a87565b503d613b28565b82513d6000823e3d90fd5b90978582813d8311613b80575b613b6d8183612c34565b810103126133f757505196613a66613a58565b503d613b63565b84513d6000823e3d90fd5b604080516370a0823160e01b8082523060048301529094929392602092916001600160a01b0380871692908589602481875afa988915613d5857600099613d29575b508060648792613be2614565565b1693600088519586948593631a4ca37b60e21b85528a60048601528d60248601521660448401525af18015613b8757908591613d00575b5090602484518094819382523060048301525afa928315613b4b57600093613ccf575b505084821115613c965782613c51868461358b565b03613c5d575050505050565b51633b6d51ff60e21b81526001600160a01b03939093166004840152602483019390935260448201929092526064810191909152608490fd5b5163eefde95560e01b81526001600160a01b03939093166004840152602483019390935260448201929092526064810191909152608490fd5b8181949293943d8311613cf9575b613ce78183612c34565b810103126133f7575051903880613c3c565b503d613cdd565b813d8311613d22575b613d138183612c34565b810103126103fd578338613c19565b503d613d09565b90988682813d8311613d51575b613d408183612c34565b810103126133f75750519785613bd4565b503d613d36565b85513d6000823e3d90fd5b613d6d91926134a3565b91620f423f1981019080821161217d57613470613d8d92612f3995613354565b61341b565b613d9a614183565b7f000000000000000000000000000000000000000000000000000000000000000063ffffffff169081811015613ddb575050613dd590613df9565b90600190565b11613de95750600090600090565b613df290613f23565b9060001990565b613e59620f4240613e093061444a565b613e53613e21613e1a959395614209565b928661358b565b946114c863ffffffff7f0000000000000000000000000000000000000000000000000000000000000000169687613354565b93613354565b046001018060011161217d57613e6e91612fff565b7f00000000000000000000000000000000000000000000000000000000000000006001600160a01b031690613ea490829061341b565b91613ead575090565b6020602491604051928380926370a0823160e01b82523060048301525afa90811561049357600091613ef2575b50808211613ee9575050600090565b612f399161358b565b906020823d8211613f1b575b81613f0b60209383612c34565b810103126133f757505138613eda565b3d9150613efe565b613f7c620f4240613f333061444a565b613e53613f44613e1a959395614209565b94613f7663ffffffff7f0000000000000000000000000000000000000000000000000000000000000000169687613354565b9061358b565b046001018060011161217d57613f9191612fff565b7f00000000000000000000000000000000000000000000000000000000000000006001600160a01b031690613ea490829061341b565b908115614065576040516370a0823160e01b8152306004820152916020836024817f00000000000000000000000000000000000000000000000000000000000000006001600160a01b03165afa9283156104935760009361402e575b50612f399192612d01565b6020813d821161405d575b8161404660209383612c34565b8101031261405957519250612f39614023565b8380fd5b3d9150614039565b9050614077620f4240613e093061444a565b04600101908160011161217d57612f399161409191612fff565b7f00000000000000000000000000000000000000000000000000000000000000006001600160a01b03169061341b565b908115614127576040516370a0823160e01b8152306004820152916020836024817f00000000000000000000000000000000000000000000000000000000000000006001600160a01b03165afa9283156104935760009361402e5750612f399192612d01565b9050614139620f4240613f333061444a565b04600101908160011161217d57612f399161415391612fff565b7f00000000000000000000000000000000000000000000000000000000000000006001600160a01b03169061341b565b61418c3061444a565b908181106141ec5780156141e5578181146141dd576114d26141b7926141b18361333c565b9261358b565b620f42408111156141c55790565b602490604051906369bb335560e01b82526004820152fd5b505060001990565b5050600090565b604491604051916378ea417b60e11b835260048301526024820152fd5b614211614183565b7f000000000000000000000000000000000000000000000000000000000000000063ffffffff1680821115614263576134706114bd826142509461358b565b60095480821161425e575090565b905090565b6134706114bd614273938361358b565b614250565b6142806134f1565b61428a5760001990565b600090565b6142976134f1565b6142bc576001600160a01b0316600090815260208190526040902054612f3990612f9a565b50600090565b6142ca6134f1565b6142bc576001600160a01b031660009081526020819052604090205490565b908160209103126103fd575180151581036103fd5790565b909161430b614565565b60405163095ea7b360e01b81526001600160a01b03918216600482018190526024820186905260009560209590939081169286816044818b885af190811561443f578891614422575b50156143cc579186608492879594604051978896879563573ade8160e01b875260048701526024860152600260448601521660648401525af180156143c15761439c57505050565b813d83116143ba575b6143af8183612c34565b810103126133f75750565b503d6143a5565b6040513d85823e3d90fd5b60405162461bcd60e51b815260048101879052602860248201527f617070726f7665206661696c656420666f72206c656e64696e6720706f6f6c20604482015267696e20726570617960c01b6064820152608490fd5b6144399150873d89116137f8576137ea8183612c34565b38614354565b6040513d8a823e3d90fd5b9060c06001600160a01b03602481614460614565565b16946040519586938492632fe4a15f60e21b84521660048301525afa91821561049357600090819361449157509190565b925060c0833d82116144be575b816144ab60c09383612c34565b810103126133f757506020825192015190565b3d915061449e565b51906001600160a01b03821682036103fd57565b604051631f94a27560e31b81526001600160a01b03906020816004817f000000000000000000000000000000000000000000000000000000000000000086165afa9081156104935760009161452e57501690565b906020823d821161455d575b8161454760209383612c34565b810103126133f75750614559906144c6565b1690565b3d915061453a565b60405163026b1d5f60e01b81526001600160a01b03906020816004817f000000000000000000000000000000000000000000000000000000000000000086165afa9081156104935760009161452e57501690565b51906fffffffffffffffffffffffffffffffff821682036103fd57565b60409081516145e481612bfb565b8251916145f083612c18565b600092838152825282602083015282848301528260608301528260808301528260a08301528260c08301528260e08301526101008381840152610120848185015261014085818601526101609086828701526101809287848801526101a0948886890152886101c08099015260018060a01b03988961466d614565565b168b519a8b996335ea6a7560e01b8b521660048a01528860246101e09c8d935afa9a8b1561480557819b6146aa575b505050505050505050505090565b90919293949596978a819a9b9c503d8d116147fe575b6146ca8183612c34565b8101039a8b126147fa57602081519b6146e28d612bfb565b126147fa5780516146f281612c18565b895181528b5261470460208a016145b9565b60208c0152614714818a016145b9565b908b0152614724606089016145b9565b60608b0152614735608089016145b9565b60808b015261474660a089016145b9565b60a08b015260c088015164ffffffffff811681036147fa5760c08b015260e08801519061ffff821682036133f75750916147e6979593918997959360e08c01526147918188016144c6565b908b01526147a08187016144c6565b908a01526147af8186016144c6565b908901526147be8185016144c6565b908801526147cd8184016145b9565b908701526147dc8183016145b9565b90860152016145b9565b90820152388080808080808080808061469c565b5080fd5b503d6146c0565b51903d90823e3d90fd5b91908110156130c25760051b0190565b356001600160a01b03811681036103fd579056feddf252ad1be2c89b69c2b068fc378daa952ba7f163c4a11628f55a4df523b3efa2646970667358221220edc7aceb3ae0ec007c3b2c019e1aa5c80ee4b040fe4cb34a51af674e8ce5c01f64736f6c634300081400332f8788117e7eff1d82e926ec794901d17c78024a50270940304540a733656f0d",
  "devdoc": {
    "details": "Read the documentation of DLoopCoreBase for more details      - This contract implement dLEND-specific lending operations for DLoopCoreBase",
    "errors": {
      "AccessControlBadConfirmation()": [
        {
          "details": "The caller of a function is not the expected one. NOTE: Don't confuse with {AccessControlUnauthorizedAccount}."
        }
      ],
      "AccessControlUnauthorizedAccount(address,bytes32)": [
        {
          "details": "The `account` is missing a role."
        }
      ],
      "ERC20InsufficientAllowance(address,uint256,uint256)": [
        {
          "details": "Indicates a failure with the `spender`s `allowance`. Used in transfers.",
          "params": {
            "allowance": "Amount of tokens a `spender` is allowed to operate with.",
            "needed": "Minimum amount required to perform a transfer.",
            "spender": "Address that may be allowed to operate on tokens without being their owner."
          }
        }
      ],
      "ERC20InsufficientBalance(address,uint256,uint256)": [
        {
          "details": "Indicates an error related to the current `balance` of a `sender`. Used in transfers.",
          "params": {
            "balance": "Current balance for the interacting account.",
            "needed": "Minimum amount required to perform a transfer.",
            "sender": "Address whose tokens are being transferred."
          }
        }
      ],
      "ERC20InvalidApprover(address)": [
        {
          "details": "Indicates a failure with the `approver` of a token to be approved. Used in approvals.",
          "params": {
            "approver": "Address initiating an approval operation."
          }
        }
      ],
      "ERC20InvalidReceiver(address)": [
        {
          "details": "Indicates a failure with the token `receiver`. Used in transfers.",
          "params": {
            "receiver": "Address to which tokens are being transferred."
          }
        }
      ],
      "ERC20InvalidSender(address)": [
        {
          "details": "Indicates a failure with the token `sender`. Used in transfers.",
          "params": {
            "sender": "Address whose tokens are being transferred."
          }
        }
      ],
      "ERC20InvalidSpender(address)": [
        {
          "details": "Indicates a failure with the `spender` to be approved. Used in approvals.",
          "params": {
            "spender": "Address that may be allowed to operate on tokens without being their owner."
          }
        }
      ],
      "ERC4626ExceededMaxDeposit(address,uint256,uint256)": [
        {
          "details": "Attempted to deposit more assets than the max amount for `receiver`."
        }
      ],
      "ERC4626ExceededMaxMint(address,uint256,uint256)": [
        {
          "details": "Attempted to mint more shares than the max amount for `receiver`."
        }
      ],
      "ERC4626ExceededMaxRedeem(address,uint256,uint256)": [
        {
          "details": "Attempted to redeem more shares than the max amount for `receiver`."
        }
      ],
      "ERC4626ExceededMaxWithdraw(address,uint256,uint256)": [
        {
          "details": "Attempted to withdraw more assets than the max amount for `receiver`."
        }
      ],
      "OwnableInvalidOwner(address)": [
        {
          "details": "The owner is not a valid owner account. (eg. `address(0)`)"
        }
      ],
      "OwnableUnauthorizedAccount(address)": [
        {
          "details": "The caller account is not authorized to perform an operation."
        }
      ],
      "ReentrancyGuardReentrantCall()": [
        {
          "details": "Unauthorized reentrant call."
        }
      ],
      "SafeERC20FailedOperation(address)": [
        {
          "details": "An operation with an ERC-20 token failed."
        }
      ]
    },
    "events": {
      "Approval(address,address,uint256)": {
        "details": "Emitted when the allowance of a `spender` for an `owner` is set by a call to {approve}. `value` is the new allowance."
      },
      "RoleAdminChanged(bytes32,bytes32,bytes32)": {
        "details": "Emitted when `newAdminRole` is set as ``role``'s admin role, replacing `previousAdminRole` `DEFAULT_ADMIN_ROLE` is the starting admin for all roles, despite {RoleAdminChanged} not being emitted to signal this."
      },
      "RoleGranted(bytes32,address,address)": {
        "details": "Emitted when `account` is granted `role`. `sender` is the account that originated the contract call. This account bears the admin role (for the granted role). Expected in cases where the role was granted using the internal {AccessControl-_grantRole}."
      },
      "RoleRevoked(bytes32,address,address)": {
        "details": "Emitted when `account` is revoked `role`. `sender` is the account that originated the contract call:   - if using `revokeRole`, it is the admin role bearer   - if using `renounceRole`, it is the role bearer (i.e. `account`)"
      },
      "Transfer(address,address,uint256)": {
        "details": "Emitted when `value` tokens are moved from one account (`from`) to another (`to`). Note that `value` may be zero."
      }
    },
    "kind": "dev",
    "methods": {
      "allowance(address,address)": {
        "details": "See {IERC20-allowance}."
      },
      "approve(address,uint256)": {
        "details": "See {IERC20-approve}. NOTE: If `value` is the maximum `uint256`, the allowance is not updated on `transferFrom`. This is semantically equivalent to an infinite approval. Requirements: - `spender` cannot be the zero address."
      },
      "asset()": {
        "details": "See {IERC4626-asset}. "
      },
      "balanceOf(address)": {
        "details": "See {IERC20-balanceOf}."
      },
      "compoundRewards(uint256,address[],address)": {
        "details": "Compounds multiple rewards",
        "params": {
          "amount": "The amount to compound",
          "receiver": "The address to receive the compounded rewards",
          "rewardTokens": "The reward tokens to claim"
        }
      },
      "constructor": {
        "details": "Constructor for the DLoopCoreDLend contract",
        "params": {
          "_collateralToken": "Address of the collateral token",
          "_dLendAssetToClaimFor": "Address of the dLEND asset to claim for",
          "_debtToken": "Address of the debt token",
          "_initialTreasuryFeeBps": "Initial treasury fee in basis points",
          "_lendingPoolAddressesProvider": "Address of the lending pool addresses provider",
          "_lowerBoundTargetLeverageBps": "Lower bound of target leverage in basis points",
          "_maxSubsidyBps": "Maximum subsidy in basis points",
          "_maxTreasuryFeeBps": "Maximum treasury fee in basis points",
          "_name": "Name of the vault token",
          "_rewardsController": "Address of the dLEND rewards controller",
          "_symbol": "Symbol of the vault token",
          "_targetLeverageBps": "Target leverage in basis points",
          "_targetStaticATokenWrapper": "Address of the target static aToken wrapper",
          "_treasury": "Address of the treasury",
          "_upperBoundTargetLeverageBps": "Upper bound of target leverage in basis points"
        }
      },
      "convertFromBaseCurrencyToToken(uint256,address)": {
        "details": "Converts an amount in base currency to the actual amount in the token",
        "params": {
          "amountInBase": "Amount in base currency",
          "token": "Address of the token"
        },
        "returns": {
          "_0": "amountInToken Amount in the token"
        }
      },
      "convertFromTokenAmountToBaseCurrency(uint256,address)": {
        "details": "Converts an amount in the token to the actual amount in base currency",
        "params": {
          "amountInToken": "Amount in the token",
          "token": "Address of the token"
        },
        "returns": {
          "_0": "amountInBase Amount in base currency"
        }
      },
      "convertToAssets(uint256)": {
        "details": "See {IERC4626-convertToAssets}. "
      },
      "convertToShares(uint256)": {
        "details": "See {IERC4626-convertToShares}. "
      },
      "decimals()": {
        "details": "Decimals are computed by adding the decimal offset on top of the underlying asset's decimals. This \"original\" value is cached during construction of the vault contract. If this read operation fails (e.g., the asset has not been created yet), a default of 18 is used to represent the underlying asset's decimals. See {IERC20Metadata-decimals}."
      },
      "decreaseLeverage(uint256,uint256)": {
        "details": "Decreases the leverage of the user by repaying debt and withdrawing collateral      - It requires to spend the debt token from the user's wallet to repay the debt to the pool      - It will send the withdrawn collateral asset to the user's wallet",
        "params": {
          "additionalDebtTokenAmount": "The additional amount of debt token to repay",
          "minReceivedAmount": "The minimum amount of collateral asset to receive"
        }
      },
      "deposit(uint256,address)": {
        "details": "See {IERC4626-deposit}. "
      },
      "getAmountToReachTargetLeverage(bool)": {
        "details": "Gets the rebalance amount to reach the target leverage in token unit      - This method is supposed to be used by the rebalancing service which will use it to quote the required        collateral/debt amount and the corresponding direction (increase or decrease)",
        "params": {
          "useVaultTokenBalance": "Whether to use the current token balance in the vault as the amount to rebalance      - It will help to save the additional collateral/debt token transfer from the caller to the vault, while getting        the same effect as calling increaseLeverage or decreaseLeverage with the required collateral/debt token amount"
        },
        "returns": {
          "direction": "The direction of the rebalance (1 for increase, -1 for decrease, 0 means no rebalance)",
          "tokenAmount": "The amount of token to call increaseLeverage or decreaseLeverage (in token unit)         - If the direction is 1, the amount is in collateral token         - If the direction is -1, the amount is in debt token"
        }
      },
      "getAssetPriceFromOracle(address)": {
        "details": "Gets the asset price from the oracle",
        "params": {
          "asset": "Address of the asset"
        },
        "returns": {
          "_0": "uint256 Price of the asset"
        }
      },
      "getBorrowAmountThatKeepCurrentLeverage(address,address,uint256,uint256)": {
        "details": "Gets the borrow amount that keeps the current leverage",
        "params": {
          "collateralAsset": "The collateral asset",
          "debtAsset": "The debt asset",
          "leverageBpsBeforeSupply": "Leverage in basis points before supplying",
          "suppliedCollateralAmount": "The actual supplied amount of collateral asset"
        },
        "returns": {
          "expectedBorrowAmount": "The expected borrow amount that keeps the current leverage"
        }
      },
      "getCollateralTokenAddress()": {
        "details": "Gets the address of the collateral token",
        "returns": {
          "_0": "address The address of the collateral token"
        }
      },
      "getCurrentLeverageBps()": {
        "details": "Gets the current leverage in basis points",
        "returns": {
          "_0": "uint256 The current leverage in basis points"
        }
      },
      "getCurrentSubsidyBps()": {
        "details": "Gets the current subsidy in basis points",
        "returns": {
          "_0": "uint256 The current subsidy in basis points"
        }
      },
      "getDTokenBalance(address)": {
        "details": "Gets the DToken balance of the vault",
        "params": {
          "tokenAddress": "The address of the token"
        },
        "returns": {
          "_0": "uint256 The DToken balance of the vault"
        }
      },
      "getDebtTokenAddress()": {
        "details": "Gets the address of the debt token",
        "returns": {
          "_0": "address The address of the debt token"
        }
      },
      "getDefaultMaxSubsidyBps()": {
        "details": "Gets the default maximum subsidy in basis points",
        "returns": {
          "_0": "uint256 The default maximum subsidy in basis points"
        }
      },
      "getLendingOracle()": {
        "details": "Gets the lending oracle",
        "returns": {
          "_0": "IPriceOracleGetter The lending oracle interface"
        }
      },
      "getLendingPool()": {
        "details": "Gets the lending pool",
        "returns": {
          "_0": "ILendingPool The lending pool interface"
        }
      },
      "getLendingPoolAddress()": {
        "details": "Gets the lending pool address",
        "returns": {
          "_0": "address The lending pool address"
        }
      },
      "getLeveragedAssets(uint256)": {
        "details": "Calculates the leveraged amount of the assets",
        "params": {
          "assets": "Amount of assets"
        },
        "returns": {
          "_0": "leveragedAssets Amount of leveraged assets"
        }
      },
      "getOracleAddress()": {
        "details": "Gets the oracle address",
        "returns": {
          "_0": "address The oracle address"
        }
      },
      "getRestrictedRescueTokens()": {
        "details": "Gets the restricted rescue tokens",
        "returns": {
          "_0": "address[] Restricted rescue tokens"
        }
      },
      "getRoleAdmin(bytes32)": {
        "details": "Returns the admin role that controls `role`. See {grantRole} and {revokeRole}. To change a role's admin, use {_setRoleAdmin}."
      },
      "getTotalCollateralAndDebtOfUserInBase(address)": {
        "details": "Gets the total collateral and debt of a user in base currency",
        "params": {
          "user": "Address of the user"
        },
        "returns": {
          "totalCollateralBase": "Total collateral in base currency",
          "totalDebtBase": "Total debt in base currency"
        }
      },
      "getTreasuryFee(uint256)": {
        "details": "Calculates the treasury fee for a given amount",
        "params": {
          "amount": "The amount to calculate the treasury fee for"
        },
        "returns": {
          "_0": "The treasury fee in the same unit as the amount"
        }
      },
      "grantRole(bytes32,address)": {
        "details": "Grants `role` to `account`. If `account` had not been already granted `role`, emits a {RoleGranted} event. Requirements: - the caller must have ``role``'s admin role. May emit a {RoleGranted} event."
      },
      "hasRole(bytes32,address)": {
        "details": "Returns `true` if `account` has been granted `role`."
      },
      "increaseLeverage(uint256,uint256)": {
        "details": "Increases the leverage of the user by supplying collateral token and borrowing more debt token      - It requires to spend the collateral token from the user's wallet to supply to the pool      - It will send the borrowed debt token to the user's wallet",
        "params": {
          "additionalCollateralTokenAmount": "The additional amount of collateral token to supply",
          "minReceivedDebtTokenAmount": "The minimum amount of debt token to receive"
        }
      },
      "isTooImbalanced()": {
        "details": "Returns whether the current leverage is too imbalanced",
        "returns": {
          "_0": "bool True if leverage is too imbalanced, false otherwise"
        }
      },
      "mint(uint256,address)": {
        "details": "See {IERC4626-mint}. "
      },
      "name()": {
        "details": "Returns the name of the token."
      },
      "owner()": {
        "details": "Returns the address of the current owner."
      },
      "previewDeposit(uint256)": {
        "details": "See {IERC4626-previewDeposit}. "
      },
      "previewMint(uint256)": {
        "details": "See {IERC4626-previewMint}. "
      },
      "previewRedeem(uint256)": {
        "details": "See {IERC4626-previewRedeem}. "
      },
      "previewWithdraw(uint256)": {
        "details": "See {IERC4626-previewWithdraw}. "
      },
      "redeem(uint256,address,address)": {
        "details": "See {IERC4626-redeem}. "
      },
      "renounceOwnership()": {
        "details": "Leaves the contract without owner. It will not be possible to call `onlyOwner` functions. Can only be called by the current owner. NOTE: Renouncing ownership will leave the contract without an owner, thereby disabling any functionality that is only available to the owner."
      },
      "renounceRole(bytes32,address)": {
        "details": "Revokes `role` from the calling account. Roles are often managed via {grantRole} and {revokeRole}: this function's purpose is to provide a mechanism for accounts to lose their privileges if they are compromised (such as when a trusted device is misplaced). If the calling account had been revoked `role`, emits a {RoleRevoked} event. Requirements: - the caller must be `callerConfirmation`. May emit a {RoleRevoked} event."
      },
      "rescueToken(address,address,uint256)": {
        "details": "Rescues tokens accidentally sent to the contract (except for the collateral token and debt token)",
        "params": {
          "amount": "Amount of tokens to rescue",
          "receiver": "Address to receive the rescued tokens",
          "token": "Address of the token to rescue"
        }
      },
      "revokeRole(bytes32,address)": {
        "details": "Revokes `role` from `account`. If `account` had been granted `role`, emits a {RoleRevoked} event. Requirements: - the caller must have ``role``'s admin role. May emit a {RoleRevoked} event."
      },
      "setExchangeThreshold(uint256)": {
        "details": "Sets the minimum threshold for exchange operations",
        "params": {
          "newExchangeThreshold": "New minimum threshold amount"
        }
      },
      "setLeverageBounds(uint32,uint32)": {
        "details": "Sets the lower and upper bounds of target leverage",
        "params": {
          "_lowerBoundTargetLeverageBps": "New lower bound of target leverage in basis points",
          "_upperBoundTargetLeverageBps": "New upper bound of target leverage in basis points"
        }
      },
      "setMaxSubsidyBps(uint256)": {
        "details": "Sets the maximum subsidy in basis points",
        "params": {
          "_maxSubsidyBps": "New maximum subsidy in basis points"
        }
      },
      "setTreasury(address)": {
        "details": "Sets the treasury address",
        "params": {
          "newTreasury": "The new treasury address"
        }
      },
      "setTreasuryFeeBps(uint256)": {
        "details": "Sets the treasury fee in basis points",
        "params": {
          "newTreasuryFeeBps": "New treasury fee in basis points (1/100 of 1%)"
        }
      },
      "supportsInterface(bytes4)": {
        "details": "See {IERC165-supportsInterface}."
      },
      "symbol()": {
        "details": "Returns the symbol of the token, usually a shorter version of the name."
      },
      "totalAssets()": {
        "details": "Override of totalAssets from ERC4626",
        "returns": {
          "_0": "uint256 Total assets in the vault"
        }
      },
      "totalSupply()": {
        "details": "See {IERC20-totalSupply}."
      },
      "transfer(address,uint256)": {
        "details": "See {IERC20-transfer}. Requirements: - `to` cannot be the zero address. - the caller must have a balance of at least `value`."
      },
      "transferFrom(address,address,uint256)": {
        "details": "See {IERC20-transferFrom}. Skips emitting an {Approval} event indicating an allowance update. This is not required by the ERC. See {xref-ERC20-_approve-address-address-uint256-bool-}[_approve]. NOTE: Does not update the allowance if the current allowance is the maximum `uint256`. Requirements: - `from` and `to` cannot be the zero address. - `from` must have a balance of at least `value`. - the caller must have allowance for ``from``'s tokens of at least `value`."
      },
      "transferOwnership(address)": {
        "details": "Transfers ownership of the contract to a new account (`newOwner`). Can only be called by the current owner."
      },
      "withdraw(uint256,address,address)": {
        "details": "See {IERC4626-withdraw}. "
      }
    },
    "title": "DLoopCoreDLend",
    "version": 1
  },
  "userdoc": {
    "kind": "user",
    "methods": {},
    "version": 1
  },
  "storageLayout": {
    "storage": [
      {
        "astId": 946,
        "contract": "contracts/vaults/dloop/core/venue/dlend/DLoopCoreDLend.sol:DLoopCoreDLend",
        "label": "_balances",
        "offset": 0,
        "slot": "0",
        "type": "t_mapping(t_address,t_uint256)"
      },
      {
        "astId": 952,
        "contract": "contracts/vaults/dloop/core/venue/dlend/DLoopCoreDLend.sol:DLoopCoreDLend",
        "label": "_allowances",
        "offset": 0,
        "slot": "1",
        "type": "t_mapping(t_address,t_mapping(t_address,t_uint256))"
      },
      {
        "astId": 954,
        "contract": "contracts/vaults/dloop/core/venue/dlend/DLoopCoreDLend.sol:DLoopCoreDLend",
        "label": "_totalSupply",
        "offset": 0,
        "slot": "2",
        "type": "t_uint256"
      },
      {
        "astId": 956,
        "contract": "contracts/vaults/dloop/core/venue/dlend/DLoopCoreDLend.sol:DLoopCoreDLend",
        "label": "_name",
        "offset": 0,
        "slot": "3",
        "type": "t_string_storage"
      },
      {
        "astId": 958,
        "contract": "contracts/vaults/dloop/core/venue/dlend/DLoopCoreDLend.sol:DLoopCoreDLend",
        "label": "_symbol",
        "offset": 0,
        "slot": "4",
        "type": "t_string_storage"
      },
      {
        "astId": 387,
        "contract": "contracts/vaults/dloop/core/venue/dlend/DLoopCoreDLend.sol:DLoopCoreDLend",
        "label": "_owner",
        "offset": 0,
        "slot": "5",
        "type": "t_address"
      },
      {
        "astId": 26,
        "contract": "contracts/vaults/dloop/core/venue/dlend/DLoopCoreDLend.sol:DLoopCoreDLend",
        "label": "_roles",
        "offset": 0,
        "slot": "6",
        "type": "t_mapping(t_bytes32,t_struct(RoleData)21_storage)"
      },
      {
        "astId": 2793,
        "contract": "contracts/vaults/dloop/core/venue/dlend/DLoopCoreDLend.sol:DLoopCoreDLend",
        "label": "_status",
        "offset": 0,
        "slot": "7",
        "type": "t_uint256"
      },
      {
        "astId": 6451,
        "contract": "contracts/vaults/dloop/core/venue/dlend/DLoopCoreDLend.sol:DLoopCoreDLend",
        "label": "lowerBoundTargetLeverageBps",
        "offset": 0,
        "slot": "8",
        "type": "t_uint32"
      },
      {
        "astId": 6453,
        "contract": "contracts/vaults/dloop/core/venue/dlend/DLoopCoreDLend.sol:DLoopCoreDLend",
        "label": "upperBoundTargetLeverageBps",
        "offset": 4,
        "slot": "8",
        "type": "t_uint32"
      },
      {
        "astId": 6455,
        "contract": "contracts/vaults/dloop/core/venue/dlend/DLoopCoreDLend.sol:DLoopCoreDLend",
        "label": "maxSubsidyBps",
        "offset": 0,
        "slot": "9",
        "type": "t_uint256"
      },
      {
        "astId": 12700,
        "contract": "contracts/vaults/dloop/core/venue/dlend/DLoopCoreDLend.sol:DLoopCoreDLend",
        "label": "treasury",
        "offset": 0,
        "slot": "10",
        "type": "t_address"
      },
      {
        "astId": 12702,
        "contract": "contracts/vaults/dloop/core/venue/dlend/DLoopCoreDLend.sol:DLoopCoreDLend",
        "label": "treasuryFeeBps",
        "offset": 0,
        "slot": "11",
        "type": "t_uint256"
      },
      {
        "astId": 12704,
        "contract": "contracts/vaults/dloop/core/venue/dlend/DLoopCoreDLend.sol:DLoopCoreDLend",
        "label": "exchangeThreshold",
        "offset": 0,
        "slot": "12",
        "type": "t_uint256"
      }
    ],
    "types": {
      "t_address": {
        "encoding": "inplace",
        "label": "address",
        "numberOfBytes": "20"
      },
      "t_bool": {
        "encoding": "inplace",
        "label": "bool",
        "numberOfBytes": "1"
      },
      "t_bytes32": {
        "encoding": "inplace",
        "label": "bytes32",
        "numberOfBytes": "32"
      },
      "t_mapping(t_address,t_bool)": {
        "encoding": "mapping",
        "key": "t_address",
        "label": "mapping(address => bool)",
        "numberOfBytes": "32",
        "value": "t_bool"
      },
      "t_mapping(t_address,t_mapping(t_address,t_uint256))": {
        "encoding": "mapping",
        "key": "t_address",
        "label": "mapping(address => mapping(address => uint256))",
        "numberOfBytes": "32",
        "value": "t_mapping(t_address,t_uint256)"
      },
      "t_mapping(t_address,t_uint256)": {
        "encoding": "mapping",
        "key": "t_address",
        "label": "mapping(address => uint256)",
        "numberOfBytes": "32",
        "value": "t_uint256"
      },
      "t_mapping(t_bytes32,t_struct(RoleData)21_storage)": {
        "encoding": "mapping",
        "key": "t_bytes32",
        "label": "mapping(bytes32 => struct AccessControl.RoleData)",
        "numberOfBytes": "32",
        "value": "t_struct(RoleData)21_storage"
      },
      "t_string_storage": {
        "encoding": "bytes",
        "label": "string",
        "numberOfBytes": "32"
      },
      "t_struct(RoleData)21_storage": {
        "encoding": "inplace",
        "label": "struct AccessControl.RoleData",
        "members": [
          {
            "astId": 18,
            "contract": "contracts/vaults/dloop/core/venue/dlend/DLoopCoreDLend.sol:DLoopCoreDLend",
            "label": "hasRole",
            "offset": 0,
            "slot": "0",
            "type": "t_mapping(t_address,t_bool)"
          },
          {
            "astId": 20,
            "contract": "contracts/vaults/dloop/core/venue/dlend/DLoopCoreDLend.sol:DLoopCoreDLend",
            "label": "adminRole",
            "offset": 0,
            "slot": "1",
            "type": "t_bytes32"
          }
        ],
        "numberOfBytes": "64"
      },
      "t_uint256": {
        "encoding": "inplace",
        "label": "uint256",
        "numberOfBytes": "32"
      },
      "t_uint32": {
        "encoding": "inplace",
        "label": "uint32",
        "numberOfBytes": "4"
      }
    }
  }
}