{
  "address": "0x2251f841332EFfD213d3D36607F785244bB6bB0D",
  "abi": [
    {
      "inputs": [
        {
          "internalType": "string",
          "name": "_name",
          "type": "string"
        },
        {
          "internalType": "string",
          "name": "_symbol",
          "type": "string"
        },
        {
          "internalType": "contract ERC20",
          "name": "_collateralToken",
          "type": "address"
        },
        {
          "internalType": "contract ERC20",
          "name": "_debtToken",
          "type": "address"
        },
        {
          "internalType": "contract IPoolAddressesProvider",
          "name": "_lendingPoolAddressesProvider",
          "type": "address"
        },
        {
          "internalType": "uint32",
          "name": "_targetLeverageBps",
          "type": "uint32"
        },
        {
          "internalType": "uint32",
          "name": "_lowerBoundTargetLeverageBps",
          "type": "uint32"
        },
        {
          "internalType": "uint32",
          "name": "_upperBoundTargetLeverageBps",
          "type": "uint32"
        },
        {
          "internalType": "uint256",
          "name": "_maxSubsidyBps",
          "type": "uint256"
        },
        {
          "internalType": "contract IRewardsController",
          "name": "_rewardsController",
          "type": "address"
        },
        {
          "internalType": "address",
          "name": "_dLendAssetToClaimFor",
          "type": "address"
        },
        {
          "internalType": "address",
          "name": "_targetStaticATokenWrapper",
          "type": "address"
        },
        {
          "internalType": "address",
          "name": "_treasury",
          "type": "address"
        },
        {
          "internalType": "uint256",
          "name": "_maxTreasuryFeeBps",
          "type": "uint256"
        },
        {
          "internalType": "uint256",
          "name": "_initialTreasuryFeeBps",
          "type": "uint256"
        },
        {
          "internalType": "uint256",
          "name": "_initialExchangeThreshold",
          "type": "uint256"
        }
      ],
      "stateMutability": "nonpayable",
      "type": "constructor"
    },
    {
      "inputs": [],
      "name": "AccessControlBadConfirmation",
      "type": "error"
    },
    {
      "inputs": [
        {
          "internalType": "address",
          "name": "account",
          "type": "address"
        },
        {
          "internalType": "bytes32",
          "name": "neededRole",
          "type": "bytes32"
        }
      ],
      "name": "AccessControlUnauthorizedAccount",
      "type": "error"
    },
    {
      "inputs": [
        {
          "internalType": "address",
          "name": "asset",
          "type": "address"
        }
      ],
      "name": "AssetPriceIsZero",
      "type": "error"
    },
    {
      "inputs": [
        {
          "internalType": "uint256",
          "name": "totalCollateralBase",
          "type": "uint256"
        },
        {
          "internalType": "uint256",
          "name": "totalDebtBase",
          "type": "uint256"
        }
      ],
      "name": "CollateralLessThanDebt",
      "type": "error"
    },
    {
      "inputs": [
        {
          "internalType": "uint256",
          "name": "newLeverageBps",
          "type": "uint256"
        },
        {
          "internalType": "uint256",
          "name": "targetLeverageBps",
          "type": "uint256"
        },
        {
          "internalType": "uint256",
          "name": "currentLeverageBps",
          "type": "uint256"
        }
      ],
      "name": "DecreaseLeverageOutOfRange",
      "type": "error"
    },
    {
      "inputs": [
        {
          "internalType": "uint256",
          "name": "currentBalance",
          "type": "uint256"
        },
        {
          "internalType": "uint256",
          "name": "newTotalAssets",
          "type": "uint256"
        }
      ],
      "name": "DepositInsufficientToSupply",
      "type": "error"
    },
    {
      "inputs": [
        {
          "internalType": "address",
          "name": "spender",
          "type": "address"
        },
        {
          "internalType": "uint256",
          "name": "allowance",
          "type": "uint256"
        },
        {
          "internalType": "uint256",
          "name": "needed",
          "type": "uint256"
        }
      ],
      "name": "ERC20InsufficientAllowance",
      "type": "error"
    },
    {
      "inputs": [
        {
          "internalType": "address",
          "name": "sender",
          "type": "address"
        },
        {
          "internalType": "uint256",
          "name": "balance",
          "type": "uint256"
        },
        {
          "internalType": "uint256",
          "name": "needed",
          "type": "uint256"
        }
      ],
      "name": "ERC20InsufficientBalance",
      "type": "error"
    },
    {
      "inputs": [
        {
          "internalType": "address",
          "name": "approver",
          "type": "address"
        }
      ],
      "name": "ERC20InvalidApprover",
      "type": "error"
    },
    {
      "inputs": [
        {
          "internalType": "address",
          "name": "receiver",
          "type": "address"
        }
      ],
      "name": "ERC20InvalidReceiver",
      "type": "error"
    },
    {
      "inputs": [
        {
          "internalType": "address",
          "name": "sender",
          "type": "address"
        }
      ],
      "name": "ERC20InvalidSender",
      "type": "error"
    },
    {
      "inputs": [
        {
          "internalType": "address",
          "name": "spender",
          "type": "address"
        }
      ],
      "name": "ERC20InvalidSpender",
      "type": "error"
    },
    {
      "inputs": [
        {
          "internalType": "address",
          "name": "receiver",
          "type": "address"
        },
        {
          "internalType": "uint256",
          "name": "assets",
          "type": "uint256"
        },
        {
          "internalType": "uint256",
          "name": "max",
          "type": "uint256"
        }
      ],
      "name": "ERC4626ExceededMaxDeposit",
      "type": "error"
    },
    {
      "inputs": [
        {
          "internalType": "address",
          "name": "receiver",
          "type": "address"
        },
        {
          "internalType": "uint256",
          "name": "shares",
          "type": "uint256"
        },
        {
          "internalType": "uint256",
          "name": "max",
          "type": "uint256"
        }
      ],
      "name": "ERC4626ExceededMaxMint",
      "type": "error"
    },
    {
      "inputs": [
        {
          "internalType": "address",
          "name": "owner",
          "type": "address"
        },
        {
          "internalType": "uint256",
          "name": "shares",
          "type": "uint256"
        },
        {
          "internalType": "uint256",
          "name": "max",
          "type": "uint256"
        }
      ],
      "name": "ERC4626ExceededMaxRedeem",
      "type": "error"
    },
    {
      "inputs": [
        {
          "internalType": "address",
          "name": "owner",
          "type": "address"
        },
        {
          "internalType": "uint256",
          "name": "assets",
          "type": "uint256"
        },
        {
          "internalType": "uint256",
          "name": "max",
          "type": "uint256"
        }
      ],
      "name": "ERC4626ExceededMaxWithdraw",
      "type": "error"
    },
    {
      "inputs": [
        {
          "internalType": "uint256",
          "name": "amount",
          "type": "uint256"
        },
        {
          "internalType": "uint256",
          "name": "threshold",
          "type": "uint256"
        }
      ],
      "name": "ExchangeAmountTooLow",
      "type": "error"
    },
    {
      "inputs": [
        {
          "internalType": "uint256",
          "name": "newLeverageBps",
          "type": "uint256"
        },
        {
          "internalType": "uint256",
          "name": "targetLeverageBps",
          "type": "uint256"
        },
        {
          "internalType": "uint256",
          "name": "currentLeverageBps",
          "type": "uint256"
        }
      ],
      "name": "IncreaseLeverageOutOfRange",
      "type": "error"
    },
    {
      "inputs": [
        {
          "internalType": "address",
          "name": "owner",
          "type": "address"
        },
        {
          "internalType": "address",
          "name": "spender",
          "type": "address"
        },
        {
          "internalType": "address",
          "name": "debtAsset",
          "type": "address"
        },
        {
          "internalType": "uint256",
          "name": "requiredAllowance",
          "type": "uint256"
        }
      ],
      "name": "InsufficientAllowanceOfDebtAssetToRepay",
      "type": "error"
    },
    {
      "inputs": [
        {
          "internalType": "address",
          "name": "owner",
          "type": "address"
        },
        {
          "internalType": "uint256",
          "name": "sharesToRedeem",
          "type": "uint256"
        },
        {
          "internalType": "uint256",
          "name": "shareBalance",
          "type": "uint256"
        }
      ],
      "name": "InsufficientShareBalanceToRedeem",
      "type": "error"
    },
    {
      "inputs": [
        {
          "internalType": "uint256",
          "name": "leverageBps",
          "type": "uint256"
        }
      ],
      "name": "InvalidLeverage",
      "type": "error"
    },
    {
      "inputs": [
        {
          "internalType": "uint256",
          "name": "lowerBound",
          "type": "uint256"
        },
        {
          "internalType": "uint256",
          "name": "targetLeverage",
          "type": "uint256"
        },
        {
          "internalType": "uint256",
          "name": "upperBound",
          "type": "uint256"
        }
      ],
      "name": "InvalidLeverageBounds",
      "type": "error"
    },
    {
      "inputs": [
        {
          "internalType": "uint256",
          "name": "currentLeverageBps",
          "type": "uint256"
        },
        {
          "internalType": "uint256",
          "name": "targetLeverageBps",
          "type": "uint256"
        }
      ],
      "name": "LeverageBelowTarget",
      "type": "error"
    },
    {
      "inputs": [
        {
          "internalType": "uint256",
          "name": "currentLeverageBps",
          "type": "uint256"
        },
        {
          "internalType": "uint256",
          "name": "targetLeverageBps",
          "type": "uint256"
        }
      ],
      "name": "LeverageExceedsTarget",
      "type": "error"
    },
    {
      "inputs": [
        {
          "internalType": "uint256",
          "name": "maxTreasuryFeeBps",
          "type": "uint256"
        }
      ],
      "name": "MaxTreasuryFeeTooHigh",
      "type": "error"
    },
    {
      "inputs": [
        {
          "internalType": "address",
          "name": "owner",
          "type": "address"
        }
      ],
      "name": "OwnableInvalidOwner",
      "type": "error"
    },
    {
      "inputs": [
        {
          "internalType": "address",
          "name": "account",
          "type": "address"
        }
      ],
      "name": "OwnableUnauthorizedAccount",
      "type": "error"
    },
    {
      "inputs": [
        {
          "internalType": "string",
          "name": "operation",
          "type": "string"
        },
        {
          "internalType": "uint256",
          "name": "receivedAmount",
          "type": "uint256"
        },
        {
          "internalType": "uint256",
          "name": "minReceivedAmount",
          "type": "uint256"
        }
      ],
      "name": "RebalanceReceiveLessThanMinAmount",
      "type": "error"
    },
    {
      "inputs": [],
      "name": "ReentrancyGuardReentrantCall",
      "type": "error"
    },
    {
      "inputs": [
        {
          "internalType": "uint256",
          "name": "claimedAmountsLength",
          "type": "uint256"
        },
        {
          "internalType": "uint256",
          "name": "rewardTokensLength",
          "type": "uint256"
        }
      ],
      "name": "RewardAmountsLengthMismatch",
      "type": "error"
    },
    {
      "inputs": [
        {
          "internalType": "address",
          "name": "token",
          "type": "address"
        }
      ],
      "name": "SafeERC20FailedOperation",
      "type": "error"
    },
    {
      "inputs": [
        {
          "internalType": "address",
          "name": "token",
          "type": "address"
        },
        {
          "internalType": "uint256",
          "name": "tokenBalanceBefore",
          "type": "uint256"
        },
        {
          "internalType": "uint256",
          "name": "tokenBalanceAfter",
          "type": "uint256"
        },
        {
          "internalType": "uint256",
          "name": "expectedTokenBalance",
          "type": "uint256"
        }
      ],
      "name": "TokenBalanceNotDecreasedAfterRepay",
      "type": "error"
    },
    {
      "inputs": [
        {
          "internalType": "address",
          "name": "token",
          "type": "address"
        },
        {
          "internalType": "uint256",
          "name": "tokenBalanceBefore",
          "type": "uint256"
        },
        {
          "internalType": "uint256",
          "name": "tokenBalanceAfter",
          "type": "uint256"
        },
        {
          "internalType": "uint256",
          "name": "expectedTokenBalance",
          "type": "uint256"
        }
      ],
      "name": "TokenBalanceNotDecreasedAfterSupply",
      "type": "error"
    },
    {
      "inputs": [
        {
          "internalType": "address",
          "name": "token",
          "type": "address"
        },
        {
          "internalType": "uint256",
          "name": "tokenBalanceBefore",
          "type": "uint256"
        },
        {
          "internalType": "uint256",
          "name": "tokenBalanceAfter",
          "type": "uint256"
        },
        {
          "internalType": "uint256",
          "name": "expectedTokenBalance",
          "type": "uint256"
        }
      ],
      "name": "TokenBalanceNotIncreasedAfterBorrow",
      "type": "error"
    },
    {
      "inputs": [
        {
          "internalType": "address",
          "name": "token",
          "type": "address"
        },
        {
          "internalType": "uint256",
          "name": "tokenBalanceBefore",
          "type": "uint256"
        },
        {
          "internalType": "uint256",
          "name": "tokenBalanceAfter",
          "type": "uint256"
        },
        {
          "internalType": "uint256",
          "name": "expectedTokenBalance",
          "type": "uint256"
        }
      ],
      "name": "TokenBalanceNotIncreasedAfterWithdraw",
      "type": "error"
    },
    {
      "inputs": [
        {
          "internalType": "uint256",
          "name": "currentLeverageBps",
          "type": "uint256"
        },
        {
          "internalType": "uint256",
          "name": "lowerBoundTargetLeverageBps",
          "type": "uint256"
        },
        {
          "internalType": "uint256",
          "name": "upperBoundTargetLeverageBps",
          "type": "uint256"
        }
      ],
      "name": "TooImbalanced",
      "type": "error"
    },
    {
      "inputs": [
        {
          "internalType": "uint256",
          "name": "totalCollateralBase",
          "type": "uint256"
        },
        {
          "internalType": "uint256",
          "name": "totalDebtBase",
          "type": "uint256"
        }
      ],
      "name": "TotalCollateralBaseIsLessThanTotalDebtBase",
      "type": "error"
    },
    {
      "inputs": [],
      "name": "TotalCollateralBaseIsZero",
      "type": "error"
    },
    {
      "inputs": [
        {
          "internalType": "uint256",
          "name": "treasuryFee",
          "type": "uint256"
        },
        {
          "internalType": "uint256",
          "name": "rewardAmount",
          "type": "uint256"
        }
      ],
      "name": "TreasuryFeeExceedsRewardAmount",
      "type": "error"
    },
    {
      "inputs": [
        {
          "internalType": "uint256",
          "name": "treasuryFeeBps",
          "type": "uint256"
        },
        {
          "internalType": "uint256",
          "name": "maxTreasuryFeeBps",
          "type": "uint256"
        }
      ],
      "name": "TreasuryFeeTooHigh",
      "type": "error"
    },
    {
      "inputs": [
        {
          "internalType": "address",
          "name": "token",
          "type": "address"
        },
        {
          "internalType": "uint256",
          "name": "borrowedAmountBefore",
          "type": "uint256"
        },
        {
          "internalType": "uint256",
          "name": "borrowedAmountAfter",
          "type": "uint256"
        },
        {
          "internalType": "uint256",
          "name": "expectedBorrowedAmount",
          "type": "uint256"
        }
      ],
      "name": "UnexpectedBorrowAmountFromPool",
      "type": "error"
    },
    {
      "inputs": [
        {
          "internalType": "address",
          "name": "token",
          "type": "address"
        },
        {
          "internalType": "uint256",
          "name": "tokenBalanceBefore",
          "type": "uint256"
        },
        {
          "internalType": "uint256",
          "name": "tokenBalanceAfter",
          "type": "uint256"
        },
        {
          "internalType": "uint256",
          "name": "expectedTokenBalance",
          "type": "uint256"
        }
      ],
      "name": "UnexpectedRepayAmountToPool",
      "type": "error"
    },
    {
      "inputs": [
        {
          "internalType": "address",
          "name": "token",
          "type": "address"
        },
        {
          "internalType": "uint256",
          "name": "tokenBalanceBefore",
          "type": "uint256"
        },
        {
          "internalType": "uint256",
          "name": "tokenBalanceAfter",
          "type": "uint256"
        },
        {
          "internalType": "uint256",
          "name": "expectedTokenBalance",
          "type": "uint256"
        }
      ],
      "name": "UnexpectedSupplyAmountToPool",
      "type": "error"
    },
    {
      "inputs": [
        {
          "internalType": "address",
          "name": "token",
          "type": "address"
        },
        {
          "internalType": "uint256",
          "name": "withdrawableAmountBefore",
          "type": "uint256"
        },
        {
          "internalType": "uint256",
          "name": "withdrawableAmountAfter",
          "type": "uint256"
        },
        {
          "internalType": "uint256",
          "name": "expectedWithdrawableAmount",
          "type": "uint256"
        }
      ],
      "name": "UnexpectedWithdrawAmountFromPool",
      "type": "error"
    },
    {
      "inputs": [
        {
          "internalType": "address",
          "name": "token",
          "type": "address"
        },
        {
          "internalType": "uint256",
          "name": "assetToRemoveFromLending",
          "type": "uint256"
        },
        {
          "internalType": "uint256",
          "name": "withdrawableAmount",
          "type": "uint256"
        }
      ],
      "name": "WithdrawableIsLessThanRequired",
      "type": "error"
    },
    {
      "inputs": [],
      "name": "ZeroAddress",
      "type": "error"
    },
    {
      "inputs": [],
      "name": "ZeroExchangeAssetAddress",
      "type": "error"
    },
    {
      "inputs": [],
      "name": "ZeroExchangeThreshold",
      "type": "error"
    },
    {
      "inputs": [],
      "name": "ZeroReceiverAddress",
      "type": "error"
    },
    {
      "inputs": [],
      "name": "ZeroRewardTokens",
      "type": "error"
    },
    {
      "inputs": [],
      "name": "ZeroTreasuryAddress",
      "type": "error"
    },
    {
      "anonymous": false,
      "inputs": [
        {
          "indexed": true,
          "internalType": "address",
          "name": "owner",
          "type": "address"
        },
        {
          "indexed": true,
          "internalType": "address",
          "name": "spender",
          "type": "address"
        },
        {
          "indexed": false,
          "internalType": "uint256",
          "name": "value",
          "type": "uint256"
        }
      ],
      "name": "Approval",
      "type": "event"
    },
    {
      "anonymous": false,
      "inputs": [
        {
          "indexed": true,
          "internalType": "address",
          "name": "sender",
          "type": "address"
        },
        {
          "indexed": true,
          "internalType": "address",
          "name": "owner",
          "type": "address"
        },
        {
          "indexed": false,
          "internalType": "uint256",
          "name": "assets",
          "type": "uint256"
        },
        {
          "indexed": false,
          "internalType": "uint256",
          "name": "shares",
          "type": "uint256"
        }
      ],
      "name": "Deposit",
      "type": "event"
    },
    {
      "anonymous": false,
      "inputs": [
        {
          "indexed": false,
          "internalType": "uint256",
          "name": "oldExchangeThreshold",
          "type": "uint256"
        },
        {
          "indexed": false,
          "internalType": "uint256",
          "name": "newExchangeThreshold",
          "type": "uint256"
        }
      ],
      "name": "ExchangeThresholdUpdated",
      "type": "event"
    },
    {
      "anonymous": false,
      "inputs": [
        {
          "indexed": true,
          "internalType": "address",
          "name": "previousOwner",
          "type": "address"
        },
        {
          "indexed": true,
          "internalType": "address",
          "name": "newOwner",
          "type": "address"
        }
      ],
      "name": "OwnershipTransferred",
      "type": "event"
    },
    {
      "anonymous": false,
      "inputs": [
        {
          "indexed": false,
          "internalType": "address",
          "name": "exchangeAsset",
          "type": "address"
        },
        {
          "indexed": false,
          "internalType": "uint256",
          "name": "amount",
          "type": "uint256"
        },
        {
          "indexed": false,
          "internalType": "address[]",
          "name": "rewardTokens",
          "type": "address[]"
        }
      ],
      "name": "RewardCompounded",
      "type": "event"
    },
    {
      "anonymous": false,
      "inputs": [
        {
          "indexed": true,
          "internalType": "bytes32",
          "name": "role",
          "type": "bytes32"
        },
        {
          "indexed": true,
          "internalType": "bytes32",
          "name": "previousAdminRole",
          "type": "bytes32"
        },
        {
          "indexed": true,
          "internalType": "bytes32",
          "name": "newAdminRole",
          "type": "bytes32"
        }
      ],
      "name": "RoleAdminChanged",
      "type": "event"
    },
    {
      "anonymous": false,
      "inputs": [
        {
          "indexed": true,
          "internalType": "bytes32",
          "name": "role",
          "type": "bytes32"
        },
        {
          "indexed": true,
          "internalType": "address",
          "name": "account",
          "type": "address"
        },
        {
          "indexed": true,
          "internalType": "address",
          "name": "sender",
          "type": "address"
        }
      ],
      "name": "RoleGranted",
      "type": "event"
    },
    {
      "anonymous": false,
      "inputs": [
        {
          "indexed": true,
          "internalType": "bytes32",
          "name": "role",
          "type": "bytes32"
        },
        {
          "indexed": true,
          "internalType": "address",
          "name": "account",
          "type": "address"
        },
        {
          "indexed": true,
          "internalType": "address",
          "name": "sender",
          "type": "address"
        }
      ],
      "name": "RoleRevoked",
      "type": "event"
    },
    {
      "anonymous": false,
      "inputs": [
        {
          "indexed": true,
          "internalType": "address",
          "name": "from",
          "type": "address"
        },
        {
          "indexed": true,
          "internalType": "address",
          "name": "to",
          "type": "address"
        },
        {
          "indexed": false,
          "internalType": "uint256",
          "name": "value",
          "type": "uint256"
        }
      ],
      "name": "Transfer",
      "type": "event"
    },
    {
      "anonymous": false,
      "inputs": [
        {
          "indexed": false,
          "internalType": "uint256",
          "name": "oldTreasuryFeeBps",
          "type": "uint256"
        },
        {
          "indexed": false,
          "internalType": "uint256",
          "name": "newTreasuryFeeBps",
          "type": "uint256"
        }
      ],
      "name": "TreasuryFeeBpsUpdated",
      "type": "event"
    },
    {
      "anonymous": false,
      "inputs": [
        {
          "indexed": false,
          "internalType": "address",
          "name": "oldTreasury",
          "type": "address"
        },
        {
          "indexed": false,
          "internalType": "address",
          "name": "newTreasury",
          "type": "address"
        }
      ],
      "name": "TreasuryUpdated",
      "type": "event"
    },
    {
      "anonymous": false,
      "inputs": [
        {
          "indexed": true,
          "internalType": "address",
          "name": "sender",
          "type": "address"
        },
        {
          "indexed": true,
          "internalType": "address",
          "name": "receiver",
          "type": "address"
        },
        {
          "indexed": true,
          "internalType": "address",
          "name": "owner",
          "type": "address"
        },
        {
          "indexed": false,
          "internalType": "uint256",
          "name": "assets",
          "type": "uint256"
        },
        {
          "indexed": false,
          "internalType": "uint256",
          "name": "shares",
          "type": "uint256"
        }
      ],
      "name": "Withdraw",
      "type": "event"
    },
    {
      "inputs": [],
      "name": "AAVE_PRICE_ORACLE_DECIMALS",
      "outputs": [
        {
          "internalType": "uint8",
          "name": "",
          "type": "uint8"
        }
      ],
      "stateMutability": "view",
      "type": "function"
    },
    {
      "inputs": [],
      "name": "DEFAULT_ADMIN_ROLE",
      "outputs": [
        {
          "internalType": "bytes32",
          "name": "",
          "type": "bytes32"
        }
      ],
      "stateMutability": "view",
      "type": "function"
    },
    {
      "inputs": [],
      "name": "PERCENTAGE_FACTOR",
      "outputs": [
        {
          "internalType": "uint256",
          "name": "",
          "type": "uint256"
        }
      ],
      "stateMutability": "view",
      "type": "function"
    },
    {
      "inputs": [],
      "name": "REWARDS_MANAGER_ROLE",
      "outputs": [
        {
          "internalType": "bytes32",
          "name": "",
          "type": "bytes32"
        }
      ],
      "stateMutability": "view",
      "type": "function"
    },
    {
      "inputs": [],
      "name": "VARIABLE_LENDING_INTERST_RATE_MODE",
      "outputs": [
        {
          "internalType": "uint256",
          "name": "",
          "type": "uint256"
        }
      ],
      "stateMutability": "view",
      "type": "function"
    },
    {
      "inputs": [
        {
          "internalType": "address",
          "name": "owner",
          "type": "address"
        },
        {
          "internalType": "address",
          "name": "spender",
          "type": "address"
        }
      ],
      "name": "allowance",
      "outputs": [
        {
          "internalType": "uint256",
          "name": "",
          "type": "uint256"
        }
      ],
      "stateMutability": "view",
      "type": "function"
    },
    {
      "inputs": [
        {
          "internalType": "address",
          "name": "spender",
          "type": "address"
        },
        {
          "internalType": "uint256",
          "name": "value",
          "type": "uint256"
        }
      ],
      "name": "approve",
      "outputs": [
        {
          "internalType": "bool",
          "name": "",
          "type": "bool"
        }
      ],
      "stateMutability": "nonpayable",
      "type": "function"
    },
    {
      "inputs": [],
      "name": "asset",
      "outputs": [
        {
          "internalType": "address",
          "name": "",
          "type": "address"
        }
      ],
      "stateMutability": "view",
      "type": "function"
    },
    {
      "inputs": [
        {
          "internalType": "address",
          "name": "account",
          "type": "address"
        }
      ],
      "name": "balanceOf",
      "outputs": [
        {
          "internalType": "uint256",
          "name": "",
          "type": "uint256"
        }
      ],
      "stateMutability": "view",
      "type": "function"
    },
    {
      "inputs": [],
      "name": "collateralToken",
      "outputs": [
        {
          "internalType": "contract ERC20",
          "name": "",
          "type": "address"
        }
      ],
      "stateMutability": "view",
      "type": "function"
    },
    {
      "inputs": [
        {
          "internalType": "uint256",
          "name": "amount",
          "type": "uint256"
        },
        {
          "internalType": "address[]",
          "name": "rewardTokens",
          "type": "address[]"
        },
        {
          "internalType": "address",
          "name": "receiver",
          "type": "address"
        }
      ],
      "name": "compoundRewards",
      "outputs": [],
      "stateMutability": "nonpayable",
      "type": "function"
    },
    {
      "inputs": [
        {
          "internalType": "uint256",
          "name": "amountInBase",
          "type": "uint256"
        },
        {
          "internalType": "address",
          "name": "token",
          "type": "address"
        }
      ],
      "name": "convertFromBaseCurrencyToToken",
      "outputs": [
        {
          "internalType": "uint256",
          "name": "",
          "type": "uint256"
        }
      ],
      "stateMutability": "view",
      "type": "function"
    },
    {
      "inputs": [
        {
          "internalType": "uint256",
          "name": "amountInToken",
          "type": "uint256"
        },
        {
          "internalType": "address",
          "name": "token",
          "type": "address"
        }
      ],
      "name": "convertFromTokenAmountToBaseCurrency",
      "outputs": [
        {
          "internalType": "uint256",
          "name": "",
          "type": "uint256"
        }
      ],
      "stateMutability": "view",
      "type": "function"
    },
    {
      "inputs": [
        {
          "internalType": "uint256",
          "name": "shares",
          "type": "uint256"
        }
      ],
      "name": "convertToAssets",
      "outputs": [
        {
          "internalType": "uint256",
          "name": "",
          "type": "uint256"
        }
      ],
      "stateMutability": "view",
      "type": "function"
    },
    {
      "inputs": [
        {
          "internalType": "uint256",
          "name": "assets",
          "type": "uint256"
        }
      ],
      "name": "convertToShares",
      "outputs": [
        {
          "internalType": "uint256",
          "name": "",
          "type": "uint256"
        }
      ],
      "stateMutability": "view",
      "type": "function"
    },
    {
      "inputs": [],
      "name": "dLendAssetToClaimFor",
      "outputs": [
        {
          "internalType": "address",
          "name": "",
          "type": "address"
        }
      ],
      "stateMutability": "view",
      "type": "function"
    },
    {
      "inputs": [],
      "name": "dLendRewardsController",
      "outputs": [
        {
          "internalType": "contract IRewardsController",
          "name": "",
          "type": "address"
        }
      ],
      "stateMutability": "view",
      "type": "function"
    },
    {
      "inputs": [],
      "name": "debtToken",
      "outputs": [
        {
          "internalType": "contract ERC20",
          "name": "",
          "type": "address"
        }
      ],
      "stateMutability": "view",
      "type": "function"
    },
    {
      "inputs": [],
      "name": "decimals",
      "outputs": [
        {
          "internalType": "uint8",
          "name": "",
          "type": "uint8"
        }
      ],
      "stateMutability": "view",
      "type": "function"
    },
    {
      "inputs": [
        {
          "internalType": "uint256",
          "name": "additionalDebtTokenAmount",
          "type": "uint256"
        },
        {
          "internalType": "uint256",
          "name": "minReceivedAmount",
          "type": "uint256"
        }
      ],
      "name": "decreaseLeverage",
      "outputs": [],
      "stateMutability": "nonpayable",
      "type": "function"
    },
    {
      "inputs": [
        {
          "internalType": "uint256",
          "name": "assets",
          "type": "uint256"
        },
        {
          "internalType": "address",
          "name": "receiver",
          "type": "address"
        }
      ],
      "name": "deposit",
      "outputs": [
        {
          "internalType": "uint256",
          "name": "",
          "type": "uint256"
        }
      ],
      "stateMutability": "nonpayable",
      "type": "function"
    },
    {
      "inputs": [],
      "name": "exchangeAsset",
      "outputs": [
        {
          "internalType": "address",
          "name": "",
          "type": "address"
        }
      ],
      "stateMutability": "view",
      "type": "function"
    },
    {
      "inputs": [],
      "name": "exchangeThreshold",
      "outputs": [
        {
          "internalType": "uint256",
          "name": "",
          "type": "uint256"
        }
      ],
      "stateMutability": "view",
      "type": "function"
    },
    {
      "inputs": [
        {
          "internalType": "bool",
          "name": "useVaultTokenBalance",
          "type": "bool"
        }
      ],
      "name": "getAmountToReachTargetLeverage",
      "outputs": [
        {
          "internalType": "uint256",
          "name": "tokenAmount",
          "type": "uint256"
        },
        {
          "internalType": "int8",
          "name": "direction",
          "type": "int8"
        }
      ],
      "stateMutability": "view",
      "type": "function"
    },
    {
      "inputs": [
        {
          "internalType": "address",
          "name": "asset",
          "type": "address"
        }
      ],
      "name": "getAssetPriceFromOracle",
      "outputs": [
        {
          "internalType": "uint256",
          "name": "",
          "type": "uint256"
        }
      ],
      "stateMutability": "view",
      "type": "function"
    },
    {
      "inputs": [
        {
          "internalType": "address",
          "name": "collateralAsset",
          "type": "address"
        },
        {
          "internalType": "address",
          "name": "debtAsset",
          "type": "address"
        },
        {
          "internalType": "uint256",
          "name": "suppliedCollateralAmount",
          "type": "uint256"
        },
        {
          "internalType": "uint256",
          "name": "leverageBpsBeforeSupply",
          "type": "uint256"
        }
      ],
      "name": "getBorrowAmountThatKeepCurrentLeverage",
      "outputs": [
        {
          "internalType": "uint256",
          "name": "expectedBorrowAmount",
          "type": "uint256"
        }
      ],
      "stateMutability": "view",
      "type": "function"
    },
    {
      "inputs": [],
      "name": "getCollateralTokenAddress",
      "outputs": [
        {
          "internalType": "address",
          "name": "",
          "type": "address"
        }
      ],
      "stateMutability": "view",
      "type": "function"
    },
    {
      "inputs": [],
      "name": "getCurrentLeverageBps",
      "outputs": [
        {
          "internalType": "uint256",
          "name": "",
          "type": "uint256"
        }
      ],
      "stateMutability": "view",
      "type": "function"
    },
    {
      "inputs": [],
      "name": "getCurrentSubsidyBps",
      "outputs": [
        {
          "internalType": "uint256",
          "name": "",
          "type": "uint256"
        }
      ],
      "stateMutability": "view",
      "type": "function"
    },
    {
      "inputs": [
        {
          "internalType": "address",
          "name": "tokenAddress",
          "type": "address"
        }
      ],
      "name": "getDTokenBalance",
      "outputs": [
        {
          "internalType": "uint256",
          "name": "",
          "type": "uint256"
        }
      ],
      "stateMutability": "view",
      "type": "function"
    },
    {
      "inputs": [],
      "name": "getDebtTokenAddress",
      "outputs": [
        {
          "internalType": "address",
          "name": "",
          "type": "address"
        }
      ],
      "stateMutability": "view",
      "type": "function"
    },
    {
      "inputs": [],
      "name": "getDefaultMaxSubsidyBps",
      "outputs": [
        {
          "internalType": "uint256",
          "name": "",
          "type": "uint256"
        }
      ],
      "stateMutability": "view",
      "type": "function"
    },
    {
      "inputs": [],
      "name": "getLendingOracle",
      "outputs": [
        {
          "internalType": "contract IPriceOracleGetter",
          "name": "",
          "type": "address"
        }
      ],
      "stateMutability": "view",
      "type": "function"
    },
    {
      "inputs": [],
      "name": "getLendingPool",
      "outputs": [
        {
          "internalType": "contract IPool",
          "name": "",
          "type": "address"
        }
      ],
      "stateMutability": "view",
      "type": "function"
    },
    {
      "inputs": [],
      "name": "getLendingPoolAddress",
      "outputs": [
        {
          "internalType": "address",
          "name": "",
          "type": "address"
        }
      ],
      "stateMutability": "view",
      "type": "function"
    },
    {
      "inputs": [
        {
          "internalType": "uint256",
          "name": "assets",
          "type": "uint256"
        }
      ],
      "name": "getLeveragedAssets",
      "outputs": [
        {
          "internalType": "uint256",
          "name": "",
          "type": "uint256"
        }
      ],
      "stateMutability": "view",
      "type": "function"
    },
    {
      "inputs": [],
      "name": "getOracleAddress",
      "outputs": [
        {
          "internalType": "address",
          "name": "",
          "type": "address"
        }
      ],
      "stateMutability": "view",
      "type": "function"
    },
    {
      "inputs": [
        {
          "internalType": "address",
          "name": "collateralAsset",
          "type": "address"
        },
        {
          "internalType": "address",
          "name": "debtAsset",
          "type": "address"
        },
        {
          "internalType": "uint256",
          "name": "targetWithdrawAmount",
          "type": "uint256"
        },
        {
          "internalType": "uint256",
          "name": "leverageBpsBeforeRepayDebt",
          "type": "uint256"
        }
      ],
      "name": "getRepayAmountThatKeepCurrentLeverage",
      "outputs": [
        {
          "internalType": "uint256",
          "name": "repayAmount",
          "type": "uint256"
        }
      ],
      "stateMutability": "view",
      "type": "function"
    },
    {
      "inputs": [],
      "name": "getRestrictedRescueTokens",
      "outputs": [
        {
          "internalType": "address[]",
          "name": "",
          "type": "address[]"
        }
      ],
      "stateMutability": "view",
      "type": "function"
    },
    {
      "inputs": [
        {
          "internalType": "bytes32",
          "name": "role",
          "type": "bytes32"
        }
      ],
      "name": "getRoleAdmin",
      "outputs": [
        {
          "internalType": "bytes32",
          "name": "",
          "type": "bytes32"
        }
      ],
      "stateMutability": "view",
      "type": "function"
    },
    {
      "inputs": [
        {
          "internalType": "address",
          "name": "user",
          "type": "address"
        }
      ],
      "name": "getTotalCollateralAndDebtOfUserInBase",
      "outputs": [
        {
          "internalType": "uint256",
          "name": "totalCollateralBase",
          "type": "uint256"
        },
        {
          "internalType": "uint256",
          "name": "totalDebtBase",
          "type": "uint256"
        }
      ],
      "stateMutability": "view",
      "type": "function"
    },
    {
      "inputs": [
        {
          "internalType": "uint256",
          "name": "amount",
          "type": "uint256"
        }
      ],
      "name": "getTreasuryFee",
      "outputs": [
        {
          "internalType": "uint256",
          "name": "",
          "type": "uint256"
        }
      ],
      "stateMutability": "view",
      "type": "function"
    },
    {
      "inputs": [
        {
          "internalType": "uint256",
          "name": "leveragedAssets",
          "type": "uint256"
        }
      ],
      "name": "getUnleveragedAssets",
      "outputs": [
        {
          "internalType": "uint256",
          "name": "",
          "type": "uint256"
        }
      ],
      "stateMutability": "view",
      "type": "function"
    },
    {
      "inputs": [
        {
          "internalType": "bytes32",
          "name": "role",
          "type": "bytes32"
        },
        {
          "internalType": "address",
          "name": "account",
          "type": "address"
        }
      ],
      "name": "grantRole",
      "outputs": [],
      "stateMutability": "nonpayable",
      "type": "function"
    },
    {
      "inputs": [
        {
          "internalType": "bytes32",
          "name": "role",
          "type": "bytes32"
        },
        {
          "internalType": "address",
          "name": "account",
          "type": "address"
        }
      ],
      "name": "hasRole",
      "outputs": [
        {
          "internalType": "bool",
          "name": "",
          "type": "bool"
        }
      ],
      "stateMutability": "view",
      "type": "function"
    },
    {
      "inputs": [
        {
          "internalType": "uint256",
          "name": "additionalCollateralTokenAmount",
          "type": "uint256"
        },
        {
          "internalType": "uint256",
          "name": "minReceivedDebtTokenAmount",
          "type": "uint256"
        }
      ],
      "name": "increaseLeverage",
      "outputs": [],
      "stateMutability": "nonpayable",
      "type": "function"
    },
    {
      "inputs": [],
      "name": "isTooImbalanced",
      "outputs": [
        {
          "internalType": "bool",
          "name": "",
          "type": "bool"
        }
      ],
      "stateMutability": "view",
      "type": "function"
    },
    {
      "inputs": [],
      "name": "lendingPoolAddressesProvider",
      "outputs": [
        {
          "internalType": "contract IPoolAddressesProvider",
          "name": "",
          "type": "address"
        }
      ],
      "stateMutability": "view",
      "type": "function"
    },
    {
      "inputs": [],
      "name": "lowerBoundTargetLeverageBps",
      "outputs": [
        {
          "internalType": "uint32",
          "name": "",
          "type": "uint32"
        }
      ],
      "stateMutability": "view",
      "type": "function"
    },
    {
      "inputs": [
        {
          "internalType": "address",
          "name": "_user",
          "type": "address"
        }
      ],
      "name": "maxDeposit",
      "outputs": [
        {
          "internalType": "uint256",
          "name": "",
          "type": "uint256"
        }
      ],
      "stateMutability": "view",
      "type": "function"
    },
    {
      "inputs": [
        {
          "internalType": "address",
          "name": "_user",
          "type": "address"
        }
      ],
      "name": "maxMint",
      "outputs": [
        {
          "internalType": "uint256",
          "name": "",
          "type": "uint256"
        }
      ],
      "stateMutability": "view",
      "type": "function"
    },
    {
      "inputs": [
        {
          "internalType": "address",
          "name": "_user",
          "type": "address"
        }
      ],
      "name": "maxRedeem",
      "outputs": [
        {
          "internalType": "uint256",
          "name": "",
          "type": "uint256"
        }
      ],
      "stateMutability": "view",
      "type": "function"
    },
    {
      "inputs": [],
      "name": "maxSubsidyBps",
      "outputs": [
        {
          "internalType": "uint256",
          "name": "",
          "type": "uint256"
        }
      ],
      "stateMutability": "view",
      "type": "function"
    },
    {
      "inputs": [],
      "name": "maxTreasuryFeeBps",
      "outputs": [
        {
          "internalType": "uint256",
          "name": "",
          "type": "uint256"
        }
      ],
      "stateMutability": "view",
      "type": "function"
    },
    {
      "inputs": [
        {
          "internalType": "address",
          "name": "_user",
          "type": "address"
        }
      ],
      "name": "maxWithdraw",
      "outputs": [
        {
          "internalType": "uint256",
          "name": "",
          "type": "uint256"
        }
      ],
      "stateMutability": "view",
      "type": "function"
    },
    {
      "inputs": [
        {
          "internalType": "uint256",
          "name": "shares",
          "type": "uint256"
        },
        {
          "internalType": "address",
          "name": "receiver",
          "type": "address"
        }
      ],
      "name": "mint",
      "outputs": [
        {
          "internalType": "uint256",
          "name": "",
          "type": "uint256"
        }
      ],
      "stateMutability": "nonpayable",
      "type": "function"
    },
    {
      "inputs": [],
      "name": "name",
      "outputs": [
        {
          "internalType": "string",
          "name": "",
          "type": "string"
        }
      ],
      "stateMutability": "view",
      "type": "function"
    },
    {
      "inputs": [],
      "name": "owner",
      "outputs": [
        {
          "internalType": "address",
          "name": "",
          "type": "address"
        }
      ],
      "stateMutability": "view",
      "type": "function"
    },
    {
      "inputs": [
        {
          "internalType": "uint256",
          "name": "assets",
          "type": "uint256"
        }
      ],
      "name": "previewDeposit",
      "outputs": [
        {
          "internalType": "uint256",
          "name": "",
          "type": "uint256"
        }
      ],
      "stateMutability": "view",
      "type": "function"
    },
    {
      "inputs": [
        {
          "internalType": "uint256",
          "name": "shares",
          "type": "uint256"
        }
      ],
      "name": "previewMint",
      "outputs": [
        {
          "internalType": "uint256",
          "name": "",
          "type": "uint256"
        }
      ],
      "stateMutability": "view",
      "type": "function"
    },
    {
      "inputs": [
        {
          "internalType": "uint256",
          "name": "shares",
          "type": "uint256"
        }
      ],
      "name": "previewRedeem",
      "outputs": [
        {
          "internalType": "uint256",
          "name": "",
          "type": "uint256"
        }
      ],
      "stateMutability": "view",
      "type": "function"
    },
    {
      "inputs": [
        {
          "internalType": "uint256",
          "name": "assets",
          "type": "uint256"
        }
      ],
      "name": "previewWithdraw",
      "outputs": [
        {
          "internalType": "uint256",
          "name": "",
          "type": "uint256"
        }
      ],
      "stateMutability": "view",
      "type": "function"
    },
    {
      "inputs": [
        {
          "internalType": "uint256",
          "name": "shares",
          "type": "uint256"
        },
        {
          "internalType": "address",
          "name": "receiver",
          "type": "address"
        },
        {
          "internalType": "address",
          "name": "owner",
          "type": "address"
        }
      ],
      "name": "redeem",
      "outputs": [
        {
          "internalType": "uint256",
          "name": "",
          "type": "uint256"
        }
      ],
      "stateMutability": "nonpayable",
      "type": "function"
    },
    {
      "inputs": [],
      "name": "renounceOwnership",
      "outputs": [],
      "stateMutability": "nonpayable",
      "type": "function"
    },
    {
      "inputs": [
        {
          "internalType": "bytes32",
          "name": "role",
          "type": "bytes32"
        },
        {
          "internalType": "address",
          "name": "callerConfirmation",
          "type": "address"
        }
      ],
      "name": "renounceRole",
      "outputs": [],
      "stateMutability": "nonpayable",
      "type": "function"
    },
    {
      "inputs": [
        {
          "internalType": "address",
          "name": "token",
          "type": "address"
        },
        {
          "internalType": "address",
          "name": "receiver",
          "type": "address"
        },
        {
          "internalType": "uint256",
          "name": "amount",
          "type": "uint256"
        }
      ],
      "name": "rescueToken",
      "outputs": [],
      "stateMutability": "nonpayable",
      "type": "function"
    },
    {
      "inputs": [
        {
          "internalType": "bytes32",
          "name": "role",
          "type": "bytes32"
        },
        {
          "internalType": "address",
          "name": "account",
          "type": "address"
        }
      ],
      "name": "revokeRole",
      "outputs": [],
      "stateMutability": "nonpayable",
      "type": "function"
    },
    {
      "inputs": [
        {
          "internalType": "uint256",
          "name": "newExchangeThreshold",
          "type": "uint256"
        }
      ],
      "name": "setExchangeThreshold",
      "outputs": [],
      "stateMutability": "nonpayable",
      "type": "function"
    },
    {
      "inputs": [
        {
          "internalType": "uint32",
          "name": "_lowerBoundTargetLeverageBps",
          "type": "uint32"
        },
        {
          "internalType": "uint32",
          "name": "_upperBoundTargetLeverageBps",
          "type": "uint32"
        }
      ],
      "name": "setLeverageBounds",
      "outputs": [],
      "stateMutability": "nonpayable",
      "type": "function"
    },
    {
      "inputs": [
        {
          "internalType": "uint256",
          "name": "_maxSubsidyBps",
          "type": "uint256"
        }
      ],
      "name": "setMaxSubsidyBps",
      "outputs": [],
      "stateMutability": "nonpayable",
      "type": "function"
    },
    {
      "inputs": [
        {
          "internalType": "address",
          "name": "newTreasury",
          "type": "address"
        }
      ],
      "name": "setTreasury",
      "outputs": [],
      "stateMutability": "nonpayable",
      "type": "function"
    },
    {
      "inputs": [
        {
          "internalType": "uint256",
          "name": "newTreasuryFeeBps",
          "type": "uint256"
        }
      ],
      "name": "setTreasuryFeeBps",
      "outputs": [],
      "stateMutability": "nonpayable",
      "type": "function"
    },
    {
      "inputs": [
        {
          "internalType": "bytes4",
          "name": "interfaceId",
          "type": "bytes4"
        }
      ],
      "name": "supportsInterface",
      "outputs": [
        {
          "internalType": "bool",
          "name": "",
          "type": "bool"
        }
      ],
      "stateMutability": "view",
      "type": "function"
    },
    {
      "inputs": [],
      "name": "symbol",
      "outputs": [
        {
          "internalType": "string",
          "name": "",
          "type": "string"
        }
      ],
      "stateMutability": "view",
      "type": "function"
    },
    {
      "inputs": [],
      "name": "targetLeverageBps",
      "outputs": [
        {
          "internalType": "uint32",
          "name": "",
          "type": "uint32"
        }
      ],
      "stateMutability": "view",
      "type": "function"
    },
    {
      "inputs": [],
      "name": "targetStaticATokenWrapper",
      "outputs": [
        {
          "internalType": "address",
          "name": "",
          "type": "address"
        }
      ],
      "stateMutability": "view",
      "type": "function"
    },
    {
      "inputs": [],
      "name": "totalAssets",
      "outputs": [
        {
          "internalType": "uint256",
          "name": "",
          "type": "uint256"
        }
      ],
      "stateMutability": "view",
      "type": "function"
    },
    {
      "inputs": [],
      "name": "totalSupply",
      "outputs": [
        {
          "internalType": "uint256",
          "name": "",
          "type": "uint256"
        }
      ],
      "stateMutability": "view",
      "type": "function"
    },
    {
      "inputs": [
        {
          "internalType": "address",
          "name": "to",
          "type": "address"
        },
        {
          "internalType": "uint256",
          "name": "value",
          "type": "uint256"
        }
      ],
      "name": "transfer",
      "outputs": [
        {
          "internalType": "bool",
          "name": "",
          "type": "bool"
        }
      ],
      "stateMutability": "nonpayable",
      "type": "function"
    },
    {
      "inputs": [
        {
          "internalType": "address",
          "name": "from",
          "type": "address"
        },
        {
          "internalType": "address",
          "name": "to",
          "type": "address"
        },
        {
          "internalType": "uint256",
          "name": "value",
          "type": "uint256"
        }
      ],
      "name": "transferFrom",
      "outputs": [
        {
          "internalType": "bool",
          "name": "",
          "type": "bool"
        }
      ],
      "stateMutability": "nonpayable",
      "type": "function"
    },
    {
      "inputs": [
        {
          "internalType": "address",
          "name": "newOwner",
          "type": "address"
        }
      ],
      "name": "transferOwnership",
      "outputs": [],
      "stateMutability": "nonpayable",
      "type": "function"
    },
    {
      "inputs": [],
      "name": "treasury",
      "outputs": [
        {
          "internalType": "address",
          "name": "",
          "type": "address"
        }
      ],
      "stateMutability": "view",
      "type": "function"
    },
    {
      "inputs": [],
      "name": "treasuryFeeBps",
      "outputs": [
        {
          "internalType": "uint256",
          "name": "",
          "type": "uint256"
        }
      ],
      "stateMutability": "view",
      "type": "function"
    },
    {
      "inputs": [],
      "name": "upperBoundTargetLeverageBps",
      "outputs": [
        {
          "internalType": "uint32",
          "name": "",
          "type": "uint32"
        }
      ],
      "stateMutability": "view",
      "type": "function"
    },
    {
      "inputs": [
        {
          "internalType": "uint256",
          "name": "assets",
          "type": "uint256"
        },
        {
          "internalType": "address",
          "name": "receiver",
          "type": "address"
        },
        {
          "internalType": "address",
          "name": "owner",
          "type": "address"
        }
      ],
      "name": "withdraw",
      "outputs": [
        {
          "internalType": "uint256",
          "name": "",
          "type": "uint256"
        }
      ],
      "stateMutability": "nonpayable",
      "type": "function"
    }
  ],
  "transactionHash": "0x3162048dbb34a44c72046545158e9ed0799935f0b8abeabd4532641f41a553b0",
  "args": [
    "Leveraged sFRAX-dUSD Vault",
    "FRAX-dUSD-3x",
    "0x7123fe8EED4d657EE398484BD821283ad63F5CA2",
    "0x6D4599221A36C6eBD9BBF0c087e81bBcd76F6bEF",
    "0x7388c76F5EF76eeD84B456DD15f051eaC4dE370B",
    3000000,
    2000000,
    4000000,
    20000,
    "0x9faA9ad40dF566Fbfa9aA7F685d24697D389Faf6",
    "0x1723F63bcAf071Bc02806AB7Aab5e5fB96711581",
    "0x0000000000000000000000000000000000000000",
    "0xd2f775Ff2cD41bfe43C7A8c016eD10393553fe44",
    "1000",
    "500",
    "100"
  ],
  "numDeployments": 1,
  "solcInputHash": "9caaa9c1cca91e83209a10bdb9bb0c8a",
  "bytecode": "0x6101e06040523462000b07576200584b803803809162000022826101e062000b0c565b6101e0396101e0016102006101e082031262000b07576101e0516001600160401b03811162000b0757816200005b916101e00162000b4c565b6102005190916001600160401b03821162000b07576200007f916101e00162000b4c565b6200008c61022062000bb6565b916200009a61024062000bb6565b6102605190916001600160a01b038216820362000b0757620000be61028062000bcb565b93620000cc6102a062000bcb565b94620000da6102c062000bcb565b6102e0516103005191989196906001600160a01b038816880362000b07576200010561032062000bb6565b986200011361034062000bb6565b9a6200012161036062000bb6565b610380516103a0516103c0518b51909b919a929993989392916001600160401b038211620009d95760035490600182811c9216801562000afc575b6020831014620009b85781601f84931162000a8a575b50602090601f8311600114620009fb57600092620009ef575b50508160011b916000199060031b1c1916176003555b8051906001600160401b038211620009d95760045490600182811c92168015620009ce575b6020831014620009b85781601f84931162000946575b50602090601f8311600114620008b757600092620008ab575b50508160011b916000199060031b1c1916176004555b6200021f6001600160a01b03831662000d01565b9015620008a2575b60a0526001600160a01b0382166080523315620008895760058054336001600160a01b0319821681179092556001600160a01b03167f8be0079c531659141344cd1fd0a4f28419497f9722a3daafe3b4186f6b6457e0600080a3600160075585610100528160e05263ffffffff91828216620f424081106200081e57808487161080159062000811575b620007e95750620002cb906001600160a01b031662000dc7565b156200079957620002e56001600160a01b03871662000dc7565b15620007545760c052600880546001600160401b031916919093161760209190911b67ffffffff00000000161790556009556001600160a01b0381161562000742576001600160a01b038216156200073057620f424083116200071757828411620006f9578415620006e7576001600160a01b0390811661012052600a80546001600160a01b0319169290911691909117905561014052600b55600c556200038d3362000bdd565b50620003993362000c5e565b5061016052610180526101a0526101c052600460206001600160a01b03620003c062000e97565b166040519283809262e19f4760e81b82525afa9081156200064a57600091620006a6575b506001600160a01b03166200065657600460206001600160a01b036200040962000e97565b1660405192838092638c89b64f60e01b82525afa9081156200064a576000916200060a575b506305f5e10003620005c557604051614915908162000f16823960805181612085015260a051816121ac015260c051818181610864015281816111fd015281816114120152818161146901528181611ad9015281816122790152818161240301528181613e0e015261429f015260e05181818161099d01528181610c3901528181610deb015281816110c90152818161155d01528181611771015281816124750152818161259d015281816128a90152818161324701528181613ece0152818161405201526141080152610100518181816103d9015281816109c401528181610c600152818161114d015281816114db0152818161162a015281816117f5015281816124d70152818161332201528181613ff10152818161416301526141e101526101205181818161199a01528181611b890152611ceb0152610140518181816113d201526121190152610160518181816108e701528181614584015261460f015261018051818181610ea10152611ead01526101a051818181611c8c01526123a101526101c051818181610e5c0152611e6f0152f35b60405162461bcd60e51b815260206004820152601960248201527f496e76616c6964207072696365206f7261636c6520756e6974000000000000006044820152606490fd5b6020813d60201162000641575b81620006266020938362000b0c565b810103126200063d575190506305f5e1006200042e565b5080fd5b3d915062000617565b6040513d6000823e3d90fd5b60405162461bcd60e51b815260206004820152602260248201527f496e76616c6964207072696365206f7261636c6520626173652063757272656e604482015261637960f01b6064820152608490fd5b6020813d602011620006de575b81620006c26020938362000b0c565b810103126200063d57620006d7915062000bb6565b38620003e4565b3d9150620006b3565b6040516354a62ce560e01b8152600490fd5b6044848460405191636cef961f60e11b835260048301526024820152fd5b60405163a7519f3f60e01b815260048101849052602490fd5b6040516351dc806d60e11b8152600490fd5b604051631810b12760e21b8152600490fd5b60405162461bcd60e51b815260206004820152601c60248201527f4465627420746f6b656e206d75737420626520616e204552432d3230000000006044820152606490fd5b60405162461bcd60e51b815260206004820152602260248201527f436f6c6c61746572616c20746f6b656e206d75737420626520616e204552432d604482015261032360f41b6064820152608490fd5b858486606493826040519463b857eea760e01b86521660048501526024840152166044820152fd5b50838516811015620002b1565b60405162461bcd60e51b815260206004820152603560248201527f546172676574206c65766572616765206d757374206265206174206c6561737460448201527f203130302520696e20626173697320706f696e747300000000000000000000006064820152608490fd5b604051631e4fbdf760e01b815260006004820152602490fd5b50601262000227565b015190503880620001f5565b6004600090815293507f8a35acfbc15ff81a39ae7d344fd709f28e8600b4aa8c65c6b64bfe7fe36bd19b91905b601f19841685106200092a576001945083601f1981161062000910575b505050811b016004556200020b565b015160001960f88460031b161c1916905538808062000901565b81810151835560209485019460019093019290910190620008e4565b60046000529091507f8a35acfbc15ff81a39ae7d344fd709f28e8600b4aa8c65c6b64bfe7fe36bd19b601f840160051c810160208510620009b0575b90849392915b601f830160051c82018110620009a0575050620001dc565b6000815585945060010162000988565b508062000982565b634e487b7160e01b600052602260045260246000fd5b91607f1691620001c6565b634e487b7160e01b600052604160045260246000fd5b0151905038806200018b565b6003600090815293507fc2575a0e9e593c00f959f8c92f12db2869c3395a3b0502d05e2516446f71f85b91905b601f198416851062000a6e576001945083601f1981161062000a54575b505050811b01600355620001a1565b015160001960f88460031b161c1916905538808062000a45565b8181015183556020948501946001909301929091019062000a28565b60036000529091507fc2575a0e9e593c00f959f8c92f12db2869c3395a3b0502d05e2516446f71f85b601f840160051c81016020851062000af4575b90849392915b601f830160051c8201811062000ae457505062000172565b6000815585945060010162000acc565b508062000ac6565b91607f16916200015c565b600080fd5b601f909101601f19168101906001600160401b03821190821017620009d957604052565b6001600160401b038111620009d957601f01601f191660200190565b919080601f8401121562000b075782519062000b688262000b30565b9162000b78604051938462000b0c565b80835260209182828701011162000b075760005b81811062000ba257508260009394955001015290565b858101830151848201840152820162000b8c565b51906001600160a01b038216820362000b0757565b519063ffffffff8216820362000b0757565b6001600160a01b031660008181527f54cdd369e4e8a8515e52ca72ec816c2101831ad1f18bf44102ed171459c9b4f8602052604081205490919060ff1662000c5a5781805260066020526040822081835260205260408220600160ff1982541617905533916000805160206200582b8339815191528180a4600190565b5090565b6001600160a01b031660008181527ffe34ed5485dc9fe44fe8269f3027eee2e0a6e4cc4be0ba8f7d037ae76cfa28d360205260408120549091907f51785d261c3b3e8c2cfe2d0e108b9ab2b1fb703ff9e9e49aba4ebdc85c36152b9060ff1662000cfc5780835260066020526040832082845260205260408320600160ff198254161790556000805160206200582b833981519152339380a4600190565b505090565b6040805163313ce56760e01b60208201908152600482529293929181016001600160401b03811182821017620009d9576040525160009384928392916001600160a01b03165afa3d1562000dbe573d9062000d5c8262000b30565b9162000d6c604051938462000b0c565b82523d84602084013e5b8062000db1575b62000d88575b508190565b60208180518101031262000dad576020015160ff811162000d83576001925060ff1690565b8280fd5b5060208151101562000d7d565b60609062000d76565b6040516318160ddd60e01b81526001600160a01b039190911690602090818082600481875afa918262000e68575b505062000e03575050600090565b80602492604051938480926370a0823160e01b82523060048301525afa918262000e39575b505062000e3457600090565b600190565b813d831162000e60575b62000e4f818362000b0c565b8101031262000b0757388062000e28565b503d62000e43565b813d831162000e8f575b62000e7e818362000b0c565b8101031262000b0757813862000df5565b503d62000e72565b61016051604051631f94a27560e31b81526001600160a01b03916020908290600490829086165afa9081156200064a5760009162000ed457501690565b906020823d821162000f0c575b8162000ef06020938362000b0c565b8101031262000f09575062000f059062000bb6565b1690565b80fd5b3d915062000ee156fe6080604052600436101561001257600080fd5b60003560e01c806301e1d1141461288757806301ffc9a7146128315780630261bf8b14612816578063031c53ef146127f057806305eee57e146127d457806306fdde031461271657806307a2d13a14611a9557806309344c9c146126e9578063095ea7b3146126315780630a28a4771461261357806318160ddd146125f55780631dc8d818146123d05780631f52be641461238b57806323b872dd14612369578063248a9ca31461233a5780632e16f938146123035780632e80b858146116825780632f293a20146122345780632f2ff15d146121f5578063313ce56714612197578063331fb00f146120fb57806336568abe146120b457806338d52e0f1461206f578063402d267d146108ad578063415c5069146120545780634603be6f14611b0157806348631af914611ab857806349b4040214611a9a5780634cdad50614611a95578063500fc43414611a655780635033def714611a3657806356d1d4a2146119c95780635898ec3b1461198457806359757aa51461195e5780635b3f0549146119425780635f36a7421461191f57806361d027b3146118f65780636d483fe614610dd55780636e553f651461171d57806370a08231146116e4578063715018a61461168757806374286e4014611682578063776efe47146114365780637aa7c3c1146113f55780637dd38d9a146113ba57806380fbf1dd1461139657806385bf8b771461073e578063863df9e71461137b5780638bc4ec9b146113555780638da5cb5b1461132c57806391d14854146112df57806394bf804d1461107557806395d89b4114610f70578063a0a9452614610f42578063a217fddf14610f26578063a9059cbb14610ef5578063a9f1a79814610ed0578063acfec69014610e8b578063ae37f47914610e46578063b18b78dd14610e1a578063b2016bd414610dd5578063b3d7f6b914610db7578063b460af9414610bb2578063ba08765214610916578063bba00ba5146108d1578063c63d75b6146108ad578063c6e6f592146105d4578063c7101c121461088a578063c879cf7d1461083c578063ce96cb7714610819578063d267974c146103c3578063d547741f146107d8578063d905777e146107ad578063dd62ed3e1461075c578063dde35bfd1461073e578063e0dd245714610703578063e5711e8b14610642578063e80cfa5e14610624578063eaff4592146105f6578063ee01e5e7146105d9578063ef8b30f7146105d4578063f0f4426014610538578063f2fde38b146104aa578063f6d48ae21461040d5763f8d89898146103c357600080fd5b34610408576000366003190112610408576040517f00000000000000000000000000000000000000000000000000000000000000006001600160a01b03168152602090f35b600080fd5b3461040857602080600319360112610408576024816001600160a01b0361010061043d6104386128ed565b614662565b015116604051928380926370a0823160e01b82523060048301525afa90811561049e57600091610471575b50604051908152f35b90508181813d8311610497575b6104888183612c9a565b81010312610408575182610468565b503d61047e565b6040513d6000823e3d90fd5b34610408576020366003190112610408576104c36128ed565b6104cb612c21565b6001600160a01b0390811690811561051f57600554826bffffffffffffffffffffffff60a01b821617600555167f8be0079c531659141344cd1fd0a4f28419497f9722a3daafe3b4186f6b6457e0600080a3005b604051631e4fbdf760e01b815260006004820152602490fd5b34610408576020366003190112610408576105516128ed565b610559612a8a565b6001600160a01b0381811680156105c257600a80546001600160a01b03198116929092179055604080516001600160a01b0393909216831682529290911660208201527f4ab5be82436d353e61ca18726e984e561f5c1cc7c6d38b29d2553c790434705a9190a1005b6040516351dc806d60e11b8152600490fd5b612a6c565b346104085760003660031901126104085760206040516127108152f35b34610408576020366003190112610408576020620f424061061b600b546004356133ba565b04604051908152f35b34610408576000366003190112610408576020600b54604051908152f35b346104085761065036612980565b61065b929192612c21565b610663613201565b61066b61323c565b9060005b82518110156106e8576001600160a01b038061068b838661314e565b5116908516146106a35761069e9061310c565b61066f565b60405162461bcd60e51b815260206004820152601e60248201527f43616e6e6f7420726573637565207265737472696374656420746f6b656e00006044820152606490fd5b6106fc82866001600160a01b038716613162565b6001600755005b346104085760003660031901126104085760206040517f51785d261c3b3e8c2cfe2d0e108b9ab2b1fb703ff9e9e49aba4ebdc85c36152b8152f35b34610408576000366003190112610408576020600954604051908152f35b34610408576040366003190112610408576107756128ed565b61077d6128d7565b9060018060a01b038091166000526001602052604060002091166000526020526020604060002054604051908152f35b346104085760203660031901126104085760206107d06107cb6128ed565b61434e565b604051908152f35b34610408576040366003190112610408576108176004356107f76128d7565b90806000526006602052610812600160406000200154612b04565b612baa565b005b346104085760203660031901126104085760206107d06108376128ed565b61431b565b346104085760203660031901126104085760206107d061085d6004356133a2565b63ffffffff7f00000000000000000000000000000000000000000000000000000000000000001690613065565b346104085760203660031901126104085760206107d06108a86128ed565b6133cd565b34610408576020366003190112610408576108c66128ed565b5060206107d0614304565b34610408576000366003190112610408576040517f00000000000000000000000000000000000000000000000000000000000000006001600160a01b03168152602090f35b346104085761092436612a37565b919061092f8361434e565b808311610b82575061094082613000565b91610949613201565b6001600160a01b0384811692338403610b72575b8360005260209560008752604060002054848110610b4357508415610b2a578361098691612dd0565b61098e613557565b610aed5761099a61420f565b827f000000000000000000000000000000000000000000000000000000000000000016906109ed847f00000000000000000000000000000000000000000000000000000000000000001691888385613dbc565b604051636eb1769f60e11b81523360048201523060248201528981604481865afa801561049e578291600091610abc575b5010610a9257610a5292610a42899383610a3b8895303385613598565b3091613a77565b610a4d308483613bf6565b613162565b604051928584528684015216907ffbde797d201c681b91056529119e0b02407c7bb96a4a2c75c01fc9667232c8db60403392a46001600755604051908152f35b60849250604051916326938fb560e01b835233600484015230602484015260448301526064820152fd5b8092508b8092503d8311610ae6575b610ad58183612c9a565b81010312610408578190518b610a1e565b503d610acb565b85610af661420f565b60085460405163391f5eb560e01b8152600481019290925263ffffffff8082166024840152921c9091166044820152606490fd5b604051634b637e8f60e11b815260006004820152602490fd5b604051631bb4880160e11b81526001600160a01b03929092166004830152602482018590526044820152606490fd5b610b7d833388612e8c565b61095d565b604051632e52afbb60e21b81526001600160a01b0385166004820152602481018490526044810191909152606490fd5b3461040857610bc036612a37565b9190610bcb8361431b565b808311610d875750610bdc82612f70565b91610be5613201565b6001600160a01b0384811692338403610d77575b8360005260209560008752604060002054868110610d4857508415610b2a5785610c2291612dd0565b610c2a613557565b610aed57610c3661420f565b827f00000000000000000000000000000000000000000000000000000000000000001690610c89847f00000000000000000000000000000000000000000000000000000000000000001691868385613dbc565b604051636eb1769f60e11b81523360048201523060248201528981604481865afa801561049e578291600091610d17575b5010610a9257610cd792610a42879383610a3b8895303385613598565b604051928352848684015216907ffbde797d201c681b91056529119e0b02407c7bb96a4a2c75c01fc9667232c8db60403392a46001600755604051908152f35b8092508b8092503d8311610d41575b610d308183612c9a565b81010312610408578190518b610cba565b503d610d26565b604051631bb4880160e11b81526001600160a01b03929092166004830152602482018790526044820152606490fd5b610d82853388612e8c565b610bf9565b604051633fa733bb60e21b81526001600160a01b0385166004820152602481018490526044810191909152606490fd5b346104085760203660031901126104085760206107d0600435612fd1565b34610408576000366003190112610408576040517f00000000000000000000000000000000000000000000000000000000000000006001600160a01b03168152602090f35b346104085760003660031901126104085760206001600160a01b03610e3d614566565b16604051908152f35b34610408576000366003190112610408576040517f00000000000000000000000000000000000000000000000000000000000000006001600160a01b03168152602090f35b34610408576000366003190112610408576040517f00000000000000000000000000000000000000000000000000000000000000006001600160a01b03168152602090f35b34610408576000366003190112610408576020610eeb613557565b6040519015158152f35b3461040857604036600319011261040857610f1b610f116128ed565b6024359033612cbc565b602060405160018152f35b3461040857600036600319011261040857602060405160008152f35b3461040857602036600319011261040857610f5b612c21565b610f63613201565b6004356009556001600755005b3461040857600036600319011261040857604051600090600454600181811c9080831692831561106b575b6020938484108114611055578386529081156110355750600114610fda575b610fd684610fca81880382612c9a565b60405191829182612903565b0390f35b600460009081529294507f8a35acfbc15ff81a39ae7d344fd709f28e8600b4aa8c65c6b64bfe7fe36bd19b5b8284106110225750505081610fd693610fca9282010193610fba565b8054858501870152928501928101611006565b60ff1916858501525050151560051b8201019150610fca81610fd6610fba565b634e487b7160e01b600052602260045260246000fd5b91607f1691610f9b565b34610408576040366003190112610408576004356110916128d7565b611099614304565b8083116112ac57506110aa82612fd1565b906110b3613201565b6110bb613557565b61126e576001600160a01b037f0000000000000000000000000000000000000000000000000000000000000000811693906110f884303388613598565b61110061420f565b6040516370a0823160e01b8152306004820152602096908781602481855afa90811561049e57600091611241575b508681106112235750908461117f61118b9361114b308a836135fe565b7f00000000000000000000000000000000000000000000000000000000000000008616938990859080156111f55792613dbc565b91610a4d3084836138a3565b82169182156111dc578161119e91612d74565b60405190838252848201527fdcbc1c05240f31ff3ad067ef1ee35ce4997762752e3a095284754544f4c709d760403392a36001600755604051908152f35b60405163ec442f0560e01b815260006004820152602490fd5b5063ffffffff7f00000000000000000000000000000000000000000000000000000000000000001692613dbc565b6044908760405191635e13771960e01b835260048301526024820152fd5b90508781813d8311611267575b6112588183612c9a565b8101031261040857518861112e565b503d61124e565b61127661420f565b60085460405163391f5eb560e01b8152600481019290925263ffffffff808216602484015260209190911c166044820152606490fd5b60405163284ff66760e01b81526001600160a01b0392909216600483015260248201929092526044810191909152606490fd5b34610408576040366003190112610408576112f86128d7565b600435600052600660205260406000209060018060a01b0316600052602052602060ff604060002054166040519015158152f35b34610408576000366003190112610408576005546040516001600160a01b039091168152602090f35b3461040857600036600319011261040857602060085463ffffffff60405191831c168152f35b346104085760003660031901126104085760206107d0614295565b3461040857600036600319011261040857602063ffffffff60085416604051908152f35b346104085760003660031901126104085760206040517f00000000000000000000000000000000000000000000000000000000000000008152f35b3461040857600036600319011261040857602060405163ffffffff7f0000000000000000000000000000000000000000000000000000000000000000168152f35b34610408576114443661296a565b61144c613201565b611455306144d6565b909261145f614295565b61146761420f565b7f00000000000000000000000000000000000000000000000000000000000000009563ffffffff8716928383111561165d579161153a826115348561152f6114bc8a61152a9e998d8c9a6115039f9e9d614136565b99898b9a611622575b50620f424061150f61150960018060a01b039e8f7f0000000000000000000000000000000000000000000000000000000000000000169e8f90613509565b95612d56565b856133ba565b049d8e61152461151f82896135f1565b6133a2565b966135f1565b6135f1565b612d67565b90613065565b9182108015611618575b6115e857505050611584929161155b913091613a77565b7f0000000000000000000000000000000000000000000000000000000000000000168093613481565b908082106115a357506106fc9161159c308383613bf6565b3390613162565b60a49250604051916348a552d560e11b835260606004840152601060648401526f64656372656173654c6576657261676560801b608484015260248301526044820152fd5b604051636a3f633560e11b8152600481019290925263ffffffff9290921660248201526044810191909152606490fd5b5080821015611544565b6116579030337f00000000000000000000000000000000000000000000000000000000000000006001600160a01b0316613598565b8e6114c5565b60405163de9f90d760e01b81526004810184905263ffffffff89166024820152604490fd5b6129b5565b34610408576000366003190112610408576116a0612c21565b600580546001600160a01b031981169091556000906001600160a01b03167f8be0079c531659141344cd1fd0a4f28419497f9722a3daafe3b4186f6b6457e08280a3005b346104085760203660031901126104085760206107d06117026128ed565b6001600160a01b031660009081526020819052604090205490565b34610408576040366003190112610408576004356117396128d7565b611741614304565b8083116118c3575061175282612fa2565b9061175b613201565b611763613557565b61126e576001600160a01b037f0000000000000000000000000000000000000000000000000000000000000000811693906117a082303388613598565b6117a861420f565b6040516370a0823160e01b8152306004820152602096908781602481855afa90811561049e57600091611896575b508481106118785750908461117f611827936117f33088836135fe565b7f00000000000000000000000000000000000000000000000000000000000000008616938790859080156111f55792613dbc565b82169182156111dc578361183a91612d74565b60405190815282848201527fdcbc1c05240f31ff3ad067ef1ee35ce4997762752e3a095284754544f4c709d760403392a36001600755604051908152f35b6044908560405191635e13771960e01b835260048301526024820152fd5b90508781813d83116118bc575b6118ad8183612c9a565b810103126104085751886117d6565b503d6118a3565b604051633c8097d960e11b81526001600160a01b0392909216600483015260248201929092526044810191909152606490fd5b3461040857600036600319011261040857600a546040516001600160a01b039091168152602090f35b346104085760003660031901126104085760206001600160a01b03610e3d6145f1565b3461040857600036600319011261040857602060405160028152f35b346104085760403660031901126104085760206107d061197c6128d7565b600435613481565b34610408576000366003190112610408576040517f00000000000000000000000000000000000000000000000000000000000000006001600160a01b03168152602090f35b34610408576020366003190112610408576004356119e5612a8a565b8015611a245760407f46c287b860f967b39d89a1692e6486d60e4d66ea2cde369816239edaf4e0656991600c549080600c5582519182526020820152a1005b6040516354a62ce560e01b8152600490fd5b34610408576020366003190112610408576040611a59611a546128ed565b6144d6565b82519182526020820152f35b3461040857600036600319011261040857610fd6611a8161323c565b6040519182916020835260208301906129fa565b61294c565b34610408576000366003190112610408576020600c54604051908152f35b34610408576020366003190112610408576020620f424061061b63ffffffff7f0000000000000000000000000000000000000000000000000000000000000000166004356133ba565b346104085760603660031901126104085760243567ffffffffffffffff8082116104085736602383011215610408578082600401351161040857366024836004013560051b84010111610408576044356001600160a01b0381169081900361040857611b6b613201565b600c548060043510612034575015611fe657816004013515612022577f00000000000000000000000000000000000000000000000000000000000000006001600160a01b0316611bbf600435303384613598565b604051906060820190825260043560208301526060604083015283600401359052608081019060248401918260005b86600401358110611ff857505090807fc8efbc392b57771291983f003bd32ae9dc5e87ff1388a259b9acf272db4531d8920390a13015611fe657611c358360040135613224565b91611c436040519384612c9a565b6004840135808452601f1990611c5890613224565b0136602085013760405190604082019082821090821117611fd0576040526001815260203681830137611c8a8161311b565b7f00000000000000000000000000000000000000000000000000000000000000006001600160a01b0316905260005b84600401358110611de9575050815183600401358103611dc7575060005b83600401358110611d0f576106fc306004357f000000000000000000000000000000000000000000000000000000000000000061438d565b611d19818461314e565b51620f4240611d2a600b54836133ba565b04818111611daa57611da59291611da091611d9690611d75816001600160a01b03611d62611d5d8960048f01358d61489b565b6148ab565b600a546001600160a01b03169116613162565b6001600160a01b03611d8f611d5d8760048d01358b61489b565b16926135f1565b9060443590613162565b61310c565b611cd7565b6044916040519163270c46bf60e01b835260048301526024820152fd5b6044908460405191631aff8a1160e01b83526004830152600401356024820152fd5b6001600160a01b03611e03611d5d8360048901358761489b565b16908115611fbe576040516370a0823160e01b815230600482015291602083602481845afa92831561049e57600093611f8a575b506040516333028b9960e01b815260a0600482015260208180611e5d60a48201896129fa565b60001960248301526001600160a01b037f000000000000000000000000000000000000000000000000000000000000000081166044840152306064840152608483018790529190039082906000907f0000000000000000000000000000000000000000000000000000000000000000165af1801561049e57611f5f575b506020602491604051928380926370a0823160e01b82523060048301525afa90811561049e57600091611f2b575b50611f2692611f16916135f1565b611f20828761314e565b5261310c565b611cb9565b90506020813d602011611f57575b81611f4660209383612c9a565b810103126104085751611f26611f08565b3d9150611f39565b602090813d8311611f83575b611f758183612c9a565b810103126104085787611eda565b503d611f6b565b9092506020813d602011611fb6575b81611fa660209383612c9a565b8101031261040857519187611e37565b3d9150611f99565b60405163d92e233d60e01b8152600490fd5b634e487b7160e01b600052604160045260246000fd5b6040516313e6c64360e31b8152600490fd5b909182356001600160a01b0381169190829003610408576020816001938293520193019101611bee565b604051633ce287ef60e21b8152600490fd5b604490604051906301959e9f60e51b825260043560048301526024820152fd5b346104085760003660031901126104085760206107d061420f565b34610408576000366003190112610408576040517f00000000000000000000000000000000000000000000000000000000000000006001600160a01b03168152602090f35b34610408576040366003190112610408576120cd6128d7565b336001600160a01b038216036120e95761081790600435612baa565b60405163334bd91960e11b8152600490fd5b3461040857602036600319011261040857600435612117612a8a565b7f0000000000000000000000000000000000000000000000000000000000000000808211612178577f7af7c1a20ca2d95ef775c520be0e875415f760d01d8ab209ad45bfe84839d68e604083600b549080600b5582519182526020820152a1005b604051636cef961f60e11b815260048101929092526024820152604490fd5b346104085760003660031901126104085760ff7f00000000000000000000000000000000000000000000000000000000000000001660ff81116121df57602090604051908152f35b634e487b7160e01b600052601160045260246000fd5b34610408576040366003190112610408576108176004356122146128d7565b9080600052600660205261222f600160406000200154612b04565b612b2a565b346104085760403660031901126104085760043563ffffffff908181168091036104085760243591808316908184036104085761226f612c21565b612277613201565b7f0000000000000000000000000000000000000000000000000000000000000000168083108015906122f9575b6122d657505067ffffffff000000006008549260201b169167ffffffffffffffff191617176008556001600755600080f35b606493506040519263b857eea760e01b8452600484015260248301526044820152fd5b50818110156122a4565b346104085760203660031901126104085760043580151581036104085761232b604091613deb565b825191825260000b6020820152f35b346104085760203660031901126104085760043560005260066020526020600160406000200154604051908152f35b3461040857610f1b61237a36612980565b91612386833383612e8c565b612cbc565b34610408576000366003190112610408576040517f00000000000000000000000000000000000000000000000000000000000000006001600160a01b03168152602090f35b34610408576123de3661296a565b6123e6613201565b6123ef306144d6565b90926123f9614295565b61240161420f565b7f00000000000000000000000000000000000000000000000000000000000000009563ffffffff871692838310156125d057916124b4826115348561152a6124568a61152a9e998d8c9a6115039f9e9d614025565b99898b9a612595575b50620f424061249d61150960018060a01b039e8f7f0000000000000000000000000000000000000000000000000000000000000000169e8f90613509565b049d8e936124ae61151f8289612d67565b96612d67565b918211801561258b575b61255b575050506124fe92916124d59130916135fe565b7f0000000000000000000000000000000000000000000000000000000000000000168093613481565b9080821061251657506106fc9161159c3083836138a3565b60a49250604051916348a552d560e11b835260606004840152601060648401526f696e6372656173654c6576657261676560801b608484015260248301526044820152fd5b604051630262805f60e11b8152600481019290925263ffffffff9290921660248201526044810191909152606490fd5b50808211156124be565b6125ca9030337f00000000000000000000000000000000000000000000000000000000000000006001600160a01b0316613598565b8e61245f565b6040516312e9fceb60e21b81526004810184905263ffffffff89166024820152604490fd5b34610408576000366003190112610408576020600254604051908152f35b346104085760203660031901126104085760206107d0600435612f70565b346104085760403660031901126104085761264a6128ed565b6024359033156126d0576001600160a01b03169081156126b757336000526001602052604060002082600052602052806040600020556040519081527f8c5be1e5ebec7d5bd14f71427d1e84f3dd0314c0f7b2291e5b200ac8c7c3b92560203392a3602060405160018152f35b604051634a1406b160e11b815260006004820152602490fd5b60405163e602df0560e01b815260006004820152602490fd5b34610408576000366003190112610408576020612704614566565b6040516001600160a01b039091168152f35b3461040857600036600319011261040857604051600090600354600181811c908083169283156127ca575b602093848410811461105557838652908115611035575060011461276f57610fd684610fca81880382612c9a565b600360009081529294507fc2575a0e9e593c00f959f8c92f12db2869c3395a3b0502d05e2516446f71f85b5b8284106127b75750505081610fd693610fca9282010193610fba565b805485850187015292850192810161279b565b91607f1691612741565b3461040857600036600319011261040857602060405160088152f35b346104085760403660031901126104085760206107d061280e6128d7565b600435613509565b346104085760003660031901126104085760206127046145f1565b346104085760203660031901126104085760043563ffffffff60e01b811680910361040857602090637965db0b60e01b8114908115612876575b506040519015158152f35b6301ffc9a760e01b1490508261286b565b346104085760003660031901126104085760206107d06128a6306144d6565b507f00000000000000000000000000000000000000000000000000000000000000006001600160a01b031690613481565b602435906001600160a01b038216820361040857565b600435906001600160a01b038216820361040857565b6020808252825181830181905290939260005b82811061293857505060409293506000838284010152601f8019910116010190565b818101860151848201604001528501612916565b346104085760203660031901126104085760206107d0600435613000565b6040906003190112610408576004359060243590565b6060906003190112610408576001600160a01b0390600435828116810361040857916024359081168103610408579060443590565b34610408576080366003190112610408576001600160a01b036004358181168103610408576024359182168203610408576020916107d0916064359160443591613dbc565b90815180825260208080930193019160005b828110612a1a575050505090565b83516001600160a01b031685529381019392810192600101612a0c565b606090600319011261040857600435906001600160a01b03906024358281168103610408579160443590811681036104085790565b346104085760203660031901126104085760206107d0600435612fa2565b3360009081527ffe34ed5485dc9fe44fe8269f3027eee2e0a6e4cc4be0ba8f7d037ae76cfa28d360205260409020547f51785d261c3b3e8c2cfe2d0e108b9ab2b1fb703ff9e9e49aba4ebdc85c36152b9060ff1615612ae65750565b6044906040519063e2517d3f60e01b82523360048301526024820152fd5b80600052600660205260406000203360005260205260ff6040600020541615612ae65750565b906000918083526006602052604083209160018060a01b03169182845260205260ff60408420541615600014612ba55780835260066020526040832082845260205260408320600160ff198254161790557f2f8788117e7eff1d82e926ec794901d17c78024a50270940304540a733656f0d339380a4600190565b505090565b906000918083526006602052604083209160018060a01b03169182845260205260ff604084205416600014612ba5578083526006602052604083208284526020526040832060ff1981541690557ff6391f5c32d9c69d2a47ea670b442974b53935d1edc7fd64eb21e047a839171b339380a4600190565b6005546001600160a01b03163303612c3557565b60405163118cdaa760e01b8152336004820152602490fd5b67ffffffffffffffff8111611fd057604052565b6101e0810190811067ffffffffffffffff821117611fd057604052565b6020810190811067ffffffffffffffff821117611fd057604052565b90601f8019910116810190811067ffffffffffffffff821117611fd057604052565b916001600160a01b03808416928315610b2a57169283156111dc5760009083825281602052604082205490838210612d24575091604082826000805160206148c0833981519152958760209652828652038282205586815220818154019055604051908152a3565b60405163391434e360e21b81526001600160a01b03919091166004820152602481019190915260448101839052606490fd5b90620f42409182018092116121df57565b919082018092116121df57565b6000805160206148c08339815191526020600092612d9485600254612d67565b6002556001600160a01b03169384158414612dbb5780600254036002555b604051908152a3565b84845283825260408420818154019055612db2565b9091906001600160a01b0381169081612e1a57506000805160206148c0833981519152602084612e0560009596600254612d67565b6002555b8060025403600255604051908152a3565b92600082815280602052604081205494828610612e5b5750818160406000805160206148c08339815191529460009798876020965283865203912055612e09565b60405163391434e360e21b81526001600160a01b039190911660048201526024810186905260448101839052606490fd5b9160018060a01b038093169160009383855260016020526040938486209183169182875260205284862054926000198410612ecb575b50505050505050565b848410612f2f57508015612f17578115612eff57855260016020528385209085526020520391205538808080808080612ec2565b8451634a1406b160e11b815260048101879052602490fd5b845163e602df0560e01b815260048101879052602490fd5b8551637dc7a0d960e11b81526001600160a01b039190911660048201526024810184905260448101859052606490fd5b60ff16604d81116121df57600a0a90565b600254600181018091116121df57612f8a6128a6306144d6565b90600182018092116121df57612f9f9261302f565b90565b600254600181018091116121df57612fbc6128a6306144d6565b90600182018092116121df57612f9f9261306f565b612fdd6128a6306144d6565b600181018091116121df5760025490600182018092116121df57612f9f9261302f565b61300c6128a6306144d6565b600181018091116121df5760025490600182018092116121df57612f9f9261306f565b9161303b81838561306f565b91811561304f57612f9f9309151590612d67565b634e487b7160e01b600052601260045260246000fd5b811561304f570490565b909160001983830992808302928380861095039480860395146130ff57848311156130e6579082910981600003821680920460028082600302188083028203028083028203028083028203028083028203028083028203028092029003029360018380600003040190848311900302920304170290565b82634e487b71600052156003026011186020526024601cfd5b505090612f9f9250613065565b60001981146121df5760010190565b8051156131285760200190565b634e487b7160e01b600052603260045260246000fd5b8051600110156131285760400190565b80518210156131285760209160051b010190565b60405163a9059cbb60e01b60208201526001600160a01b039290921660248301526044808301939093529181526131a39161319e606483612c9a565b6131a5565b565b906000602091828151910182855af11561049e576000513d6131f857506001600160a01b0381163b155b6131d65750565b604051635274afe760e01b81526001600160a01b039091166004820152602490fd5b600114156131cf565b600260075414613212576002600755565b604051633ee5aeb560e01b8152600490fd5b67ffffffffffffffff8111611fd05760051b60200190565b6001600160a01b03907f0000000000000000000000000000000000000000000000000000000000000000821661327181614662565b90604051916080830183811067ffffffffffffffff821117611fd05785916101209160405260038552606036602087013782610100820151166132b38661311b565b5282610140820151166132c58661313e565b520151169382519460029586101561312857606084015282518501918286116121df576132f183613224565b926132ff6040519485612c9a565b80845261330e601f1991613224565b0136602085013761331e8361311b565b52807f00000000000000000000000000000000000000000000000000000000000000001661334b8361313e565b52600092835b81518110156133995782613365828461314e565b51168188018089116133855790611f2061338093928761314e565b613351565b634e487b7160e01b87526011600452602487fd5b50919450505050565b90620f4240918281029281840414901517156121df57565b818102929181159184041417156121df57565b6001600160a01b03906020826133e1614566565b169160246040518095819363b3596f0760e01b835216948560048301525afa91821561049e57600092613432575b50811561341a575090565b6024906040519063339c9fa160e21b82526004820152fd5b90916020823d8211613460575b8161344c60209383612c9a565b8101031261345d575051903861340f565b80fd5b3d915061343f565b90816020910312610408575160ff811681036104085790565b906004916020613490836133cd565b60405163313ce56760e01b815294909385919082906001600160a01b03165afa90811561049e576134d06134d692612f9f956000916134db575b50612f5f565b906133ba565b613065565b6134fc915060203d8111613502575b6134f48183612c9a565b810190613468565b386134ca565b503d6134ea565b90602061351b6004936134d0846133cd565b60405163313ce56760e01b815293909284919082906001600160a01b03165afa91821561049e57612f9f92611534916000916134db5750612f5f565b61355f61420f565b801515908161356c575090565b60085463ffffffff80821683109350908315613589575b50505090565b60201c16109050388080613583565b6040516323b872dd60e01b60208201526001600160a01b03928316602482015292909116604483015260648083019390935291815260a081019181831067ffffffffffffffff841117611fd0576131a3926040526131a5565b919082039182116121df57565b919060018060a01b039182841660408051916370a0823160e01b95868452806000951660049781898701526020928387602481885afa9687156137da578897613874575b5061364b6145f1565b865163095ea7b360e01b81526001600160a01b0392909116918216818c01908152602081018b905285908290819060400103818c8a5af190811561386a57899161383d575b50156137e857803b156137e457878560848c838d958b51968795869463617ba03760e01b865285015260248401528860448401528160648401525af180156137da576137c2575b5090602483928651958693849283528c8301525afa9485156137b75794613787575b505081831015613751578361370e84846135f1565b0361371b57505050505050565b5163758ad4e760e01b81526001600160a01b03959095169385019384526020840152604083015260608201528190036080019150fd5b5163648195a560e11b81526001600160a01b03959095169385019384526020840152604083015260608201528190036080019150fd5b9080929450813d83116137b0575b61379f8183612c9a565b8101031261040857519138806136f9565b503d613795565b8351903d90823e3d90fd5b839291976137d1602492612c4d565b979192506136d7565b86513d8a823e3d90fd5b8780fd5b855162461bcd60e51b8152808b01859052602960248201527f617070726f7665206661696c656420666f72206c656e64696e6720706f6f6c20604482015268696e20737570706c7960b81b6064820152608490fd5b61385d9150853d8711613863575b6138558183612c9a565b810190614375565b38613690565b503d61384b565b87513d8b823e3d90fd5b9096508381813d831161389c575b61388c8183612c9a565b810103126137e457519538613642565b503d613882565b604080516370a0823160e01b8082526001600160a01b039586166004830181905291959394936000939281871692602092838a602481885afa998a15613a3a57879a613a48575b506138f36145f1565b16803b15613a445786809160a488518094819363a415bcad60e01b83528a60048401528d6024840152600260448401528160648401528860848401525af18015613a3a57613a22575b50906024839286519586938492835260048301525afa9384156137b757936139f2575b5050848211156139b9578261397486846135f1565b03613980575050505050565b516371e5ed5360e01b81526001600160a01b03939093166004840152602483019390935260448201929092526064810191909152608490fd5b51631216cb9b60e11b81526001600160a01b03939093166004840152602483019390935260448201929092526064810191909152608490fd5b9080929350813d8311613a1b575b613a0a8183612c9a565b81010312610408575190388061395f565b503d613a00565b83929196613a31602492612c4d565b9691925061393c565b86513d89823e3d90fd5b8680fd5b9099508381813d8311613a70575b613a608183612c9a565b81010312613a44575198386138ea565b503d613a56565b604080516370a0823160e01b8082526001600160a01b038681166004840181905292969495946020949391871692908589602481875afa988915613beb57600099613bbc575b50859291613ace602492898b61438d565b85519485938492835260048301525afa928315613bb157600093613b80575b505084821015613b475782613b0283876135f1565b03613b0e575050505050565b51634023dad760e11b81526001600160a01b03939093166004840152602483019390935260448201929092526064810191909152608490fd5b516301b6cca560e11b81526001600160a01b03939093166004840152602483019390935260448201929092526064810191909152608490fd5b8181949293943d8311613baa575b613b988183612c9a565b8101031261345d575051903880613aed565b503d613b8e565b82513d6000823e3d90fd5b90988682813d8311613be4575b613bd38183612c9a565b8101031261345d5750519785613abd565b503d613bc9565b85513d6000823e3d90fd5b9060018060a01b03808316604090815195836370a0823160e01b9182895216908160048901526020948589602481875afa988915613beb57600099613d8d575b5085600091613c436145f1565b166064875180948193631a4ca37b60e21b83528960048401528c60248401528860448401525af18015613beb579086939291613d61575b5060249085519485938492835260048301525afa928315613bb157600093613d30575b505084821115613cf75782613cb286846135f1565b03613cbe575050505050565b51633b6d51ff60e21b81526001600160a01b03939093166004840152602483019390935260448201929092526064810191909152608490fd5b5163eefde95560e01b81526001600160a01b03939093166004840152602483019390935260448201929092526064810191909152608490fd5b8181949293943d8311613d5a575b613d488183612c9a565b8101031261345d575051903880613c9d565b503d613d3e565b8391933d8311613d86575b613d768183612c9a565b8101031261040857849138613c7a565b503d613d6c565b90988682813d8311613db5575b613da48183612c9a565b8101031261345d5750519785613c36565b503d613d9a565b613dc69192613509565b91620f423f198101908082116121df576134d6613de692612f9f956133ba565b613481565b613df361420f565b90613dfc614295565b613e05306144d6565b908015613e6f577f000000000000000000000000000000000000000000000000000000000000000063ffffffff169485811015613e4c5750613e4694613e7c565b90600190565b8510613e5f575050505050600090600090565b613e6894613fb1565b9060001990565b5050505050600090600090565b92918115613f9f57808210613f8157613ec6613ecc9493613ec084613eba613eb4613eae620f424097611534996135f1565b896133ba565b916133a2565b906135f1565b946133ba565b04612d56565b7f00000000000000000000000000000000000000000000000000000000000000006001600160a01b031690613f02908290613481565b91613f0b575090565b6020602491604051928380926370a0823160e01b82523060048301525afa90811561049e57600091613f50575b50808211613f47575050600090565b612f9f916135f1565b906020823d8211613f79575b81613f6960209383612c9a565b8101031261345d57505138613f38565b3d9150613f5c565b6044925060405191639d79443b60e01b835260048301526024820152fd5b604051631350309560e11b8152600490fd5b92918115613f9f57808210613f8157613ec6613fef9493613ec084613eba613fe9620f424096613fe3611534996133a2565b936135f1565b886133ba565b7f00000000000000000000000000000000000000000000000000000000000000006001600160a01b031690613f02908290613481565b929194939485156140cd5750506040516370a0823160e01b815230600482015293915060209050836024817f00000000000000000000000000000000000000000000000000000000000000006001600160a01b03165afa92831561049e57600093614096575b50612f9f9192612d67565b6020813d82116140c5575b816140ae60209383612c9a565b810103126140c157519250612f9f61408b565b8380fd5b3d91506140a1565b9080929394955015613f9f57808210613f8157620f4240613ec661410694613ec085613eba613eb4613eae61153498612f9f9c9a6135f1565b7f00000000000000000000000000000000000000000000000000000000000000006001600160a01b031690613481565b929194939485156141a65750506040516370a0823160e01b815230600482015293915060209050836024817f00000000000000000000000000000000000000000000000000000000000000006001600160a01b03165afa92831561049e576000936140965750612f9f9192612d67565b9080929394955015613f9f57808210613f8157620f4240613ec66141df94613ec085613eba613fe961153497613fe3612f9f9c9a6133a2565b7f00000000000000000000000000000000000000000000000000000000000000006001600160a01b031690613481565b614218306144d6565b9081811061427857801561427157818114614269576115346142439261423d836133a2565b926135f1565b620f42408111156142515790565b602490604051906369bb335560e01b82526004820152fd5b505060001990565b5050600090565b604491604051916378ea417b60e11b835260048301526024820152fd5b61429d61420f565b7f000000000000000000000000000000000000000000000000000000000000000063ffffffff16808211156142ef576134d661151f826142dc946135f1565b6009548082116142ea575090565b905090565b6134d661151f6142ff93836135f1565b6142dc565b61430c613557565b6143165760001990565b600090565b614323613557565b614348576001600160a01b0316600090815260208190526040902054612f9f90613000565b50600090565b614356613557565b614348576001600160a01b031660009081526020819052604090205490565b90816020910312610408575180151581036104085790565b90916143976145f1565b60405163095ea7b360e01b81526001600160a01b03918216600482018190526024820186905260009560209590939081169286816044818b885af19081156144cb5788916144ae575b5015614458579186608492879594604051978896879563573ade8160e01b875260048701526024860152600260448601521660648401525af1801561444d5761442857505050565b813d8311614446575b61443b8183612c9a565b8101031261345d5750565b503d614431565b6040513d85823e3d90fd5b60405162461bcd60e51b815260048101879052602860248201527f617070726f7665206661696c656420666f72206c656e64696e6720706f6f6c20604482015267696e20726570617960c01b6064820152608490fd5b6144c59150873d8911613863576138558183612c9a565b386143e0565b6040513d8a823e3d90fd5b9060c06001600160a01b036024816144ec6145f1565b16946040519586938492632fe4a15f60e21b84521660048301525afa91821561049e57600090819361451d57509190565b925060c0833d821161454a575b8161453760c09383612c9a565b8101031261345d57506020825192015190565b3d915061452a565b51906001600160a01b038216820361040857565b604051631f94a27560e31b81526001600160a01b03906020816004817f000000000000000000000000000000000000000000000000000000000000000086165afa90811561049e576000916145ba57501690565b906020823d82116145e9575b816145d360209383612c9a565b8101031261345d57506145e590614552565b1690565b3d91506145c6565b60405163026b1d5f60e01b81526001600160a01b03906020816004817f000000000000000000000000000000000000000000000000000000000000000086165afa90811561049e576000916145ba57501690565b51906fffffffffffffffffffffffffffffffff8216820361040857565b604090815161467081612c61565b82519161467c83612c7e565b600092838152825282602083015282848301528260608301528260808301528260a08301528260c08301528260e08301526101008381840152610120848185015261014085818601526101609086828701526101809287848801526101a0948886890152886101c08099015260018060a01b0398896146f96145f1565b168b519a8b996335ea6a7560e01b8b521660048a01528860246101e09c8d935afa9a8b1561489157819b614736575b505050505050505050505090565b90919293949596978a819a9b9c503d8d1161488a575b6147568183612c9a565b8101039a8b1261488657602081519b61476e8d612c61565b1261488657805161477e81612c7e565b895181528b5261479060208a01614645565b60208c01526147a0818a01614645565b908b01526147b060608901614645565b60608b01526147c160808901614645565b60808b01526147d260a08901614645565b60a08b015260c088015164ffffffffff811681036148865760c08b015260e08801519061ffff8216820361345d575091614872979593918997959360e08c015261481d818801614552565b908b015261482c818701614552565b908a015261483b818601614552565b9089015261484a818501614552565b90880152614859818401614645565b90870152614868818301614645565b9086015201614645565b908201523880808080808080808080614728565b5080fd5b503d61474c565b51903d90823e3d90fd5b91908110156131285760051b0190565b356001600160a01b0381168103610408579056feddf252ad1be2c89b69c2b068fc378daa952ba7f163c4a11628f55a4df523b3efa26469706673582212208046fdfadc562765ac9c2e847a1ae3d87449dbf2d055256c113b822f0397c17064736f6c634300081400332f8788117e7eff1d82e926ec794901d17c78024a50270940304540a733656f0d",
  "devdoc": {
    "details": "Read the documentation of DLoopCoreBase for more details      - This contract implement dLEND-specific lending operations for DLoopCoreBase",
    "errors": {
      "AccessControlBadConfirmation()": [
        {
          "details": "The caller of a function is not the expected one. NOTE: Don't confuse with {AccessControlUnauthorizedAccount}."
        }
      ],
      "AccessControlUnauthorizedAccount(address,bytes32)": [
        {
          "details": "The `account` is missing a role."
        }
      ],
      "ERC20InsufficientAllowance(address,uint256,uint256)": [
        {
          "details": "Indicates a failure with the `spender`s `allowance`. Used in transfers.",
          "params": {
            "allowance": "Amount of tokens a `spender` is allowed to operate with.",
            "needed": "Minimum amount required to perform a transfer.",
            "spender": "Address that may be allowed to operate on tokens without being their owner."
          }
        }
      ],
      "ERC20InsufficientBalance(address,uint256,uint256)": [
        {
          "details": "Indicates an error related to the current `balance` of a `sender`. Used in transfers.",
          "params": {
            "balance": "Current balance for the interacting account.",
            "needed": "Minimum amount required to perform a transfer.",
            "sender": "Address whose tokens are being transferred."
          }
        }
      ],
      "ERC20InvalidApprover(address)": [
        {
          "details": "Indicates a failure with the `approver` of a token to be approved. Used in approvals.",
          "params": {
            "approver": "Address initiating an approval operation."
          }
        }
      ],
      "ERC20InvalidReceiver(address)": [
        {
          "details": "Indicates a failure with the token `receiver`. Used in transfers.",
          "params": {
            "receiver": "Address to which tokens are being transferred."
          }
        }
      ],
      "ERC20InvalidSender(address)": [
        {
          "details": "Indicates a failure with the token `sender`. Used in transfers.",
          "params": {
            "sender": "Address whose tokens are being transferred."
          }
        }
      ],
      "ERC20InvalidSpender(address)": [
        {
          "details": "Indicates a failure with the `spender` to be approved. Used in approvals.",
          "params": {
            "spender": "Address that may be allowed to operate on tokens without being their owner."
          }
        }
      ],
      "ERC4626ExceededMaxDeposit(address,uint256,uint256)": [
        {
          "details": "Attempted to deposit more assets than the max amount for `receiver`."
        }
      ],
      "ERC4626ExceededMaxMint(address,uint256,uint256)": [
        {
          "details": "Attempted to mint more shares than the max amount for `receiver`."
        }
      ],
      "ERC4626ExceededMaxRedeem(address,uint256,uint256)": [
        {
          "details": "Attempted to redeem more shares than the max amount for `receiver`."
        }
      ],
      "ERC4626ExceededMaxWithdraw(address,uint256,uint256)": [
        {
          "details": "Attempted to withdraw more assets than the max amount for `receiver`."
        }
      ],
      "OwnableInvalidOwner(address)": [
        {
          "details": "The owner is not a valid owner account. (eg. `address(0)`)"
        }
      ],
      "OwnableUnauthorizedAccount(address)": [
        {
          "details": "The caller account is not authorized to perform an operation."
        }
      ],
      "ReentrancyGuardReentrantCall()": [
        {
          "details": "Unauthorized reentrant call."
        }
      ],
      "SafeERC20FailedOperation(address)": [
        {
          "details": "An operation with an ERC-20 token failed."
        }
      ]
    },
    "events": {
      "Approval(address,address,uint256)": {
        "details": "Emitted when the allowance of a `spender` for an `owner` is set by a call to {approve}. `value` is the new allowance."
      },
      "RoleAdminChanged(bytes32,bytes32,bytes32)": {
        "details": "Emitted when `newAdminRole` is set as ``role``'s admin role, replacing `previousAdminRole` `DEFAULT_ADMIN_ROLE` is the starting admin for all roles, despite {RoleAdminChanged} not being emitted to signal this."
      },
      "RoleGranted(bytes32,address,address)": {
        "details": "Emitted when `account` is granted `role`. `sender` is the account that originated the contract call. This account bears the admin role (for the granted role). Expected in cases where the role was granted using the internal {AccessControl-_grantRole}."
      },
      "RoleRevoked(bytes32,address,address)": {
        "details": "Emitted when `account` is revoked `role`. `sender` is the account that originated the contract call:   - if using `revokeRole`, it is the admin role bearer   - if using `renounceRole`, it is the role bearer (i.e. `account`)"
      },
      "Transfer(address,address,uint256)": {
        "details": "Emitted when `value` tokens are moved from one account (`from`) to another (`to`). Note that `value` may be zero."
      }
    },
    "kind": "dev",
    "methods": {
      "allowance(address,address)": {
        "details": "See {IERC20-allowance}."
      },
      "approve(address,uint256)": {
        "details": "See {IERC20-approve}. NOTE: If `value` is the maximum `uint256`, the allowance is not updated on `transferFrom`. This is semantically equivalent to an infinite approval. Requirements: - `spender` cannot be the zero address."
      },
      "asset()": {
        "details": "See {IERC4626-asset}. "
      },
      "balanceOf(address)": {
        "details": "See {IERC20-balanceOf}."
      },
      "compoundRewards(uint256,address[],address)": {
        "details": "Compounds multiple rewards",
        "params": {
          "amount": "The amount to compound",
          "receiver": "The address to receive the compounded rewards",
          "rewardTokens": "The reward tokens to claim"
        }
      },
      "constructor": {
        "details": "Constructor for the DLoopCoreDLend contract",
        "params": {
          "_collateralToken": "Address of the collateral token",
          "_dLendAssetToClaimFor": "Address of the dLEND asset to claim for",
          "_debtToken": "Address of the debt token",
          "_initialTreasuryFeeBps": "Initial treasury fee in basis points",
          "_lendingPoolAddressesProvider": "Address of the lending pool addresses provider",
          "_lowerBoundTargetLeverageBps": "Lower bound of target leverage in basis points",
          "_maxSubsidyBps": "Maximum subsidy in basis points",
          "_maxTreasuryFeeBps": "Maximum treasury fee in basis points",
          "_name": "Name of the vault token",
          "_rewardsController": "Address of the dLEND rewards controller",
          "_symbol": "Symbol of the vault token",
          "_targetLeverageBps": "Target leverage in basis points",
          "_targetStaticATokenWrapper": "Address of the target static aToken wrapper",
          "_treasury": "Address of the treasury",
          "_upperBoundTargetLeverageBps": "Upper bound of target leverage in basis points"
        }
      },
      "convertFromBaseCurrencyToToken(uint256,address)": {
        "details": "Converts an amount in base currency to the actual amount in the token",
        "params": {
          "amountInBase": "Amount in base currency",
          "token": "Address of the token"
        },
        "returns": {
          "_0": "amountInToken Amount in the token"
        }
      },
      "convertFromTokenAmountToBaseCurrency(uint256,address)": {
        "details": "Converts an amount in the token to the actual amount in base currency",
        "params": {
          "amountInToken": "Amount in the token",
          "token": "Address of the token"
        },
        "returns": {
          "_0": "amountInBase Amount in base currency"
        }
      },
      "convertToAssets(uint256)": {
        "details": "See {IERC4626-convertToAssets}. "
      },
      "convertToShares(uint256)": {
        "details": "See {IERC4626-convertToShares}. "
      },
      "decimals()": {
        "details": "Decimals are computed by adding the decimal offset on top of the underlying asset's decimals. This \"original\" value is cached during construction of the vault contract. If this read operation fails (e.g., the asset has not been created yet), a default of 18 is used to represent the underlying asset's decimals. See {IERC20Metadata-decimals}."
      },
      "decreaseLeverage(uint256,uint256)": {
        "details": "Decreases the leverage of the user by repaying debt and withdrawing collateral      - It requires to spend the debt token from the user's wallet to repay the debt to the pool      - It will send the withdrawn collateral asset to the user's wallet",
        "params": {
          "additionalDebtTokenAmount": "The additional amount of debt token to repay",
          "minReceivedAmount": "The minimum amount of collateral asset to receive"
        }
      },
      "deposit(uint256,address)": {
        "details": "See {IERC4626-deposit}. "
      },
      "getAmountToReachTargetLeverage(bool)": {
        "details": "Gets the rebalance amount to reach the target leverage in token unit      - This method is supposed to be used by the rebalancing service which will use it to quote the required        collateral/debt amount and the corresponding direction (increase or decrease)",
        "params": {
          "useVaultTokenBalance": "Whether to use the current token balance in the vault as the amount to rebalance      - It will help to save the additional collateral/debt token transfer from the caller to the vault, while getting        the same effect as calling increaseLeverage or decreaseLeverage with the required collateral/debt token amount"
        },
        "returns": {
          "direction": "The direction of the rebalance (1 for increase, -1 for decrease, 0 means no rebalance)",
          "tokenAmount": "The amount of token to call increaseLeverage or decreaseLeverage (in token unit)         - If the direction is 1, the amount is in collateral token         - If the direction is -1, the amount is in debt token"
        }
      },
      "getAssetPriceFromOracle(address)": {
        "details": "Gets the asset price from the oracle",
        "params": {
          "asset": "Address of the asset"
        },
        "returns": {
          "_0": "uint256 Price of the asset"
        }
      },
      "getBorrowAmountThatKeepCurrentLeverage(address,address,uint256,uint256)": {
        "details": "Gets the borrow amount that keeps the current leverage",
        "params": {
          "collateralAsset": "The collateral asset",
          "debtAsset": "The debt asset",
          "leverageBpsBeforeSupply": "Leverage in basis points before supplying",
          "suppliedCollateralAmount": "The actual supplied amount of collateral asset"
        },
        "returns": {
          "expectedBorrowAmount": "The expected borrow amount that keeps the current leverage"
        }
      },
      "getCollateralTokenAddress()": {
        "details": "Gets the address of the collateral token",
        "returns": {
          "_0": "address The address of the collateral token"
        }
      },
      "getCurrentLeverageBps()": {
        "details": "Gets the current leverage in basis points",
        "returns": {
          "_0": "uint256 The current leverage in basis points"
        }
      },
      "getCurrentSubsidyBps()": {
        "details": "Gets the current subsidy in basis points",
        "returns": {
          "_0": "uint256 The current subsidy in basis points"
        }
      },
      "getDTokenBalance(address)": {
        "details": "Gets the DToken balance of the vault",
        "params": {
          "tokenAddress": "The address of the token"
        },
        "returns": {
          "_0": "uint256 The DToken balance of the vault"
        }
      },
      "getDebtTokenAddress()": {
        "details": "Gets the address of the debt token",
        "returns": {
          "_0": "address The address of the debt token"
        }
      },
      "getDefaultMaxSubsidyBps()": {
        "details": "Gets the default maximum subsidy in basis points",
        "returns": {
          "_0": "uint256 The default maximum subsidy in basis points"
        }
      },
      "getLendingOracle()": {
        "details": "Gets the lending oracle",
        "returns": {
          "_0": "IPriceOracleGetter The lending oracle interface"
        }
      },
      "getLendingPool()": {
        "details": "Gets the lending pool",
        "returns": {
          "_0": "ILendingPool The lending pool interface"
        }
      },
      "getLendingPoolAddress()": {
        "details": "Gets the lending pool address",
        "returns": {
          "_0": "address The lending pool address"
        }
      },
      "getLeveragedAssets(uint256)": {
        "details": "Calculates the leveraged amount of the assets",
        "params": {
          "assets": "Amount of assets"
        },
        "returns": {
          "_0": "leveragedAssets Amount of leveraged assets"
        }
      },
      "getOracleAddress()": {
        "details": "Gets the oracle address",
        "returns": {
          "_0": "address The oracle address"
        }
      },
      "getRestrictedRescueTokens()": {
        "details": "Gets the restricted rescue tokens",
        "returns": {
          "_0": "address[] Restricted rescue tokens"
        }
      },
      "getRoleAdmin(bytes32)": {
        "details": "Returns the admin role that controls `role`. See {grantRole} and {revokeRole}. To change a role's admin, use {_setRoleAdmin}."
      },
      "getTotalCollateralAndDebtOfUserInBase(address)": {
        "details": "Gets the total collateral and debt of a user in base currency",
        "params": {
          "user": "Address of the user"
        },
        "returns": {
          "totalCollateralBase": "Total collateral in base currency",
          "totalDebtBase": "Total debt in base currency"
        }
      },
      "getTreasuryFee(uint256)": {
        "details": "Calculates the treasury fee for a given amount",
        "params": {
          "amount": "The amount to calculate the treasury fee for"
        },
        "returns": {
          "_0": "The treasury fee in the same unit as the amount"
        }
      },
      "getUnleveragedAssets(uint256)": {
        "details": "Calculates the unleveraged amount of the assets",
        "params": {
          "leveragedAssets": "Amount of leveraged assets"
        },
        "returns": {
          "_0": "unleveragedAssets Amount of unleveraged assets"
        }
      },
      "grantRole(bytes32,address)": {
        "details": "Grants `role` to `account`. If `account` had not been already granted `role`, emits a {RoleGranted} event. Requirements: - the caller must have ``role``'s admin role. May emit a {RoleGranted} event."
      },
      "hasRole(bytes32,address)": {
        "details": "Returns `true` if `account` has been granted `role`."
      },
      "increaseLeverage(uint256,uint256)": {
        "details": "Increases the leverage of the user by supplying collateral token and borrowing more debt token      - It requires to spend the collateral token from the user's wallet to supply to the pool      - It will send the borrowed debt token to the user's wallet",
        "params": {
          "additionalCollateralTokenAmount": "The additional amount of collateral token to supply",
          "minReceivedDebtTokenAmount": "The minimum amount of debt token to receive"
        }
      },
      "isTooImbalanced()": {
        "details": "Returns whether the current leverage is too imbalanced",
        "returns": {
          "_0": "bool True if leverage is too imbalanced, false otherwise"
        }
      },
      "mint(uint256,address)": {
        "details": "See {IERC4626-mint}. "
      },
      "name()": {
        "details": "Returns the name of the token."
      },
      "owner()": {
        "details": "Returns the address of the current owner."
      },
      "previewDeposit(uint256)": {
        "details": "See {IERC4626-previewDeposit}. "
      },
      "previewMint(uint256)": {
        "details": "See {IERC4626-previewMint}. "
      },
      "previewRedeem(uint256)": {
        "details": "See {IERC4626-previewRedeem}. "
      },
      "previewWithdraw(uint256)": {
        "details": "See {IERC4626-previewWithdraw}. "
      },
      "redeem(uint256,address,address)": {
        "details": "See {IERC4626-redeem}. "
      },
      "renounceOwnership()": {
        "details": "Leaves the contract without owner. It will not be possible to call `onlyOwner` functions. Can only be called by the current owner. NOTE: Renouncing ownership will leave the contract without an owner, thereby disabling any functionality that is only available to the owner."
      },
      "renounceRole(bytes32,address)": {
        "details": "Revokes `role` from the calling account. Roles are often managed via {grantRole} and {revokeRole}: this function's purpose is to provide a mechanism for accounts to lose their privileges if they are compromised (such as when a trusted device is misplaced). If the calling account had been revoked `role`, emits a {RoleRevoked} event. Requirements: - the caller must be `callerConfirmation`. May emit a {RoleRevoked} event."
      },
      "rescueToken(address,address,uint256)": {
        "details": "Rescues tokens accidentally sent to the contract (except for the collateral token and debt token)",
        "params": {
          "amount": "Amount of tokens to rescue",
          "receiver": "Address to receive the rescued tokens",
          "token": "Address of the token to rescue"
        }
      },
      "revokeRole(bytes32,address)": {
        "details": "Revokes `role` from `account`. If `account` had been granted `role`, emits a {RoleRevoked} event. Requirements: - the caller must have ``role``'s admin role. May emit a {RoleRevoked} event."
      },
      "setExchangeThreshold(uint256)": {
        "details": "Sets the minimum threshold for exchange operations",
        "params": {
          "newExchangeThreshold": "New minimum threshold amount"
        }
      },
      "setLeverageBounds(uint32,uint32)": {
        "details": "Sets the lower and upper bounds of target leverage",
        "params": {
          "_lowerBoundTargetLeverageBps": "New lower bound of target leverage in basis points",
          "_upperBoundTargetLeverageBps": "New upper bound of target leverage in basis points"
        }
      },
      "setMaxSubsidyBps(uint256)": {
        "details": "Sets the maximum subsidy in basis points",
        "params": {
          "_maxSubsidyBps": "New maximum subsidy in basis points"
        }
      },
      "setTreasury(address)": {
        "details": "Sets the treasury address",
        "params": {
          "newTreasury": "The new treasury address"
        }
      },
      "setTreasuryFeeBps(uint256)": {
        "details": "Sets the treasury fee in basis points",
        "params": {
          "newTreasuryFeeBps": "New treasury fee in basis points (1/100 of 1%)"
        }
      },
      "supportsInterface(bytes4)": {
        "details": "See {IERC165-supportsInterface}."
      },
      "symbol()": {
        "details": "Returns the symbol of the token, usually a shorter version of the name."
      },
      "totalAssets()": {
        "details": "Override of totalAssets from ERC4626",
        "returns": {
          "_0": "uint256 Total assets in the vault"
        }
      },
      "totalSupply()": {
        "details": "See {IERC20-totalSupply}."
      },
      "transfer(address,uint256)": {
        "details": "See {IERC20-transfer}. Requirements: - `to` cannot be the zero address. - the caller must have a balance of at least `value`."
      },
      "transferFrom(address,address,uint256)": {
        "details": "See {IERC20-transferFrom}. Skips emitting an {Approval} event indicating an allowance update. This is not required by the ERC. See {xref-ERC20-_approve-address-address-uint256-bool-}[_approve]. NOTE: Does not update the allowance if the current allowance is the maximum `uint256`. Requirements: - `from` and `to` cannot be the zero address. - `from` must have a balance of at least `value`. - the caller must have allowance for ``from``'s tokens of at least `value`."
      },
      "transferOwnership(address)": {
        "details": "Transfers ownership of the contract to a new account (`newOwner`). Can only be called by the current owner."
      },
      "withdraw(uint256,address,address)": {
        "details": "See {IERC4626-withdraw}. "
      }
    },
    "title": "DLoopCoreDLend",
    "version": 1
  },
  "userdoc": {
    "kind": "user",
    "methods": {},
    "version": 1
  },
  "storageLayout": {
    "storage": [
      {
        "astId": 946,
        "contract": "contracts/vaults/dloop/core/venue/dlend/DLoopCoreDLend.sol:DLoopCoreDLend",
        "label": "_balances",
        "offset": 0,
        "slot": "0",
        "type": "t_mapping(t_address,t_uint256)"
      },
      {
        "astId": 952,
        "contract": "contracts/vaults/dloop/core/venue/dlend/DLoopCoreDLend.sol:DLoopCoreDLend",
        "label": "_allowances",
        "offset": 0,
        "slot": "1",
        "type": "t_mapping(t_address,t_mapping(t_address,t_uint256))"
      },
      {
        "astId": 954,
        "contract": "contracts/vaults/dloop/core/venue/dlend/DLoopCoreDLend.sol:DLoopCoreDLend",
        "label": "_totalSupply",
        "offset": 0,
        "slot": "2",
        "type": "t_uint256"
      },
      {
        "astId": 956,
        "contract": "contracts/vaults/dloop/core/venue/dlend/DLoopCoreDLend.sol:DLoopCoreDLend",
        "label": "_name",
        "offset": 0,
        "slot": "3",
        "type": "t_string_storage"
      },
      {
        "astId": 958,
        "contract": "contracts/vaults/dloop/core/venue/dlend/DLoopCoreDLend.sol:DLoopCoreDLend",
        "label": "_symbol",
        "offset": 0,
        "slot": "4",
        "type": "t_string_storage"
      },
      {
        "astId": 387,
        "contract": "contracts/vaults/dloop/core/venue/dlend/DLoopCoreDLend.sol:DLoopCoreDLend",
        "label": "_owner",
        "offset": 0,
        "slot": "5",
        "type": "t_address"
      },
      {
        "astId": 26,
        "contract": "contracts/vaults/dloop/core/venue/dlend/DLoopCoreDLend.sol:DLoopCoreDLend",
        "label": "_roles",
        "offset": 0,
        "slot": "6",
        "type": "t_mapping(t_bytes32,t_struct(RoleData)21_storage)"
      },
      {
        "astId": 2793,
        "contract": "contracts/vaults/dloop/core/venue/dlend/DLoopCoreDLend.sol:DLoopCoreDLend",
        "label": "_status",
        "offset": 0,
        "slot": "7",
        "type": "t_uint256"
      },
      {
        "astId": 8492,
        "contract": "contracts/vaults/dloop/core/venue/dlend/DLoopCoreDLend.sol:DLoopCoreDLend",
        "label": "lowerBoundTargetLeverageBps",
        "offset": 0,
        "slot": "8",
        "type": "t_uint32"
      },
      {
        "astId": 8494,
        "contract": "contracts/vaults/dloop/core/venue/dlend/DLoopCoreDLend.sol:DLoopCoreDLend",
        "label": "upperBoundTargetLeverageBps",
        "offset": 4,
        "slot": "8",
        "type": "t_uint32"
      },
      {
        "astId": 8496,
        "contract": "contracts/vaults/dloop/core/venue/dlend/DLoopCoreDLend.sol:DLoopCoreDLend",
        "label": "maxSubsidyBps",
        "offset": 0,
        "slot": "9",
        "type": "t_uint256"
      },
      {
        "astId": 18129,
        "contract": "contracts/vaults/dloop/core/venue/dlend/DLoopCoreDLend.sol:DLoopCoreDLend",
        "label": "treasury",
        "offset": 0,
        "slot": "10",
        "type": "t_address"
      },
      {
        "astId": 18131,
        "contract": "contracts/vaults/dloop/core/venue/dlend/DLoopCoreDLend.sol:DLoopCoreDLend",
        "label": "treasuryFeeBps",
        "offset": 0,
        "slot": "11",
        "type": "t_uint256"
      },
      {
        "astId": 18133,
        "contract": "contracts/vaults/dloop/core/venue/dlend/DLoopCoreDLend.sol:DLoopCoreDLend",
        "label": "exchangeThreshold",
        "offset": 0,
        "slot": "12",
        "type": "t_uint256"
      }
    ],
    "types": {
      "t_address": {
        "encoding": "inplace",
        "label": "address",
        "numberOfBytes": "20"
      },
      "t_bool": {
        "encoding": "inplace",
        "label": "bool",
        "numberOfBytes": "1"
      },
      "t_bytes32": {
        "encoding": "inplace",
        "label": "bytes32",
        "numberOfBytes": "32"
      },
      "t_mapping(t_address,t_bool)": {
        "encoding": "mapping",
        "key": "t_address",
        "label": "mapping(address => bool)",
        "numberOfBytes": "32",
        "value": "t_bool"
      },
      "t_mapping(t_address,t_mapping(t_address,t_uint256))": {
        "encoding": "mapping",
        "key": "t_address",
        "label": "mapping(address => mapping(address => uint256))",
        "numberOfBytes": "32",
        "value": "t_mapping(t_address,t_uint256)"
      },
      "t_mapping(t_address,t_uint256)": {
        "encoding": "mapping",
        "key": "t_address",
        "label": "mapping(address => uint256)",
        "numberOfBytes": "32",
        "value": "t_uint256"
      },
      "t_mapping(t_bytes32,t_struct(RoleData)21_storage)": {
        "encoding": "mapping",
        "key": "t_bytes32",
        "label": "mapping(bytes32 => struct AccessControl.RoleData)",
        "numberOfBytes": "32",
        "value": "t_struct(RoleData)21_storage"
      },
      "t_string_storage": {
        "encoding": "bytes",
        "label": "string",
        "numberOfBytes": "32"
      },
      "t_struct(RoleData)21_storage": {
        "encoding": "inplace",
        "label": "struct AccessControl.RoleData",
        "members": [
          {
            "astId": 18,
            "contract": "contracts/vaults/dloop/core/venue/dlend/DLoopCoreDLend.sol:DLoopCoreDLend",
            "label": "hasRole",
            "offset": 0,
            "slot": "0",
            "type": "t_mapping(t_address,t_bool)"
          },
          {
            "astId": 20,
            "contract": "contracts/vaults/dloop/core/venue/dlend/DLoopCoreDLend.sol:DLoopCoreDLend",
            "label": "adminRole",
            "offset": 0,
            "slot": "1",
            "type": "t_bytes32"
          }
        ],
        "numberOfBytes": "64"
      },
      "t_uint256": {
        "encoding": "inplace",
        "label": "uint256",
        "numberOfBytes": "32"
      },
      "t_uint32": {
        "encoding": "inplace",
        "label": "uint32",
        "numberOfBytes": "4"
      }
    }
  }
}