{
  "address": "0x672a8B7dA900C49f3Ae3DDa9aBDCE1aDc45abcCa",
  "abi": [
    {
      "inputs": [
        {
          "internalType": "address",
          "name": "_dstable",
          "type": "address"
        },
        {
          "internalType": "address",
          "name": "_collateralHolderVault",
          "type": "address"
        },
        {
          "internalType": "contract IPriceOracleGetter",
          "name": "_oracle",
          "type": "address"
        }
      ],
      "stateMutability": "nonpayable",
      "type": "constructor"
    },
    {
      "inputs": [],
      "name": "AccessControlBadConfirmation",
      "type": "error"
    },
    {
      "inputs": [
        {
          "internalType": "address",
          "name": "account",
          "type": "address"
        },
        {
          "internalType": "bytes32",
          "name": "neededRole",
          "type": "bytes32"
        }
      ],
      "name": "AccessControlUnauthorizedAccount",
      "type": "error"
    },
    {
      "inputs": [
        {
          "internalType": "uint256",
          "name": "startingSupply",
          "type": "uint256"
        },
        {
          "internalType": "uint256",
          "name": "endingSupply",
          "type": "uint256"
        }
      ],
      "name": "AmoSupplyInvariantViolation",
      "type": "error"
    },
    {
      "inputs": [
        {
          "internalType": "address",
          "name": "amoVault",
          "type": "address"
        }
      ],
      "name": "AmoVaultAlreadyEnabled",
      "type": "error"
    },
    {
      "inputs": [],
      "name": "CannotTransferDStable",
      "type": "error"
    },
    {
      "inputs": [
        {
          "internalType": "address",
          "name": "amoVault",
          "type": "address"
        }
      ],
      "name": "InactiveAmoVault",
      "type": "error"
    },
    {
      "inputs": [
        {
          "internalType": "uint256",
          "name": "baseCurrencyUnit",
          "type": "uint256"
        }
      ],
      "name": "IncorrectBaseCurrencyUnit",
      "type": "error"
    },
    {
      "inputs": [
        {
          "internalType": "uint256",
          "name": "takeProfitValueInBase",
          "type": "uint256"
        },
        {
          "internalType": "int256",
          "name": "availableProfitInBase",
          "type": "int256"
        }
      ],
      "name": "InsufficientProfits",
      "type": "error"
    },
    {
      "anonymous": false,
      "inputs": [
        {
          "indexed": true,
          "internalType": "address",
          "name": "amoVault",
          "type": "address"
        },
        {
          "indexed": false,
          "internalType": "uint256",
          "name": "dstableAmount",
          "type": "uint256"
        }
      ],
      "name": "AmoAllocated",
      "type": "event"
    },
    {
      "anonymous": false,
      "inputs": [
        {
          "indexed": true,
          "internalType": "address",
          "name": "amoVault",
          "type": "address"
        },
        {
          "indexed": false,
          "internalType": "uint256",
          "name": "dstableAmount",
          "type": "uint256"
        }
      ],
      "name": "AmoDeallocated",
      "type": "event"
    },
    {
      "anonymous": false,
      "inputs": [
        {
          "indexed": true,
          "internalType": "address",
          "name": "amoVault",
          "type": "address"
        },
        {
          "indexed": false,
          "internalType": "bool",
          "name": "isActive",
          "type": "bool"
        }
      ],
      "name": "AmoVaultSet",
      "type": "event"
    },
    {
      "anonymous": false,
      "inputs": [
        {
          "indexed": true,
          "internalType": "address",
          "name": "newOracle",
          "type": "address"
        }
      ],
      "name": "OracleSet",
      "type": "event"
    },
    {
      "anonymous": false,
      "inputs": [
        {
          "indexed": true,
          "internalType": "address",
          "name": "amoVault",
          "type": "address"
        },
        {
          "indexed": false,
          "internalType": "uint256",
          "name": "amount",
          "type": "uint256"
        }
      ],
      "name": "ProfitsWithdrawn",
      "type": "event"
    },
    {
      "anonymous": false,
      "inputs": [
        {
          "indexed": true,
          "internalType": "bytes32",
          "name": "role",
          "type": "bytes32"
        },
        {
          "indexed": true,
          "internalType": "bytes32",
          "name": "previousAdminRole",
          "type": "bytes32"
        },
        {
          "indexed": true,
          "internalType": "bytes32",
          "name": "newAdminRole",
          "type": "bytes32"
        }
      ],
      "name": "RoleAdminChanged",
      "type": "event"
    },
    {
      "anonymous": false,
      "inputs": [
        {
          "indexed": true,
          "internalType": "bytes32",
          "name": "role",
          "type": "bytes32"
        },
        {
          "indexed": true,
          "internalType": "address",
          "name": "account",
          "type": "address"
        },
        {
          "indexed": true,
          "internalType": "address",
          "name": "sender",
          "type": "address"
        }
      ],
      "name": "RoleGranted",
      "type": "event"
    },
    {
      "anonymous": false,
      "inputs": [
        {
          "indexed": true,
          "internalType": "bytes32",
          "name": "role",
          "type": "bytes32"
        },
        {
          "indexed": true,
          "internalType": "address",
          "name": "account",
          "type": "address"
        },
        {
          "indexed": true,
          "internalType": "address",
          "name": "sender",
          "type": "address"
        }
      ],
      "name": "RoleRevoked",
      "type": "event"
    },
    {
      "inputs": [],
      "name": "AMO_ALLOCATOR_ROLE",
      "outputs": [
        {
          "internalType": "bytes32",
          "name": "",
          "type": "bytes32"
        }
      ],
      "stateMutability": "view",
      "type": "function"
    },
    {
      "inputs": [],
      "name": "BASE_UNIT",
      "outputs": [
        {
          "internalType": "uint256",
          "name": "",
          "type": "uint256"
        }
      ],
      "stateMutability": "view",
      "type": "function"
    },
    {
      "inputs": [],
      "name": "DEFAULT_ADMIN_ROLE",
      "outputs": [
        {
          "internalType": "bytes32",
          "name": "",
          "type": "bytes32"
        }
      ],
      "stateMutability": "view",
      "type": "function"
    },
    {
      "inputs": [],
      "name": "FEE_COLLECTOR_ROLE",
      "outputs": [
        {
          "internalType": "bytes32",
          "name": "",
          "type": "bytes32"
        }
      ],
      "stateMutability": "view",
      "type": "function"
    },
    {
      "inputs": [
        {
          "internalType": "address",
          "name": "amoVault",
          "type": "address"
        },
        {
          "internalType": "uint256",
          "name": "dstableAmount",
          "type": "uint256"
        }
      ],
      "name": "allocateAmo",
      "outputs": [],
      "stateMutability": "nonpayable",
      "type": "function"
    },
    {
      "inputs": [
        {
          "internalType": "address",
          "name": "amoVault",
          "type": "address"
        }
      ],
      "name": "amoVaultAllocation",
      "outputs": [
        {
          "internalType": "uint256",
          "name": "",
          "type": "uint256"
        }
      ],
      "stateMutability": "view",
      "type": "function"
    },
    {
      "inputs": [],
      "name": "amoVaults",
      "outputs": [
        {
          "internalType": "address[]",
          "name": "",
          "type": "address[]"
        }
      ],
      "stateMutability": "view",
      "type": "function"
    },
    {
      "inputs": [],
      "name": "availableProfitInBase",
      "outputs": [
        {
          "internalType": "int256",
          "name": "",
          "type": "int256"
        }
      ],
      "stateMutability": "view",
      "type": "function"
    },
    {
      "inputs": [
        {
          "internalType": "address",
          "name": "vaultAddress",
          "type": "address"
        }
      ],
      "name": "availableVaultProfitsInBase",
      "outputs": [
        {
          "internalType": "int256",
          "name": "",
          "type": "int256"
        }
      ],
      "stateMutability": "view",
      "type": "function"
    },
    {
      "inputs": [],
      "name": "baseCurrencyUnit",
      "outputs": [
        {
          "internalType": "uint256",
          "name": "",
          "type": "uint256"
        }
      ],
      "stateMutability": "view",
      "type": "function"
    },
    {
      "inputs": [
        {
          "internalType": "uint256",
          "name": "baseValue",
          "type": "uint256"
        }
      ],
      "name": "baseValueToDstableAmount",
      "outputs": [
        {
          "internalType": "uint256",
          "name": "",
          "type": "uint256"
        }
      ],
      "stateMutability": "view",
      "type": "function"
    },
    {
      "inputs": [],
      "name": "collateralHolderVault",
      "outputs": [
        {
          "internalType": "contract CollateralVault",
          "name": "",
          "type": "address"
        }
      ],
      "stateMutability": "view",
      "type": "function"
    },
    {
      "inputs": [
        {
          "internalType": "address",
          "name": "amoVault",
          "type": "address"
        },
        {
          "internalType": "uint256",
          "name": "dstableAmount",
          "type": "uint256"
        }
      ],
      "name": "deallocateAmo",
      "outputs": [],
      "stateMutability": "nonpayable",
      "type": "function"
    },
    {
      "inputs": [
        {
          "internalType": "uint256",
          "name": "dstableAmount",
          "type": "uint256"
        }
      ],
      "name": "decreaseAmoSupply",
      "outputs": [],
      "stateMutability": "nonpayable",
      "type": "function"
    },
    {
      "inputs": [
        {
          "internalType": "address",
          "name": "amoVault",
          "type": "address"
        }
      ],
      "name": "disableAmoVault",
      "outputs": [],
      "stateMutability": "nonpayable",
      "type": "function"
    },
    {
      "inputs": [],
      "name": "dstable",
      "outputs": [
        {
          "internalType": "contract IMintableERC20",
          "name": "",
          "type": "address"
        }
      ],
      "stateMutability": "view",
      "type": "function"
    },
    {
      "inputs": [
        {
          "internalType": "uint256",
          "name": "dstableAmount",
          "type": "uint256"
        }
      ],
      "name": "dstableAmountToBaseValue",
      "outputs": [
        {
          "internalType": "uint256",
          "name": "",
          "type": "uint256"
        }
      ],
      "stateMutability": "view",
      "type": "function"
    },
    {
      "inputs": [
        {
          "internalType": "address",
          "name": "amoVault",
          "type": "address"
        }
      ],
      "name": "enableAmoVault",
      "outputs": [],
      "stateMutability": "nonpayable",
      "type": "function"
    },
    {
      "inputs": [
        {
          "internalType": "bytes32",
          "name": "role",
          "type": "bytes32"
        }
      ],
      "name": "getRoleAdmin",
      "outputs": [
        {
          "internalType": "bytes32",
          "name": "",
          "type": "bytes32"
        }
      ],
      "stateMutability": "view",
      "type": "function"
    },
    {
      "inputs": [
        {
          "internalType": "bytes32",
          "name": "role",
          "type": "bytes32"
        },
        {
          "internalType": "address",
          "name": "account",
          "type": "address"
        }
      ],
      "name": "grantRole",
      "outputs": [],
      "stateMutability": "nonpayable",
      "type": "function"
    },
    {
      "inputs": [
        {
          "internalType": "bytes32",
          "name": "role",
          "type": "bytes32"
        },
        {
          "internalType": "address",
          "name": "account",
          "type": "address"
        }
      ],
      "name": "hasRole",
      "outputs": [
        {
          "internalType": "bool",
          "name": "",
          "type": "bool"
        }
      ],
      "stateMutability": "view",
      "type": "function"
    },
    {
      "inputs": [
        {
          "internalType": "address",
          "name": "amoVault",
          "type": "address"
        }
      ],
      "name": "isAmoActive",
      "outputs": [
        {
          "internalType": "bool",
          "name": "",
          "type": "bool"
        }
      ],
      "stateMutability": "view",
      "type": "function"
    },
    {
      "inputs": [],
      "name": "oracle",
      "outputs": [
        {
          "internalType": "contract IPriceOracleGetter",
          "name": "",
          "type": "address"
        }
      ],
      "stateMutability": "view",
      "type": "function"
    },
    {
      "inputs": [
        {
          "internalType": "bytes32",
          "name": "role",
          "type": "bytes32"
        },
        {
          "internalType": "address",
          "name": "callerConfirmation",
          "type": "address"
        }
      ],
      "name": "renounceRole",
      "outputs": [],
      "stateMutability": "nonpayable",
      "type": "function"
    },
    {
      "inputs": [
        {
          "internalType": "bytes32",
          "name": "role",
          "type": "bytes32"
        },
        {
          "internalType": "address",
          "name": "account",
          "type": "address"
        }
      ],
      "name": "revokeRole",
      "outputs": [],
      "stateMutability": "nonpayable",
      "type": "function"
    },
    {
      "inputs": [
        {
          "internalType": "uint256",
          "name": "_newBaseCurrencyUnit",
          "type": "uint256"
        }
      ],
      "name": "setBaseCurrencyUnit",
      "outputs": [],
      "stateMutability": "nonpayable",
      "type": "function"
    },
    {
      "inputs": [
        {
          "internalType": "address",
          "name": "_collateralVault",
          "type": "address"
        }
      ],
      "name": "setCollateralVault",
      "outputs": [],
      "stateMutability": "nonpayable",
      "type": "function"
    },
    {
      "inputs": [
        {
          "internalType": "contract IPriceOracleGetter",
          "name": "newOracle",
          "type": "address"
        }
      ],
      "name": "setOracle",
      "outputs": [],
      "stateMutability": "nonpayable",
      "type": "function"
    },
    {
      "inputs": [
        {
          "internalType": "bytes4",
          "name": "interfaceId",
          "type": "bytes4"
        }
      ],
      "name": "supportsInterface",
      "outputs": [
        {
          "internalType": "bool",
          "name": "",
          "type": "bool"
        }
      ],
      "stateMutability": "view",
      "type": "function"
    },
    {
      "inputs": [],
      "name": "totalAllocated",
      "outputs": [
        {
          "internalType": "uint256",
          "name": "",
          "type": "uint256"
        }
      ],
      "stateMutability": "view",
      "type": "function"
    },
    {
      "inputs": [],
      "name": "totalAmoSupply",
      "outputs": [
        {
          "internalType": "uint256",
          "name": "",
          "type": "uint256"
        }
      ],
      "stateMutability": "view",
      "type": "function"
    },
    {
      "inputs": [],
      "name": "totalCollateralValue",
      "outputs": [
        {
          "internalType": "uint256",
          "name": "",
          "type": "uint256"
        }
      ],
      "stateMutability": "view",
      "type": "function"
    },
    {
      "inputs": [
        {
          "internalType": "address",
          "name": "amoVault",
          "type": "address"
        },
        {
          "internalType": "address",
          "name": "token",
          "type": "address"
        },
        {
          "internalType": "uint256",
          "name": "amount",
          "type": "uint256"
        }
      ],
      "name": "transferFromAmoVaultToHoldingVault",
      "outputs": [],
      "stateMutability": "nonpayable",
      "type": "function"
    },
    {
      "inputs": [
        {
          "internalType": "address",
          "name": "amoVault",
          "type": "address"
        },
        {
          "internalType": "address",
          "name": "token",
          "type": "address"
        },
        {
          "internalType": "uint256",
          "name": "amount",
          "type": "uint256"
        }
      ],
      "name": "transferFromHoldingVaultToAmoVault",
      "outputs": [],
      "stateMutability": "nonpayable",
      "type": "function"
    },
    {
      "inputs": [
        {
          "internalType": "contract AmoVault",
          "name": "amoVault",
          "type": "address"
        },
        {
          "internalType": "address",
          "name": "recipient",
          "type": "address"
        },
        {
          "internalType": "address",
          "name": "takeProfitToken",
          "type": "address"
        },
        {
          "internalType": "uint256",
          "name": "takeProfitAmount",
          "type": "uint256"
        }
      ],
      "name": "withdrawProfits",
      "outputs": [
        {
          "internalType": "uint256",
          "name": "takeProfitValueInBase",
          "type": "uint256"
        }
      ],
      "stateMutability": "nonpayable",
      "type": "function"
    }
  ],
  "transactionHash": "0x3d052c1db68365b7b238469090a5d6cf3505d51aa3193432fc28dfa93fc59c44",
  "args": [
    "0x01050e6157602FeBB120485118892105A244eCC6",
    "0x8F7a077f57D4F710ce3AB62493cbfCD6b2b4FB25",
    "0xD69707a96e6b6FA11edEFB95b0A1540B155F9Ef2"
  ],
  "numDeployments": 1,
  "solcInputHash": "8e62c4f78e5ecab2d6a0878ef9357cc0",
  "bytecode": "0x60a06040523480156200001157600080fd5b506040516200217a3803806200217a833981016040819052620000349162000333565b80816001600160a01b0316638c89b64f6040518163ffffffff1660e01b8152600401602060405180830381865afa15801562000074573d6000803e3d6000fd5b505050506040513d601f19601f820116820180604052508101906200009a919062000387565b600180546001600160a01b0319166001600160a01b0384161790556002819055620000c7600033620001d4565b5050600780546001600160a01b038087166001600160a01b03199283161790925560088054868416921691909117905560015460408051638c89b64f60e01b81529051919092169250638c89b64f916004808201926020929091908290030181865afa1580156200013c573d6000803e3d6000fd5b505050506040513d601f19601f8201168201806040525081019062000162919062000387565b60805262000172600033620001d4565b506200019f7fc304524b36c64136ce5783ff1658be193c8352a90708830b9863880958c1fddd3362000283565b620001cb7f2dca0f5ce7e75a4b43fe2b0d6f5d0b7a2bf92ecf89f8f0aa17b8308b670388213362000283565b505050620003a1565b6000828152602081815260408083206001600160a01b038516845290915281205460ff1662000279576000838152602081815260408083206001600160a01b03861684529091529020805460ff19166001179055620002303390565b6001600160a01b0316826001600160a01b0316847f2f8788117e7eff1d82e926ec794901d17c78024a50270940304540a733656f0d60405160405180910390a45060016200027d565b5060005b92915050565b600082815260208190526040902060010154620002a081620002b2565b620002ac8383620001d4565b50505050565b620002be8133620002c1565b50565b6000828152602081815260408083206001600160a01b038516845290915290205460ff16620003195760405163e2517d3f60e01b81526001600160a01b03821660048201526024810183905260440160405180910390fd5b5050565b6001600160a01b0381168114620002be57600080fd5b6000806000606084860312156200034957600080fd5b835162000356816200031d565b602085015190935062000369816200031d565b60408501519092506200037c816200031d565b809150509250925092565b6000602082840312156200039a57600080fd5b5051919050565b608051611dbd620003bd60003960006102580152611dbd6000f3fe608060405234801561001057600080fd5b50600436106102115760003560e01c80637700319411610125578063c0ef3d44116100ad578063ed1f3e4c1161007c578063ed1f3e4c14610493578063f3bddde1146104a6578063fab9300e146104af578063fb5b3db7146104c2578063fdc9a038146104d557600080fd5b8063c0ef3d4414610447578063d547741f1461045a578063d54bc55e1461046d578063e67736bf1461048057600080fd5b806385b30e18116100f457806385b30e18146103f357806391d148541461040657806391e5287b1461041957806397fe30ef1461042c578063a217fddf1461043f57600080fd5b8063770031941461039a578063773df151146103ad5780637adbf973146103b55780637dc0d1d0146103c857600080fd5b806336568abe116101a85780634a0bbabb116101775780634a0bbabb146103275780634fc6c7531461033a57806362a2a47c1461034d57806368a806c414610374578063764c42301461038757600080fd5b806336568abe146102e15780633a2e845a146102f45780633c2df4991461030957806345f7f2491461031e57600080fd5b8063248a9ca3116101e4578063248a9ca31461029b578063273a5d95146102be5780632a6739a2146102c65780632f2ff15d146102ce57600080fd5b8063012f257a1461021657806301ffc9a71461022b5780630e962f00146102535780631661190914610288575b600080fd5b610229610224366004611981565b6104e8565b005b61023e6102393660046119c2565b610678565b60405190151581526020015b60405180910390f35b61027a7f000000000000000000000000000000000000000000000000000000000000000081565b60405190815260200161024a565b6102296102963660046119ec565b6106af565b61027a6102a9366004611a09565b60009081526020819052604090206001015490565b61027a610742565b61027a6107a5565b6102296102dc366004611a22565b61085b565b6102296102ef366004611a22565b610886565b6102fc6108be565b60405161024a9190611a52565b61027a600080516020611d6883398151915281565b61027a60065481565b610229610335366004611a09565b6108cf565b61027a610348366004611a9f565b6108e0565b61027a7f2dca0f5ce7e75a4b43fe2b0d6f5d0b7a2bf92ecf89f8f0aa17b8308b6703882181565b6102296103823660046119ec565b610a7a565b610229610395366004611af0565b610aa8565b6102296103a83660046119ec565b610c08565b61027a610c91565b6102296103c33660046119ec565b610d18565b6001546103db906001600160a01b031681565b6040516001600160a01b03909116815260200161024a565b61023e6104013660046119ec565b610df7565b61023e610414366004611a22565b610e04565b61027a610427366004611a09565b610e2d565b6007546103db906001600160a01b031681565b61027a600081565b61027a6104553660046119ec565b610f3f565b610229610468366004611a22565b610fd3565b61027a61047b366004611a09565b610ff8565b6008546103db906001600160a01b031681565b6102296104a1366004611af0565b6110ef565b61027a60025481565b6102296104bd366004611981565b611264565b61027a6104d03660046119ec565b611411565b6102296104e3366004611a09565b61143a565b600080516020611d68833981519152610500816114b4565b6007546001600160a01b039081169084160361052f57604051633827c2d760e11b815260040160405180910390fd5b60085460405163e00cb4a560e01b8152600481018490526001600160a01b038581166024830152600092169063e00cb4a590604401602060405180830381865afa158015610581573d6000803e3d6000fd5b505050506040513d601f19601f820116820180604052508101906105a59190611b1c565b905060006105b282610ff8565b905060006105c16003886114c1565b9150829050818111156105d15750805b6105e8886105df8385611b4b565b600391906114e8565b5080600660008282546105fb9190611b4b565b909155505060085460405163627160f360e11b81526001600160a01b0391821660048201526024810188905288821660448201529089169063c4e2c1e690606401600060405180830381600087803b15801561065657600080fd5b505af115801561066a573d6000803e3d6000fd5b505050505050505050505050565b60006001600160e01b03198216637965db0b60e01b14806106a957506301ffc9a760e01b6001600160e01b03198316145b92915050565b60006106ba816114b4565b6106c56003836114fe565b6106f257604051631c5620f360e31b81526001600160a01b03831660048201526024015b60405180910390fd5b6106fd600383611513565b50604051600081526001600160a01b038316907f2017a03d63122e396be484633b7d9ed729e8fabe2e0587ccd5e42d8bfde86700906020015b60405180910390a25050565b600080805b6107516003611528565b81101561079f576000610765600383611533565b50905061077181610df7565b1561078c5761077f81610f3f565b6107899084611b5e565b92505b508061079781611b86565b915050610747565b50919050565b600080805b6107b46003611528565b81101561079f5760006107c8600383611533565b5090506107d481610df7565b1561084857806001600160a01b0316632a6739a26040518163ffffffff1660e01b8152600401602060405180830381865afa158015610817573d6000803e3d6000fd5b505050506040513d601f19601f8201168201806040525081019061083b9190611b1c565b6108459084611b9f565b92505b508061085381611b86565b9150506107aa565b600082815260208190526040902060010154610876816114b4565b6108808383611542565b50505050565b6001600160a01b03811633146108af5760405163334bd91960e11b815260040160405180910390fd5b6108b982826115d4565b505050565b60606108ca600361163f565b905090565b60006108da816114b4565b50600255565b60007f2dca0f5ce7e75a4b43fe2b0d6f5d0b7a2bf92ecf89f8f0aa17b8308b6703882161090c816114b4565b60405163e00cb4a560e01b8152600481018490526001600160a01b03858116602483015287169063e00cb4a590604401602060405180830381865afa158015610959573d6000803e3d6000fd5b505050506040513d601f19601f8201168201806040525081019061097d9190611b1c565b9150600061098a87610f3f565b905060008113158061099b57508083135b156109c357604051631d7ed6ef60e11b815260048101849052602481018290526044016106e9565b60405163627160f360e11b81526001600160a01b03878116600483015260248201869052868116604483015288169063c4e2c1e690606401600060405180830381600087803b158015610a1557600080fd5b505af1158015610a29573d6000803e3d6000fd5b50505050866001600160a01b03167f124fd12bda4dcb813885ca782fb4ea9350d4f752b1a881cadf8742d8f128bb8e84604051610a6891815260200190565b60405180910390a25050949350505050565b6000610a85816114b4565b50600880546001600160a01b0319166001600160a01b0392909216919091179055565b600080516020611d68833981519152610ac0816114b4565b6000610aca610c91565b90506000610ad96003866114c1565b9150508015610af257610af0856105df8684611b4b565b505b8360066000828254610b049190611b4b565b90915550506007546040516323b872dd60e01b81526001600160a01b03878116600483015230602483015260448201879052909116906323b872dd906064016020604051808303816000875af1158015610b62573d6000803e3d6000fd5b505050506040513d601f19601f82011682018060405250810190610b869190611bb2565b506000610b91610c91565b9050828114610bbd57604051637614d04360e11b815260048101849052602481018290526044016106e9565b856001600160a01b03167fc57e1ebcdc3ba533a9852552e139d8119d9599c48177705d00b4100a32c046d886604051610bf891815260200190565b60405180910390a2505050505050565b6000610c13816114b4565b610c1e6003836114fe565b15610c475760405163ad2a3c3160e01b81526001600160a01b03831660048201526024016106e9565b610c5460038360006114e8565b50604051600181526001600160a01b038316907f2017a03d63122e396be484633b7d9ed729e8fabe2e0587ccd5e42d8bfde8670090602001610736565b6007546040516370a0823160e01b815230600482015260009182916001600160a01b03909116906370a0823190602401602060405180830381865afa158015610cde573d6000803e3d6000fd5b505050506040513d601f19601f82011682018060405250810190610d029190611b1c565b905060065481610d129190611b9f565b91505090565b6000610d23816114b4565b600254826001600160a01b0316638c89b64f6040518163ffffffff1660e01b8152600401602060405180830381865afa158015610d64573d6000803e3d6000fd5b505050506040513d601f19601f82011682018060405250810190610d889190611b1c565b14610dac57600254604051639b6812b960e01b81526004016106e991815260200190565b600180546001600160a01b0319166001600160a01b0384169081179091556040517f3f32684a32a11dabdbb8c0177de80aa3ae36a004d75210335b49e544e48cd0aa90600090a25050565b60006106a96003836114fe565b6000918252602082815260408084206001600160a01b0393909316845291905290205460ff1690565b600080600760009054906101000a90046001600160a01b03166001600160a01b031663313ce5676040518163ffffffff1660e01b8152600401602060405180830381865afa158015610e83573d6000803e3d6000fd5b505050506040513d601f19601f82011682018060405250810190610ea79190611bd4565b9050610eb481600a611cd3565b60015460075460405163b3596f0760e01b81526001600160a01b03918216600482015291169063b3596f0790602401602060405180830381865afa158015610f00573d6000803e3d6000fd5b505050506040513d601f19601f82011682018060405250810190610f249190611b1c565b610f2e9085611ce2565b610f389190611cf9565b9392505050565b600080826001600160a01b031663d4c3eea06040518163ffffffff1660e01b8152600401602060405180830381865afa158015610f80573d6000803e3d6000fd5b505050506040513d601f19601f82011682018060405250810190610fa49190611b1c565b90506000610fb184611411565b90506000610fbe82610e2d565b9050610fca8184611d1b565b95945050505050565b600082815260208190526040902060010154610fee816114b4565b61088083836115d4565b600080600760009054906101000a90046001600160a01b03166001600160a01b031663313ce5676040518163ffffffff1660e01b8152600401602060405180830381865afa15801561104e573d6000803e3d6000fd5b505050506040513d601f19601f820116820180604052508101906110729190611bd4565b60015460075460405163b3596f0760e01b81526001600160a01b039182166004820152929350169063b3596f0790602401602060405180830381865afa1580156110c0573d6000803e3d6000fd5b505050506040513d601f19601f820116820180604052508101906110e49190611b1c565b610f2482600a611cd3565b600080516020611d68833981519152611107816114b4565b6000611111610c91565b905061111c84610df7565b61114457604051631c5620f360e31b81526001600160a01b03851660048201526024016106e9565b60006111516003866114c1565b91506111639050856105df8684611b9f565b5083600660008282546111769190611b9f565b909155505060075460405163a9059cbb60e01b81526001600160a01b038781166004830152602482018790529091169063a9059cbb906044016020604051808303816000875af11580156111ce573d6000803e3d6000fd5b505050506040513d601f19601f820116820180604052508101906111f29190611bb2565b5060006111fd610c91565b905082811461122957604051637614d04360e11b815260048101849052602481018290526044016106e9565b856001600160a01b03167f9b8105582b12481c6193ec3b651067ba5c410f1474d24704b0a67f89086da61486604051610bf891815260200190565b600080516020611d6883398151915261127c816114b4565b6007546001600160a01b03908116908416036112ab57604051633827c2d760e11b815260040160405180910390fd5b6112b66003856114fe565b6112de57604051631c5620f360e31b81526001600160a01b03851660048201526024016106e9565b60085460405163e00cb4a560e01b8152600481018490526001600160a01b038581166024830152600092169063e00cb4a590604401602060405180830381865afa158015611330573d6000803e3d6000fd5b505050506040513d601f19601f820116820180604052508101906113549190611b1c565b9050600061136182610ff8565b905060006113706003886114c1565b91506113829050876105df8484611b9f565b5081600660008282546113959190611b9f565b909155505060085460405163627160f360e11b81526001600160a01b0389811660048301526024820188905288811660448301529091169063c4e2c1e690606401600060405180830381600087803b1580156113f057600080fd5b505af1158015611404573d6000803e3d6000fd5b5050505050505050505050565b600080806114206003856114c1565b9150915081611430576000611432565b805b949350505050565b600080516020611d68833981519152611452816114b4565b600754604051630852cd8d60e31b8152600481018490526001600160a01b03909116906342966c6890602401600060405180830381600087803b15801561149857600080fd5b505af11580156114ac573d6000803e3d6000fd5b505050505050565b6114be813361164c565b50565b60008080806114d9866001600160a01b038716611689565b909450925050505b9250929050565b6000611432846001600160a01b038516846116cb565b6000610f38836001600160a01b0384166116e8565b6000610f38836001600160a01b0384166116f4565b60006106a982611711565b60008080806114d9868661171c565b600061154e8383610e04565b6115cc576000838152602081815260408083206001600160a01b03861684529091529020805460ff191660011790556115843390565b6001600160a01b0316826001600160a01b0316847f2f8788117e7eff1d82e926ec794901d17c78024a50270940304540a733656f0d60405160405180910390a45060016106a9565b5060006106a9565b60006115e08383610e04565b156115cc576000838152602081815260408083206001600160a01b0386168085529252808320805460ff1916905551339286917ff6391f5c32d9c69d2a47ea670b442974b53935d1edc7fd64eb21e047a839171b9190a45060016106a9565b60606000610f3883611747565b6116568282610e04565b6116855760405163e2517d3f60e01b81526001600160a01b0382166004820152602481018390526044016106e9565b5050565b60008181526002830160205260408120548190806116b8576116ab85856116e8565b9250600091506114e19050565b6001925090506114e1565b509250929050565b600082815260028401602052604081208290556114328484611752565b6000610f38838361175e565b60008181526002830160205260408120819055610f388383611776565b60006106a982611782565b6000808061172a858561178c565b600081815260029690960160205260409095205494959350505050565b60606106a982611798565b6000610f3883836117a5565b60008181526001830160205260408120541515610f38565b6000610f3883836117ec565b60006106a9825490565b6000610f3883836118e6565b60606000610f3883611910565b60008181526001830160205260408120546115cc575081546001818101845560008481526020808220909301849055845484825282860190935260409020919091556106a9565b600081815260018301602052604081205480156118d5576000611810600183611b4b565b855490915060009061182490600190611b4b565b905080821461188957600086600001828154811061184457611844611d3b565b906000526020600020015490508087600001848154811061186757611867611d3b565b6000918252602080832090910192909255918252600188019052604090208390555b855486908061189a5761189a611d51565b6001900381819060005260206000200160009055905585600101600086815260200190815260200160002060009055600193505050506106a9565b60009150506106a9565b5092915050565b60008260000182815481106118fd576118fd611d3b565b9060005260206000200154905092915050565b60608160000180548060200260200160405190810160405280929190818152602001828054801561196057602002820191906000526020600020905b81548152602001906001019080831161194c575b50505050509050919050565b6001600160a01b03811681146114be57600080fd5b60008060006060848603121561199657600080fd5b83356119a18161196c565b925060208401356119b18161196c565b929592945050506040919091013590565b6000602082840312156119d457600080fd5b81356001600160e01b031981168114610f3857600080fd5b6000602082840312156119fe57600080fd5b8135610f388161196c565b600060208284031215611a1b57600080fd5b5035919050565b60008060408385031215611a3557600080fd5b823591506020830135611a478161196c565b809150509250929050565b6020808252825182820181905260009190848201906040850190845b81811015611a935783516001600160a01b031683529284019291840191600101611a6e565b50909695505050505050565b60008060008060808587031215611ab557600080fd5b8435611ac08161196c565b93506020850135611ad08161196c565b92506040850135611ae08161196c565b9396929550929360600135925050565b60008060408385031215611b0357600080fd5b8235611b0e8161196c565b946020939093013593505050565b600060208284031215611b2e57600080fd5b5051919050565b634e487b7160e01b600052601160045260246000fd5b818103818111156106a9576106a9611b35565b8082018281126000831280158216821582161715611b7e57611b7e611b35565b505092915050565b600060018201611b9857611b98611b35565b5060010190565b808201808211156106a9576106a9611b35565b600060208284031215611bc457600080fd5b81518015158114610f3857600080fd5b600060208284031215611be657600080fd5b815160ff81168114610f3857600080fd5b600181815b808511156116c3578160001904821115611c1857611c18611b35565b80851615611c2557918102915b93841c9390800290611bfc565b600082611c41575060016106a9565b81611c4e575060006106a9565b8160018114611c645760028114611c6e57611c8a565b60019150506106a9565b60ff841115611c7f57611c7f611b35565b50506001821b6106a9565b5060208310610133831016604e8410600b8410161715611cad575081810a6106a9565b611cb78383611bf7565b8060001904821115611ccb57611ccb611b35565b029392505050565b6000610f3860ff841683611c32565b80820281158282048414176106a9576106a9611b35565b600082611d1657634e487b7160e01b600052601260045260246000fd5b500490565b81810360008312801583831316838312821617156118df576118df611b35565b634e487b7160e01b600052603260045260246000fd5b634e487b7160e01b600052603160045260246000fdfec304524b36c64136ce5783ff1658be193c8352a90708830b9863880958c1fddda26469706673582212200695ee19697fc05b5fb4111b6e261ccc6fcf829ff6e70d2f80256461e137811d64736f6c63430008140033",
  "devdoc": {
    "details": "Manages AMOs for dStable Handles allocation, deallocation, collateral management, and profit management for AMO vaults.",
    "errors": {
      "AccessControlBadConfirmation()": [
        {
          "details": "The caller of a function is not the expected one. NOTE: Don't confuse with {AccessControlUnauthorizedAccount}."
        }
      ],
      "AccessControlUnauthorizedAccount(address,bytes32)": [
        {
          "details": "The `account` is missing a role."
        }
      ]
    },
    "events": {
      "RoleAdminChanged(bytes32,bytes32,bytes32)": {
        "details": "Emitted when `newAdminRole` is set as ``role``'s admin role, replacing `previousAdminRole` `DEFAULT_ADMIN_ROLE` is the starting admin for all roles, despite {RoleAdminChanged} not being emitted signaling this."
      },
      "RoleGranted(bytes32,address,address)": {
        "details": "Emitted when `account` is granted `role`. `sender` is the account that originated the contract call. This account bears the admin role (for the granted role). Expected in cases where the role was granted using the internal {AccessControl-_grantRole}."
      },
      "RoleRevoked(bytes32,address,address)": {
        "details": "Emitted when `account` is revoked `role`. `sender` is the account that originated the contract call:   - if using `revokeRole`, it is the admin role bearer   - if using `renounceRole`, it is the role bearer (i.e. `account`)"
      }
    },
    "kind": "dev",
    "methods": {
      "allocateAmo(address,uint256)": {
        "params": {
          "amoVault": "The address of the AMO vault.",
          "dstableAmount": "The amount of dStable to allocate."
        }
      },
      "amoVaultAllocation(address)": {
        "params": {
          "amoVault": "The address of the AMO vault."
        },
        "returns": {
          "_0": "The current allocation for the vault."
        }
      },
      "amoVaults()": {
        "returns": {
          "_0": "The list of AMO vault addresses."
        }
      },
      "availableProfitInBase()": {
        "returns": {
          "_0": "The total available profit in base."
        }
      },
      "availableVaultProfitsInBase(address)": {
        "params": {
          "vaultAddress": "The address of the AMO vault to check."
        },
        "returns": {
          "_0": "The available profit in base (can be negative)."
        }
      },
      "baseValueToDstableAmount(uint256)": {
        "params": {
          "baseValue": "The amount of base value to convert."
        },
        "returns": {
          "_0": "The equivalent amount of dStable tokens."
        }
      },
      "constructor": {
        "params": {
          "_collateralHolderVault": "The address of the collateral holder vault.",
          "_dstable": "The address of the dStable stablecoin.",
          "_oracle": "The oracle for price feeds."
        }
      },
      "deallocateAmo(address,uint256)": {
        "params": {
          "amoVault": "The address of the AMO vault.",
          "dstableAmount": "The amount of dStable to deallocate."
        }
      },
      "decreaseAmoSupply(uint256)": {
        "params": {
          "dstableAmount": "The amount of dStable to burn."
        }
      },
      "disableAmoVault(address)": {
        "params": {
          "amoVault": "The address of the AMO vault."
        }
      },
      "dstableAmountToBaseValue(uint256)": {
        "params": {
          "dstableAmount": "The amount of dStable tokens to convert."
        },
        "returns": {
          "_0": "The equivalent amount of base value."
        }
      },
      "enableAmoVault(address)": {
        "params": {
          "amoVault": "The address of the AMO vault."
        }
      },
      "getRoleAdmin(bytes32)": {
        "details": "Returns the admin role that controls `role`. See {grantRole} and {revokeRole}. To change a role's admin, use {_setRoleAdmin}."
      },
      "grantRole(bytes32,address)": {
        "details": "Grants `role` to `account`. If `account` had not been already granted `role`, emits a {RoleGranted} event. Requirements: - the caller must have ``role``'s admin role. May emit a {RoleGranted} event."
      },
      "hasRole(bytes32,address)": {
        "details": "Returns `true` if `account` has been granted `role`."
      },
      "isAmoActive(address)": {
        "params": {
          "amoVault": "The address of the AMO vault to check."
        },
        "returns": {
          "_0": "True if the AMO vault is active, false otherwise."
        }
      },
      "renounceRole(bytes32,address)": {
        "details": "Revokes `role` from the calling account. Roles are often managed via {grantRole} and {revokeRole}: this function's purpose is to provide a mechanism for accounts to lose their privileges if they are compromised (such as when a trusted device is misplaced). If the calling account had been revoked `role`, emits a {RoleRevoked} event. Requirements: - the caller must be `callerConfirmation`. May emit a {RoleRevoked} event."
      },
      "revokeRole(bytes32,address)": {
        "details": "Revokes `role` from `account`. If `account` had been granted `role`, emits a {RoleRevoked} event. Requirements: - the caller must have ``role``'s admin role. May emit a {RoleRevoked} event."
      },
      "setBaseCurrencyUnit(uint256)": {
        "details": "Only used if the oracle's base currency unit changes",
        "params": {
          "_newBaseCurrencyUnit": "The new base currency unit to set"
        }
      },
      "setCollateralVault(address)": {
        "params": {
          "_collateralVault": "The address of the new collateral vault"
        }
      },
      "setOracle(address)": {
        "params": {
          "newOracle": "The new oracle to use"
        }
      },
      "supportsInterface(bytes4)": {
        "details": "See {IERC165-supportsInterface}."
      },
      "totalAmoSupply()": {
        "returns": {
          "_0": "The total AMO supply."
        }
      },
      "totalCollateralValue()": {
        "returns": {
          "_0": "The total collateral value in base value."
        }
      },
      "transferFromAmoVaultToHoldingVault(address,address,uint256)": {
        "params": {
          "amoVault": "The address of the AMO vault.",
          "amount": "The amount of collateral to transfer.",
          "token": "The address of the collateral token to transfer."
        }
      },
      "transferFromHoldingVaultToAmoVault(address,address,uint256)": {
        "params": {
          "amoVault": "The address of the AMO vault.",
          "amount": "The amount of collateral to transfer.",
          "token": "The address of the collateral token to transfer."
        }
      },
      "withdrawProfits(address,address,address,uint256)": {
        "params": {
          "amoVault": "The AMO vault from which to withdraw profits.",
          "recipient": "The address to receive the profits.",
          "takeProfitAmount": "The amount of collateral to withdraw.",
          "takeProfitToken": "The collateral token to withdraw."
        },
        "returns": {
          "takeProfitValueInBase": "The value of the withdrawn profits in base."
        }
      }
    },
    "title": "AmoManager",
    "version": 1
  },
  "userdoc": {
    "kind": "user",
    "methods": {
      "allocateAmo(address,uint256)": {
        "notice": "Allocates AMO tokens to an AMO vault."
      },
      "amoVaultAllocation(address)": {
        "notice": "Returns the allocation for a specific AMO vault."
      },
      "amoVaults()": {
        "notice": "Returns the list of all AMO vaults."
      },
      "availableProfitInBase()": {
        "notice": "Returns the total available profit across all AMO vaults in base."
      },
      "availableVaultProfitsInBase(address)": {
        "notice": "Returns the available profit for a specific vault in base value (e.g., the underlying)."
      },
      "baseValueToDstableAmount(uint256)": {
        "notice": "Converts a base value to an equivalent amount of dStable tokens."
      },
      "constructor": {
        "notice": "Initializes the AmoManager contract."
      },
      "deallocateAmo(address,uint256)": {
        "notice": "Deallocates AMO tokens from an AMO vault."
      },
      "decreaseAmoSupply(uint256)": {
        "notice": "Decreases the AMO supply by burning dStable."
      },
      "disableAmoVault(address)": {
        "notice": "Disables an AMO vault."
      },
      "dstableAmountToBaseValue(uint256)": {
        "notice": "Converts an amount of dStable tokens to an equivalent base value."
      },
      "enableAmoVault(address)": {
        "notice": "Enables an AMO vault."
      },
      "isAmoActive(address)": {
        "notice": "Checks if an AMO vault is active."
      },
      "setBaseCurrencyUnit(uint256)": {
        "notice": "Updates the base currency unit used for price calculations"
      },
      "setCollateralVault(address)": {
        "notice": "Sets the collateral vault address"
      },
      "setOracle(address)": {
        "notice": "Sets the oracle to use for collateral valuation"
      },
      "totalAmoSupply()": {
        "notice": "Returns the total AMO supply."
      },
      "totalCollateralValue()": {
        "notice": "Returns the total collateral value of all active AMO vaults."
      },
      "transferFromAmoVaultToHoldingVault(address,address,uint256)": {
        "notice": "Transfers collateral from an AMO vault to the holding vault."
      },
      "transferFromHoldingVaultToAmoVault(address,address,uint256)": {
        "notice": "Transfers collateral from the holding vault to an AMO vault."
      },
      "withdrawProfits(address,address,address,uint256)": {
        "notice": "Withdraws profits from an AMO vault to a recipient."
      }
    },
    "version": 1
  },
  "storageLayout": {
    "storage": [
      {
        "astId": 26,
        "contract": "contracts/dstable/AmoManager.sol:AmoManager",
        "label": "_roles",
        "offset": 0,
        "slot": "0",
        "type": "t_mapping(t_bytes32,t_struct(RoleData)21_storage)"
      },
      {
        "astId": 6331,
        "contract": "contracts/dstable/AmoManager.sol:AmoManager",
        "label": "oracle",
        "offset": 0,
        "slot": "1",
        "type": "t_contract(IPriceOracleGetter)4068"
      },
      {
        "astId": 6333,
        "contract": "contracts/dstable/AmoManager.sol:AmoManager",
        "label": "baseCurrencyUnit",
        "offset": 0,
        "slot": "2",
        "type": "t_uint256"
      },
      {
        "astId": 4116,
        "contract": "contracts/dstable/AmoManager.sol:AmoManager",
        "label": "_amoVaults",
        "offset": 0,
        "slot": "3",
        "type": "t_struct(AddressToUintMap)2276_storage"
      },
      {
        "astId": 4118,
        "contract": "contracts/dstable/AmoManager.sol:AmoManager",
        "label": "totalAllocated",
        "offset": 0,
        "slot": "6",
        "type": "t_uint256"
      },
      {
        "astId": 4121,
        "contract": "contracts/dstable/AmoManager.sol:AmoManager",
        "label": "dstable",
        "offset": 0,
        "slot": "7",
        "type": "t_contract(IMintableERC20)4098"
      },
      {
        "astId": 4124,
        "contract": "contracts/dstable/AmoManager.sol:AmoManager",
        "label": "collateralHolderVault",
        "offset": 0,
        "slot": "8",
        "type": "t_contract(CollateralVault)5931"
      }
    ],
    "types": {
      "t_address": {
        "encoding": "inplace",
        "label": "address",
        "numberOfBytes": "20"
      },
      "t_array(t_bytes32)dyn_storage": {
        "base": "t_bytes32",
        "encoding": "dynamic_array",
        "label": "bytes32[]",
        "numberOfBytes": "32"
      },
      "t_bool": {
        "encoding": "inplace",
        "label": "bool",
        "numberOfBytes": "1"
      },
      "t_bytes32": {
        "encoding": "inplace",
        "label": "bytes32",
        "numberOfBytes": "32"
      },
      "t_contract(CollateralVault)5931": {
        "encoding": "inplace",
        "label": "contract CollateralVault",
        "numberOfBytes": "20"
      },
      "t_contract(IMintableERC20)4098": {
        "encoding": "inplace",
        "label": "contract IMintableERC20",
        "numberOfBytes": "20"
      },
      "t_contract(IPriceOracleGetter)4068": {
        "encoding": "inplace",
        "label": "contract IPriceOracleGetter",
        "numberOfBytes": "20"
      },
      "t_mapping(t_address,t_bool)": {
        "encoding": "mapping",
        "key": "t_address",
        "label": "mapping(address => bool)",
        "numberOfBytes": "32",
        "value": "t_bool"
      },
      "t_mapping(t_bytes32,t_bytes32)": {
        "encoding": "mapping",
        "key": "t_bytes32",
        "label": "mapping(bytes32 => bytes32)",
        "numberOfBytes": "32",
        "value": "t_bytes32"
      },
      "t_mapping(t_bytes32,t_struct(RoleData)21_storage)": {
        "encoding": "mapping",
        "key": "t_bytes32",
        "label": "mapping(bytes32 => struct AccessControl.RoleData)",
        "numberOfBytes": "32",
        "value": "t_struct(RoleData)21_storage"
      },
      "t_mapping(t_bytes32,t_uint256)": {
        "encoding": "mapping",
        "key": "t_bytes32",
        "label": "mapping(bytes32 => uint256)",
        "numberOfBytes": "32",
        "value": "t_uint256"
      },
      "t_struct(AddressToUintMap)2276_storage": {
        "encoding": "inplace",
        "label": "struct EnumerableMap.AddressToUintMap",
        "members": [
          {
            "astId": 2275,
            "contract": "contracts/dstable/AmoManager.sol:AmoManager",
            "label": "_inner",
            "offset": 0,
            "slot": "0",
            "type": "t_struct(Bytes32ToBytes32Map)1420_storage"
          }
        ],
        "numberOfBytes": "96"
      },
      "t_struct(Bytes32Set)3636_storage": {
        "encoding": "inplace",
        "label": "struct EnumerableSet.Bytes32Set",
        "members": [
          {
            "astId": 3635,
            "contract": "contracts/dstable/AmoManager.sol:AmoManager",
            "label": "_inner",
            "offset": 0,
            "slot": "0",
            "type": "t_struct(Set)3442_storage"
          }
        ],
        "numberOfBytes": "64"
      },
      "t_struct(Bytes32ToBytes32Map)1420_storage": {
        "encoding": "inplace",
        "label": "struct EnumerableMap.Bytes32ToBytes32Map",
        "members": [
          {
            "astId": 1415,
            "contract": "contracts/dstable/AmoManager.sol:AmoManager",
            "label": "_keys",
            "offset": 0,
            "slot": "0",
            "type": "t_struct(Bytes32Set)3636_storage"
          },
          {
            "astId": 1419,
            "contract": "contracts/dstable/AmoManager.sol:AmoManager",
            "label": "_values",
            "offset": 0,
            "slot": "2",
            "type": "t_mapping(t_bytes32,t_bytes32)"
          }
        ],
        "numberOfBytes": "96"
      },
      "t_struct(RoleData)21_storage": {
        "encoding": "inplace",
        "label": "struct AccessControl.RoleData",
        "members": [
          {
            "astId": 18,
            "contract": "contracts/dstable/AmoManager.sol:AmoManager",
            "label": "hasRole",
            "offset": 0,
            "slot": "0",
            "type": "t_mapping(t_address,t_bool)"
          },
          {
            "astId": 20,
            "contract": "contracts/dstable/AmoManager.sol:AmoManager",
            "label": "adminRole",
            "offset": 0,
            "slot": "1",
            "type": "t_bytes32"
          }
        ],
        "numberOfBytes": "64"
      },
      "t_struct(Set)3442_storage": {
        "encoding": "inplace",
        "label": "struct EnumerableSet.Set",
        "members": [
          {
            "astId": 3437,
            "contract": "contracts/dstable/AmoManager.sol:AmoManager",
            "label": "_values",
            "offset": 0,
            "slot": "0",
            "type": "t_array(t_bytes32)dyn_storage"
          },
          {
            "astId": 3441,
            "contract": "contracts/dstable/AmoManager.sol:AmoManager",
            "label": "_positions",
            "offset": 0,
            "slot": "1",
            "type": "t_mapping(t_bytes32,t_uint256)"
          }
        ],
        "numberOfBytes": "64"
      },
      "t_uint256": {
        "encoding": "inplace",
        "label": "uint256",
        "numberOfBytes": "32"
      }
    }
  }
}