{
  "address": "0x52362aC32625e0999480EC89eC2e1cA67F827E70",
  "abi": [
    {
      "inputs": [
        {
          "internalType": "address",
          "name": "_dstable",
          "type": "address"
        },
        {
          "internalType": "address",
          "name": "_collateralHolderVault",
          "type": "address"
        },
        {
          "internalType": "contract IPriceOracleGetter",
          "name": "_oracle",
          "type": "address"
        }
      ],
      "stateMutability": "nonpayable",
      "type": "constructor"
    },
    {
      "inputs": [],
      "name": "AccessControlBadConfirmation",
      "type": "error"
    },
    {
      "inputs": [
        {
          "internalType": "address",
          "name": "account",
          "type": "address"
        },
        {
          "internalType": "bytes32",
          "name": "neededRole",
          "type": "bytes32"
        }
      ],
      "name": "AccessControlUnauthorizedAccount",
      "type": "error"
    },
    {
      "inputs": [
        {
          "internalType": "uint256",
          "name": "startingSupply",
          "type": "uint256"
        },
        {
          "internalType": "uint256",
          "name": "endingSupply",
          "type": "uint256"
        }
      ],
      "name": "AmoSupplyInvariantViolation",
      "type": "error"
    },
    {
      "inputs": [
        {
          "internalType": "address",
          "name": "amoVault",
          "type": "address"
        }
      ],
      "name": "AmoVaultAlreadyEnabled",
      "type": "error"
    },
    {
      "inputs": [],
      "name": "CannotTransferDStable",
      "type": "error"
    },
    {
      "inputs": [
        {
          "internalType": "address",
          "name": "amoVault",
          "type": "address"
        }
      ],
      "name": "InactiveAmoVault",
      "type": "error"
    },
    {
      "inputs": [
        {
          "internalType": "uint256",
          "name": "baseCurrencyUnit",
          "type": "uint256"
        }
      ],
      "name": "IncorrectBaseCurrencyUnit",
      "type": "error"
    },
    {
      "inputs": [
        {
          "internalType": "uint256",
          "name": "takeProfitValueInBase",
          "type": "uint256"
        },
        {
          "internalType": "int256",
          "name": "availableProfitInBase",
          "type": "int256"
        }
      ],
      "name": "InsufficientProfits",
      "type": "error"
    },
    {
      "anonymous": false,
      "inputs": [
        {
          "indexed": true,
          "internalType": "address",
          "name": "amoVault",
          "type": "address"
        },
        {
          "indexed": false,
          "internalType": "uint256",
          "name": "dstableAmount",
          "type": "uint256"
        }
      ],
      "name": "AmoAllocated",
      "type": "event"
    },
    {
      "anonymous": false,
      "inputs": [
        {
          "indexed": true,
          "internalType": "address",
          "name": "amoVault",
          "type": "address"
        },
        {
          "indexed": false,
          "internalType": "uint256",
          "name": "dstableAmount",
          "type": "uint256"
        }
      ],
      "name": "AmoDeallocated",
      "type": "event"
    },
    {
      "anonymous": false,
      "inputs": [
        {
          "indexed": true,
          "internalType": "address",
          "name": "amoVault",
          "type": "address"
        },
        {
          "indexed": false,
          "internalType": "bool",
          "name": "isActive",
          "type": "bool"
        }
      ],
      "name": "AmoVaultSet",
      "type": "event"
    },
    {
      "anonymous": false,
      "inputs": [
        {
          "indexed": true,
          "internalType": "address",
          "name": "newOracle",
          "type": "address"
        }
      ],
      "name": "OracleSet",
      "type": "event"
    },
    {
      "anonymous": false,
      "inputs": [
        {
          "indexed": true,
          "internalType": "address",
          "name": "amoVault",
          "type": "address"
        },
        {
          "indexed": false,
          "internalType": "uint256",
          "name": "amount",
          "type": "uint256"
        }
      ],
      "name": "ProfitsWithdrawn",
      "type": "event"
    },
    {
      "anonymous": false,
      "inputs": [
        {
          "indexed": true,
          "internalType": "bytes32",
          "name": "role",
          "type": "bytes32"
        },
        {
          "indexed": true,
          "internalType": "bytes32",
          "name": "previousAdminRole",
          "type": "bytes32"
        },
        {
          "indexed": true,
          "internalType": "bytes32",
          "name": "newAdminRole",
          "type": "bytes32"
        }
      ],
      "name": "RoleAdminChanged",
      "type": "event"
    },
    {
      "anonymous": false,
      "inputs": [
        {
          "indexed": true,
          "internalType": "bytes32",
          "name": "role",
          "type": "bytes32"
        },
        {
          "indexed": true,
          "internalType": "address",
          "name": "account",
          "type": "address"
        },
        {
          "indexed": true,
          "internalType": "address",
          "name": "sender",
          "type": "address"
        }
      ],
      "name": "RoleGranted",
      "type": "event"
    },
    {
      "anonymous": false,
      "inputs": [
        {
          "indexed": true,
          "internalType": "bytes32",
          "name": "role",
          "type": "bytes32"
        },
        {
          "indexed": true,
          "internalType": "address",
          "name": "account",
          "type": "address"
        },
        {
          "indexed": true,
          "internalType": "address",
          "name": "sender",
          "type": "address"
        }
      ],
      "name": "RoleRevoked",
      "type": "event"
    },
    {
      "inputs": [],
      "name": "AMO_ALLOCATOR_ROLE",
      "outputs": [
        {
          "internalType": "bytes32",
          "name": "",
          "type": "bytes32"
        }
      ],
      "stateMutability": "view",
      "type": "function"
    },
    {
      "inputs": [],
      "name": "BASE_UNIT",
      "outputs": [
        {
          "internalType": "uint256",
          "name": "",
          "type": "uint256"
        }
      ],
      "stateMutability": "view",
      "type": "function"
    },
    {
      "inputs": [],
      "name": "DEFAULT_ADMIN_ROLE",
      "outputs": [
        {
          "internalType": "bytes32",
          "name": "",
          "type": "bytes32"
        }
      ],
      "stateMutability": "view",
      "type": "function"
    },
    {
      "inputs": [],
      "name": "FEE_COLLECTOR_ROLE",
      "outputs": [
        {
          "internalType": "bytes32",
          "name": "",
          "type": "bytes32"
        }
      ],
      "stateMutability": "view",
      "type": "function"
    },
    {
      "inputs": [
        {
          "internalType": "address",
          "name": "amoVault",
          "type": "address"
        },
        {
          "internalType": "uint256",
          "name": "dstableAmount",
          "type": "uint256"
        }
      ],
      "name": "allocateAmo",
      "outputs": [],
      "stateMutability": "nonpayable",
      "type": "function"
    },
    {
      "inputs": [
        {
          "internalType": "address",
          "name": "amoVault",
          "type": "address"
        }
      ],
      "name": "amoVaultAllocation",
      "outputs": [
        {
          "internalType": "uint256",
          "name": "",
          "type": "uint256"
        }
      ],
      "stateMutability": "view",
      "type": "function"
    },
    {
      "inputs": [],
      "name": "amoVaults",
      "outputs": [
        {
          "internalType": "address[]",
          "name": "",
          "type": "address[]"
        }
      ],
      "stateMutability": "view",
      "type": "function"
    },
    {
      "inputs": [],
      "name": "availableProfitInBase",
      "outputs": [
        {
          "internalType": "int256",
          "name": "",
          "type": "int256"
        }
      ],
      "stateMutability": "view",
      "type": "function"
    },
    {
      "inputs": [
        {
          "internalType": "address",
          "name": "vaultAddress",
          "type": "address"
        }
      ],
      "name": "availableVaultProfitsInBase",
      "outputs": [
        {
          "internalType": "int256",
          "name": "",
          "type": "int256"
        }
      ],
      "stateMutability": "view",
      "type": "function"
    },
    {
      "inputs": [],
      "name": "baseCurrencyUnit",
      "outputs": [
        {
          "internalType": "uint256",
          "name": "",
          "type": "uint256"
        }
      ],
      "stateMutability": "view",
      "type": "function"
    },
    {
      "inputs": [
        {
          "internalType": "uint256",
          "name": "baseValue",
          "type": "uint256"
        }
      ],
      "name": "baseValueToDstableAmount",
      "outputs": [
        {
          "internalType": "uint256",
          "name": "",
          "type": "uint256"
        }
      ],
      "stateMutability": "view",
      "type": "function"
    },
    {
      "inputs": [],
      "name": "collateralHolderVault",
      "outputs": [
        {
          "internalType": "contract CollateralVault",
          "name": "",
          "type": "address"
        }
      ],
      "stateMutability": "view",
      "type": "function"
    },
    {
      "inputs": [
        {
          "internalType": "address",
          "name": "amoVault",
          "type": "address"
        },
        {
          "internalType": "uint256",
          "name": "dstableAmount",
          "type": "uint256"
        }
      ],
      "name": "deallocateAmo",
      "outputs": [],
      "stateMutability": "nonpayable",
      "type": "function"
    },
    {
      "inputs": [
        {
          "internalType": "uint256",
          "name": "dstableAmount",
          "type": "uint256"
        }
      ],
      "name": "decreaseAmoSupply",
      "outputs": [],
      "stateMutability": "nonpayable",
      "type": "function"
    },
    {
      "inputs": [
        {
          "internalType": "address",
          "name": "amoVault",
          "type": "address"
        }
      ],
      "name": "disableAmoVault",
      "outputs": [],
      "stateMutability": "nonpayable",
      "type": "function"
    },
    {
      "inputs": [],
      "name": "dstable",
      "outputs": [
        {
          "internalType": "contract IMintableERC20",
          "name": "",
          "type": "address"
        }
      ],
      "stateMutability": "view",
      "type": "function"
    },
    {
      "inputs": [
        {
          "internalType": "uint256",
          "name": "dstableAmount",
          "type": "uint256"
        }
      ],
      "name": "dstableAmountToBaseValue",
      "outputs": [
        {
          "internalType": "uint256",
          "name": "",
          "type": "uint256"
        }
      ],
      "stateMutability": "view",
      "type": "function"
    },
    {
      "inputs": [
        {
          "internalType": "address",
          "name": "amoVault",
          "type": "address"
        }
      ],
      "name": "enableAmoVault",
      "outputs": [],
      "stateMutability": "nonpayable",
      "type": "function"
    },
    {
      "inputs": [
        {
          "internalType": "bytes32",
          "name": "role",
          "type": "bytes32"
        }
      ],
      "name": "getRoleAdmin",
      "outputs": [
        {
          "internalType": "bytes32",
          "name": "",
          "type": "bytes32"
        }
      ],
      "stateMutability": "view",
      "type": "function"
    },
    {
      "inputs": [
        {
          "internalType": "bytes32",
          "name": "role",
          "type": "bytes32"
        },
        {
          "internalType": "address",
          "name": "account",
          "type": "address"
        }
      ],
      "name": "grantRole",
      "outputs": [],
      "stateMutability": "nonpayable",
      "type": "function"
    },
    {
      "inputs": [
        {
          "internalType": "bytes32",
          "name": "role",
          "type": "bytes32"
        },
        {
          "internalType": "address",
          "name": "account",
          "type": "address"
        }
      ],
      "name": "hasRole",
      "outputs": [
        {
          "internalType": "bool",
          "name": "",
          "type": "bool"
        }
      ],
      "stateMutability": "view",
      "type": "function"
    },
    {
      "inputs": [
        {
          "internalType": "address",
          "name": "amoVault",
          "type": "address"
        }
      ],
      "name": "isAmoActive",
      "outputs": [
        {
          "internalType": "bool",
          "name": "",
          "type": "bool"
        }
      ],
      "stateMutability": "view",
      "type": "function"
    },
    {
      "inputs": [],
      "name": "oracle",
      "outputs": [
        {
          "internalType": "contract IPriceOracleGetter",
          "name": "",
          "type": "address"
        }
      ],
      "stateMutability": "view",
      "type": "function"
    },
    {
      "inputs": [
        {
          "internalType": "bytes32",
          "name": "role",
          "type": "bytes32"
        },
        {
          "internalType": "address",
          "name": "callerConfirmation",
          "type": "address"
        }
      ],
      "name": "renounceRole",
      "outputs": [],
      "stateMutability": "nonpayable",
      "type": "function"
    },
    {
      "inputs": [
        {
          "internalType": "bytes32",
          "name": "role",
          "type": "bytes32"
        },
        {
          "internalType": "address",
          "name": "account",
          "type": "address"
        }
      ],
      "name": "revokeRole",
      "outputs": [],
      "stateMutability": "nonpayable",
      "type": "function"
    },
    {
      "inputs": [
        {
          "internalType": "uint256",
          "name": "_newBaseCurrencyUnit",
          "type": "uint256"
        }
      ],
      "name": "setBaseCurrencyUnit",
      "outputs": [],
      "stateMutability": "nonpayable",
      "type": "function"
    },
    {
      "inputs": [
        {
          "internalType": "address",
          "name": "_collateralVault",
          "type": "address"
        }
      ],
      "name": "setCollateralVault",
      "outputs": [],
      "stateMutability": "nonpayable",
      "type": "function"
    },
    {
      "inputs": [
        {
          "internalType": "contract IPriceOracleGetter",
          "name": "newOracle",
          "type": "address"
        }
      ],
      "name": "setOracle",
      "outputs": [],
      "stateMutability": "nonpayable",
      "type": "function"
    },
    {
      "inputs": [
        {
          "internalType": "bytes4",
          "name": "interfaceId",
          "type": "bytes4"
        }
      ],
      "name": "supportsInterface",
      "outputs": [
        {
          "internalType": "bool",
          "name": "",
          "type": "bool"
        }
      ],
      "stateMutability": "view",
      "type": "function"
    },
    {
      "inputs": [],
      "name": "totalAllocated",
      "outputs": [
        {
          "internalType": "uint256",
          "name": "",
          "type": "uint256"
        }
      ],
      "stateMutability": "view",
      "type": "function"
    },
    {
      "inputs": [],
      "name": "totalAmoSupply",
      "outputs": [
        {
          "internalType": "uint256",
          "name": "",
          "type": "uint256"
        }
      ],
      "stateMutability": "view",
      "type": "function"
    },
    {
      "inputs": [],
      "name": "totalCollateralValue",
      "outputs": [
        {
          "internalType": "uint256",
          "name": "",
          "type": "uint256"
        }
      ],
      "stateMutability": "view",
      "type": "function"
    },
    {
      "inputs": [
        {
          "internalType": "address",
          "name": "amoVault",
          "type": "address"
        },
        {
          "internalType": "address",
          "name": "token",
          "type": "address"
        },
        {
          "internalType": "uint256",
          "name": "amount",
          "type": "uint256"
        }
      ],
      "name": "transferFromAmoVaultToHoldingVault",
      "outputs": [],
      "stateMutability": "nonpayable",
      "type": "function"
    },
    {
      "inputs": [
        {
          "internalType": "address",
          "name": "amoVault",
          "type": "address"
        },
        {
          "internalType": "address",
          "name": "token",
          "type": "address"
        },
        {
          "internalType": "uint256",
          "name": "amount",
          "type": "uint256"
        }
      ],
      "name": "transferFromHoldingVaultToAmoVault",
      "outputs": [],
      "stateMutability": "nonpayable",
      "type": "function"
    },
    {
      "inputs": [
        {
          "internalType": "contract AmoVault",
          "name": "amoVault",
          "type": "address"
        },
        {
          "internalType": "address",
          "name": "recipient",
          "type": "address"
        },
        {
          "internalType": "address",
          "name": "takeProfitToken",
          "type": "address"
        },
        {
          "internalType": "uint256",
          "name": "takeProfitAmount",
          "type": "uint256"
        }
      ],
      "name": "withdrawProfits",
      "outputs": [
        {
          "internalType": "uint256",
          "name": "takeProfitValueInBase",
          "type": "uint256"
        }
      ],
      "stateMutability": "nonpayable",
      "type": "function"
    }
  ],
  "transactionHash": "0x25418d007a173211f8d3981b1eefc5ed6279f734712075f8ba9838f9fa50eec3",
  "args": [
    "0x7146123528f81C75D1daEbA32124c99fB9973255",
    "0xee98a3219f199E8405203FFC1170510040BBab6d",
    "0x88b394806536380D0a5232e7F69d661dBCDe8644"
  ],
  "numDeployments": 1,
  "solcInputHash": "601a421431a4d1b98bcec471579cced1",
  "bytecode": "0x60a06040523480156200001157600080fd5b50604051620039a7380380620039a7833981810160405281019062000037919062000540565b806305f5e10063ffffffff1681600160006101000a81548173ffffffffffffffffffffffffffffffffffffffff021916908373ffffffffffffffffffffffffffffffffffffffff16021790555080600281905550620000a06000801b336200024360201b60201c565b50505082600760006101000a81548173ffffffffffffffffffffffffffffffffffffffff021916908373ffffffffffffffffffffffffffffffffffffffff16021790555081600860006101000a81548173ffffffffffffffffffffffffffffffffffffffff021916908373ffffffffffffffffffffffffffffffffffffffff160217905550600160009054906101000a900473ffffffffffffffffffffffffffffffffffffffff1673ffffffffffffffffffffffffffffffffffffffff16638c89b64f6040518163ffffffff1660e01b8152600401602060405180830381865afa15801562000193573d6000803e3d6000fd5b505050506040513d601f19601f82011682018060405250810190620001b99190620005d7565b60808181525050620001d56000801b336200024360201b60201c565b50620002087fc304524b36c64136ce5783ff1658be193c8352a90708830b9863880958c1fddd336200034660201b60201c565b6200023a7f2dca0f5ce7e75a4b43fe2b0d6f5d0b7a2bf92ecf89f8f0aa17b8308b67038821336200034660201b60201c565b50505062000662565b60006200025783836200038060201b60201c565b6200033b57600160008085815260200190815260200160002060000160008473ffffffffffffffffffffffffffffffffffffffff1673ffffffffffffffffffffffffffffffffffffffff16815260200190815260200160002060006101000a81548160ff021916908315150217905550620002d7620003ea60201b60201c565b73ffffffffffffffffffffffffffffffffffffffff168273ffffffffffffffffffffffffffffffffffffffff16847f2f8788117e7eff1d82e926ec794901d17c78024a50270940304540a733656f0d60405160405180910390a46001905062000340565b600090505b92915050565b6200035782620003f260201b60201c565b62000368816200041160201b60201c565b6200037a83836200024360201b60201c565b50505050565b600080600084815260200190815260200160002060000160008373ffffffffffffffffffffffffffffffffffffffff1673ffffffffffffffffffffffffffffffffffffffff16815260200190815260200160002060009054906101000a900460ff16905092915050565b600033905090565b6000806000838152602001908152602001600020600101549050919050565b620004328162000426620003ea60201b60201c565b6200043560201b60201c565b50565b6200044782826200038060201b60201c565b6200048d5780826040517fe2517d3f0000000000000000000000000000000000000000000000000000000081526004016200048492919062000635565b60405180910390fd5b5050565b600080fd5b600073ffffffffffffffffffffffffffffffffffffffff82169050919050565b6000620004c38262000496565b9050919050565b620004d581620004b6565b8114620004e157600080fd5b50565b600081519050620004f581620004ca565b92915050565b60006200050882620004b6565b9050919050565b6200051a81620004fb565b81146200052657600080fd5b50565b6000815190506200053a816200050f565b92915050565b6000806000606084860312156200055c576200055b62000491565b5b60006200056c86828701620004e4565b93505060206200057f86828701620004e4565b9250506040620005928682870162000529565b9150509250925092565b6000819050919050565b620005b1816200059c565b8114620005bd57600080fd5b50565b600081519050620005d181620005a6565b92915050565b600060208284031215620005f057620005ef62000491565b5b60006200060084828501620005c0565b91505092915050565b6200061481620004b6565b82525050565b6000819050919050565b6200062f816200061a565b82525050565b60006040820190506200064c600083018562000609565b6200065b602083018462000624565b9392505050565b6080516133296200067e600039600061099401526133296000f3fe608060405234801561001057600080fd5b50600436106102115760003560e01c80637700319411610125578063c0ef3d44116100ad578063ed1f3e4c1161007c578063ed1f3e4c14610616578063f3bddde114610632578063fab9300e14610650578063fb5b3db71461066c578063fdc9a0381461069c57610211565b8063c0ef3d441461057c578063d547741f146105ac578063d54bc55e146105c8578063e67736bf146105f857610211565b806385b30e18116100f457806385b30e18146104b057806391d14854146104e057806391e5287b1461051057806397fe30ef14610540578063a217fddf1461055e57610211565b8063770031941461043c578063773df151146104585780637adbf973146104765780637dc0d1d01461049257610211565b806336568abe116101a85780634a0bbabb116101775780634a0bbabb1461039a5780634fc6c753146103b657806362a2a47c146103e657806368a806c414610404578063764c42301461042057610211565b806336568abe146103245780633a2e845a146103405780633c2df4991461035e57806345f7f2491461037c57610211565b8063248a9ca3116101e4578063248a9ca31461029c578063273a5d95146102cc5780632a6739a2146102ea5780632f2ff15d1461030857610211565b8063012f257a1461021657806301ffc9a7146102325780630e962f00146102625780631661190914610280575b600080fd5b610230600480360381019061022b91906126f4565b6106b8565b005b61024c6004803603810190610247919061279f565b610918565b60405161025991906127e7565b60405180910390f35b61026a610992565b6040516102779190612811565b60405180910390f35b61029a6004803603810190610295919061282c565b6109b6565b005b6102b660048036038101906102b1919061288f565b610a80565b6040516102c391906128cb565b60405180910390f35b6102d4610a9f565b6040516102e191906128ff565b60405180910390f35b6102f2610b14565b6040516102ff9190612811565b60405180910390f35b610322600480360381019061031d919061291a565b610bef565b005b61033e6004803603810190610339919061291a565b610c11565b005b610348610c8c565b6040516103559190612a18565b60405180910390f35b610366610c9d565b60405161037391906128cb565b60405180910390f35b610384610cc1565b6040516103919190612811565b60405180910390f35b6103b460048036038101906103af9190612a3a565b610cc7565b005b6103d060048036038101906103cb9190612aa5565b610cdf565b6040516103dd9190612811565b60405180910390f35b6103ee610eb0565b6040516103fb91906128cb565b60405180910390f35b61041e6004803603810190610419919061282c565b610ed4565b005b61043a60048036038101906104359190612b0c565b610f26565b005b6104566004803603810190610451919061282c565b611105565b005b6104606111d3565b60405161046d9190612811565b60405180910390f35b610490600480360381019061048b9190612b8a565b611288565b005b61049a6113d3565b6040516104a79190612c16565b60405180910390f35b6104ca60048036038101906104c5919061282c565b6113f9565b6040516104d791906127e7565b60405180910390f35b6104fa60048036038101906104f5919061291a565b611416565b60405161050791906127e7565b60405180910390f35b61052a60048036038101906105259190612a3a565b611480565b6040516105379190612811565b60405180910390f35b6105486115fe565b6040516105559190612c52565b60405180910390f35b610566611624565b60405161057391906128cb565b60405180910390f35b6105966004803603810190610591919061282c565b61162b565b6040516105a391906128ff565b60405180910390f35b6105c660048036038101906105c1919061291a565b6116cf565b005b6105e260048036038101906105dd9190612a3a565b6116f1565b6040516105ef9190612811565b60405180910390f35b61060061186f565b60405161060d9190612c8e565b60405180910390f35b610630600480360381019061062b9190612b0c565b611895565b005b61063a611ab2565b6040516106479190612811565b60405180910390f35b61066a600480360381019061066591906126f4565b611ab8565b005b6106866004803603810190610681919061282c565b611d5b565b6040516106939190612811565b60405180910390f35b6106b660048036038101906106b19190612a3a565b611d8f565b005b7fc304524b36c64136ce5783ff1658be193c8352a90708830b9863880958c1fddd6106e281611e4a565b600760009054906101000a900473ffffffffffffffffffffffffffffffffffffffff1673ffffffffffffffffffffffffffffffffffffffff168373ffffffffffffffffffffffffffffffffffffffff1603610769576040517f704f85ae00000000000000000000000000000000000000000000000000000000815260040160405180910390fd5b6000600860009054906101000a900473ffffffffffffffffffffffffffffffffffffffff1673ffffffffffffffffffffffffffffffffffffffff1663e00cb4a584866040518363ffffffff1660e01b81526004016107c8929190612cb8565b602060405180830381865afa1580156107e5573d6000803e3d6000fd5b505050506040513d601f19601f820116820180604052508101906108099190612cf6565b90506000610816826116f1565b9050600061082e876003611e5e90919063ffffffff16565b915050600082905081831115610842578190505b6108638882846108529190612d52565b6003611ea09092919063ffffffff16565b5080600660008282546108769190612d52565b925050819055508773ffffffffffffffffffffffffffffffffffffffff1663c4e2c1e6600860009054906101000a900473ffffffffffffffffffffffffffffffffffffffff16888a6040518463ffffffff1660e01b81526004016108dc93929190612d86565b600060405180830381600087803b1580156108f657600080fd5b505af115801561090a573d6000803e3d6000fd5b505050505050505050505050565b60007f7965db0b000000000000000000000000000000000000000000000000000000007bffffffffffffffffffffffffffffffffffffffffffffffffffffffff1916827bffffffffffffffffffffffffffffffffffffffffffffffffffffffff1916148061098b575061098a82611ed5565b5b9050919050565b7f000000000000000000000000000000000000000000000000000000000000000081565b6000801b6109c381611e4a565b6109d7826003611f3f90919063ffffffff16565b610a1857816040517fe2b10798000000000000000000000000000000000000000000000000000000008152600401610a0f9190612dbd565b60405180910390fd5b610a2c826003611f6f90919063ffffffff16565b508173ffffffffffffffffffffffffffffffffffffffff167f2017a03d63122e396be484633b7d9ed729e8fabe2e0587ccd5e42d8bfde867006000604051610a7491906127e7565b60405180910390a25050565b6000806000838152602001908152602001600020600101549050919050565b6000806000905060005b610ab36003611f9f565b811015610b0c576000610ad0826003611fb490919063ffffffff16565b509050610adc816113f9565b15610af857610aea8161162b565b83610af59190612dd8565b92505b508080610b0490612e1c565b915050610aa9565b508091505090565b6000806000905060005b610b286003611f9f565b811015610be7576000610b45826003611fb490919063ffffffff16565b509050610b51816113f9565b15610bd3578073ffffffffffffffffffffffffffffffffffffffff16632a6739a26040518163ffffffff1660e01b8152600401602060405180830381865afa158015610ba1573d6000803e3d6000fd5b505050506040513d601f19601f82011682018060405250810190610bc59190612cf6565b83610bd09190612e64565b92505b508080610bdf90612e1c565b915050610b1e565b508091505090565b610bf882610a80565b610c0181611e4a565b610c0b8383611fe0565b50505050565b610c196120d1565b73ffffffffffffffffffffffffffffffffffffffff168173ffffffffffffffffffffffffffffffffffffffff1614610c7d576040517f6697b23200000000000000000000000000000000000000000000000000000000815260040160405180910390fd5b610c8782826120d9565b505050565b6060610c9860036121cb565b905090565b7fc304524b36c64136ce5783ff1658be193c8352a90708830b9863880958c1fddd81565b60065481565b6000801b610cd481611e4a565b816002819055505050565b60007f2dca0f5ce7e75a4b43fe2b0d6f5d0b7a2bf92ecf89f8f0aa17b8308b67038821610d0b81611e4a565b8573ffffffffffffffffffffffffffffffffffffffff1663e00cb4a584866040518363ffffffff1660e01b8152600401610d46929190612cb8565b602060405180830381865afa158015610d63573d6000803e3d6000fd5b505050506040513d601f19601f82011682018060405250810190610d879190612cf6565b91506000610d948761162b565b9050600081131580610da557508083135b15610de95782816040517f3afdadde000000000000000000000000000000000000000000000000000000008152600401610de0929190612e98565b60405180910390fd5b8673ffffffffffffffffffffffffffffffffffffffff1663c4e2c1e68786886040518463ffffffff1660e01b8152600401610e2693929190612d86565b600060405180830381600087803b158015610e4057600080fd5b505af1158015610e54573d6000803e3d6000fd5b505050508673ffffffffffffffffffffffffffffffffffffffff167f124fd12bda4dcb813885ca782fb4ea9350d4f752b1a881cadf8742d8f128bb8e84604051610e9e9190612811565b60405180910390a25050949350505050565b7f2dca0f5ce7e75a4b43fe2b0d6f5d0b7a2bf92ecf89f8f0aa17b8308b6703882181565b6000801b610ee181611e4a565b81600860006101000a81548173ffffffffffffffffffffffffffffffffffffffff021916908373ffffffffffffffffffffffffffffffffffffffff1602179055505050565b7fc304524b36c64136ce5783ff1658be193c8352a90708830b9863880958c1fddd610f5081611e4a565b6000610f5a6111d3565b90506000610f72856003611e5e90919063ffffffff16565b9150506000811115610fa157610f9f858583610f8e9190612d52565b6003611ea09092919063ffffffff16565b505b8360066000828254610fb39190612d52565b92505081905550600760009054906101000a900473ffffffffffffffffffffffffffffffffffffffff1673ffffffffffffffffffffffffffffffffffffffff166323b872dd8630876040518463ffffffff1660e01b815260040161101993929190612ec1565b6020604051808303816000875af1158015611038573d6000803e3d6000fd5b505050506040513d601f19601f8201168201806040525081019061105c9190612f24565b5060006110676111d3565b90508281146110af5782816040517fec29a0860000000000000000000000000000000000000000000000000000000081526004016110a6929190612f51565b60405180910390fd5b8573ffffffffffffffffffffffffffffffffffffffff167fc57e1ebcdc3ba533a9852552e139d8119d9599c48177705d00b4100a32c046d8866040516110f59190612811565b60405180910390a2505050505050565b6000801b61111281611e4a565b611126826003611f3f90919063ffffffff16565b1561116857816040517fad2a3c3100000000000000000000000000000000000000000000000000000000815260040161115f9190612dbd565b60405180910390fd5b61117f8260006003611ea09092919063ffffffff16565b508173ffffffffffffffffffffffffffffffffffffffff167f2017a03d63122e396be484633b7d9ed729e8fabe2e0587ccd5e42d8bfde8670060016040516111c791906127e7565b60405180910390a25050565b600080600760009054906101000a900473ffffffffffffffffffffffffffffffffffffffff1673ffffffffffffffffffffffffffffffffffffffff166370a08231306040518263ffffffff1660e01b81526004016112319190612dbd565b602060405180830381865afa15801561124e573d6000803e3d6000fd5b505050506040513d601f19601f820116820180604052508101906112729190612cf6565b9050600654816112829190612e64565b91505090565b6000801b61129581611e4a565b6002548273ffffffffffffffffffffffffffffffffffffffff16638c89b64f6040518163ffffffff1660e01b8152600401602060405180830381865afa1580156112e3573d6000803e3d6000fd5b505050506040513d601f19601f820116820180604052508101906113079190612cf6565b1461134b576002546040517f9b6812b90000000000000000000000000000000000000000000000000000000081526004016113429190612811565b60405180910390fd5b81600160006101000a81548173ffffffffffffffffffffffffffffffffffffffff021916908373ffffffffffffffffffffffffffffffffffffffff1602179055508173ffffffffffffffffffffffffffffffffffffffff167f3f32684a32a11dabdbb8c0177de80aa3ae36a004d75210335b49e544e48cd0aa60405160405180910390a25050565b600160009054906101000a900473ffffffffffffffffffffffffffffffffffffffff1681565b600061140f826003611f3f90919063ffffffff16565b9050919050565b600080600084815260200190815260200160002060000160008373ffffffffffffffffffffffffffffffffffffffff1673ffffffffffffffffffffffffffffffffffffffff16815260200190815260200160002060009054906101000a900460ff16905092915050565b600080600760009054906101000a900473ffffffffffffffffffffffffffffffffffffffff1673ffffffffffffffffffffffffffffffffffffffff1663313ce5676040518163ffffffff1660e01b8152600401602060405180830381865afa1580156114f0573d6000803e3d6000fd5b505050506040513d601f19601f820116820180604052508101906115149190612fb3565b905080600a6115239190613113565b600160009054906101000a900473ffffffffffffffffffffffffffffffffffffffff1673ffffffffffffffffffffffffffffffffffffffff1663b3596f07600760009054906101000a900473ffffffffffffffffffffffffffffffffffffffff166040518263ffffffff1660e01b81526004016115a09190612dbd565b602060405180830381865afa1580156115bd573d6000803e3d6000fd5b505050506040513d601f19601f820116820180604052508101906115e19190612cf6565b846115ec919061315e565b6115f691906131cf565b915050919050565b600760009054906101000a900473ffffffffffffffffffffffffffffffffffffffff1681565b6000801b81565b6000808273ffffffffffffffffffffffffffffffffffffffff1663d4c3eea06040518163ffffffff1660e01b8152600401602060405180830381865afa158015611679573d6000803e3d6000fd5b505050506040513d601f19601f8201168201806040525081019061169d9190612cf6565b905060006116aa84611d5b565b905060006116b782611480565b905080836116c59190613200565b9350505050919050565b6116d882610a80565b6116e181611e4a565b6116eb83836120d9565b50505050565b600080600760009054906101000a900473ffffffffffffffffffffffffffffffffffffffff1673ffffffffffffffffffffffffffffffffffffffff1663313ce5676040518163ffffffff1660e01b8152600401602060405180830381865afa158015611761573d6000803e3d6000fd5b505050506040513d601f19601f820116820180604052508101906117859190612fb3565b9050600160009054906101000a900473ffffffffffffffffffffffffffffffffffffffff1673ffffffffffffffffffffffffffffffffffffffff1663b3596f07600760009054906101000a900473ffffffffffffffffffffffffffffffffffffffff166040518263ffffffff1660e01b81526004016118049190612dbd565b602060405180830381865afa158015611821573d6000803e3d6000fd5b505050506040513d601f19601f820116820180604052508101906118459190612cf6565b81600a6118529190613113565b8461185d919061315e565b61186791906131cf565b915050919050565b600860009054906101000a900473ffffffffffffffffffffffffffffffffffffffff1681565b7fc304524b36c64136ce5783ff1658be193c8352a90708830b9863880958c1fddd6118bf81611e4a565b60006118c96111d3565b90506118d4846113f9565b61191557836040517fe2b1079800000000000000000000000000000000000000000000000000000000815260040161190c9190612dbd565b60405180910390fd5b600061192b856003611e5e90919063ffffffff16565b91505061194f85858361193e9190612e64565b6003611ea09092919063ffffffff16565b5083600660008282546119629190612e64565b92505081905550600760009054906101000a900473ffffffffffffffffffffffffffffffffffffffff1673ffffffffffffffffffffffffffffffffffffffff1663a9059cbb86866040518363ffffffff1660e01b81526004016119c6929190613243565b6020604051808303816000875af11580156119e5573d6000803e3d6000fd5b505050506040513d601f19601f82011682018060405250810190611a099190612f24565b506000611a146111d3565b9050828114611a5c5782816040517fec29a086000000000000000000000000000000000000000000000000000000008152600401611a53929190612f51565b60405180910390fd5b8573ffffffffffffffffffffffffffffffffffffffff167f9b8105582b12481c6193ec3b651067ba5c410f1474d24704b0a67f89086da61486604051611aa29190612811565b60405180910390a2505050505050565b60025481565b7fc304524b36c64136ce5783ff1658be193c8352a90708830b9863880958c1fddd611ae281611e4a565b600760009054906101000a900473ffffffffffffffffffffffffffffffffffffffff1673ffffffffffffffffffffffffffffffffffffffff168373ffffffffffffffffffffffffffffffffffffffff1603611b69576040517f704f85ae00000000000000000000000000000000000000000000000000000000815260040160405180910390fd5b611b7d846003611f3f90919063ffffffff16565b611bbe57836040517fe2b10798000000000000000000000000000000000000000000000000000000008152600401611bb59190612dbd565b60405180910390fd5b6000600860009054906101000a900473ffffffffffffffffffffffffffffffffffffffff1673ffffffffffffffffffffffffffffffffffffffff1663e00cb4a584866040518363ffffffff1660e01b8152600401611c1d929190612cb8565b602060405180830381865afa158015611c3a573d6000803e3d6000fd5b505050506040513d601f19601f82011682018060405250810190611c5e9190612cf6565b90506000611c6b826116f1565b90506000611c83876003611e5e90919063ffffffff16565b915050611ca7878383611c969190612e64565b6003611ea09092919063ffffffff16565b508160066000828254611cba9190612e64565b92505081905550600860009054906101000a900473ffffffffffffffffffffffffffffffffffffffff1673ffffffffffffffffffffffffffffffffffffffff1663c4e2c1e68887896040518463ffffffff1660e01b8152600401611d2093929190612d86565b600060405180830381600087803b158015611d3a57600080fd5b505af1158015611d4e573d6000803e3d6000fd5b5050505050505050505050565b6000806000611d74846003611e5e90919063ffffffff16565b9150915081611d84576000611d86565b805b92505050919050565b7fc304524b36c64136ce5783ff1658be193c8352a90708830b9863880958c1fddd611db981611e4a565b600760009054906101000a900473ffffffffffffffffffffffffffffffffffffffff1673ffffffffffffffffffffffffffffffffffffffff166342966c68836040518263ffffffff1660e01b8152600401611e149190612811565b600060405180830381600087803b158015611e2e57600080fd5b505af1158015611e42573d6000803e3d6000fd5b505050505050565b611e5b81611e566120d1565b6121ec565b50565b600080600080611e8a866000018673ffffffffffffffffffffffffffffffffffffffff1660001b61223d565b91509150818160001c9350935050509250929050565b6000611ecc846000018473ffffffffffffffffffffffffffffffffffffffff1660001b8460001b61228c565b90509392505050565b60007f01ffc9a7000000000000000000000000000000000000000000000000000000007bffffffffffffffffffffffffffffffffffffffffffffffffffffffff1916827bffffffffffffffffffffffffffffffffffffffffffffffffffffffff1916149050919050565b6000611f67836000018373ffffffffffffffffffffffffffffffffffffffff1660001b6122c7565b905092915050565b6000611f97836000018373ffffffffffffffffffffffffffffffffffffffff1660001b6122e7565b905092915050565b6000611fad82600001612320565b9050919050565b600080600080611fc78660000186612335565b915091508160001c8160001c9350935050509250929050565b6000611fec8383611416565b6120c657600160008085815260200190815260200160002060000160008473ffffffffffffffffffffffffffffffffffffffff1673ffffffffffffffffffffffffffffffffffffffff16815260200190815260200160002060006101000a81548160ff0219169083151502179055506120636120d1565b73ffffffffffffffffffffffffffffffffffffffff168273ffffffffffffffffffffffffffffffffffffffff16847f2f8788117e7eff1d82e926ec794901d17c78024a50270940304540a733656f0d60405160405180910390a4600190506120cb565b600090505b92915050565b600033905090565b60006120e58383611416565b156121c057600080600085815260200190815260200160002060000160008473ffffffffffffffffffffffffffffffffffffffff1673ffffffffffffffffffffffffffffffffffffffff16815260200190815260200160002060006101000a81548160ff02191690831515021790555061215d6120d1565b73ffffffffffffffffffffffffffffffffffffffff168273ffffffffffffffffffffffffffffffffffffffff16847ff6391f5c32d9c69d2a47ea670b442974b53935d1edc7fd64eb21e047a839171b60405160405180910390a4600190506121c5565b600090505b92915050565b606060006121db83600001612375565b905060608190508092505050919050565b6121f68282611416565b6122395780826040517fe2517d3f00000000000000000000000000000000000000000000000000000000815260040161223092919061326c565b60405180910390fd5b5050565b60008060008460020160008581526020019081526020016000205490506000801b810361227c5761226e85856122c7565b6000801b9250925050612285565b60018192509250505b9250929050565b600081846002016000858152602001908152602001600020819055506122be838560000161238a90919063ffffffff16565b90509392505050565b60006122df82846000016123a190919063ffffffff16565b905092915050565b60008260020160008381526020019081526020016000206000905561231882846000016123b890919063ffffffff16565b905092915050565b600061232e826000016123cf565b9050919050565b600080600061235084866000016123e490919063ffffffff16565b9050808560020160008381526020019081526020016000205492509250509250929050565b6060612383826000016123fb565b9050919050565b6000612399836000018361241c565b905092915050565b60006123b0836000018361248c565b905092915050565b60006123c783600001836124af565b905092915050565b60006123dd826000016125c3565b9050919050565b60006123f383600001836125d4565b905092915050565b6060600061240b836000016125ff565b905060608190508092505050919050565b6000612428838361248c565b612481578260000182908060018154018082558091505060019003906000526020600020016000909190919091505582600001805490508360010160008481526020019081526020016000208190555060019050612486565b600090505b92915050565b600080836001016000848152602001908152602001600020541415905092915050565b600080836001016000848152602001908152602001600020549050600081146125b75760006001826124e19190612d52565b90506000600186600001805490506124f99190612d52565b905080821461256857600086600001828154811061251a57612519613295565b5b906000526020600020015490508087600001848154811061253e5761253d613295565b5b90600052602060002001819055508387600101600083815260200190815260200160002081905550505b8560000180548061257c5761257b6132c4565b5b6001900381819060005260206000200160009055905585600101600086815260200190815260200160002060009055600193505050506125bd565b60009150505b92915050565b600081600001805490509050919050565b60008260000182815481106125ec576125eb613295565b5b9060005260206000200154905092915050565b60608160000180548060200260200160405190810160405280929190818152602001828054801561264f57602002820191906000526020600020905b81548152602001906001019080831161263b575b50505050509050919050565b600080fd5b600073ffffffffffffffffffffffffffffffffffffffff82169050919050565b600061268b82612660565b9050919050565b61269b81612680565b81146126a657600080fd5b50565b6000813590506126b881612692565b92915050565b6000819050919050565b6126d1816126be565b81146126dc57600080fd5b50565b6000813590506126ee816126c8565b92915050565b60008060006060848603121561270d5761270c61265b565b5b600061271b868287016126a9565b935050602061272c868287016126a9565b925050604061273d868287016126df565b9150509250925092565b60007fffffffff0000000000000000000000000000000000000000000000000000000082169050919050565b61277c81612747565b811461278757600080fd5b50565b60008135905061279981612773565b92915050565b6000602082840312156127b5576127b461265b565b5b60006127c38482850161278a565b91505092915050565b60008115159050919050565b6127e1816127cc565b82525050565b60006020820190506127fc60008301846127d8565b92915050565b61280b816126be565b82525050565b60006020820190506128266000830184612802565b92915050565b6000602082840312156128425761284161265b565b5b6000612850848285016126a9565b91505092915050565b6000819050919050565b61286c81612859565b811461287757600080fd5b50565b60008135905061288981612863565b92915050565b6000602082840312156128a5576128a461265b565b5b60006128b38482850161287a565b91505092915050565b6128c581612859565b82525050565b60006020820190506128e060008301846128bc565b92915050565b6000819050919050565b6128f9816128e6565b82525050565b600060208201905061291460008301846128f0565b92915050565b600080604083850312156129315761293061265b565b5b600061293f8582860161287a565b9250506020612950858286016126a9565b9150509250929050565b600081519050919050565b600082825260208201905092915050565b6000819050602082019050919050565b61298f81612680565b82525050565b60006129a18383612986565b60208301905092915050565b6000602082019050919050565b60006129c58261295a565b6129cf8185612965565b93506129da83612976565b8060005b83811015612a0b5781516129f28882612995565b97506129fd836129ad565b9250506001810190506129de565b5085935050505092915050565b60006020820190508181036000830152612a3281846129ba565b905092915050565b600060208284031215612a5057612a4f61265b565b5b6000612a5e848285016126df565b91505092915050565b6000612a7282612680565b9050919050565b612a8281612a67565b8114612a8d57600080fd5b50565b600081359050612a9f81612a79565b92915050565b60008060008060808587031215612abf57612abe61265b565b5b6000612acd87828801612a90565b9450506020612ade878288016126a9565b9350506040612aef878288016126a9565b9250506060612b00878288016126df565b91505092959194509250565b60008060408385031215612b2357612b2261265b565b5b6000612b31858286016126a9565b9250506020612b42858286016126df565b9150509250929050565b6000612b5782612680565b9050919050565b612b6781612b4c565b8114612b7257600080fd5b50565b600081359050612b8481612b5e565b92915050565b600060208284031215612ba057612b9f61265b565b5b6000612bae84828501612b75565b91505092915050565b6000819050919050565b6000612bdc612bd7612bd284612660565b612bb7565b612660565b9050919050565b6000612bee82612bc1565b9050919050565b6000612c0082612be3565b9050919050565b612c1081612bf5565b82525050565b6000602082019050612c2b6000830184612c07565b92915050565b6000612c3c82612be3565b9050919050565b612c4c81612c31565b82525050565b6000602082019050612c676000830184612c43565b92915050565b6000612c7882612be3565b9050919050565b612c8881612c6d565b82525050565b6000602082019050612ca36000830184612c7f565b92915050565b612cb281612680565b82525050565b6000604082019050612ccd6000830185612802565b612cda6020830184612ca9565b9392505050565b600081519050612cf0816126c8565b92915050565b600060208284031215612d0c57612d0b61265b565b5b6000612d1a84828501612ce1565b91505092915050565b7f4e487b7100000000000000000000000000000000000000000000000000000000600052601160045260246000fd5b6000612d5d826126be565b9150612d68836126be565b9250828203905081811115612d8057612d7f612d23565b5b92915050565b6000606082019050612d9b6000830186612ca9565b612da86020830185612802565b612db56040830184612ca9565b949350505050565b6000602082019050612dd26000830184612ca9565b92915050565b6000612de3826128e6565b9150612dee836128e6565b925082820190508281121560008312168382126000841215161715612e1657612e15612d23565b5b92915050565b6000612e27826126be565b91507fffffffffffffffffffffffffffffffffffffffffffffffffffffffffffffffff8203612e5957612e58612d23565b5b600182019050919050565b6000612e6f826126be565b9150612e7a836126be565b9250828201905080821115612e9257612e91612d23565b5b92915050565b6000604082019050612ead6000830185612802565b612eba60208301846128f0565b9392505050565b6000606082019050612ed66000830186612ca9565b612ee36020830185612ca9565b612ef06040830184612802565b949350505050565b612f01816127cc565b8114612f0c57600080fd5b50565b600081519050612f1e81612ef8565b92915050565b600060208284031215612f3a57612f3961265b565b5b6000612f4884828501612f0f565b91505092915050565b6000604082019050612f666000830185612802565b612f736020830184612802565b9392505050565b600060ff82169050919050565b612f9081612f7a565b8114612f9b57600080fd5b50565b600081519050612fad81612f87565b92915050565b600060208284031215612fc957612fc861265b565b5b6000612fd784828501612f9e565b91505092915050565b60008160011c9050919050565b6000808291508390505b60018511156130375780860481111561301357613012612d23565b5b60018516156130225780820291505b808102905061303085612fe0565b9450612ff7565b94509492505050565b600082613050576001905061310c565b8161305e576000905061310c565b8160018114613074576002811461307e576130ad565b600191505061310c565b60ff8411156130905761308f612d23565b5b8360020a9150848211156130a7576130a6612d23565b5b5061310c565b5060208310610133831016604e8410600b84101617156130e25782820a9050838111156130dd576130dc612d23565b5b61310c565b6130ef8484846001612fed565b9250905081840481111561310657613105612d23565b5b81810290505b9392505050565b600061311e826126be565b915061312983612f7a565b92506131567fffffffffffffffffffffffffffffffffffffffffffffffffffffffffffffffff8484613040565b905092915050565b6000613169826126be565b9150613174836126be565b9250828202613182816126be565b9150828204841483151761319957613198612d23565b5b5092915050565b7f4e487b7100000000000000000000000000000000000000000000000000000000600052601260045260246000fd5b60006131da826126be565b91506131e5836126be565b9250826131f5576131f46131a0565b5b828204905092915050565b600061320b826128e6565b9150613216836128e6565b925082820390508181126000841216828213600085121516171561323d5761323c612d23565b5b92915050565b60006040820190506132586000830185612ca9565b6132656020830184612802565b9392505050565b60006040820190506132816000830185612ca9565b61328e60208301846128bc565b9392505050565b7f4e487b7100000000000000000000000000000000000000000000000000000000600052603260045260246000fd5b7f4e487b7100000000000000000000000000000000000000000000000000000000600052603160045260246000fdfea264697066735822122098f776d807e211d1bfba979bce220b5d1886ae0e72c7052ff5dfc92b8e10723e64736f6c63430008140033",
  "devdoc": {
    "details": "Manages AMOs for dStable Handles allocation, deallocation, collateral management, and profit management for AMO vaults.",
    "errors": {
      "AccessControlBadConfirmation()": [
        {
          "details": "The caller of a function is not the expected one. NOTE: Don't confuse with {AccessControlUnauthorizedAccount}."
        }
      ],
      "AccessControlUnauthorizedAccount(address,bytes32)": [
        {
          "details": "The `account` is missing a role."
        }
      ]
    },
    "events": {
      "RoleAdminChanged(bytes32,bytes32,bytes32)": {
        "details": "Emitted when `newAdminRole` is set as ``role``'s admin role, replacing `previousAdminRole` `DEFAULT_ADMIN_ROLE` is the starting admin for all roles, despite {RoleAdminChanged} not being emitted signaling this."
      },
      "RoleGranted(bytes32,address,address)": {
        "details": "Emitted when `account` is granted `role`. `sender` is the account that originated the contract call. This account bears the admin role (for the granted role). Expected in cases where the role was granted using the internal {AccessControl-_grantRole}."
      },
      "RoleRevoked(bytes32,address,address)": {
        "details": "Emitted when `account` is revoked `role`. `sender` is the account that originated the contract call:   - if using `revokeRole`, it is the admin role bearer   - if using `renounceRole`, it is the role bearer (i.e. `account`)"
      }
    },
    "kind": "dev",
    "methods": {
      "allocateAmo(address,uint256)": {
        "params": {
          "amoVault": "The address of the AMO vault.",
          "dstableAmount": "The amount of dStable to allocate."
        }
      },
      "amoVaultAllocation(address)": {
        "params": {
          "amoVault": "The address of the AMO vault."
        },
        "returns": {
          "_0": "The current allocation for the vault."
        }
      },
      "amoVaults()": {
        "returns": {
          "_0": "The list of AMO vault addresses."
        }
      },
      "availableProfitInBase()": {
        "returns": {
          "_0": "The total available profit in base."
        }
      },
      "availableVaultProfitsInBase(address)": {
        "params": {
          "vaultAddress": "The address of the AMO vault to check."
        },
        "returns": {
          "_0": "The available profit in base (can be negative)."
        }
      },
      "baseValueToDstableAmount(uint256)": {
        "params": {
          "baseValue": "The amount of base value to convert."
        },
        "returns": {
          "_0": "The equivalent amount of dStable tokens."
        }
      },
      "constructor": {
        "params": {
          "_collateralHolderVault": "The address of the collateral holder vault.",
          "_dstable": "The address of the dStable stablecoin.",
          "_oracle": "The oracle for price feeds."
        }
      },
      "deallocateAmo(address,uint256)": {
        "params": {
          "amoVault": "The address of the AMO vault.",
          "dstableAmount": "The amount of dStable to deallocate."
        }
      },
      "decreaseAmoSupply(uint256)": {
        "params": {
          "dstableAmount": "The amount of dStable to burn."
        }
      },
      "disableAmoVault(address)": {
        "params": {
          "amoVault": "The address of the AMO vault."
        }
      },
      "dstableAmountToBaseValue(uint256)": {
        "params": {
          "dstableAmount": "The amount of dStable tokens to convert."
        },
        "returns": {
          "_0": "The equivalent amount of base value."
        }
      },
      "enableAmoVault(address)": {
        "params": {
          "amoVault": "The address of the AMO vault."
        }
      },
      "getRoleAdmin(bytes32)": {
        "details": "Returns the admin role that controls `role`. See {grantRole} and {revokeRole}. To change a role's admin, use {_setRoleAdmin}."
      },
      "grantRole(bytes32,address)": {
        "details": "Grants `role` to `account`. If `account` had not been already granted `role`, emits a {RoleGranted} event. Requirements: - the caller must have ``role``'s admin role. May emit a {RoleGranted} event."
      },
      "hasRole(bytes32,address)": {
        "details": "Returns `true` if `account` has been granted `role`."
      },
      "isAmoActive(address)": {
        "params": {
          "amoVault": "The address of the AMO vault to check."
        },
        "returns": {
          "_0": "True if the AMO vault is active, false otherwise."
        }
      },
      "renounceRole(bytes32,address)": {
        "details": "Revokes `role` from the calling account. Roles are often managed via {grantRole} and {revokeRole}: this function's purpose is to provide a mechanism for accounts to lose their privileges if they are compromised (such as when a trusted device is misplaced). If the calling account had been revoked `role`, emits a {RoleRevoked} event. Requirements: - the caller must be `callerConfirmation`. May emit a {RoleRevoked} event."
      },
      "revokeRole(bytes32,address)": {
        "details": "Revokes `role` from `account`. If `account` had been granted `role`, emits a {RoleRevoked} event. Requirements: - the caller must have ``role``'s admin role. May emit a {RoleRevoked} event."
      },
      "setBaseCurrencyUnit(uint256)": {
        "details": "Only used if the oracle's base currency unit changes",
        "params": {
          "_newBaseCurrencyUnit": "The new base currency unit to set"
        }
      },
      "setCollateralVault(address)": {
        "params": {
          "_collateralVault": "The address of the new collateral vault"
        }
      },
      "setOracle(address)": {
        "params": {
          "newOracle": "The new oracle to use"
        }
      },
      "supportsInterface(bytes4)": {
        "details": "See {IERC165-supportsInterface}."
      },
      "totalAmoSupply()": {
        "returns": {
          "_0": "The total AMO supply."
        }
      },
      "totalCollateralValue()": {
        "returns": {
          "_0": "The total collateral value in base value."
        }
      },
      "transferFromAmoVaultToHoldingVault(address,address,uint256)": {
        "params": {
          "amoVault": "The address of the AMO vault.",
          "amount": "The amount of collateral to transfer.",
          "token": "The address of the collateral token to transfer."
        }
      },
      "transferFromHoldingVaultToAmoVault(address,address,uint256)": {
        "params": {
          "amoVault": "The address of the AMO vault.",
          "amount": "The amount of collateral to transfer.",
          "token": "The address of the collateral token to transfer."
        }
      },
      "withdrawProfits(address,address,address,uint256)": {
        "params": {
          "amoVault": "The AMO vault from which to withdraw profits.",
          "recipient": "The address to receive the profits.",
          "takeProfitAmount": "The amount of collateral to withdraw.",
          "takeProfitToken": "The collateral token to withdraw."
        },
        "returns": {
          "takeProfitValueInBase": "The value of the withdrawn profits in base."
        }
      }
    },
    "title": "AmoManager",
    "version": 1
  },
  "userdoc": {
    "kind": "user",
    "methods": {
      "allocateAmo(address,uint256)": {
        "notice": "Allocates AMO tokens to an AMO vault."
      },
      "amoVaultAllocation(address)": {
        "notice": "Returns the allocation for a specific AMO vault."
      },
      "amoVaults()": {
        "notice": "Returns the list of all AMO vaults."
      },
      "availableProfitInBase()": {
        "notice": "Returns the total available profit across all AMO vaults in base."
      },
      "availableVaultProfitsInBase(address)": {
        "notice": "Returns the available profit for a specific vault in base value (e.g., the underlying)."
      },
      "baseValueToDstableAmount(uint256)": {
        "notice": "Converts a base value to an equivalent amount of dStable tokens."
      },
      "constructor": {
        "notice": "Initializes the AmoManager contract."
      },
      "deallocateAmo(address,uint256)": {
        "notice": "Deallocates AMO tokens from an AMO vault."
      },
      "decreaseAmoSupply(uint256)": {
        "notice": "Decreases the AMO supply by burning dStable."
      },
      "disableAmoVault(address)": {
        "notice": "Disables an AMO vault."
      },
      "dstableAmountToBaseValue(uint256)": {
        "notice": "Converts an amount of dStable tokens to an equivalent base value."
      },
      "enableAmoVault(address)": {
        "notice": "Enables an AMO vault."
      },
      "isAmoActive(address)": {
        "notice": "Checks if an AMO vault is active."
      },
      "setBaseCurrencyUnit(uint256)": {
        "notice": "Updates the base currency unit used for price calculations"
      },
      "setCollateralVault(address)": {
        "notice": "Sets the collateral vault address"
      },
      "setOracle(address)": {
        "notice": "Sets the oracle to use for collateral valuation"
      },
      "totalAmoSupply()": {
        "notice": "Returns the total AMO supply."
      },
      "totalCollateralValue()": {
        "notice": "Returns the total collateral value of all active AMO vaults."
      },
      "transferFromAmoVaultToHoldingVault(address,address,uint256)": {
        "notice": "Transfers collateral from an AMO vault to the holding vault."
      },
      "transferFromHoldingVaultToAmoVault(address,address,uint256)": {
        "notice": "Transfers collateral from the holding vault to an AMO vault."
      },
      "withdrawProfits(address,address,address,uint256)": {
        "notice": "Withdraws profits from an AMO vault to a recipient."
      }
    },
    "version": 1
  },
  "storageLayout": {
    "storage": [
      {
        "astId": 2521,
        "contract": "contracts/dstable/AmoManager.sol:AmoManager",
        "label": "_roles",
        "offset": 0,
        "slot": "0",
        "type": "t_mapping(t_bytes32,t_struct(RoleData)2516_storage)"
      },
      {
        "astId": 15108,
        "contract": "contracts/dstable/AmoManager.sol:AmoManager",
        "label": "oracle",
        "offset": 0,
        "slot": "1",
        "type": "t_contract(IPriceOracleGetter)12694"
      },
      {
        "astId": 15110,
        "contract": "contracts/dstable/AmoManager.sol:AmoManager",
        "label": "baseCurrencyUnit",
        "offset": 0,
        "slot": "2",
        "type": "t_uint256"
      },
      {
        "astId": 12742,
        "contract": "contracts/dstable/AmoManager.sol:AmoManager",
        "label": "_amoVaults",
        "offset": 0,
        "slot": "3",
        "type": "t_struct(AddressToUintMap)10880_storage"
      },
      {
        "astId": 12744,
        "contract": "contracts/dstable/AmoManager.sol:AmoManager",
        "label": "totalAllocated",
        "offset": 0,
        "slot": "6",
        "type": "t_uint256"
      },
      {
        "astId": 12747,
        "contract": "contracts/dstable/AmoManager.sol:AmoManager",
        "label": "dstable",
        "offset": 0,
        "slot": "7",
        "type": "t_contract(IMintableERC20)12724"
      },
      {
        "astId": 12750,
        "contract": "contracts/dstable/AmoManager.sol:AmoManager",
        "label": "collateralHolderVault",
        "offset": 0,
        "slot": "8",
        "type": "t_contract(CollateralVault)14556"
      }
    ],
    "types": {
      "t_address": {
        "encoding": "inplace",
        "label": "address",
        "numberOfBytes": "20"
      },
      "t_array(t_bytes32)dyn_storage": {
        "base": "t_bytes32",
        "encoding": "dynamic_array",
        "label": "bytes32[]",
        "numberOfBytes": "32"
      },
      "t_bool": {
        "encoding": "inplace",
        "label": "bool",
        "numberOfBytes": "1"
      },
      "t_bytes32": {
        "encoding": "inplace",
        "label": "bytes32",
        "numberOfBytes": "32"
      },
      "t_contract(CollateralVault)14556": {
        "encoding": "inplace",
        "label": "contract CollateralVault",
        "numberOfBytes": "20"
      },
      "t_contract(IMintableERC20)12724": {
        "encoding": "inplace",
        "label": "contract IMintableERC20",
        "numberOfBytes": "20"
      },
      "t_contract(IPriceOracleGetter)12694": {
        "encoding": "inplace",
        "label": "contract IPriceOracleGetter",
        "numberOfBytes": "20"
      },
      "t_mapping(t_address,t_bool)": {
        "encoding": "mapping",
        "key": "t_address",
        "label": "mapping(address => bool)",
        "numberOfBytes": "32",
        "value": "t_bool"
      },
      "t_mapping(t_bytes32,t_bytes32)": {
        "encoding": "mapping",
        "key": "t_bytes32",
        "label": "mapping(bytes32 => bytes32)",
        "numberOfBytes": "32",
        "value": "t_bytes32"
      },
      "t_mapping(t_bytes32,t_struct(RoleData)2516_storage)": {
        "encoding": "mapping",
        "key": "t_bytes32",
        "label": "mapping(bytes32 => struct AccessControl.RoleData)",
        "numberOfBytes": "32",
        "value": "t_struct(RoleData)2516_storage"
      },
      "t_mapping(t_bytes32,t_uint256)": {
        "encoding": "mapping",
        "key": "t_bytes32",
        "label": "mapping(bytes32 => uint256)",
        "numberOfBytes": "32",
        "value": "t_uint256"
      },
      "t_struct(AddressToUintMap)10880_storage": {
        "encoding": "inplace",
        "label": "struct EnumerableMap.AddressToUintMap",
        "members": [
          {
            "astId": 10879,
            "contract": "contracts/dstable/AmoManager.sol:AmoManager",
            "label": "_inner",
            "offset": 0,
            "slot": "0",
            "type": "t_struct(Bytes32ToBytes32Map)10024_storage"
          }
        ],
        "numberOfBytes": "96"
      },
      "t_struct(Bytes32Set)12240_storage": {
        "encoding": "inplace",
        "label": "struct EnumerableSet.Bytes32Set",
        "members": [
          {
            "astId": 12239,
            "contract": "contracts/dstable/AmoManager.sol:AmoManager",
            "label": "_inner",
            "offset": 0,
            "slot": "0",
            "type": "t_struct(Set)12046_storage"
          }
        ],
        "numberOfBytes": "64"
      },
      "t_struct(Bytes32ToBytes32Map)10024_storage": {
        "encoding": "inplace",
        "label": "struct EnumerableMap.Bytes32ToBytes32Map",
        "members": [
          {
            "astId": 10019,
            "contract": "contracts/dstable/AmoManager.sol:AmoManager",
            "label": "_keys",
            "offset": 0,
            "slot": "0",
            "type": "t_struct(Bytes32Set)12240_storage"
          },
          {
            "astId": 10023,
            "contract": "contracts/dstable/AmoManager.sol:AmoManager",
            "label": "_values",
            "offset": 0,
            "slot": "2",
            "type": "t_mapping(t_bytes32,t_bytes32)"
          }
        ],
        "numberOfBytes": "96"
      },
      "t_struct(RoleData)2516_storage": {
        "encoding": "inplace",
        "label": "struct AccessControl.RoleData",
        "members": [
          {
            "astId": 2513,
            "contract": "contracts/dstable/AmoManager.sol:AmoManager",
            "label": "hasRole",
            "offset": 0,
            "slot": "0",
            "type": "t_mapping(t_address,t_bool)"
          },
          {
            "astId": 2515,
            "contract": "contracts/dstable/AmoManager.sol:AmoManager",
            "label": "adminRole",
            "offset": 0,
            "slot": "1",
            "type": "t_bytes32"
          }
        ],
        "numberOfBytes": "64"
      },
      "t_struct(Set)12046_storage": {
        "encoding": "inplace",
        "label": "struct EnumerableSet.Set",
        "members": [
          {
            "astId": 12041,
            "contract": "contracts/dstable/AmoManager.sol:AmoManager",
            "label": "_values",
            "offset": 0,
            "slot": "0",
            "type": "t_array(t_bytes32)dyn_storage"
          },
          {
            "astId": 12045,
            "contract": "contracts/dstable/AmoManager.sol:AmoManager",
            "label": "_positions",
            "offset": 0,
            "slot": "1",
            "type": "t_mapping(t_bytes32,t_uint256)"
          }
        ],
        "numberOfBytes": "64"
      },
      "t_uint256": {
        "encoding": "inplace",
        "label": "uint256",
        "numberOfBytes": "32"
      }
    }
  }
}