{
  "address": "0xee98a3219f199E8405203FFC1170510040BBab6d",
  "abi": [
    {
      "inputs": [
        {
          "internalType": "contract IPriceOracleGetter",
          "name": "oracle",
          "type": "address"
        }
      ],
      "stateMutability": "nonpayable",
      "type": "constructor"
    },
    {
      "inputs": [],
      "name": "AccessControlBadConfirmation",
      "type": "error"
    },
    {
      "inputs": [
        {
          "internalType": "address",
          "name": "account",
          "type": "address"
        },
        {
          "internalType": "bytes32",
          "name": "neededRole",
          "type": "bytes32"
        }
      ],
      "name": "AccessControlUnauthorizedAccount",
      "type": "error"
    },
    {
      "inputs": [
        {
          "internalType": "uint256",
          "name": "requestedAmount",
          "type": "uint256"
        },
        {
          "internalType": "uint256",
          "name": "maxAmount",
          "type": "uint256"
        }
      ],
      "name": "CannotWithdrawMoreValueThanDeposited",
      "type": "error"
    },
    {
      "inputs": [
        {
          "internalType": "address",
          "name": "collateralAsset",
          "type": "address"
        }
      ],
      "name": "CollateralAlreadyAllowed",
      "type": "error"
    },
    {
      "inputs": [
        {
          "internalType": "address",
          "name": "collateralAsset",
          "type": "address"
        }
      ],
      "name": "CollateralNotSupported",
      "type": "error"
    },
    {
      "inputs": [
        {
          "internalType": "address",
          "name": "collateralAsset",
          "type": "address"
        }
      ],
      "name": "FailedToAddCollateral",
      "type": "error"
    },
    {
      "inputs": [
        {
          "internalType": "address",
          "name": "collateralAsset",
          "type": "address"
        }
      ],
      "name": "FailedToRemoveCollateral",
      "type": "error"
    },
    {
      "inputs": [
        {
          "internalType": "uint256",
          "name": "baseCurrencyUnit",
          "type": "uint256"
        }
      ],
      "name": "IncorrectBaseCurrencyUnit",
      "type": "error"
    },
    {
      "inputs": [],
      "name": "MustSupportAtLeastOneCollateral",
      "type": "error"
    },
    {
      "inputs": [
        {
          "internalType": "address",
          "name": "collateralAsset",
          "type": "address"
        }
      ],
      "name": "NoOracleSupport",
      "type": "error"
    },
    {
      "inputs": [
        {
          "internalType": "address",
          "name": "token",
          "type": "address"
        }
      ],
      "name": "SafeERC20FailedOperation",
      "type": "error"
    },
    {
      "inputs": [
        {
          "internalType": "uint256",
          "name": "toCollateralAmount",
          "type": "uint256"
        },
        {
          "internalType": "uint256",
          "name": "toMinCollateral",
          "type": "uint256"
        }
      ],
      "name": "ToCollateralAmountBelowMin",
      "type": "error"
    },
    {
      "inputs": [
        {
          "internalType": "address",
          "name": "collateralAsset",
          "type": "address"
        }
      ],
      "name": "UnsupportedCollateral",
      "type": "error"
    },
    {
      "anonymous": false,
      "inputs": [
        {
          "indexed": true,
          "internalType": "address",
          "name": "collateralAsset",
          "type": "address"
        }
      ],
      "name": "CollateralAllowed",
      "type": "event"
    },
    {
      "anonymous": false,
      "inputs": [
        {
          "indexed": true,
          "internalType": "address",
          "name": "collateralAsset",
          "type": "address"
        }
      ],
      "name": "CollateralDisallowed",
      "type": "event"
    },
    {
      "anonymous": false,
      "inputs": [
        {
          "indexed": true,
          "internalType": "address",
          "name": "newOracle",
          "type": "address"
        }
      ],
      "name": "OracleSet",
      "type": "event"
    },
    {
      "anonymous": false,
      "inputs": [
        {
          "indexed": true,
          "internalType": "bytes32",
          "name": "role",
          "type": "bytes32"
        },
        {
          "indexed": true,
          "internalType": "bytes32",
          "name": "previousAdminRole",
          "type": "bytes32"
        },
        {
          "indexed": true,
          "internalType": "bytes32",
          "name": "newAdminRole",
          "type": "bytes32"
        }
      ],
      "name": "RoleAdminChanged",
      "type": "event"
    },
    {
      "anonymous": false,
      "inputs": [
        {
          "indexed": true,
          "internalType": "bytes32",
          "name": "role",
          "type": "bytes32"
        },
        {
          "indexed": true,
          "internalType": "address",
          "name": "account",
          "type": "address"
        },
        {
          "indexed": true,
          "internalType": "address",
          "name": "sender",
          "type": "address"
        }
      ],
      "name": "RoleGranted",
      "type": "event"
    },
    {
      "anonymous": false,
      "inputs": [
        {
          "indexed": true,
          "internalType": "bytes32",
          "name": "role",
          "type": "bytes32"
        },
        {
          "indexed": true,
          "internalType": "address",
          "name": "account",
          "type": "address"
        },
        {
          "indexed": true,
          "internalType": "address",
          "name": "sender",
          "type": "address"
        }
      ],
      "name": "RoleRevoked",
      "type": "event"
    },
    {
      "inputs": [],
      "name": "COLLATERAL_MANAGER_ROLE",
      "outputs": [
        {
          "internalType": "bytes32",
          "name": "",
          "type": "bytes32"
        }
      ],
      "stateMutability": "view",
      "type": "function"
    },
    {
      "inputs": [],
      "name": "COLLATERAL_STRATEGY_ROLE",
      "outputs": [
        {
          "internalType": "bytes32",
          "name": "",
          "type": "bytes32"
        }
      ],
      "stateMutability": "view",
      "type": "function"
    },
    {
      "inputs": [],
      "name": "COLLATERAL_WITHDRAWER_ROLE",
      "outputs": [
        {
          "internalType": "bytes32",
          "name": "",
          "type": "bytes32"
        }
      ],
      "stateMutability": "view",
      "type": "function"
    },
    {
      "inputs": [],
      "name": "DEFAULT_ADMIN_ROLE",
      "outputs": [
        {
          "internalType": "bytes32",
          "name": "",
          "type": "bytes32"
        }
      ],
      "stateMutability": "view",
      "type": "function"
    },
    {
      "inputs": [
        {
          "internalType": "address",
          "name": "collateralAsset",
          "type": "address"
        }
      ],
      "name": "allowCollateral",
      "outputs": [],
      "stateMutability": "nonpayable",
      "type": "function"
    },
    {
      "inputs": [
        {
          "internalType": "uint256",
          "name": "baseValue",
          "type": "uint256"
        },
        {
          "internalType": "address",
          "name": "asset",
          "type": "address"
        }
      ],
      "name": "assetAmountFromValue",
      "outputs": [
        {
          "internalType": "uint256",
          "name": "assetAmount",
          "type": "uint256"
        }
      ],
      "stateMutability": "view",
      "type": "function"
    },
    {
      "inputs": [
        {
          "internalType": "uint256",
          "name": "assetAmount",
          "type": "uint256"
        },
        {
          "internalType": "address",
          "name": "asset",
          "type": "address"
        }
      ],
      "name": "assetValueFromAmount",
      "outputs": [
        {
          "internalType": "uint256",
          "name": "baseValue",
          "type": "uint256"
        }
      ],
      "stateMutability": "view",
      "type": "function"
    },
    {
      "inputs": [],
      "name": "baseCurrencyUnit",
      "outputs": [
        {
          "internalType": "uint256",
          "name": "",
          "type": "uint256"
        }
      ],
      "stateMutability": "view",
      "type": "function"
    },
    {
      "inputs": [
        {
          "internalType": "uint256",
          "name": "collateralAmount",
          "type": "uint256"
        },
        {
          "internalType": "address",
          "name": "collateralAsset",
          "type": "address"
        }
      ],
      "name": "deposit",
      "outputs": [],
      "stateMutability": "nonpayable",
      "type": "function"
    },
    {
      "inputs": [
        {
          "internalType": "address",
          "name": "collateralAsset",
          "type": "address"
        }
      ],
      "name": "disallowCollateral",
      "outputs": [],
      "stateMutability": "nonpayable",
      "type": "function"
    },
    {
      "inputs": [
        {
          "internalType": "uint256",
          "name": "fromCollateralAmount",
          "type": "uint256"
        },
        {
          "internalType": "address",
          "name": "fromCollateral",
          "type": "address"
        },
        {
          "internalType": "uint256",
          "name": "toCollateralAmount",
          "type": "uint256"
        },
        {
          "internalType": "address",
          "name": "toCollateral",
          "type": "address"
        }
      ],
      "name": "exchangeCollateral",
      "outputs": [],
      "stateMutability": "nonpayable",
      "type": "function"
    },
    {
      "inputs": [
        {
          "internalType": "uint256",
          "name": "fromCollateralAmount",
          "type": "uint256"
        },
        {
          "internalType": "address",
          "name": "fromCollateral",
          "type": "address"
        },
        {
          "internalType": "address",
          "name": "toCollateral",
          "type": "address"
        },
        {
          "internalType": "uint256",
          "name": "toMinCollateral",
          "type": "uint256"
        }
      ],
      "name": "exchangeMaxCollateral",
      "outputs": [],
      "stateMutability": "nonpayable",
      "type": "function"
    },
    {
      "inputs": [
        {
          "internalType": "bytes32",
          "name": "role",
          "type": "bytes32"
        }
      ],
      "name": "getRoleAdmin",
      "outputs": [
        {
          "internalType": "bytes32",
          "name": "",
          "type": "bytes32"
        }
      ],
      "stateMutability": "view",
      "type": "function"
    },
    {
      "inputs": [
        {
          "internalType": "bytes32",
          "name": "role",
          "type": "bytes32"
        },
        {
          "internalType": "address",
          "name": "account",
          "type": "address"
        }
      ],
      "name": "grantRole",
      "outputs": [],
      "stateMutability": "nonpayable",
      "type": "function"
    },
    {
      "inputs": [
        {
          "internalType": "bytes32",
          "name": "role",
          "type": "bytes32"
        },
        {
          "internalType": "address",
          "name": "account",
          "type": "address"
        }
      ],
      "name": "hasRole",
      "outputs": [
        {
          "internalType": "bool",
          "name": "",
          "type": "bool"
        }
      ],
      "stateMutability": "view",
      "type": "function"
    },
    {
      "inputs": [
        {
          "internalType": "address",
          "name": "collateralAsset",
          "type": "address"
        }
      ],
      "name": "isCollateralSupported",
      "outputs": [
        {
          "internalType": "bool",
          "name": "",
          "type": "bool"
        }
      ],
      "stateMutability": "view",
      "type": "function"
    },
    {
      "inputs": [],
      "name": "listCollateral",
      "outputs": [
        {
          "internalType": "address[]",
          "name": "",
          "type": "address[]"
        }
      ],
      "stateMutability": "view",
      "type": "function"
    },
    {
      "inputs": [
        {
          "internalType": "uint256",
          "name": "fromCollateralAmount",
          "type": "uint256"
        },
        {
          "internalType": "address",
          "name": "fromCollateral",
          "type": "address"
        },
        {
          "internalType": "address",
          "name": "toCollateral",
          "type": "address"
        }
      ],
      "name": "maxExchangeAmount",
      "outputs": [
        {
          "internalType": "uint256",
          "name": "toCollateralAmount",
          "type": "uint256"
        }
      ],
      "stateMutability": "view",
      "type": "function"
    },
    {
      "inputs": [],
      "name": "oracle",
      "outputs": [
        {
          "internalType": "contract IPriceOracleGetter",
          "name": "",
          "type": "address"
        }
      ],
      "stateMutability": "view",
      "type": "function"
    },
    {
      "inputs": [
        {
          "internalType": "bytes32",
          "name": "role",
          "type": "bytes32"
        },
        {
          "internalType": "address",
          "name": "callerConfirmation",
          "type": "address"
        }
      ],
      "name": "renounceRole",
      "outputs": [],
      "stateMutability": "nonpayable",
      "type": "function"
    },
    {
      "inputs": [
        {
          "internalType": "bytes32",
          "name": "role",
          "type": "bytes32"
        },
        {
          "internalType": "address",
          "name": "account",
          "type": "address"
        }
      ],
      "name": "revokeRole",
      "outputs": [],
      "stateMutability": "nonpayable",
      "type": "function"
    },
    {
      "inputs": [
        {
          "internalType": "uint256",
          "name": "_newBaseCurrencyUnit",
          "type": "uint256"
        }
      ],
      "name": "setBaseCurrencyUnit",
      "outputs": [],
      "stateMutability": "nonpayable",
      "type": "function"
    },
    {
      "inputs": [
        {
          "internalType": "contract IPriceOracleGetter",
          "name": "newOracle",
          "type": "address"
        }
      ],
      "name": "setOracle",
      "outputs": [],
      "stateMutability": "nonpayable",
      "type": "function"
    },
    {
      "inputs": [
        {
          "internalType": "bytes4",
          "name": "interfaceId",
          "type": "bytes4"
        }
      ],
      "name": "supportsInterface",
      "outputs": [
        {
          "internalType": "bool",
          "name": "",
          "type": "bool"
        }
      ],
      "stateMutability": "view",
      "type": "function"
    },
    {
      "inputs": [],
      "name": "totalValue",
      "outputs": [
        {
          "internalType": "uint256",
          "name": "baseValue",
          "type": "uint256"
        }
      ],
      "stateMutability": "view",
      "type": "function"
    },
    {
      "inputs": [
        {
          "internalType": "uint256",
          "name": "collateralAmount",
          "type": "uint256"
        },
        {
          "internalType": "address",
          "name": "collateralAsset",
          "type": "address"
        }
      ],
      "name": "withdraw",
      "outputs": [],
      "stateMutability": "nonpayable",
      "type": "function"
    },
    {
      "inputs": [
        {
          "internalType": "address",
          "name": "recipient",
          "type": "address"
        },
        {
          "internalType": "uint256",
          "name": "collateralAmount",
          "type": "uint256"
        },
        {
          "internalType": "address",
          "name": "collateralAsset",
          "type": "address"
        }
      ],
      "name": "withdrawTo",
      "outputs": [],
      "stateMutability": "nonpayable",
      "type": "function"
    }
  ],
  "transactionHash": "0xccb06cc9592103e8698e6fffdb94a6c77f507eb9206bfbf781f2ff62d9126557",
  "args": [
    "0x88b394806536380D0a5232e7F69d661dBCDe8644"
  ],
  "numDeployments": 1,
  "solcInputHash": "601a421431a4d1b98bcec471579cced1",
  "bytecode": "0x60806040523480156200001157600080fd5b5060405162002e8b38038062002e8b833981810160405281019062000037919062000424565b80806305f5e10063ffffffff1681600160006101000a81548173ffffffffffffffffffffffffffffffffffffffff021916908373ffffffffffffffffffffffffffffffffffffffff16021790555080600281905550620000a16000801b336200015860201b60201c565b505050620000b96000801b336200015860201b60201c565b50620000ec7f85e8f2d6819d6b24108062d87ea08f54651bcb8960d98062d3faf96e7873b8b9336200025b60201b60201c565b6200011e7f1f29e81ed8f7ae439f042f6b6767d105e87c4eef908508d5d9e550aef35af644336200025b60201b60201c565b620001507f1a52e20da533a06a1f80a73dba6e5d09cb788f108eae685b8ce6644834e67abe336200025b60201b60201c565b5050620004af565b60006200016c83836200029560201b60201c565b6200025057600160008085815260200190815260200160002060000160008473ffffffffffffffffffffffffffffffffffffffff1673ffffffffffffffffffffffffffffffffffffffff16815260200190815260200160002060006101000a81548160ff021916908315150217905550620001ec620002ff60201b60201c565b73ffffffffffffffffffffffffffffffffffffffff168273ffffffffffffffffffffffffffffffffffffffff16847f2f8788117e7eff1d82e926ec794901d17c78024a50270940304540a733656f0d60405160405180910390a46001905062000255565b600090505b92915050565b6200026c826200030760201b60201c565b6200027d816200032660201b60201c565b6200028f83836200015860201b60201c565b50505050565b600080600084815260200190815260200160002060000160008373ffffffffffffffffffffffffffffffffffffffff1673ffffffffffffffffffffffffffffffffffffffff16815260200190815260200160002060009054906101000a900460ff16905092915050565b600033905090565b6000806000838152602001908152602001600020600101549050919050565b62000347816200033b620002ff60201b60201c565b6200034a60201b60201c565b50565b6200035c82826200029560201b60201c565b620003a25780826040517fe2517d3f0000000000000000000000000000000000000000000000000000000081526004016200039992919062000482565b60405180910390fd5b5050565b600080fd5b600073ffffffffffffffffffffffffffffffffffffffff82169050919050565b6000620003d882620003ab565b9050919050565b6000620003ec82620003cb565b9050919050565b620003fe81620003df565b81146200040a57600080fd5b50565b6000815190506200041e81620003f3565b92915050565b6000602082840312156200043d576200043c620003a6565b5b60006200044d848285016200040d565b91505092915050565b6200046181620003cb565b82525050565b6000819050919050565b6200047c8162000467565b82525050565b600060408201905062000499600083018562000456565b620004a8602083018462000471565b9392505050565b6129cc80620004bf6000396000f3fe608060405234801561001057600080fd5b50600436106101a85760003560e01c80637adbf973116100f9578063c4e2c1e611610097578063d547741f11610071578063d547741f146104a3578063e00cb4a5146104bf578063f3bddde1146104ef578063fa6bd2ee1461050d576101a8565b8063c4e2c1e61461044b578063cf07456f14610467578063d4c3eea014610485576101a8565b8063847b39d7116100d3578063847b39d7146103b157806391d14854146103e1578063a217fddf14610411578063a4e2a31e1461042f576101a8565b80637adbf9731461035b5780637dc0d1d01461037757806383f1077714610395576101a8565b80632f2ff15d1161016657806345daa27b1161014057806345daa27b146102d55780634a0bbabb146102f35780635c23ef6e1461030f5780636e553f651461033f576101a8565b80632f2ff15d14610281578063339b55151461029d57806336568abe146102b9576101a8565b8062f714ce146101ad57806301ffc9a7146101c9578063132c29b2146101f95780631ee903b614610217578063248a9ca3146102335780632e718ab714610263575b600080fd5b6101c760048036038101906101c29190611eb3565b61053d565b005b6101e360048036038101906101de9190611f4b565b610577565b6040516101f09190611f93565b60405180910390f35b6102016105f1565b60405161020e9190611fc7565b60405180910390f35b610231600480360381019061022c9190611fe2565b610615565b005b61024d6004803603810190610248919061203b565b610773565b60405161025a9190611fc7565b60405180910390f35b61026b610792565b6040516102789190611fc7565b60405180910390f35b61029b60048036038101906102969190612068565b6107b6565b005b6102b760048036038101906102b291906120a8565b6107d8565b005b6102d360048036038101906102ce9190612068565b61090b565b005b6102dd610986565b6040516102ea9190611fc7565b60405180910390f35b61030d6004803603810190610308919061210f565b6109aa565b005b61032960048036038101906103249190611eb3565b6109c2565b604051610336919061214b565b60405180910390f35b61035960048036038101906103549190611eb3565b610b03565b005b610375600480360381019061037091906121a4565b610b89565b005b61037f610cd4565b60405161038c9190612230565b60405180910390f35b6103af60048036038101906103aa919061224b565b610cfa565b005b6103cb60048036038101906103c691906122b2565b610d8e565b6040516103d8919061214b565b60405180910390f35b6103fb60048036038101906103f69190612068565b61100d565b6040516104089190611f93565b60405180910390f35b610419611077565b6040516104269190611fc7565b60405180910390f35b61044960048036038101906104449190611fe2565b61107e565b005b61046560048036038101906104609190612305565b61127a565b005b61046f6112b5565b60405161047c9190612416565b60405180910390f35b61048d6112c6565b60405161049a919061214b565b60405180910390f35b6104bd60048036038101906104b89190612068565b6112d5565b005b6104d960048036038101906104d49190611eb3565b6112f7565b6040516104e6919061214b565b60405180910390f35b6104f7611438565b604051610504919061214b565b60405180910390f35b61052760048036038101906105229190611fe2565b61143e565b6040516105349190611f93565b60405180910390f35b7f1f29e81ed8f7ae439f042f6b6767d105e87c4eef908508d5d9e550aef35af6446105678161145b565b61057233848461146f565b505050565b60007f7965db0b000000000000000000000000000000000000000000000000000000007bffffffffffffffffffffffffffffffffffffffffffffffffffffffff1916827bffffffffffffffffffffffffffffffffffffffffffffffffffffffff191614806105ea57506105e98261149f565b5b9050919050565b7f1a52e20da533a06a1f80a73dba6e5d09cb788f108eae685b8ce6644834e67abe81565b7f85e8f2d6819d6b24108062d87ea08f54651bcb8960d98062d3faf96e7873b8b961063f8161145b565b61065382600361150990919063ffffffff16565b61069457816040517f2108722b00000000000000000000000000000000000000000000000000000000815260040161068b9190612447565b60405180910390fd5b60016106a06003611539565b116106d7576040517f0b78e84a00000000000000000000000000000000000000000000000000000000815260040160405180910390fd5b6106eb82600361154e90919063ffffffff16565b61072c57816040517fc89c7bae0000000000000000000000000000000000000000000000000000000081526004016107239190612447565b60405180910390fd5b8173ffffffffffffffffffffffffffffffffffffffff167fcebbf63022189259f517d89d98c7c527b44c211d25e443dad13aab2479c7e7b360405160405180910390a25050565b6000806000838152602001908152602001600020600101549050919050565b7f85e8f2d6819d6b24108062d87ea08f54651bcb8960d98062d3faf96e7873b8b981565b6107bf82610773565b6107c88161145b565b6107d2838361157e565b50505050565b7f1a52e20da533a06a1f80a73dba6e5d09cb788f108eae685b8ce6644834e67abe6108028161145b565b61081682600361150990919063ffffffff16565b610855576040517f08c379a000000000000000000000000000000000000000000000000000000000815260040161084c906124bf565b60405180910390fd5b6000610862868685610d8e565b9050808411156108ab5783816040517f94d08ba70000000000000000000000000000000000000000000000000000000081526004016108a29291906124df565b60405180910390fd5b6108d83330888873ffffffffffffffffffffffffffffffffffffffff1661166f909392919063ffffffff16565b61090333858573ffffffffffffffffffffffffffffffffffffffff166116f19092919063ffffffff16565b505050505050565b610913611770565b73ffffffffffffffffffffffffffffffffffffffff168173ffffffffffffffffffffffffffffffffffffffff1614610977576040517f6697b23200000000000000000000000000000000000000000000000000000000815260040160405180910390fd5b6109818282611778565b505050565b7f1f29e81ed8f7ae439f042f6b6767d105e87c4eef908508d5d9e550aef35af64481565b6000801b6109b78161145b565b816002819055505050565b600080600160009054906101000a900473ffffffffffffffffffffffffffffffffffffffff1673ffffffffffffffffffffffffffffffffffffffff1663b3596f07846040518263ffffffff1660e01b8152600401610a209190612447565b602060405180830381865afa158015610a3d573d6000803e3d6000fd5b505050506040513d601f19601f82011682018060405250810190610a61919061251d565b905060008373ffffffffffffffffffffffffffffffffffffffff1663313ce5676040518163ffffffff1660e01b8152600401602060405180830381865afa158015610ab0573d6000803e3d6000fd5b505050506040513d601f19601f82011682018060405250810190610ad49190612583565b90508181600a610ae49190612712565b86610aef919061275d565b610af991906127ce565b9250505092915050565b610b1781600361150990919063ffffffff16565b610b5857806040517f4ec5327e000000000000000000000000000000000000000000000000000000008152600401610b4f9190612447565b60405180910390fd5b610b853330848473ffffffffffffffffffffffffffffffffffffffff1661166f909392919063ffffffff16565b5050565b6000801b610b968161145b565b6002548273ffffffffffffffffffffffffffffffffffffffff16638c89b64f6040518163ffffffff1660e01b8152600401602060405180830381865afa158015610be4573d6000803e3d6000fd5b505050506040513d601f19601f82011682018060405250810190610c08919061251d565b14610c4c576002546040517f9b6812b9000000000000000000000000000000000000000000000000000000008152600401610c43919061214b565b60405180910390fd5b81600160006101000a81548173ffffffffffffffffffffffffffffffffffffffff021916908373ffffffffffffffffffffffffffffffffffffffff1602179055508173ffffffffffffffffffffffffffffffffffffffff167f3f32684a32a11dabdbb8c0177de80aa3ae36a004d75210335b49e544e48cd0aa60405160405180910390a25050565b600160009054906101000a900473ffffffffffffffffffffffffffffffffffffffff1681565b7f1a52e20da533a06a1f80a73dba6e5d09cb788f108eae685b8ce6644834e67abe610d248161145b565b6000610d31868686610d8e565b905082811015610d7a5780836040517f61fee8b2000000000000000000000000000000000000000000000000000000008152600401610d719291906124df565b60405180910390fd5b610d86868683876107d8565b505050505050565b600080600160009054906101000a900473ffffffffffffffffffffffffffffffffffffffff1673ffffffffffffffffffffffffffffffffffffffff1663b3596f07856040518263ffffffff1660e01b8152600401610dec9190612447565b602060405180830381865afa158015610e09573d6000803e3d6000fd5b505050506040513d601f19601f82011682018060405250810190610e2d919061251d565b90506000600160009054906101000a900473ffffffffffffffffffffffffffffffffffffffff1673ffffffffffffffffffffffffffffffffffffffff1663b3596f07856040518263ffffffff1660e01b8152600401610e8c9190612447565b602060405180830381865afa158015610ea9573d6000803e3d6000fd5b505050506040513d601f19601f82011682018060405250810190610ecd919061251d565b905060008573ffffffffffffffffffffffffffffffffffffffff1663313ce5676040518163ffffffff1660e01b8152600401602060405180830381865afa158015610f1c573d6000803e3d6000fd5b505050506040513d601f19601f82011682018060405250810190610f409190612583565b905060008573ffffffffffffffffffffffffffffffffffffffff1663313ce5676040518163ffffffff1660e01b8152600401602060405180830381865afa158015610f8f573d6000803e3d6000fd5b505050506040513d601f19601f82011682018060405250810190610fb39190612583565b9050600082600a610fc49190612712565b8986610fd0919061275d565b610fda91906127ce565b90508382600a610fea9190612712565b82610ff5919061275d565b610fff91906127ce565b955050505050509392505050565b600080600084815260200190815260200160002060000160008373ffffffffffffffffffffffffffffffffffffffff1673ffffffffffffffffffffffffffffffffffffffff16815260200190815260200160002060009054906101000a900460ff16905092915050565b6000801b81565b7f85e8f2d6819d6b24108062d87ea08f54651bcb8960d98062d3faf96e7873b8b96110a88161145b565b6110bc82600361150990919063ffffffff16565b156110fe57816040517f263e24fc0000000000000000000000000000000000000000000000000000000081526004016110f59190612447565b60405180910390fd5b6000600160009054906101000a900473ffffffffffffffffffffffffffffffffffffffff1673ffffffffffffffffffffffffffffffffffffffff1663b3596f07846040518263ffffffff1660e01b815260040161115b9190612447565b602060405180830381865afa158015611178573d6000803e3d6000fd5b505050506040513d601f19601f8201168201806040525081019061119c919061251d565b036111de57816040517f83364b180000000000000000000000000000000000000000000000000000000081526004016111d59190612447565b60405180910390fd5b6111f282600361186a90919063ffffffff16565b61123357816040517fcdb5999500000000000000000000000000000000000000000000000000000000815260040161122a9190612447565b60405180910390fd5b8173ffffffffffffffffffffffffffffffffffffffff167f500f8acd525a3d9f96ab641587f59e34ef9d02f9397fdd46bb7786273bad160760405160405180910390a25050565b7f1f29e81ed8f7ae439f042f6b6767d105e87c4eef908508d5d9e550aef35af6446112a48161145b565b6112af84848461146f565b50505050565b60606112c1600361189a565b905090565b60006112d06118bb565b905090565b6112de82610773565b6112e78161145b565b6112f18383611778565b50505050565b600080600160009054906101000a900473ffffffffffffffffffffffffffffffffffffffff1673ffffffffffffffffffffffffffffffffffffffff1663b3596f07846040518263ffffffff1660e01b81526004016113559190612447565b602060405180830381865afa158015611372573d6000803e3d6000fd5b505050506040513d601f19601f82011682018060405250810190611396919061251d565b905060008373ffffffffffffffffffffffffffffffffffffffff1663313ce5676040518163ffffffff1660e01b8152600401602060405180830381865afa1580156113e5573d6000803e3d6000fd5b505050506040513d601f19601f820116820180604052508101906114099190612583565b905080600a6114189190612712565b8583611424919061275d565b61142e91906127ce565b9250505092915050565b60025481565b600061145482600361150990919063ffffffff16565b9050919050565b61146c81611467611770565b611ace565b50565b61149a83838373ffffffffffffffffffffffffffffffffffffffff166116f19092919063ffffffff16565b505050565b60007f01ffc9a7000000000000000000000000000000000000000000000000000000007bffffffffffffffffffffffffffffffffffffffffffffffffffffffff1916827bffffffffffffffffffffffffffffffffffffffffffffffffffffffff1916149050919050565b6000611531836000018373ffffffffffffffffffffffffffffffffffffffff1660001b611b1f565b905092915050565b600061154782600001611b42565b9050919050565b6000611576836000018373ffffffffffffffffffffffffffffffffffffffff1660001b611b53565b905092915050565b600061158a838361100d565b61166457600160008085815260200190815260200160002060000160008473ffffffffffffffffffffffffffffffffffffffff1673ffffffffffffffffffffffffffffffffffffffff16815260200190815260200160002060006101000a81548160ff021916908315150217905550611601611770565b73ffffffffffffffffffffffffffffffffffffffff168273ffffffffffffffffffffffffffffffffffffffff16847f2f8788117e7eff1d82e926ec794901d17c78024a50270940304540a733656f0d60405160405180910390a460019050611669565b600090505b92915050565b6116eb848573ffffffffffffffffffffffffffffffffffffffff166323b872dd8686866040516024016116a4939291906127ff565b604051602081830303815290604052915060e01b6020820180517bffffffffffffffffffffffffffffffffffffffffffffffffffffffff8381831617835250505050611c67565b50505050565b61176b838473ffffffffffffffffffffffffffffffffffffffff1663a9059cbb8585604051602401611724929190612836565b604051602081830303815290604052915060e01b6020820180517bffffffffffffffffffffffffffffffffffffffffffffffffffffffff8381831617835250505050611c67565b505050565b600033905090565b6000611784838361100d565b1561185f57600080600085815260200190815260200160002060000160008473ffffffffffffffffffffffffffffffffffffffff1673ffffffffffffffffffffffffffffffffffffffff16815260200190815260200160002060006101000a81548160ff0219169083151502179055506117fc611770565b73ffffffffffffffffffffffffffffffffffffffff168273ffffffffffffffffffffffffffffffffffffffff16847ff6391f5c32d9c69d2a47ea670b442974b53935d1edc7fd64eb21e047a839171b60405160405180910390a460019050611864565b600090505b92915050565b6000611892836000018373ffffffffffffffffffffffffffffffffffffffff1660001b611d09565b905092915050565b606060006118aa83600001611d79565b905060608190508092505050919050565b6000806000905060005b6118cf6003611539565b811015611ac65760006118ec826003611dd590919063ffffffff16565b90506000600160009054906101000a900473ffffffffffffffffffffffffffffffffffffffff1673ffffffffffffffffffffffffffffffffffffffff1663b3596f07836040518263ffffffff1660e01b815260040161194b9190612447565b602060405180830381865afa158015611968573d6000803e3d6000fd5b505050506040513d601f19601f8201168201806040525081019061198c919061251d565b905060008273ffffffffffffffffffffffffffffffffffffffff1663313ce5676040518163ffffffff1660e01b8152600401602060405180830381865afa1580156119db573d6000803e3d6000fd5b505050506040513d601f19601f820116820180604052508101906119ff9190612583565b9050600081600a611a109190612712565b8473ffffffffffffffffffffffffffffffffffffffff166370a08231306040518263ffffffff1660e01b8152600401611a499190612447565b602060405180830381865afa158015611a66573d6000803e3d6000fd5b505050506040513d601f19601f82011682018060405250810190611a8a919061251d565b84611a95919061275d565b611a9f91906127ce565b90508086611aad919061285f565b9550505050508080611abe90612893565b9150506118c5565b508091505090565b611ad8828261100d565b611b1b5780826040517fe2517d3f000000000000000000000000000000000000000000000000000000008152600401611b129291906128db565b60405180910390fd5b5050565b600080836001016000848152602001908152602001600020541415905092915050565b600081600001805490509050919050565b60008083600101600084815260200190815260200160002054905060008114611c5b576000600182611b859190612904565b9050600060018660000180549050611b9d9190612904565b9050808214611c0c576000866000018281548110611bbe57611bbd612938565b5b9060005260206000200154905080876000018481548110611be257611be1612938565b5b90600052602060002001819055508387600101600083815260200190815260200160002081905550505b85600001805480611c2057611c1f612967565b5b600190038181906000526020600020016000905590558560010160008681526020019081526020016000206000905560019350505050611c61565b60009150505b92915050565b600080602060008451602086016000885af180611c8a576040513d6000823e3d81fd5b3d925060005191505060008214611ca5576001811415611cc1565b60008473ffffffffffffffffffffffffffffffffffffffff163b145b15611d0357836040517f5274afe7000000000000000000000000000000000000000000000000000000008152600401611cfa9190612447565b60405180910390fd5b50505050565b6000611d158383611b1f565b611d6e578260000182908060018154018082558091505060019003906000526020600020016000909190919091505582600001805490508360010160008481526020019081526020016000208190555060019050611d73565b600090505b92915050565b606081600001805480602002602001604051908101604052809291908181526020018280548015611dc957602002820191906000526020600020905b815481526020019060010190808311611db5575b50505050509050919050565b6000611de48360000183611def565b60001c905092915050565b6000826000018281548110611e0757611e06612938565b5b9060005260206000200154905092915050565b600080fd5b6000819050919050565b611e3281611e1f565b8114611e3d57600080fd5b50565b600081359050611e4f81611e29565b92915050565b600073ffffffffffffffffffffffffffffffffffffffff82169050919050565b6000611e8082611e55565b9050919050565b611e9081611e75565b8114611e9b57600080fd5b50565b600081359050611ead81611e87565b92915050565b60008060408385031215611eca57611ec9611e1a565b5b6000611ed885828601611e40565b9250506020611ee985828601611e9e565b9150509250929050565b60007fffffffff0000000000000000000000000000000000000000000000000000000082169050919050565b611f2881611ef3565b8114611f3357600080fd5b50565b600081359050611f4581611f1f565b92915050565b600060208284031215611f6157611f60611e1a565b5b6000611f6f84828501611f36565b91505092915050565b60008115159050919050565b611f8d81611f78565b82525050565b6000602082019050611fa86000830184611f84565b92915050565b6000819050919050565b611fc181611fae565b82525050565b6000602082019050611fdc6000830184611fb8565b92915050565b600060208284031215611ff857611ff7611e1a565b5b600061200684828501611e9e565b91505092915050565b61201881611fae565b811461202357600080fd5b50565b6000813590506120358161200f565b92915050565b60006020828403121561205157612050611e1a565b5b600061205f84828501612026565b91505092915050565b6000806040838503121561207f5761207e611e1a565b5b600061208d85828601612026565b925050602061209e85828601611e9e565b9150509250929050565b600080600080608085870312156120c2576120c1611e1a565b5b60006120d087828801611e40565b94505060206120e187828801611e9e565b93505060406120f287828801611e40565b925050606061210387828801611e9e565b91505092959194509250565b60006020828403121561212557612124611e1a565b5b600061213384828501611e40565b91505092915050565b61214581611e1f565b82525050565b6000602082019050612160600083018461213c565b92915050565b600061217182611e75565b9050919050565b61218181612166565b811461218c57600080fd5b50565b60008135905061219e81612178565b92915050565b6000602082840312156121ba576121b9611e1a565b5b60006121c88482850161218f565b91505092915050565b6000819050919050565b60006121f66121f16121ec84611e55565b6121d1565b611e55565b9050919050565b6000612208826121db565b9050919050565b600061221a826121fd565b9050919050565b61222a8161220f565b82525050565b60006020820190506122456000830184612221565b92915050565b6000806000806080858703121561226557612264611e1a565b5b600061227387828801611e40565b945050602061228487828801611e9e565b935050604061229587828801611e9e565b92505060606122a687828801611e40565b91505092959194509250565b6000806000606084860312156122cb576122ca611e1a565b5b60006122d986828701611e40565b93505060206122ea86828701611e9e565b92505060406122fb86828701611e9e565b9150509250925092565b60008060006060848603121561231e5761231d611e1a565b5b600061232c86828701611e9e565b935050602061233d86828701611e40565b925050604061234e86828701611e9e565b9150509250925092565b600081519050919050565b600082825260208201905092915050565b6000819050602082019050919050565b61238d81611e75565b82525050565b600061239f8383612384565b60208301905092915050565b6000602082019050919050565b60006123c382612358565b6123cd8185612363565b93506123d883612374565b8060005b838110156124095781516123f08882612393565b97506123fb836123ab565b9250506001810190506123dc565b5085935050505092915050565b6000602082019050818103600083015261243081846123b8565b905092915050565b61244181611e75565b82525050565b600060208201905061245c6000830184612438565b92915050565b600082825260208201905092915050565b7f556e737570706f7274656420636f6c6c61746572616c00000000000000000000600082015250565b60006124a9601683612462565b91506124b482612473565b602082019050919050565b600060208201905081810360008301526124d88161249c565b9050919050565b60006040820190506124f4600083018561213c565b612501602083018461213c565b9392505050565b60008151905061251781611e29565b92915050565b60006020828403121561253357612532611e1a565b5b600061254184828501612508565b91505092915050565b600060ff82169050919050565b6125608161254a565b811461256b57600080fd5b50565b60008151905061257d81612557565b92915050565b60006020828403121561259957612598611e1a565b5b60006125a78482850161256e565b91505092915050565b7f4e487b7100000000000000000000000000000000000000000000000000000000600052601160045260246000fd5b60008160011c9050919050565b6000808291508390505b600185111561263657808604811115612612576126116125b0565b5b60018516156126215780820291505b808102905061262f856125df565b94506125f6565b94509492505050565b60008261264f576001905061270b565b8161265d576000905061270b565b8160018114612673576002811461267d576126ac565b600191505061270b565b60ff84111561268f5761268e6125b0565b5b8360020a9150848211156126a6576126a56125b0565b5b5061270b565b5060208310610133831016604e8410600b84101617156126e15782820a9050838111156126dc576126db6125b0565b5b61270b565b6126ee84848460016125ec565b92509050818404811115612705576127046125b0565b5b81810290505b9392505050565b600061271d82611e1f565b91506127288361254a565b92506127557fffffffffffffffffffffffffffffffffffffffffffffffffffffffffffffffff848461263f565b905092915050565b600061276882611e1f565b915061277383611e1f565b925082820261278181611e1f565b91508282048414831517612798576127976125b0565b5b5092915050565b7f4e487b7100000000000000000000000000000000000000000000000000000000600052601260045260246000fd5b60006127d982611e1f565b91506127e483611e1f565b9250826127f4576127f361279f565b5b828204905092915050565b60006060820190506128146000830186612438565b6128216020830185612438565b61282e604083018461213c565b949350505050565b600060408201905061284b6000830185612438565b612858602083018461213c565b9392505050565b600061286a82611e1f565b915061287583611e1f565b925082820190508082111561288d5761288c6125b0565b5b92915050565b600061289e82611e1f565b91507fffffffffffffffffffffffffffffffffffffffffffffffffffffffffffffffff82036128d0576128cf6125b0565b5b600182019050919050565b60006040820190506128f06000830185612438565b6128fd6020830184611fb8565b9392505050565b600061290f82611e1f565b915061291a83611e1f565b9250828203905081811115612932576129316125b0565b5b92915050565b7f4e487b7100000000000000000000000000000000000000000000000000000000600052603260045260246000fd5b7f4e487b7100000000000000000000000000000000000000000000000000000000600052603160045260246000fdfea2646970667358221220d411b0207c0e33c28c7dc49e299899c9fb89b44775add2224087726fdb3e931864736f6c63430008140033",
  "devdoc": {
    "errors": {
      "AccessControlBadConfirmation()": [
        {
          "details": "The caller of a function is not the expected one. NOTE: Don't confuse with {AccessControlUnauthorizedAccount}."
        }
      ],
      "AccessControlUnauthorizedAccount(address,bytes32)": [
        {
          "details": "The `account` is missing a role."
        }
      ],
      "SafeERC20FailedOperation(address)": [
        {
          "details": "An operation with an ERC-20 token failed."
        }
      ]
    },
    "events": {
      "RoleAdminChanged(bytes32,bytes32,bytes32)": {
        "details": "Emitted when `newAdminRole` is set as ``role``'s admin role, replacing `previousAdminRole` `DEFAULT_ADMIN_ROLE` is the starting admin for all roles, despite {RoleAdminChanged} not being emitted signaling this."
      },
      "RoleGranted(bytes32,address,address)": {
        "details": "Emitted when `account` is granted `role`. `sender` is the account that originated the contract call. This account bears the admin role (for the granted role). Expected in cases where the role was granted using the internal {AccessControl-_grantRole}."
      },
      "RoleRevoked(bytes32,address,address)": {
        "details": "Emitted when `account` is revoked `role`. `sender` is the account that originated the contract call:   - if using `revokeRole`, it is the admin role bearer   - if using `renounceRole`, it is the role bearer (i.e. `account`)"
      }
    },
    "kind": "dev",
    "methods": {
      "allowCollateral(address)": {
        "params": {
          "collateralAsset": "The address of the collateral asset"
        }
      },
      "assetAmountFromValue(uint256,address)": {
        "params": {
          "asset": "The address of the asset",
          "baseValue": "The base value"
        },
        "returns": {
          "assetAmount": "The amount of the asset"
        }
      },
      "assetValueFromAmount(uint256,address)": {
        "params": {
          "asset": "The address of the asset",
          "assetAmount": "The amount of the asset"
        },
        "returns": {
          "baseValue": "The base value of the asset"
        }
      },
      "deposit(uint256,address)": {
        "params": {
          "collateralAmount": "The amount of collateral to deposit",
          "collateralAsset": "The address of the collateral asset"
        }
      },
      "disallowCollateral(address)": {
        "details": "Requires at least one collateral asset to remain supported",
        "params": {
          "collateralAsset": "The address of the collateral asset to disallow"
        }
      },
      "exchangeCollateral(uint256,address,uint256,address)": {
        "details": "Ensures the exchange maintains equivalent value using oracle prices",
        "params": {
          "fromCollateral": "Address of the source collateral token",
          "fromCollateralAmount": "Amount of collateral to exchange from",
          "toCollateral": "Address of the destination collateral token",
          "toCollateralAmount": "Amount of collateral to receive"
        }
      },
      "exchangeMaxCollateral(uint256,address,address,uint256)": {
        "details": "Calculates and executes the maximum possible exchange while respecting minimum amount",
        "params": {
          "fromCollateral": "Address of the source collateral token",
          "fromCollateralAmount": "Amount of collateral to exchange from",
          "toCollateral": "Address of the destination collateral token",
          "toMinCollateral": "Minimum amount of destination collateral to receive"
        }
      },
      "getRoleAdmin(bytes32)": {
        "details": "Returns the admin role that controls `role`. See {grantRole} and {revokeRole}. To change a role's admin, use {_setRoleAdmin}."
      },
      "grantRole(bytes32,address)": {
        "details": "Grants `role` to `account`. If `account` had not been already granted `role`, emits a {RoleGranted} event. Requirements: - the caller must have ``role``'s admin role. May emit a {RoleGranted} event."
      },
      "hasRole(bytes32,address)": {
        "details": "Returns `true` if `account` has been granted `role`."
      },
      "isCollateralSupported(address)": {
        "params": {
          "collateralAsset": "The address of the collateral asset to check"
        },
        "returns": {
          "_0": "bool True if the asset is supported, false otherwise"
        }
      },
      "listCollateral()": {
        "returns": {
          "_0": "address[] Array of collateral asset addresses"
        }
      },
      "maxExchangeAmount(uint256,address,address)": {
        "details": "Uses oracle prices and token decimals to maintain equivalent value",
        "params": {
          "fromCollateral": "Address of the source collateral token",
          "fromCollateralAmount": "Amount of source collateral",
          "toCollateral": "Address of the destination collateral token"
        },
        "returns": {
          "toCollateralAmount": "The maximum amount of destination collateral that can be received"
        }
      },
      "renounceRole(bytes32,address)": {
        "details": "Revokes `role` from the calling account. Roles are often managed via {grantRole} and {revokeRole}: this function's purpose is to provide a mechanism for accounts to lose their privileges if they are compromised (such as when a trusted device is misplaced). If the calling account had been revoked `role`, emits a {RoleRevoked} event. Requirements: - the caller must be `callerConfirmation`. May emit a {RoleRevoked} event."
      },
      "revokeRole(bytes32,address)": {
        "details": "Revokes `role` from `account`. If `account` had been granted `role`, emits a {RoleRevoked} event. Requirements: - the caller must have ``role``'s admin role. May emit a {RoleRevoked} event."
      },
      "setBaseCurrencyUnit(uint256)": {
        "details": "Only used if the oracle's base currency unit changes",
        "params": {
          "_newBaseCurrencyUnit": "The new base currency unit to set"
        }
      },
      "setOracle(address)": {
        "params": {
          "newOracle": "The new oracle to use"
        }
      },
      "supportsInterface(bytes4)": {
        "details": "See {IERC165-supportsInterface}."
      },
      "totalValue()": {
        "returns": {
          "baseValue": "The total value of all collateral in base"
        }
      },
      "withdraw(uint256,address)": {
        "params": {
          "collateralAmount": "The amount of collateral to withdraw",
          "collateralAsset": "The address of the collateral asset"
        }
      },
      "withdrawTo(address,uint256,address)": {
        "params": {
          "collateralAmount": "The amount of collateral to withdraw",
          "collateralAsset": "The address of the collateral asset",
          "recipient": "The address receiving the collateral"
        }
      }
    },
    "title": "CollateralHolderVault",
    "version": 1
  },
  "userdoc": {
    "kind": "user",
    "methods": {
      "allowCollateral(address)": {
        "notice": "Allows a new collateral asset"
      },
      "assetAmountFromValue(uint256,address)": {
        "notice": "Calculates the amount of an asset that corresponds to a given base value"
      },
      "assetValueFromAmount(uint256,address)": {
        "notice": "Calculates the base value of a given amount of an asset"
      },
      "deposit(uint256,address)": {
        "notice": "Deposit collateral into the vault"
      },
      "disallowCollateral(address)": {
        "notice": "Disallows a previously supported collateral asset"
      },
      "exchangeCollateral(uint256,address,uint256,address)": {
        "notice": "Exchanges one type of collateral for another"
      },
      "exchangeMaxCollateral(uint256,address,address,uint256)": {
        "notice": "Exchanges collateral for the maximum possible amount of another collateral"
      },
      "isCollateralSupported(address)": {
        "notice": "Checks if a given asset is supported as collateral"
      },
      "listCollateral()": {
        "notice": "Returns a list of all supported collateral assets"
      },
      "maxExchangeAmount(uint256,address,address)": {
        "notice": "Calculates the maximum amount of destination collateral that can be received"
      },
      "setBaseCurrencyUnit(uint256)": {
        "notice": "Updates the base currency unit used for price calculations"
      },
      "setOracle(address)": {
        "notice": "Sets the oracle to use for collateral valuation"
      },
      "totalValue()": {
        "notice": "Calculates the total value of all collateral in the vault"
      },
      "withdraw(uint256,address)": {
        "notice": "Withdraws collateral from the vault"
      },
      "withdrawTo(address,uint256,address)": {
        "notice": "Withdraws collateral from the vault to a specific address"
      }
    },
    "notice": "Implementation of CollateralVault for only holding tokens",
    "version": 1
  },
  "storageLayout": {
    "storage": [
      {
        "astId": 2521,
        "contract": "contracts/dstable/CollateralHolderVault.sol:CollateralHolderVault",
        "label": "_roles",
        "offset": 0,
        "slot": "0",
        "type": "t_mapping(t_bytes32,t_struct(RoleData)2516_storage)"
      },
      {
        "astId": 15108,
        "contract": "contracts/dstable/CollateralHolderVault.sol:CollateralHolderVault",
        "label": "oracle",
        "offset": 0,
        "slot": "1",
        "type": "t_contract(IPriceOracleGetter)12694"
      },
      {
        "astId": 15110,
        "contract": "contracts/dstable/CollateralHolderVault.sol:CollateralHolderVault",
        "label": "baseCurrencyUnit",
        "offset": 0,
        "slot": "2",
        "type": "t_uint256"
      },
      {
        "astId": 14108,
        "contract": "contracts/dstable/CollateralHolderVault.sol:CollateralHolderVault",
        "label": "_supportedCollaterals",
        "offset": 0,
        "slot": "3",
        "type": "t_struct(AddressSet)12361_storage"
      }
    ],
    "types": {
      "t_address": {
        "encoding": "inplace",
        "label": "address",
        "numberOfBytes": "20"
      },
      "t_array(t_bytes32)dyn_storage": {
        "base": "t_bytes32",
        "encoding": "dynamic_array",
        "label": "bytes32[]",
        "numberOfBytes": "32"
      },
      "t_bool": {
        "encoding": "inplace",
        "label": "bool",
        "numberOfBytes": "1"
      },
      "t_bytes32": {
        "encoding": "inplace",
        "label": "bytes32",
        "numberOfBytes": "32"
      },
      "t_contract(IPriceOracleGetter)12694": {
        "encoding": "inplace",
        "label": "contract IPriceOracleGetter",
        "numberOfBytes": "20"
      },
      "t_mapping(t_address,t_bool)": {
        "encoding": "mapping",
        "key": "t_address",
        "label": "mapping(address => bool)",
        "numberOfBytes": "32",
        "value": "t_bool"
      },
      "t_mapping(t_bytes32,t_struct(RoleData)2516_storage)": {
        "encoding": "mapping",
        "key": "t_bytes32",
        "label": "mapping(bytes32 => struct AccessControl.RoleData)",
        "numberOfBytes": "32",
        "value": "t_struct(RoleData)2516_storage"
      },
      "t_mapping(t_bytes32,t_uint256)": {
        "encoding": "mapping",
        "key": "t_bytes32",
        "label": "mapping(bytes32 => uint256)",
        "numberOfBytes": "32",
        "value": "t_uint256"
      },
      "t_struct(AddressSet)12361_storage": {
        "encoding": "inplace",
        "label": "struct EnumerableSet.AddressSet",
        "members": [
          {
            "astId": 12360,
            "contract": "contracts/dstable/CollateralHolderVault.sol:CollateralHolderVault",
            "label": "_inner",
            "offset": 0,
            "slot": "0",
            "type": "t_struct(Set)12046_storage"
          }
        ],
        "numberOfBytes": "64"
      },
      "t_struct(RoleData)2516_storage": {
        "encoding": "inplace",
        "label": "struct AccessControl.RoleData",
        "members": [
          {
            "astId": 2513,
            "contract": "contracts/dstable/CollateralHolderVault.sol:CollateralHolderVault",
            "label": "hasRole",
            "offset": 0,
            "slot": "0",
            "type": "t_mapping(t_address,t_bool)"
          },
          {
            "astId": 2515,
            "contract": "contracts/dstable/CollateralHolderVault.sol:CollateralHolderVault",
            "label": "adminRole",
            "offset": 0,
            "slot": "1",
            "type": "t_bytes32"
          }
        ],
        "numberOfBytes": "64"
      },
      "t_struct(Set)12046_storage": {
        "encoding": "inplace",
        "label": "struct EnumerableSet.Set",
        "members": [
          {
            "astId": 12041,
            "contract": "contracts/dstable/CollateralHolderVault.sol:CollateralHolderVault",
            "label": "_values",
            "offset": 0,
            "slot": "0",
            "type": "t_array(t_bytes32)dyn_storage"
          },
          {
            "astId": 12045,
            "contract": "contracts/dstable/CollateralHolderVault.sol:CollateralHolderVault",
            "label": "_positions",
            "offset": 0,
            "slot": "1",
            "type": "t_mapping(t_bytes32,t_uint256)"
          }
        ],
        "numberOfBytes": "64"
      },
      "t_uint256": {
        "encoding": "inplace",
        "label": "uint256",
        "numberOfBytes": "32"
      }
    }
  }
}