{
  "address": "0x8F7a077f57D4F710ce3AB62493cbfCD6b2b4FB25",
  "abi": [
    {
      "inputs": [
        {
          "internalType": "contract IPriceOracleGetter",
          "name": "oracle",
          "type": "address"
        }
      ],
      "stateMutability": "nonpayable",
      "type": "constructor"
    },
    {
      "inputs": [],
      "name": "AccessControlBadConfirmation",
      "type": "error"
    },
    {
      "inputs": [
        {
          "internalType": "address",
          "name": "account",
          "type": "address"
        },
        {
          "internalType": "bytes32",
          "name": "neededRole",
          "type": "bytes32"
        }
      ],
      "name": "AccessControlUnauthorizedAccount",
      "type": "error"
    },
    {
      "inputs": [
        {
          "internalType": "uint256",
          "name": "requestedAmount",
          "type": "uint256"
        },
        {
          "internalType": "uint256",
          "name": "maxAmount",
          "type": "uint256"
        }
      ],
      "name": "CannotWithdrawMoreValueThanDeposited",
      "type": "error"
    },
    {
      "inputs": [
        {
          "internalType": "address",
          "name": "collateralAsset",
          "type": "address"
        }
      ],
      "name": "CollateralAlreadyAllowed",
      "type": "error"
    },
    {
      "inputs": [
        {
          "internalType": "address",
          "name": "collateralAsset",
          "type": "address"
        }
      ],
      "name": "CollateralNotSupported",
      "type": "error"
    },
    {
      "inputs": [
        {
          "internalType": "address",
          "name": "collateralAsset",
          "type": "address"
        }
      ],
      "name": "FailedToAddCollateral",
      "type": "error"
    },
    {
      "inputs": [
        {
          "internalType": "address",
          "name": "collateralAsset",
          "type": "address"
        }
      ],
      "name": "FailedToRemoveCollateral",
      "type": "error"
    },
    {
      "inputs": [
        {
          "internalType": "uint256",
          "name": "baseCurrencyUnit",
          "type": "uint256"
        }
      ],
      "name": "IncorrectBaseCurrencyUnit",
      "type": "error"
    },
    {
      "inputs": [],
      "name": "MustSupportAtLeastOneCollateral",
      "type": "error"
    },
    {
      "inputs": [
        {
          "internalType": "address",
          "name": "collateralAsset",
          "type": "address"
        }
      ],
      "name": "NoOracleSupport",
      "type": "error"
    },
    {
      "inputs": [
        {
          "internalType": "address",
          "name": "token",
          "type": "address"
        }
      ],
      "name": "SafeERC20FailedOperation",
      "type": "error"
    },
    {
      "inputs": [
        {
          "internalType": "uint256",
          "name": "toCollateralAmount",
          "type": "uint256"
        },
        {
          "internalType": "uint256",
          "name": "toMinCollateral",
          "type": "uint256"
        }
      ],
      "name": "ToCollateralAmountBelowMin",
      "type": "error"
    },
    {
      "inputs": [
        {
          "internalType": "address",
          "name": "collateralAsset",
          "type": "address"
        }
      ],
      "name": "UnsupportedCollateral",
      "type": "error"
    },
    {
      "anonymous": false,
      "inputs": [
        {
          "indexed": true,
          "internalType": "address",
          "name": "collateralAsset",
          "type": "address"
        }
      ],
      "name": "CollateralAllowed",
      "type": "event"
    },
    {
      "anonymous": false,
      "inputs": [
        {
          "indexed": true,
          "internalType": "address",
          "name": "collateralAsset",
          "type": "address"
        }
      ],
      "name": "CollateralDisallowed",
      "type": "event"
    },
    {
      "anonymous": false,
      "inputs": [
        {
          "indexed": true,
          "internalType": "address",
          "name": "newOracle",
          "type": "address"
        }
      ],
      "name": "OracleSet",
      "type": "event"
    },
    {
      "anonymous": false,
      "inputs": [
        {
          "indexed": true,
          "internalType": "bytes32",
          "name": "role",
          "type": "bytes32"
        },
        {
          "indexed": true,
          "internalType": "bytes32",
          "name": "previousAdminRole",
          "type": "bytes32"
        },
        {
          "indexed": true,
          "internalType": "bytes32",
          "name": "newAdminRole",
          "type": "bytes32"
        }
      ],
      "name": "RoleAdminChanged",
      "type": "event"
    },
    {
      "anonymous": false,
      "inputs": [
        {
          "indexed": true,
          "internalType": "bytes32",
          "name": "role",
          "type": "bytes32"
        },
        {
          "indexed": true,
          "internalType": "address",
          "name": "account",
          "type": "address"
        },
        {
          "indexed": true,
          "internalType": "address",
          "name": "sender",
          "type": "address"
        }
      ],
      "name": "RoleGranted",
      "type": "event"
    },
    {
      "anonymous": false,
      "inputs": [
        {
          "indexed": true,
          "internalType": "bytes32",
          "name": "role",
          "type": "bytes32"
        },
        {
          "indexed": true,
          "internalType": "address",
          "name": "account",
          "type": "address"
        },
        {
          "indexed": true,
          "internalType": "address",
          "name": "sender",
          "type": "address"
        }
      ],
      "name": "RoleRevoked",
      "type": "event"
    },
    {
      "inputs": [],
      "name": "COLLATERAL_MANAGER_ROLE",
      "outputs": [
        {
          "internalType": "bytes32",
          "name": "",
          "type": "bytes32"
        }
      ],
      "stateMutability": "view",
      "type": "function"
    },
    {
      "inputs": [],
      "name": "COLLATERAL_STRATEGY_ROLE",
      "outputs": [
        {
          "internalType": "bytes32",
          "name": "",
          "type": "bytes32"
        }
      ],
      "stateMutability": "view",
      "type": "function"
    },
    {
      "inputs": [],
      "name": "COLLATERAL_WITHDRAWER_ROLE",
      "outputs": [
        {
          "internalType": "bytes32",
          "name": "",
          "type": "bytes32"
        }
      ],
      "stateMutability": "view",
      "type": "function"
    },
    {
      "inputs": [],
      "name": "DEFAULT_ADMIN_ROLE",
      "outputs": [
        {
          "internalType": "bytes32",
          "name": "",
          "type": "bytes32"
        }
      ],
      "stateMutability": "view",
      "type": "function"
    },
    {
      "inputs": [
        {
          "internalType": "address",
          "name": "collateralAsset",
          "type": "address"
        }
      ],
      "name": "allowCollateral",
      "outputs": [],
      "stateMutability": "nonpayable",
      "type": "function"
    },
    {
      "inputs": [
        {
          "internalType": "uint256",
          "name": "baseValue",
          "type": "uint256"
        },
        {
          "internalType": "address",
          "name": "asset",
          "type": "address"
        }
      ],
      "name": "assetAmountFromValue",
      "outputs": [
        {
          "internalType": "uint256",
          "name": "assetAmount",
          "type": "uint256"
        }
      ],
      "stateMutability": "view",
      "type": "function"
    },
    {
      "inputs": [
        {
          "internalType": "uint256",
          "name": "assetAmount",
          "type": "uint256"
        },
        {
          "internalType": "address",
          "name": "asset",
          "type": "address"
        }
      ],
      "name": "assetValueFromAmount",
      "outputs": [
        {
          "internalType": "uint256",
          "name": "baseValue",
          "type": "uint256"
        }
      ],
      "stateMutability": "view",
      "type": "function"
    },
    {
      "inputs": [],
      "name": "baseCurrencyUnit",
      "outputs": [
        {
          "internalType": "uint256",
          "name": "",
          "type": "uint256"
        }
      ],
      "stateMutability": "view",
      "type": "function"
    },
    {
      "inputs": [
        {
          "internalType": "uint256",
          "name": "collateralAmount",
          "type": "uint256"
        },
        {
          "internalType": "address",
          "name": "collateralAsset",
          "type": "address"
        }
      ],
      "name": "deposit",
      "outputs": [],
      "stateMutability": "nonpayable",
      "type": "function"
    },
    {
      "inputs": [
        {
          "internalType": "address",
          "name": "collateralAsset",
          "type": "address"
        }
      ],
      "name": "disallowCollateral",
      "outputs": [],
      "stateMutability": "nonpayable",
      "type": "function"
    },
    {
      "inputs": [
        {
          "internalType": "uint256",
          "name": "fromCollateralAmount",
          "type": "uint256"
        },
        {
          "internalType": "address",
          "name": "fromCollateral",
          "type": "address"
        },
        {
          "internalType": "uint256",
          "name": "toCollateralAmount",
          "type": "uint256"
        },
        {
          "internalType": "address",
          "name": "toCollateral",
          "type": "address"
        }
      ],
      "name": "exchangeCollateral",
      "outputs": [],
      "stateMutability": "nonpayable",
      "type": "function"
    },
    {
      "inputs": [
        {
          "internalType": "uint256",
          "name": "fromCollateralAmount",
          "type": "uint256"
        },
        {
          "internalType": "address",
          "name": "fromCollateral",
          "type": "address"
        },
        {
          "internalType": "address",
          "name": "toCollateral",
          "type": "address"
        },
        {
          "internalType": "uint256",
          "name": "toMinCollateral",
          "type": "uint256"
        }
      ],
      "name": "exchangeMaxCollateral",
      "outputs": [],
      "stateMutability": "nonpayable",
      "type": "function"
    },
    {
      "inputs": [
        {
          "internalType": "bytes32",
          "name": "role",
          "type": "bytes32"
        }
      ],
      "name": "getRoleAdmin",
      "outputs": [
        {
          "internalType": "bytes32",
          "name": "",
          "type": "bytes32"
        }
      ],
      "stateMutability": "view",
      "type": "function"
    },
    {
      "inputs": [
        {
          "internalType": "bytes32",
          "name": "role",
          "type": "bytes32"
        },
        {
          "internalType": "address",
          "name": "account",
          "type": "address"
        }
      ],
      "name": "grantRole",
      "outputs": [],
      "stateMutability": "nonpayable",
      "type": "function"
    },
    {
      "inputs": [
        {
          "internalType": "bytes32",
          "name": "role",
          "type": "bytes32"
        },
        {
          "internalType": "address",
          "name": "account",
          "type": "address"
        }
      ],
      "name": "hasRole",
      "outputs": [
        {
          "internalType": "bool",
          "name": "",
          "type": "bool"
        }
      ],
      "stateMutability": "view",
      "type": "function"
    },
    {
      "inputs": [
        {
          "internalType": "address",
          "name": "collateralAsset",
          "type": "address"
        }
      ],
      "name": "isCollateralSupported",
      "outputs": [
        {
          "internalType": "bool",
          "name": "",
          "type": "bool"
        }
      ],
      "stateMutability": "view",
      "type": "function"
    },
    {
      "inputs": [],
      "name": "listCollateral",
      "outputs": [
        {
          "internalType": "address[]",
          "name": "",
          "type": "address[]"
        }
      ],
      "stateMutability": "view",
      "type": "function"
    },
    {
      "inputs": [
        {
          "internalType": "uint256",
          "name": "fromCollateralAmount",
          "type": "uint256"
        },
        {
          "internalType": "address",
          "name": "fromCollateral",
          "type": "address"
        },
        {
          "internalType": "address",
          "name": "toCollateral",
          "type": "address"
        }
      ],
      "name": "maxExchangeAmount",
      "outputs": [
        {
          "internalType": "uint256",
          "name": "toCollateralAmount",
          "type": "uint256"
        }
      ],
      "stateMutability": "view",
      "type": "function"
    },
    {
      "inputs": [],
      "name": "oracle",
      "outputs": [
        {
          "internalType": "contract IPriceOracleGetter",
          "name": "",
          "type": "address"
        }
      ],
      "stateMutability": "view",
      "type": "function"
    },
    {
      "inputs": [
        {
          "internalType": "bytes32",
          "name": "role",
          "type": "bytes32"
        },
        {
          "internalType": "address",
          "name": "callerConfirmation",
          "type": "address"
        }
      ],
      "name": "renounceRole",
      "outputs": [],
      "stateMutability": "nonpayable",
      "type": "function"
    },
    {
      "inputs": [
        {
          "internalType": "bytes32",
          "name": "role",
          "type": "bytes32"
        },
        {
          "internalType": "address",
          "name": "account",
          "type": "address"
        }
      ],
      "name": "revokeRole",
      "outputs": [],
      "stateMutability": "nonpayable",
      "type": "function"
    },
    {
      "inputs": [
        {
          "internalType": "uint256",
          "name": "_newBaseCurrencyUnit",
          "type": "uint256"
        }
      ],
      "name": "setBaseCurrencyUnit",
      "outputs": [],
      "stateMutability": "nonpayable",
      "type": "function"
    },
    {
      "inputs": [
        {
          "internalType": "contract IPriceOracleGetter",
          "name": "newOracle",
          "type": "address"
        }
      ],
      "name": "setOracle",
      "outputs": [],
      "stateMutability": "nonpayable",
      "type": "function"
    },
    {
      "inputs": [
        {
          "internalType": "bytes4",
          "name": "interfaceId",
          "type": "bytes4"
        }
      ],
      "name": "supportsInterface",
      "outputs": [
        {
          "internalType": "bool",
          "name": "",
          "type": "bool"
        }
      ],
      "stateMutability": "view",
      "type": "function"
    },
    {
      "inputs": [],
      "name": "totalValue",
      "outputs": [
        {
          "internalType": "uint256",
          "name": "baseValue",
          "type": "uint256"
        }
      ],
      "stateMutability": "view",
      "type": "function"
    },
    {
      "inputs": [
        {
          "internalType": "uint256",
          "name": "collateralAmount",
          "type": "uint256"
        },
        {
          "internalType": "address",
          "name": "collateralAsset",
          "type": "address"
        }
      ],
      "name": "withdraw",
      "outputs": [],
      "stateMutability": "nonpayable",
      "type": "function"
    },
    {
      "inputs": [
        {
          "internalType": "address",
          "name": "recipient",
          "type": "address"
        },
        {
          "internalType": "uint256",
          "name": "collateralAmount",
          "type": "uint256"
        },
        {
          "internalType": "address",
          "name": "collateralAsset",
          "type": "address"
        }
      ],
      "name": "withdrawTo",
      "outputs": [],
      "stateMutability": "nonpayable",
      "type": "function"
    }
  ],
  "transactionHash": "0xc086fa22d2f56f7c45783a60f16f291dad35e13fc59fa1993a0c8f325262b6d6",
  "args": [
    "0xD69707a96e6b6FA11edEFB95b0A1540B155F9Ef2"
  ],
  "numDeployments": 1,
  "solcInputHash": "8e62c4f78e5ecab2d6a0878ef9357cc0",
  "bytecode": "0x60806040523480156200001157600080fd5b5060405162001bdb38038062001bdb8339810160408190526200003491620002b0565b8080816001600160a01b0316638c89b64f6040518163ffffffff1660e01b8152600401602060405180830381865afa15801562000075573d6000803e3d6000fd5b505050506040513d601f19601f820116820180604052508101906200009b9190620002e2565b600180546001600160a01b0319166001600160a01b0384161790556002819055620000c860003362000167565b50620000da9150600090503362000167565b50620001077f85e8f2d6819d6b24108062d87ea08f54651bcb8960d98062d3faf96e7873b8b93362000216565b620001337f1f29e81ed8f7ae439f042f6b6767d105e87c4eef908508d5d9e550aef35af6443362000216565b6200015f7f1a52e20da533a06a1f80a73dba6e5d09cb788f108eae685b8ce6644834e67abe3362000216565b5050620002fc565b6000828152602081815260408083206001600160a01b038516845290915281205460ff166200020c576000838152602081815260408083206001600160a01b03861684529091529020805460ff19166001179055620001c33390565b6001600160a01b0316826001600160a01b0316847f2f8788117e7eff1d82e926ec794901d17c78024a50270940304540a733656f0d60405160405180910390a450600162000210565b5060005b92915050565b600082815260208190526040902060010154620002338162000245565b6200023f838362000167565b50505050565b62000251813362000254565b50565b6000828152602081815260408083206001600160a01b038516845290915290205460ff16620002ac5760405163e2517d3f60e01b81526001600160a01b03821660048201526024810183905260440160405180910390fd5b5050565b600060208284031215620002c357600080fd5b81516001600160a01b0381168114620002db57600080fd5b9392505050565b600060208284031215620002f557600080fd5b5051919050565b6118cf806200030c6000396000f3fe608060405234801561001057600080fd5b50600436106101a85760003560e01c80637adbf973116100f9578063c4e2c1e611610097578063d547741f11610071578063d547741f146103d7578063e00cb4a5146103ea578063f3bddde1146103fd578063fa6bd2ee1461040657600080fd5b8063c4e2c1e6146103a7578063cf07456f146103ba578063d4c3eea0146103cf57600080fd5b8063847b39d7116100d3578063847b39d71461036657806391d1485414610379578063a217fddf1461038c578063a4e2a31e1461039457600080fd5b80637adbf973146103155780637dc0d1d01461032857806383f107771461035357600080fd5b80632f2ff15d1161016657806345daa27b1161014057806345daa27b146102b55780634a0bbabb146102dc5780635c23ef6e146102ef5780636e553f651461030257600080fd5b80632f2ff15d1461027c578063339b55151461028f57806336568abe146102a257600080fd5b8062f714ce146101ad57806301ffc9a7146101c2578063132c29b2146101ea5780631ee903b61461021f578063248a9ca3146102325780632e718ab714610255575b600080fd5b6101c06101bb3660046114c8565b610419565b005b6101d56101d03660046114f8565b610453565b60405190151581526020015b60405180910390f35b6102117f1a52e20da533a06a1f80a73dba6e5d09cb788f108eae685b8ce6644834e67abe81565b6040519081526020016101e1565b6101c061022d366004611522565b61048a565b61021161024036600461153f565b60009081526020819052604090206001015490565b6102117f85e8f2d6819d6b24108062d87ea08f54651bcb8960d98062d3faf96e7873b8b981565b6101c061028a3660046114c8565b610581565b6101c061029d366004611558565b6105ac565b6101c06102b03660046114c8565b610691565b6102117f1f29e81ed8f7ae439f042f6b6767d105e87c4eef908508d5d9e550aef35af64481565b6101c06102ea36600461153f565b6106c4565b6102116102fd3660046114c8565b6106d5565b6101c06103103660046114c8565b6107d8565b6101c0610323366004611522565b610824565b60015461033b906001600160a01b031681565b6040516001600160a01b0390911681526020016101e1565b6101c06103613660046115a2565b610903565b6102116103743660046115ea565b610973565b6101d56103873660046114c8565b610b77565b610211600081565b6101c06103a2366004611522565b610ba0565b6101c06103b536600461162c565b610d02565b6103c2610d37565b6040516101e19190611663565b610211610d48565b6101c06103e53660046114c8565b610d52565b6102116103f83660046114c8565b610d77565b61021160025481565b6101d5610414366004611522565b610e66565b7f1f29e81ed8f7ae439f042f6b6767d105e87c4eef908508d5d9e550aef35af64461044381610e73565b61044e338484610e80565b505050565b60006001600160e01b03198216637965db0b60e01b148061048457506301ffc9a760e01b6001600160e01b03198316145b92915050565b7f85e8f2d6819d6b24108062d87ea08f54651bcb8960d98062d3faf96e7873b8b96104b481610e73565b6104bf600383610e94565b6104ec57604051632108722b60e01b81526001600160a01b03831660048201526024015b60405180910390fd5b60016104f86003610eb9565b11610516576040516305bc742560e11b815260040160405180910390fd5b610521600383610ec3565b6105495760405163644e3dd760e11b81526001600160a01b03831660048201526024016104e3565b6040516001600160a01b038316907fcebbf63022189259f517d89d98c7c527b44c211d25e443dad13aab2479c7e7b390600090a25050565b60008281526020819052604090206001015461059c81610e73565b6105a68383610ed8565b50505050565b7f1a52e20da533a06a1f80a73dba6e5d09cb788f108eae685b8ce6644834e67abe6105d681610e73565b6105e1600383610e94565b6106265760405162461bcd60e51b8152602060048201526016602482015275155b9cdd5c1c1bdc9d19590818dbdb1b185d195c985b60521b60448201526064016104e3565b6000610633868685610973565b905080841115610660576040516394d08ba760e01b815260048101859052602481018290526044016104e3565b6106756001600160a01b038616333089610f6a565b6106896001600160a01b0384163386610fd1565b505050505050565b6001600160a01b03811633146106ba5760405163334bd91960e11b815260040160405180910390fd5b61044e8282611002565b60006106cf81610e73565b50600255565b60015460405163b3596f0760e01b81526001600160a01b038381166004830152600092839291169063b3596f0790602401602060405180830381865afa158015610723573d6000803e3d6000fd5b505050506040513d601f19601f8201168201806040525081019061074791906116b0565b90506000836001600160a01b031663313ce5676040518163ffffffff1660e01b8152600401602060405180830381865afa158015610789573d6000803e3d6000fd5b505050506040513d601f19601f820116820180604052508101906107ad91906116c9565b9050816107bb82600a6117e6565b6107c590876117f5565b6107cf919061180c565b95945050505050565b6107e3600382610e94565b61080b57604051632762993f60e11b81526001600160a01b03821660048201526024016104e3565b6108206001600160a01b038216333085610f6a565b5050565b600061082f81610e73565b600254826001600160a01b0316638c89b64f6040518163ffffffff1660e01b8152600401602060405180830381865afa158015610870573d6000803e3d6000fd5b505050506040513d601f19601f8201168201806040525081019061089491906116b0565b146108b857600254604051639b6812b960e01b81526004016104e391815260200190565b600180546001600160a01b0319166001600160a01b0384169081179091556040517f3f32684a32a11dabdbb8c0177de80aa3ae36a004d75210335b49e544e48cd0aa90600090a25050565b7f1a52e20da533a06a1f80a73dba6e5d09cb788f108eae685b8ce6644834e67abe61092d81610e73565b600061093a868686610973565b905082811015610967576040516330ff745960e11b815260048101829052602481018490526044016104e3565b610689868683876105ac565b60015460405163b3596f0760e01b81526001600160a01b038481166004830152600092839291169063b3596f0790602401602060405180830381865afa1580156109c1573d6000803e3d6000fd5b505050506040513d601f19601f820116820180604052508101906109e591906116b0565b60015460405163b3596f0760e01b81526001600160a01b0386811660048301529293506000929091169063b3596f0790602401602060405180830381865afa158015610a35573d6000803e3d6000fd5b505050506040513d601f19601f82011682018060405250810190610a5991906116b0565b90506000856001600160a01b031663313ce5676040518163ffffffff1660e01b8152600401602060405180830381865afa158015610a9b573d6000803e3d6000fd5b505050506040513d601f19601f82011682018060405250810190610abf91906116c9565b90506000856001600160a01b031663313ce5676040518163ffffffff1660e01b8152600401602060405180830381865afa158015610b01573d6000803e3d6000fd5b505050506040513d601f19601f82011682018060405250810190610b2591906116c9565b90506000610b3483600a6117e6565b610b3e8a876117f5565b610b48919061180c565b905083610b5683600a6117e6565b610b6090836117f5565b610b6a919061180c565b9998505050505050505050565b6000918252602082815260408084206001600160a01b0393909316845291905290205460ff1690565b7f85e8f2d6819d6b24108062d87ea08f54651bcb8960d98062d3faf96e7873b8b9610bca81610e73565b610bd5600383610e94565b15610bfe5760405163098f893f60e21b81526001600160a01b03831660048201526024016104e3565b60015460405163b3596f0760e01b81526001600160a01b0384811660048301529091169063b3596f0790602401602060405180830381865afa158015610c48573d6000803e3d6000fd5b505050506040513d601f19601f82011682018060405250810190610c6c91906116b0565b600003610c9757604051631066c96360e31b81526001600160a01b03831660048201526024016104e3565b610ca260038361106d565b610cca5760405163cdb5999560e01b81526001600160a01b03831660048201526024016104e3565b6040516001600160a01b038316907f500f8acd525a3d9f96ab641587f59e34ef9d02f9397fdd46bb7786273bad160790600090a25050565b7f1f29e81ed8f7ae439f042f6b6767d105e87c4eef908508d5d9e550aef35af644610d2c81610e73565b6105a6848484610e80565b6060610d436003611082565b905090565b6000610d4361108f565b600082815260208190526040902060010154610d6d81610e73565b6105a68383611002565b60015460405163b3596f0760e01b81526001600160a01b038381166004830152600092839291169063b3596f0790602401602060405180830381865afa158015610dc5573d6000803e3d6000fd5b505050506040513d601f19601f82011682018060405250810190610de991906116b0565b90506000836001600160a01b031663313ce5676040518163ffffffff1660e01b8152600401602060405180830381865afa158015610e2b573d6000803e3d6000fd5b505050506040513d601f19601f82011682018060405250810190610e4f91906116c9565b9050610e5c81600a6117e6565b6107c586846117f5565b6000610484600383610e94565b610e7d8133611242565b50565b61044e6001600160a01b0382168484610fd1565b6001600160a01b038116600090815260018301602052604081205415155b9392505050565b6000610484825490565b6000610eb2836001600160a01b03841661127b565b6000610ee48383610b77565b610f62576000838152602081815260408083206001600160a01b03861684529091529020805460ff19166001179055610f1a3390565b6001600160a01b0316826001600160a01b0316847f2f8788117e7eff1d82e926ec794901d17c78024a50270940304540a733656f0d60405160405180910390a4506001610484565b506000610484565b6040516001600160a01b0384811660248301528381166044830152606482018390526105a69186918216906323b872dd906084015b604051602081830303815290604052915060e01b6020820180516001600160e01b03838183161783525050505061136e565b6040516001600160a01b0383811660248301526044820183905261044e91859182169063a9059cbb90606401610f9f565b600061100e8383610b77565b15610f62576000838152602081815260408083206001600160a01b0386168085529252808320805460ff1916905551339286917ff6391f5c32d9c69d2a47ea670b442974b53935d1edc7fd64eb21e047a839171b9190a4506001610484565b6000610eb2836001600160a01b0384166113df565b60606000610eb283611426565b600080805b61109e6003610eb9565b81101561123c5760006110b2600383611482565b60015460405163b3596f0760e01b81526001600160a01b0380841660048301529293506000929091169063b3596f0790602401602060405180830381865afa158015611102573d6000803e3d6000fd5b505050506040513d601f19601f8201168201806040525081019061112691906116b0565b90506000826001600160a01b031663313ce5676040518163ffffffff1660e01b8152600401602060405180830381865afa158015611168573d6000803e3d6000fd5b505050506040513d601f19601f8201168201806040525081019061118c91906116c9565b9050600061119b82600a6117e6565b6040516370a0823160e01b81523060048201526001600160a01b038616906370a0823190602401602060405180830381865afa1580156111df573d6000803e3d6000fd5b505050506040513d601f19601f8201168201806040525081019061120391906116b0565b61120d90856117f5565b611217919061180c565b9050611223818761182e565b955050505050808061123490611841565b915050611094565b50919050565b61124c8282610b77565b6108205760405163e2517d3f60e01b81526001600160a01b0382166004820152602481018390526044016104e3565b6000818152600183016020526040812054801561136457600061129f60018361185a565b85549091506000906112b39060019061185a565b90508082146113185760008660000182815481106112d3576112d361186d565b90600052602060002001549050808760000184815481106112f6576112f661186d565b6000918252602080832090910192909255918252600188019052604090208390555b855486908061132957611329611883565b600190038181906000526020600020016000905590558560010160008681526020019081526020016000206000905560019350505050610484565b6000915050610484565b600080602060008451602086016000885af180611391576040513d6000823e3d81fd5b50506000513d915081156113a95780600114156113b6565b6001600160a01b0384163b155b156105a657604051635274afe760e01b81526001600160a01b03851660048201526024016104e3565b6000818152600183016020526040812054610f6257508154600181810184556000848152602080822090930184905584548482528286019093526040902091909155610484565b60608160000180548060200260200160405190810160405280929190818152602001828054801561147657602002820191906000526020600020905b815481526020019060010190808311611462575b50505050509050919050565b6000610eb2838360008260000182815481106114a0576114a061186d565b9060005260206000200154905092915050565b6001600160a01b0381168114610e7d57600080fd5b600080604083850312156114db57600080fd5b8235915060208301356114ed816114b3565b809150509250929050565b60006020828403121561150a57600080fd5b81356001600160e01b031981168114610eb257600080fd5b60006020828403121561153457600080fd5b8135610eb2816114b3565b60006020828403121561155157600080fd5b5035919050565b6000806000806080858703121561156e57600080fd5b843593506020850135611580816114b3565b9250604085013591506060850135611597816114b3565b939692955090935050565b600080600080608085870312156115b857600080fd5b8435935060208501356115ca816114b3565b925060408501356115da816114b3565b9396929550929360600135925050565b6000806000606084860312156115ff57600080fd5b833592506020840135611611816114b3565b91506040840135611621816114b3565b809150509250925092565b60008060006060848603121561164157600080fd5b833561164c816114b3565b9250602084013591506040840135611621816114b3565b6020808252825182820181905260009190848201906040850190845b818110156116a45783516001600160a01b03168352928401929184019160010161167f565b50909695505050505050565b6000602082840312156116c257600080fd5b5051919050565b6000602082840312156116db57600080fd5b815160ff81168114610eb257600080fd5b634e487b7160e01b600052601160045260246000fd5b600181815b8085111561173d578160001904821115611723576117236116ec565b8085161561173057918102915b93841c9390800290611707565b509250929050565b60008261175457506001610484565b8161176157506000610484565b816001811461177757600281146117815761179d565b6001915050610484565b60ff841115611792576117926116ec565b50506001821b610484565b5060208310610133831016604e8410600b84101617156117c0575081810a610484565b6117ca8383611702565b80600019048211156117de576117de6116ec565b029392505050565b6000610eb260ff841683611745565b8082028115828204841417610484576104846116ec565b60008261182957634e487b7160e01b600052601260045260246000fd5b500490565b80820180821115610484576104846116ec565b600060018201611853576118536116ec565b5060010190565b81810381811115610484576104846116ec565b634e487b7160e01b600052603260045260246000fd5b634e487b7160e01b600052603160045260246000fdfea2646970667358221220b8e406a4bfdf54fab38d10e0ccdfc683227372e2ef8abd4a4bb4d178391f886b64736f6c63430008140033",
  "devdoc": {
    "errors": {
      "AccessControlBadConfirmation()": [
        {
          "details": "The caller of a function is not the expected one. NOTE: Don't confuse with {AccessControlUnauthorizedAccount}."
        }
      ],
      "AccessControlUnauthorizedAccount(address,bytes32)": [
        {
          "details": "The `account` is missing a role."
        }
      ],
      "SafeERC20FailedOperation(address)": [
        {
          "details": "An operation with an ERC-20 token failed."
        }
      ]
    },
    "events": {
      "RoleAdminChanged(bytes32,bytes32,bytes32)": {
        "details": "Emitted when `newAdminRole` is set as ``role``'s admin role, replacing `previousAdminRole` `DEFAULT_ADMIN_ROLE` is the starting admin for all roles, despite {RoleAdminChanged} not being emitted signaling this."
      },
      "RoleGranted(bytes32,address,address)": {
        "details": "Emitted when `account` is granted `role`. `sender` is the account that originated the contract call. This account bears the admin role (for the granted role). Expected in cases where the role was granted using the internal {AccessControl-_grantRole}."
      },
      "RoleRevoked(bytes32,address,address)": {
        "details": "Emitted when `account` is revoked `role`. `sender` is the account that originated the contract call:   - if using `revokeRole`, it is the admin role bearer   - if using `renounceRole`, it is the role bearer (i.e. `account`)"
      }
    },
    "kind": "dev",
    "methods": {
      "allowCollateral(address)": {
        "params": {
          "collateralAsset": "The address of the collateral asset"
        }
      },
      "assetAmountFromValue(uint256,address)": {
        "params": {
          "asset": "The address of the asset",
          "baseValue": "The base value"
        },
        "returns": {
          "assetAmount": "The amount of the asset"
        }
      },
      "assetValueFromAmount(uint256,address)": {
        "params": {
          "asset": "The address of the asset",
          "assetAmount": "The amount of the asset"
        },
        "returns": {
          "baseValue": "The base value of the asset"
        }
      },
      "deposit(uint256,address)": {
        "params": {
          "collateralAmount": "The amount of collateral to deposit",
          "collateralAsset": "The address of the collateral asset"
        }
      },
      "disallowCollateral(address)": {
        "details": "Requires at least one collateral asset to remain supported",
        "params": {
          "collateralAsset": "The address of the collateral asset to disallow"
        }
      },
      "exchangeCollateral(uint256,address,uint256,address)": {
        "details": "Ensures the exchange maintains equivalent value using oracle prices",
        "params": {
          "fromCollateral": "Address of the source collateral token",
          "fromCollateralAmount": "Amount of collateral to exchange from",
          "toCollateral": "Address of the destination collateral token",
          "toCollateralAmount": "Amount of collateral to receive"
        }
      },
      "exchangeMaxCollateral(uint256,address,address,uint256)": {
        "details": "Calculates and executes the maximum possible exchange while respecting minimum amount",
        "params": {
          "fromCollateral": "Address of the source collateral token",
          "fromCollateralAmount": "Amount of collateral to exchange from",
          "toCollateral": "Address of the destination collateral token",
          "toMinCollateral": "Minimum amount of destination collateral to receive"
        }
      },
      "getRoleAdmin(bytes32)": {
        "details": "Returns the admin role that controls `role`. See {grantRole} and {revokeRole}. To change a role's admin, use {_setRoleAdmin}."
      },
      "grantRole(bytes32,address)": {
        "details": "Grants `role` to `account`. If `account` had not been already granted `role`, emits a {RoleGranted} event. Requirements: - the caller must have ``role``'s admin role. May emit a {RoleGranted} event."
      },
      "hasRole(bytes32,address)": {
        "details": "Returns `true` if `account` has been granted `role`."
      },
      "isCollateralSupported(address)": {
        "params": {
          "collateralAsset": "The address of the collateral asset to check"
        },
        "returns": {
          "_0": "bool True if the asset is supported, false otherwise"
        }
      },
      "listCollateral()": {
        "returns": {
          "_0": "address[] Array of collateral asset addresses"
        }
      },
      "maxExchangeAmount(uint256,address,address)": {
        "details": "Uses oracle prices and token decimals to maintain equivalent value",
        "params": {
          "fromCollateral": "Address of the source collateral token",
          "fromCollateralAmount": "Amount of source collateral",
          "toCollateral": "Address of the destination collateral token"
        },
        "returns": {
          "toCollateralAmount": "The maximum amount of destination collateral that can be received"
        }
      },
      "renounceRole(bytes32,address)": {
        "details": "Revokes `role` from the calling account. Roles are often managed via {grantRole} and {revokeRole}: this function's purpose is to provide a mechanism for accounts to lose their privileges if they are compromised (such as when a trusted device is misplaced). If the calling account had been revoked `role`, emits a {RoleRevoked} event. Requirements: - the caller must be `callerConfirmation`. May emit a {RoleRevoked} event."
      },
      "revokeRole(bytes32,address)": {
        "details": "Revokes `role` from `account`. If `account` had been granted `role`, emits a {RoleRevoked} event. Requirements: - the caller must have ``role``'s admin role. May emit a {RoleRevoked} event."
      },
      "setBaseCurrencyUnit(uint256)": {
        "details": "Only used if the oracle's base currency unit changes",
        "params": {
          "_newBaseCurrencyUnit": "The new base currency unit to set"
        }
      },
      "setOracle(address)": {
        "params": {
          "newOracle": "The new oracle to use"
        }
      },
      "supportsInterface(bytes4)": {
        "details": "See {IERC165-supportsInterface}."
      },
      "totalValue()": {
        "returns": {
          "baseValue": "The total value of all collateral in base"
        }
      },
      "withdraw(uint256,address)": {
        "params": {
          "collateralAmount": "The amount of collateral to withdraw",
          "collateralAsset": "The address of the collateral asset"
        }
      },
      "withdrawTo(address,uint256,address)": {
        "params": {
          "collateralAmount": "The amount of collateral to withdraw",
          "collateralAsset": "The address of the collateral asset",
          "recipient": "The address receiving the collateral"
        }
      }
    },
    "title": "CollateralHolderVault",
    "version": 1
  },
  "userdoc": {
    "kind": "user",
    "methods": {
      "allowCollateral(address)": {
        "notice": "Allows a new collateral asset"
      },
      "assetAmountFromValue(uint256,address)": {
        "notice": "Calculates the amount of an asset that corresponds to a given base value"
      },
      "assetValueFromAmount(uint256,address)": {
        "notice": "Calculates the base value of a given amount of an asset"
      },
      "deposit(uint256,address)": {
        "notice": "Deposit collateral into the vault"
      },
      "disallowCollateral(address)": {
        "notice": "Disallows a previously supported collateral asset"
      },
      "exchangeCollateral(uint256,address,uint256,address)": {
        "notice": "Exchanges one type of collateral for another"
      },
      "exchangeMaxCollateral(uint256,address,address,uint256)": {
        "notice": "Exchanges collateral for the maximum possible amount of another collateral"
      },
      "isCollateralSupported(address)": {
        "notice": "Checks if a given asset is supported as collateral"
      },
      "listCollateral()": {
        "notice": "Returns a list of all supported collateral assets"
      },
      "maxExchangeAmount(uint256,address,address)": {
        "notice": "Calculates the maximum amount of destination collateral that can be received"
      },
      "setBaseCurrencyUnit(uint256)": {
        "notice": "Updates the base currency unit used for price calculations"
      },
      "setOracle(address)": {
        "notice": "Sets the oracle to use for collateral valuation"
      },
      "totalValue()": {
        "notice": "Calculates the total value of all collateral in the vault"
      },
      "withdraw(uint256,address)": {
        "notice": "Withdraws collateral from the vault"
      },
      "withdrawTo(address,uint256,address)": {
        "notice": "Withdraws collateral from the vault to a specific address"
      }
    },
    "notice": "Implementation of CollateralVault for only holding tokens",
    "version": 1
  },
  "storageLayout": {
    "storage": [
      {
        "astId": 26,
        "contract": "contracts/dstable/CollateralHolderVault.sol:CollateralHolderVault",
        "label": "_roles",
        "offset": 0,
        "slot": "0",
        "type": "t_mapping(t_bytes32,t_struct(RoleData)21_storage)"
      },
      {
        "astId": 6331,
        "contract": "contracts/dstable/CollateralHolderVault.sol:CollateralHolderVault",
        "label": "oracle",
        "offset": 0,
        "slot": "1",
        "type": "t_contract(IPriceOracleGetter)4068"
      },
      {
        "astId": 6333,
        "contract": "contracts/dstable/CollateralHolderVault.sol:CollateralHolderVault",
        "label": "baseCurrencyUnit",
        "offset": 0,
        "slot": "2",
        "type": "t_uint256"
      },
      {
        "astId": 5482,
        "contract": "contracts/dstable/CollateralHolderVault.sol:CollateralHolderVault",
        "label": "_supportedCollaterals",
        "offset": 0,
        "slot": "3",
        "type": "t_struct(AddressSet)3757_storage"
      }
    ],
    "types": {
      "t_address": {
        "encoding": "inplace",
        "label": "address",
        "numberOfBytes": "20"
      },
      "t_array(t_bytes32)dyn_storage": {
        "base": "t_bytes32",
        "encoding": "dynamic_array",
        "label": "bytes32[]",
        "numberOfBytes": "32"
      },
      "t_bool": {
        "encoding": "inplace",
        "label": "bool",
        "numberOfBytes": "1"
      },
      "t_bytes32": {
        "encoding": "inplace",
        "label": "bytes32",
        "numberOfBytes": "32"
      },
      "t_contract(IPriceOracleGetter)4068": {
        "encoding": "inplace",
        "label": "contract IPriceOracleGetter",
        "numberOfBytes": "20"
      },
      "t_mapping(t_address,t_bool)": {
        "encoding": "mapping",
        "key": "t_address",
        "label": "mapping(address => bool)",
        "numberOfBytes": "32",
        "value": "t_bool"
      },
      "t_mapping(t_bytes32,t_struct(RoleData)21_storage)": {
        "encoding": "mapping",
        "key": "t_bytes32",
        "label": "mapping(bytes32 => struct AccessControl.RoleData)",
        "numberOfBytes": "32",
        "value": "t_struct(RoleData)21_storage"
      },
      "t_mapping(t_bytes32,t_uint256)": {
        "encoding": "mapping",
        "key": "t_bytes32",
        "label": "mapping(bytes32 => uint256)",
        "numberOfBytes": "32",
        "value": "t_uint256"
      },
      "t_struct(AddressSet)3757_storage": {
        "encoding": "inplace",
        "label": "struct EnumerableSet.AddressSet",
        "members": [
          {
            "astId": 3756,
            "contract": "contracts/dstable/CollateralHolderVault.sol:CollateralHolderVault",
            "label": "_inner",
            "offset": 0,
            "slot": "0",
            "type": "t_struct(Set)3442_storage"
          }
        ],
        "numberOfBytes": "64"
      },
      "t_struct(RoleData)21_storage": {
        "encoding": "inplace",
        "label": "struct AccessControl.RoleData",
        "members": [
          {
            "astId": 18,
            "contract": "contracts/dstable/CollateralHolderVault.sol:CollateralHolderVault",
            "label": "hasRole",
            "offset": 0,
            "slot": "0",
            "type": "t_mapping(t_address,t_bool)"
          },
          {
            "astId": 20,
            "contract": "contracts/dstable/CollateralHolderVault.sol:CollateralHolderVault",
            "label": "adminRole",
            "offset": 0,
            "slot": "1",
            "type": "t_bytes32"
          }
        ],
        "numberOfBytes": "64"
      },
      "t_struct(Set)3442_storage": {
        "encoding": "inplace",
        "label": "struct EnumerableSet.Set",
        "members": [
          {
            "astId": 3437,
            "contract": "contracts/dstable/CollateralHolderVault.sol:CollateralHolderVault",
            "label": "_values",
            "offset": 0,
            "slot": "0",
            "type": "t_array(t_bytes32)dyn_storage"
          },
          {
            "astId": 3441,
            "contract": "contracts/dstable/CollateralHolderVault.sol:CollateralHolderVault",
            "label": "_positions",
            "offset": 0,
            "slot": "1",
            "type": "t_mapping(t_bytes32,t_uint256)"
          }
        ],
        "numberOfBytes": "64"
      },
      "t_uint256": {
        "encoding": "inplace",
        "label": "uint256",
        "numberOfBytes": "32"
      }
    }
  }
}