{
  "address": "0xB56B00b5b656e47490967E85f55A944a92570b12",
  "abi": [
    {
      "inputs": [
        {
          "internalType": "address",
          "name": "_collateralVault",
          "type": "address"
        },
        {
          "internalType": "address",
          "name": "_dstable",
          "type": "address"
        },
        {
          "internalType": "contract IPriceOracleGetter",
          "name": "_oracle",
          "type": "address"
        }
      ],
      "stateMutability": "nonpayable",
      "type": "constructor"
    },
    {
      "inputs": [],
      "name": "AccessControlBadConfirmation",
      "type": "error"
    },
    {
      "inputs": [
        {
          "internalType": "address",
          "name": "account",
          "type": "address"
        },
        {
          "internalType": "bytes32",
          "name": "neededRole",
          "type": "bytes32"
        }
      ],
      "name": "AccessControlUnauthorizedAccount",
      "type": "error"
    },
    {
      "inputs": [],
      "name": "DStableTransferFailed",
      "type": "error"
    },
    {
      "inputs": [
        {
          "internalType": "uint256",
          "name": "baseCurrencyUnit",
          "type": "uint256"
        }
      ],
      "name": "IncorrectBaseCurrencyUnit",
      "type": "error"
    },
    {
      "inputs": [
        {
          "internalType": "uint256",
          "name": "actualCollateral",
          "type": "uint256"
        },
        {
          "internalType": "uint256",
          "name": "minCollateral",
          "type": "uint256"
        }
      ],
      "name": "SlippageTooHigh",
      "type": "error"
    },
    {
      "anonymous": false,
      "inputs": [
        {
          "indexed": true,
          "internalType": "address",
          "name": "newOracle",
          "type": "address"
        }
      ],
      "name": "OracleSet",
      "type": "event"
    },
    {
      "anonymous": false,
      "inputs": [
        {
          "indexed": true,
          "internalType": "bytes32",
          "name": "role",
          "type": "bytes32"
        },
        {
          "indexed": true,
          "internalType": "bytes32",
          "name": "previousAdminRole",
          "type": "bytes32"
        },
        {
          "indexed": true,
          "internalType": "bytes32",
          "name": "newAdminRole",
          "type": "bytes32"
        }
      ],
      "name": "RoleAdminChanged",
      "type": "event"
    },
    {
      "anonymous": false,
      "inputs": [
        {
          "indexed": true,
          "internalType": "bytes32",
          "name": "role",
          "type": "bytes32"
        },
        {
          "indexed": true,
          "internalType": "address",
          "name": "account",
          "type": "address"
        },
        {
          "indexed": true,
          "internalType": "address",
          "name": "sender",
          "type": "address"
        }
      ],
      "name": "RoleGranted",
      "type": "event"
    },
    {
      "anonymous": false,
      "inputs": [
        {
          "indexed": true,
          "internalType": "bytes32",
          "name": "role",
          "type": "bytes32"
        },
        {
          "indexed": true,
          "internalType": "address",
          "name": "account",
          "type": "address"
        },
        {
          "indexed": true,
          "internalType": "address",
          "name": "sender",
          "type": "address"
        }
      ],
      "name": "RoleRevoked",
      "type": "event"
    },
    {
      "inputs": [],
      "name": "BASE_UNIT",
      "outputs": [
        {
          "internalType": "uint256",
          "name": "",
          "type": "uint256"
        }
      ],
      "stateMutability": "view",
      "type": "function"
    },
    {
      "inputs": [],
      "name": "DEFAULT_ADMIN_ROLE",
      "outputs": [
        {
          "internalType": "bytes32",
          "name": "",
          "type": "bytes32"
        }
      ],
      "stateMutability": "view",
      "type": "function"
    },
    {
      "inputs": [],
      "name": "REDEMPTION_MANAGER_ROLE",
      "outputs": [
        {
          "internalType": "bytes32",
          "name": "",
          "type": "bytes32"
        }
      ],
      "stateMutability": "view",
      "type": "function"
    },
    {
      "inputs": [],
      "name": "baseCurrencyUnit",
      "outputs": [
        {
          "internalType": "uint256",
          "name": "",
          "type": "uint256"
        }
      ],
      "stateMutability": "view",
      "type": "function"
    },
    {
      "inputs": [],
      "name": "collateralVault",
      "outputs": [
        {
          "internalType": "contract CollateralVault",
          "name": "",
          "type": "address"
        }
      ],
      "stateMutability": "view",
      "type": "function"
    },
    {
      "inputs": [],
      "name": "dstable",
      "outputs": [
        {
          "internalType": "contract IMintableERC20",
          "name": "",
          "type": "address"
        }
      ],
      "stateMutability": "view",
      "type": "function"
    },
    {
      "inputs": [
        {
          "internalType": "uint256",
          "name": "dstableAmount",
          "type": "uint256"
        }
      ],
      "name": "dstableAmountToBaseValue",
      "outputs": [
        {
          "internalType": "uint256",
          "name": "",
          "type": "uint256"
        }
      ],
      "stateMutability": "view",
      "type": "function"
    },
    {
      "inputs": [],
      "name": "dstableDecimals",
      "outputs": [
        {
          "internalType": "uint8",
          "name": "",
          "type": "uint8"
        }
      ],
      "stateMutability": "view",
      "type": "function"
    },
    {
      "inputs": [
        {
          "internalType": "bytes32",
          "name": "role",
          "type": "bytes32"
        }
      ],
      "name": "getRoleAdmin",
      "outputs": [
        {
          "internalType": "bytes32",
          "name": "",
          "type": "bytes32"
        }
      ],
      "stateMutability": "view",
      "type": "function"
    },
    {
      "inputs": [
        {
          "internalType": "bytes32",
          "name": "role",
          "type": "bytes32"
        },
        {
          "internalType": "address",
          "name": "account",
          "type": "address"
        }
      ],
      "name": "grantRole",
      "outputs": [],
      "stateMutability": "nonpayable",
      "type": "function"
    },
    {
      "inputs": [
        {
          "internalType": "bytes32",
          "name": "role",
          "type": "bytes32"
        },
        {
          "internalType": "address",
          "name": "account",
          "type": "address"
        }
      ],
      "name": "hasRole",
      "outputs": [
        {
          "internalType": "bool",
          "name": "",
          "type": "bool"
        }
      ],
      "stateMutability": "view",
      "type": "function"
    },
    {
      "inputs": [],
      "name": "oracle",
      "outputs": [
        {
          "internalType": "contract IPriceOracleGetter",
          "name": "",
          "type": "address"
        }
      ],
      "stateMutability": "view",
      "type": "function"
    },
    {
      "inputs": [
        {
          "internalType": "uint256",
          "name": "dstableAmount",
          "type": "uint256"
        },
        {
          "internalType": "address",
          "name": "collateralAsset",
          "type": "address"
        },
        {
          "internalType": "uint256",
          "name": "minCollateral",
          "type": "uint256"
        }
      ],
      "name": "redeem",
      "outputs": [],
      "stateMutability": "nonpayable",
      "type": "function"
    },
    {
      "inputs": [
        {
          "internalType": "bytes32",
          "name": "role",
          "type": "bytes32"
        },
        {
          "internalType": "address",
          "name": "callerConfirmation",
          "type": "address"
        }
      ],
      "name": "renounceRole",
      "outputs": [],
      "stateMutability": "nonpayable",
      "type": "function"
    },
    {
      "inputs": [
        {
          "internalType": "bytes32",
          "name": "role",
          "type": "bytes32"
        },
        {
          "internalType": "address",
          "name": "account",
          "type": "address"
        }
      ],
      "name": "revokeRole",
      "outputs": [],
      "stateMutability": "nonpayable",
      "type": "function"
    },
    {
      "inputs": [
        {
          "internalType": "uint256",
          "name": "_newBaseCurrencyUnit",
          "type": "uint256"
        }
      ],
      "name": "setBaseCurrencyUnit",
      "outputs": [],
      "stateMutability": "nonpayable",
      "type": "function"
    },
    {
      "inputs": [
        {
          "internalType": "address",
          "name": "_collateralVault",
          "type": "address"
        }
      ],
      "name": "setCollateralVault",
      "outputs": [],
      "stateMutability": "nonpayable",
      "type": "function"
    },
    {
      "inputs": [
        {
          "internalType": "contract IPriceOracleGetter",
          "name": "newOracle",
          "type": "address"
        }
      ],
      "name": "setOracle",
      "outputs": [],
      "stateMutability": "nonpayable",
      "type": "function"
    },
    {
      "inputs": [
        {
          "internalType": "bytes4",
          "name": "interfaceId",
          "type": "bytes4"
        }
      ],
      "name": "supportsInterface",
      "outputs": [
        {
          "internalType": "bool",
          "name": "",
          "type": "bool"
        }
      ],
      "stateMutability": "view",
      "type": "function"
    }
  ],
  "transactionHash": "0xd83e6b4c1b18c820b8def1be89f09590467b2672ea81b317b588c2beb6a29f69",
  "args": [
    "0x36aec1d2069a01b2640F58EDd0bb76D32Cf32d26",
    "0xf71abA69A15C0999b47720775Af0d3E8F7E9d287",
    "0x7cbc3622C0e9D0f54b41B340eAb65c601c1920c3"
  ],
  "numDeployments": 1,
  "solcInputHash": "aace622bc2aa8f5d99afe4aabc571fcf",
  "bytecode": "0x60c06040523480156200001157600080fd5b5060405162000f8938038062000f89833981016040819052620000349162000312565b600180546001600160a01b0319166001600160a01b0383161790556305f5e1006002819055819062000068600033620001b3565b5050600480546001600160a01b038087166001600160a01b0319928316178355600380549187169190921681179091556040805163313ce56760e01b8152905191935063313ce56792818101926020929091908290030181865afa158015620000d5573d6000803e3d6000fd5b505050506040513d601f19601f82011682018060405250810190620000fb919062000366565b60ff1660808160ff1681525050806001600160a01b0316638c89b64f6040518163ffffffff1660e01b8152600401602060405180830381865afa15801562000147573d6000803e3d6000fd5b505050506040513d601f19601f820116820180604052508101906200016d919062000392565b60a0526200017d600033620001b3565b50620001aa7fe5bea7d829f723a95a0c83a655765be37702fa584514c1e2a20867d04b58478e3362000262565b505050620003ac565b6000828152602081815260408083206001600160a01b038516845290915281205460ff1662000258576000838152602081815260408083206001600160a01b03861684529091529020805460ff191660011790556200020f3390565b6001600160a01b0316826001600160a01b0316847f2f8788117e7eff1d82e926ec794901d17c78024a50270940304540a733656f0d60405160405180910390a45060016200025c565b5060005b92915050565b6000828152602081905260409020600101546200027f8162000291565b6200028b8383620001b3565b50505050565b6200029d8133620002a0565b50565b6000828152602081815260408083206001600160a01b038516845290915290205460ff16620002f85760405163e2517d3f60e01b81526001600160a01b03821660048201526024810183905260440160405180910390fd5b5050565b6001600160a01b03811681146200029d57600080fd5b6000806000606084860312156200032857600080fd5b83516200033581620002fc565b60208501519093506200034881620002fc565b60408501519092506200035b81620002fc565b809150509250925092565b6000602082840312156200037957600080fd5b815160ff811681146200038b57600080fd5b9392505050565b600060208284031215620003a557600080fd5b5051919050565b60805160a051610ba9620003e06000396000818161017e01526105310152600081816101d601526105060152610ba96000f3fe608060405234801561001057600080fd5b50600436106101215760003560e01c80637adbf973116100ad57806397fe30ef1161007157806397fe30ef146102cb578063a217fddf146102de578063d547741f146102e6578063d8780161146102f9578063f3bddde11461030c57600080fd5b80637adbf973146102585780637dc0d1d01461026b5780638ade91ec1461027e57806391d14854146102a557806391e5287b146102b857600080fd5b806326663911116100f457806326663911146101d15780632f2ff15d1461020a57806336568abe1461021f5780634a0bbabb1461023257806368a806c41461024557600080fd5b806301ffc9a7146101265780630bece79c1461014e5780630e962f0014610179578063248a9ca3146101ae575b600080fd5b610139610134366004610912565b610315565b60405190151581526020015b60405180910390f35b600454610161906001600160a01b031681565b6040516001600160a01b039091168152602001610145565b6101a07f000000000000000000000000000000000000000000000000000000000000000081565b604051908152602001610145565b6101a06101bc366004610943565b60009081526020819052604090206001015490565b6101f87f000000000000000000000000000000000000000000000000000000000000000081565b60405160ff9091168152602001610145565b61021d610218366004610971565b61034c565b005b61021d61022d366004610971565b610377565b61021d610240366004610943565b6103af565b61021d6102533660046109a1565b6103c0565b61021d6102663660046109a1565b6103ee565b600154610161906001600160a01b031681565b6101a07fe5bea7d829f723a95a0c83a655765be37702fa584514c1e2a20867d04b58478e81565b6101396102b3366004610971565b6104d6565b6101a06102c6366004610943565b6104ff565b600354610161906001600160a01b031681565b6101a0600081565b61021d6102f4366004610971565b610560565b61021d6103073660046109be565b610585565b6101a060025481565b60006001600160e01b03198216637965db0b60e01b148061034657506301ffc9a760e01b6001600160e01b03198316145b92915050565b600082815260208190526040902060010154610367816107cb565b61037183836107d8565b50505050565b6001600160a01b03811633146103a05760405163334bd91960e11b815260040160405180910390fd5b6103aa828261086a565b505050565b60006103ba816107cb565b50600255565b60006103cb816107cb565b50600480546001600160a01b0319166001600160a01b0392909216919091179055565b60006103f9816107cb565b600254826001600160a01b0316638c89b64f6040518163ffffffff1660e01b8152600401602060405180830381865afa15801561043a573d6000803e3d6000fd5b505050506040513d601f19601f8201168201806040525081019061045e91906109f6565b1461048b57600254604051639b6812b960e01b815260040161048291815260200190565b60405180910390fd5b600180546001600160a01b0319166001600160a01b0384169081179091556040517f3f32684a32a11dabdbb8c0177de80aa3ae36a004d75210335b49e544e48cd0aa90600090a25050565b6000918252602082815260408084206001600160a01b0393909316845291905290205460ff1690565b600061052c7f0000000000000000000000000000000000000000000000000000000000000000600a610b09565b6105567f000000000000000000000000000000000000000000000000000000000000000084610b18565b6103469190610b2f565b60008281526020819052604090206001015461057b816107cb565b610371838361086a565b7fe5bea7d829f723a95a0c83a655765be37702fa584514c1e2a20867d04b58478e6105af816107cb565b6003546040516323b872dd60e01b8152336004820152306024820152604481018690526001600160a01b03909116906323b872dd906064016020604051808303816000875af1158015610606573d6000803e3d6000fd5b505050506040513d601f19601f8201168201806040525081019061062a9190610b51565b61064757604051633375730560e01b815260040160405180910390fd5b600354604051630852cd8d60e31b8152600481018690526001600160a01b03909116906342966c6890602401600060405180830381600087803b15801561068d57600080fd5b505af11580156106a1573d6000803e3d6000fd5b5050505060006106b0856104ff565b60048054604051632e11f7b760e11b81529182018390526001600160a01b0387811660248401529293506000921690635c23ef6e90604401602060405180830381865afa158015610705573d6000803e3d6000fd5b505050506040513d601f19601f8201168201806040525081019061072991906109f6565b90508381101561075657604051633b5d56ed60e11b81526004810182905260248101859052604401610482565b6004805460405163627160f360e11b81523392810192909252602482018390526001600160a01b038781166044840152169063c4e2c1e690606401600060405180830381600087803b1580156107ab57600080fd5b505af11580156107bf573d6000803e3d6000fd5b50505050505050505050565b6107d581336108d5565b50565b60006107e483836104d6565b610862576000838152602081815260408083206001600160a01b03861684529091529020805460ff1916600117905561081a3390565b6001600160a01b0316826001600160a01b0316847f2f8788117e7eff1d82e926ec794901d17c78024a50270940304540a733656f0d60405160405180910390a4506001610346565b506000610346565b600061087683836104d6565b15610862576000838152602081815260408083206001600160a01b0386168085529252808320805460ff1916905551339286917ff6391f5c32d9c69d2a47ea670b442974b53935d1edc7fd64eb21e047a839171b9190a4506001610346565b6108df82826104d6565b61090e5760405163e2517d3f60e01b81526001600160a01b038216600482015260248101839052604401610482565b5050565b60006020828403121561092457600080fd5b81356001600160e01b03198116811461093c57600080fd5b9392505050565b60006020828403121561095557600080fd5b5035919050565b6001600160a01b03811681146107d557600080fd5b6000806040838503121561098457600080fd5b8235915060208301356109968161095c565b809150509250929050565b6000602082840312156109b357600080fd5b813561093c8161095c565b6000806000606084860312156109d357600080fd5b8335925060208401356109e58161095c565b929592945050506040919091013590565b600060208284031215610a0857600080fd5b5051919050565b634e487b7160e01b600052601160045260246000fd5b600181815b80851115610a60578160001904821115610a4657610a46610a0f565b80851615610a5357918102915b93841c9390800290610a2a565b509250929050565b600082610a7757506001610346565b81610a8457506000610346565b8160018114610a9a5760028114610aa457610ac0565b6001915050610346565b60ff841115610ab557610ab5610a0f565b50506001821b610346565b5060208310610133831016604e8410600b8410161715610ae3575081810a610346565b610aed8383610a25565b8060001904821115610b0157610b01610a0f565b029392505050565b600061093c60ff841683610a68565b808202811582820484141761034657610346610a0f565b600082610b4c57634e487b7160e01b600052601260045260246000fd5b500490565b600060208284031215610b6357600080fd5b8151801515811461093c57600080fdfea26469706673582212209033beb9b75de6cdbfe8231aafccacfa1704773f99a94d0629eac0c6b60a4d7564736f6c63430008140033",
  "devdoc": {
    "errors": {
      "AccessControlBadConfirmation()": [
        {
          "details": "The caller of a function is not the expected one. NOTE: Don't confuse with {AccessControlUnauthorizedAccount}."
        }
      ],
      "AccessControlUnauthorizedAccount(address,bytes32)": [
        {
          "details": "The `account` is missing a role."
        }
      ]
    },
    "events": {
      "RoleAdminChanged(bytes32,bytes32,bytes32)": {
        "details": "Emitted when `newAdminRole` is set as ``role``'s admin role, replacing `previousAdminRole` `DEFAULT_ADMIN_ROLE` is the starting admin for all roles, despite {RoleAdminChanged} not being emitted signaling this."
      },
      "RoleGranted(bytes32,address,address)": {
        "details": "Emitted when `account` is granted `role`. `sender` is the account that originated the contract call. This account bears the admin role (for the granted role). Expected in cases where the role was granted using the internal {AccessControl-_grantRole}."
      },
      "RoleRevoked(bytes32,address,address)": {
        "details": "Emitted when `account` is revoked `role`. `sender` is the account that originated the contract call:   - if using `revokeRole`, it is the admin role bearer   - if using `renounceRole`, it is the role bearer (i.e. `account`)"
      }
    },
    "kind": "dev",
    "methods": {
      "constructor": {
        "details": "Sets up initial roles and configuration for redemption functionality",
        "params": {
          "_collateralVault": "The address of the collateral vault",
          "_dstable": "The address of the dStable stablecoin",
          "_oracle": "The address of the price oracle"
        }
      },
      "dstableAmountToBaseValue(uint256)": {
        "params": {
          "dstableAmount": "The amount of dStable tokens to convert"
        },
        "returns": {
          "_0": "The equivalent base value"
        }
      },
      "getRoleAdmin(bytes32)": {
        "details": "Returns the admin role that controls `role`. See {grantRole} and {revokeRole}. To change a role's admin, use {_setRoleAdmin}."
      },
      "grantRole(bytes32,address)": {
        "details": "Grants `role` to `account`. If `account` had not been already granted `role`, emits a {RoleGranted} event. Requirements: - the caller must have ``role``'s admin role. May emit a {RoleGranted} event."
      },
      "hasRole(bytes32,address)": {
        "details": "Returns `true` if `account` has been granted `role`."
      },
      "redeem(uint256,address,uint256)": {
        "params": {
          "collateralAsset": "The address of the collateral asset",
          "dstableAmount": "The amount of dStable to redeem",
          "minCollateral": "The minimum amount of collateral to receive, used for slippage protection"
        }
      },
      "renounceRole(bytes32,address)": {
        "details": "Revokes `role` from the calling account. Roles are often managed via {grantRole} and {revokeRole}: this function's purpose is to provide a mechanism for accounts to lose their privileges if they are compromised (such as when a trusted device is misplaced). If the calling account had been revoked `role`, emits a {RoleRevoked} event. Requirements: - the caller must be `callerConfirmation`. May emit a {RoleRevoked} event."
      },
      "revokeRole(bytes32,address)": {
        "details": "Revokes `role` from `account`. If `account` had been granted `role`, emits a {RoleRevoked} event. Requirements: - the caller must have ``role``'s admin role. May emit a {RoleRevoked} event."
      },
      "setBaseCurrencyUnit(uint256)": {
        "details": "Only used if the oracle's base currency unit changes",
        "params": {
          "_newBaseCurrencyUnit": "The new base currency unit to set"
        }
      },
      "setCollateralVault(address)": {
        "params": {
          "_collateralVault": "The address of the new collateral vault"
        }
      },
      "setOracle(address)": {
        "params": {
          "newOracle": "The new oracle to use"
        }
      },
      "supportsInterface(bytes4)": {
        "details": "See {IERC165-supportsInterface}."
      }
    },
    "version": 1
  },
  "userdoc": {
    "kind": "user",
    "methods": {
      "constructor": {
        "notice": "Initializes the Redeemer contract"
      },
      "dstableAmountToBaseValue(uint256)": {
        "notice": "Converts an amount of dStable tokens to its equivalent base value"
      },
      "redeem(uint256,address,uint256)": {
        "notice": "Redeems dStable tokens for collateral from the caller"
      },
      "setBaseCurrencyUnit(uint256)": {
        "notice": "Updates the base currency unit used for price calculations"
      },
      "setCollateralVault(address)": {
        "notice": "Sets the collateral vault address"
      },
      "setOracle(address)": {
        "notice": "Sets the oracle to use for collateral valuation"
      }
    },
    "version": 1
  },
  "storageLayout": {
    "storage": [
      {
        "astId": 2521,
        "contract": "contracts/dstable/Redeemer.sol:Redeemer",
        "label": "_roles",
        "offset": 0,
        "slot": "0",
        "type": "t_mapping(t_bytes32,t_struct(RoleData)2516_storage)"
      },
      {
        "astId": 57243,
        "contract": "contracts/dstable/Redeemer.sol:Redeemer",
        "label": "oracle",
        "offset": 0,
        "slot": "1",
        "type": "t_contract(IPriceOracleGetter)12694"
      },
      {
        "astId": 57245,
        "contract": "contracts/dstable/Redeemer.sol:Redeemer",
        "label": "baseCurrencyUnit",
        "offset": 0,
        "slot": "2",
        "type": "t_uint256"
      },
      {
        "astId": 57339,
        "contract": "contracts/dstable/Redeemer.sol:Redeemer",
        "label": "dstable",
        "offset": 0,
        "slot": "3",
        "type": "t_contract(IMintableERC20)12724"
      },
      {
        "astId": 57344,
        "contract": "contracts/dstable/Redeemer.sol:Redeemer",
        "label": "collateralVault",
        "offset": 0,
        "slot": "4",
        "type": "t_contract(CollateralVault)56691"
      }
    ],
    "types": {
      "t_address": {
        "encoding": "inplace",
        "label": "address",
        "numberOfBytes": "20"
      },
      "t_bool": {
        "encoding": "inplace",
        "label": "bool",
        "numberOfBytes": "1"
      },
      "t_bytes32": {
        "encoding": "inplace",
        "label": "bytes32",
        "numberOfBytes": "32"
      },
      "t_contract(CollateralVault)56691": {
        "encoding": "inplace",
        "label": "contract CollateralVault",
        "numberOfBytes": "20"
      },
      "t_contract(IMintableERC20)12724": {
        "encoding": "inplace",
        "label": "contract IMintableERC20",
        "numberOfBytes": "20"
      },
      "t_contract(IPriceOracleGetter)12694": {
        "encoding": "inplace",
        "label": "contract IPriceOracleGetter",
        "numberOfBytes": "20"
      },
      "t_mapping(t_address,t_bool)": {
        "encoding": "mapping",
        "key": "t_address",
        "label": "mapping(address => bool)",
        "numberOfBytes": "32",
        "value": "t_bool"
      },
      "t_mapping(t_bytes32,t_struct(RoleData)2516_storage)": {
        "encoding": "mapping",
        "key": "t_bytes32",
        "label": "mapping(bytes32 => struct AccessControl.RoleData)",
        "numberOfBytes": "32",
        "value": "t_struct(RoleData)2516_storage"
      },
      "t_struct(RoleData)2516_storage": {
        "encoding": "inplace",
        "label": "struct AccessControl.RoleData",
        "members": [
          {
            "astId": 2513,
            "contract": "contracts/dstable/Redeemer.sol:Redeemer",
            "label": "hasRole",
            "offset": 0,
            "slot": "0",
            "type": "t_mapping(t_address,t_bool)"
          },
          {
            "astId": 2515,
            "contract": "contracts/dstable/Redeemer.sol:Redeemer",
            "label": "adminRole",
            "offset": 0,
            "slot": "1",
            "type": "t_bytes32"
          }
        ],
        "numberOfBytes": "64"
      },
      "t_uint256": {
        "encoding": "inplace",
        "label": "uint256",
        "numberOfBytes": "32"
      }
    }
  }
}