{
  "address": "0x4fa35bBD34d6CD01673D597E1CBC6bE2CB38bbF2",
  "abi": [
    {
      "inputs": [
        {
          "internalType": "address",
          "name": "_collateralVault",
          "type": "address"
        },
        {
          "internalType": "address",
          "name": "_dstable",
          "type": "address"
        },
        {
          "internalType": "contract IPriceOracleGetter",
          "name": "_oracle",
          "type": "address"
        }
      ],
      "stateMutability": "nonpayable",
      "type": "constructor"
    },
    {
      "inputs": [],
      "name": "AccessControlBadConfirmation",
      "type": "error"
    },
    {
      "inputs": [
        {
          "internalType": "address",
          "name": "account",
          "type": "address"
        },
        {
          "internalType": "bytes32",
          "name": "neededRole",
          "type": "bytes32"
        }
      ],
      "name": "AccessControlUnauthorizedAccount",
      "type": "error"
    },
    {
      "inputs": [],
      "name": "DStableTransferFailed",
      "type": "error"
    },
    {
      "inputs": [
        {
          "internalType": "uint256",
          "name": "baseCurrencyUnit",
          "type": "uint256"
        }
      ],
      "name": "IncorrectBaseCurrencyUnit",
      "type": "error"
    },
    {
      "inputs": [
        {
          "internalType": "uint256",
          "name": "actualCollateral",
          "type": "uint256"
        },
        {
          "internalType": "uint256",
          "name": "minCollateral",
          "type": "uint256"
        }
      ],
      "name": "SlippageTooHigh",
      "type": "error"
    },
    {
      "anonymous": false,
      "inputs": [
        {
          "indexed": true,
          "internalType": "address",
          "name": "newOracle",
          "type": "address"
        }
      ],
      "name": "OracleSet",
      "type": "event"
    },
    {
      "anonymous": false,
      "inputs": [
        {
          "indexed": true,
          "internalType": "bytes32",
          "name": "role",
          "type": "bytes32"
        },
        {
          "indexed": true,
          "internalType": "bytes32",
          "name": "previousAdminRole",
          "type": "bytes32"
        },
        {
          "indexed": true,
          "internalType": "bytes32",
          "name": "newAdminRole",
          "type": "bytes32"
        }
      ],
      "name": "RoleAdminChanged",
      "type": "event"
    },
    {
      "anonymous": false,
      "inputs": [
        {
          "indexed": true,
          "internalType": "bytes32",
          "name": "role",
          "type": "bytes32"
        },
        {
          "indexed": true,
          "internalType": "address",
          "name": "account",
          "type": "address"
        },
        {
          "indexed": true,
          "internalType": "address",
          "name": "sender",
          "type": "address"
        }
      ],
      "name": "RoleGranted",
      "type": "event"
    },
    {
      "anonymous": false,
      "inputs": [
        {
          "indexed": true,
          "internalType": "bytes32",
          "name": "role",
          "type": "bytes32"
        },
        {
          "indexed": true,
          "internalType": "address",
          "name": "account",
          "type": "address"
        },
        {
          "indexed": true,
          "internalType": "address",
          "name": "sender",
          "type": "address"
        }
      ],
      "name": "RoleRevoked",
      "type": "event"
    },
    {
      "inputs": [],
      "name": "BASE_UNIT",
      "outputs": [
        {
          "internalType": "uint256",
          "name": "",
          "type": "uint256"
        }
      ],
      "stateMutability": "view",
      "type": "function"
    },
    {
      "inputs": [],
      "name": "DEFAULT_ADMIN_ROLE",
      "outputs": [
        {
          "internalType": "bytes32",
          "name": "",
          "type": "bytes32"
        }
      ],
      "stateMutability": "view",
      "type": "function"
    },
    {
      "inputs": [],
      "name": "REDEMPTION_MANAGER_ROLE",
      "outputs": [
        {
          "internalType": "bytes32",
          "name": "",
          "type": "bytes32"
        }
      ],
      "stateMutability": "view",
      "type": "function"
    },
    {
      "inputs": [],
      "name": "baseCurrencyUnit",
      "outputs": [
        {
          "internalType": "uint256",
          "name": "",
          "type": "uint256"
        }
      ],
      "stateMutability": "view",
      "type": "function"
    },
    {
      "inputs": [],
      "name": "collateralVault",
      "outputs": [
        {
          "internalType": "contract CollateralVault",
          "name": "",
          "type": "address"
        }
      ],
      "stateMutability": "view",
      "type": "function"
    },
    {
      "inputs": [],
      "name": "dstable",
      "outputs": [
        {
          "internalType": "contract IMintableERC20",
          "name": "",
          "type": "address"
        }
      ],
      "stateMutability": "view",
      "type": "function"
    },
    {
      "inputs": [
        {
          "internalType": "uint256",
          "name": "dstableAmount",
          "type": "uint256"
        }
      ],
      "name": "dstableAmountToBaseValue",
      "outputs": [
        {
          "internalType": "uint256",
          "name": "",
          "type": "uint256"
        }
      ],
      "stateMutability": "view",
      "type": "function"
    },
    {
      "inputs": [],
      "name": "dstableDecimals",
      "outputs": [
        {
          "internalType": "uint8",
          "name": "",
          "type": "uint8"
        }
      ],
      "stateMutability": "view",
      "type": "function"
    },
    {
      "inputs": [
        {
          "internalType": "bytes32",
          "name": "role",
          "type": "bytes32"
        }
      ],
      "name": "getRoleAdmin",
      "outputs": [
        {
          "internalType": "bytes32",
          "name": "",
          "type": "bytes32"
        }
      ],
      "stateMutability": "view",
      "type": "function"
    },
    {
      "inputs": [
        {
          "internalType": "bytes32",
          "name": "role",
          "type": "bytes32"
        },
        {
          "internalType": "address",
          "name": "account",
          "type": "address"
        }
      ],
      "name": "grantRole",
      "outputs": [],
      "stateMutability": "nonpayable",
      "type": "function"
    },
    {
      "inputs": [
        {
          "internalType": "bytes32",
          "name": "role",
          "type": "bytes32"
        },
        {
          "internalType": "address",
          "name": "account",
          "type": "address"
        }
      ],
      "name": "hasRole",
      "outputs": [
        {
          "internalType": "bool",
          "name": "",
          "type": "bool"
        }
      ],
      "stateMutability": "view",
      "type": "function"
    },
    {
      "inputs": [],
      "name": "oracle",
      "outputs": [
        {
          "internalType": "contract IPriceOracleGetter",
          "name": "",
          "type": "address"
        }
      ],
      "stateMutability": "view",
      "type": "function"
    },
    {
      "inputs": [
        {
          "internalType": "uint256",
          "name": "dstableAmount",
          "type": "uint256"
        },
        {
          "internalType": "address",
          "name": "collateralAsset",
          "type": "address"
        },
        {
          "internalType": "uint256",
          "name": "minCollateral",
          "type": "uint256"
        }
      ],
      "name": "redeem",
      "outputs": [],
      "stateMutability": "nonpayable",
      "type": "function"
    },
    {
      "inputs": [
        {
          "internalType": "bytes32",
          "name": "role",
          "type": "bytes32"
        },
        {
          "internalType": "address",
          "name": "callerConfirmation",
          "type": "address"
        }
      ],
      "name": "renounceRole",
      "outputs": [],
      "stateMutability": "nonpayable",
      "type": "function"
    },
    {
      "inputs": [
        {
          "internalType": "bytes32",
          "name": "role",
          "type": "bytes32"
        },
        {
          "internalType": "address",
          "name": "account",
          "type": "address"
        }
      ],
      "name": "revokeRole",
      "outputs": [],
      "stateMutability": "nonpayable",
      "type": "function"
    },
    {
      "inputs": [
        {
          "internalType": "uint256",
          "name": "_newBaseCurrencyUnit",
          "type": "uint256"
        }
      ],
      "name": "setBaseCurrencyUnit",
      "outputs": [],
      "stateMutability": "nonpayable",
      "type": "function"
    },
    {
      "inputs": [
        {
          "internalType": "address",
          "name": "_collateralVault",
          "type": "address"
        }
      ],
      "name": "setCollateralVault",
      "outputs": [],
      "stateMutability": "nonpayable",
      "type": "function"
    },
    {
      "inputs": [
        {
          "internalType": "contract IPriceOracleGetter",
          "name": "newOracle",
          "type": "address"
        }
      ],
      "name": "setOracle",
      "outputs": [],
      "stateMutability": "nonpayable",
      "type": "function"
    },
    {
      "inputs": [
        {
          "internalType": "bytes4",
          "name": "interfaceId",
          "type": "bytes4"
        }
      ],
      "name": "supportsInterface",
      "outputs": [
        {
          "internalType": "bool",
          "name": "",
          "type": "bool"
        }
      ],
      "stateMutability": "view",
      "type": "function"
    }
  ],
  "transactionHash": "0x36630bb7aa8291c7396b373efa30c419dbe9ddbee61a802da177bdefc3559fc5",
  "args": [
    "0xF908A56BE260B41A0F159cdc1fbe216Deee35056",
    "0x4C40dCD78BF88FC5676C992e409853404412F415",
    "0xfA7b210A3EFd3fAe178bFa3E7200f76578684f21"
  ],
  "numDeployments": 1,
  "solcInputHash": "601a421431a4d1b98bcec471579cced1",
  "bytecode": "0x60c06040523480156200001157600080fd5b5060405162001e3738038062001e3783398181016040528101906200003791906200058d565b806305f5e10063ffffffff1681600160006101000a81548173ffffffffffffffffffffffffffffffffffffffff021916908373ffffffffffffffffffffffffffffffffffffffff16021790555080600281905550620000a06000801b336200029060201b60201c565b50505082600460006101000a81548173ffffffffffffffffffffffffffffffffffffffff021916908373ffffffffffffffffffffffffffffffffffffffff16021790555081600360006101000a81548173ffffffffffffffffffffffffffffffffffffffff021916908373ffffffffffffffffffffffffffffffffffffffff160217905550600360009054906101000a900473ffffffffffffffffffffffffffffffffffffffff1673ffffffffffffffffffffffffffffffffffffffff1663313ce5676040518163ffffffff1660e01b8152600401602060405180830381865afa15801562000193573d6000803e3d6000fd5b505050506040513d601f19601f82011682018060405250810190620001b9919062000627565b60ff1660808160ff16815250508073ffffffffffffffffffffffffffffffffffffffff16638c89b64f6040518163ffffffff1660e01b8152600401602060405180830381865afa15801562000212573d6000803e3d6000fd5b505050506040513d601f19601f8201168201806040525081019062000238919062000694565b60a08181525050620002546000801b336200029060201b60201c565b50620002877fe5bea7d829f723a95a0c83a655765be37702fa584514c1e2a20867d04b58478e336200039360201b60201c565b5050506200071f565b6000620002a48383620003cd60201b60201c565b6200038857600160008085815260200190815260200160002060000160008473ffffffffffffffffffffffffffffffffffffffff1673ffffffffffffffffffffffffffffffffffffffff16815260200190815260200160002060006101000a81548160ff021916908315150217905550620003246200043760201b60201c565b73ffffffffffffffffffffffffffffffffffffffff168273ffffffffffffffffffffffffffffffffffffffff16847f2f8788117e7eff1d82e926ec794901d17c78024a50270940304540a733656f0d60405160405180910390a4600190506200038d565b600090505b92915050565b620003a4826200043f60201b60201c565b620003b5816200045e60201b60201c565b620003c783836200029060201b60201c565b50505050565b600080600084815260200190815260200160002060000160008373ffffffffffffffffffffffffffffffffffffffff1673ffffffffffffffffffffffffffffffffffffffff16815260200190815260200160002060009054906101000a900460ff16905092915050565b600033905090565b6000806000838152602001908152602001600020600101549050919050565b6200047f81620004736200043760201b60201c565b6200048260201b60201c565b50565b620004948282620003cd60201b60201c565b620004da5780826040517fe2517d3f000000000000000000000000000000000000000000000000000000008152600401620004d1929190620006f2565b60405180910390fd5b5050565b600080fd5b600073ffffffffffffffffffffffffffffffffffffffff82169050919050565b60006200051082620004e3565b9050919050565b620005228162000503565b81146200052e57600080fd5b50565b600081519050620005428162000517565b92915050565b6000620005558262000503565b9050919050565b620005678162000548565b81146200057357600080fd5b50565b60008151905062000587816200055c565b92915050565b600080600060608486031215620005a957620005a8620004de565b5b6000620005b98682870162000531565b9350506020620005cc8682870162000531565b9250506040620005df8682870162000576565b9150509250925092565b600060ff82169050919050565b6200060181620005e9565b81146200060d57600080fd5b50565b6000815190506200062181620005f6565b92915050565b60006020828403121562000640576200063f620004de565b5b6000620006508482850162000610565b91505092915050565b6000819050919050565b6200066e8162000659565b81146200067a57600080fd5b50565b6000815190506200068e8162000663565b92915050565b600060208284031215620006ad57620006ac620004de565b5b6000620006bd848285016200067d565b91505092915050565b620006d18162000503565b82525050565b6000819050919050565b620006ec81620006d7565b82525050565b6000604082019050620007096000830185620006c6565b620007186020830184620006e1565b9392505050565b60805160a0516116e4620007536000396000818161043c01526107d801526000818161047f01526107ab01526116e46000f3fe608060405234801561001057600080fd5b50600436106101215760003560e01c80637adbf973116100ad57806397fe30ef1161007157806397fe30ef14610308578063a217fddf14610326578063d547741f14610344578063d878016114610360578063f3bddde11461037c57610121565b80637adbf973146102505780637dc0d1d01461026c5780638ade91ec1461028a57806391d14854146102a857806391e5287b146102d857610121565b806326663911116100f457806326663911146101c25780632f2ff15d146101e057806336568abe146101fc5780634a0bbabb1461021857806368a806c41461023457610121565b806301ffc9a7146101265780630bece79c146101565780630e962f0014610174578063248a9ca314610192575b600080fd5b610140600480360381019061013b9190610e9d565b61039a565b60405161014d9190610ee5565b60405180910390f35b61015e610414565b60405161016b9190610f7f565b60405180910390f35b61017c61043a565b6040516101899190610fb3565b60405180910390f35b6101ac60048036038101906101a79190611004565b61045e565b6040516101b99190611040565b60405180910390f35b6101ca61047d565b6040516101d79190611077565b60405180910390f35b6101fa60048036038101906101f591906110d0565b6104a1565b005b610216600480360381019061021191906110d0565b6104c3565b005b610232600480360381019061022d919061113c565b61053e565b005b61024e60048036038101906102499190611169565b610556565b005b61026a600480360381019061026591906111d4565b6105a8565b005b6102746106f3565b6040516102819190611222565b60405180910390f35b610292610719565b60405161029f9190611040565b60405180910390f35b6102c260048036038101906102bd91906110d0565b61073d565b6040516102cf9190610ee5565b60405180910390f35b6102f260048036038101906102ed919061113c565b6107a7565b6040516102ff9190610fb3565b60405180910390f35b610310610813565b60405161031d919061125e565b60405180910390f35b61032e610839565b60405161033b9190611040565b60405180910390f35b61035e600480360381019061035991906110d0565b610840565b005b61037a60048036038101906103759190611279565b610862565b005b610384610b80565b6040516103919190610fb3565b60405180910390f35b60007f7965db0b000000000000000000000000000000000000000000000000000000007bffffffffffffffffffffffffffffffffffffffffffffffffffffffff1916827bffffffffffffffffffffffffffffffffffffffffffffffffffffffff1916148061040d575061040c82610b86565b5b9050919050565b600460009054906101000a900473ffffffffffffffffffffffffffffffffffffffff1681565b7f000000000000000000000000000000000000000000000000000000000000000081565b6000806000838152602001908152602001600020600101549050919050565b7f000000000000000000000000000000000000000000000000000000000000000081565b6104aa8261045e565b6104b381610bf0565b6104bd8383610c04565b50505050565b6104cb610cf5565b73ffffffffffffffffffffffffffffffffffffffff168173ffffffffffffffffffffffffffffffffffffffff161461052f576040517f6697b23200000000000000000000000000000000000000000000000000000000815260040160405180910390fd5b6105398282610cfd565b505050565b6000801b61054b81610bf0565b816002819055505050565b6000801b61056381610bf0565b81600460006101000a81548173ffffffffffffffffffffffffffffffffffffffff021916908373ffffffffffffffffffffffffffffffffffffffff1602179055505050565b6000801b6105b581610bf0565b6002548273ffffffffffffffffffffffffffffffffffffffff16638c89b64f6040518163ffffffff1660e01b8152600401602060405180830381865afa158015610603573d6000803e3d6000fd5b505050506040513d601f19601f8201168201806040525081019061062791906112e1565b1461066b576002546040517f9b6812b90000000000000000000000000000000000000000000000000000000081526004016106629190610fb3565b60405180910390fd5b81600160006101000a81548173ffffffffffffffffffffffffffffffffffffffff021916908373ffffffffffffffffffffffffffffffffffffffff1602179055508173ffffffffffffffffffffffffffffffffffffffff167f3f32684a32a11dabdbb8c0177de80aa3ae36a004d75210335b49e544e48cd0aa60405160405180910390a25050565b600160009054906101000a900473ffffffffffffffffffffffffffffffffffffffff1681565b7fe5bea7d829f723a95a0c83a655765be37702fa584514c1e2a20867d04b58478e81565b600080600084815260200190815260200160002060000160008373ffffffffffffffffffffffffffffffffffffffff1673ffffffffffffffffffffffffffffffffffffffff16815260200190815260200160002060009054906101000a900460ff16905092915050565b60007f0000000000000000000000000000000000000000000000000000000000000000600a6107d69190611470565b7f00000000000000000000000000000000000000000000000000000000000000008361080291906114bb565b61080c919061152c565b9050919050565b600360009054906101000a900473ffffffffffffffffffffffffffffffffffffffff1681565b6000801b81565b6108498261045e565b61085281610bf0565b61085c8383610cfd565b50505050565b7fe5bea7d829f723a95a0c83a655765be37702fa584514c1e2a20867d04b58478e61088c81610bf0565b600360009054906101000a900473ffffffffffffffffffffffffffffffffffffffff1673ffffffffffffffffffffffffffffffffffffffff166323b872dd3330876040518463ffffffff1660e01b81526004016108eb9392919061156c565b6020604051808303816000875af115801561090a573d6000803e3d6000fd5b505050506040513d601f19601f8201168201806040525081019061092e91906115cf565b610964576040517f3375730500000000000000000000000000000000000000000000000000000000815260040160405180910390fd5b600360009054906101000a900473ffffffffffffffffffffffffffffffffffffffff1673ffffffffffffffffffffffffffffffffffffffff166342966c68856040518263ffffffff1660e01b81526004016109bf9190610fb3565b600060405180830381600087803b1580156109d957600080fd5b505af11580156109ed573d6000803e3d6000fd5b5050505060006109fc856107a7565b90506000600460009054906101000a900473ffffffffffffffffffffffffffffffffffffffff1673ffffffffffffffffffffffffffffffffffffffff16635c23ef6e83876040518363ffffffff1660e01b8152600401610a5d9291906115fc565b602060405180830381865afa158015610a7a573d6000803e3d6000fd5b505050506040513d601f19601f82011682018060405250810190610a9e91906112e1565b905083811015610ae75780846040517f76baadda000000000000000000000000000000000000000000000000000000008152600401610ade929190611625565b60405180910390fd5b600460009054906101000a900473ffffffffffffffffffffffffffffffffffffffff1673ffffffffffffffffffffffffffffffffffffffff1663c4e2c1e63383886040518463ffffffff1660e01b8152600401610b469392919061164e565b600060405180830381600087803b158015610b6057600080fd5b505af1158015610b74573d6000803e3d6000fd5b50505050505050505050565b60025481565b60007f01ffc9a7000000000000000000000000000000000000000000000000000000007bffffffffffffffffffffffffffffffffffffffffffffffffffffffff1916827bffffffffffffffffffffffffffffffffffffffffffffffffffffffff1916149050919050565b610c0181610bfc610cf5565b610def565b50565b6000610c10838361073d565b610cea57600160008085815260200190815260200160002060000160008473ffffffffffffffffffffffffffffffffffffffff1673ffffffffffffffffffffffffffffffffffffffff16815260200190815260200160002060006101000a81548160ff021916908315150217905550610c87610cf5565b73ffffffffffffffffffffffffffffffffffffffff168273ffffffffffffffffffffffffffffffffffffffff16847f2f8788117e7eff1d82e926ec794901d17c78024a50270940304540a733656f0d60405160405180910390a460019050610cef565b600090505b92915050565b600033905090565b6000610d09838361073d565b15610de457600080600085815260200190815260200160002060000160008473ffffffffffffffffffffffffffffffffffffffff1673ffffffffffffffffffffffffffffffffffffffff16815260200190815260200160002060006101000a81548160ff021916908315150217905550610d81610cf5565b73ffffffffffffffffffffffffffffffffffffffff168273ffffffffffffffffffffffffffffffffffffffff16847ff6391f5c32d9c69d2a47ea670b442974b53935d1edc7fd64eb21e047a839171b60405160405180910390a460019050610de9565b600090505b92915050565b610df9828261073d565b610e3c5780826040517fe2517d3f000000000000000000000000000000000000000000000000000000008152600401610e33929190611685565b60405180910390fd5b5050565b600080fd5b60007fffffffff0000000000000000000000000000000000000000000000000000000082169050919050565b610e7a81610e45565b8114610e8557600080fd5b50565b600081359050610e9781610e71565b92915050565b600060208284031215610eb357610eb2610e40565b5b6000610ec184828501610e88565b91505092915050565b60008115159050919050565b610edf81610eca565b82525050565b6000602082019050610efa6000830184610ed6565b92915050565b600073ffffffffffffffffffffffffffffffffffffffff82169050919050565b6000819050919050565b6000610f45610f40610f3b84610f00565b610f20565b610f00565b9050919050565b6000610f5782610f2a565b9050919050565b6000610f6982610f4c565b9050919050565b610f7981610f5e565b82525050565b6000602082019050610f946000830184610f70565b92915050565b6000819050919050565b610fad81610f9a565b82525050565b6000602082019050610fc86000830184610fa4565b92915050565b6000819050919050565b610fe181610fce565b8114610fec57600080fd5b50565b600081359050610ffe81610fd8565b92915050565b60006020828403121561101a57611019610e40565b5b600061102884828501610fef565b91505092915050565b61103a81610fce565b82525050565b60006020820190506110556000830184611031565b92915050565b600060ff82169050919050565b6110718161105b565b82525050565b600060208201905061108c6000830184611068565b92915050565b600061109d82610f00565b9050919050565b6110ad81611092565b81146110b857600080fd5b50565b6000813590506110ca816110a4565b92915050565b600080604083850312156110e7576110e6610e40565b5b60006110f585828601610fef565b9250506020611106858286016110bb565b9150509250929050565b61111981610f9a565b811461112457600080fd5b50565b60008135905061113681611110565b92915050565b60006020828403121561115257611151610e40565b5b600061116084828501611127565b91505092915050565b60006020828403121561117f5761117e610e40565b5b600061118d848285016110bb565b91505092915050565b60006111a182611092565b9050919050565b6111b181611196565b81146111bc57600080fd5b50565b6000813590506111ce816111a8565b92915050565b6000602082840312156111ea576111e9610e40565b5b60006111f8848285016111bf565b91505092915050565b600061120c82610f4c565b9050919050565b61121c81611201565b82525050565b60006020820190506112376000830184611213565b92915050565b600061124882610f4c565b9050919050565b6112588161123d565b82525050565b6000602082019050611273600083018461124f565b92915050565b60008060006060848603121561129257611291610e40565b5b60006112a086828701611127565b93505060206112b1868287016110bb565b92505060406112c286828701611127565b9150509250925092565b6000815190506112db81611110565b92915050565b6000602082840312156112f7576112f6610e40565b5b6000611305848285016112cc565b91505092915050565b7f4e487b7100000000000000000000000000000000000000000000000000000000600052601160045260246000fd5b60008160011c9050919050565b6000808291508390505b6001851115611394578086048111156113705761136f61130e565b5b600185161561137f5780820291505b808102905061138d8561133d565b9450611354565b94509492505050565b6000826113ad5760019050611469565b816113bb5760009050611469565b81600181146113d157600281146113db5761140a565b6001915050611469565b60ff8411156113ed576113ec61130e565b5b8360020a9150848211156114045761140361130e565b5b50611469565b5060208310610133831016604e8410600b841016171561143f5782820a90508381111561143a5761143961130e565b5b611469565b61144c848484600161134a565b925090508184048111156114635761146261130e565b5b81810290505b9392505050565b600061147b82610f9a565b91506114868361105b565b92506114b37fffffffffffffffffffffffffffffffffffffffffffffffffffffffffffffffff848461139d565b905092915050565b60006114c682610f9a565b91506114d183610f9a565b92508282026114df81610f9a565b915082820484148315176114f6576114f561130e565b5b5092915050565b7f4e487b7100000000000000000000000000000000000000000000000000000000600052601260045260246000fd5b600061153782610f9a565b915061154283610f9a565b925082611552576115516114fd565b5b828204905092915050565b61156681611092565b82525050565b6000606082019050611581600083018661155d565b61158e602083018561155d565b61159b6040830184610fa4565b949350505050565b6115ac81610eca565b81146115b757600080fd5b50565b6000815190506115c9816115a3565b92915050565b6000602082840312156115e5576115e4610e40565b5b60006115f3848285016115ba565b91505092915050565b60006040820190506116116000830185610fa4565b61161e602083018461155d565b9392505050565b600060408201905061163a6000830185610fa4565b6116476020830184610fa4565b9392505050565b6000606082019050611663600083018661155d565b6116706020830185610fa4565b61167d604083018461155d565b949350505050565b600060408201905061169a600083018561155d565b6116a76020830184611031565b939250505056fea264697066735822122064aeb6ee3253b8840ef39dc4dc11facccb62d4b50bec30741c1d1f8868e10e5364736f6c63430008140033",
  "devdoc": {
    "errors": {
      "AccessControlBadConfirmation()": [
        {
          "details": "The caller of a function is not the expected one. NOTE: Don't confuse with {AccessControlUnauthorizedAccount}."
        }
      ],
      "AccessControlUnauthorizedAccount(address,bytes32)": [
        {
          "details": "The `account` is missing a role."
        }
      ]
    },
    "events": {
      "RoleAdminChanged(bytes32,bytes32,bytes32)": {
        "details": "Emitted when `newAdminRole` is set as ``role``'s admin role, replacing `previousAdminRole` `DEFAULT_ADMIN_ROLE` is the starting admin for all roles, despite {RoleAdminChanged} not being emitted signaling this."
      },
      "RoleGranted(bytes32,address,address)": {
        "details": "Emitted when `account` is granted `role`. `sender` is the account that originated the contract call. This account bears the admin role (for the granted role). Expected in cases where the role was granted using the internal {AccessControl-_grantRole}."
      },
      "RoleRevoked(bytes32,address,address)": {
        "details": "Emitted when `account` is revoked `role`. `sender` is the account that originated the contract call:   - if using `revokeRole`, it is the admin role bearer   - if using `renounceRole`, it is the role bearer (i.e. `account`)"
      }
    },
    "kind": "dev",
    "methods": {
      "constructor": {
        "details": "Sets up initial roles and configuration for redemption functionality",
        "params": {
          "_collateralVault": "The address of the collateral vault",
          "_dstable": "The address of the dStable stablecoin",
          "_oracle": "The address of the price oracle"
        }
      },
      "dstableAmountToBaseValue(uint256)": {
        "params": {
          "dstableAmount": "The amount of dStable tokens to convert"
        },
        "returns": {
          "_0": "The equivalent base value"
        }
      },
      "getRoleAdmin(bytes32)": {
        "details": "Returns the admin role that controls `role`. See {grantRole} and {revokeRole}. To change a role's admin, use {_setRoleAdmin}."
      },
      "grantRole(bytes32,address)": {
        "details": "Grants `role` to `account`. If `account` had not been already granted `role`, emits a {RoleGranted} event. Requirements: - the caller must have ``role``'s admin role. May emit a {RoleGranted} event."
      },
      "hasRole(bytes32,address)": {
        "details": "Returns `true` if `account` has been granted `role`."
      },
      "redeem(uint256,address,uint256)": {
        "params": {
          "collateralAsset": "The address of the collateral asset",
          "dstableAmount": "The amount of dStable to redeem",
          "minCollateral": "The minimum amount of collateral to receive, used for slippage protection"
        }
      },
      "renounceRole(bytes32,address)": {
        "details": "Revokes `role` from the calling account. Roles are often managed via {grantRole} and {revokeRole}: this function's purpose is to provide a mechanism for accounts to lose their privileges if they are compromised (such as when a trusted device is misplaced). If the calling account had been revoked `role`, emits a {RoleRevoked} event. Requirements: - the caller must be `callerConfirmation`. May emit a {RoleRevoked} event."
      },
      "revokeRole(bytes32,address)": {
        "details": "Revokes `role` from `account`. If `account` had been granted `role`, emits a {RoleRevoked} event. Requirements: - the caller must have ``role``'s admin role. May emit a {RoleRevoked} event."
      },
      "setBaseCurrencyUnit(uint256)": {
        "details": "Only used if the oracle's base currency unit changes",
        "params": {
          "_newBaseCurrencyUnit": "The new base currency unit to set"
        }
      },
      "setCollateralVault(address)": {
        "params": {
          "_collateralVault": "The address of the new collateral vault"
        }
      },
      "setOracle(address)": {
        "params": {
          "newOracle": "The new oracle to use"
        }
      },
      "supportsInterface(bytes4)": {
        "details": "See {IERC165-supportsInterface}."
      }
    },
    "version": 1
  },
  "userdoc": {
    "kind": "user",
    "methods": {
      "constructor": {
        "notice": "Initializes the Redeemer contract"
      },
      "dstableAmountToBaseValue(uint256)": {
        "notice": "Converts an amount of dStable tokens to its equivalent base value"
      },
      "redeem(uint256,address,uint256)": {
        "notice": "Redeems dStable tokens for collateral from the caller"
      },
      "setBaseCurrencyUnit(uint256)": {
        "notice": "Updates the base currency unit used for price calculations"
      },
      "setCollateralVault(address)": {
        "notice": "Sets the collateral vault address"
      },
      "setOracle(address)": {
        "notice": "Sets the oracle to use for collateral valuation"
      }
    },
    "version": 1
  },
  "storageLayout": {
    "storage": [
      {
        "astId": 2521,
        "contract": "contracts/dstable/Redeemer.sol:Redeemer",
        "label": "_roles",
        "offset": 0,
        "slot": "0",
        "type": "t_mapping(t_bytes32,t_struct(RoleData)2516_storage)"
      },
      {
        "astId": 15108,
        "contract": "contracts/dstable/Redeemer.sol:Redeemer",
        "label": "oracle",
        "offset": 0,
        "slot": "1",
        "type": "t_contract(IPriceOracleGetter)12694"
      },
      {
        "astId": 15110,
        "contract": "contracts/dstable/Redeemer.sol:Redeemer",
        "label": "baseCurrencyUnit",
        "offset": 0,
        "slot": "2",
        "type": "t_uint256"
      },
      {
        "astId": 15204,
        "contract": "contracts/dstable/Redeemer.sol:Redeemer",
        "label": "dstable",
        "offset": 0,
        "slot": "3",
        "type": "t_contract(IMintableERC20)12724"
      },
      {
        "astId": 15209,
        "contract": "contracts/dstable/Redeemer.sol:Redeemer",
        "label": "collateralVault",
        "offset": 0,
        "slot": "4",
        "type": "t_contract(CollateralVault)14556"
      }
    ],
    "types": {
      "t_address": {
        "encoding": "inplace",
        "label": "address",
        "numberOfBytes": "20"
      },
      "t_bool": {
        "encoding": "inplace",
        "label": "bool",
        "numberOfBytes": "1"
      },
      "t_bytes32": {
        "encoding": "inplace",
        "label": "bytes32",
        "numberOfBytes": "32"
      },
      "t_contract(CollateralVault)14556": {
        "encoding": "inplace",
        "label": "contract CollateralVault",
        "numberOfBytes": "20"
      },
      "t_contract(IMintableERC20)12724": {
        "encoding": "inplace",
        "label": "contract IMintableERC20",
        "numberOfBytes": "20"
      },
      "t_contract(IPriceOracleGetter)12694": {
        "encoding": "inplace",
        "label": "contract IPriceOracleGetter",
        "numberOfBytes": "20"
      },
      "t_mapping(t_address,t_bool)": {
        "encoding": "mapping",
        "key": "t_address",
        "label": "mapping(address => bool)",
        "numberOfBytes": "32",
        "value": "t_bool"
      },
      "t_mapping(t_bytes32,t_struct(RoleData)2516_storage)": {
        "encoding": "mapping",
        "key": "t_bytes32",
        "label": "mapping(bytes32 => struct AccessControl.RoleData)",
        "numberOfBytes": "32",
        "value": "t_struct(RoleData)2516_storage"
      },
      "t_struct(RoleData)2516_storage": {
        "encoding": "inplace",
        "label": "struct AccessControl.RoleData",
        "members": [
          {
            "astId": 2513,
            "contract": "contracts/dstable/Redeemer.sol:Redeemer",
            "label": "hasRole",
            "offset": 0,
            "slot": "0",
            "type": "t_mapping(t_address,t_bool)"
          },
          {
            "astId": 2515,
            "contract": "contracts/dstable/Redeemer.sol:Redeemer",
            "label": "adminRole",
            "offset": 0,
            "slot": "1",
            "type": "t_bytes32"
          }
        ],
        "numberOfBytes": "64"
      },
      "t_uint256": {
        "encoding": "inplace",
        "label": "uint256",
        "numberOfBytes": "32"
      }
    }
  }
}