{
  "address": "0xd3b2e8B93dC582e7DbA1c30c5248301f28bAc541",
  "abi": [
    {
      "inputs": [
        {
          "internalType": "address",
          "name": "_collateralVault",
          "type": "address"
        },
        {
          "internalType": "address",
          "name": "_dstable",
          "type": "address"
        },
        {
          "internalType": "contract IPriceOracleGetter",
          "name": "oracle",
          "type": "address"
        },
        {
          "internalType": "address",
          "name": "_amoManager",
          "type": "address"
        }
      ],
      "stateMutability": "nonpayable",
      "type": "constructor"
    },
    {
      "inputs": [],
      "name": "AccessControlBadConfirmation",
      "type": "error"
    },
    {
      "inputs": [
        {
          "internalType": "address",
          "name": "account",
          "type": "address"
        },
        {
          "internalType": "bytes32",
          "name": "neededRole",
          "type": "bytes32"
        }
      ],
      "name": "AccessControlUnauthorizedAccount",
      "type": "error"
    },
    {
      "inputs": [
        {
          "internalType": "uint256",
          "name": "baseCurrencyUnit",
          "type": "uint256"
        }
      ],
      "name": "IncorrectBaseCurrencyUnit",
      "type": "error"
    },
    {
      "inputs": [
        {
          "internalType": "uint256",
          "name": "collateralInDstable",
          "type": "uint256"
        },
        {
          "internalType": "uint256",
          "name": "circulatingDstable",
          "type": "uint256"
        }
      ],
      "name": "IssuanceSurpassesExcessCollateral",
      "type": "error"
    },
    {
      "inputs": [
        {
          "internalType": "uint256",
          "name": "circulatingDstableBefore",
          "type": "uint256"
        },
        {
          "internalType": "uint256",
          "name": "circulatingDstableAfter",
          "type": "uint256"
        }
      ],
      "name": "MintingToAmoShouldNotIncreaseSupply",
      "type": "error"
    },
    {
      "inputs": [
        {
          "internalType": "address",
          "name": "token",
          "type": "address"
        }
      ],
      "name": "SafeERC20FailedOperation",
      "type": "error"
    },
    {
      "inputs": [
        {
          "internalType": "uint256",
          "name": "minDStable",
          "type": "uint256"
        },
        {
          "internalType": "uint256",
          "name": "dstableAmount",
          "type": "uint256"
        }
      ],
      "name": "SlippageTooHigh",
      "type": "error"
    },
    {
      "anonymous": false,
      "inputs": [
        {
          "indexed": true,
          "internalType": "address",
          "name": "amoManager",
          "type": "address"
        }
      ],
      "name": "AmoManagerSet",
      "type": "event"
    },
    {
      "anonymous": false,
      "inputs": [
        {
          "indexed": true,
          "internalType": "address",
          "name": "collateralVault",
          "type": "address"
        }
      ],
      "name": "CollateralVaultSet",
      "type": "event"
    },
    {
      "anonymous": false,
      "inputs": [
        {
          "indexed": true,
          "internalType": "address",
          "name": "newOracle",
          "type": "address"
        }
      ],
      "name": "OracleSet",
      "type": "event"
    },
    {
      "anonymous": false,
      "inputs": [
        {
          "indexed": true,
          "internalType": "bytes32",
          "name": "role",
          "type": "bytes32"
        },
        {
          "indexed": true,
          "internalType": "bytes32",
          "name": "previousAdminRole",
          "type": "bytes32"
        },
        {
          "indexed": true,
          "internalType": "bytes32",
          "name": "newAdminRole",
          "type": "bytes32"
        }
      ],
      "name": "RoleAdminChanged",
      "type": "event"
    },
    {
      "anonymous": false,
      "inputs": [
        {
          "indexed": true,
          "internalType": "bytes32",
          "name": "role",
          "type": "bytes32"
        },
        {
          "indexed": true,
          "internalType": "address",
          "name": "account",
          "type": "address"
        },
        {
          "indexed": true,
          "internalType": "address",
          "name": "sender",
          "type": "address"
        }
      ],
      "name": "RoleGranted",
      "type": "event"
    },
    {
      "anonymous": false,
      "inputs": [
        {
          "indexed": true,
          "internalType": "bytes32",
          "name": "role",
          "type": "bytes32"
        },
        {
          "indexed": true,
          "internalType": "address",
          "name": "account",
          "type": "address"
        },
        {
          "indexed": true,
          "internalType": "address",
          "name": "sender",
          "type": "address"
        }
      ],
      "name": "RoleRevoked",
      "type": "event"
    },
    {
      "inputs": [],
      "name": "AMO_MANAGER_ROLE",
      "outputs": [
        {
          "internalType": "bytes32",
          "name": "",
          "type": "bytes32"
        }
      ],
      "stateMutability": "view",
      "type": "function"
    },
    {
      "inputs": [],
      "name": "BASE_UNIT",
      "outputs": [
        {
          "internalType": "uint256",
          "name": "",
          "type": "uint256"
        }
      ],
      "stateMutability": "view",
      "type": "function"
    },
    {
      "inputs": [],
      "name": "DEFAULT_ADMIN_ROLE",
      "outputs": [
        {
          "internalType": "bytes32",
          "name": "",
          "type": "bytes32"
        }
      ],
      "stateMutability": "view",
      "type": "function"
    },
    {
      "inputs": [],
      "name": "INCENTIVES_MANAGER_ROLE",
      "outputs": [
        {
          "internalType": "bytes32",
          "name": "",
          "type": "bytes32"
        }
      ],
      "stateMutability": "view",
      "type": "function"
    },
    {
      "inputs": [],
      "name": "amoManager",
      "outputs": [
        {
          "internalType": "contract AmoManager",
          "name": "",
          "type": "address"
        }
      ],
      "stateMutability": "view",
      "type": "function"
    },
    {
      "inputs": [],
      "name": "baseCurrencyUnit",
      "outputs": [
        {
          "internalType": "uint256",
          "name": "",
          "type": "uint256"
        }
      ],
      "stateMutability": "view",
      "type": "function"
    },
    {
      "inputs": [
        {
          "internalType": "uint256",
          "name": "baseValue",
          "type": "uint256"
        }
      ],
      "name": "baseValueToDstableAmount",
      "outputs": [
        {
          "internalType": "uint256",
          "name": "",
          "type": "uint256"
        }
      ],
      "stateMutability": "view",
      "type": "function"
    },
    {
      "inputs": [],
      "name": "circulatingDstable",
      "outputs": [
        {
          "internalType": "uint256",
          "name": "",
          "type": "uint256"
        }
      ],
      "stateMutability": "view",
      "type": "function"
    },
    {
      "inputs": [],
      "name": "collateralInDstable",
      "outputs": [
        {
          "internalType": "uint256",
          "name": "",
          "type": "uint256"
        }
      ],
      "stateMutability": "view",
      "type": "function"
    },
    {
      "inputs": [],
      "name": "collateralVault",
      "outputs": [
        {
          "internalType": "contract CollateralVault",
          "name": "",
          "type": "address"
        }
      ],
      "stateMutability": "view",
      "type": "function"
    },
    {
      "inputs": [],
      "name": "dstable",
      "outputs": [
        {
          "internalType": "contract IMintableERC20",
          "name": "",
          "type": "address"
        }
      ],
      "stateMutability": "view",
      "type": "function"
    },
    {
      "inputs": [],
      "name": "dstableDecimals",
      "outputs": [
        {
          "internalType": "uint8",
          "name": "",
          "type": "uint8"
        }
      ],
      "stateMutability": "view",
      "type": "function"
    },
    {
      "inputs": [
        {
          "internalType": "bytes32",
          "name": "role",
          "type": "bytes32"
        }
      ],
      "name": "getRoleAdmin",
      "outputs": [
        {
          "internalType": "bytes32",
          "name": "",
          "type": "bytes32"
        }
      ],
      "stateMutability": "view",
      "type": "function"
    },
    {
      "inputs": [
        {
          "internalType": "bytes32",
          "name": "role",
          "type": "bytes32"
        },
        {
          "internalType": "address",
          "name": "account",
          "type": "address"
        }
      ],
      "name": "grantRole",
      "outputs": [],
      "stateMutability": "nonpayable",
      "type": "function"
    },
    {
      "inputs": [
        {
          "internalType": "bytes32",
          "name": "role",
          "type": "bytes32"
        },
        {
          "internalType": "address",
          "name": "account",
          "type": "address"
        }
      ],
      "name": "hasRole",
      "outputs": [
        {
          "internalType": "bool",
          "name": "",
          "type": "bool"
        }
      ],
      "stateMutability": "view",
      "type": "function"
    },
    {
      "inputs": [
        {
          "internalType": "uint256",
          "name": "dstableAmount",
          "type": "uint256"
        }
      ],
      "name": "increaseAmoSupply",
      "outputs": [],
      "stateMutability": "nonpayable",
      "type": "function"
    },
    {
      "inputs": [
        {
          "internalType": "uint256",
          "name": "collateralAmount",
          "type": "uint256"
        },
        {
          "internalType": "address",
          "name": "collateralAsset",
          "type": "address"
        },
        {
          "internalType": "uint256",
          "name": "minDStable",
          "type": "uint256"
        }
      ],
      "name": "issue",
      "outputs": [],
      "stateMutability": "nonpayable",
      "type": "function"
    },
    {
      "inputs": [
        {
          "internalType": "address",
          "name": "receiver",
          "type": "address"
        },
        {
          "internalType": "uint256",
          "name": "dstableAmount",
          "type": "uint256"
        }
      ],
      "name": "issueUsingExcessCollateral",
      "outputs": [],
      "stateMutability": "nonpayable",
      "type": "function"
    },
    {
      "inputs": [],
      "name": "oracle",
      "outputs": [
        {
          "internalType": "contract IPriceOracleGetter",
          "name": "",
          "type": "address"
        }
      ],
      "stateMutability": "view",
      "type": "function"
    },
    {
      "inputs": [
        {
          "internalType": "bytes32",
          "name": "role",
          "type": "bytes32"
        },
        {
          "internalType": "address",
          "name": "callerConfirmation",
          "type": "address"
        }
      ],
      "name": "renounceRole",
      "outputs": [],
      "stateMutability": "nonpayable",
      "type": "function"
    },
    {
      "inputs": [
        {
          "internalType": "bytes32",
          "name": "role",
          "type": "bytes32"
        },
        {
          "internalType": "address",
          "name": "account",
          "type": "address"
        }
      ],
      "name": "revokeRole",
      "outputs": [],
      "stateMutability": "nonpayable",
      "type": "function"
    },
    {
      "inputs": [
        {
          "internalType": "address",
          "name": "_amoManager",
          "type": "address"
        }
      ],
      "name": "setAmoManager",
      "outputs": [],
      "stateMutability": "nonpayable",
      "type": "function"
    },
    {
      "inputs": [
        {
          "internalType": "uint256",
          "name": "_newBaseCurrencyUnit",
          "type": "uint256"
        }
      ],
      "name": "setBaseCurrencyUnit",
      "outputs": [],
      "stateMutability": "nonpayable",
      "type": "function"
    },
    {
      "inputs": [
        {
          "internalType": "address",
          "name": "_collateralVault",
          "type": "address"
        }
      ],
      "name": "setCollateralVault",
      "outputs": [],
      "stateMutability": "nonpayable",
      "type": "function"
    },
    {
      "inputs": [
        {
          "internalType": "contract IPriceOracleGetter",
          "name": "newOracle",
          "type": "address"
        }
      ],
      "name": "setOracle",
      "outputs": [],
      "stateMutability": "nonpayable",
      "type": "function"
    },
    {
      "inputs": [
        {
          "internalType": "bytes4",
          "name": "interfaceId",
          "type": "bytes4"
        }
      ],
      "name": "supportsInterface",
      "outputs": [
        {
          "internalType": "bool",
          "name": "",
          "type": "bool"
        }
      ],
      "stateMutability": "view",
      "type": "function"
    }
  ],
  "transactionHash": "0x4caad06e6f989a7197aaa9f313c8861a51f587e2368e084379187f7b8767b7fd",
  "args": [
    "0xF908A56BE260B41A0F159cdc1fbe216Deee35056",
    "0x4C40dCD78BF88FC5676C992e409853404412F415",
    "0xfA7b210A3EFd3fAe178bFa3E7200f76578684f21",
    "0x1B65B842C5B66C5B316322B2796e521659Ca7b32"
  ],
  "numDeployments": 1,
  "solcInputHash": "601a421431a4d1b98bcec471579cced1",
  "bytecode": "0x60c06040523480156200001157600080fd5b506040516200269038038062002690833981810160405281019062000037919062000601565b816305f5e10063ffffffff1681600160006101000a81548173ffffffffffffffffffffffffffffffffffffffff021916908373ffffffffffffffffffffffffffffffffffffffff16021790555080600281905550620000a06000801b336200030460201b60201c565b50505083600460006101000a81548173ffffffffffffffffffffffffffffffffffffffff021916908373ffffffffffffffffffffffffffffffffffffffff16021790555082600360006101000a81548173ffffffffffffffffffffffffffffffffffffffff021916908373ffffffffffffffffffffffffffffffffffffffff160217905550600360009054906101000a900473ffffffffffffffffffffffffffffffffffffffff1673ffffffffffffffffffffffffffffffffffffffff1663313ce5676040518163ffffffff1660e01b8152600401602060405180830381865afa15801562000193573d6000803e3d6000fd5b505050506040513d601f19601f82011682018060405250810190620001b99190620006b1565b60ff1660808160ff168152505080600560006101000a81548173ffffffffffffffffffffffffffffffffffffffff021916908373ffffffffffffffffffffffffffffffffffffffff1602179055508173ffffffffffffffffffffffffffffffffffffffff16638c89b64f6040518163ffffffff1660e01b8152600401602060405180830381865afa15801562000253573d6000803e3d6000fd5b505050506040513d601f19601f820116820180604052508101906200027991906200071e565b60a08181525050620002956000801b336200030460201b60201c565b50620002c87fbc4aa291e35c786eceb374be398429586e466107044903c4dff7a8687a530070336200040760201b60201c565b620002fa7f5e1c59076ed40a2f2d7578e32a78795e357500600174cc5627a8953d15511722336200040760201b60201c565b50505050620007a9565b60006200031883836200044160201b60201c565b620003fc57600160008085815260200190815260200160002060000160008473ffffffffffffffffffffffffffffffffffffffff1673ffffffffffffffffffffffffffffffffffffffff16815260200190815260200160002060006101000a81548160ff02191690831515021790555062000398620004ab60201b60201c565b73ffffffffffffffffffffffffffffffffffffffff168273ffffffffffffffffffffffffffffffffffffffff16847f2f8788117e7eff1d82e926ec794901d17c78024a50270940304540a733656f0d60405160405180910390a46001905062000401565b600090505b92915050565b6200041882620004b360201b60201c565b6200042981620004d260201b60201c565b6200043b83836200030460201b60201c565b50505050565b600080600084815260200190815260200160002060000160008373ffffffffffffffffffffffffffffffffffffffff1673ffffffffffffffffffffffffffffffffffffffff16815260200190815260200160002060009054906101000a900460ff16905092915050565b600033905090565b6000806000838152602001908152602001600020600101549050919050565b620004f381620004e7620004ab60201b60201c565b620004f660201b60201c565b50565b6200050882826200044160201b60201c565b6200054e5780826040517fe2517d3f000000000000000000000000000000000000000000000000000000008152600401620005459291906200077c565b60405180910390fd5b5050565b600080fd5b600073ffffffffffffffffffffffffffffffffffffffff82169050919050565b6000620005848262000557565b9050919050565b620005968162000577565b8114620005a257600080fd5b50565b600081519050620005b6816200058b565b92915050565b6000620005c98262000577565b9050919050565b620005db81620005bc565b8114620005e757600080fd5b50565b600081519050620005fb81620005d0565b92915050565b600080600080608085870312156200061e576200061d62000552565b5b60006200062e87828801620005a5565b94505060206200064187828801620005a5565b93505060406200065487828801620005ea565b92505060606200066787828801620005a5565b91505092959194509250565b600060ff82169050919050565b6200068b8162000673565b81146200069757600080fd5b50565b600081519050620006ab8162000680565b92915050565b600060208284031215620006ca57620006c962000552565b5b6000620006da848285016200069a565b91505092915050565b6000819050919050565b620006f881620006e3565b81146200070457600080fd5b50565b6000815190506200071881620006ed565b92915050565b60006020828403121562000737576200073662000552565b5b6000620007478482850162000707565b91505092915050565b6200075b8162000577565b82525050565b6000819050919050565b620007768162000761565b82525050565b600060408201905062000793600083018562000750565b620007a260208301846200076b565b9392505050565b60805160a051611eb3620007dd600039600081816105750152610fea0152600081816106f6015261100b0152611eb36000f3fe608060405234801561001057600080fd5b506004361061018e5760003560e01c806368a806c4116100de5780639d4cc8d311610097578063d54bc55e11610071578063d54bc55e1461044b578063e797c5891461047b578063f3bddde114610497578063f817f7d0146104b55761018e565b80639d4cc8d3146103f5578063a217fddf14610411578063d547741f1461042f5761018e565b806368a806c4146103335780637adbf9731461034f5780637dc0d1d01461036b57806391d148541461038957806397fe30ef146103b95780639866f320146103d75761018e565b80632abcdf681161014b57806336568abe1161012557806336568abe146102c15780633ffa884c146102dd5780634a0bbabb146102f95780635b8862dc146103155761018e565b80632abcdf681461026b5780632f2ff15d1461028757806330975247146102a35761018e565b806301ffc9a7146101935780630bece79c146101c35780630e962f00146101e157806311c71b3b146101ff578063248a9ca31461021d578063266639111461024d575b600080fd5b6101ad60048036038101906101a891906115d8565b6104d3565b6040516101ba9190611620565b60405180910390f35b6101cb61054d565b6040516101d891906116ba565b60405180910390f35b6101e9610573565b6040516101f691906116ee565b60405180910390f35b610207610597565b60405161021491906116ee565b60405180910390f35b6102376004803603810190610232919061173f565b6106d5565b604051610244919061177b565b60405180910390f35b6102556106f4565b60405161026291906117b2565b60405180910390f35b610285600480360381019061028091906117f9565b610718565b005b6102a1600480360381019061029c9190611864565b610857565b005b6102ab610879565b6040516102b891906116ee565b60405180910390f35b6102db60048036038101906102d69190611864565b61091e565b005b6102f760048036038101906102f291906118a4565b610999565b005b610313600480360381019061030e91906117f9565b610c08565b005b61031d610c20565b60405161032a919061177b565b60405180910390f35b61034d600480360381019061034891906118f7565b610c44565b005b61036960048036038101906103649190611962565b610cd9565b005b610373610e24565b60405161038091906119b0565b60405180910390f35b6103a3600480360381019061039e9190611864565b610e4a565b6040516103b09190611620565b60405180910390f35b6103c1610eb4565b6040516103ce91906119ec565b60405180910390f35b6103df610eda565b6040516103ec919061177b565b60405180910390f35b61040f600480360381019061040a91906118f7565b610efe565b005b610419610fbd565b604051610426919061177b565b60405180910390f35b61044960048036038101906104449190611864565b610fc4565b005b610465600480360381019061046091906117f9565b610fe6565b60405161047291906116ee565b60405180910390f35b61049560048036038101906104909190611a07565b611052565b005b61049f611171565b6040516104ac91906116ee565b60405180910390f35b6104bd611177565b6040516104ca9190611a68565b60405180910390f35b60007f7965db0b000000000000000000000000000000000000000000000000000000007bffffffffffffffffffffffffffffffffffffffffffffffffffffffff1916827bffffffffffffffffffffffffffffffffffffffffffffffffffffffff1916148061054657506105458261119d565b5b9050919050565b600460009054906101000a900473ffffffffffffffffffffffffffffffffffffffff1681565b7f000000000000000000000000000000000000000000000000000000000000000081565b600080600360009054906101000a900473ffffffffffffffffffffffffffffffffffffffff1673ffffffffffffffffffffffffffffffffffffffff166318160ddd6040518163ffffffff1660e01b8152600401602060405180830381865afa158015610607573d6000803e3d6000fd5b505050506040513d601f19601f8201168201806040525081019061062b9190611a98565b90506000600560009054906101000a900473ffffffffffffffffffffffffffffffffffffffff1673ffffffffffffffffffffffffffffffffffffffff1663773df1516040518163ffffffff1660e01b8152600401602060405180830381865afa15801561069c573d6000803e3d6000fd5b505050506040513d601f19601f820116820180604052508101906106c09190611a98565b905080826106ce9190611af4565b9250505090565b6000806000838152602001908152602001600020600101549050919050565b7f000000000000000000000000000000000000000000000000000000000000000081565b7fbc4aa291e35c786eceb374be398429586e466107044903c4dff7a8687a53007061074281611207565b600061074c610597565b9050600360009054906101000a900473ffffffffffffffffffffffffffffffffffffffff1673ffffffffffffffffffffffffffffffffffffffff166340c10f19600560009054906101000a900473ffffffffffffffffffffffffffffffffffffffff16856040518363ffffffff1660e01b81526004016107cd929190611b37565b600060405180830381600087803b1580156107e757600080fd5b505af11580156107fb573d6000803e3d6000fd5b505050506000610809610597565b90508181146108515781816040517fd4f41b3c000000000000000000000000000000000000000000000000000000008152600401610848929190611b60565b60405180910390fd5b50505050565b610860826106d5565b61086981611207565b610873838361121b565b50505050565b600080600460009054906101000a900473ffffffffffffffffffffffffffffffffffffffff1673ffffffffffffffffffffffffffffffffffffffff1663d4c3eea06040518163ffffffff1660e01b8152600401602060405180830381865afa1580156108e9573d6000803e3d6000fd5b505050506040513d601f19601f8201168201806040525081019061090d9190611a98565b905061091881610fe6565b91505090565b61092661130c565b73ffffffffffffffffffffffffffffffffffffffff168173ffffffffffffffffffffffffffffffffffffffff161461098a576040517f6697b23200000000000000000000000000000000000000000000000000000000815260040160405180910390fd5b6109948282611314565b505050565b60008273ffffffffffffffffffffffffffffffffffffffff1663313ce5676040518163ffffffff1660e01b8152600401602060405180830381865afa1580156109e6573d6000803e3d6000fd5b505050506040513d601f19601f82011682018060405250810190610a0a9190611bb5565b9050600081600a610a1b9190611d15565b85600160009054906101000a900473ffffffffffffffffffffffffffffffffffffffff1673ffffffffffffffffffffffffffffffffffffffff1663b3596f07876040518263ffffffff1660e01b8152600401610a779190611d60565b602060405180830381865afa158015610a94573d6000803e3d6000fd5b505050506040513d601f19601f82011682018060405250810190610ab89190611a98565b610ac29190611d7b565b610acc9190611dec565b90506000610ad982610fe6565b905083811015610b225783816040517f76baadda000000000000000000000000000000000000000000000000000000008152600401610b19929190611b60565b60405180910390fd5b610b7133600460009054906101000a900473ffffffffffffffffffffffffffffffffffffffff16888873ffffffffffffffffffffffffffffffffffffffff16611406909392919063ffffffff16565b600360009054906101000a900473ffffffffffffffffffffffffffffffffffffffff1673ffffffffffffffffffffffffffffffffffffffff166340c10f1933836040518363ffffffff1660e01b8152600401610bce929190611b37565b600060405180830381600087803b158015610be857600080fd5b505af1158015610bfc573d6000803e3d6000fd5b50505050505050505050565b6000801b610c1581611207565b816002819055505050565b7fbc4aa291e35c786eceb374be398429586e466107044903c4dff7a8687a53007081565b6000801b610c5181611207565b81600460006101000a81548173ffffffffffffffffffffffffffffffffffffffff021916908373ffffffffffffffffffffffffffffffffffffffff1602179055508173ffffffffffffffffffffffffffffffffffffffff167fc92ec24b34ad9d3aa14cd5be87b888d7790d40903da5f44c6367b2fb6cdb208360405160405180910390a25050565b6000801b610ce681611207565b6002548273ffffffffffffffffffffffffffffffffffffffff16638c89b64f6040518163ffffffff1660e01b8152600401602060405180830381865afa158015610d34573d6000803e3d6000fd5b505050506040513d601f19601f82011682018060405250810190610d589190611a98565b14610d9c576002546040517f9b6812b9000000000000000000000000000000000000000000000000000000008152600401610d9391906116ee565b60405180910390fd5b81600160006101000a81548173ffffffffffffffffffffffffffffffffffffffff021916908373ffffffffffffffffffffffffffffffffffffffff1602179055508173ffffffffffffffffffffffffffffffffffffffff167f3f32684a32a11dabdbb8c0177de80aa3ae36a004d75210335b49e544e48cd0aa60405160405180910390a25050565b600160009054906101000a900473ffffffffffffffffffffffffffffffffffffffff1681565b600080600084815260200190815260200160002060000160008373ffffffffffffffffffffffffffffffffffffffff1673ffffffffffffffffffffffffffffffffffffffff16815260200190815260200160002060009054906101000a900460ff16905092915050565b600360009054906101000a900473ffffffffffffffffffffffffffffffffffffffff1681565b7f5e1c59076ed40a2f2d7578e32a78795e357500600174cc5627a8953d1551172281565b6000801b610f0b81611207565b81600560006101000a81548173ffffffffffffffffffffffffffffffffffffffff021916908373ffffffffffffffffffffffffffffffffffffffff160217905550610f767fbc4aa291e35c786eceb374be398429586e466107044903c4dff7a8687a53007083610857565b8173ffffffffffffffffffffffffffffffffffffffff167fc1ed2a2e76938d5535836b1406331936bd2440c622b1314c8459f98a5065577b60405160405180910390a25050565b6000801b81565b610fcd826106d5565b610fd681611207565b610fe08383611314565b50505050565b60007f00000000000000000000000000000000000000000000000000000000000000007f0000000000000000000000000000000000000000000000000000000000000000600a6110369190611d15565b836110419190611d7b565b61104b9190611dec565b9050919050565b7f5e1c59076ed40a2f2d7578e32a78795e357500600174cc5627a8953d1551172261107c81611207565b600360009054906101000a900473ffffffffffffffffffffffffffffffffffffffff1673ffffffffffffffffffffffffffffffffffffffff166340c10f1984846040518363ffffffff1660e01b81526004016110d9929190611b37565b600060405180830381600087803b1580156110f357600080fd5b505af1158015611107573d6000803e3d6000fd5b505050506000611115610597565b90506000611121610879565b90508181101561116a5780826040517f79f1a2a7000000000000000000000000000000000000000000000000000000008152600401611161929190611b60565b60405180910390fd5b5050505050565b60025481565b600560009054906101000a900473ffffffffffffffffffffffffffffffffffffffff1681565b60007f01ffc9a7000000000000000000000000000000000000000000000000000000007bffffffffffffffffffffffffffffffffffffffffffffffffffffffff1916827bffffffffffffffffffffffffffffffffffffffffffffffffffffffff1916149050919050565b6112188161121361130c565b611488565b50565b60006112278383610e4a565b61130157600160008085815260200190815260200160002060000160008473ffffffffffffffffffffffffffffffffffffffff1673ffffffffffffffffffffffffffffffffffffffff16815260200190815260200160002060006101000a81548160ff02191690831515021790555061129e61130c565b73ffffffffffffffffffffffffffffffffffffffff168273ffffffffffffffffffffffffffffffffffffffff16847f2f8788117e7eff1d82e926ec794901d17c78024a50270940304540a733656f0d60405160405180910390a460019050611306565b600090505b92915050565b600033905090565b60006113208383610e4a565b156113fb57600080600085815260200190815260200160002060000160008473ffffffffffffffffffffffffffffffffffffffff1673ffffffffffffffffffffffffffffffffffffffff16815260200190815260200160002060006101000a81548160ff02191690831515021790555061139861130c565b73ffffffffffffffffffffffffffffffffffffffff168273ffffffffffffffffffffffffffffffffffffffff16847ff6391f5c32d9c69d2a47ea670b442974b53935d1edc7fd64eb21e047a839171b60405160405180910390a460019050611400565b600090505b92915050565b611482848573ffffffffffffffffffffffffffffffffffffffff166323b872dd86868660405160240161143b93929190611e1d565b604051602081830303815290604052915060e01b6020820180517bffffffffffffffffffffffffffffffffffffffffffffffffffffffff83818316178352505050506114d9565b50505050565b6114928282610e4a565b6114d55780826040517fe2517d3f0000000000000000000000000000000000000000000000000000000081526004016114cc929190611e54565b60405180910390fd5b5050565b600080602060008451602086016000885af1806114fc576040513d6000823e3d81fd5b3d925060005191505060008214611517576001811415611533565b60008473ffffffffffffffffffffffffffffffffffffffff163b145b1561157557836040517f5274afe700000000000000000000000000000000000000000000000000000000815260040161156c9190611d60565b60405180910390fd5b50505050565b600080fd5b60007fffffffff0000000000000000000000000000000000000000000000000000000082169050919050565b6115b581611580565b81146115c057600080fd5b50565b6000813590506115d2816115ac565b92915050565b6000602082840312156115ee576115ed61157b565b5b60006115fc848285016115c3565b91505092915050565b60008115159050919050565b61161a81611605565b82525050565b60006020820190506116356000830184611611565b92915050565b600073ffffffffffffffffffffffffffffffffffffffff82169050919050565b6000819050919050565b600061168061167b6116768461163b565b61165b565b61163b565b9050919050565b600061169282611665565b9050919050565b60006116a482611687565b9050919050565b6116b481611699565b82525050565b60006020820190506116cf60008301846116ab565b92915050565b6000819050919050565b6116e8816116d5565b82525050565b600060208201905061170360008301846116df565b92915050565b6000819050919050565b61171c81611709565b811461172757600080fd5b50565b60008135905061173981611713565b92915050565b6000602082840312156117555761175461157b565b5b60006117638482850161172a565b91505092915050565b61177581611709565b82525050565b6000602082019050611790600083018461176c565b92915050565b600060ff82169050919050565b6117ac81611796565b82525050565b60006020820190506117c760008301846117a3565b92915050565b6117d6816116d5565b81146117e157600080fd5b50565b6000813590506117f3816117cd565b92915050565b60006020828403121561180f5761180e61157b565b5b600061181d848285016117e4565b91505092915050565b60006118318261163b565b9050919050565b61184181611826565b811461184c57600080fd5b50565b60008135905061185e81611838565b92915050565b6000806040838503121561187b5761187a61157b565b5b60006118898582860161172a565b925050602061189a8582860161184f565b9150509250929050565b6000806000606084860312156118bd576118bc61157b565b5b60006118cb868287016117e4565b93505060206118dc8682870161184f565b92505060406118ed868287016117e4565b9150509250925092565b60006020828403121561190d5761190c61157b565b5b600061191b8482850161184f565b91505092915050565b600061192f82611826565b9050919050565b61193f81611924565b811461194a57600080fd5b50565b60008135905061195c81611936565b92915050565b6000602082840312156119785761197761157b565b5b60006119868482850161194d565b91505092915050565b600061199a82611687565b9050919050565b6119aa8161198f565b82525050565b60006020820190506119c560008301846119a1565b92915050565b60006119d682611687565b9050919050565b6119e6816119cb565b82525050565b6000602082019050611a0160008301846119dd565b92915050565b60008060408385031215611a1e57611a1d61157b565b5b6000611a2c8582860161184f565b9250506020611a3d858286016117e4565b9150509250929050565b6000611a5282611687565b9050919050565b611a6281611a47565b82525050565b6000602082019050611a7d6000830184611a59565b92915050565b600081519050611a92816117cd565b92915050565b600060208284031215611aae57611aad61157b565b5b6000611abc84828501611a83565b91505092915050565b7f4e487b7100000000000000000000000000000000000000000000000000000000600052601160045260246000fd5b6000611aff826116d5565b9150611b0a836116d5565b9250828203905081811115611b2257611b21611ac5565b5b92915050565b611b3181611826565b82525050565b6000604082019050611b4c6000830185611b28565b611b5960208301846116df565b9392505050565b6000604082019050611b7560008301856116df565b611b8260208301846116df565b9392505050565b611b9281611796565b8114611b9d57600080fd5b50565b600081519050611baf81611b89565b92915050565b600060208284031215611bcb57611bca61157b565b5b6000611bd984828501611ba0565b91505092915050565b60008160011c9050919050565b6000808291508390505b6001851115611c3957808604811115611c1557611c14611ac5565b5b6001851615611c245780820291505b8081029050611c3285611be2565b9450611bf9565b94509492505050565b600082611c525760019050611d0e565b81611c605760009050611d0e565b8160018114611c765760028114611c8057611caf565b6001915050611d0e565b60ff841115611c9257611c91611ac5565b5b8360020a915084821115611ca957611ca8611ac5565b5b50611d0e565b5060208310610133831016604e8410600b8410161715611ce45782820a905083811115611cdf57611cde611ac5565b5b611d0e565b611cf18484846001611bef565b92509050818404811115611d0857611d07611ac5565b5b81810290505b9392505050565b6000611d20826116d5565b9150611d2b83611796565b9250611d587fffffffffffffffffffffffffffffffffffffffffffffffffffffffffffffffff8484611c42565b905092915050565b6000602082019050611d756000830184611b28565b92915050565b6000611d86826116d5565b9150611d91836116d5565b9250828202611d9f816116d5565b91508282048414831517611db657611db5611ac5565b5b5092915050565b7f4e487b7100000000000000000000000000000000000000000000000000000000600052601260045260246000fd5b6000611df7826116d5565b9150611e02836116d5565b925082611e1257611e11611dbd565b5b828204905092915050565b6000606082019050611e326000830186611b28565b611e3f6020830185611b28565b611e4c60408301846116df565b949350505050565b6000604082019050611e696000830185611b28565b611e76602083018461176c565b939250505056fea2646970667358221220528eaa6ce67d9effe426776c9eed88af1f444c9013ef739728ba3c6fd4e94a0764736f6c63430008140033",
  "devdoc": {
    "errors": {
      "AccessControlBadConfirmation()": [
        {
          "details": "The caller of a function is not the expected one. NOTE: Don't confuse with {AccessControlUnauthorizedAccount}."
        }
      ],
      "AccessControlUnauthorizedAccount(address,bytes32)": [
        {
          "details": "The `account` is missing a role."
        }
      ],
      "SafeERC20FailedOperation(address)": [
        {
          "details": "An operation with an ERC-20 token failed."
        }
      ]
    },
    "events": {
      "RoleAdminChanged(bytes32,bytes32,bytes32)": {
        "details": "Emitted when `newAdminRole` is set as ``role``'s admin role, replacing `previousAdminRole` `DEFAULT_ADMIN_ROLE` is the starting admin for all roles, despite {RoleAdminChanged} not being emitted signaling this."
      },
      "RoleGranted(bytes32,address,address)": {
        "details": "Emitted when `account` is granted `role`. `sender` is the account that originated the contract call. This account bears the admin role (for the granted role). Expected in cases where the role was granted using the internal {AccessControl-_grantRole}."
      },
      "RoleRevoked(bytes32,address,address)": {
        "details": "Emitted when `account` is revoked `role`. `sender` is the account that originated the contract call:   - if using `revokeRole`, it is the admin role bearer   - if using `renounceRole`, it is the role bearer (i.e. `account`)"
      }
    },
    "kind": "dev",
    "methods": {
      "baseValueToDstableAmount(uint256)": {
        "params": {
          "baseValue": "The amount of base value to convert"
        },
        "returns": {
          "_0": "The equivalent amount of dStable tokens"
        }
      },
      "circulatingDstable()": {
        "returns": {
          "_0": "The amount of dStable tokens that are not held by the AMO Manager"
        }
      },
      "collateralInDstable()": {
        "returns": {
          "_0": "The amount of dStable tokens equivalent to the collateral value"
        }
      },
      "constructor": {
        "params": {
          "_amoManager": "The address of the AMO Manager",
          "_collateralVault": "The address of the collateral vault",
          "_dstable": "The address of the dStable stablecoin",
          "oracle": "The address of the price oracle"
        }
      },
      "getRoleAdmin(bytes32)": {
        "details": "Returns the admin role that controls `role`. See {grantRole} and {revokeRole}. To change a role's admin, use {_setRoleAdmin}."
      },
      "grantRole(bytes32,address)": {
        "details": "Grants `role` to `account`. If `account` had not been already granted `role`, emits a {RoleGranted} event. Requirements: - the caller must have ``role``'s admin role. May emit a {RoleGranted} event."
      },
      "hasRole(bytes32,address)": {
        "details": "Returns `true` if `account` has been granted `role`."
      },
      "increaseAmoSupply(uint256)": {
        "params": {
          "dstableAmount": "The amount of dStable to mint and send to the AMO Manager"
        }
      },
      "issue(uint256,address,uint256)": {
        "params": {
          "collateralAmount": "The amount of collateral to deposit",
          "collateralAsset": "The address of the collateral asset",
          "minDStable": "The minimum amount of dStable to receive, used for slippage protection"
        }
      },
      "issueUsingExcessCollateral(address,uint256)": {
        "params": {
          "dstableAmount": "The amount of dStable to mint",
          "receiver": "The address to receive the minted dStable tokens"
        }
      },
      "renounceRole(bytes32,address)": {
        "details": "Revokes `role` from the calling account. Roles are often managed via {grantRole} and {revokeRole}: this function's purpose is to provide a mechanism for accounts to lose their privileges if they are compromised (such as when a trusted device is misplaced). If the calling account had been revoked `role`, emits a {RoleRevoked} event. Requirements: - the caller must be `callerConfirmation`. May emit a {RoleRevoked} event."
      },
      "revokeRole(bytes32,address)": {
        "details": "Revokes `role` from `account`. If `account` had been granted `role`, emits a {RoleRevoked} event. Requirements: - the caller must have ``role``'s admin role. May emit a {RoleRevoked} event."
      },
      "setAmoManager(address)": {
        "params": {
          "_amoManager": "The address of the AMO Manager"
        }
      },
      "setBaseCurrencyUnit(uint256)": {
        "details": "Only used if the oracle's base currency unit changes",
        "params": {
          "_newBaseCurrencyUnit": "The new base currency unit to set"
        }
      },
      "setCollateralVault(address)": {
        "params": {
          "_collateralVault": "The address of the collateral vault"
        }
      },
      "setOracle(address)": {
        "params": {
          "newOracle": "The new oracle to use"
        }
      },
      "supportsInterface(bytes4)": {
        "details": "See {IERC165-supportsInterface}."
      }
    },
    "title": "Issuer",
    "version": 1
  },
  "userdoc": {
    "kind": "user",
    "methods": {
      "baseValueToDstableAmount(uint256)": {
        "notice": "Converts a base value to an equivalent amount of dStable tokens"
      },
      "circulatingDstable()": {
        "notice": "Calculates the circulating supply of dStable tokens"
      },
      "collateralInDstable()": {
        "notice": "Calculates the collateral value in dStable tokens"
      },
      "constructor": {
        "notice": "Initializes the Issuer contract with core dependencies"
      },
      "increaseAmoSupply(uint256)": {
        "notice": "Increases the AMO supply by minting new dStable tokens"
      },
      "issue(uint256,address,uint256)": {
        "notice": "Issues dStable tokens in exchange for collateral from the caller"
      },
      "issueUsingExcessCollateral(address,uint256)": {
        "notice": "Issues dStable tokens using excess collateral in the system"
      },
      "setAmoManager(address)": {
        "notice": "Sets the AMO Manager address"
      },
      "setBaseCurrencyUnit(uint256)": {
        "notice": "Updates the base currency unit used for price calculations"
      },
      "setCollateralVault(address)": {
        "notice": "Sets the collateral vault address"
      },
      "setOracle(address)": {
        "notice": "Sets the oracle to use for collateral valuation"
      }
    },
    "notice": "Contract responsible for issuing dStable tokens",
    "version": 1
  },
  "storageLayout": {
    "storage": [
      {
        "astId": 2521,
        "contract": "contracts/dstable/Issuer.sol:Issuer",
        "label": "_roles",
        "offset": 0,
        "slot": "0",
        "type": "t_mapping(t_bytes32,t_struct(RoleData)2516_storage)"
      },
      {
        "astId": 15108,
        "contract": "contracts/dstable/Issuer.sol:Issuer",
        "label": "oracle",
        "offset": 0,
        "slot": "1",
        "type": "t_contract(IPriceOracleGetter)12694"
      },
      {
        "astId": 15110,
        "contract": "contracts/dstable/Issuer.sol:Issuer",
        "label": "baseCurrencyUnit",
        "offset": 0,
        "slot": "2",
        "type": "t_uint256"
      },
      {
        "astId": 14730,
        "contract": "contracts/dstable/Issuer.sol:Issuer",
        "label": "dstable",
        "offset": 0,
        "slot": "3",
        "type": "t_contract(IMintableERC20)12724"
      },
      {
        "astId": 14735,
        "contract": "contracts/dstable/Issuer.sol:Issuer",
        "label": "collateralVault",
        "offset": 0,
        "slot": "4",
        "type": "t_contract(CollateralVault)14556"
      },
      {
        "astId": 14738,
        "contract": "contracts/dstable/Issuer.sol:Issuer",
        "label": "amoManager",
        "offset": 0,
        "slot": "5",
        "type": "t_contract(AmoManager)13602"
      }
    ],
    "types": {
      "t_address": {
        "encoding": "inplace",
        "label": "address",
        "numberOfBytes": "20"
      },
      "t_bool": {
        "encoding": "inplace",
        "label": "bool",
        "numberOfBytes": "1"
      },
      "t_bytes32": {
        "encoding": "inplace",
        "label": "bytes32",
        "numberOfBytes": "32"
      },
      "t_contract(AmoManager)13602": {
        "encoding": "inplace",
        "label": "contract AmoManager",
        "numberOfBytes": "20"
      },
      "t_contract(CollateralVault)14556": {
        "encoding": "inplace",
        "label": "contract CollateralVault",
        "numberOfBytes": "20"
      },
      "t_contract(IMintableERC20)12724": {
        "encoding": "inplace",
        "label": "contract IMintableERC20",
        "numberOfBytes": "20"
      },
      "t_contract(IPriceOracleGetter)12694": {
        "encoding": "inplace",
        "label": "contract IPriceOracleGetter",
        "numberOfBytes": "20"
      },
      "t_mapping(t_address,t_bool)": {
        "encoding": "mapping",
        "key": "t_address",
        "label": "mapping(address => bool)",
        "numberOfBytes": "32",
        "value": "t_bool"
      },
      "t_mapping(t_bytes32,t_struct(RoleData)2516_storage)": {
        "encoding": "mapping",
        "key": "t_bytes32",
        "label": "mapping(bytes32 => struct AccessControl.RoleData)",
        "numberOfBytes": "32",
        "value": "t_struct(RoleData)2516_storage"
      },
      "t_struct(RoleData)2516_storage": {
        "encoding": "inplace",
        "label": "struct AccessControl.RoleData",
        "members": [
          {
            "astId": 2513,
            "contract": "contracts/dstable/Issuer.sol:Issuer",
            "label": "hasRole",
            "offset": 0,
            "slot": "0",
            "type": "t_mapping(t_address,t_bool)"
          },
          {
            "astId": 2515,
            "contract": "contracts/dstable/Issuer.sol:Issuer",
            "label": "adminRole",
            "offset": 0,
            "slot": "1",
            "type": "t_bytes32"
          }
        ],
        "numberOfBytes": "64"
      },
      "t_uint256": {
        "encoding": "inplace",
        "label": "uint256",
        "numberOfBytes": "32"
      }
    }
  }
}