{
  "address": "0xc8E011523276F033a97D5479Bdc89221e9Ea5Dd5",
  "abi": [
    {
      "inputs": [
        {
          "internalType": "uint256",
          "name": "_pricePeg",
          "type": "uint256"
        },
        {
          "internalType": "uint256",
          "name": "_baseCurrencyUnit",
          "type": "uint256"
        }
      ],
      "stateMutability": "nonpayable",
      "type": "constructor"
    },
    {
      "inputs": [],
      "name": "BASE_CURRENCY",
      "outputs": [
        {
          "internalType": "address",
          "name": "",
          "type": "address"
        }
      ],
      "stateMutability": "view",
      "type": "function"
    },
    {
      "inputs": [],
      "name": "BASE_CURRENCY_UNIT",
      "outputs": [
        {
          "internalType": "uint256",
          "name": "",
          "type": "uint256"
        }
      ],
      "stateMutability": "view",
      "type": "function"
    },
    {
      "inputs": [
        {
          "internalType": "address",
          "name": "",
          "type": "address"
        }
      ],
      "name": "getAssetPrice",
      "outputs": [
        {
          "internalType": "uint256",
          "name": "",
          "type": "uint256"
        }
      ],
      "stateMutability": "view",
      "type": "function"
    },
    {
      "inputs": [
        {
          "internalType": "address",
          "name": "",
          "type": "address"
        }
      ],
      "name": "getPriceInfo",
      "outputs": [
        {
          "internalType": "uint256",
          "name": "price",
          "type": "uint256"
        },
        {
          "internalType": "bool",
          "name": "isAlive",
          "type": "bool"
        }
      ],
      "stateMutability": "view",
      "type": "function"
    },
    {
      "inputs": [],
      "name": "pricePeg",
      "outputs": [
        {
          "internalType": "uint256",
          "name": "",
          "type": "uint256"
        }
      ],
      "stateMutability": "view",
      "type": "function"
    }
  ],
  "transactionHash": "0xab7ce93d31d9d4d89bdf6e14185ff079d0b4182798eba38caa6816090834535d",
  "args": [
    100000000,
    "100000000"
  ],
  "numDeployments": 1,
  "solcInputHash": "f239d04eaaada22b9dff563307bc85cb",
  "bytecode": "0x60a060405234801561001057600080fd5b506040516103f33803806103f383398181016040528101906100329190610083565b81608081815250508060008190555050506100c3565b600080fd5b6000819050919050565b6100608161004d565b811461006b57600080fd5b50565b60008151905061007d81610057565b92915050565b6000806040838503121561009a57610099610048565b5b60006100a88582860161006e565b92505060206100b98582860161006e565b9150509250929050565b6080516103076100ec6000396000818161011901528181610146015261017401526103076000f3fe608060405234801561001057600080fd5b50600436106100575760003560e01c80636af8ecae1461005c5780638c89b64f1461007a5780638edbf43614610098578063b3596f07146100c9578063e19f4700146100f9575b600080fd5b610064610117565b60405161007191906101b8565b60405180910390f35b61008261013b565b60405161008f91906101b8565b60405180910390f35b6100b260048036038101906100ad9190610236565b610141565b6040516100c092919061027e565b60405180910390f35b6100e360048036038101906100de9190610236565b610170565b6040516100f091906101b8565b60405180910390f35b61010161019a565b60405161010e91906102b6565b60405180910390f35b7f000000000000000000000000000000000000000000000000000000000000000081565b60005481565b6000807f0000000000000000000000000000000000000000000000000000000000000000600191509150915091565b60007f00000000000000000000000000000000000000000000000000000000000000009050919050565b600081565b6000819050919050565b6101b28161019f565b82525050565b60006020820190506101cd60008301846101a9565b92915050565b600080fd5b600073ffffffffffffffffffffffffffffffffffffffff82169050919050565b6000610203826101d8565b9050919050565b610213816101f8565b811461021e57600080fd5b50565b6000813590506102308161020a565b92915050565b60006020828403121561024c5761024b6101d3565b5b600061025a84828501610221565b91505092915050565b60008115159050919050565b61027881610263565b82525050565b600060408201905061029360008301856101a9565b6102a0602083018461026f565b9392505050565b6102b0816101f8565b82525050565b60006020820190506102cb60008301846102a7565b9291505056fea264697066735822122075fa87b507628e1fa54635c85fe912fc2e4cadd2759e57200bb1176d8ae6829e64736f6c63430008140033",
  "devdoc": {
    "kind": "dev",
    "methods": {
      "getAssetPrice(address)": {
        "details": "Get the price of an asset"
      },
      "getPriceInfo(address)": {
        "details": "Get the price info of an asset"
      }
    },
    "stateVariables": {
      "BASE_CURRENCY": {
        "details": "Address 0x0 is reserved for USD as base currency.",
        "return": "Returns the base currency address.",
        "returns": {
          "_0": "Returns the base currency address."
        }
      },
      "BASE_CURRENCY_UNIT": {
        "details": "1 ether for ETH, 1e8 for USD.",
        "return": "Returns the base currency unit.",
        "returns": {
          "_0": "Returns the base currency unit."
        }
      }
    },
    "version": 1
  },
  "userdoc": {
    "kind": "user",
    "methods": {
      "BASE_CURRENCY()": {
        "notice": "Returns the base currency address"
      },
      "BASE_CURRENCY_UNIT()": {
        "notice": "Returns the base currency unit"
      }
    },
    "version": 1
  },
  "storageLayout": {
    "storage": [
      {
        "astId": 16595,
        "contract": "contracts/oracle_aggregator/wrapper/HardPegOracleWrapper.sol:HardPegOracleWrapper",
        "label": "BASE_CURRENCY_UNIT",
        "offset": 0,
        "slot": "0",
        "type": "t_uint256"
      }
    ],
    "types": {
      "t_uint256": {
        "encoding": "inplace",
        "label": "uint256",
        "numberOfBytes": "32"
      }
    }
  }
}