{
  "address": "0x513237D72F383bD8ac1e44920E71dEb923d8C7fb",
  "abi": [
    {
      "inputs": [
        {
          "internalType": "address",
          "name": "_api3ServerV1Address",
          "type": "address"
        }
      ],
      "stateMutability": "nonpayable",
      "type": "constructor"
    },
    {
      "inputs": [],
      "name": "api3ServerV1",
      "outputs": [
        {
          "internalType": "address",
          "name": "",
          "type": "address"
        }
      ],
      "stateMutability": "view",
      "type": "function"
    },
    {
      "inputs": [],
      "name": "read",
      "outputs": [
        {
          "internalType": "int224",
          "name": "value",
          "type": "int224"
        },
        {
          "internalType": "uint32",
          "name": "timestamp",
          "type": "uint32"
        }
      ],
      "stateMutability": "view",
      "type": "function"
    },
    {
      "inputs": [
        {
          "internalType": "int224",
          "name": "_price",
          "type": "int224"
        }
      ],
      "name": "setMock",
      "outputs": [],
      "stateMutability": "nonpayable",
      "type": "function"
    }
  ],
  "transactionHash": "0x3bdcbbd81e2253b2dced59d771bdca1c9ea98e97178cd7d2400de278ceb54c0d",
  "args": [
    "0x69Bec94eF9FEd71a05E8C0f2fe3201B9D1a6CC2B"
  ],
  "numDeployments": 1,
  "solcInputHash": "601a421431a4d1b98bcec471579cced1",
  "bytecode": "0x60a060405234801561001057600080fd5b506040516103a13803806103a1833981810160405281019061003291906100cf565b8073ffffffffffffffffffffffffffffffffffffffff1660808173ffffffffffffffffffffffffffffffffffffffff1681525050506100fc565b600080fd5b600073ffffffffffffffffffffffffffffffffffffffff82169050919050565b600061009c82610071565b9050919050565b6100ac81610091565b81146100b757600080fd5b50565b6000815190506100c9816100a3565b92915050565b6000602082840312156100e5576100e461006c565b5b60006100f3848285016100ba565b91505092915050565b60805161028b610116600039600060a3015261028b6000f3fe608060405234801561001057600080fd5b50600436106100415760003560e01c80632d6a744e1461004657806357de26a414610064578063eef3767f14610083575b600080fd5b61004e61009f565b60405161005b9190610178565b60405180910390f35b61006c6100c7565b60405161007a9291906101ce565b60405180910390f35b61009d60048036038101906100989190610228565b6100e1565b005b60007f0000000000000000000000000000000000000000000000000000000000000000905090565b60008060008054906101000a9004601b0b42915091509091565b806000806101000a8154817bffffffffffffffffffffffffffffffffffffffffffffffffffffffff0219169083601b0b7bffffffffffffffffffffffffffffffffffffffffffffffffffffffff16021790555050565b600073ffffffffffffffffffffffffffffffffffffffff82169050919050565b600061016282610137565b9050919050565b61017281610157565b82525050565b600060208201905061018d6000830184610169565b92915050565b600081601b0b9050919050565b6101a981610193565b82525050565b600063ffffffff82169050919050565b6101c8816101af565b82525050565b60006040820190506101e360008301856101a0565b6101f060208301846101bf565b9392505050565b600080fd5b61020581610193565b811461021057600080fd5b50565b600081359050610222816101fc565b92915050565b60006020828403121561023e5761023d6101f7565b5b600061024c84828501610213565b9150509291505056fea2646970667358221220111b1250d6743043e417148375a85603b084640f1988dab66588d55a9e0bc17d64736f6c63430008140033",
  "devdoc": {
    "kind": "dev",
    "methods": {},
    "version": 1
  },
  "userdoc": {
    "kind": "user",
    "methods": {},
    "version": 1
  },
  "storageLayout": {
    "storage": [
      {
        "astId": 16764,
        "contract": "contracts/testing/oracle/MockAPI3OracleAlwaysAlive.sol:MockAPI3OracleAlwaysAlive",
        "label": "mockPrice",
        "offset": 0,
        "slot": "0",
        "type": "t_int224"
      }
    ],
    "types": {
      "t_int224": {
        "encoding": "inplace",
        "label": "int224",
        "numberOfBytes": "28"
      }
    }
  }
}