{
  "address": "0x5714a4F4B9694f96a5a0A200C64c35B7652E5C01",
  "abi": [
    {
      "inputs": [],
      "stateMutability": "nonpayable",
      "type": "constructor"
    },
    {
      "inputs": [],
      "name": "latestRoundData",
      "outputs": [
        {
          "internalType": "uint80",
          "name": "roundId",
          "type": "uint80"
        },
        {
          "internalType": "int256",
          "name": "answer",
          "type": "int256"
        },
        {
          "internalType": "uint256",
          "name": "startedAt",
          "type": "uint256"
        },
        {
          "internalType": "uint256",
          "name": "updatedAt",
          "type": "uint256"
        },
        {
          "internalType": "uint80",
          "name": "answeredInRound",
          "type": "uint80"
        }
      ],
      "stateMutability": "view",
      "type": "function"
    },
    {
      "inputs": [
        {
          "internalType": "int256",
          "name": "_price",
          "type": "int256"
        }
      ],
      "name": "setMock",
      "outputs": [],
      "stateMutability": "nonpayable",
      "type": "function"
    }
  ],
  "transactionHash": "0x0a1b7fd516ba25b18e30a0c673b3bc6d757d8f003c5ab6536a61dbdae9f41942",
  "args": [],
  "numDeployments": 1,
  "solcInputHash": "927870dc3a85f710d1a8db62b704b14a",
  "bytecode": "0x608060405234801561001057600080fd5b50600180546001600160501b03191681179055610156806100326000396000f3fe608060405234801561001057600080fd5b50600436106100365760003560e01c806333f3998b1461003b578063feaf968c14610050575b600080fd5b61004e6100493660046100d3565b61008f565b005b600154600054604080516001600160501b0390931680845260208401929092524283820181905260608401526080830191909152519081900360a00190f35b6000818155600180546001600160501b0316916100ab836100ec565b91906101000a8154816001600160501b0302191690836001600160501b031602179055505050565b6000602082840312156100e557600080fd5b5035919050565b60006001600160501b0380831681810361011657634e487b7160e01b600052601160045260246000fd5b600101939250505056fea2646970667358221220d6fd88dd66a6086e942ffdef610f01063791f452062cd04d13aa2d5b2670c2fc64736f6c63430008140033",
  "devdoc": {
    "kind": "dev",
    "methods": {},
    "version": 1
  },
  "userdoc": {
    "kind": "user",
    "methods": {},
    "version": 1
  },
  "storageLayout": {
    "storage": [
      {
        "astId": 771,
        "contract": "contracts/testing/oracle/MockRedstoneChainlinkOracleAlwaysAlive.sol:MockRedstoneChainlinkOracleAlwaysAlive",
        "label": "mockPrice",
        "offset": 0,
        "slot": "0",
        "type": "t_int256"
      },
      {
        "astId": 773,
        "contract": "contracts/testing/oracle/MockRedstoneChainlinkOracleAlwaysAlive.sol:MockRedstoneChainlinkOracleAlwaysAlive",
        "label": "mockRoundId",
        "offset": 0,
        "slot": "1",
        "type": "t_uint80"
      }
    ],
    "types": {
      "t_int256": {
        "encoding": "inplace",
        "label": "int256",
        "numberOfBytes": "32"
      },
      "t_uint80": {
        "encoding": "inplace",
        "label": "uint80",
        "numberOfBytes": "10"
      }
    }
  }
}