{
  "address": "0x9A783eB85AfB9998Dda9929261e61E6c09Be9527",
  "abi": [
    {
      "inputs": [],
      "name": "version",
      "outputs": [
        {
          "internalType": "string",
          "name": "",
          "type": "string"
        }
      ],
      "stateMutability": "pure",
      "type": "function"
    }
  ],
  "transactionHash": "0x0f5c9a0ea8a245c108b842f675e6ead97434f3dba484ccb6e8d3eeab2f1dd740",
  "args": [],
  "numDeployments": 1,
  "solcInputHash": "aace622bc2aa8f5d99afe4aabc571fcf",
  "bytecode": "0x608060405234801561001057600080fd5b5060dd8061001f6000396000f3fe6080604052348015600f57600080fd5b506004361060285760003560e01c806354fd4d5014602d575b600080fd5b60408051808201825260058152640312e302e360dc1b6020820152905160529190605b565b60405180910390f35b600060208083528351808285015260005b81811015608657858101830151858201604001528201606c565b506000604082860101526040601f19601f830116850101925050509291505056fea2646970667358221220a619f83f6a3839086efbfc0442a1d43d4b9dbed97a8acbfe5f6f72dbda84a21664736f6c63430008140033",
  "devdoc": {
    "details": "This is just a placeholder contract to simulate the API3 server on mainnet",
    "kind": "dev",
    "methods": {},
    "title": "MockAPI3ServerV1",
    "version": 1
  },
  "userdoc": {
    "kind": "user",
    "methods": {},
    "notice": "A simple mock of the API3 server V1 for testing purposes",
    "version": 1
  },
  "storageLayout": {
    "storage": [],
    "types": null
  }
}