{
  "address": "0xDc2268bC7095dC829Ed9B8822FAe517aEEa9133C",
  "abi": [
    {
      "inputs": [
        {
          "internalType": "address",
          "name": "_api3ServerV1Address",
          "type": "address"
        }
      ],
      "stateMutability": "nonpayable",
      "type": "constructor"
    },
    {
      "inputs": [],
      "name": "api3ServerV1",
      "outputs": [
        {
          "internalType": "address",
          "name": "",
          "type": "address"
        }
      ],
      "stateMutability": "view",
      "type": "function"
    },
    {
      "inputs": [],
      "name": "read",
      "outputs": [
        {
          "internalType": "int224",
          "name": "value",
          "type": "int224"
        },
        {
          "internalType": "uint32",
          "name": "timestamp",
          "type": "uint32"
        }
      ],
      "stateMutability": "view",
      "type": "function"
    },
    {
      "inputs": [
        {
          "internalType": "int224",
          "name": "_price",
          "type": "int224"
        }
      ],
      "name": "setMock",
      "outputs": [],
      "stateMutability": "nonpayable",
      "type": "function"
    }
  ],
  "transactionHash": "0x9ff23d9d5499bc55648a1168392a88030dbfb8bed14a55f734367f308d8ca854",
  "args": [
    "0x75E41069F655565668Ae7969AE7A1B0Fc75C7726"
  ],
  "numDeployments": 1,
  "solcInputHash": "741e61275de6880ba74c6bd1aa34ffc1",
  "bytecode": "0x60a060405234801561001057600080fd5b506040516101b43803806101b483398101604081905261002f91610040565b6001600160a01b0316608052610070565b60006020828403121561005257600080fd5b81516001600160a01b038116811461006957600080fd5b9392505050565b60805161012a61008a6000396000604e015261012a6000f3fe6080604052348015600f57600080fd5b5060043610603c5760003560e01c80632d6a744e14604157806357de26a414607d578063eef3767f14609d575b600080fd5b6040516001600160a01b037f00000000000000000000000000000000000000000000000000000000000000001681526020015b60405180910390f35b60005460408051601b9290920b825263ffffffff42166020830152016074565b60ca60a836600460cc565b600080546001600160e01b0319166001600160e01b0392909216919091179055565b005b60006020828403121560dd57600080fd5b813580601b0b811460ed57600080fd5b939250505056fea2646970667358221220ac02bf0e605ce945482a38b05b1090a6102e128c7900576f2b4114d8f9b5453964736f6c63430008140033",
  "devdoc": {
    "kind": "dev",
    "methods": {},
    "version": 1
  },
  "userdoc": {
    "kind": "user",
    "methods": {},
    "version": 1
  },
  "storageLayout": {
    "storage": [
      {
        "astId": 62112,
        "contract": "contracts/testing/oracle/MockAPI3OracleAlwaysAlive.sol:MockAPI3OracleAlwaysAlive",
        "label": "mockPrice",
        "offset": 0,
        "slot": "0",
        "type": "t_int224"
      }
    ],
    "types": {
      "t_int224": {
        "encoding": "inplace",
        "label": "int224",
        "numberOfBytes": "28"
      }
    }
  }
}