{
  "address": "0x69Bec94eF9FEd71a05E8C0f2fe3201B9D1a6CC2B",
  "abi": [
    {
      "inputs": [],
      "name": "version",
      "outputs": [
        {
          "internalType": "string",
          "name": "",
          "type": "string"
        }
      ],
      "stateMutability": "pure",
      "type": "function"
    }
  ],
  "transactionHash": "0x55178c1d3f4d39c4dab6336dddff494b7b0920d80f999aeafc98cb5940457229",
  "args": [],
  "numDeployments": 1,
  "solcInputHash": "601a421431a4d1b98bcec471579cced1",
  "bytecode": "0x608060405234801561001057600080fd5b50610173806100206000396000f3fe608060405234801561001057600080fd5b506004361061002b5760003560e01c806354fd4d5014610030575b600080fd5b61003861004e565b604051610045919061011b565b60405180910390f35b60606040518060400160405280600581526020017f312e302e30000000000000000000000000000000000000000000000000000000815250905090565b600081519050919050565b600082825260208201905092915050565b60005b838110156100c55780820151818401526020810190506100aa565b60008484015250505050565b6000601f19601f8301169050919050565b60006100ed8261008b565b6100f78185610096565b93506101078185602086016100a7565b610110816100d1565b840191505092915050565b6000602082019050818103600083015261013581846100e2565b90509291505056fea26469706673582212200c53b96fa335ba8258d460075ddfd96f31f201afc473ec73d7154ceb43bc566364736f6c63430008140033",
  "devdoc": {
    "details": "This is just a placeholder contract to simulate the API3 server on mainnet",
    "kind": "dev",
    "methods": {},
    "title": "MockAPI3ServerV1",
    "version": 1
  },
  "userdoc": {
    "kind": "user",
    "methods": {},
    "notice": "A simple mock of the API3 server V1 for testing purposes",
    "version": 1
  },
  "storageLayout": {
    "storage": [],
    "types": null
  }
}