{
  "address": "0x11c76A082C61417449F9a3fbb900370569f8fc8F",
  "abi": [
    {
      "inputs": [],
      "stateMutability": "nonpayable",
      "type": "constructor"
    },
    {
      "inputs": [
        {
          "internalType": "address",
          "name": "owner",
          "type": "address"
        }
      ],
      "name": "OwnableInvalidOwner",
      "type": "error"
    },
    {
      "inputs": [
        {
          "internalType": "address",
          "name": "account",
          "type": "address"
        }
      ],
      "name": "OwnableUnauthorizedAccount",
      "type": "error"
    },
    {
      "inputs": [
        {
          "internalType": "address",
          "name": "token",
          "type": "address"
        }
      ],
      "name": "SafeERC20FailedOperation",
      "type": "error"
    },
    {
      "anonymous": false,
      "inputs": [
        {
          "indexed": true,
          "internalType": "address",
          "name": "previousOwner",
          "type": "address"
        },
        {
          "indexed": true,
          "internalType": "address",
          "name": "newOwner",
          "type": "address"
        }
      ],
      "name": "OwnershipTransferred",
      "type": "event"
    },
    {
      "anonymous": false,
      "inputs": [
        {
          "indexed": false,
          "internalType": "address",
          "name": "sender",
          "type": "address"
        },
        {
          "indexed": false,
          "internalType": "uint256",
          "name": "inputAmount",
          "type": "uint256"
        },
        {
          "indexed": false,
          "internalType": "address",
          "name": "inputToken",
          "type": "address"
        },
        {
          "indexed": false,
          "internalType": "uint256",
          "name": "amountOut",
          "type": "uint256"
        },
        {
          "indexed": false,
          "internalType": "address",
          "name": "outputToken",
          "type": "address"
        },
        {
          "indexed": false,
          "internalType": "int256",
          "name": "slippage",
          "type": "int256"
        },
        {
          "indexed": false,
          "internalType": "uint32",
          "name": "referralCode",
          "type": "uint32"
        }
      ],
      "name": "Swap",
      "type": "event"
    },
    {
      "anonymous": false,
      "inputs": [
        {
          "indexed": false,
          "internalType": "address",
          "name": "sender",
          "type": "address"
        },
        {
          "indexed": false,
          "internalType": "uint256[]",
          "name": "amountsIn",
          "type": "uint256[]"
        },
        {
          "indexed": false,
          "internalType": "address[]",
          "name": "tokensIn",
          "type": "address[]"
        },
        {
          "indexed": false,
          "internalType": "uint256[]",
          "name": "amountsOut",
          "type": "uint256[]"
        },
        {
          "indexed": false,
          "internalType": "address[]",
          "name": "tokensOut",
          "type": "address[]"
        },
        {
          "indexed": false,
          "internalType": "uint32",
          "name": "referralCode",
          "type": "uint32"
        }
      ],
      "name": "SwapMulti",
      "type": "event"
    },
    {
      "inputs": [],
      "name": "FEE_DENOM",
      "outputs": [
        {
          "internalType": "uint256",
          "name": "",
          "type": "uint256"
        }
      ],
      "stateMutability": "view",
      "type": "function"
    },
    {
      "inputs": [],
      "name": "REFERRAL_WITH_FEE_THRESHOLD",
      "outputs": [
        {
          "internalType": "uint256",
          "name": "",
          "type": "uint256"
        }
      ],
      "stateMutability": "view",
      "type": "function"
    },
    {
      "inputs": [
        {
          "internalType": "uint256",
          "name": "",
          "type": "uint256"
        }
      ],
      "name": "addressList",
      "outputs": [
        {
          "internalType": "address",
          "name": "",
          "type": "address"
        }
      ],
      "stateMutability": "pure",
      "type": "function"
    },
    {
      "inputs": [
        {
          "internalType": "address",
          "name": "",
          "type": "address"
        },
        {
          "internalType": "address",
          "name": "",
          "type": "address"
        }
      ],
      "name": "exchangeRates",
      "outputs": [
        {
          "internalType": "uint256",
          "name": "",
          "type": "uint256"
        }
      ],
      "stateMutability": "view",
      "type": "function"
    },
    {
      "inputs": [],
      "name": "owner",
      "outputs": [
        {
          "internalType": "address",
          "name": "",
          "type": "address"
        }
      ],
      "stateMutability": "view",
      "type": "function"
    },
    {
      "inputs": [
        {
          "internalType": "uint32",
          "name": "code",
          "type": "uint32"
        }
      ],
      "name": "referralLookup",
      "outputs": [
        {
          "internalType": "uint64",
          "name": "referralFee",
          "type": "uint64"
        },
        {
          "internalType": "address",
          "name": "beneficiary",
          "type": "address"
        },
        {
          "internalType": "bool",
          "name": "registered",
          "type": "bool"
        }
      ],
      "stateMutability": "view",
      "type": "function"
    },
    {
      "inputs": [
        {
          "internalType": "uint32",
          "name": "",
          "type": "uint32"
        }
      ],
      "name": "referrals",
      "outputs": [
        {
          "internalType": "uint64",
          "name": "referralFee",
          "type": "uint64"
        },
        {
          "internalType": "address",
          "name": "beneficiary",
          "type": "address"
        },
        {
          "internalType": "bool",
          "name": "registered",
          "type": "bool"
        }
      ],
      "stateMutability": "view",
      "type": "function"
    },
    {
      "inputs": [
        {
          "internalType": "uint32",
          "name": "_referralCode",
          "type": "uint32"
        },
        {
          "internalType": "uint64",
          "name": "_referralFee",
          "type": "uint64"
        },
        {
          "internalType": "address",
          "name": "_beneficiary",
          "type": "address"
        }
      ],
      "name": "registerReferralCode",
      "outputs": [],
      "stateMutability": "nonpayable",
      "type": "function"
    },
    {
      "inputs": [],
      "name": "renounceOwnership",
      "outputs": [],
      "stateMutability": "nonpayable",
      "type": "function"
    },
    {
      "inputs": [
        {
          "internalType": "address",
          "name": "token1",
          "type": "address"
        },
        {
          "internalType": "address",
          "name": "token2",
          "type": "address"
        },
        {
          "internalType": "uint256",
          "name": "rate",
          "type": "uint256"
        }
      ],
      "name": "setExchangeRate",
      "outputs": [],
      "stateMutability": "nonpayable",
      "type": "function"
    },
    {
      "inputs": [
        {
          "internalType": "uint256",
          "name": "_swapMultiFee",
          "type": "uint256"
        }
      ],
      "name": "setSwapMultiFee",
      "outputs": [],
      "stateMutability": "nonpayable",
      "type": "function"
    },
    {
      "inputs": [
        {
          "components": [
            {
              "internalType": "address",
              "name": "inputToken",
              "type": "address"
            },
            {
              "internalType": "uint256",
              "name": "inputAmount",
              "type": "uint256"
            },
            {
              "internalType": "address",
              "name": "inputReceiver",
              "type": "address"
            },
            {
              "internalType": "address",
              "name": "outputToken",
              "type": "address"
            },
            {
              "internalType": "uint256",
              "name": "outputQuote",
              "type": "uint256"
            },
            {
              "internalType": "uint256",
              "name": "outputMin",
              "type": "uint256"
            },
            {
              "internalType": "address",
              "name": "outputReceiver",
              "type": "address"
            }
          ],
          "internalType": "struct IOdosRouterV2.swapTokenInfo",
          "name": "tokenInfo",
          "type": "tuple"
        },
        {
          "internalType": "bytes",
          "name": "pathDefinition",
          "type": "bytes"
        },
        {
          "internalType": "address",
          "name": "executor",
          "type": "address"
        },
        {
          "internalType": "uint32",
          "name": "referralCode",
          "type": "uint32"
        }
      ],
      "name": "swap",
      "outputs": [
        {
          "internalType": "uint256",
          "name": "amountOut",
          "type": "uint256"
        }
      ],
      "stateMutability": "payable",
      "type": "function"
    },
    {
      "inputs": [],
      "name": "swapCompact",
      "outputs": [
        {
          "internalType": "uint256",
          "name": "",
          "type": "uint256"
        }
      ],
      "stateMutability": "payable",
      "type": "function"
    },
    {
      "inputs": [
        {
          "components": [
            {
              "internalType": "address",
              "name": "tokenAddress",
              "type": "address"
            },
            {
              "internalType": "uint256",
              "name": "amountIn",
              "type": "uint256"
            },
            {
              "internalType": "address",
              "name": "receiver",
              "type": "address"
            }
          ],
          "internalType": "struct IOdosRouterV2.inputTokenInfo[]",
          "name": "",
          "type": "tuple[]"
        },
        {
          "components": [
            {
              "internalType": "address",
              "name": "tokenAddress",
              "type": "address"
            },
            {
              "internalType": "uint256",
              "name": "relativeValue",
              "type": "uint256"
            },
            {
              "internalType": "address",
              "name": "receiver",
              "type": "address"
            }
          ],
          "internalType": "struct IOdosRouterV2.outputTokenInfo[]",
          "name": "",
          "type": "tuple[]"
        },
        {
          "internalType": "uint256",
          "name": "",
          "type": "uint256"
        },
        {
          "internalType": "bytes",
          "name": "",
          "type": "bytes"
        },
        {
          "internalType": "address",
          "name": "",
          "type": "address"
        },
        {
          "internalType": "uint32",
          "name": "",
          "type": "uint32"
        }
      ],
      "name": "swapMulti",
      "outputs": [
        {
          "internalType": "uint256[]",
          "name": "",
          "type": "uint256[]"
        }
      ],
      "stateMutability": "payable",
      "type": "function"
    },
    {
      "inputs": [],
      "name": "swapMultiCompact",
      "outputs": [
        {
          "internalType": "uint256[]",
          "name": "",
          "type": "uint256[]"
        }
      ],
      "stateMutability": "payable",
      "type": "function"
    },
    {
      "inputs": [],
      "name": "swapMultiFee",
      "outputs": [
        {
          "internalType": "uint256",
          "name": "",
          "type": "uint256"
        }
      ],
      "stateMutability": "view",
      "type": "function"
    },
    {
      "inputs": [
        {
          "components": [
            {
              "internalType": "address",
              "name": "contractAddress",
              "type": "address"
            },
            {
              "internalType": "uint256",
              "name": "nonce",
              "type": "uint256"
            },
            {
              "internalType": "uint256",
              "name": "deadline",
              "type": "uint256"
            },
            {
              "internalType": "bytes",
              "name": "signature",
              "type": "bytes"
            }
          ],
          "internalType": "struct IOdosRouterV2.permit2Info",
          "name": "",
          "type": "tuple"
        },
        {
          "components": [
            {
              "internalType": "address",
              "name": "tokenAddress",
              "type": "address"
            },
            {
              "internalType": "uint256",
              "name": "amountIn",
              "type": "uint256"
            },
            {
              "internalType": "address",
              "name": "receiver",
              "type": "address"
            }
          ],
          "internalType": "struct IOdosRouterV2.inputTokenInfo[]",
          "name": "",
          "type": "tuple[]"
        },
        {
          "components": [
            {
              "internalType": "address",
              "name": "tokenAddress",
              "type": "address"
            },
            {
              "internalType": "uint256",
              "name": "relativeValue",
              "type": "uint256"
            },
            {
              "internalType": "address",
              "name": "receiver",
              "type": "address"
            }
          ],
          "internalType": "struct IOdosRouterV2.outputTokenInfo[]",
          "name": "",
          "type": "tuple[]"
        },
        {
          "internalType": "uint256",
          "name": "",
          "type": "uint256"
        },
        {
          "internalType": "bytes",
          "name": "",
          "type": "bytes"
        },
        {
          "internalType": "address",
          "name": "",
          "type": "address"
        },
        {
          "internalType": "uint32",
          "name": "",
          "type": "uint32"
        }
      ],
      "name": "swapMultiPermit2",
      "outputs": [
        {
          "internalType": "uint256[]",
          "name": "",
          "type": "uint256[]"
        }
      ],
      "stateMutability": "payable",
      "type": "function"
    },
    {
      "inputs": [
        {
          "components": [
            {
              "internalType": "address",
              "name": "contractAddress",
              "type": "address"
            },
            {
              "internalType": "uint256",
              "name": "nonce",
              "type": "uint256"
            },
            {
              "internalType": "uint256",
              "name": "deadline",
              "type": "uint256"
            },
            {
              "internalType": "bytes",
              "name": "signature",
              "type": "bytes"
            }
          ],
          "internalType": "struct IOdosRouterV2.permit2Info",
          "name": "",
          "type": "tuple"
        },
        {
          "components": [
            {
              "internalType": "address",
              "name": "inputToken",
              "type": "address"
            },
            {
              "internalType": "uint256",
              "name": "inputAmount",
              "type": "uint256"
            },
            {
              "internalType": "address",
              "name": "inputReceiver",
              "type": "address"
            },
            {
              "internalType": "address",
              "name": "outputToken",
              "type": "address"
            },
            {
              "internalType": "uint256",
              "name": "outputQuote",
              "type": "uint256"
            },
            {
              "internalType": "uint256",
              "name": "outputMin",
              "type": "uint256"
            },
            {
              "internalType": "address",
              "name": "outputReceiver",
              "type": "address"
            }
          ],
          "internalType": "struct IOdosRouterV2.swapTokenInfo",
          "name": "",
          "type": "tuple"
        },
        {
          "internalType": "bytes",
          "name": "",
          "type": "bytes"
        },
        {
          "internalType": "address",
          "name": "",
          "type": "address"
        },
        {
          "internalType": "uint32",
          "name": "",
          "type": "uint32"
        }
      ],
      "name": "swapPermit2",
      "outputs": [
        {
          "internalType": "uint256",
          "name": "",
          "type": "uint256"
        }
      ],
      "stateMutability": "nonpayable",
      "type": "function"
    },
    {
      "inputs": [
        {
          "components": [
            {
              "internalType": "address",
              "name": "tokenAddress",
              "type": "address"
            },
            {
              "internalType": "uint256",
              "name": "amountIn",
              "type": "uint256"
            },
            {
              "internalType": "address",
              "name": "receiver",
              "type": "address"
            }
          ],
          "internalType": "struct IOdosRouterV2.inputTokenInfo[]",
          "name": "",
          "type": "tuple[]"
        },
        {
          "components": [
            {
              "internalType": "address",
              "name": "tokenAddress",
              "type": "address"
            },
            {
              "internalType": "uint256",
              "name": "relativeValue",
              "type": "uint256"
            },
            {
              "internalType": "address",
              "name": "receiver",
              "type": "address"
            }
          ],
          "internalType": "struct IOdosRouterV2.outputTokenInfo[]",
          "name": "",
          "type": "tuple[]"
        },
        {
          "internalType": "uint256",
          "name": "",
          "type": "uint256"
        },
        {
          "internalType": "bytes",
          "name": "",
          "type": "bytes"
        },
        {
          "internalType": "address",
          "name": "",
          "type": "address"
        }
      ],
      "name": "swapRouterFunds",
      "outputs": [
        {
          "internalType": "uint256[]",
          "name": "",
          "type": "uint256[]"
        }
      ],
      "stateMutability": "nonpayable",
      "type": "function"
    },
    {
      "inputs": [
        {
          "internalType": "address",
          "name": "newOwner",
          "type": "address"
        }
      ],
      "name": "transferOwnership",
      "outputs": [],
      "stateMutability": "nonpayable",
      "type": "function"
    },
    {
      "inputs": [
        {
          "internalType": "address[]",
          "name": "tokens",
          "type": "address[]"
        },
        {
          "internalType": "uint256[]",
          "name": "amounts",
          "type": "uint256[]"
        },
        {
          "internalType": "address",
          "name": "dest",
          "type": "address"
        }
      ],
      "name": "transferRouterFunds",
      "outputs": [],
      "stateMutability": "nonpayable",
      "type": "function"
    },
    {
      "inputs": [
        {
          "internalType": "address[]",
          "name": "",
          "type": "address[]"
        }
      ],
      "name": "writeAddressList",
      "outputs": [],
      "stateMutability": "nonpayable",
      "type": "function"
    },
    {
      "stateMutability": "payable",
      "type": "receive"
    }
  ],
  "transactionHash": "0xdbe70043156e1fe357dc22aebbcf4b6245056a8487b3c8147bc4f6c1957d6b0a",
  "args": [],
  "numDeployments": 1,
  "solcInputHash": "e7563051fc9a3f51d1c1863bab8ace53",
  "bytecode": "0x608060405234801561001057600080fd5b50338061003757604051631e4fbdf760e01b81526000600482015260240160405180910390fd5b61004081610046565b50610096565b600080546001600160a01b038381166001600160a01b0319831681178455604051919092169283917f8be0079c531659141344cd1fd0a4f28419497f9722a3daafe3b4186f6b6457e09190a35050565b6111eb806100a56000396000f3fe6080604052600436106101395760003560e01c80637bf2d6d4116100ab5780639286b93d1161006f5780639286b93d14610362578063b810fb4314610382578063e10895f9146103a3578063e7d3fc6014610445578063f2fde38b1461045b578063f827065e1461047b57600080fd5b80637bf2d6d4146102f257806383bd37f91461030057806384a7f3dd1461030857806387b621b5146103105780638da5cb5b1461033057600080fd5b80633b635ce4116100fd5780633b635ce41461024d5780634886c6751461026e578063503fa44f146102855780636c082c131461026e578063715018a6146102bd578063782aaeea146102d257600080fd5b8063080c25b314610145578063174da6211461016e57806328be42f4146101905780632b8845ef146101ab5780633596f9a21461022d57600080fd5b3661014057005b600080fd5b610158610153366004610b1f565b6104f6565b6040516101659190610c07565b60405180910390f35b34801561017a57600080fd5b5061018e610189366004610c8f565b610519565b005b34801561019c57600080fd5b50610158610153366004610d0f565b3480156101b757600080fd5b506101fe6101c6366004610dc2565b6003602052600090815260409020546001600160401b03811690600160401b81046001600160a01b031690600160e01b900460ff1683565b604080516001600160401b0390941684526001600160a01b039092166020840152151590820152606001610165565b34801561023957600080fd5b5061018e610248366004610de4565b6105db565b61026061025b366004610e37565b6105f3565b604051908152602001610165565b34801561027a57600080fd5b50610260620f424081565b34801561029157600080fd5b506102606102a0366004610ea4565b600160209081526000928352604080842090915290825290205481565b3480156102c957600080fd5b5061018e6107fc565b3480156102de57600080fd5b5061018e6102ed366004610ed7565b610806565b610158610153366004610f13565b61026061083a565b6101586104f6565b34801561031c57600080fd5b5061026061032b366004610fd6565b61083a565b34801561033c57600080fd5b506000546001600160a01b03165b6040516001600160a01b039091168152602001610165565b34801561036e57600080fd5b5061018e61037d366004611075565b610854565b34801561038e57600080fd5b5061034a61039d366004611075565b50600090565b3480156103af57600080fd5b5061018e6103be36600461108e565b604080516060810182526001600160401b0393841681526001600160a01b039283166020808301918252600183850190815263ffffffff909716600090815260039091529290922090518154925195511515600160e01b0260ff60e01b1996909416600160401b026001600160e01b03199093169416939093171792909216919091179055565b34801561045157600080fd5b5061026060025481565b34801561046757600080fd5b5061018e6104763660046110df565b610861565b34801561048757600080fd5b506101fe610496366004610dc2565b63ffffffff16600090815260036020908152604091829020825160608101845290546001600160401b038116808352600160401b82046001600160a01b0316938301849052600160e01b90910460ff161515919093018190529192909190565b606060405162461bcd60e51b8152600401610510906110fa565b60405180910390fd5b61052161086d565b8382146105625760405162461bcd60e51b815260206004820152600f60248201526e098cadccee8d040dad2e6dac2e8c6d608b1b6044820152606401610510565b60005b848110156105d3576105c18285858481811061058357610583611131565b9050602002013588888581811061059c5761059c611131565b90506020020160208101906105b191906110df565b6001600160a01b0316919061089a565b806105cb8161115d565b915050610565565b505050505050565b60405162461bcd60e51b8152600401610510906110fa565b600061061c33306020890180359061060b908b6110df565b6001600160a01b03169291906108fe565b600060018161062e60208a018a6110df565b6001600160a01b03168152602081019190915260400160009081209061065a60808a0160608b016110df565b6001600160a01b03166001600160a01b03168152602001908152602001600020549050600081116106c55760405162461bcd60e51b8152602060048201526015602482015274115e18da185b99d9481c985d19481b9bdd081cd95d605a1b6044820152606401610510565b670de0b6b3a76400006106dc8260208a0135611176565b6106e69190611193565b91508660a0013582101561073c5760405162461bcd60e51b815260206004820152601a60248201527f496e73756666696369656e74206f757470757420616d6f756e740000000000006044820152606401610510565b61076061074f60e0890160c08a016110df565b836105b160808b0160608c016110df565b7f823eaf01002d7353fbcadb2ea3305cc46fa35d799cb0914846d185ac06f8ad053360208901803590610793908b6110df565b856107a460808d0160608e016110df565b604080516001600160a01b03968716815260208101959095529285169284019290925260608301529091166080820152600060a082015263ffffffff851660c082015260e00160405180910390a15095945050505050565b61080461093d565b565b61080e61086d565b6001600160a01b0392831660009081526001602090815260408083209490951682529290925291902055565b600060405162461bcd60e51b8152600401610510906110fa565b61085c61086d565b600255565b61086a8161094f565b50565b6000546001600160a01b031633146108045760405163118cdaa760e01b8152336004820152602401610510565b6040516001600160a01b038381166024830152604482018390526108f991859182169063a9059cbb906064015b604051602081830303815290604052915060e01b6020820180516001600160e01b03838183161783525050505061098a565b505050565b6040516001600160a01b0384811660248301528381166044830152606482018390526109379186918216906323b872dd906084016108c7565b50505050565b61094561086d565b61080460006109fb565b61095761086d565b6001600160a01b03811661098157604051631e4fbdf760e01b815260006004820152602401610510565b61086a816109fb565b600080602060008451602086016000885af1806109ad576040513d6000823e3d81fd5b50506000513d915081156109c55780600114156109d2565b6001600160a01b0384163b155b1561093757604051635274afe760e01b81526001600160a01b0385166004820152602401610510565b600080546001600160a01b038381166001600160a01b0319831681178455604051919092169283917f8be0079c531659141344cd1fd0a4f28419497f9722a3daafe3b4186f6b6457e09190a35050565b600060808284031215610a5d57600080fd5b50919050565b60008083601f840112610a7557600080fd5b5081356001600160401b03811115610a8c57600080fd5b602083019150836020606083028501011115610aa757600080fd5b9250929050565b60008083601f840112610ac057600080fd5b5081356001600160401b03811115610ad757600080fd5b602083019150836020828501011115610aa757600080fd5b80356001600160a01b0381168114610b0657600080fd5b919050565b803563ffffffff81168114610b0657600080fd5b60008060008060008060008060008060e08b8d031215610b3e57600080fd5b8a356001600160401b0380821115610b5557600080fd5b610b618e838f01610a4b565b9b5060208d0135915080821115610b7757600080fd5b610b838e838f01610a63565b909b50995060408d0135915080821115610b9c57600080fd5b610ba88e838f01610a63565b909950975060608d0135965060808d0135915080821115610bc857600080fd5b50610bd58d828e01610aae565b9095509350610be8905060a08c01610aef565b9150610bf660c08c01610b0b565b90509295989b9194979a5092959850565b6020808252825182820181905260009190848201906040850190845b81811015610c3f57835183529284019291840191600101610c23565b50909695505050505050565b60008083601f840112610c5d57600080fd5b5081356001600160401b03811115610c7457600080fd5b6020830191508360208260051b8501011115610aa757600080fd5b600080600080600060608688031215610ca757600080fd5b85356001600160401b0380821115610cbe57600080fd5b610cca89838a01610c4b565b90975095506020880135915080821115610ce357600080fd5b50610cf088828901610c4b565b9094509250610d03905060408701610aef565b90509295509295909350565b60008060008060008060008060a0898b031215610d2b57600080fd5b88356001600160401b0380821115610d4257600080fd5b610d4e8c838d01610a63565b909a50985060208b0135915080821115610d6757600080fd5b610d738c838d01610a63565b909850965060408b0135955060608b0135915080821115610d9357600080fd5b50610da08b828c01610aae565b9094509250610db3905060808a01610aef565b90509295985092959890939650565b600060208284031215610dd457600080fd5b610ddd82610b0b565b9392505050565b60008060208385031215610df757600080fd5b82356001600160401b03811115610e0d57600080fd5b610e1985828601610c4b565b90969095509350505050565b600060e08284031215610a5d57600080fd5b60008060008060006101408688031215610e5057600080fd5b610e5a8787610e25565b945060e08601356001600160401b03811115610e7557600080fd5b610e8188828901610aae565b9095509350610e9590506101008701610aef565b9150610d036101208701610b0b565b60008060408385031215610eb757600080fd5b610ec083610aef565b9150610ece60208401610aef565b90509250929050565b600080600060608486031215610eec57600080fd5b610ef584610aef565b9250610f0360208501610aef565b9150604084013590509250925092565b600080600080600080600080600060c08a8c031215610f3157600080fd5b89356001600160401b0380821115610f4857600080fd5b610f548d838e01610a63565b909b50995060208c0135915080821115610f6d57600080fd5b610f798d838e01610a63565b909950975060408c0135965060608c0135915080821115610f9957600080fd5b50610fa68c828d01610aae565b9095509350610fb9905060808b01610aef565b9150610fc760a08b01610b0b565b90509295985092959850929598565b6000806000806000806101608789031215610ff057600080fd5b86356001600160401b038082111561100757600080fd5b6110138a838b01610a4b565b97506110228a60208b01610e25565b965061010089013591508082111561103957600080fd5b5061104689828a01610aae565b909550935061105a90506101208801610aef565b91506110696101408801610b0b565b90509295509295509295565b60006020828403121561108757600080fd5b5035919050565b6000806000606084860312156110a357600080fd5b6110ac84610b0b565b925060208401356001600160401b03811681146110c857600080fd5b91506110d660408501610aef565b90509250925092565b6000602082840312156110f157600080fd5b610ddd82610aef565b60208082526017908201527f4e6f7420696d706c656d656e74656420696e206d6f636b000000000000000000604082015260600190565b634e487b7160e01b600052603260045260246000fd5b634e487b7160e01b600052601160045260246000fd5b60006001820161116f5761116f611147565b5060010190565b808202811582820484141761118d5761118d611147565b92915050565b6000826111b057634e487b7160e01b600052601260045260246000fd5b50049056fea2646970667358221220972b73ccb51eee550f16d1113e97f2a1c3ed9ce0859385cd6a7090f316538af764736f6c63430008140033",
  "devdoc": {
    "details": "Allows setting exchange rates between tokens and simulates swaps",
    "errors": {
      "OwnableInvalidOwner(address)": [
        {
          "details": "The owner is not a valid owner account. (eg. `address(0)`)"
        }
      ],
      "OwnableUnauthorizedAccount(address)": [
        {
          "details": "The caller account is not authorized to perform an operation."
        }
      ],
      "SafeERC20FailedOperation(address)": [
        {
          "details": "An operation with an ERC-20 token failed."
        }
      ]
    },
    "kind": "dev",
    "methods": {
      "setExchangeRate(address,address,uint256)": {
        "params": {
          "rate": "Exchange rate (1 token1 = rate token2)",
          "token1": "First token address",
          "token2": "Second token address"
        }
      },
      "swap((address,uint256,address,address,uint256,uint256,address),bytes,address,uint32)": {
        "params": {
          "executor": "Not used in mock",
          "pathDefinition": "Not used in mock",
          "referralCode": "Referral code",
          "tokenInfo": "Swap token information"
        }
      }
    },
    "title": "OdosRouterV2Mock",
    "version": 1
  },
  "userdoc": {
    "kind": "user",
    "methods": {
      "referralLookup(uint32)": {
        "notice": "Get referral information"
      },
      "registerReferralCode(uint32,uint64,address)": {
        "notice": "Register a referral code with fee and beneficiary"
      },
      "setExchangeRate(address,address,uint256)": {
        "notice": "Sets the exchange rate between two tokens"
      },
      "setSwapMultiFee(uint256)": {
        "notice": "Set swap multi fee"
      },
      "swap((address,uint256,address,address,uint256,uint256,address),bytes,address,uint32)": {
        "notice": "Main swap function implementation"
      }
    },
    "notice": "Mock implementation of OdosRouterV2 for testing purposes",
    "version": 1
  },
  "storageLayout": {
    "storage": [
      {
        "astId": 8,
        "contract": "contracts/testing/odos/OdosRouterV2Mock.sol:OdosRouterV2Mock",
        "label": "_owner",
        "offset": 0,
        "slot": "0",
        "type": "t_address"
      },
      {
        "astId": 6289,
        "contract": "contracts/testing/odos/OdosRouterV2Mock.sol:OdosRouterV2Mock",
        "label": "exchangeRates",
        "offset": 0,
        "slot": "1",
        "type": "t_mapping(t_address,t_mapping(t_address,t_uint256))"
      },
      {
        "astId": 6297,
        "contract": "contracts/testing/odos/OdosRouterV2Mock.sol:OdosRouterV2Mock",
        "label": "swapMultiFee",
        "offset": 0,
        "slot": "2",
        "type": "t_uint256"
      },
      {
        "astId": 6302,
        "contract": "contracts/testing/odos/OdosRouterV2Mock.sol:OdosRouterV2Mock",
        "label": "referrals",
        "offset": 0,
        "slot": "3",
        "type": "t_mapping(t_uint32,t_struct(ReferralInfo)6309_storage)"
      }
    ],
    "types": {
      "t_address": {
        "encoding": "inplace",
        "label": "address",
        "numberOfBytes": "20"
      },
      "t_bool": {
        "encoding": "inplace",
        "label": "bool",
        "numberOfBytes": "1"
      },
      "t_mapping(t_address,t_mapping(t_address,t_uint256))": {
        "encoding": "mapping",
        "key": "t_address",
        "label": "mapping(address => mapping(address => uint256))",
        "numberOfBytes": "32",
        "value": "t_mapping(t_address,t_uint256)"
      },
      "t_mapping(t_address,t_uint256)": {
        "encoding": "mapping",
        "key": "t_address",
        "label": "mapping(address => uint256)",
        "numberOfBytes": "32",
        "value": "t_uint256"
      },
      "t_mapping(t_uint32,t_struct(ReferralInfo)6309_storage)": {
        "encoding": "mapping",
        "key": "t_uint32",
        "label": "mapping(uint32 => struct OdosRouterV2Mock.ReferralInfo)",
        "numberOfBytes": "32",
        "value": "t_struct(ReferralInfo)6309_storage"
      },
      "t_struct(ReferralInfo)6309_storage": {
        "encoding": "inplace",
        "label": "struct OdosRouterV2Mock.ReferralInfo",
        "members": [
          {
            "astId": 6304,
            "contract": "contracts/testing/odos/OdosRouterV2Mock.sol:OdosRouterV2Mock",
            "label": "referralFee",
            "offset": 0,
            "slot": "0",
            "type": "t_uint64"
          },
          {
            "astId": 6306,
            "contract": "contracts/testing/odos/OdosRouterV2Mock.sol:OdosRouterV2Mock",
            "label": "beneficiary",
            "offset": 8,
            "slot": "0",
            "type": "t_address"
          },
          {
            "astId": 6308,
            "contract": "contracts/testing/odos/OdosRouterV2Mock.sol:OdosRouterV2Mock",
            "label": "registered",
            "offset": 28,
            "slot": "0",
            "type": "t_bool"
          }
        ],
        "numberOfBytes": "32"
      },
      "t_uint256": {
        "encoding": "inplace",
        "label": "uint256",
        "numberOfBytes": "32"
      },
      "t_uint32": {
        "encoding": "inplace",
        "label": "uint32",
        "numberOfBytes": "4"
      },
      "t_uint64": {
        "encoding": "inplace",
        "label": "uint64",
        "numberOfBytes": "8"
      }
    }
  }
}