{
  "address": "0xDFf9F7F574E723d8C60D036b6Ab5fC26144685b3",
  "abi": [
    {
      "inputs": [
        {
          "internalType": "contract IPoolAddressesProvider",
          "name": "addressesProvider",
          "type": "address"
        },
        {
          "internalType": "address",
          "name": "pool",
          "type": "address"
        },
        {
          "internalType": "contract IOdosRouterV2",
          "name": "_swapRouter",
          "type": "address"
        },
        {
          "internalType": "address",
          "name": "owner",
          "type": "address"
        }
      ],
      "stateMutability": "nonpayable",
      "type": "constructor"
    },
    {
      "inputs": [
        {
          "internalType": "address",
          "name": "caller",
          "type": "address"
        },
        {
          "internalType": "address",
          "name": "pool",
          "type": "address"
        }
      ],
      "name": "CallerMustBePool",
      "type": "error"
    },
    {
      "inputs": [
        {
          "internalType": "address",
          "name": "initiator",
          "type": "address"
        },
        {
          "internalType": "address",
          "name": "expectedInitiator",
          "type": "address"
        }
      ],
      "name": "InitiatorMustBeThis",
      "type": "error"
    },
    {
      "inputs": [
        {
          "internalType": "uint256",
          "name": "amountReceived",
          "type": "uint256"
        },
        {
          "internalType": "uint256",
          "name": "amountToRepay",
          "type": "uint256"
        }
      ],
      "name": "InsufficientAmountToRepay",
      "type": "error"
    },
    {
      "inputs": [
        {
          "internalType": "uint256",
          "name": "balance",
          "type": "uint256"
        },
        {
          "internalType": "uint256",
          "name": "required",
          "type": "uint256"
        }
      ],
      "name": "InsufficientBalanceBeforeSwap",
      "type": "error"
    },
    {
      "inputs": [
        {
          "internalType": "uint256",
          "name": "expected",
          "type": "uint256"
        },
        {
          "internalType": "uint256",
          "name": "actual",
          "type": "uint256"
        }
      ],
      "name": "InsufficientOutput",
      "type": "error"
    },
    {
      "inputs": [
        {
          "internalType": "uint256",
          "name": "actual",
          "type": "uint256"
        },
        {
          "internalType": "uint256",
          "name": "expected",
          "type": "uint256"
        }
      ],
      "name": "InsufficientOutputAmount",
      "type": "error"
    },
    {
      "inputs": [],
      "name": "SwapFailed",
      "type": "error"
    },
    {
      "anonymous": false,
      "inputs": [
        {
          "indexed": true,
          "internalType": "address",
          "name": "tokenIn",
          "type": "address"
        },
        {
          "indexed": true,
          "internalType": "address",
          "name": "tokenOut",
          "type": "address"
        },
        {
          "indexed": false,
          "internalType": "uint256",
          "name": "amountIn",
          "type": "uint256"
        },
        {
          "indexed": false,
          "internalType": "uint256",
          "name": "amountOut",
          "type": "uint256"
        }
      ],
      "name": "Bought",
      "type": "event"
    },
    {
      "anonymous": false,
      "inputs": [
        {
          "indexed": true,
          "internalType": "address",
          "name": "previousOwner",
          "type": "address"
        },
        {
          "indexed": true,
          "internalType": "address",
          "name": "newOwner",
          "type": "address"
        }
      ],
      "name": "OwnershipTransferred",
      "type": "event"
    },
    {
      "inputs": [],
      "name": "ADDRESSES_PROVIDER",
      "outputs": [
        {
          "internalType": "contract IPoolAddressesProvider",
          "name": "",
          "type": "address"
        }
      ],
      "stateMutability": "view",
      "type": "function"
    },
    {
      "inputs": [],
      "name": "POOL",
      "outputs": [
        {
          "internalType": "contract IPool",
          "name": "",
          "type": "address"
        }
      ],
      "stateMutability": "view",
      "type": "function"
    },
    {
      "inputs": [],
      "name": "owner",
      "outputs": [
        {
          "internalType": "address",
          "name": "",
          "type": "address"
        }
      ],
      "stateMutability": "view",
      "type": "function"
    },
    {
      "inputs": [],
      "name": "renounceOwnership",
      "outputs": [],
      "stateMutability": "nonpayable",
      "type": "function"
    },
    {
      "inputs": [
        {
          "internalType": "contract IERC20",
          "name": "token",
          "type": "address"
        }
      ],
      "name": "rescueTokens",
      "outputs": [],
      "stateMutability": "nonpayable",
      "type": "function"
    },
    {
      "inputs": [
        {
          "components": [
            {
              "internalType": "address",
              "name": "collateralAsset",
              "type": "address"
            },
            {
              "internalType": "uint256",
              "name": "collateralAmount",
              "type": "uint256"
            },
            {
              "internalType": "address",
              "name": "debtAsset",
              "type": "address"
            },
            {
              "internalType": "uint256",
              "name": "repayAmount",
              "type": "uint256"
            },
            {
              "internalType": "uint256",
              "name": "rateMode",
              "type": "uint256"
            },
            {
              "internalType": "address",
              "name": "user",
              "type": "address"
            },
            {
              "internalType": "uint256",
              "name": "minAmountToReceive",
              "type": "uint256"
            },
            {
              "internalType": "bytes",
              "name": "swapData",
              "type": "bytes"
            }
          ],
          "internalType": "struct IOdosRepayAdapter.RepayParams",
          "name": "repayParams",
          "type": "tuple"
        },
        {
          "components": [
            {
              "internalType": "contract IERC20WithPermit",
              "name": "aToken",
              "type": "address"
            },
            {
              "internalType": "uint256",
              "name": "value",
              "type": "uint256"
            },
            {
              "internalType": "uint256",
              "name": "deadline",
              "type": "uint256"
            },
            {
              "internalType": "uint8",
              "name": "v",
              "type": "uint8"
            },
            {
              "internalType": "bytes32",
              "name": "r",
              "type": "bytes32"
            },
            {
              "internalType": "bytes32",
              "name": "s",
              "type": "bytes32"
            }
          ],
          "internalType": "struct IBaseOdosAdapter.PermitInput",
          "name": "permitInput",
          "type": "tuple"
        }
      ],
      "name": "swapAndRepay",
      "outputs": [
        {
          "internalType": "uint256",
          "name": "",
          "type": "uint256"
        }
      ],
      "stateMutability": "nonpayable",
      "type": "function"
    },
    {
      "inputs": [],
      "name": "swapRouter",
      "outputs": [
        {
          "internalType": "contract IOdosRouterV2",
          "name": "",
          "type": "address"
        }
      ],
      "stateMutability": "view",
      "type": "function"
    },
    {
      "inputs": [
        {
          "internalType": "address",
          "name": "newOwner",
          "type": "address"
        }
      ],
      "name": "transferOwnership",
      "outputs": [],
      "stateMutability": "nonpayable",
      "type": "function"
    }
  ],
  "transactionHash": "0xbc13e10905a3f11fcf5d7c5d90cb7bd62088f1fe9bb482f811dbcc940be53003",
  "args": [
    "0x36C3Bd087C506Ccd270D0a7F1Da8e0F777225AbF",
    "0xd0fD722D7BD9e26Ac1E0CCe4B2d4BCa3aa03DB33",
    "0x11c76A082C61417449F9a3fbb900370569f8fc8F",
    "0xd2f775Ff2cD41bfe43C7A8c016eD10393553fe44"
  ],
  "numDeployments": 1,
  "solcInputHash": "7827d1d5ac7a0a3140349da2abac02f7",
  "bytecode": "0x60e06040523480156200001157600080fd5b506040516200184a3803806200184a8339810160408190526200003491620001ce565b8383838282600033600080546001600160a01b0319166001600160a01b0383169081178255604051929350916000805160206200182a833981519152908290a3506001600160a01b03918216608052811660a0521660c052506200009a905081620000a4565b5050505062000236565b6000546001600160a01b03163314620001045760405162461bcd60e51b815260206004820181905260248201527f4f776e61626c653a2063616c6c6572206973206e6f7420746865206f776e657260448201526064015b60405180910390fd5b6001600160a01b0381166200016b5760405162461bcd60e51b815260206004820152602660248201527f4f776e61626c653a206e6577206f776e657220697320746865207a65726f206160448201526564647265737360d01b6064820152608401620000fb565b600080546040516001600160a01b03808516939216916000805160206200182a83398151915291a3600080546001600160a01b0319166001600160a01b0392909216919091179055565b6001600160a01b0381168114620001cb57600080fd5b50565b60008060008060808587031215620001e557600080fd5b8451620001f281620001b5565b60208601519094506200020581620001b5565b60408601519093506200021881620001b5565b60608601519092506200022b81620001b5565b939692955090935050565b60805160a05160c051611595620002956000396000818161014b01526108d401526000818160f201528181610378015281816107b80152818161097d01528181610a0d01528181610a420152610b630152600060a601526115956000f3fe608060405234801561001057600080fd5b50600436106100875760003560e01c80638b5a63221161005b5780638b5a6322146101145780638da5cb5b14610135578063c31c9c0714610146578063f2fde38b1461016d57600080fd5b8062ae3bf81461008c5780630542975c146100a1578063715018a6146100e55780637535d246146100ed575b600080fd5b61009f61009a366004611015565b610180565b005b6100c87f000000000000000000000000000000000000000000000000000000000000000081565b6040516001600160a01b0390911681526020015b60405180910390f35b61009f610244565b6100c87f000000000000000000000000000000000000000000000000000000000000000081565b6101276101223660046111c7565b6102b8565b6040519081526020016100dc565b6000546001600160a01b03166100c8565b6100c87f000000000000000000000000000000000000000000000000000000000000000081565b61009f61017b366004611015565b61047c565b6000546001600160a01b031633146101b35760405162461bcd60e51b81526004016101aa906112a4565b60405180910390fd5b6102416101c86000546001600160a01b031690565b6040516370a0823160e01b81523060048201526001600160a01b038416906370a0823190602401602060405180830381865afa15801561020c573d6000803e3d6000fd5b505050506040513d601f19601f8201168201806040525081019061023091906112d9565b6001600160a01b0384169190610566565b50565b6000546001600160a01b0316331461026e5760405162461bcd60e51b81526004016101aa906112a4565b600080546040516001600160a01b03909116907f8be0079c531659141344cd1fd0a4f28419497f9722a3daafe3b4186f6b6457e0908390a3600080546001600160a01b0319169055565b815160408301516020840151600092919083906102d99084903390886105ce565b905060006102f28484848a60c001518b60e00151610833565b905086606001518110156103295760608701516040516338135d1760e11b81526101aa918391600401918252602082015260400190565b6103338382610960565b6060870151608088015160a089015160405163573ade8160e01b81526001600160a01b03878116600483015260248201949094526044810192909252821660648201527f00000000000000000000000000000000000000000000000000000000000000009091169063573ade81906084016020604051808303816000875af11580156103c3573d6000803e3d6000fd5b505050506040513d601f19601f820116820180604052508101906103e791906112d9565b506040516370a0823160e01b81523060048201526000906001600160a01b038516906370a0823190602401602060405180830381865afa15801561042f573d6000803e3d6000fd5b505050506040513d601f19601f8201168201806040525081019061045391906112d9565b9050801561046f5761046f6001600160a01b0385163383610566565b5093505050505b92915050565b6000546001600160a01b031633146104a65760405162461bcd60e51b81526004016101aa906112a4565b6001600160a01b03811661050b5760405162461bcd60e51b815260206004820152602660248201527f4f776e61626c653a206e6577206f776e657220697320746865207a65726f206160448201526564647265737360d01b60648201526084016101aa565b600080546040516001600160a01b03808516939216917f8be0079c531659141344cd1fd0a4f28419497f9722a3daafe3b4186f6b6457e091a3600080546001600160a01b0319166001600160a01b0392909216919091179055565b6040516001600160a01b0383166024820152604481018290526105c990849063a9059cbb60e01b906064015b60408051601f198184030181529190526020810180516001600160e01b03166001600160e01b031990931692909217909152610a69565b505050565b6000816040015160001461068057815160208301516040808501516060860151608087015160a0880151935163d505accf60e01b81526001600160a01b038b811660048301523060248301526044820196909652606481019390935260ff909116608483015260a482015260c481019190915291169063d505accf9060e401600060405180830381600087803b15801561066757600080fd5b505af115801561067b573d6000803e3d6000fd5b505050505b600061068b86610b3b565b6040516370a0823160e01b8152306004820152909350600092506001600160a01b03841691506370a0823190602401602060405180830381865afa1580156106d7573d6000803e3d6000fd5b505050506040513d601f19601f820116820180604052508101906106fb91906112d9565b90506107126001600160a01b038316873088610bef565b6040516370a0823160e01b815230600482015260009082906001600160a01b038516906370a0823190602401602060405180830381865afa15801561075b573d6000803e3d6000fd5b505050506040513d601f19601f8201168201806040525081019061077f91906112d9565b61078991906112f2565b604051631a4ca37b60e21b81526001600160a01b038a81166004830152602482018390523060448301529192507f0000000000000000000000000000000000000000000000000000000000000000909116906369328dec906064016020604051808303816000875af1158015610803573d6000803e3d6000fd5b505050506040513d601f19601f8201168201806040525081019061082791906112d9565b50979650505050505050565b6040516370a0823160e01b815230600482015260009081906001600160a01b038816906370a0823190602401602060405180830381865afa15801561087c573d6000803e3d6000fd5b505050506040513d601f19601f820116820180604052508101906108a091906112d9565b9050848110156108cd5760405163b6554a4960e01b815260048101829052602481018690526044016101aa565b86866108fc7f000000000000000000000000000000000000000000000000000000000000000083898989610c2d565b9350806001600160a01b0316826001600160a01b03167fbf77fd13a39d14dc0da779342c14105c38d9a5d0c60f2caa22f5fd1d5525416d898760405161094c929190918252602082015260400190565b60405180910390a350505095945050505050565b604051636eb1769f60e11b81523060048201526001600160a01b037f0000000000000000000000000000000000000000000000000000000000000000811660248301526000919084169063dd62ed3e90604401602060405180830381865afa1580156109d0573d6000803e3d6000fd5b505050506040513d601f19601f820116820180604052508101906109f491906112d9565b9050818110156105c957610a336001600160a01b0384167f00000000000000000000000000000000000000000000000000000000000000006000610d71565b6105c96001600160a01b0384167f0000000000000000000000000000000000000000000000000000000000000000600019610d71565b6000610abe826040518060400160405280602081526020017f5361666545524332303a206c6f772d6c6576656c2063616c6c206661696c6564815250856001600160a01b0316610e869092919063ffffffff16565b8051909150156105c95780806020019051810190610adc9190611313565b6105c95760405162461bcd60e51b815260206004820152602a60248201527f5361666545524332303a204552433230206f7065726174696f6e20646964206e6044820152691bdd081cdd58d8d9595960b21b60648201526084016101aa565b6040516335ea6a7560e01b81526001600160a01b0382811660048301526000918291829182917f000000000000000000000000000000000000000000000000000000000000000016906335ea6a75906024016101e060405180830381865afa158015610bab573d6000803e3d6000fd5b505050506040513d601f19601f82011682018060405250810190610bcf91906113c9565b610140810151610120820151610100909201519097919650945092505050565b6040516001600160a01b0380851660248301528316604482015260648101829052610c279085906323b872dd60e01b90608401610592565b50505050565b60405163095ea7b360e01b81526001600160a01b038681166004830152602482018590526000919086169063095ea7b3906044016020604051808303816000875af1158015610c80573d6000803e3d6000fd5b505050506040513d601f19601f82011682018060405250810190610ca49190611313565b50600080876001600160a01b031684604051610cc09190611510565b6000604051808303816000865af19150503d8060008114610cfd576040519150601f19603f3d011682016040523d82523d6000602084013e610d02565b606091505b509150915081610d3557805115610d1c5780518082602001fd5b60405163081ceff360e41b815260040160405180910390fd5b602081015185811015610d6557604051630583371760e31b815260048101879052602481018290526044016101aa565b98975050505050505050565b801580610deb5750604051636eb1769f60e11b81523060048201526001600160a01b03838116602483015284169063dd62ed3e90604401602060405180830381865afa158015610dc5573d6000803e3d6000fd5b505050506040513d601f19601f82011682018060405250810190610de991906112d9565b155b610e565760405162461bcd60e51b815260206004820152603660248201527f5361666545524332303a20617070726f76652066726f6d206e6f6e2d7a65726f60448201527520746f206e6f6e2d7a65726f20616c6c6f77616e636560501b60648201526084016101aa565b6040516001600160a01b0383166024820152604481018290526105c990849063095ea7b360e01b90606401610592565b6060610e958484600085610e9f565b90505b9392505050565b606082471015610f005760405162461bcd60e51b815260206004820152602660248201527f416464726573733a20696e73756666696369656e742062616c616e636520666f6044820152651c8818d85b1b60d21b60648201526084016101aa565b843b610f4e5760405162461bcd60e51b815260206004820152601d60248201527f416464726573733a2063616c6c20746f206e6f6e2d636f6e747261637400000060448201526064016101aa565b600080866001600160a01b03168587604051610f6a9190611510565b60006040518083038185875af1925050503d8060008114610fa7576040519150601f19603f3d011682016040523d82523d6000602084013e610fac565b606091505b5091509150610fbc828286610fc7565b979650505050505050565b60608315610fd6575081610e98565b825115610fe65782518084602001fd5b8160405162461bcd60e51b81526004016101aa919061152c565b6001600160a01b038116811461024157600080fd5b60006020828403121561102757600080fd5b8135610e9881611000565b634e487b7160e01b600052604160045260246000fd5b604051610100810167ffffffffffffffff8111828210171561106c5761106c611032565b60405290565b6040516101e0810167ffffffffffffffff8111828210171561106c5761106c611032565b80356110a181611000565b919050565b600082601f8301126110b757600080fd5b813567ffffffffffffffff808211156110d2576110d2611032565b604051601f8301601f19908116603f011681019082821181831017156110fa576110fa611032565b8160405283815286602085880101111561111357600080fd5b836020870160208301376000602085830101528094505050505092915050565b600060c0828403121561114557600080fd5b60405160c0810181811067ffffffffffffffff8211171561116857611168611032565b604052905080823561117981611000565b808252506020830135602082015260408301356040820152606083013560ff811681146111a557600080fd5b806060830152506080830135608082015260a083013560a08201525092915050565b60008060e083850312156111da57600080fd5b823567ffffffffffffffff808211156111f257600080fd5b90840190610100828703121561120757600080fd5b61120f611048565b61121883611096565b81526020830135602082015261123060408401611096565b6040820152606083013560608201526080830135608082015261125560a08401611096565b60a082015260c083013560c082015260e08301358281111561127657600080fd5b611282888286016110a6565b60e08301525080945050505061129b8460208501611133565b90509250929050565b6020808252818101527f4f776e61626c653a2063616c6c6572206973206e6f7420746865206f776e6572604082015260600190565b6000602082840312156112eb57600080fd5b5051919050565b8181038181111561047657634e487b7160e01b600052601160045260246000fd5b60006020828403121561132557600080fd5b81518015158114610e9857600080fd5b60006020828403121561134757600080fd5b6040516020810181811067ffffffffffffffff8211171561136a5761136a611032565b6040529151825250919050565b80516fffffffffffffffffffffffffffffffff811681146110a157600080fd5b805164ffffffffff811681146110a157600080fd5b805161ffff811681146110a157600080fd5b80516110a181611000565b60006101e082840312156113dc57600080fd5b6113e4611072565b6113ee8484611335565b81526113fc60208401611377565b602082015261140d60408401611377565b604082015261141e60608401611377565b606082015261142f60808401611377565b608082015261144060a08401611377565b60a082015261145160c08401611397565b60c082015261146260e084016113ac565b60e08201526101006114758185016113be565b908201526101206114878482016113be565b908201526101406114998482016113be565b908201526101606114ab8482016113be565b908201526101806114bd848201611377565b908201526101a06114cf848201611377565b908201526101c06114e1848201611377565b908201529392505050565b60005b838110156115075781810151838201526020016114ef565b50506000910152565b600082516115228184602087016114ec565b9190910192915050565b602081526000825180602084015261154b8160408501602087016114ec565b601f01601f1916919091016040019291505056fea2646970667358221220dd33c3bf40b2cea6007d64fdf37f47ae2b9ae8a0084090be9843e77bb8e45a5064736f6c634300081400338be0079c531659141344cd1fd0a4f28419497f9722a3daafe3b4186f6b6457e0",
  "devdoc": {
    "errors": {
      "CallerMustBePool(address,address)": [
        {
          "details": "Thrown when the caller is not the pool",
          "params": {
            "caller": "The actual caller",
            "pool": "The expected pool"
          }
        }
      ],
      "InitiatorMustBeThis(address,address)": [
        {
          "details": "Thrown when the initiator is not the expected initiator",
          "params": {
            "expectedInitiator": "The expected initiator",
            "initiator": "The actual initiator"
          }
        }
      ],
      "InsufficientAmountToRepay(uint256,uint256)": [
        {
          "details": "Custom error for insufficient amount to repay",
          "params": {
            "amountReceived": "The amount received from the swap",
            "amountToRepay": "The amount needed to repay"
          }
        }
      ],
      "InsufficientBalanceBeforeSwap(uint256,uint256)": [
        {
          "details": "Thrown when the balance before swap is insufficient",
          "params": {
            "balance": "The actual balance",
            "required": "The required balance"
          }
        }
      ],
      "InsufficientOutputAmount(uint256,uint256)": [
        {
          "details": "Thrown when the output amount is less than the minimum expected",
          "params": {
            "actual": "The actual output amount",
            "expected": "The minimum expected output amount"
          }
        }
      ]
    },
    "events": {
      "Bought(address,address,uint256,uint256)": {
        "details": "Emitted when a token is bought on Odos",
        "params": {
          "amountIn": "The amount of tokens sold",
          "amountOut": "The amount of tokens bought",
          "tokenIn": "The address of the token sold",
          "tokenOut": "The address of the token bought"
        }
      }
    },
    "kind": "dev",
    "methods": {
      "owner()": {
        "details": "Returns the address of the current owner."
      },
      "renounceOwnership()": {
        "details": "Leaves the contract without owner. It will not be possible to call `onlyOwner` functions anymore. Can only be called by the current owner. NOTE: Renouncing ownership will leave the contract without an owner, thereby removing any functionality that is only available to the owner."
      },
      "rescueTokens(address)": {
        "details": "Emergency rescue for token stucked on this contract, as failsafe mechanism - Funds should never remain in this contract more time than during transactions - Only callable by the owner"
      },
      "swapAndRepay((address,uint256,address,uint256,uint256,address,uint256,bytes),(address,uint256,uint256,uint8,bytes32,bytes32))": {
        "details": "Swaps collateral for another asset with Odos, and uses that asset to repay a debt.",
        "params": {
          "permitInput": "The parameters of the permit signature, to approve collateral aToken",
          "repayParams": "The parameters of the repay"
        },
        "returns": {
          "_0": "the amount repaid"
        }
      },
      "transferOwnership(address)": {
        "details": "Transfers ownership of the contract to a new account (`newOwner`). Can only be called by the current owner."
      }
    },
    "title": "OdosRepayAdapter",
    "version": 1
  },
  "userdoc": {
    "errors": {
      "InsufficientOutput(uint256,uint256)": [
        {
          "notice": "Custom error when actual output amount is less than expected"
        }
      ],
      "SwapFailed()": [
        {
          "notice": "Custom error for failed swap with no revert reason"
        }
      ]
    },
    "kind": "user",
    "methods": {
      "ADDRESSES_PROVIDER()": {
        "notice": "The address of the Aave PoolAddressesProvider contract"
      },
      "POOL()": {
        "notice": "The address of the Aave Pool contract"
      },
      "swapRouter()": {
        "notice": "The address of the Odos Router"
      }
    },
    "notice": "Implements the logic for repaying a debt using a different asset as source",
    "version": 1
  },
  "storageLayout": {
    "storage": [
      {
        "astId": 919,
        "contract": "contracts/dlend/periphery/adapters/odos/OdosRepayAdapter.sol:OdosRepayAdapter",
        "label": "_owner",
        "offset": 0,
        "slot": "0",
        "type": "t_address"
      }
    ],
    "types": {
      "t_address": {
        "encoding": "inplace",
        "label": "address",
        "numberOfBytes": "20"
      }
    }
  }
}