{
  "address": "0xB50A4d44031eefB8232eC81B1E833D62D5002676",
  "abi": [
    {
      "inputs": [
        {
          "internalType": "contract IPoolAddressesProvider",
          "name": "addressesProvider",
          "type": "address"
        },
        {
          "internalType": "address",
          "name": "pool",
          "type": "address"
        },
        {
          "internalType": "contract IOdosRouterV2",
          "name": "_swapRouter",
          "type": "address"
        },
        {
          "internalType": "address",
          "name": "owner",
          "type": "address"
        }
      ],
      "stateMutability": "nonpayable",
      "type": "constructor"
    },
    {
      "inputs": [
        {
          "internalType": "address",
          "name": "caller",
          "type": "address"
        },
        {
          "internalType": "address",
          "name": "pool",
          "type": "address"
        }
      ],
      "name": "CallerMustBePool",
      "type": "error"
    },
    {
      "inputs": [
        {
          "internalType": "uint256",
          "name": "estimated",
          "type": "uint256"
        },
        {
          "internalType": "uint256",
          "name": "maximum",
          "type": "uint256"
        }
      ],
      "name": "EstimatedAmountExceedsMaximum",
      "type": "error"
    },
    {
      "inputs": [
        {
          "internalType": "address",
          "name": "initiator",
          "type": "address"
        },
        {
          "internalType": "address",
          "name": "expectedInitiator",
          "type": "address"
        }
      ],
      "name": "InitiatorMustBeThis",
      "type": "error"
    },
    {
      "inputs": [
        {
          "internalType": "uint256",
          "name": "balance",
          "type": "uint256"
        },
        {
          "internalType": "uint256",
          "name": "required",
          "type": "uint256"
        }
      ],
      "name": "InsufficientBalanceBeforeSwap",
      "type": "error"
    },
    {
      "inputs": [
        {
          "internalType": "uint256",
          "name": "expected",
          "type": "uint256"
        },
        {
          "internalType": "uint256",
          "name": "actual",
          "type": "uint256"
        }
      ],
      "name": "InsufficientOutput",
      "type": "error"
    },
    {
      "inputs": [
        {
          "internalType": "uint256",
          "name": "actual",
          "type": "uint256"
        },
        {
          "internalType": "uint256",
          "name": "expected",
          "type": "uint256"
        }
      ],
      "name": "InsufficientOutputAmount",
      "type": "error"
    },
    {
      "inputs": [],
      "name": "SwapFailed",
      "type": "error"
    },
    {
      "anonymous": false,
      "inputs": [
        {
          "indexed": true,
          "internalType": "address",
          "name": "tokenIn",
          "type": "address"
        },
        {
          "indexed": true,
          "internalType": "address",
          "name": "tokenOut",
          "type": "address"
        },
        {
          "indexed": false,
          "internalType": "uint256",
          "name": "amountIn",
          "type": "uint256"
        },
        {
          "indexed": false,
          "internalType": "uint256",
          "name": "amountOut",
          "type": "uint256"
        }
      ],
      "name": "Bought",
      "type": "event"
    },
    {
      "anonymous": false,
      "inputs": [
        {
          "indexed": true,
          "internalType": "address",
          "name": "previousOwner",
          "type": "address"
        },
        {
          "indexed": true,
          "internalType": "address",
          "name": "newOwner",
          "type": "address"
        }
      ],
      "name": "OwnershipTransferred",
      "type": "event"
    },
    {
      "inputs": [],
      "name": "ADDRESSES_PROVIDER",
      "outputs": [
        {
          "internalType": "contract IPoolAddressesProvider",
          "name": "",
          "type": "address"
        }
      ],
      "stateMutability": "view",
      "type": "function"
    },
    {
      "inputs": [],
      "name": "POOL",
      "outputs": [
        {
          "internalType": "contract IPool",
          "name": "",
          "type": "address"
        }
      ],
      "stateMutability": "view",
      "type": "function"
    },
    {
      "inputs": [],
      "name": "REFERRER",
      "outputs": [
        {
          "internalType": "uint16",
          "name": "",
          "type": "uint16"
        }
      ],
      "stateMutability": "view",
      "type": "function"
    },
    {
      "inputs": [
        {
          "internalType": "address[]",
          "name": "assets",
          "type": "address[]"
        },
        {
          "internalType": "uint256[]",
          "name": "amounts",
          "type": "uint256[]"
        },
        {
          "internalType": "uint256[]",
          "name": "premiums",
          "type": "uint256[]"
        },
        {
          "internalType": "address",
          "name": "initiator",
          "type": "address"
        },
        {
          "internalType": "bytes",
          "name": "params",
          "type": "bytes"
        }
      ],
      "name": "executeOperation",
      "outputs": [
        {
          "internalType": "bool",
          "name": "",
          "type": "bool"
        }
      ],
      "stateMutability": "nonpayable",
      "type": "function"
    },
    {
      "inputs": [],
      "name": "owner",
      "outputs": [
        {
          "internalType": "address",
          "name": "",
          "type": "address"
        }
      ],
      "stateMutability": "view",
      "type": "function"
    },
    {
      "inputs": [],
      "name": "renounceOwnership",
      "outputs": [],
      "stateMutability": "nonpayable",
      "type": "function"
    },
    {
      "inputs": [
        {
          "internalType": "contract IERC20",
          "name": "token",
          "type": "address"
        }
      ],
      "name": "rescueTokens",
      "outputs": [],
      "stateMutability": "nonpayable",
      "type": "function"
    },
    {
      "inputs": [
        {
          "components": [
            {
              "internalType": "address",
              "name": "debtAsset",
              "type": "address"
            },
            {
              "internalType": "uint256",
              "name": "debtRepayAmount",
              "type": "uint256"
            },
            {
              "internalType": "uint256",
              "name": "debtRateMode",
              "type": "uint256"
            },
            {
              "internalType": "address",
              "name": "newDebtAsset",
              "type": "address"
            },
            {
              "internalType": "uint256",
              "name": "maxNewDebtAmount",
              "type": "uint256"
            },
            {
              "internalType": "address",
              "name": "extraCollateralAsset",
              "type": "address"
            },
            {
              "internalType": "uint256",
              "name": "extraCollateralAmount",
              "type": "uint256"
            },
            {
              "internalType": "bytes",
              "name": "swapData",
              "type": "bytes"
            }
          ],
          "internalType": "struct IOdosDebtSwapAdapter.DebtSwapParams",
          "name": "debtSwapParams",
          "type": "tuple"
        },
        {
          "components": [
            {
              "internalType": "address",
              "name": "debtToken",
              "type": "address"
            },
            {
              "internalType": "uint256",
              "name": "value",
              "type": "uint256"
            },
            {
              "internalType": "uint256",
              "name": "deadline",
              "type": "uint256"
            },
            {
              "internalType": "uint8",
              "name": "v",
              "type": "uint8"
            },
            {
              "internalType": "bytes32",
              "name": "r",
              "type": "bytes32"
            },
            {
              "internalType": "bytes32",
              "name": "s",
              "type": "bytes32"
            }
          ],
          "internalType": "struct IOdosDebtSwapAdapter.CreditDelegationInput",
          "name": "creditDelegationPermit",
          "type": "tuple"
        },
        {
          "components": [
            {
              "internalType": "contract IERC20WithPermit",
              "name": "aToken",
              "type": "address"
            },
            {
              "internalType": "uint256",
              "name": "value",
              "type": "uint256"
            },
            {
              "internalType": "uint256",
              "name": "deadline",
              "type": "uint256"
            },
            {
              "internalType": "uint8",
              "name": "v",
              "type": "uint8"
            },
            {
              "internalType": "bytes32",
              "name": "r",
              "type": "bytes32"
            },
            {
              "internalType": "bytes32",
              "name": "s",
              "type": "bytes32"
            }
          ],
          "internalType": "struct IBaseOdosAdapter.PermitInput",
          "name": "collateralATokenPermit",
          "type": "tuple"
        }
      ],
      "name": "swapDebt",
      "outputs": [],
      "stateMutability": "nonpayable",
      "type": "function"
    },
    {
      "inputs": [],
      "name": "swapRouter",
      "outputs": [
        {
          "internalType": "contract IOdosRouterV2",
          "name": "",
          "type": "address"
        }
      ],
      "stateMutability": "view",
      "type": "function"
    },
    {
      "inputs": [
        {
          "internalType": "address",
          "name": "newOwner",
          "type": "address"
        }
      ],
      "name": "transferOwnership",
      "outputs": [],
      "stateMutability": "nonpayable",
      "type": "function"
    }
  ],
  "transactionHash": "0x966a58ce41abee0acf7414e74f43b852ae35462823aa81dbca422e6c3787a0f1",
  "args": [
    "0x36C3Bd087C506Ccd270D0a7F1Da8e0F777225AbF",
    "0xd0fD722D7BD9e26Ac1E0CCe4B2d4BCa3aa03DB33",
    "0x11c76A082C61417449F9a3fbb900370569f8fc8F",
    "0xd2f775Ff2cD41bfe43C7A8c016eD10393553fe44"
  ],
  "numDeployments": 1,
  "solcInputHash": "7827d1d5ac7a0a3140349da2abac02f7",
  "bytecode": "0x60e06040523480156200001157600080fd5b5060405162002e8e38038062002e8e833981016040819052620000349162000662565b8383838282600033600080546001600160a01b0319166001600160a01b03831690811782556040519293509160008051602062002e6e833981519152908290a3506001600160a01b03918216608052811660a0521660c0525050600180556200009d816200017a565b600060a0516001600160a01b031663d1946dbc6040518163ffffffff1660e01b8152600401600060405180830381865afa158015620000e0573d6000803e3d6000fd5b505050506040513d6000823e601f3d908101601f191682016040526200010a9190810190620006e0565b905060005b81518110156200016e576200015960a051600019848481518110620001385762000138620007b2565b60200260200101516001600160a01b03166200028b60201b9092919060201c565b806200016581620007c8565b9150506200010f565b505050505050620008a7565b6000546001600160a01b03163314620001da5760405162461bcd60e51b815260206004820181905260248201527f4f776e61626c653a2063616c6c6572206973206e6f7420746865206f776e657260448201526064015b60405180910390fd5b6001600160a01b038116620002415760405162461bcd60e51b815260206004820152602660248201527f4f776e61626c653a206e6577206f776e657220697320746865207a65726f206160448201526564647265737360d01b6064820152608401620001d1565b600080546040516001600160a01b038085169392169160008051602062002e6e83398151915291a3600080546001600160a01b0319166001600160a01b0392909216919091179055565b801580620003095750604051636eb1769f60e11b81523060048201526001600160a01b03838116602483015284169063dd62ed3e90604401602060405180830381865afa158015620002e1573d6000803e3d6000fd5b505050506040513d601f19601f82011682018060405250810190620003079190620007f0565b155b6200037d5760405162461bcd60e51b815260206004820152603660248201527f5361666545524332303a20617070726f76652066726f6d206e6f6e2d7a65726f60448201527f20746f206e6f6e2d7a65726f20616c6c6f77616e6365000000000000000000006064820152608401620001d1565b604080516001600160a01b038416602482015260448082018490528251808303909101815260649091019091526020810180516001600160e01b0390811663095ea7b360e01b17909152620003d5918591620003da16565b505050565b6040805180820190915260208082527f5361666545524332303a206c6f772d6c6576656c2063616c6c206661696c65649082015260009062000429906001600160a01b038516908490620004ab565b805190915015620003d557808060200190518101906200044a91906200080a565b620003d55760405162461bcd60e51b815260206004820152602a60248201527f5361666545524332303a204552433230206f7065726174696f6e20646964206e6044820152691bdd081cdd58d8d9595960b21b6064820152608401620001d1565b6060620004bc8484600085620004c6565b90505b9392505050565b606082471015620005295760405162461bcd60e51b815260206004820152602660248201527f416464726573733a20696e73756666696369656e742062616c616e636520666f6044820152651c8818d85b1b60d21b6064820152608401620001d1565b843b620005795760405162461bcd60e51b815260206004820152601d60248201527f416464726573733a2063616c6c20746f206e6f6e2d636f6e74726163740000006044820152606401620001d1565b600080866001600160a01b0316858760405162000597919062000854565b60006040518083038185875af1925050503d8060008114620005d6576040519150601f19603f3d011682016040523d82523d6000602084013e620005db565b606091505b509092509050620005ee828286620005f9565b979650505050505050565b606083156200060a575081620004bf565b8251156200061b5782518084602001fd5b8160405162461bcd60e51b8152600401620001d1919062000872565b6001600160a01b03811681146200064d57600080fd5b50565b80516200065d8162000637565b919050565b600080600080608085870312156200067957600080fd5b8451620006868162000637565b6020860151909450620006998162000637565b6040860151909350620006ac8162000637565b6060860151909250620006bf8162000637565b939692955090935050565b634e487b7160e01b600052604160045260246000fd5b60006020808385031215620006f457600080fd5b82516001600160401b03808211156200070c57600080fd5b818501915085601f8301126200072157600080fd5b815181811115620007365762000736620006ca565b8060051b604051601f19603f830116810181811085821117156200075e576200075e620006ca565b6040529182528482019250838101850191888311156200077d57600080fd5b938501935b82851015620007a657620007968562000650565b8452938501939285019262000782565b98975050505050505050565b634e487b7160e01b600052603260045260246000fd5b600060018201620007e957634e487b7160e01b600052601160045260246000fd5b5060010190565b6000602082840312156200080357600080fd5b5051919050565b6000602082840312156200081d57600080fd5b81518015158114620004bf57600080fd5b60005b838110156200084b57818101518382015260200162000831565b50506000910152565b60008251620008688184602087016200082e565b9190910192915050565b6020815260008251806020840152620008938160408501602087016200082e565b601f01601f19169190910160400192915050565b60805160a05160c0516125366200093860003960008181610192015261154901526000818161011b015281816106a4015281816107a20152818161096401528181610ae601528181610b4d01528181610bb601528181610c6801528181610d5d01528181610f0e015281816110a601528181611134015281816111c401526111f90152600060bc01526125366000f3fe608060405234801561001057600080fd5b506004361061009d5760003560e01c80638da5cb5b116100665780638da5cb5b1461013d578063920f5c841461014e578063c056037414610171578063c31c9c071461018d578063f2fde38b146101b457600080fd5b8062ae3bf8146100a25780630542975c146100b7578063271b767c146100fb578063715018a61461010e5780637535d24614610116575b600080fd5b6100b56100b03660046119f0565b6101c7565b005b6100de7f000000000000000000000000000000000000000000000000000000000000000081565b6040516001600160a01b0390911681526020015b60405180910390f35b6100b5610109366004611be7565b61028b565b6100b5610721565b6100de7f000000000000000000000000000000000000000000000000000000000000000081565b6000546001600160a01b03166100de565b61016161015c366004611d60565b610795565b60405190151581526020016100f2565b61017a61173081565b60405161ffff90911681526020016100f2565b6100de7f000000000000000000000000000000000000000000000000000000000000000081565b6100b56101c23660046119f0565b610d94565b6000546001600160a01b031633146101fa5760405162461bcd60e51b81526004016101f190611e7c565b60405180910390fd5b61028861020f6000546001600160a01b031690565b6040516370a0823160e01b81523060048201526001600160a01b038416906370a0823190602401602060405180830381865afa158015610253573d6000803e3d6000fd5b505050506040513d601f19601f820116820180604052508101906102779190611eb1565b6001600160a01b0384169190610e7e565b50565b60608301516040516370a0823160e01b81523060048201526000916001600160a01b0316906370a0823190602401602060405180830381865afa1580156102d6573d6000803e3d6000fd5b505050506040513d601f19601f820116820180604052508101906102fa9190611eb1565b9050826040015160001461038b5782600001516001600160a01b0316630b52d558333086602001518760400151886060015189608001518a60a001516040518863ffffffff1660e01b81526004016103589796959493929190611eca565b600060405180830381600087803b15801561037257600080fd5b505af1158015610386573d6000803e3d6000fd5b505050505b60008061039b8660000151610ee6565b50915091506000866040015160021461041b576040516370a0823160e01b81523360048201526001600160a01b038316906370a0823190602401602060405180830381865afa1580156103f2573d6000803e3d6000fd5b505050506040513d601f19601f820116820180604052508101906104169190611eb1565b610483565b6040516370a0823160e01b81523360048201526001600160a01b038416906370a0823190602401602060405180830381865afa15801561045f573d6000803e3d6000fd5b505050506040513d601f19601f820116820180604052508101906104839190611eb1565b9050808760200151111561049957602087018190525b6040805160e0808201835289516001600160a01b0390811683526020808c0151908401528a8401519383019390935260006060830181905260808301523360a080840191909152908a015160c0830152890151909116156105b8576040860151156105815785600001516001600160a01b031663d505accf333089602001518a604001518b606001518c608001518d60a001516040518863ffffffff1660e01b815260040161054e9796959493929190611eca565b600060405180830381600087803b15801561056857600080fd5b505af115801561057c573d6000803e3d6000fd5b505050505b6060808901516001600160a01b0316908201526080808901519082015260a088015160c08901516105b3918391610f9a565b6105cb565b6105cb8189606001518a60800151610f9a565b60608801516040516370a0823160e01b81523060048201526000916001600160a01b0316906370a0823190602401602060405180830381865afa158015610616573d6000803e3d6000fd5b505050506040513d601f19601f8201168201806040525081019061063a9190611eb1565b9050600086821161064c576000610656565b6106568783611f21565b905080156107155761066c8a6060015182611117565b60608a015160405163573ade8160e01b81526001600160a01b03918216600482015260248101839052600260448201523360648201527f00000000000000000000000000000000000000000000000000000000000000009091169063573ade81906084016020604051808303816000875af11580156106ef573d6000803e3d6000fd5b505050506040513d601f19601f820116820180604052508101906107139190611eb1565b505b50505050505050505050565b6000546001600160a01b0316331461074b5760405162461bcd60e51b81526004016101f190611e7c565b600080546040516001600160a01b03909116907f8be0079c531659141344cd1fd0a4f28419497f9722a3daafe3b4186f6b6457e0908390a3600080546001600160a01b0319169055565b6000336001600160a01b037f0000000000000000000000000000000000000000000000000000000000000000161461080f5760405162461bcd60e51b815260206004820152601760248201527f43616c6c6261636b206f6e6c792066726f6d20504f4f4c00000000000000000060448201526064016101f1565b6001600160a01b03831630146108675760405162461bcd60e51b815260206004820152601c60248201527f496e69746961746f72206f6e6c79207468697320636f6e74726163740000000060448201526064016101f1565b60008560008151811061087c5761087c611f3a565b6020026020010151905060008760008151811061089b5761089b611f3a565b602002602001015190506000866000815181106108ba576108ba611f3a565b6020026020010151836108cd9190611f50565b90506000858060200190518101906108e59190611fdf565b60608101519091506001600160a01b031615610b1a57600061090684610ee6565b925050506109328260a00151308460200151846001600160a01b0316611220909392919063ffffffff16565b6020820151604051631a4ca37b60e21b81526001600160a01b03868116600483015260248201929092523060448201527f0000000000000000000000000000000000000000000000000000000000000000909116906369328dec906064016020604051808303816000875af11580156109af573d6000803e3d6000fd5b505050506040513d601f19601f820116820180604052508101906109d39190611eb1565b5060006040518060e0016040528084600001516001600160a01b03168152602001846020015181526020018460400151815260200160006001600160a01b03168152602001600081526020018460a001516001600160a01b031681526020018460c001518152509050610a4f836060015184608001518361125e565b6040516370a0823160e01b815230600482015284906001600160a01b038716906370a0823190602401602060405180830381865afa158015610a95573d6000803e3d6000fd5b505050506040513d601f19601f82011682018060405250810190610ab99190611eb1565b1015610ad75760405162461bcd60e51b81526004016101f19061209d565b610b0b6001600160a01b0386167f000000000000000000000000000000000000000000000000000000000000000086611304565b60019650505050505050610d8b565b610b338382600001518684602001518560c00151611419565b5060208101518151610b72916001600160a01b03909116907f000000000000000000000000000000000000000000000000000000000000000090611304565b8051602082015160408084015160a0850151915163573ade8160e01b81526001600160a01b03948516600482015260248101939093526044830152821660648201527f00000000000000000000000000000000000000000000000000000000000000009091169063573ade81906084016020604051808303816000875af1158015610c01573d6000803e3d6000fd5b505050506040513d601f19601f82011682018060405250810190610c259190611eb1565b5060a081015160405163a415bcad60e01b81526001600160a01b0385811660048301526024820185905260026044830152611730606483015291821660848201527f00000000000000000000000000000000000000000000000000000000000000009091169063a415bcad9060a401600060405180830381600087803b158015610cae57600080fd5b505af1158015610cc2573d6000803e3d6000fd5b50506040516370a0823160e01b81523060048201528492506001600160a01b03861691506370a0823190602401602060405180830381865afa158015610d0c573d6000803e3d6000fd5b505050506040513d601f19601f82011682018060405250810190610d309190611eb1565b1015610d4e5760405162461bcd60e51b81526004016101f19061209d565b610d826001600160a01b0384167f000000000000000000000000000000000000000000000000000000000000000084611304565b60019450505050505b95945050505050565b6000546001600160a01b03163314610dbe5760405162461bcd60e51b81526004016101f190611e7c565b6001600160a01b038116610e235760405162461bcd60e51b815260206004820152602660248201527f4f776e61626c653a206e6577206f776e657220697320746865207a65726f206160448201526564647265737360d01b60648201526084016101f1565b600080546040516001600160a01b03808516939216917f8be0079c531659141344cd1fd0a4f28419497f9722a3daafe3b4186f6b6457e091a3600080546001600160a01b0319166001600160a01b0392909216919091179055565b6040516001600160a01b038316602482015260448101829052610ee190849063a9059cbb60e01b906064015b60408051601f198184030181529190526020810180516001600160e01b03166001600160e01b03199093169290921790915261164b565b505050565b6040516335ea6a7560e01b81526001600160a01b0382811660048301526000918291829182917f000000000000000000000000000000000000000000000000000000000000000016906335ea6a75906024016101e060405180830381865afa158015610f56573d6000803e3d6000fd5b505050506040513d601f19601f82011682018060405250810190610f7a919061216c565b610140810151610120820151610100909201519097919650945092505050565b600083604051602001610fad91906122bb565b60408051601f198184030181526001808452838301909252925060009190602080830190803683370190505090508381600081518110610fef57610fef611f3a565b6001600160a01b039290921660209283029190910190910152604080516001808252818301909252600091816020016020820280368337019050509050838160008151811061104057611040611f3a565b602090810291909101015260408051600180825281830190925260009181602001602082028036833701905050905060008160008151811061108457611084611f3a565b602090810291909101015260405163ab9c4b5d60e01b81526001600160a01b037f0000000000000000000000000000000000000000000000000000000000000000169063ab9c4b5d906110e990309087908790879084908c906117309060040161235c565b600060405180830381600087803b15801561110357600080fd5b505af1158015610713573d6000803e3d6000fd5b604051636eb1769f60e11b81523060048201526001600160a01b037f0000000000000000000000000000000000000000000000000000000000000000811660248301526000919084169063dd62ed3e90604401602060405180830381865afa158015611187573d6000803e3d6000fd5b505050506040513d601f19601f820116820180604052508101906111ab9190611eb1565b905081811015610ee1576111ea6001600160a01b0384167f00000000000000000000000000000000000000000000000000000000000000006000611304565b610ee16001600160a01b0384167f0000000000000000000000000000000000000000000000000000000000000000600019611304565b6040516001600160a01b03808516602483015283166044820152606481018290526112589085906323b872dd60e01b90608401610eaa565b50505050565b60008160405160200161127191906122bb565b60408051601f1981840301815260018084528383019092529250600091906020808301908036833701905050905084816000815181106112b3576112b3611f3a565b6001600160a01b039290921660209283029190910190910152604080516001808252818301909252600091816020016020820280368337019050509050848160008151811061104057611040611f3a565b80158061137e5750604051636eb1769f60e11b81523060048201526001600160a01b03838116602483015284169063dd62ed3e90604401602060405180830381865afa158015611358573d6000803e3d6000fd5b505050506040513d601f19601f8201168201806040525081019061137c9190611eb1565b155b6113e95760405162461bcd60e51b815260206004820152603660248201527f5361666545524332303a20617070726f76652066726f6d206e6f6e2d7a65726f60448201527520746f206e6f6e2d7a65726f20616c6c6f77616e636560501b60648201526084016101f1565b6040516001600160a01b038316602482015260448101829052610ee190849063095ea7b360e01b90606401610eaa565b6040516370a0823160e01b815230600482015260009081906001600160a01b038816906370a0823190602401602060405180830381865afa158015611462573d6000803e3d6000fd5b505050506040513d601f19601f820116820180604052508101906114869190611eb1565b9050848110156114b35760405163b6554a4960e01b815260048101829052602481018690526044016101f1565b86866114c060648061240c565b6114cf9061ffff166064612432565b63ffffffff1660016114e260648061240c565b6114f19061ffff166064612432565b6114fb9190612452565b61150b9063ffffffff1689612476565b611515919061248d565b9350868411156115425760405163d20b95a560e01b815260048101859052602481018890526044016101f1565b60006115717f000000000000000000000000000000000000000000000000000000000000000084878a8a61171d565b6040516370a0823160e01b81523060048201529091506001600160a01b038b16906370a0823190602401602060405180830381865afa1580156115b8573d6000803e3d6000fd5b505050506040513d601f19601f820116820180604052508101906115dc9190611eb1565b6115e69085611f21565b9450816001600160a01b0316836001600160a01b03167fbf77fd13a39d14dc0da779342c14105c38d9a5d0c60f2caa22f5fd1d5525416d8784604051611636929190918252602082015260400190565b60405180910390a35050505095945050505050565b60006116a0826040518060400160405280602081526020017f5361666545524332303a206c6f772d6c6576656c2063616c6c206661696c6564815250856001600160a01b03166118619092919063ffffffff16565b805190915015610ee157808060200190518101906116be91906124af565b610ee15760405162461bcd60e51b815260206004820152602a60248201527f5361666545524332303a204552433230206f7065726174696f6e20646964206e6044820152691bdd081cdd58d8d9595960b21b60648201526084016101f1565b60405163095ea7b360e01b81526001600160a01b038681166004830152602482018590526000919086169063095ea7b3906044016020604051808303816000875af1158015611770573d6000803e3d6000fd5b505050506040513d601f19601f8201168201806040525081019061179491906124af565b50600080876001600160a01b0316846040516117b091906124d1565b6000604051808303816000865af19150503d80600081146117ed576040519150601f19603f3d011682016040523d82523d6000602084013e6117f2565b606091505b5091509150816118255780511561180c5780518082602001fd5b60405163081ceff360e41b815260040160405180910390fd5b60208101518581101561185557604051630583371760e31b815260048101879052602481018290526044016101f1565b98975050505050505050565b6060611870848460008561187a565b90505b9392505050565b6060824710156118db5760405162461bcd60e51b815260206004820152602660248201527f416464726573733a20696e73756666696369656e742062616c616e636520666f6044820152651c8818d85b1b60d21b60648201526084016101f1565b843b6119295760405162461bcd60e51b815260206004820152601d60248201527f416464726573733a2063616c6c20746f206e6f6e2d636f6e747261637400000060448201526064016101f1565b600080866001600160a01b0316858760405161194591906124d1565b60006040518083038185875af1925050503d8060008114611982576040519150601f19603f3d011682016040523d82523d6000602084013e611987565b606091505b50915091506119978282866119a2565b979650505050505050565b606083156119b1575081611873565b8251156119c15782518084602001fd5b8160405162461bcd60e51b81526004016101f191906124ed565b6001600160a01b038116811461028857600080fd5b600060208284031215611a0257600080fd5b8135611873816119db565b634e487b7160e01b600052604160045260246000fd5b604051610100810167ffffffffffffffff81118282101715611a4757611a47611a0d565b60405290565b60405160e0810167ffffffffffffffff81118282101715611a4757611a47611a0d565b6040516101e0810167ffffffffffffffff81118282101715611a4757611a47611a0d565b604051601f8201601f1916810167ffffffffffffffff81118282101715611abd57611abd611a0d565b604052919050565b8035611ad0816119db565b919050565b600067ffffffffffffffff821115611aef57611aef611a0d565b50601f01601f191660200190565b600082601f830112611b0e57600080fd5b8135611b21611b1c82611ad5565b611a94565b818152846020838601011115611b3657600080fd5b816020850160208301376000918101602001919091529392505050565b600060c08284031215611b6557600080fd5b60405160c0810181811067ffffffffffffffff82111715611b8857611b88611a0d565b6040529050808235611b99816119db565b808252506020830135602082015260408301356040820152606083013560ff81168114611bc557600080fd5b806060830152506080830135608082015260a083013560a08201525092915050565b60008060006101a08486031215611bfd57600080fd5b833567ffffffffffffffff80821115611c1557600080fd5b908501906101008288031215611c2a57600080fd5b611c32611a23565b611c3b83611ac5565b81526020830135602082015260408301356040820152611c5d60608401611ac5565b606082015260808301356080820152611c7860a08401611ac5565b60a082015260c083013560c082015260e083013582811115611c9957600080fd5b611ca589828601611afd565b60e083015250809550505050611cbe8560208601611b53565b9150611ccd8560e08601611b53565b90509250925092565b600067ffffffffffffffff821115611cf057611cf0611a0d565b5060051b60200190565b600082601f830112611d0b57600080fd5b81356020611d1b611b1c83611cd6565b82815260059290921b84018101918181019086841115611d3a57600080fd5b8286015b84811015611d555780358352918301918301611d3e565b509695505050505050565b600080600080600060a08688031215611d7857600080fd5b853567ffffffffffffffff80821115611d9057600080fd5b818801915088601f830112611da457600080fd5b81356020611db4611b1c83611cd6565b82815260059290921b8401810191818101908c841115611dd357600080fd5b948201945b83861015611dfa578535611deb816119db565b82529482019490820190611dd8565b99505089013592505080821115611e1057600080fd5b611e1c89838a01611cfa565b95506040880135915080821115611e3257600080fd5b611e3e89838a01611cfa565b9450611e4c60608901611ac5565b93506080880135915080821115611e6257600080fd5b50611e6f88828901611afd565b9150509295509295909350565b6020808252818101527f4f776e61626c653a2063616c6c6572206973206e6f7420746865206f776e6572604082015260600190565b600060208284031215611ec357600080fd5b5051919050565b6001600160a01b0397881681529590961660208601526040850193909352606084019190915260ff16608083015260a082015260c081019190915260e00190565b634e487b7160e01b600052601160045260246000fd5b81810381811115611f3457611f34611f0b565b92915050565b634e487b7160e01b600052603260045260246000fd5b80820180821115611f3457611f34611f0b565b8051611ad0816119db565b60005b83811015611f89578181015183820152602001611f71565b50506000910152565b600082601f830112611fa357600080fd5b8151611fb1611b1c82611ad5565b818152846020838601011115611fc657600080fd5b611fd7826020830160208701611f6e565b949350505050565b600060208284031215611ff157600080fd5b815167ffffffffffffffff8082111561200957600080fd5b9083019060e0828603121561201d57600080fd5b612025611a4d565b61202e83611f63565b8152602083015160208201526040830151604082015261205060608401611f63565b60608201526080830151608082015261206b60a08401611f63565b60a082015260c08301518281111561208257600080fd5b61208e87828601611f92565b60c08301525095945050505050565b60208082526026908201527f496e73756666696369656e7420616d6f756e7420746f20726570617920666c6160408201526539b43637b0b760d11b606082015260800190565b6000602082840312156120f557600080fd5b6040516020810181811067ffffffffffffffff8211171561211857612118611a0d565b6040529151825250919050565b80516fffffffffffffffffffffffffffffffff81168114611ad057600080fd5b805164ffffffffff81168114611ad057600080fd5b805161ffff81168114611ad057600080fd5b60006101e0828403121561217f57600080fd5b612187611a70565b61219184846120e3565b815261219f60208401612125565b60208201526121b060408401612125565b60408201526121c160608401612125565b60608201526121d260808401612125565b60808201526121e360a08401612125565b60a08201526121f460c08401612145565b60c082015261220560e0840161215a565b60e0820152610100612218818501611f63565b9082015261012061222a848201611f63565b9082015261014061223c848201611f63565b9082015261016061224e848201611f63565b90820152610180612260848201612125565b908201526101a0612272848201612125565b908201526101c0612284848201612125565b908201529392505050565b600081518084526122a7816020860160208601611f6e565b601f01601f19169290920160200192915050565b60208152600060018060a01b038084511660208401526020840151604084015260408401516060840152806060850151166080840152608084015160a08401528060a08501511660c08401525060c083015160e080840152611fd761010084018261228f565b600081518084526020808501945080840160005b8381101561235157815187529582019590820190600101612335565b509495945050505050565b6001600160a01b03888116825260e0602080840182905289519184018290526000928a820192909190610100860190855b818110156123ab57855185168352948301949183019160010161238d565b505085810360408701526123bf818c612321565b935050505082810360608401526123d68188612321565b6001600160a01b0387166080850152905082810360a08401526123f9818661228f565b91505061185560c083018461ffff169052565b61ffff81811683821602808216919082811461242a5761242a611f0b565b505092915050565b63ffffffff81811683821602808216919082811461242a5761242a611f0b565b63ffffffff81811683821601908082111561246f5761246f611f0b565b5092915050565b8082028115828204841417611f3457611f34611f0b565b6000826124aa57634e487b7160e01b600052601260045260246000fd5b500490565b6000602082840312156124c157600080fd5b8151801515811461187357600080fd5b600082516124e3818460208701611f6e565b9190910192915050565b602081526000611873602083018461228f56fea2646970667358221220d99de8ae00bed4dd0f841b4b905f9fd4f8e64a5cdb063d72f2271a123097f75264736f6c634300081400338be0079c531659141344cd1fd0a4f28419497f9722a3daafe3b4186f6b6457e0",
  "devdoc": {
    "errors": {
      "CallerMustBePool(address,address)": [
        {
          "details": "Thrown when the caller is not the pool",
          "params": {
            "caller": "The actual caller",
            "pool": "The expected pool"
          }
        }
      ],
      "InitiatorMustBeThis(address,address)": [
        {
          "details": "Thrown when the initiator is not the expected initiator",
          "params": {
            "expectedInitiator": "The expected initiator",
            "initiator": "The actual initiator"
          }
        }
      ],
      "InsufficientBalanceBeforeSwap(uint256,uint256)": [
        {
          "details": "Thrown when the balance before swap is insufficient",
          "params": {
            "balance": "The actual balance",
            "required": "The required balance"
          }
        }
      ],
      "InsufficientOutputAmount(uint256,uint256)": [
        {
          "details": "Thrown when the output amount is less than the minimum expected",
          "params": {
            "actual": "The actual output amount",
            "expected": "The minimum expected output amount"
          }
        }
      ]
    },
    "events": {
      "Bought(address,address,uint256,uint256)": {
        "details": "Emitted when a token is bought on Odos",
        "params": {
          "amountIn": "The amount of tokens sold",
          "amountOut": "The amount of tokens bought",
          "tokenIn": "The address of the token sold",
          "tokenOut": "The address of the token bought"
        }
      }
    },
    "kind": "dev",
    "methods": {
      "executeOperation(address[],uint256[],uint256[],address,bytes)": {
        "details": "Ensure that the contract can return the debt + premium, e.g., has      enough funds to repay and has approved the Pool to pull the total amount",
        "params": {
          "amounts": "The amounts of the flash-borrowed assets",
          "assets": "The addresses of the flash-borrowed assets",
          "initiator": "The address of the flashloan initiator",
          "params": "The byte-encoded params passed when initiating the flashloan",
          "premiums": "The fee of each flash-borrowed asset"
        },
        "returns": {
          "_0": "True if the execution of the operation succeeds, false otherwise"
        }
      },
      "owner()": {
        "details": "Returns the address of the current owner."
      },
      "renounceOwnership()": {
        "details": "Leaves the contract without owner. It will not be possible to call `onlyOwner` functions anymore. Can only be called by the current owner. NOTE: Renouncing ownership will leave the contract without an owner, thereby removing any functionality that is only available to the owner."
      },
      "rescueTokens(address)": {
        "details": "Emergency rescue for token stucked on this contract, as failsafe mechanism - Funds should never remain in this contract more time than during transactions - Only callable by the owner"
      },
      "swapDebt((address,uint256,uint256,address,uint256,address,uint256,bytes),(address,uint256,uint256,uint8,bytes32,bytes32),(address,uint256,uint256,uint8,bytes32,bytes32))": {
        "details": "Swaps one type of debt to another. Therefore this methods performs the following actions in order: 1. Delegate credit in new debt 2. Flashloan in new debt 3. swap new debt to old debt 4. repay old debt",
        "params": {
          "collateralATokenPermit": "optional permit for collateral aToken",
          "creditDelegationPermit": "optional permit for credit delegation",
          "debtSwapParams": "the parameters describing the swap"
        }
      },
      "transferOwnership(address)": {
        "details": "Transfers ownership of the contract to a new account (`newOwner`). Can only be called by the current owner."
      }
    },
    "title": "OdosDebtSwapAdapter",
    "version": 1
  },
  "userdoc": {
    "errors": {
      "InsufficientOutput(uint256,uint256)": [
        {
          "notice": "Custom error when actual output amount is less than expected"
        }
      ],
      "SwapFailed()": [
        {
          "notice": "Custom error for failed swap with no revert reason"
        }
      ]
    },
    "kind": "user",
    "methods": {
      "ADDRESSES_PROVIDER()": {
        "notice": "The address of the Aave PoolAddressesProvider contract"
      },
      "POOL()": {
        "notice": "The address of the Aave Pool contract"
      },
      "executeOperation(address[],uint256[],uint256[],address,bytes)": {
        "notice": "Executes an operation after receiving the flash-borrowed assets"
      },
      "swapRouter()": {
        "notice": "The address of the Odos Router"
      }
    },
    "notice": "Odos Adapter to perform a swap of debt to another debt.*",
    "version": 1
  },
  "storageLayout": {
    "storage": [
      {
        "astId": 919,
        "contract": "contracts/dlend/periphery/adapters/odos/OdosDebtSwapAdapter.sol:OdosDebtSwapAdapter",
        "label": "_owner",
        "offset": 0,
        "slot": "0",
        "type": "t_address"
      },
      {
        "astId": 5050,
        "contract": "contracts/dlend/periphery/adapters/odos/OdosDebtSwapAdapter.sol:OdosDebtSwapAdapter",
        "label": "_status",
        "offset": 0,
        "slot": "1",
        "type": "t_uint256"
      }
    ],
    "types": {
      "t_address": {
        "encoding": "inplace",
        "label": "address",
        "numberOfBytes": "20"
      },
      "t_uint256": {
        "encoding": "inplace",
        "label": "uint256",
        "numberOfBytes": "32"
      }
    }
  }
}