{
  "address": "0x7BbE2Fa47d999F240540ba54C5f587409098924d",
  "abi": [
    {
      "inputs": [
        {
          "internalType": "uint256",
          "name": "_baseCurrencyUnit",
          "type": "uint256"
        }
      ],
      "stateMutability": "nonpayable",
      "type": "constructor"
    },
    {
      "inputs": [],
      "name": "AccessControlBadConfirmation",
      "type": "error"
    },
    {
      "inputs": [
        {
          "internalType": "address",
          "name": "account",
          "type": "address"
        },
        {
          "internalType": "bytes32",
          "name": "neededRole",
          "type": "bytes32"
        }
      ],
      "name": "AccessControlUnauthorizedAccount",
      "type": "error"
    },
    {
      "inputs": [
        {
          "internalType": "address",
          "name": "asset",
          "type": "address"
        }
      ],
      "name": "OracleNotSet",
      "type": "error"
    },
    {
      "inputs": [
        {
          "internalType": "address",
          "name": "asset",
          "type": "address"
        }
      ],
      "name": "PriceNotAlive",
      "type": "error"
    },
    {
      "inputs": [
        {
          "internalType": "address",
          "name": "asset",
          "type": "address"
        },
        {
          "internalType": "address",
          "name": "oracle",
          "type": "address"
        },
        {
          "internalType": "uint256",
          "name": "expectedBaseUnit",
          "type": "uint256"
        },
        {
          "internalType": "uint256",
          "name": "oracleBaseUnit",
          "type": "uint256"
        }
      ],
      "name": "UnexpectedBaseUnit",
      "type": "error"
    },
    {
      "anonymous": false,
      "inputs": [
        {
          "indexed": true,
          "internalType": "address",
          "name": "asset",
          "type": "address"
        },
        {
          "indexed": true,
          "internalType": "address",
          "name": "oracle",
          "type": "address"
        }
      ],
      "name": "OracleUpdated",
      "type": "event"
    },
    {
      "anonymous": false,
      "inputs": [
        {
          "indexed": true,
          "internalType": "bytes32",
          "name": "role",
          "type": "bytes32"
        },
        {
          "indexed": true,
          "internalType": "bytes32",
          "name": "previousAdminRole",
          "type": "bytes32"
        },
        {
          "indexed": true,
          "internalType": "bytes32",
          "name": "newAdminRole",
          "type": "bytes32"
        }
      ],
      "name": "RoleAdminChanged",
      "type": "event"
    },
    {
      "anonymous": false,
      "inputs": [
        {
          "indexed": true,
          "internalType": "bytes32",
          "name": "role",
          "type": "bytes32"
        },
        {
          "indexed": true,
          "internalType": "address",
          "name": "account",
          "type": "address"
        },
        {
          "indexed": true,
          "internalType": "address",
          "name": "sender",
          "type": "address"
        }
      ],
      "name": "RoleGranted",
      "type": "event"
    },
    {
      "anonymous": false,
      "inputs": [
        {
          "indexed": true,
          "internalType": "bytes32",
          "name": "role",
          "type": "bytes32"
        },
        {
          "indexed": true,
          "internalType": "address",
          "name": "account",
          "type": "address"
        },
        {
          "indexed": true,
          "internalType": "address",
          "name": "sender",
          "type": "address"
        }
      ],
      "name": "RoleRevoked",
      "type": "event"
    },
    {
      "inputs": [],
      "name": "BASE_CURRENCY",
      "outputs": [
        {
          "internalType": "address",
          "name": "",
          "type": "address"
        }
      ],
      "stateMutability": "pure",
      "type": "function"
    },
    {
      "inputs": [],
      "name": "BASE_CURRENCY_UNIT",
      "outputs": [
        {
          "internalType": "uint256",
          "name": "",
          "type": "uint256"
        }
      ],
      "stateMutability": "view",
      "type": "function"
    },
    {
      "inputs": [],
      "name": "BASE_CURRENCY_USD",
      "outputs": [
        {
          "internalType": "address",
          "name": "",
          "type": "address"
        }
      ],
      "stateMutability": "view",
      "type": "function"
    },
    {
      "inputs": [],
      "name": "DEFAULT_ADMIN_ROLE",
      "outputs": [
        {
          "internalType": "bytes32",
          "name": "",
          "type": "bytes32"
        }
      ],
      "stateMutability": "view",
      "type": "function"
    },
    {
      "inputs": [],
      "name": "ORACLE_MANAGER_ROLE",
      "outputs": [
        {
          "internalType": "bytes32",
          "name": "",
          "type": "bytes32"
        }
      ],
      "stateMutability": "view",
      "type": "function"
    },
    {
      "inputs": [
        {
          "internalType": "address",
          "name": "",
          "type": "address"
        }
      ],
      "name": "assetOracles",
      "outputs": [
        {
          "internalType": "address",
          "name": "",
          "type": "address"
        }
      ],
      "stateMutability": "view",
      "type": "function"
    },
    {
      "inputs": [],
      "name": "baseCurrencyUnit",
      "outputs": [
        {
          "internalType": "uint256",
          "name": "",
          "type": "uint256"
        }
      ],
      "stateMutability": "view",
      "type": "function"
    },
    {
      "inputs": [
        {
          "internalType": "address",
          "name": "asset",
          "type": "address"
        }
      ],
      "name": "getAssetPrice",
      "outputs": [
        {
          "internalType": "uint256",
          "name": "",
          "type": "uint256"
        }
      ],
      "stateMutability": "view",
      "type": "function"
    },
    {
      "inputs": [
        {
          "internalType": "address",
          "name": "asset",
          "type": "address"
        }
      ],
      "name": "getPriceInfo",
      "outputs": [
        {
          "internalType": "uint256",
          "name": "price",
          "type": "uint256"
        },
        {
          "internalType": "bool",
          "name": "isAlive",
          "type": "bool"
        }
      ],
      "stateMutability": "view",
      "type": "function"
    },
    {
      "inputs": [
        {
          "internalType": "bytes32",
          "name": "role",
          "type": "bytes32"
        }
      ],
      "name": "getRoleAdmin",
      "outputs": [
        {
          "internalType": "bytes32",
          "name": "",
          "type": "bytes32"
        }
      ],
      "stateMutability": "view",
      "type": "function"
    },
    {
      "inputs": [
        {
          "internalType": "bytes32",
          "name": "role",
          "type": "bytes32"
        },
        {
          "internalType": "address",
          "name": "account",
          "type": "address"
        }
      ],
      "name": "grantRole",
      "outputs": [],
      "stateMutability": "nonpayable",
      "type": "function"
    },
    {
      "inputs": [
        {
          "internalType": "bytes32",
          "name": "role",
          "type": "bytes32"
        },
        {
          "internalType": "address",
          "name": "account",
          "type": "address"
        }
      ],
      "name": "hasRole",
      "outputs": [
        {
          "internalType": "bool",
          "name": "",
          "type": "bool"
        }
      ],
      "stateMutability": "view",
      "type": "function"
    },
    {
      "inputs": [
        {
          "internalType": "address",
          "name": "asset",
          "type": "address"
        }
      ],
      "name": "removeOracle",
      "outputs": [],
      "stateMutability": "nonpayable",
      "type": "function"
    },
    {
      "inputs": [
        {
          "internalType": "bytes32",
          "name": "role",
          "type": "bytes32"
        },
        {
          "internalType": "address",
          "name": "callerConfirmation",
          "type": "address"
        }
      ],
      "name": "renounceRole",
      "outputs": [],
      "stateMutability": "nonpayable",
      "type": "function"
    },
    {
      "inputs": [
        {
          "internalType": "bytes32",
          "name": "role",
          "type": "bytes32"
        },
        {
          "internalType": "address",
          "name": "account",
          "type": "address"
        }
      ],
      "name": "revokeRole",
      "outputs": [],
      "stateMutability": "nonpayable",
      "type": "function"
    },
    {
      "inputs": [
        {
          "internalType": "address",
          "name": "asset",
          "type": "address"
        },
        {
          "internalType": "address",
          "name": "oracle",
          "type": "address"
        }
      ],
      "name": "setOracle",
      "outputs": [],
      "stateMutability": "nonpayable",
      "type": "function"
    },
    {
      "inputs": [
        {
          "internalType": "bytes4",
          "name": "interfaceId",
          "type": "bytes4"
        }
      ],
      "name": "supportsInterface",
      "outputs": [
        {
          "internalType": "bool",
          "name": "",
          "type": "bool"
        }
      ],
      "stateMutability": "view",
      "type": "function"
    }
  ],
  "transactionHash": "0x3c54e8c205b6880242379a448d1445288ee3e7cd55685434724241618363a1d0",
  "args": [
    "100000000"
  ],
  "numDeployments": 1,
  "solcInputHash": "f239d04eaaada22b9dff563307bc85cb",
  "bytecode": "0x60a06040523480156200001157600080fd5b506040516200145638038062001456833981810160405281019062000037919062000244565b8060808181525050620000546000801b336200008f60201b60201c565b50620000877fced6982f480260bdd8ad5cb18ff2854f0306d78d904ad6cc107e8f3a0f526c18336200008f60201b60201c565b505062000276565b6000620000a383836200019260201b60201c565b6200018757600160008085815260200190815260200160002060000160008473ffffffffffffffffffffffffffffffffffffffff1673ffffffffffffffffffffffffffffffffffffffff16815260200190815260200160002060006101000a81548160ff02191690831515021790555062000123620001fc60201b60201c565b73ffffffffffffffffffffffffffffffffffffffff168273ffffffffffffffffffffffffffffffffffffffff16847f2f8788117e7eff1d82e926ec794901d17c78024a50270940304540a733656f0d60405160405180910390a4600190506200018c565b600090505b92915050565b600080600084815260200190815260200160002060000160008373ffffffffffffffffffffffffffffffffffffffff1673ffffffffffffffffffffffffffffffffffffffff16815260200190815260200160002060009054906101000a900460ff16905092915050565b600033905090565b600080fd5b6000819050919050565b6200021e8162000209565b81146200022a57600080fd5b50565b6000815190506200023e8162000213565b92915050565b6000602082840312156200025d576200025c62000204565b5b60006200026d848285016200022d565b91505092915050565b6080516111af620002a760003960008181610579015281816105a2015281816106e3015261098301526111af6000f3fe608060405234801561001057600080fd5b506004361061010b5760003560e01c806391d14854116100a2578063cb7f8fd911610071578063cb7f8fd9146102df578063d547741f146102fd578063e19f470014610319578063f3bddde114610337578063fdc85fc4146103555761010b565b806391d1485414610243578063a217fddf14610273578063b3596f0714610291578063bfc69e1c146102c15761010b565b806336568abe116100de57806336568abe146101bc5780635c38eb3a146101d85780638c89b64f146101f45780638edbf436146102125761010b565b806301ffc9a714610110578063248a9ca3146101405780632b663986146101705780632f2ff15d146101a0575b600080fd5b61012a60048036038101906101259190610dc4565b610371565b6040516101379190610e0c565b60405180910390f35b61015a60048036038101906101559190610e5d565b6103eb565b6040516101679190610e99565b60405180910390f35b61018a60048036038101906101859190610f12565b61040a565b6040516101979190610f4e565b60405180910390f35b6101ba60048036038101906101b59190610f69565b61043d565b005b6101d660048036038101906101d19190610f69565b61045f565b005b6101f260048036038101906101ed9190610fa9565b6104da565b005b6101fc6106df565b6040516102099190611002565b60405180910390f35b61022c60048036038101906102279190610f12565b610707565b60405161023a92919061101d565b60405180910390f35b61025d60048036038101906102589190610f69565b610862565b60405161026a9190610e0c565b60405180910390f35b61027b6108cc565b6040516102889190610e99565b60405180910390f35b6102ab60048036038101906102a69190610f12565b6108d3565b6040516102b89190611002565b60405180910390f35b6102c9610931565b6040516102d69190610e99565b60405180910390f35b6102e7610955565b6040516102f49190610f4e565b60405180910390f35b61031760048036038101906103129190610f69565b61095a565b005b61032161097c565b60405161032e9190610f4e565b60405180910390f35b61033f610981565b60405161034c9190611002565b60405180910390f35b61036f600480360381019061036a9190610f12565b6109a5565b005b60007f7965db0b000000000000000000000000000000000000000000000000000000007bffffffffffffffffffffffffffffffffffffffffffffffffffffffff1916827bffffffffffffffffffffffffffffffffffffffffffffffffffffffff191614806103e457506103e382610aad565b5b9050919050565b6000806000838152602001908152602001600020600101549050919050565b60016020528060005260406000206000915054906101000a900473ffffffffffffffffffffffffffffffffffffffff1681565b610446826103eb565b61044f81610b17565b6104598383610b2b565b50505050565b610467610c1c565b73ffffffffffffffffffffffffffffffffffffffff168173ffffffffffffffffffffffffffffffffffffffff16146104cb576040517f6697b23200000000000000000000000000000000000000000000000000000000815260040160405180910390fd5b6104d58282610c24565b505050565b7fced6982f480260bdd8ad5cb18ff2854f0306d78d904ad6cc107e8f3a0f526c1861050481610b17565b60008273ffffffffffffffffffffffffffffffffffffffff16638c89b64f6040518163ffffffff1660e01b8152600401602060405180830381865afa158015610551573d6000803e3d6000fd5b505050506040513d601f19601f820116820180604052508101906105759190611072565b90507f000000000000000000000000000000000000000000000000000000000000000081146106015783837f0000000000000000000000000000000000000000000000000000000000000000836040517fef09a3130000000000000000000000000000000000000000000000000000000081526004016105f8949392919061109f565b60405180910390fd5b82600160008673ffffffffffffffffffffffffffffffffffffffff1673ffffffffffffffffffffffffffffffffffffffff16815260200190815260200160002060006101000a81548173ffffffffffffffffffffffffffffffffffffffff021916908373ffffffffffffffffffffffffffffffffffffffff1602179055508273ffffffffffffffffffffffffffffffffffffffff168473ffffffffffffffffffffffffffffffffffffffff167f078c3b417dadf69374a59793b829c52001247130433427049317bde56607b1b760405160405180910390a350505050565b60007f0000000000000000000000000000000000000000000000000000000000000000905090565b6000806000600160008573ffffffffffffffffffffffffffffffffffffffff1673ffffffffffffffffffffffffffffffffffffffff16815260200190815260200160002060009054906101000a900473ffffffffffffffffffffffffffffffffffffffff169050600073ffffffffffffffffffffffffffffffffffffffff168173ffffffffffffffffffffffffffffffffffffffff16036107df57836040517f97f2ea960000000000000000000000000000000000000000000000000000000081526004016107d69190610f4e565b60405180910390fd5b8073ffffffffffffffffffffffffffffffffffffffff16638edbf436856040518263ffffffff1660e01b81526004016108189190610f4e565b6040805180830381865afa158015610834573d6000803e3d6000fd5b505050506040513d601f19601f820116820180604052508101906108589190611110565b9250925050915091565b600080600084815260200190815260200160002060000160008373ffffffffffffffffffffffffffffffffffffffff1673ffffffffffffffffffffffffffffffffffffffff16815260200190815260200160002060009054906101000a900460ff16905092915050565b6000801b81565b60008060006108e184610707565b915091508061092757836040517f118297e500000000000000000000000000000000000000000000000000000000815260040161091e9190610f4e565b60405180910390fd5b8192505050919050565b7fced6982f480260bdd8ad5cb18ff2854f0306d78d904ad6cc107e8f3a0f526c1881565b600081565b610963826103eb565b61096c81610b17565b6109768383610c24565b50505050565b600090565b7f000000000000000000000000000000000000000000000000000000000000000081565b7fced6982f480260bdd8ad5cb18ff2854f0306d78d904ad6cc107e8f3a0f526c186109cf81610b17565b6000600160008473ffffffffffffffffffffffffffffffffffffffff1673ffffffffffffffffffffffffffffffffffffffff16815260200190815260200160002060006101000a81548173ffffffffffffffffffffffffffffffffffffffff021916908373ffffffffffffffffffffffffffffffffffffffff160217905550600073ffffffffffffffffffffffffffffffffffffffff168273ffffffffffffffffffffffffffffffffffffffff167f078c3b417dadf69374a59793b829c52001247130433427049317bde56607b1b760405160405180910390a35050565b60007f01ffc9a7000000000000000000000000000000000000000000000000000000007bffffffffffffffffffffffffffffffffffffffffffffffffffffffff1916827bffffffffffffffffffffffffffffffffffffffffffffffffffffffff1916149050919050565b610b2881610b23610c1c565b610d16565b50565b6000610b378383610862565b610c1157600160008085815260200190815260200160002060000160008473ffffffffffffffffffffffffffffffffffffffff1673ffffffffffffffffffffffffffffffffffffffff16815260200190815260200160002060006101000a81548160ff021916908315150217905550610bae610c1c565b73ffffffffffffffffffffffffffffffffffffffff168273ffffffffffffffffffffffffffffffffffffffff16847f2f8788117e7eff1d82e926ec794901d17c78024a50270940304540a733656f0d60405160405180910390a460019050610c16565b600090505b92915050565b600033905090565b6000610c308383610862565b15610d0b57600080600085815260200190815260200160002060000160008473ffffffffffffffffffffffffffffffffffffffff1673ffffffffffffffffffffffffffffffffffffffff16815260200190815260200160002060006101000a81548160ff021916908315150217905550610ca8610c1c565b73ffffffffffffffffffffffffffffffffffffffff168273ffffffffffffffffffffffffffffffffffffffff16847ff6391f5c32d9c69d2a47ea670b442974b53935d1edc7fd64eb21e047a839171b60405160405180910390a460019050610d10565b600090505b92915050565b610d208282610862565b610d635780826040517fe2517d3f000000000000000000000000000000000000000000000000000000008152600401610d5a929190611150565b60405180910390fd5b5050565b600080fd5b60007fffffffff0000000000000000000000000000000000000000000000000000000082169050919050565b610da181610d6c565b8114610dac57600080fd5b50565b600081359050610dbe81610d98565b92915050565b600060208284031215610dda57610dd9610d67565b5b6000610de884828501610daf565b91505092915050565b60008115159050919050565b610e0681610df1565b82525050565b6000602082019050610e216000830184610dfd565b92915050565b6000819050919050565b610e3a81610e27565b8114610e4557600080fd5b50565b600081359050610e5781610e31565b92915050565b600060208284031215610e7357610e72610d67565b5b6000610e8184828501610e48565b91505092915050565b610e9381610e27565b82525050565b6000602082019050610eae6000830184610e8a565b92915050565b600073ffffffffffffffffffffffffffffffffffffffff82169050919050565b6000610edf82610eb4565b9050919050565b610eef81610ed4565b8114610efa57600080fd5b50565b600081359050610f0c81610ee6565b92915050565b600060208284031215610f2857610f27610d67565b5b6000610f3684828501610efd565b91505092915050565b610f4881610ed4565b82525050565b6000602082019050610f636000830184610f3f565b92915050565b60008060408385031215610f8057610f7f610d67565b5b6000610f8e85828601610e48565b9250506020610f9f85828601610efd565b9150509250929050565b60008060408385031215610fc057610fbf610d67565b5b6000610fce85828601610efd565b9250506020610fdf85828601610efd565b9150509250929050565b6000819050919050565b610ffc81610fe9565b82525050565b60006020820190506110176000830184610ff3565b92915050565b60006040820190506110326000830185610ff3565b61103f6020830184610dfd565b9392505050565b61104f81610fe9565b811461105a57600080fd5b50565b60008151905061106c81611046565b92915050565b60006020828403121561108857611087610d67565b5b60006110968482850161105d565b91505092915050565b60006080820190506110b46000830187610f3f565b6110c16020830186610f3f565b6110ce6040830185610ff3565b6110db6060830184610ff3565b95945050505050565b6110ed81610df1565b81146110f857600080fd5b50565b60008151905061110a816110e4565b92915050565b6000806040838503121561112757611126610d67565b5b60006111358582860161105d565b9250506020611146858286016110fb565b9150509250929050565b60006040820190506111656000830185610f3f565b6111726020830184610e8a565b939250505056fea2646970667358221220ee5444981c57f8ffc1e9799d65c8ca163ea1f53774967a236d292e2bb82b0f9c64736f6c63430008140033",
  "devdoc": {
    "details": "Implements IPriceOracleGetter for compatibility with Aave",
    "errors": {
      "AccessControlBadConfirmation()": [
        {
          "details": "The caller of a function is not the expected one. NOTE: Don't confuse with {AccessControlUnauthorizedAccount}."
        }
      ],
      "AccessControlUnauthorizedAccount(address,bytes32)": [
        {
          "details": "The `account` is missing a role."
        }
      ]
    },
    "events": {
      "RoleAdminChanged(bytes32,bytes32,bytes32)": {
        "details": "Emitted when `newAdminRole` is set as ``role``'s admin role, replacing `previousAdminRole` `DEFAULT_ADMIN_ROLE` is the starting admin for all roles, despite {RoleAdminChanged} not being emitted signaling this."
      },
      "RoleGranted(bytes32,address,address)": {
        "details": "Emitted when `account` is granted `role`. `sender` is the account that originated the contract call. This account bears the admin role (for the granted role). Expected in cases where the role was granted using the internal {AccessControl-_grantRole}."
      },
      "RoleRevoked(bytes32,address,address)": {
        "details": "Emitted when `account` is revoked `role`. `sender` is the account that originated the contract call:   - if using `revokeRole`, it is the admin role bearer   - if using `renounceRole`, it is the role bearer (i.e. `account`)"
      }
    },
    "kind": "dev",
    "methods": {
      "BASE_CURRENCY()": {
        "returns": {
          "_0": "Address representing USD"
        }
      },
      "BASE_CURRENCY_UNIT()": {
        "returns": {
          "_0": "Base currency unit (10^priceDecimals)"
        }
      },
      "constructor": {
        "params": {
          "_baseCurrencyUnit": "Number of decimal places for price values"
        }
      },
      "getAssetPrice(address)": {
        "params": {
          "asset": "Address of the asset"
        },
        "returns": {
          "_0": "Price of the asset"
        }
      },
      "getPriceInfo(address)": {
        "params": {
          "asset": "Address of the asset"
        },
        "returns": {
          "isAlive": "Whether the price is considered valid",
          "price": "Price of the asset"
        }
      },
      "getRoleAdmin(bytes32)": {
        "details": "Returns the admin role that controls `role`. See {grantRole} and {revokeRole}. To change a role's admin, use {_setRoleAdmin}."
      },
      "grantRole(bytes32,address)": {
        "details": "Grants `role` to `account`. If `account` had not been already granted `role`, emits a {RoleGranted} event. Requirements: - the caller must have ``role``'s admin role. May emit a {RoleGranted} event."
      },
      "hasRole(bytes32,address)": {
        "details": "Returns `true` if `account` has been granted `role`."
      },
      "removeOracle(address)": {
        "params": {
          "asset": "Address of the asset"
        }
      },
      "renounceRole(bytes32,address)": {
        "details": "Revokes `role` from the calling account. Roles are often managed via {grantRole} and {revokeRole}: this function's purpose is to provide a mechanism for accounts to lose their privileges if they are compromised (such as when a trusted device is misplaced). If the calling account had been revoked `role`, emits a {RoleRevoked} event. Requirements: - the caller must be `callerConfirmation`. May emit a {RoleRevoked} event."
      },
      "revokeRole(bytes32,address)": {
        "details": "Revokes `role` from `account`. If `account` had been granted `role`, emits a {RoleRevoked} event. Requirements: - the caller must have ``role``'s admin role. May emit a {RoleRevoked} event."
      },
      "setOracle(address,address)": {
        "params": {
          "asset": "Address of the asset",
          "oracle": "Address of the oracle for the asset"
        }
      },
      "supportsInterface(bytes4)": {
        "details": "See {IERC165-supportsInterface}."
      }
    },
    "title": "OracleAggregator",
    "version": 1
  },
  "userdoc": {
    "kind": "user",
    "methods": {
      "BASE_CURRENCY()": {
        "notice": "Returns the base currency (USD)"
      },
      "BASE_CURRENCY_UNIT()": {
        "notice": "Returns the base currency unit"
      },
      "BASE_CURRENCY_USD()": {
        "notice": "Address representing USD as the base currency"
      },
      "ORACLE_MANAGER_ROLE()": {
        "notice": "Role for managing oracles"
      },
      "assetOracles(address)": {
        "notice": "Mapping from asset address to oracle address"
      },
      "baseCurrencyUnit()": {
        "notice": "1 Unit of base currency (10^priceDecimals) (e.g. 1 USD)"
      },
      "constructor": {
        "notice": "Constructor to initialize the OracleAggregator"
      },
      "getAssetPrice(address)": {
        "notice": "Gets the price of an asset"
      },
      "getPriceInfo(address)": {
        "notice": "Gets the price info of an asset"
      },
      "removeOracle(address)": {
        "notice": "Removes the oracle for a specific asset"
      },
      "setOracle(address,address)": {
        "notice": "Sets the oracle for a specific asset"
      }
    },
    "notice": "Aggregates price data from multiple oracles",
    "version": 1
  },
  "storageLayout": {
    "storage": [
      {
        "astId": 2521,
        "contract": "contracts/oracle_aggregator/OracleAggregator.sol:OracleAggregator",
        "label": "_roles",
        "offset": 0,
        "slot": "0",
        "type": "t_mapping(t_bytes32,t_struct(RoleData)2516_storage)"
      },
      {
        "astId": 15519,
        "contract": "contracts/oracle_aggregator/OracleAggregator.sol:OracleAggregator",
        "label": "assetOracles",
        "offset": 0,
        "slot": "1",
        "type": "t_mapping(t_address,t_address)"
      }
    ],
    "types": {
      "t_address": {
        "encoding": "inplace",
        "label": "address",
        "numberOfBytes": "20"
      },
      "t_bool": {
        "encoding": "inplace",
        "label": "bool",
        "numberOfBytes": "1"
      },
      "t_bytes32": {
        "encoding": "inplace",
        "label": "bytes32",
        "numberOfBytes": "32"
      },
      "t_mapping(t_address,t_address)": {
        "encoding": "mapping",
        "key": "t_address",
        "label": "mapping(address => address)",
        "numberOfBytes": "32",
        "value": "t_address"
      },
      "t_mapping(t_address,t_bool)": {
        "encoding": "mapping",
        "key": "t_address",
        "label": "mapping(address => bool)",
        "numberOfBytes": "32",
        "value": "t_bool"
      },
      "t_mapping(t_bytes32,t_struct(RoleData)2516_storage)": {
        "encoding": "mapping",
        "key": "t_bytes32",
        "label": "mapping(bytes32 => struct AccessControl.RoleData)",
        "numberOfBytes": "32",
        "value": "t_struct(RoleData)2516_storage"
      },
      "t_struct(RoleData)2516_storage": {
        "encoding": "inplace",
        "label": "struct AccessControl.RoleData",
        "members": [
          {
            "astId": 2513,
            "contract": "contracts/oracle_aggregator/OracleAggregator.sol:OracleAggregator",
            "label": "hasRole",
            "offset": 0,
            "slot": "0",
            "type": "t_mapping(t_address,t_bool)"
          },
          {
            "astId": 2515,
            "contract": "contracts/oracle_aggregator/OracleAggregator.sol:OracleAggregator",
            "label": "adminRole",
            "offset": 0,
            "slot": "1",
            "type": "t_bytes32"
          }
        ],
        "numberOfBytes": "64"
      }
    }
  }
}