{
  "address": "0x53da31C047715615B73098FC69a76E7868d318d5",
  "abi": [
    {
      "inputs": [
        {
          "internalType": "address",
          "name": "baseCurrency",
          "type": "address"
        },
        {
          "internalType": "uint256",
          "name": "_baseCurrencyUnit",
          "type": "uint256"
        }
      ],
      "stateMutability": "nonpayable",
      "type": "constructor"
    },
    {
      "inputs": [],
      "name": "AccessControlBadConfirmation",
      "type": "error"
    },
    {
      "inputs": [
        {
          "internalType": "address",
          "name": "account",
          "type": "address"
        },
        {
          "internalType": "bytes32",
          "name": "neededRole",
          "type": "bytes32"
        }
      ],
      "name": "AccessControlUnauthorizedAccount",
      "type": "error"
    },
    {
      "inputs": [
        {
          "internalType": "address",
          "name": "asset",
          "type": "address"
        }
      ],
      "name": "FeedNotSet",
      "type": "error"
    },
    {
      "inputs": [],
      "name": "PriceIsStale",
      "type": "error"
    },
    {
      "anonymous": false,
      "inputs": [
        {
          "indexed": true,
          "internalType": "address",
          "name": "asset",
          "type": "address"
        },
        {
          "indexed": false,
          "internalType": "address",
          "name": "proxy1",
          "type": "address"
        },
        {
          "indexed": false,
          "internalType": "address",
          "name": "proxy2",
          "type": "address"
        },
        {
          "indexed": false,
          "internalType": "uint256",
          "name": "lowerThresholdInBase1",
          "type": "uint256"
        },
        {
          "indexed": false,
          "internalType": "uint256",
          "name": "fixedPriceInBase1",
          "type": "uint256"
        },
        {
          "indexed": false,
          "internalType": "uint256",
          "name": "lowerThresholdInBase2",
          "type": "uint256"
        },
        {
          "indexed": false,
          "internalType": "uint256",
          "name": "fixedPriceInBase2",
          "type": "uint256"
        }
      ],
      "name": "CompositeFeedAdded",
      "type": "event"
    },
    {
      "anonymous": false,
      "inputs": [
        {
          "indexed": true,
          "internalType": "address",
          "name": "asset",
          "type": "address"
        }
      ],
      "name": "CompositeFeedRemoved",
      "type": "event"
    },
    {
      "anonymous": false,
      "inputs": [
        {
          "indexed": true,
          "internalType": "address",
          "name": "asset",
          "type": "address"
        },
        {
          "indexed": false,
          "internalType": "uint256",
          "name": "lowerThresholdInBase1",
          "type": "uint256"
        },
        {
          "indexed": false,
          "internalType": "uint256",
          "name": "fixedPriceInBase1",
          "type": "uint256"
        },
        {
          "indexed": false,
          "internalType": "uint256",
          "name": "lowerThresholdInBase2",
          "type": "uint256"
        },
        {
          "indexed": false,
          "internalType": "uint256",
          "name": "fixedPriceInBase2",
          "type": "uint256"
        }
      ],
      "name": "CompositeFeedUpdated",
      "type": "event"
    },
    {
      "anonymous": false,
      "inputs": [
        {
          "indexed": true,
          "internalType": "bytes32",
          "name": "role",
          "type": "bytes32"
        },
        {
          "indexed": true,
          "internalType": "bytes32",
          "name": "previousAdminRole",
          "type": "bytes32"
        },
        {
          "indexed": true,
          "internalType": "bytes32",
          "name": "newAdminRole",
          "type": "bytes32"
        }
      ],
      "name": "RoleAdminChanged",
      "type": "event"
    },
    {
      "anonymous": false,
      "inputs": [
        {
          "indexed": true,
          "internalType": "bytes32",
          "name": "role",
          "type": "bytes32"
        },
        {
          "indexed": true,
          "internalType": "address",
          "name": "account",
          "type": "address"
        },
        {
          "indexed": true,
          "internalType": "address",
          "name": "sender",
          "type": "address"
        }
      ],
      "name": "RoleGranted",
      "type": "event"
    },
    {
      "anonymous": false,
      "inputs": [
        {
          "indexed": true,
          "internalType": "bytes32",
          "name": "role",
          "type": "bytes32"
        },
        {
          "indexed": true,
          "internalType": "address",
          "name": "account",
          "type": "address"
        },
        {
          "indexed": true,
          "internalType": "address",
          "name": "sender",
          "type": "address"
        }
      ],
      "name": "RoleRevoked",
      "type": "event"
    },
    {
      "inputs": [],
      "name": "API3_BASE_CURRENCY_UNIT",
      "outputs": [
        {
          "internalType": "uint256",
          "name": "",
          "type": "uint256"
        }
      ],
      "stateMutability": "view",
      "type": "function"
    },
    {
      "inputs": [],
      "name": "API3_HEARTBEAT",
      "outputs": [
        {
          "internalType": "uint256",
          "name": "",
          "type": "uint256"
        }
      ],
      "stateMutability": "view",
      "type": "function"
    },
    {
      "inputs": [],
      "name": "BASE_CURRENCY",
      "outputs": [
        {
          "internalType": "address",
          "name": "",
          "type": "address"
        }
      ],
      "stateMutability": "view",
      "type": "function"
    },
    {
      "inputs": [],
      "name": "BASE_CURRENCY_UNIT",
      "outputs": [
        {
          "internalType": "uint256",
          "name": "",
          "type": "uint256"
        }
      ],
      "stateMutability": "view",
      "type": "function"
    },
    {
      "inputs": [],
      "name": "DEFAULT_ADMIN_ROLE",
      "outputs": [
        {
          "internalType": "bytes32",
          "name": "",
          "type": "bytes32"
        }
      ],
      "stateMutability": "view",
      "type": "function"
    },
    {
      "inputs": [],
      "name": "ORACLE_MANAGER_ROLE",
      "outputs": [
        {
          "internalType": "bytes32",
          "name": "",
          "type": "bytes32"
        }
      ],
      "stateMutability": "view",
      "type": "function"
    },
    {
      "inputs": [
        {
          "internalType": "address",
          "name": "asset",
          "type": "address"
        },
        {
          "internalType": "address",
          "name": "proxy1",
          "type": "address"
        },
        {
          "internalType": "address",
          "name": "proxy2",
          "type": "address"
        },
        {
          "internalType": "uint256",
          "name": "lowerThresholdInBase1",
          "type": "uint256"
        },
        {
          "internalType": "uint256",
          "name": "fixedPriceInBase1",
          "type": "uint256"
        },
        {
          "internalType": "uint256",
          "name": "lowerThresholdInBase2",
          "type": "uint256"
        },
        {
          "internalType": "uint256",
          "name": "fixedPriceInBase2",
          "type": "uint256"
        }
      ],
      "name": "addCompositeFeed",
      "outputs": [],
      "stateMutability": "nonpayable",
      "type": "function"
    },
    {
      "inputs": [
        {
          "internalType": "address",
          "name": "",
          "type": "address"
        }
      ],
      "name": "compositeFeeds",
      "outputs": [
        {
          "internalType": "address",
          "name": "proxy1",
          "type": "address"
        },
        {
          "internalType": "address",
          "name": "proxy2",
          "type": "address"
        },
        {
          "components": [
            {
              "internalType": "uint256",
              "name": "lowerThresholdInBase",
              "type": "uint256"
            },
            {
              "internalType": "uint256",
              "name": "fixedPriceInBase",
              "type": "uint256"
            }
          ],
          "internalType": "struct ThresholdingUtils.ThresholdConfig",
          "name": "primaryThreshold",
          "type": "tuple"
        },
        {
          "components": [
            {
              "internalType": "uint256",
              "name": "lowerThresholdInBase",
              "type": "uint256"
            },
            {
              "internalType": "uint256",
              "name": "fixedPriceInBase",
              "type": "uint256"
            }
          ],
          "internalType": "struct ThresholdingUtils.ThresholdConfig",
          "name": "secondaryThreshold",
          "type": "tuple"
        }
      ],
      "stateMutability": "view",
      "type": "function"
    },
    {
      "inputs": [
        {
          "internalType": "address",
          "name": "asset",
          "type": "address"
        }
      ],
      "name": "getAssetPrice",
      "outputs": [
        {
          "internalType": "uint256",
          "name": "",
          "type": "uint256"
        }
      ],
      "stateMutability": "view",
      "type": "function"
    },
    {
      "inputs": [
        {
          "internalType": "address",
          "name": "asset",
          "type": "address"
        }
      ],
      "name": "getPriceInfo",
      "outputs": [
        {
          "internalType": "uint256",
          "name": "price",
          "type": "uint256"
        },
        {
          "internalType": "bool",
          "name": "isAlive",
          "type": "bool"
        }
      ],
      "stateMutability": "view",
      "type": "function"
    },
    {
      "inputs": [
        {
          "internalType": "bytes32",
          "name": "role",
          "type": "bytes32"
        }
      ],
      "name": "getRoleAdmin",
      "outputs": [
        {
          "internalType": "bytes32",
          "name": "",
          "type": "bytes32"
        }
      ],
      "stateMutability": "view",
      "type": "function"
    },
    {
      "inputs": [
        {
          "internalType": "bytes32",
          "name": "role",
          "type": "bytes32"
        },
        {
          "internalType": "address",
          "name": "account",
          "type": "address"
        }
      ],
      "name": "grantRole",
      "outputs": [],
      "stateMutability": "nonpayable",
      "type": "function"
    },
    {
      "inputs": [
        {
          "internalType": "bytes32",
          "name": "role",
          "type": "bytes32"
        },
        {
          "internalType": "address",
          "name": "account",
          "type": "address"
        }
      ],
      "name": "hasRole",
      "outputs": [
        {
          "internalType": "bool",
          "name": "",
          "type": "bool"
        }
      ],
      "stateMutability": "view",
      "type": "function"
    },
    {
      "inputs": [],
      "name": "heartbeatStaleTimeLimit",
      "outputs": [
        {
          "internalType": "uint256",
          "name": "",
          "type": "uint256"
        }
      ],
      "stateMutability": "view",
      "type": "function"
    },
    {
      "inputs": [
        {
          "internalType": "address",
          "name": "asset",
          "type": "address"
        }
      ],
      "name": "removeCompositeFeed",
      "outputs": [],
      "stateMutability": "nonpayable",
      "type": "function"
    },
    {
      "inputs": [
        {
          "internalType": "bytes32",
          "name": "role",
          "type": "bytes32"
        },
        {
          "internalType": "address",
          "name": "callerConfirmation",
          "type": "address"
        }
      ],
      "name": "renounceRole",
      "outputs": [],
      "stateMutability": "nonpayable",
      "type": "function"
    },
    {
      "inputs": [
        {
          "internalType": "bytes32",
          "name": "role",
          "type": "bytes32"
        },
        {
          "internalType": "address",
          "name": "account",
          "type": "address"
        }
      ],
      "name": "revokeRole",
      "outputs": [],
      "stateMutability": "nonpayable",
      "type": "function"
    },
    {
      "inputs": [
        {
          "internalType": "uint256",
          "name": "_newHeartbeatStaleTimeLimit",
          "type": "uint256"
        }
      ],
      "name": "setHeartbeatStaleTimeLimit",
      "outputs": [],
      "stateMutability": "nonpayable",
      "type": "function"
    },
    {
      "inputs": [
        {
          "internalType": "bytes4",
          "name": "interfaceId",
          "type": "bytes4"
        }
      ],
      "name": "supportsInterface",
      "outputs": [
        {
          "internalType": "bool",
          "name": "",
          "type": "bool"
        }
      ],
      "stateMutability": "view",
      "type": "function"
    },
    {
      "inputs": [
        {
          "internalType": "address",
          "name": "asset",
          "type": "address"
        },
        {
          "internalType": "uint256",
          "name": "lowerThresholdInBase1",
          "type": "uint256"
        },
        {
          "internalType": "uint256",
          "name": "fixedPriceInBase1",
          "type": "uint256"
        },
        {
          "internalType": "uint256",
          "name": "lowerThresholdInBase2",
          "type": "uint256"
        },
        {
          "internalType": "uint256",
          "name": "fixedPriceInBase2",
          "type": "uint256"
        }
      ],
      "name": "updateCompositeFeed",
      "outputs": [],
      "stateMutability": "nonpayable",
      "type": "function"
    }
  ],
  "transactionHash": "0x6176635891a139f8bc4cc41ca1fe3d297f2a6ac9277a58bb74bc243bb9f9c206",
  "args": [
    "0x039e2fB66102314Ce7b64Ce5Ce3E5183bc94aD38",
    "1000000000000000000"
  ],
  "numDeployments": 1,
  "solcInputHash": "802662d4668a3e264f06cbf06c787a51",
  "bytecode": "0x60c06040526107086001553480156200001757600080fd5b5060405162001f2038038062001f2083398181016040528101906200003d919062000331565b81818173ffffffffffffffffffffffffffffffffffffffff1660808173ffffffffffffffffffffffffffffffffffffffff16815250508060a08181525050620000906000801b336200011760201b60201c565b50620000c37fced6982f480260bdd8ad5cb18ff2854f0306d78d904ad6cc107e8f3a0f526c18336200011760201b60201c565b505050620000db6000801b336200011760201b60201c565b506200010e7fced6982f480260bdd8ad5cb18ff2854f0306d78d904ad6cc107e8f3a0f526c18336200011760201b60201c565b50505062000378565b60006200012b83836200021a60201b60201c565b6200020f57600160008085815260200190815260200160002060000160008473ffffffffffffffffffffffffffffffffffffffff1673ffffffffffffffffffffffffffffffffffffffff16815260200190815260200160002060006101000a81548160ff021916908315150217905550620001ab6200028460201b60201c565b73ffffffffffffffffffffffffffffffffffffffff168273ffffffffffffffffffffffffffffffffffffffff16847f2f8788117e7eff1d82e926ec794901d17c78024a50270940304540a733656f0d60405160405180910390a46001905062000214565b600090505b92915050565b600080600084815260200190815260200160002060000160008373ffffffffffffffffffffffffffffffffffffffff1673ffffffffffffffffffffffffffffffffffffffff16815260200190815260200160002060009054906101000a900460ff16905092915050565b600033905090565b600080fd5b600073ffffffffffffffffffffffffffffffffffffffff82169050919050565b6000620002be8262000291565b9050919050565b620002d081620002b1565b8114620002dc57600080fd5b50565b600081519050620002f081620002c5565b92915050565b6000819050919050565b6200030b81620002f6565b81146200031757600080fd5b50565b6000815190506200032b8162000300565b92915050565b600080604083850312156200034b576200034a6200028c565b5b60006200035b85828601620002df565b92505060206200036e858286016200031a565b9150509250929050565b60805160a051611b74620003ac6000396000818161084301528181610c1f015261136d015260006110140152611b746000f3fe608060405234801561001057600080fd5b506004361061012c5760003560e01c806391d14854116100ad578063d547741f11610071578063d547741f14610342578063e19f47001461035e578063f99256d51461037c578063fbff771c146103af578063ffceb415146103cd5761012c565b806391d148541461028a578063a217fddf146102ba578063b3596f07146102d8578063bfc69e1c14610308578063c5efe27c146103265761012c565b806336568abe116100f457806336568abe146101e7578063519ffff1146102035780638c89b64f1461021f5780638edbf4361461023d5780638f5997151461026e5761012c565b806301ffc9a71461013157806304dea65114610161578063248a9ca31461017d5780632ecac6fc146101ad5780632f2ff15d146101cb575b600080fd5b61014b6004803603810190610146919061147a565b6103eb565b60405161015891906114c2565b60405180910390f35b61017b60048036038101906101769190611571565b610465565b005b61019760048036038101906101929190611622565b610650565b6040516101a4919061165e565b60405180910390f35b6101b561066f565b6040516101c29190611688565b60405180910390f35b6101e560048036038101906101e091906116a3565b610675565b005b61020160048036038101906101fc91906116a3565b610697565b005b61021d600480360381019061021891906116e3565b610712565b005b610227610841565b6040516102349190611688565b60405180910390f35b610257600480360381019061025291906116e3565b610865565b604051610265929190611710565b60405180910390f35b61028860048036038101906102839190611739565b610cc2565b005b6102a4600480360381019061029f91906116a3565b610ed1565b6040516102b191906114c2565b60405180910390f35b6102c2610f3b565b6040516102cf919061165e565b60405180910390f35b6102f260048036038101906102ed91906116e3565b610f42565b6040516102ff9190611688565b60405180910390f35b610310610f95565b60405161031d919061165e565b60405180910390f35b610340600480360381019061033b91906117db565b610fb9565b005b61035c600480360381019061035791906116a3565b610fee565b005b610366611010565b6040516103739190611817565b60405180910390f35b610396600480360381019061039191906116e3565b611038565b6040516103a69493929190611870565b60405180910390f35b6103b76110e4565b6040516103c49190611688565b60405180910390f35b6103d56110f0565b6040516103e29190611688565b60405180910390f35b60007f7965db0b000000000000000000000000000000000000000000000000000000007bffffffffffffffffffffffffffffffffffffffffffffffffffffffff1916827bffffffffffffffffffffffffffffffffffffffffffffffffffffffff1916148061045e575061045d826110f7565b5b9050919050565b7fced6982f480260bdd8ad5cb18ff2854f0306d78d904ad6cc107e8f3a0f526c1861048f81611161565b6000600260008873ffffffffffffffffffffffffffffffffffffffff1673ffffffffffffffffffffffffffffffffffffffff1681526020019081526020016000209050600073ffffffffffffffffffffffffffffffffffffffff168160000160009054906101000a900473ffffffffffffffffffffffffffffffffffffffff1673ffffffffffffffffffffffffffffffffffffffff1614806105815750600073ffffffffffffffffffffffffffffffffffffffff168160010160009054906101000a900473ffffffffffffffffffffffffffffffffffffffff1673ffffffffffffffffffffffffffffffffffffffff16145b156105c357866040517f0dcaf86b0000000000000000000000000000000000000000000000000000000081526004016105ba9190611817565b60405180910390fd5b8581600201600001819055508481600201600101819055508381600401600001819055508281600401600101819055508673ffffffffffffffffffffffffffffffffffffffff167fbdebb389cb3e5b0a7c038b900aeea5b6e265e74efd0de50488c3574a4d7861d58787878760405161063f94939291906118b5565b60405180910390a250505050505050565b6000806000838152602001908152602001600020600101549050919050565b60015481565b61067e82610650565b61068781611161565b6106918383611175565b50505050565b61069f611266565b73ffffffffffffffffffffffffffffffffffffffff168173ffffffffffffffffffffffffffffffffffffffff1614610703576040517f6697b23200000000000000000000000000000000000000000000000000000000815260040160405180910390fd5b61070d828261126e565b505050565b7fced6982f480260bdd8ad5cb18ff2854f0306d78d904ad6cc107e8f3a0f526c1861073c81611161565b600260008373ffffffffffffffffffffffffffffffffffffffff1673ffffffffffffffffffffffffffffffffffffffff168152602001908152602001600020600080820160006101000a81549073ffffffffffffffffffffffffffffffffffffffff02191690556001820160006101000a81549073ffffffffffffffffffffffffffffffffffffffff02191690556002820160008082016000905560018201600090555050600482016000808201600090556001820160009055505050508173ffffffffffffffffffffffffffffffffffffffff167fdabc58d0456c50872fa82879bc9ce7f6a455b4372db632857a62de4abd09969160405160405180910390a25050565b7f000000000000000000000000000000000000000000000000000000000000000081565b6000806000600260008573ffffffffffffffffffffffffffffffffffffffff1673ffffffffffffffffffffffffffffffffffffffff1681526020019081526020016000206040518060800160405290816000820160009054906101000a900473ffffffffffffffffffffffffffffffffffffffff1673ffffffffffffffffffffffffffffffffffffffff1673ffffffffffffffffffffffffffffffffffffffff1681526020016001820160009054906101000a900473ffffffffffffffffffffffffffffffffffffffff1673ffffffffffffffffffffffffffffffffffffffff1673ffffffffffffffffffffffffffffffffffffffff168152602001600282016040518060400160405290816000820154815260200160018201548152505081526020016004820160405180604001604052908160008201548152602001600182015481525050815250509050600073ffffffffffffffffffffffffffffffffffffffff16816000015173ffffffffffffffffffffffffffffffffffffffff161480610a215750600073ffffffffffffffffffffffffffffffffffffffff16816020015173ffffffffffffffffffffffffffffffffffffffff16145b15610a6357836040517f0dcaf86b000000000000000000000000000000000000000000000000000000008152600401610a5a9190611817565b60405180910390fd5b600080826000015173ffffffffffffffffffffffffffffffffffffffff166357de26a46040518163ffffffff1660e01b81526004016040805180830381865afa158015610ab4573d6000803e3d6000fd5b505050506040513d601f19601f82011682018060405250810190610ad8919061196f565b91509150600080846020015173ffffffffffffffffffffffffffffffffffffffff166357de26a46040518163ffffffff1660e01b81526004016040805180830381865afa158015610b2d573d6000803e3d6000fd5b505050506040513d601f19601f82011682018060405250810190610b51919061196f565b9150915060008085601b0b13610b68576000610b88565b847bffffffffffffffffffffffffffffffffffffffffffffffffffffffff165b905060008084601b0b13610b9d576000610bbd565b837bffffffffffffffffffffffffffffffffffffffffffffffffffffffff165b90506000610bca83611360565b90506000610bd783611360565b905060008960400151600001511115610bfb57610bf8828a604001516113a8565b91505b60008960600151600001511115610c1d57610c1a818a606001516113a8565b90505b7f00000000000000000000000000000000000000000000000000000000000000008183610c4a91906119de565b610c549190611a4f565b9a5060008b118015610c86575042600154620151808963ffffffff16610c7a9190611a80565b610c849190611a80565b115b8015610cb2575042600154620151808763ffffffff16610ca69190611a80565b610cb09190611a80565b115b9950505050505050505050915091565b7fced6982f480260bdd8ad5cb18ff2854f0306d78d904ad6cc107e8f3a0f526c18610cec81611161565b60405180608001604052808873ffffffffffffffffffffffffffffffffffffffff1681526020018773ffffffffffffffffffffffffffffffffffffffff1681526020016040518060400160405280888152602001878152508152602001604051806040016040528086815260200185815250815250600260008a73ffffffffffffffffffffffffffffffffffffffff1673ffffffffffffffffffffffffffffffffffffffff16815260200190815260200160002060008201518160000160006101000a81548173ffffffffffffffffffffffffffffffffffffffff021916908373ffffffffffffffffffffffffffffffffffffffff16021790555060208201518160010160006101000a81548173ffffffffffffffffffffffffffffffffffffffff021916908373ffffffffffffffffffffffffffffffffffffffff16021790555060408201518160020160008201518160000155602082015181600101555050606082015181600401600082015181600001556020820151816001015550509050508773ffffffffffffffffffffffffffffffffffffffff167f8af3f37e726b4aaf30de76bd00359c9166bf6b9a01e457c3d4557df631227eed888888888888604051610ebf96959493929190611ab4565b60405180910390a25050505050505050565b600080600084815260200190815260200160002060000160008373ffffffffffffffffffffffffffffffffffffffff1673ffffffffffffffffffffffffffffffffffffffff16815260200190815260200160002060009054906101000a900460ff16905092915050565b6000801b81565b6000806000610f5084610865565b9150915080610f8b576040517f857860b600000000000000000000000000000000000000000000000000000000815260040160405180910390fd5b8192505050919050565b7fced6982f480260bdd8ad5cb18ff2854f0306d78d904ad6cc107e8f3a0f526c1881565b7fced6982f480260bdd8ad5cb18ff2854f0306d78d904ad6cc107e8f3a0f526c18610fe381611161565b816001819055505050565b610ff782610650565b61100081611161565b61100a838361126e565b50505050565b60007f0000000000000000000000000000000000000000000000000000000000000000905090565b60026020528060005260406000206000915090508060000160009054906101000a900473ffffffffffffffffffffffffffffffffffffffff16908060010160009054906101000a900473ffffffffffffffffffffffffffffffffffffffff16908060020160405180604001604052908160008201548152602001600182015481525050908060040160405180604001604052908160008201548152602001600182015481525050905084565b670de0b6b3a764000081565b6201518081565b60007f01ffc9a7000000000000000000000000000000000000000000000000000000007bffffffffffffffffffffffffffffffffffffffffffffffffffffffff1916827bffffffffffffffffffffffffffffffffffffffffffffffffffffffff1916149050919050565b6111728161116d611266565b6113cc565b50565b60006111818383610ed1565b61125b57600160008085815260200190815260200160002060000160008473ffffffffffffffffffffffffffffffffffffffff1673ffffffffffffffffffffffffffffffffffffffff16815260200190815260200160002060006101000a81548160ff0219169083151502179055506111f8611266565b73ffffffffffffffffffffffffffffffffffffffff168273ffffffffffffffffffffffffffffffffffffffff16847f2f8788117e7eff1d82e926ec794901d17c78024a50270940304540a733656f0d60405160405180910390a460019050611260565b600090505b92915050565b600033905090565b600061127a8383610ed1565b1561135557600080600085815260200190815260200160002060000160008473ffffffffffffffffffffffffffffffffffffffff1673ffffffffffffffffffffffffffffffffffffffff16815260200190815260200160002060006101000a81548160ff0219169083151502179055506112f2611266565b73ffffffffffffffffffffffffffffffffffffffff168273ffffffffffffffffffffffffffffffffffffffff16847ff6391f5c32d9c69d2a47ea670b442974b53935d1edc7fd64eb21e047a839171b60405160405180910390a46001905061135a565b600090505b92915050565b6000670de0b6b3a76400007f00000000000000000000000000000000000000000000000000000000000000008361139791906119de565b6113a19190611a4f565b9050919050565b600081600001518311156113c257816020015190506113c6565b8290505b92915050565b6113d68282610ed1565b6114195780826040517fe2517d3f000000000000000000000000000000000000000000000000000000008152600401611410929190611b15565b60405180910390fd5b5050565b600080fd5b60007fffffffff0000000000000000000000000000000000000000000000000000000082169050919050565b61145781611422565b811461146257600080fd5b50565b6000813590506114748161144e565b92915050565b6000602082840312156114905761148f61141d565b5b600061149e84828501611465565b91505092915050565b60008115159050919050565b6114bc816114a7565b82525050565b60006020820190506114d760008301846114b3565b92915050565b600073ffffffffffffffffffffffffffffffffffffffff82169050919050565b6000611508826114dd565b9050919050565b611518816114fd565b811461152357600080fd5b50565b6000813590506115358161150f565b92915050565b6000819050919050565b61154e8161153b565b811461155957600080fd5b50565b60008135905061156b81611545565b92915050565b600080600080600060a0868803121561158d5761158c61141d565b5b600061159b88828901611526565b95505060206115ac8882890161155c565b94505060406115bd8882890161155c565b93505060606115ce8882890161155c565b92505060806115df8882890161155c565b9150509295509295909350565b6000819050919050565b6115ff816115ec565b811461160a57600080fd5b50565b60008135905061161c816115f6565b92915050565b6000602082840312156116385761163761141d565b5b60006116468482850161160d565b91505092915050565b611658816115ec565b82525050565b6000602082019050611673600083018461164f565b92915050565b6116828161153b565b82525050565b600060208201905061169d6000830184611679565b92915050565b600080604083850312156116ba576116b961141d565b5b60006116c88582860161160d565b92505060206116d985828601611526565b9150509250929050565b6000602082840312156116f9576116f861141d565b5b600061170784828501611526565b91505092915050565b60006040820190506117256000830185611679565b61173260208301846114b3565b9392505050565b600080600080600080600060e0888a0312156117585761175761141d565b5b60006117668a828b01611526565b97505060206117778a828b01611526565b96505060406117888a828b01611526565b95505060606117998a828b0161155c565b94505060806117aa8a828b0161155c565b93505060a06117bb8a828b0161155c565b92505060c06117cc8a828b0161155c565b91505092959891949750929550565b6000602082840312156117f1576117f061141d565b5b60006117ff8482850161155c565b91505092915050565b611811816114fd565b82525050565b600060208201905061182c6000830184611808565b92915050565b61183b8161153b565b82525050565b6040820160008201516118576000850182611832565b50602082015161186a6020850182611832565b50505050565b600060c0820190506118856000830187611808565b6118926020830186611808565b61189f6040830185611841565b6118ac6080830184611841565b95945050505050565b60006080820190506118ca6000830187611679565b6118d76020830186611679565b6118e46040830185611679565b6118f16060830184611679565b95945050505050565b600081601b0b9050919050565b611910816118fa565b811461191b57600080fd5b50565b60008151905061192d81611907565b92915050565b600063ffffffff82169050919050565b61194c81611933565b811461195757600080fd5b50565b60008151905061196981611943565b92915050565b600080604083850312156119865761198561141d565b5b60006119948582860161191e565b92505060206119a58582860161195a565b9150509250929050565b7f4e487b7100000000000000000000000000000000000000000000000000000000600052601160045260246000fd5b60006119e98261153b565b91506119f48361153b565b9250828202611a028161153b565b91508282048414831517611a1957611a186119af565b5b5092915050565b7f4e487b7100000000000000000000000000000000000000000000000000000000600052601260045260246000fd5b6000611a5a8261153b565b9150611a658361153b565b925082611a7557611a74611a20565b5b828204905092915050565b6000611a8b8261153b565b9150611a968361153b565b9250828201905080821115611aae57611aad6119af565b5b92915050565b600060c082019050611ac96000830189611808565b611ad66020830188611808565b611ae36040830187611679565b611af06060830186611679565b611afd6080830185611679565b611b0a60a0830184611679565b979650505050505050565b6000604082019050611b2a6000830185611808565b611b37602083018461164f565b939250505056fea26469706673582212200ecbb3d3837eb56d25bde46c01ea0757e104b0e441969044b388d0ba7ca632d764736f6c63430008140033",
  "devdoc": {
    "details": "Implementation of IAPI3Wrapper for composite API3 oracles with thresholding",
    "errors": {
      "AccessControlBadConfirmation()": [
        {
          "details": "The caller of a function is not the expected one. NOTE: Don't confuse with {AccessControlUnauthorizedAccount}."
        }
      ],
      "AccessControlUnauthorizedAccount(address,bytes32)": [
        {
          "details": "The `account` is missing a role."
        }
      ]
    },
    "events": {
      "RoleAdminChanged(bytes32,bytes32,bytes32)": {
        "details": "Emitted when `newAdminRole` is set as ``role``'s admin role, replacing `previousAdminRole` `DEFAULT_ADMIN_ROLE` is the starting admin for all roles, despite {RoleAdminChanged} not being emitted signaling this."
      },
      "RoleGranted(bytes32,address,address)": {
        "details": "Emitted when `account` is granted `role`. `sender` is the account that originated the contract call. This account bears the admin role (for the granted role). Expected in cases where the role was granted using the internal {AccessControl-_grantRole}."
      },
      "RoleRevoked(bytes32,address,address)": {
        "details": "Emitted when `account` is revoked `role`. `sender` is the account that originated the contract call:   - if using `revokeRole`, it is the admin role bearer   - if using `renounceRole`, it is the role bearer (i.e. `account`)"
      }
    },
    "kind": "dev",
    "methods": {
      "BASE_CURRENCY()": {
        "returns": {
          "_0": "Returns the base currency address."
        }
      },
      "getAssetPrice(address)": {
        "params": {
          "asset": "The address of the asset"
        },
        "returns": {
          "_0": "The price of the asset"
        }
      },
      "getPriceInfo(address)": {
        "params": {
          "asset": "The address of the asset"
        },
        "returns": {
          "isAlive": "The alive status of the asset",
          "price": "The price of the asset"
        }
      },
      "getRoleAdmin(bytes32)": {
        "details": "Returns the admin role that controls `role`. See {grantRole} and {revokeRole}. To change a role's admin, use {_setRoleAdmin}."
      },
      "grantRole(bytes32,address)": {
        "details": "Grants `role` to `account`. If `account` had not been already granted `role`, emits a {RoleGranted} event. Requirements: - the caller must have ``role``'s admin role. May emit a {RoleGranted} event."
      },
      "hasRole(bytes32,address)": {
        "details": "Returns `true` if `account` has been granted `role`."
      },
      "renounceRole(bytes32,address)": {
        "details": "Revokes `role` from the calling account. Roles are often managed via {grantRole} and {revokeRole}: this function's purpose is to provide a mechanism for accounts to lose their privileges if they are compromised (such as when a trusted device is misplaced). If the calling account had been revoked `role`, emits a {RoleRevoked} event. Requirements: - the caller must be `callerConfirmation`. May emit a {RoleRevoked} event."
      },
      "revokeRole(bytes32,address)": {
        "details": "Revokes `role` from `account`. If `account` had been granted `role`, emits a {RoleRevoked} event. Requirements: - the caller must have ``role``'s admin role. May emit a {RoleRevoked} event."
      },
      "supportsInterface(bytes4)": {
        "details": "See {IERC165-supportsInterface}."
      }
    },
    "title": "API3CompositeWrapperWithThresholding",
    "version": 1
  },
  "userdoc": {
    "kind": "user",
    "methods": {
      "BASE_CURRENCY()": {
        "notice": "Returns the base currency address"
      },
      "BASE_CURRENCY_UNIT()": {
        "notice": "Returns the base currency unit"
      },
      "getAssetPrice(address)": {
        "notice": "Returns the asset price in the base currency"
      },
      "getPriceInfo(address)": {
        "notice": "Returns the price and alive status of an asset"
      }
    },
    "version": 1
  },
  "storageLayout": {
    "storage": [
      {
        "astId": 26,
        "contract": "contracts/oracle_aggregator/wrapper/API3CompositeWrapperWithThresholding.sol:API3CompositeWrapperWithThresholding",
        "label": "_roles",
        "offset": 0,
        "slot": "0",
        "type": "t_mapping(t_bytes32,t_struct(RoleData)21_storage)"
      },
      {
        "astId": 650,
        "contract": "contracts/oracle_aggregator/wrapper/API3CompositeWrapperWithThresholding.sol:API3CompositeWrapperWithThresholding",
        "label": "heartbeatStaleTimeLimit",
        "offset": 0,
        "slot": "1",
        "type": "t_uint256"
      },
      {
        "astId": 805,
        "contract": "contracts/oracle_aggregator/wrapper/API3CompositeWrapperWithThresholding.sol:API3CompositeWrapperWithThresholding",
        "label": "compositeFeeds",
        "offset": 0,
        "slot": "2",
        "type": "t_mapping(t_address,t_struct(CompositeFeed)800_storage)"
      }
    ],
    "types": {
      "t_address": {
        "encoding": "inplace",
        "label": "address",
        "numberOfBytes": "20"
      },
      "t_bool": {
        "encoding": "inplace",
        "label": "bool",
        "numberOfBytes": "1"
      },
      "t_bytes32": {
        "encoding": "inplace",
        "label": "bytes32",
        "numberOfBytes": "32"
      },
      "t_mapping(t_address,t_bool)": {
        "encoding": "mapping",
        "key": "t_address",
        "label": "mapping(address => bool)",
        "numberOfBytes": "32",
        "value": "t_bool"
      },
      "t_mapping(t_address,t_struct(CompositeFeed)800_storage)": {
        "encoding": "mapping",
        "key": "t_address",
        "label": "mapping(address => struct API3CompositeWrapperWithThresholding.CompositeFeed)",
        "numberOfBytes": "32",
        "value": "t_struct(CompositeFeed)800_storage"
      },
      "t_mapping(t_bytes32,t_struct(RoleData)21_storage)": {
        "encoding": "mapping",
        "key": "t_bytes32",
        "label": "mapping(bytes32 => struct AccessControl.RoleData)",
        "numberOfBytes": "32",
        "value": "t_struct(RoleData)21_storage"
      },
      "t_struct(CompositeFeed)800_storage": {
        "encoding": "inplace",
        "label": "struct API3CompositeWrapperWithThresholding.CompositeFeed",
        "members": [
          {
            "astId": 791,
            "contract": "contracts/oracle_aggregator/wrapper/API3CompositeWrapperWithThresholding.sol:API3CompositeWrapperWithThresholding",
            "label": "proxy1",
            "offset": 0,
            "slot": "0",
            "type": "t_address"
          },
          {
            "astId": 793,
            "contract": "contracts/oracle_aggregator/wrapper/API3CompositeWrapperWithThresholding.sol:API3CompositeWrapperWithThresholding",
            "label": "proxy2",
            "offset": 0,
            "slot": "1",
            "type": "t_address"
          },
          {
            "astId": 796,
            "contract": "contracts/oracle_aggregator/wrapper/API3CompositeWrapperWithThresholding.sol:API3CompositeWrapperWithThresholding",
            "label": "primaryThreshold",
            "offset": 0,
            "slot": "2",
            "type": "t_struct(ThresholdConfig)1471_storage"
          },
          {
            "astId": 799,
            "contract": "contracts/oracle_aggregator/wrapper/API3CompositeWrapperWithThresholding.sol:API3CompositeWrapperWithThresholding",
            "label": "secondaryThreshold",
            "offset": 0,
            "slot": "4",
            "type": "t_struct(ThresholdConfig)1471_storage"
          }
        ],
        "numberOfBytes": "192"
      },
      "t_struct(RoleData)21_storage": {
        "encoding": "inplace",
        "label": "struct AccessControl.RoleData",
        "members": [
          {
            "astId": 18,
            "contract": "contracts/oracle_aggregator/wrapper/API3CompositeWrapperWithThresholding.sol:API3CompositeWrapperWithThresholding",
            "label": "hasRole",
            "offset": 0,
            "slot": "0",
            "type": "t_mapping(t_address,t_bool)"
          },
          {
            "astId": 20,
            "contract": "contracts/oracle_aggregator/wrapper/API3CompositeWrapperWithThresholding.sol:API3CompositeWrapperWithThresholding",
            "label": "adminRole",
            "offset": 0,
            "slot": "1",
            "type": "t_bytes32"
          }
        ],
        "numberOfBytes": "64"
      },
      "t_struct(ThresholdConfig)1471_storage": {
        "encoding": "inplace",
        "label": "struct ThresholdingUtils.ThresholdConfig",
        "members": [
          {
            "astId": 1468,
            "contract": "contracts/oracle_aggregator/wrapper/API3CompositeWrapperWithThresholding.sol:API3CompositeWrapperWithThresholding",
            "label": "lowerThresholdInBase",
            "offset": 0,
            "slot": "0",
            "type": "t_uint256"
          },
          {
            "astId": 1470,
            "contract": "contracts/oracle_aggregator/wrapper/API3CompositeWrapperWithThresholding.sol:API3CompositeWrapperWithThresholding",
            "label": "fixedPriceInBase",
            "offset": 0,
            "slot": "1",
            "type": "t_uint256"
          }
        ],
        "numberOfBytes": "64"
      },
      "t_uint256": {
        "encoding": "inplace",
        "label": "uint256",
        "numberOfBytes": "32"
      }
    }
  }
}