{
  "address": "0xfFe238501B321B9A059F3df2C4C7881b3c0fa53e",
  "abi": [
    {
      "inputs": [
        {
          "internalType": "address",
          "name": "baseCurrency",
          "type": "address"
        },
        {
          "internalType": "uint256",
          "name": "_baseCurrencyUnit",
          "type": "uint256"
        }
      ],
      "stateMutability": "nonpayable",
      "type": "constructor"
    },
    {
      "inputs": [],
      "name": "AccessControlBadConfirmation",
      "type": "error"
    },
    {
      "inputs": [
        {
          "internalType": "address",
          "name": "account",
          "type": "address"
        },
        {
          "internalType": "bytes32",
          "name": "neededRole",
          "type": "bytes32"
        }
      ],
      "name": "AccessControlUnauthorizedAccount",
      "type": "error"
    },
    {
      "inputs": [],
      "name": "PriceIsStale",
      "type": "error"
    },
    {
      "inputs": [
        {
          "internalType": "address",
          "name": "asset",
          "type": "address"
        }
      ],
      "name": "ProxyNotSet",
      "type": "error"
    },
    {
      "anonymous": false,
      "inputs": [
        {
          "indexed": true,
          "internalType": "bytes32",
          "name": "role",
          "type": "bytes32"
        },
        {
          "indexed": true,
          "internalType": "bytes32",
          "name": "previousAdminRole",
          "type": "bytes32"
        },
        {
          "indexed": true,
          "internalType": "bytes32",
          "name": "newAdminRole",
          "type": "bytes32"
        }
      ],
      "name": "RoleAdminChanged",
      "type": "event"
    },
    {
      "anonymous": false,
      "inputs": [
        {
          "indexed": true,
          "internalType": "bytes32",
          "name": "role",
          "type": "bytes32"
        },
        {
          "indexed": true,
          "internalType": "address",
          "name": "account",
          "type": "address"
        },
        {
          "indexed": true,
          "internalType": "address",
          "name": "sender",
          "type": "address"
        }
      ],
      "name": "RoleGranted",
      "type": "event"
    },
    {
      "anonymous": false,
      "inputs": [
        {
          "indexed": true,
          "internalType": "bytes32",
          "name": "role",
          "type": "bytes32"
        },
        {
          "indexed": true,
          "internalType": "address",
          "name": "account",
          "type": "address"
        },
        {
          "indexed": true,
          "internalType": "address",
          "name": "sender",
          "type": "address"
        }
      ],
      "name": "RoleRevoked",
      "type": "event"
    },
    {
      "anonymous": false,
      "inputs": [
        {
          "indexed": true,
          "internalType": "address",
          "name": "asset",
          "type": "address"
        }
      ],
      "name": "ThresholdConfigRemoved",
      "type": "event"
    },
    {
      "anonymous": false,
      "inputs": [
        {
          "indexed": true,
          "internalType": "address",
          "name": "asset",
          "type": "address"
        },
        {
          "indexed": false,
          "internalType": "uint256",
          "name": "lowerThresholdInBase",
          "type": "uint256"
        },
        {
          "indexed": false,
          "internalType": "uint256",
          "name": "fixedPriceInBase",
          "type": "uint256"
        }
      ],
      "name": "ThresholdConfigSet",
      "type": "event"
    },
    {
      "inputs": [],
      "name": "API3_BASE_CURRENCY_UNIT",
      "outputs": [
        {
          "internalType": "uint256",
          "name": "",
          "type": "uint256"
        }
      ],
      "stateMutability": "view",
      "type": "function"
    },
    {
      "inputs": [],
      "name": "API3_HEARTBEAT",
      "outputs": [
        {
          "internalType": "uint256",
          "name": "",
          "type": "uint256"
        }
      ],
      "stateMutability": "view",
      "type": "function"
    },
    {
      "inputs": [],
      "name": "BASE_CURRENCY",
      "outputs": [
        {
          "internalType": "address",
          "name": "",
          "type": "address"
        }
      ],
      "stateMutability": "view",
      "type": "function"
    },
    {
      "inputs": [],
      "name": "BASE_CURRENCY_UNIT",
      "outputs": [
        {
          "internalType": "uint256",
          "name": "",
          "type": "uint256"
        }
      ],
      "stateMutability": "view",
      "type": "function"
    },
    {
      "inputs": [],
      "name": "DEFAULT_ADMIN_ROLE",
      "outputs": [
        {
          "internalType": "bytes32",
          "name": "",
          "type": "bytes32"
        }
      ],
      "stateMutability": "view",
      "type": "function"
    },
    {
      "inputs": [],
      "name": "ORACLE_MANAGER_ROLE",
      "outputs": [
        {
          "internalType": "bytes32",
          "name": "",
          "type": "bytes32"
        }
      ],
      "stateMutability": "view",
      "type": "function"
    },
    {
      "inputs": [
        {
          "internalType": "address",
          "name": "",
          "type": "address"
        }
      ],
      "name": "assetThresholds",
      "outputs": [
        {
          "internalType": "uint256",
          "name": "lowerThresholdInBase",
          "type": "uint256"
        },
        {
          "internalType": "uint256",
          "name": "fixedPriceInBase",
          "type": "uint256"
        }
      ],
      "stateMutability": "view",
      "type": "function"
    },
    {
      "inputs": [
        {
          "internalType": "address",
          "name": "",
          "type": "address"
        }
      ],
      "name": "assetToProxy",
      "outputs": [
        {
          "internalType": "contract IProxy",
          "name": "",
          "type": "address"
        }
      ],
      "stateMutability": "view",
      "type": "function"
    },
    {
      "inputs": [
        {
          "internalType": "address",
          "name": "asset",
          "type": "address"
        }
      ],
      "name": "getAssetPrice",
      "outputs": [
        {
          "internalType": "uint256",
          "name": "",
          "type": "uint256"
        }
      ],
      "stateMutability": "view",
      "type": "function"
    },
    {
      "inputs": [
        {
          "internalType": "address",
          "name": "asset",
          "type": "address"
        }
      ],
      "name": "getPriceInfo",
      "outputs": [
        {
          "internalType": "uint256",
          "name": "price",
          "type": "uint256"
        },
        {
          "internalType": "bool",
          "name": "isAlive",
          "type": "bool"
        }
      ],
      "stateMutability": "view",
      "type": "function"
    },
    {
      "inputs": [
        {
          "internalType": "bytes32",
          "name": "role",
          "type": "bytes32"
        }
      ],
      "name": "getRoleAdmin",
      "outputs": [
        {
          "internalType": "bytes32",
          "name": "",
          "type": "bytes32"
        }
      ],
      "stateMutability": "view",
      "type": "function"
    },
    {
      "inputs": [
        {
          "internalType": "bytes32",
          "name": "role",
          "type": "bytes32"
        },
        {
          "internalType": "address",
          "name": "account",
          "type": "address"
        }
      ],
      "name": "grantRole",
      "outputs": [],
      "stateMutability": "nonpayable",
      "type": "function"
    },
    {
      "inputs": [
        {
          "internalType": "bytes32",
          "name": "role",
          "type": "bytes32"
        },
        {
          "internalType": "address",
          "name": "account",
          "type": "address"
        }
      ],
      "name": "hasRole",
      "outputs": [
        {
          "internalType": "bool",
          "name": "",
          "type": "bool"
        }
      ],
      "stateMutability": "view",
      "type": "function"
    },
    {
      "inputs": [],
      "name": "heartbeatStaleTimeLimit",
      "outputs": [
        {
          "internalType": "uint256",
          "name": "",
          "type": "uint256"
        }
      ],
      "stateMutability": "view",
      "type": "function"
    },
    {
      "inputs": [
        {
          "internalType": "address",
          "name": "asset",
          "type": "address"
        }
      ],
      "name": "removeThresholdConfig",
      "outputs": [],
      "stateMutability": "nonpayable",
      "type": "function"
    },
    {
      "inputs": [
        {
          "internalType": "bytes32",
          "name": "role",
          "type": "bytes32"
        },
        {
          "internalType": "address",
          "name": "callerConfirmation",
          "type": "address"
        }
      ],
      "name": "renounceRole",
      "outputs": [],
      "stateMutability": "nonpayable",
      "type": "function"
    },
    {
      "inputs": [
        {
          "internalType": "bytes32",
          "name": "role",
          "type": "bytes32"
        },
        {
          "internalType": "address",
          "name": "account",
          "type": "address"
        }
      ],
      "name": "revokeRole",
      "outputs": [],
      "stateMutability": "nonpayable",
      "type": "function"
    },
    {
      "inputs": [
        {
          "internalType": "uint256",
          "name": "_newHeartbeatStaleTimeLimit",
          "type": "uint256"
        }
      ],
      "name": "setHeartbeatStaleTimeLimit",
      "outputs": [],
      "stateMutability": "nonpayable",
      "type": "function"
    },
    {
      "inputs": [
        {
          "internalType": "address",
          "name": "asset",
          "type": "address"
        },
        {
          "internalType": "address",
          "name": "proxy",
          "type": "address"
        }
      ],
      "name": "setProxy",
      "outputs": [],
      "stateMutability": "nonpayable",
      "type": "function"
    },
    {
      "inputs": [
        {
          "internalType": "address",
          "name": "asset",
          "type": "address"
        },
        {
          "internalType": "uint256",
          "name": "lowerThresholdInBase",
          "type": "uint256"
        },
        {
          "internalType": "uint256",
          "name": "fixedPriceInBase",
          "type": "uint256"
        }
      ],
      "name": "setThresholdConfig",
      "outputs": [],
      "stateMutability": "nonpayable",
      "type": "function"
    },
    {
      "inputs": [
        {
          "internalType": "bytes4",
          "name": "interfaceId",
          "type": "bytes4"
        }
      ],
      "name": "supportsInterface",
      "outputs": [
        {
          "internalType": "bool",
          "name": "",
          "type": "bool"
        }
      ],
      "stateMutability": "view",
      "type": "function"
    }
  ],
  "transactionHash": "0x6829de59e68154bd3cdd91bc95532e6d10aae084bb2c6933cef15131832d976a",
  "args": [
    "0x039e2fB66102314Ce7b64Ce5Ce3E5183bc94aD38",
    "1000000000000000000"
  ],
  "numDeployments": 1,
  "solcInputHash": "802662d4668a3e264f06cbf06c787a51",
  "bytecode": "0x60c06040526107086001553480156200001757600080fd5b50604051620018e0380380620018e083398181016040528101906200003d9190620002ec565b818181818173ffffffffffffffffffffffffffffffffffffffff1660808173ffffffffffffffffffffffffffffffffffffffff16815250508060a08181525050620000926000801b33620000d260201b60201c565b50620000c57fced6982f480260bdd8ad5cb18ff2854f0306d78d904ad6cc107e8f3a0f526c1833620000d260201b60201c565b5050505050505062000333565b6000620000e68383620001d560201b60201c565b620001ca57600160008085815260200190815260200160002060000160008473ffffffffffffffffffffffffffffffffffffffff1673ffffffffffffffffffffffffffffffffffffffff16815260200190815260200160002060006101000a81548160ff021916908315150217905550620001666200023f60201b60201c565b73ffffffffffffffffffffffffffffffffffffffff168273ffffffffffffffffffffffffffffffffffffffff16847f2f8788117e7eff1d82e926ec794901d17c78024a50270940304540a733656f0d60405160405180910390a460019050620001cf565b600090505b92915050565b600080600084815260200190815260200160002060000160008373ffffffffffffffffffffffffffffffffffffffff1673ffffffffffffffffffffffffffffffffffffffff16815260200190815260200160002060009054906101000a900460ff16905092915050565b600033905090565b600080fd5b600073ffffffffffffffffffffffffffffffffffffffff82169050919050565b600062000279826200024c565b9050919050565b6200028b816200026c565b81146200029757600080fd5b50565b600081519050620002ab8162000280565b92915050565b6000819050919050565b620002c681620002b1565b8114620002d257600080fd5b50565b600081519050620002e681620002bb565b92915050565b6000806040838503121562000306576200030562000247565b5b600062000316858286016200029a565b92505060206200032985828601620002d5565b9150509250929050565b60805160a05161158062000360600039600081816106580152610efe01526000610a1601526115806000f3fe608060405234801561001057600080fd5b50600436106101375760003560e01c806391d14854116100b8578063bfc69e1c1161007c578063bfc69e1c14610374578063c5efe27c14610392578063d547741f146103ae578063e19f4700146103ca578063fbff771c146103e8578063ffceb4151461040657610137565b806391d14854146102a9578063a217fddf146102d9578063a794d152146102f7578063a9d4630c14610328578063b3596f071461034457610137565b80632f2ff15d116100ff5780632f2ff15d1461020657806336568abe146102225780638c89b64f1461023e5780638edbf4361461025c5780638f7af4211461028d57610137565b806301ffc9a71461013c578063042818f91461016c578063248a9ca314610188578063276d9959146101b85780632ecac6fc146101e8575b600080fd5b61015660048036038101906101519190610f96565b610424565b6040516101639190610fde565b60405180910390f35b61018660048036038101906101819190611057565b61049e565b005b6101a2600480360381019061019d91906110ba565b610561565b6040516101af91906110f6565b60405180910390f35b6101d260048036038101906101cd9190611057565b610580565b6040516101df9190611170565b60405180910390f35b6101f06105b3565b6040516101fd91906111a4565b60405180910390f35b610220600480360381019061021b91906111bf565b6105b9565b005b61023c600480360381019061023791906111bf565b6105db565b005b610246610656565b60405161025391906111a4565b60405180910390f35b61027660048036038101906102719190611057565b61067a565b6040516102849291906111ff565b60405180910390f35b6102a760048036038101906102a29190611254565b610717565b005b6102c360048036038101906102be91906111bf565b610802565b6040516102d09190610fde565b60405180910390f35b6102e161086c565b6040516102ee91906110f6565b60405180910390f35b610311600480360381019061030c9190611057565b610873565b60405161031f9291906112a7565b60405180910390f35b610342600480360381019061033d91906112d0565b610897565b005b61035e60048036038101906103599190611057565b610944565b60405161036b91906111a4565b60405180910390f35b61037c610997565b60405161038991906110f6565b60405180910390f35b6103ac60048036038101906103a79190611310565b6109bb565b005b6103c860048036038101906103c391906111bf565b6109f0565b005b6103d2610a12565b6040516103df919061134c565b60405180910390f35b6103f0610a3a565b6040516103fd91906111a4565b60405180910390f35b61040e610a46565b60405161041b91906111a4565b60405180910390f35b60007f7965db0b000000000000000000000000000000000000000000000000000000007bffffffffffffffffffffffffffffffffffffffffffffffffffffffff1916827bffffffffffffffffffffffffffffffffffffffffffffffffffffffff19161480610497575061049682610a4d565b5b9050919050565b7fced6982f480260bdd8ad5cb18ff2854f0306d78d904ad6cc107e8f3a0f526c186104c881610ab7565b600360008373ffffffffffffffffffffffffffffffffffffffff1673ffffffffffffffffffffffffffffffffffffffff168152602001908152602001600020600080820160009055600182016000905550508173ffffffffffffffffffffffffffffffffffffffff167fe33ca422cb32fc509d95272b11d42c89c665a8968c21a483226b773e18c072f160405160405180910390a25050565b6000806000838152602001908152602001600020600101549050919050565b60026020528060005260406000206000915054906101000a900473ffffffffffffffffffffffffffffffffffffffff1681565b60015481565b6105c282610561565b6105cb81610ab7565b6105d58383610acb565b50505050565b6105e3610bbc565b73ffffffffffffffffffffffffffffffffffffffff168173ffffffffffffffffffffffffffffffffffffffff1614610647576040517f6697b23200000000000000000000000000000000000000000000000000000000815260040160405180910390fd5b6106518282610bc4565b505050565b7f000000000000000000000000000000000000000000000000000000000000000081565b60008061068683610cb6565b80925081935050508015610712576000600360008573ffffffffffffffffffffffffffffffffffffffff1673ffffffffffffffffffffffffffffffffffffffff1681526020019081526020016000206040518060400160405290816000820154815260200160018201548152505090506000816000015111156107105761070d8382610e7c565b92505b505b915091565b7fced6982f480260bdd8ad5cb18ff2854f0306d78d904ad6cc107e8f3a0f526c1861074181610ab7565b604051806040016040528084815260200183815250600360008673ffffffffffffffffffffffffffffffffffffffff1673ffffffffffffffffffffffffffffffffffffffff16815260200190815260200160002060008201518160000155602082015181600101559050508373ffffffffffffffffffffffffffffffffffffffff167fc7f1785f536ea381a57caaf882172a5df51535dc45cf06657813919e3cf535e384846040516107f49291906112a7565b60405180910390a250505050565b600080600084815260200190815260200160002060000160008373ffffffffffffffffffffffffffffffffffffffff1673ffffffffffffffffffffffffffffffffffffffff16815260200190815260200160002060009054906101000a900460ff16905092915050565b6000801b81565b60036020528060005260406000206000915090508060000154908060010154905082565b7fced6982f480260bdd8ad5cb18ff2854f0306d78d904ad6cc107e8f3a0f526c186108c181610ab7565b81600260008573ffffffffffffffffffffffffffffffffffffffff1673ffffffffffffffffffffffffffffffffffffffff16815260200190815260200160002060006101000a81548173ffffffffffffffffffffffffffffffffffffffff021916908373ffffffffffffffffffffffffffffffffffffffff160217905550505050565b60008060006109528461067a565b915091508061098d576040517f857860b600000000000000000000000000000000000000000000000000000000815260040160405180910390fd5b8192505050919050565b7fced6982f480260bdd8ad5cb18ff2854f0306d78d904ad6cc107e8f3a0f526c1881565b7fced6982f480260bdd8ad5cb18ff2854f0306d78d904ad6cc107e8f3a0f526c186109e581610ab7565b816001819055505050565b6109f982610561565b610a0281610ab7565b610a0c8383610bc4565b50505050565b60007f0000000000000000000000000000000000000000000000000000000000000000905090565b670de0b6b3a764000081565b6201518081565b60007f01ffc9a7000000000000000000000000000000000000000000000000000000007bffffffffffffffffffffffffffffffffffffffffffffffffffffffff1916827bffffffffffffffffffffffffffffffffffffffffffffffffffffffff1916149050919050565b610ac881610ac3610bbc565b610ea0565b50565b6000610ad78383610802565b610bb157600160008085815260200190815260200160002060000160008473ffffffffffffffffffffffffffffffffffffffff1673ffffffffffffffffffffffffffffffffffffffff16815260200190815260200160002060006101000a81548160ff021916908315150217905550610b4e610bbc565b73ffffffffffffffffffffffffffffffffffffffff168273ffffffffffffffffffffffffffffffffffffffff16847f2f8788117e7eff1d82e926ec794901d17c78024a50270940304540a733656f0d60405160405180910390a460019050610bb6565b600090505b92915050565b600033905090565b6000610bd08383610802565b15610cab57600080600085815260200190815260200160002060000160008473ffffffffffffffffffffffffffffffffffffffff1673ffffffffffffffffffffffffffffffffffffffff16815260200190815260200160002060006101000a81548160ff021916908315150217905550610c48610bbc565b73ffffffffffffffffffffffffffffffffffffffff168273ffffffffffffffffffffffffffffffffffffffff16847ff6391f5c32d9c69d2a47ea670b442974b53935d1edc7fd64eb21e047a839171b60405160405180910390a460019050610cb0565b600090505b92915050565b6000806000600260008573ffffffffffffffffffffffffffffffffffffffff1673ffffffffffffffffffffffffffffffffffffffff16815260200190815260200160002060009054906101000a900473ffffffffffffffffffffffffffffffffffffffff169050600073ffffffffffffffffffffffffffffffffffffffff168173ffffffffffffffffffffffffffffffffffffffff1603610d8e57836040517f26a5df8d000000000000000000000000000000000000000000000000000000008152600401610d85919061134c565b60405180910390fd5b6000808273ffffffffffffffffffffffffffffffffffffffff166357de26a46040518163ffffffff1660e01b81526004016040805180830381865afa158015610ddb573d6000803e3d6000fd5b505050506040513d601f19601f82011682018060405250810190610dff91906113dc565b91509150600082601b0b13610e15576000610e35565b817bffffffffffffffffffffffffffffffffffffffffffffffffffffffff165b9450600085118015610e67575042600154620151808363ffffffff16610e5b919061144b565b610e65919061144b565b115b9350610e7285610ef1565b9450505050915091565b60008160000151831115610e965781602001519050610e9a565b8290505b92915050565b610eaa8282610802565b610eed5780826040517fe2517d3f000000000000000000000000000000000000000000000000000000008152600401610ee492919061147f565b60405180910390fd5b5050565b6000670de0b6b3a76400007f000000000000000000000000000000000000000000000000000000000000000083610f2891906114a8565b610f329190611519565b9050919050565b600080fd5b60007fffffffff0000000000000000000000000000000000000000000000000000000082169050919050565b610f7381610f3e565b8114610f7e57600080fd5b50565b600081359050610f9081610f6a565b92915050565b600060208284031215610fac57610fab610f39565b5b6000610fba84828501610f81565b91505092915050565b60008115159050919050565b610fd881610fc3565b82525050565b6000602082019050610ff36000830184610fcf565b92915050565b600073ffffffffffffffffffffffffffffffffffffffff82169050919050565b600061102482610ff9565b9050919050565b61103481611019565b811461103f57600080fd5b50565b6000813590506110518161102b565b92915050565b60006020828403121561106d5761106c610f39565b5b600061107b84828501611042565b91505092915050565b6000819050919050565b61109781611084565b81146110a257600080fd5b50565b6000813590506110b48161108e565b92915050565b6000602082840312156110d0576110cf610f39565b5b60006110de848285016110a5565b91505092915050565b6110f081611084565b82525050565b600060208201905061110b60008301846110e7565b92915050565b6000819050919050565b600061113661113161112c84610ff9565b611111565b610ff9565b9050919050565b60006111488261111b565b9050919050565b600061115a8261113d565b9050919050565b61116a8161114f565b82525050565b60006020820190506111856000830184611161565b92915050565b6000819050919050565b61119e8161118b565b82525050565b60006020820190506111b96000830184611195565b92915050565b600080604083850312156111d6576111d5610f39565b5b60006111e4858286016110a5565b92505060206111f585828601611042565b9150509250929050565b60006040820190506112146000830185611195565b6112216020830184610fcf565b9392505050565b6112318161118b565b811461123c57600080fd5b50565b60008135905061124e81611228565b92915050565b60008060006060848603121561126d5761126c610f39565b5b600061127b86828701611042565b935050602061128c8682870161123f565b925050604061129d8682870161123f565b9150509250925092565b60006040820190506112bc6000830185611195565b6112c96020830184611195565b9392505050565b600080604083850312156112e7576112e6610f39565b5b60006112f585828601611042565b925050602061130685828601611042565b9150509250929050565b60006020828403121561132657611325610f39565b5b60006113348482850161123f565b91505092915050565b61134681611019565b82525050565b6000602082019050611361600083018461133d565b92915050565b600081601b0b9050919050565b61137d81611367565b811461138857600080fd5b50565b60008151905061139a81611374565b92915050565b600063ffffffff82169050919050565b6113b9816113a0565b81146113c457600080fd5b50565b6000815190506113d6816113b0565b92915050565b600080604083850312156113f3576113f2610f39565b5b60006114018582860161138b565b9250506020611412858286016113c7565b9150509250929050565b7f4e487b7100000000000000000000000000000000000000000000000000000000600052601160045260246000fd5b60006114568261118b565b91506114618361118b565b92508282019050808211156114795761147861141c565b5b92915050565b6000604082019050611494600083018561133d565b6114a160208301846110e7565b9392505050565b60006114b38261118b565b91506114be8361118b565b92508282026114cc8161118b565b915082820484148315176114e3576114e261141c565b5b5092915050565b7f4e487b7100000000000000000000000000000000000000000000000000000000600052601260045260246000fd5b60006115248261118b565b915061152f8361118b565b92508261153f5761153e6114ea565b5b82820490509291505056fea264697066735822122020ec9ea569e60907be8f617758c248eba9fed23f47f7823b314bd5d0b48f29fc64736f6c63430008140033",
  "devdoc": {
    "errors": {
      "AccessControlBadConfirmation()": [
        {
          "details": "The caller of a function is not the expected one. NOTE: Don't confuse with {AccessControlUnauthorizedAccount}."
        }
      ],
      "AccessControlUnauthorizedAccount(address,bytes32)": [
        {
          "details": "The `account` is missing a role."
        }
      ]
    },
    "events": {
      "RoleAdminChanged(bytes32,bytes32,bytes32)": {
        "details": "Emitted when `newAdminRole` is set as ``role``'s admin role, replacing `previousAdminRole` `DEFAULT_ADMIN_ROLE` is the starting admin for all roles, despite {RoleAdminChanged} not being emitted signaling this."
      },
      "RoleGranted(bytes32,address,address)": {
        "details": "Emitted when `account` is granted `role`. `sender` is the account that originated the contract call. This account bears the admin role (for the granted role). Expected in cases where the role was granted using the internal {AccessControl-_grantRole}."
      },
      "RoleRevoked(bytes32,address,address)": {
        "details": "Emitted when `account` is revoked `role`. `sender` is the account that originated the contract call:   - if using `revokeRole`, it is the admin role bearer   - if using `renounceRole`, it is the role bearer (i.e. `account`)"
      }
    },
    "kind": "dev",
    "methods": {
      "BASE_CURRENCY()": {
        "returns": {
          "_0": "Returns the base currency address."
        }
      },
      "getAssetPrice(address)": {
        "params": {
          "asset": "The address of the asset"
        },
        "returns": {
          "_0": "The price of the asset"
        }
      },
      "getPriceInfo(address)": {
        "params": {
          "asset": "The address of the asset"
        },
        "returns": {
          "isAlive": "The alive status of the asset",
          "price": "The price of the asset"
        }
      },
      "getRoleAdmin(bytes32)": {
        "details": "Returns the admin role that controls `role`. See {grantRole} and {revokeRole}. To change a role's admin, use {_setRoleAdmin}."
      },
      "grantRole(bytes32,address)": {
        "details": "Grants `role` to `account`. If `account` had not been already granted `role`, emits a {RoleGranted} event. Requirements: - the caller must have ``role``'s admin role. May emit a {RoleGranted} event."
      },
      "hasRole(bytes32,address)": {
        "details": "Returns `true` if `account` has been granted `role`."
      },
      "renounceRole(bytes32,address)": {
        "details": "Revokes `role` from the calling account. Roles are often managed via {grantRole} and {revokeRole}: this function's purpose is to provide a mechanism for accounts to lose their privileges if they are compromised (such as when a trusted device is misplaced). If the calling account had been revoked `role`, emits a {RoleRevoked} event. Requirements: - the caller must be `callerConfirmation`. May emit a {RoleRevoked} event."
      },
      "revokeRole(bytes32,address)": {
        "details": "Revokes `role` from `account`. If `account` had been granted `role`, emits a {RoleRevoked} event. Requirements: - the caller must have ``role``'s admin role. May emit a {RoleRevoked} event."
      },
      "supportsInterface(bytes4)": {
        "details": "See {IERC165-supportsInterface}."
      }
    },
    "version": 1
  },
  "userdoc": {
    "kind": "user",
    "methods": {
      "BASE_CURRENCY()": {
        "notice": "Returns the base currency address"
      },
      "BASE_CURRENCY_UNIT()": {
        "notice": "Returns the base currency unit"
      },
      "getAssetPrice(address)": {
        "notice": "Returns the asset price in the base currency"
      },
      "getPriceInfo(address)": {
        "notice": "Returns the price and alive status of an asset"
      }
    },
    "version": 1
  },
  "storageLayout": {
    "storage": [
      {
        "astId": 26,
        "contract": "contracts/oracle_aggregator/wrapper/API3WrapperWithThresholding.sol:API3WrapperWithThresholding",
        "label": "_roles",
        "offset": 0,
        "slot": "0",
        "type": "t_mapping(t_bytes32,t_struct(RoleData)21_storage)"
      },
      {
        "astId": 650,
        "contract": "contracts/oracle_aggregator/wrapper/API3WrapperWithThresholding.sol:API3WrapperWithThresholding",
        "label": "heartbeatStaleTimeLimit",
        "offset": 0,
        "slot": "1",
        "type": "t_uint256"
      },
      {
        "astId": 1222,
        "contract": "contracts/oracle_aggregator/wrapper/API3WrapperWithThresholding.sol:API3WrapperWithThresholding",
        "label": "assetToProxy",
        "offset": 0,
        "slot": "2",
        "type": "t_mapping(t_address,t_contract(IProxy)777)"
      },
      {
        "astId": 1349,
        "contract": "contracts/oracle_aggregator/wrapper/API3WrapperWithThresholding.sol:API3WrapperWithThresholding",
        "label": "assetThresholds",
        "offset": 0,
        "slot": "3",
        "type": "t_mapping(t_address,t_struct(ThresholdConfig)1471_storage)"
      }
    ],
    "types": {
      "t_address": {
        "encoding": "inplace",
        "label": "address",
        "numberOfBytes": "20"
      },
      "t_bool": {
        "encoding": "inplace",
        "label": "bool",
        "numberOfBytes": "1"
      },
      "t_bytes32": {
        "encoding": "inplace",
        "label": "bytes32",
        "numberOfBytes": "32"
      },
      "t_contract(IProxy)777": {
        "encoding": "inplace",
        "label": "contract IProxy",
        "numberOfBytes": "20"
      },
      "t_mapping(t_address,t_bool)": {
        "encoding": "mapping",
        "key": "t_address",
        "label": "mapping(address => bool)",
        "numberOfBytes": "32",
        "value": "t_bool"
      },
      "t_mapping(t_address,t_contract(IProxy)777)": {
        "encoding": "mapping",
        "key": "t_address",
        "label": "mapping(address => contract IProxy)",
        "numberOfBytes": "32",
        "value": "t_contract(IProxy)777"
      },
      "t_mapping(t_address,t_struct(ThresholdConfig)1471_storage)": {
        "encoding": "mapping",
        "key": "t_address",
        "label": "mapping(address => struct ThresholdingUtils.ThresholdConfig)",
        "numberOfBytes": "32",
        "value": "t_struct(ThresholdConfig)1471_storage"
      },
      "t_mapping(t_bytes32,t_struct(RoleData)21_storage)": {
        "encoding": "mapping",
        "key": "t_bytes32",
        "label": "mapping(bytes32 => struct AccessControl.RoleData)",
        "numberOfBytes": "32",
        "value": "t_struct(RoleData)21_storage"
      },
      "t_struct(RoleData)21_storage": {
        "encoding": "inplace",
        "label": "struct AccessControl.RoleData",
        "members": [
          {
            "astId": 18,
            "contract": "contracts/oracle_aggregator/wrapper/API3WrapperWithThresholding.sol:API3WrapperWithThresholding",
            "label": "hasRole",
            "offset": 0,
            "slot": "0",
            "type": "t_mapping(t_address,t_bool)"
          },
          {
            "astId": 20,
            "contract": "contracts/oracle_aggregator/wrapper/API3WrapperWithThresholding.sol:API3WrapperWithThresholding",
            "label": "adminRole",
            "offset": 0,
            "slot": "1",
            "type": "t_bytes32"
          }
        ],
        "numberOfBytes": "64"
      },
      "t_struct(ThresholdConfig)1471_storage": {
        "encoding": "inplace",
        "label": "struct ThresholdingUtils.ThresholdConfig",
        "members": [
          {
            "astId": 1468,
            "contract": "contracts/oracle_aggregator/wrapper/API3WrapperWithThresholding.sol:API3WrapperWithThresholding",
            "label": "lowerThresholdInBase",
            "offset": 0,
            "slot": "0",
            "type": "t_uint256"
          },
          {
            "astId": 1470,
            "contract": "contracts/oracle_aggregator/wrapper/API3WrapperWithThresholding.sol:API3WrapperWithThresholding",
            "label": "fixedPriceInBase",
            "offset": 0,
            "slot": "1",
            "type": "t_uint256"
          }
        ],
        "numberOfBytes": "64"
      },
      "t_uint256": {
        "encoding": "inplace",
        "label": "uint256",
        "numberOfBytes": "32"
      }
    }
  }
}