{
  "address": "0x777DB2EA92316F03ee5a31245b1787FBeBAC81f1",
  "abi": [
    {
      "inputs": [
        {
          "internalType": "contract IPool",
          "name": "pool",
          "type": "address"
        }
      ],
      "stateMutability": "nonpayable",
      "type": "constructor"
    },
    {
      "anonymous": false,
      "inputs": [
        {
          "indexed": true,
          "internalType": "address",
          "name": "staticAToken",
          "type": "address"
        },
        {
          "indexed": true,
          "internalType": "address",
          "name": "underlying",
          "type": "address"
        }
      ],
      "name": "StaticTokenCreated",
      "type": "event"
    },
    {
      "inputs": [],
      "name": "POOL",
      "outputs": [
        {
          "internalType": "contract IPool",
          "name": "",
          "type": "address"
        }
      ],
      "stateMutability": "view",
      "type": "function"
    },
    {
      "inputs": [
        {
          "internalType": "address[]",
          "name": "underlyings",
          "type": "address[]"
        }
      ],
      "name": "createStaticATokens",
      "outputs": [
        {
          "internalType": "address[]",
          "name": "",
          "type": "address[]"
        }
      ],
      "stateMutability": "nonpayable",
      "type": "function"
    },
    {
      "inputs": [
        {
          "internalType": "address",
          "name": "underlying",
          "type": "address"
        }
      ],
      "name": "getStaticAToken",
      "outputs": [
        {
          "internalType": "address",
          "name": "",
          "type": "address"
        }
      ],
      "stateMutability": "view",
      "type": "function"
    },
    {
      "inputs": [],
      "name": "getStaticATokens",
      "outputs": [
        {
          "internalType": "address[]",
          "name": "",
          "type": "address[]"
        }
      ],
      "stateMutability": "view",
      "type": "function"
    },
    {
      "inputs": [],
      "name": "initialize",
      "outputs": [],
      "stateMutability": "pure",
      "type": "function"
    }
  ],
  "transactionHash": "0x0f327d55eae615e073a03fec7a55bde76bbbd7c51768cf006dfd56c49e00672b",
  "args": [
    "0xEdC3cfB1aa36c570cc1D374876268bDda2D460CC"
  ],
  "numDeployments": 1,
  "solcInputHash": "74fe7c2ac35994cc8a21c285cfb30f54",
  "bytecode": "0x60a03461007157601f61528b38819003918201601f19168301916001600160401b038311848410176100765780849260209460405283398101031261007157516001600160a01b0381168103610071576080526040516151fe908161008d823960805181818161019f01526102be0152f35b600080fd5b634e487b7160e01b600052604160045260246000fdfe604060808152600490813610156200001657600080fd5b60009160e08335811c90816356d9be6a14620001d2575080637535d24614620001885780638129fc1c1462000140578063a09aa4a714620000a65763ed5d0f58146200006157600080fd5b34620000a2576020366003190112620000a2576001600160a01b039035818116908190036200009e57838391602095528085522054169051908152f35b8380fd5b8280fd5b8284346200013d57806003193601126200013d578151918291600180548086526020809601958284527fb10e2d527612073b26eecdfd717e6a320cf44b4afac2b0732d9fcbe2b7fa0cf693905b8282106200011e576200011a87876200010f828c038362000805565b519182918262000857565b0390f35b84546001600160a01b03168852968701969383019390830190620000f3565b80fd5b5082346200013d57806003193601126200013d57506020606492519162461bcd60e51b8352820152600e60248201526d2727afa4a724aa24a0a624ad22a960911b6044820152fd5b505034620001ce5781600319360112620001ce57517f00000000000000000000000000000000000000000000000000000000000000006001600160a01b03168152602090f35b5080fd5b9184915034620001ce5760209384600319360112620000a257813567ffffffffffffffff91828211620008015736602383011215620008015781840135966200021b886200083e565b926200022a8351948562000805565b8884528184016024809a60051b83010191368311620007fd578a01905b828210620007d85750505082519162000260836200083e565b926200026f8251948562000805565b80845262000280601f19916200083e565b013683850137865b8451811015620007c9576001600160a01b0380620002a783886200089d565b5116895288845282892054811680620007b45750807f00000000000000000000000000000000000000000000000000000000000000001681620002eb84896200089d565b5185516335ea6a7560e01b815291168a8201526101e09081818f81865afa908115620007aa578c9162000614575b50610100915001908282511615620005da57815185516306fdde0360e01b8152908416928c828d81875afa918215620005b057858d93928f928394620005ba575b506200039b8b8b5180966702bb930b83832b2160c51b838301526200038a81518092602895868601910162000900565b810103600881018752018562000805565b51168851938480926395d89b4160e01b82525afa918215620005b0578d9262000586575b50620003f98888518094607760f81b83830152620003e881518092602195868601910162000900565b810103600181018552018362000805565b86519361480780860194908d8611878710176200057257928f926200045195936200044293899896620009c28a3986528c8601528a85015260a08060608601528401906200099a565b9160808184039101526200099a565b03908af080156200056857811690806200046c84896200089d565b51168a52898552838a2080546001600160a01b03199081168417909155826200049685896200089d565b5260015468010000000000000000811015620005565760018101806001558110156200054457839060018d527fb10e2d527612073b26eecdfd717e6a320cf44b4afac2b0732d9fcbe2b7fa0cf60191825416179055620004f783886200089d565b5116907f7397831292236fdc8043acf7b9d21183e46fd54f9b06bd34210068f95dd378d68a80a35b6000198114620005325760010162000288565b634e487b7160e01b8852601187528988fd5b634e487b7160e01b8c5260328b528d8cfd5b634e487b7160e01b8c5260418b528d8cfd5b83513d8b823e3d90fd5b5050634e487b7160e01b8e5260418d528f8efd5b620005a89192508d3d8091833e6200059f818362000805565b81019062000925565b908f620003bf565b87513d8f823e3d90fd5b620005d29194503d8085833e6200059f818362000805565b92386200035a565b845162461bcd60e51b8152808b018790526015818f01527415539111549316525391d7d393d517d31254d51151605a1b6044820152606490fd5b809150823d8411620007a2575b6200062d818362000805565b81010382811262000788578651928301908382108c83111762000790578813620007885761020083018181108c8211176200079057875281518152825262000677878201620008c8565b8783015262000688868201620008c8565b8683015260606200069b818301620008c8565b908301526080620006ae818301620008c8565b9083015260a0620006c1818301620008c8565b9083015260c0808201519064ffffffffff821682036200078c578301528c81015161ffff8116810362000788578d83015261010091908262000705818301620008eb565b9083015261012062000719818301620008eb565b908301526101406200072d818301620008eb565b9083015261016062000741818301620008eb565b9083015261018062000755818301620008c8565b908301526101a062000769818301620008c8565b908301526200077d6101c0809201620008c8565b908201528e62000319565b8c80fd5b8d80fd5b634e487b7160e01b8e5260418d528f8efd5b503d62000621565b86513d8e823e3d90fd5b9050620007c282866200089d565b526200051f565b8151806200011a868262000857565b81356001600160a01b0381168103620007f957815290830190830162000247565b8980fd5b8880fd5b8480fd5b90601f8019910116810190811067ffffffffffffffff8211176200082857604052565b634e487b7160e01b600052604160045260246000fd5b67ffffffffffffffff8111620008285760051b60200190565b6020908160408183019282815285518094520193019160005b8281106200087f575050505090565b83516001600160a01b03168552938101939281019260010162000870565b8051821015620008b25760209160051b010190565b634e487b7160e01b600052603260045260246000fd5b51906fffffffffffffffffffffffffffffffff82168203620008e657565b600080fd5b51906001600160a01b0382168203620008e657565b60005b838110620009145750506000910152565b818101518382015260200162000903565b602081830312620008e657805167ffffffffffffffff91828211620008e657019082601f83011215620008e657815190811162000828576040519262000976601f8301601f19166020018562000805565b81845260208284010111620008e65762000997916020808501910162000900565b90565b90602091620009b58151809281855285808601910162000900565b601f01601f191601019056fe60c06040818152346200044457620048078038038091620000218286620006e8565b8439820160a083820312620004445782516001600160a01b0390818116810362000444576020928386015192808416840362000444576200006486880162000722565b606088015190956001600160401b039390918481116200044457816200008c918b0162000737565b9860808101519185831162000444578492620000a9920162000737565b96169487519463313ce56760e01b8652600495838188818b5afa908115620006dd576000916200069f575b508a5198868a116200068a576000549960019a8b81811c911680156200067f575b878210146200056a578190601f9e8f918281116200061d575b5088918311600114620005ab576000926200059f575b5050600019600383901b1c1916908b1b176000555b8051908782116200058a578a548b81811c911680156200057f575b878210146200056a578d81116200051e575b5085908d8311600114620004a75760ff939291600091836200049b575b5050600019600383901b1c1916908b1b178a555b1660ff19600254161760025560805260a052838160018060a01b031996808860075416176007558951928380926358b50cef60e11b82525afa908115620004905790839160009162000451575b50168095600854161760085581608051169287519363095ea7b360e01b855285850152600019938281604481600060249b8a8d8401525af18015620004075762000412575b508260a051169081620002b3575b8851613e849081620009838239608051818181610fa901528181611108015281816112ff015281816116a70152818161270401528181612bff01528181612d7a0152818161334901526135c8015260a051818181610b480152818161195b01528181611e1e015281816127d60152818161287b015261298e0152f35b60008460075416888b5180958193636657732f60e01b83528b8301525afa918215620004075760009262000344575b50508698506000985b620002f8575b8062000237565b80518910156200033e576200031783838b60051b8401015116620007ae565b8389146200032a579786019786620002eb565b85601186634e487b7160e01b600052526000fd5b620002f1565b919092993d8083853e620003598185620006e8565b8301928b818503126200040357805190858211620003ff5701908101831315620003fb578051938411620003e9578360051b918a51946200039d8d850187620006e8565b85528b80860193830101938411620003e657508a01905b828210620003cc5750505096859697889738620002e2565b8a8091620003da8462000722565b815201910190620003b4565b80fd5b634e487b7160e01b8252604187528782fd5b5080fd5b8380fd5b8280fd5b89513d6000823e3d90fd5b8281813d831162000449575b6200042a8183620006e8565b810103126200044457518015150362000444573862000229565b600080fd5b503d6200041e565b91508282813d831162000488575b6200046b8183620006e8565b81010312620003e6575062000481839162000722565b38620001e4565b503d6200045f565b88513d6000823e3d90fd5b01519050388062000183565b92918b91601f1982169083600052886000209160005b8a828210620004fc575050958360ff9710620004e2575b505050811b018a5562000197565b015160001960f88460031b161c19169055388080620004d4565b919295889487849397999a015181550195019301908e949296959391620004bd565b8b6000528d876000209080850160051c82019289861062000560575b0160051c01908c905b8281106200055357505062000166565b60008155018c9062000543565b925081926200053a565b60228a634e487b7160e01b6000525260246000fd5b90607f169062000154565b604189634e487b7160e01b6000525260246000fd5b01519050388062000124565b908d9350601f1983169160008052896000209260005b8b828210620005fd5750508411620005e3575b505050811b0160005562000139565b015160001960f88460031b161c19169055388080620005d4565b91929395968291958786015181550195019301908f9594939291620005c1565b9190925060008052886000209080850160051c8201928a861062000675575b8f9092828796949593950160051c01915b8281106200065d5750506200010e565b600091939550809294505501918f918e85946200064d565b925081926200063c565b90607f1690620000f5565b604188634e487b7160e01b6000525260246000fd5b8481813d8311620006d5575b620006b78183620006e8565b81010312620003fb57519060ff82168203620003e6575038620000d4565b503d620006ab565b8a513d6000823e3d90fd5b601f909101601f19168101906001600160401b038211908210176200070c57604052565b634e487b7160e01b600052604160045260246000fd5b51906001600160a01b03821682036200044457565b919080601f8401121562000444578251906001600160401b0382116200070c576040519160209162000773601f8301601f1916840185620006e8565b818452828287010111620004445760005b8181106200079a57508260009394955001015290565b858101830151848201840152820162000784565b60018060a01b03811690600090828252600a60205260409060ff8284205416620008dc57620007dd90620008e2565b9160095468010000000000000000811015620008b4576001810180600955811015620008c857600982527f6e1540171b6c0c960b71a7020d9f60077f6af931a8bbf590da0223dacf75c7af0180546001600160a01b031916851790558151908183016001600160401b03811183821017620008b4578352600182526001600160f01b0384166020808401918252868352600a8152918490209251905160081b60ff191690151560ff161790915590519182527fa8f4dd7e60441ca288d902a295362002a0255a46560b24825821b36716d6fe5b91a2565b634e487b7160e01b82526041600452602482fd5b634e487b7160e01b82526032600452602482fd5b50505050565b6001600160a01b0390811680156200097b5760a0516007546040805163886fe70b60e01b81529185166004830152602482019390935292829184916044918391165afa90811562000971576000916200093c575b50905090565b82813d831162000969575b620009538183620006e8565b81010312620003e6575060200151803862000936565b503d62000947565b513d6000823e3d90fd5b505060009056fe6080604052600436101561001257600080fd5b60003560e01c806301e1d1141461033d57806306fdde031461033857806307a2d13a146102f2578063090edf9a14610333578063095ea7b31461032e5780630a28a4771461032957806318160ddd146103245780632026ffa31461031f57806323b872dd1461031a5780632c4e722e146103155780632f813b0d1461031057806330adf81f1461030b578063313ce567146103065780633644e5151461030157806338d52e0f146102fc578063402d267d146102f75780634cdad506146102f257806360266557146102ed57806360d8fdd8146102e857806363210537146102e35780636e553f65146102de5780636fe0b5a5146102d957806370a08231146102d45780637535d246146102cf5780637ecebe00146102ca57806386894b29146102c55780638d948415146102c05780638daaf5aa146102bb57806394bf804d146102b657806395d89b41146102b1578063a0c1f15e146102ac578063a9059cbb146102a7578063b3d7f6b9146102a2578063b460af941461029d578063ba08765214610298578063bcd1784814610293578063c2b18aa01461028e578063c63d75b614610289578063c6e6f59214610257578063cd086d4514610284578063ce96cb771461027f578063d505accf1461027a578063d905777e14610275578063dd62ed3e14610270578063de9cee981461026b578063e25ec34914610266578063ea9be77c14610261578063ee0fc6d31461025c578063ef8b30f714610257578063f56f4f0f146102525763fa7146101461024d57600080fd5b611eca565b611e8f565b611927565b611d85565b611d17565b611c05565b611bde565b611b99565b611b77565b6119cd565b61198a565b611945565b611901565b61187e565b61181a565b611720565b6115b4565b61158e565b611499565b611470565b6113cb565b611257565b61121c565b6111e1565b611199565b611137565b6110f2565b6110b5565b611073565b610f23565b610ee8565b610ec1565b610cca565b6105ae565b610c84565b610c5b565b610c40565b610c1f565b610be4565b610ae5565b610aca565b61090b565b6108c1565b6107f3565b6107d5565b610746565b610619565b6104cb565b610352565b600091031261034d57565b600080fd5b3461034d57600036600319011261034d576007546040516370a0823160e01b815230600482015290602090829060249082906001600160a01b03165afa80156103d6576020916000916103a9575b50604051908152f35b6103c99150823d81116103cf575b6103c18183610460565b8101906126c8565b386103a0565b503d6103b7565b611faf565b90600182811c9216801561040b575b60208310146103f557565b634e487b7160e01b600052602260045260246000fd5b91607f16916103ea565b634e487b7160e01b600052604160045260246000fd5b67ffffffffffffffff811161043f57604052565b610415565b6040810190811067ffffffffffffffff82111761043f57604052565b90601f8019910116810190811067ffffffffffffffff82111761043f57604052565b6020808252825181830181905290939260005b8281106104b757505060409293506000838284010152601f8019910116010190565b818101860151848201604001528501610495565b3461034d576000806003193601126105ab57604051908080546104ed816103db565b808552916001918083169081156105815750600114610527575b6105238561051781870382610460565b60405191829182610482565b0390f35b80809450527f290decd9548b62a8d60345a988386fc84ba6bc95484008f6362f93160ef3e5635b82841061056957505050810160200161051782610523610507565b8054602085870181019190915290930192810161054e565b8695506105239693506020925061051794915060ff191682840152151560051b8201019293610507565b80fd5b3461034d57602036600319011261034d5760206105d46105cc6126d7565b600435613bec565b604051908152f35b6001600160a01b0381160361034d57565b606090600319011261034d5760043590602435610609816105dc565b90604435610616816105dc565b90565b3461034d576105236106c361062d366105ed565b92919061064361063b612f67565b831515612341565b61065461064e6126d7565b83613bec565b93849261066a610662612f67565b851515612341565b60018060a01b039061068681838516948533036106d357613156565b604080518681526020810192909252918416913391600080516020613dcf8339815191529190a46007546001600160a01b0316613106565b613106565b6040519081529081906020820190565b600086815260056020908152604080832033845290915290205b5482600182016106ff575b5050613156565b61070891611efc565b6001600160a01b038216600090815260056020526040902061073e9033905b9060018060a01b0316600052602052604060002090565b5538826106f8565b3461034d57604036600319011261034d57600435610763816105dc565b60243590336000526005602052816107918260406000209060018060a01b0316600052602052604060002090565b556040519182526001600160a01b03169033907f8c5be1e5ebec7d5bd14f71427d1e84f3dd0314c0f7b2291e5b200ac8c7c3b92590602090a3602060405160018152f35b3461034d57602036600319011261034d5760206105d4600435613b5a565b3461034d57600036600319011261034d576020600354604051908152f35b604051906101e0820182811067ffffffffffffffff82111761043f57604052565b6040519061083f82610444565b565b67ffffffffffffffff811161043f5760051b60200190565b81601f8201121561034d5780359161087083610841565b9261087e6040519485610460565b808452602092838086019260051b82010192831161034d578301905b8282106108a8575050505090565b83809183356108b6816105dc565b81520191019061089a565b3461034d57604036600319011261034d576004356108de816105dc565b6024359067ffffffffffffffff821161034d57610902610909923690600401610859565b9033613957565b005b3461034d57606036600319011261034d57600435610928816105dc565b602435610934816105dc565b60009160443591906001600160a01b0380821680151591841680151591875b600980548210156109d4578952600080516020613e0f8339815191528101546109a4919086906001600160a01b031661098b81612843565b916109c4575b86806109ba575b6109a9575b50506122d9565b610953565b6109b3918a6136ad565b388061099d565b5085851415610998565b6109cf81838b6136ad565b610991565b5050600080516020613def833981519152610a8788610a7189610a4a8a610a23610a108260018060a01b03166000526005602052604060002090565b3360009081526020919091526040902090565b548560018201610a96575b50506001600160a01b0316600090815260046020526040902090565b610a55848254611efc565b90556001600160a01b0316600090815260046020526040902090565b8054820190556040519081529081906020820190565b0390a360405160018152602090f35b610a9f91611efc565b6001600160a01b0382166000908152600560205260409020610ac2903390610727565b558985610a2e565b3461034d57600036600319011261034d5760206105d46126d7565b3461034d576000806003193601126105ab57600754610b4491908190610b1b906001600160a01b03165b6001600160a01b031690565b604051636657732f60e01b81526001600160a01b03909116600482015292839081906024820190565b03817f00000000000000000000000000000000000000000000000000000000000000006001600160a01b03165afa9182156103d6578192610bc0575b50805b8251811015610bbc5780610bb2610bad610ba0610bb79487612310565b516001600160a01b031690565b613c1c565b6122d9565b610b83565b5080f35b610bdd9192503d8084833e610bd58183610460565b810190612255565b9038610b80565b3461034d57600036600319011261034d5760206040517f6e71edae12b1b97f4d1f60370fef10105fa2faae0126114a169c64845d6126c98152f35b3461034d57600036600319011261034d57602060ff60025416604051908152f35b3461034d57600036600319011261034d5760206105d4612101565b3461034d57600036600319011261034d576008546040516001600160a01b039091168152602090f35b3461034d57602036600319011261034d57610ca06004356105dc565b60206105d4612d4b565b60843590811515820361034d57565b60609060c319011261034d5760c490565b3461034d5761012036600319011261034d57600435610ce8816105dc565b602435610cf4816105dc565b606435604435610d02610caa565b9260a4359436610d1190610cb9565b6001600160a01b03821696610d246126ab565b610d3090891515612341565b610d38612365565b610d459042831015612341565b6001600160a01b03831660009081526006602052604090205490610d67612101565b604080517f406ef09971b1bfa50a48ce277d3302602d78c94d58a376e8953b590702de7b31602082019081526001600160a01b038881169383019390935291881660608201526080810189905260a081018a90528a151560c082015260e0810185905261010080820194909452928352601f1992610de761012082610460565b51902060405161190160f01b6020820190815260228201939093526042810191909152606292830181529091610e1d9082610460565b5190206001600160a01b038416600090815260066020526040902090916001019055610e4882612470565b6040805192835260ff919091166020808401919091528301358282015291909101356060820152600080526080905a916000916001602094fa156103d657600051610eaf96610eaa916001600160a01b03165b14610ea461247a565b90612341565b6134d7565b60408051928352602083019190915290f35b3461034d57602036600319011261034d5760206105d4600435610ee3816105dc565b61291c565b3461034d57600036600319011261034d5760206040517f2a83c73b9e01ec0a1b95ff05940d809179668cc004230412d7047ffac3846ce78152f35b3461034d57604036600319011261034d57602435600435610f43826105dc565b6001600160a01b039082821690610f5b61063b61320a565b610f63613227565b50610f77610f6f612d4b565b821115613244565b610f8081613bb1565b92610f8c610662612f67565b6008546001600160a01b031690610fa7833033848616612f84565b7f000000000000000000000000000000000000000000000000000000000000000016803b1561034d5760405163e8eda9df60e01b81526001600160a01b0392909216600483015260248201839052306044830152600060648301819052908290608490829084905af180156103d65760209561102a92869261105a575b50613035565b60408051918252602082018490523391600080516020613e2f83398151915291819081015b0390a3604051908152f35b8061106761106d9261042b565b80610342565b38611024565b3461034d57602036600319011261034d57600435611090816105dc565b60018060a01b0316600052600a602052602060ff604060002054166040519015158152f35b3461034d57602036600319011261034d576004356110d2816105dc565b60018060a01b031660005260046020526020604060002054604051908152f35b3461034d57600036600319011261034d576040517f00000000000000000000000000000000000000000000000000000000000000006001600160a01b03168152602090f35b3461034d57602036600319011261034d57600435611154816105dc565b60018060a01b031660005260066020526020604060002054604051908152f35b604090600319011261034d5760043561118c816105dc565b90602435610616816105dc565b3461034d5760206111d56111ac36611174565b6001600160a01b039182166000908152600b855260408082209290931681526020919091522090565b5460801c604051908152f35b3461034d57600036600319011261034d5760206040517f406ef09971b1bfa50a48ce277d3302602d78c94d58a376e8953b590702de7b318152f35b3461034d57602036600319011261034d5760043567ffffffffffffffff811161034d57611250610909913690600401610859565b3333613957565b3461034d57604036600319011261034d57602435600435611277826105dc565b6001600160a01b03908282169061128f61063b61320a565b801590811591826113c3575b6112a790610ea4613227565b90600090156113a957506112c46112bc612a3d565b821115613290565b6112d56112cf6126d7565b82612f16565b925b6112e261063b612f67565b6008546001600160a01b0316906112fd853033848616612f84565b7f000000000000000000000000000000000000000000000000000000000000000016803b1561034d5760405163e8eda9df60e01b81526001600160a01b0392909216600483015260248201859052306044830152600060648301819052908290608490829084905af180156103d65760209561137f92849261105a5750613035565b6040805184815260208101929092523391600080516020613e2f833981519152918190810161104f565b9290506113b4612d4b565b506113bd613b9f565b906112d7565b50600161129b565b3461034d576000806003193601126105ab57604051908060018054916113f0836103db565b808652928281169081156105815750600114611416576105238561051781870382610460565b92508083527fb10e2d527612073b26eecdfd717e6a320cf44b4afac2b0732d9fcbe2b7fa0cf65b82841061145857505050810160200161051782610523610507565b8054602085870181019190915290930192810161143d565b3461034d57600036600319011261034d576007546040516001600160a01b039091168152602090f35b3461034d57604036600319011261034d576004356114b6816105dc565b600090602435906001600160a01b038116331515811515855b60098054821015611548578752600080516020613e0f83398151915281015461151f919084906001600160a01b031661150781612843565b91611538575b848061152e575b6115245750506122d9565b6114cf565b6109b391886136ad565b5086331415611514565b6115438183336136ad565b61150d565b33600090815260046020526040902085908890611566908990610a4a565b8054820190556040519081523390600080516020613def833981519152908060208101610a87565b3461034d57602036600319011261034d5760206105d46115ac6126d7565b600435612f16565b3461034d576116a360206115c7366105ed565b6001600160a01b03828116949390916115e96115e161320a565b871515612341565b6115f1613227565b506115fd61063b612f67565b61161961161161160c83612bd1565b613be0565b83111561343f565b61162282613b5a565b9561163787858416938433036116fd57613156565b60408051848152602081018990523391600080516020613dcf83398151915291a46008546000906001600160a01b03165b604051631a4ca37b60e21b81526001600160a01b03918216600482015260248101939093529093166044820152948592839182906064820190565b03927f0000000000000000000000000000000000000000000000000000000000000000165af19182156103d6576020926116e05750604051908152f35b6116f690833d81116103cf576103c18183610460565b50386103a0565b6001600160a01b03811660009081526005602052604090206106ed903390610727565b3461034d576116a3611731366105ed565b6001600160a01b03808316929161174961066261320a565b84159384159485611812575b61176190610ea4613227565b61177261176c612f67565b86612341565b60009594156117f457602094955061179461178c83612bd1565b87111561348b565b6117a561179f6126d7565b87613bec565b955b6117bb81858516948533036116fd57613156565b6040805188815260208101929092523391600080516020613dcf8339815191529190a460085484906000906001600160a01b0316611668565b6020945061180461160c83612bd1565b5061180d613b3c565b6117a7565b506001611755565b3461034d57602036600319011261034d5760206105d460043561183c816105dc565b61276a565b90815180825260208080930193019160005b828110611861575050505090565b83516001600160a01b031685529381019392810192600101611853565b3461034d57600036600319011261034d57604051806009548082528260208093016009600052600080516020613e0f8339815191529260005b858282106118e2575050506118ce92500383610460565b610523604051928284938452830190611841565b85546001600160a01b03168452600195860195889550930192016118b7565b3461034d57602036600319011261034d5761191d6004356105dc565b60206105d4612a3d565b3461034d57602036600319011261034d5760206105d4600435613bb1565b3461034d57600036600319011261034d576040517f00000000000000000000000000000000000000000000000000000000000000006001600160a01b03168152602090f35b3461034d57602036600319011261034d5760206105d46119b46004356119af816105dc565b612bd1565b6119bc6126d7565b90613bec565b60ff81160361034d57565b3461034d5760e036600319011261034d576004356119ea816105dc565b6024356119f6816105dc565b7f8c5be1e5ebec7d5bd14f71427d1e84f3dd0314c0f7b2291e5b200ac8c7c3b92560443592611b2d606435611b11608435611a30816119c2565b611a3c42841015611f0e565b611b1d611a47612101565b93888a611ad3611a698a60018060a01b03166000526006602052604060002090565b9384549460018601905560405194859360208501958d8791959493909260a09360c08401977f6e71edae12b1b97f4d1f60370fef10105fa2faae0126114a169c64845d6126c98552600180871b038092166020860152166040840152606083015260808201520152565b0391611ae7601f1993848101835282610460565b519020604051948591602083019788909160429261190160f01b8352600283015260228201520190565b03908101845283610460565b60c4359260a43592519020611f97565b9284611b688261072760018060a01b0380961697611b4e8988831614611f5a565b6001600160a01b0316600090815260056020526040902090565b556040519485521692602090a3005b3461034d57602036600319011261034d5760206105d46004356119af816105dc565b3461034d576020611bd5611bac36611174565b6001600160a01b0391821660009081526005855260408082209290931681526020919091522090565b54604051908152f35b3461034d57602036600319011261034d5760206105d4600435611c00816105dc565b612843565b3461034d57604036600319011261034d57600435602435611c25816105dc565b611c3061063b612f67565b6007546040516370a0823160e01b81523360048201526001600160a01b03918216929190602081602481875afa80156103d65761052395600080516020613e2f83398151915292600092611ceb575b5081811115611ce35750915b611cb583611c9881613bb1565b96611cac611ca4612f67565b891515612341565b30903390612f84565b611cbf8585613035565b60408051938452602084018690529316923392a36040519081529081906020820190565b905091611c8b565b611d0491925060203d81116103cf576103c18183610460565b9038611c7f565b61ffff81160361034d57565b3461034d5761020036600319011261034d57600435611d35816105dc565b60243590611d42826105dc565b60643591611d4f83611d0b565b611d57610caa565b60e03660c319011261034d576060366101a319011261034d57610523936106c39360a4359360443591612497565b3461034d57606036600319011261034d57600435611da2816105dc565b602435611dae816105dc565b60443567ffffffffffffffff811161034d57611dce903690600401610859565b336001600160a01b0384811691821494929392918515611dff575b5050611dfa61090994610ea4612826565b613957565b90945060405190631d36517b60e21b82526004820152602081602481887f0000000000000000000000000000000000000000000000000000000000000000165afa9485156103d65761090995611dfa92600091611e61575b5016331494611de9565b611e82915060203d8111611e88575b611e7a8183610460565b810190612811565b38611e57565b503d611e70565b3461034d5760206105d4611ea236611174565b6001600160a01b038216600090815260048552604090205490611ec481612843565b92613838565b3461034d57600036600319011261034d57602060405160028152f35b634e487b7160e01b600052601160045260246000fd5b91908203918211611f0957565b611ee6565b15611f1557565b60405162461bcd60e51b815260206004820152601760248201527f5045524d49545f444541444c494e455f455850495245440000000000000000006044820152606490fd5b15611f6157565b60405162461bcd60e51b815260206004820152600e60248201526d24a72b20a624a22fa9a4a3a722a960911b6044820152606490fd5b916106169391611fa693611fbb565b90929192612070565b6040513d6000823e3d90fd5b9291907f7fffffffffffffffffffffffffffffff5d576e7357a4501ddfe92f46681b20a0831161204457916120119160209360405195869094939260ff6060936080840197845216602083015260408201520152565b826000938492838052039060015afa156103d65780516001600160a01b0381161561203b57918190565b50809160019190565b50600093600393509050565b6004111561205a57565b634e487b7160e01b600052602160045260246000fd5b61207981612050565b80612082575050565b61208b81612050565b600181036120a55760405163f645eedf60e01b8152600490fd5b6120ae81612050565b600281036120d35760405163fce698f760e01b815260048101839052602490fd5b0390fd5b806120df600392612050565b146120e75750565b6040516335e2f38360e21b81526004810191909152602490fd5b604051600090815490612113826103db565b928382526020938483019360019086828216918260001461222a5750506001146121d3575b5050918161214e6121cd936121bf950382610460565b519020604080517f8b73c3c69bb8fe3d512ecc4cf759cc79239f7b179b0ffacaa9a75d522b39400f95810195865260208601929092527fc89efdaa54c0f20c7adf612882df0950f5a951637e0307cdcb4c672f298b8bc69085015246606085015230608085015291829060a0850190565b03601f198101835282610460565b51902090565b600080805286935091907f290decd9548b62a8d60345a988386fc84ba6bc95484008f6362f93160ef3e5635b828410612215575050508201018161214e612138565b805486850186015287949093019281016121ff565b60ff1916875292151560051b8501909201925083915061214e9050612138565b519061083f826105dc565b602090818184031261034d5780519067ffffffffffffffff821161034d57019180601f8401121561034d57825161228b81610841565b936122996040519586610460565b818552838086019260051b82010192831161034d578301905b8282106122c0575050505090565b83809183516122ce816105dc565b8152019101906122b2565b6000198114611f095760010190565b634e487b7160e01b600052603260045260246000fd5b80511561230b5760200190565b6122e8565b805182101561230b5760209160051b010190565b6040519061233182610444565b60018252600d60fa1b6020830152565b156123495750565b60405162461bcd60e51b81529081906120cf9060048301610482565b6040519061237282610444565b60018252601960f91b6020830152565b7f2a83c73b9e01ec0a1b95ff05940d809179668cc004230412d7047ffac3846ce781526001600160a01b0391821660208201529181166040830152606082019290925261ffff909216608083015291151560a082015260c081019290925260e08201929092526101e0810192918060c4356123fc816105dc565b1661010083015260e43561240f816105dc565b16610120820152610104356101408201526101243561016082015260ff61014435612439816119c2565b16610180820152610164356101a08201526101c061018435910152565b61014435610616816119c2565b6101a435610616816119c2565b35610616816119c2565b6040519061248782610444565b60018252603360f81b6020830152565b9495946001600160a01b038082166124ad612324565b6124b990821515612341565b6124c1612365565b6124ce90428b1015612341565b6001600160a01b038316600090815260066020526040902054986124f0612101565b60405191828c602082019261250a918d8d8d8d8d89612382565b0392601f1993848101825261251f9082610460565b51902060405161190160f01b60208201908152602282019390935260428101919091526062928301815290916125559082610460565b5190206001600160a01b03841660009081526006602052604090209099600101905561257f612463565b604080519a8b5260ff9190911660208b01526101c435908a01526101e43560608a01526000808052988960805a926001602094fa156103d65788516125cd91906001600160a01b0316610e9b565b6101243590816125e9575b50506125e59596506132dc565b5090565b8615612691576008546001600160a01b03165b16612605612456565b91813b1561268d5760405163d505accf60e01b81526001600160a01b0385166004820152306024820152610104356044820152606481019190915260ff9290921660848301526101643560a48301526101843560c483015296976125e597829060e490829084905af161267a575b87966125d8565b806110676126879261042b565b38612673565b8980fd5b6007546126a6906001600160a01b0316610b0f565b6125fc565b604051906126b882610444565b60018252603160f81b6020830152565b9081602091031261034d575190565b60085460405163d15e005360e01b81526001600160a01b03918216600482015290602090829060249082907f0000000000000000000000000000000000000000000000000000000000000000165afa9081156103d657600091612738575090565b610616915060203d81116103cf576103c18183610460565b6040519061275d82610444565b6001825260203681840137565b6001600160a01b0390811690811561280a576127bf60209161278a612750565b8160075416612798826122fe565b5260006040518096819582946308d8c03760e21b8452608060048501526084840190611841565b9083196024840152306044840152606483015203927f0000000000000000000000000000000000000000000000000000000000000000165af19081156103d657600091612738575090565b5050600090565b9081602091031261034d5751610616816105dc565b6040519061283382610444565b60018252601b60f91b6020830152565b6001600160a01b03908116801561280a57604090604483600754168351948593849263886fe70b60e01b8452600484015260248301527f0000000000000000000000000000000000000000000000000000000000000000165afa9081156103d6576000916128af575090565b906040823d82116128d8575b816128c860409383610460565b810103126105ab57506020015190565b3d91506128bb565b916128f8604092959495606085526060850190611841565b6001600160a01b0391821660208501529416910152565b91908201809211611f0957565b6001600160a01b038181168015612a3557612935612750565b6007546129669061294e906001600160a01b0316610b0f565b612957836122fe565b6001600160a01b039091169052565b60405180936370674ab960e01b8252818061298a60209889963090600485016128e0565b03917f0000000000000000000000000000000000000000000000000000000000000000165afa9182156103d657600092612a16575b506040516370a0823160e01b8152306004820152908390829060249082905afa9081156103d657610616936000926129f9575b505061290f565b612a0f9250803d106103cf576103c18183610460565b38806129f2565b612a2e919250833d85116103cf576103c18183610460565b90386129bf565b505050600090565b612a45612d4b565b600019908082146125e5576106169150613bb1565b919082602091031261034d576040516020810181811067ffffffffffffffff82111761043f5760405291518252565b51906001600160801b038216820361034d57565b519064ffffffffff8216820361034d57565b519061083f82611d0b565b6101e08183031261034d57612ad7612ad0610811565b9282612a5a565b8252612ae560208201612a89565b6020830152612af660408201612a89565b6040830152612b0760608201612a89565b6060830152612b1860808201612a89565b6080830152612b2960a08201612a89565b60a0830152612b3a60c08201612a9d565b60c0830152612b4b60e08201612aaf565b60e0830152610100612b5e81830161224a565b90830152610120612b7081830161224a565b90830152610140612b8281830161224a565b90830152610160612b9481830161224a565b90830152610180612ba6818301612a89565b908301526101a0612bb8818301612a89565b90830152612bca6101c0809201612a89565b9082015290565b6008546040516335ea6a7560e01b81526001600160a01b0391821660048201819052906101e09081816024817f000000000000000000000000000000000000000000000000000000000000000088165afa9182156103d657600092612cfd575b5050805151600160381b811615908115612ced575b50612ce45761010001516040516370a0823160e01b81526001600160a01b0390911660048201529160209183916024918391165afa9081156103d657612cb491612c9891600091612cc6575b50613bb1565b6001600160a01b03909216600090815260046020526040902090565b5490818110612cc1575090565b905090565b612cde915060203d81116103cf576103c18183610460565b38612c92565b50505050600090565b6001603c1b915016151538612c46565b612d1c9250803d10612d23575b612d148183610460565b810190612aba565b3880612c31565b503d612d0a565b604d8111611f0957600a0a90565b81810292918115918404141715611f0957565b6008546040516335ea6a7560e01b81526001600160a01b0391821660048201526101e0918290829060249082907f0000000000000000000000000000000000000000000000000000000000000000165afa9182156103d657600092612ed9575b5050805151600160381b8116158015612eca575b8015612eb7575b61280a5780640fffffffff612de360ff612ded9460301c16612d2a565b9160741c16612d38565b908115612eaf5761010081015160049190602090612e1590610b0f906001600160a01b031681565b60405163b1bf962d60e01b815293849182905afa80156103d657612e6d612e7391612e7994600091612e91575b50612e67612e5b6101808601516001600160801b031690565b6001600160801b031690565b9061290f565b91613d0d565b90612f16565b81811115612e88575050600090565b61061691611efc565b612ea9915060203d81116103cf576103c18183610460565b38612e42565b505060001990565b5067020000000000000081161515612dc6565b506001603c1b81161515612dbf565b612eef9250803d10612d2357612d148183610460565b3880612dab565b8115612f00570490565b634e487b7160e01b600052601260045260246000fd5b9081158015612f5f575b61280a57612f2d91612d38565b6b033b2e3c9fd0803ce80000009081810190818111611f09576b033b2e3c9fd0803ce7ffffff01908111611f09570490565b508015612f20565b60405190612f7482610444565b60018252600760fb1b6020830152565b6040516323b872dd60e01b60208201526001600160a01b03928316602482015292909116604483015260648083019390935291815260a081019181831067ffffffffffffffff84111761043f5761083f926040525b906000602091828151910182855af115611faf576000513d61302c57506001600160a01b0381163b155b61300a5750565b604051635274afe760e01b81526001600160a01b039091166004820152602490fd5b60011415613003565b600091825b6009805482101561309c578452600080516020613e0f83398151915281015461308891906001600160a01b0390811661307281612843565b918616151580613097575b61308d5750506122d9565b61303a565b6109b391866136ad565b61307d565b50509190600354838101809111611f0957600080516020613def833981519152916130c961310192600355565b6001600160a01b03811660009081526004602052604090208054860190556040519485526001600160a01b0316939081906020820190565b0390a3565b60405163a9059cbb60e01b60208201526001600160a01b039092166024830152604480830193909352918152608081019167ffffffffffffffff83118284101761043f5761083f92604052612fd9565b600091825b600980548210156131a6578452600080516020613e0f8339815191528101546131a191906001600160a01b0390811661319381612843565b91861661308d5750506122d9565b61315b565b50506001600160a01b038216600090815260046020526040902080549192838303928311611f0957600080516020613def8339815191529261310192556131f08460035403600355565b6040519384526001600160a01b0316929081906020820190565b6040519061321782610444565b60018252603560f81b6020830152565b6040519061323482610444565b60018252603760f81b6020830152565b1561324b57565b60405162461bcd60e51b815260206004820152601e60248201527f455243343632363a206465706f736974206d6f7265207468616e206d617800006044820152606490fd5b1561329757565b60405162461bcd60e51b815260206004820152601b60248201527f455243343632363a206d696e74206d6f7265207468616e206d617800000000006044820152606490fd5b919493926001600160a01b038083169392916133016132f961320a565b861515612341565b8561330a613227565b50613427575b61331988613bb1565b809661332661063b612f67565b156133f257506008546001600160a01b0316613346893087868516612f84565b827f00000000000000000000000000000000000000000000000000000000000000001691823b1561034d5760405163e8eda9df60e01b81526001600160a01b03929092166004830152602482018a905230604483015261ffff166064820152906000908290608490829084905af180156103d657600080516020613e2f833981519152936133da92889261105a5750613035565b60408051888152602081018790529390911692a39190565b600754600080516020613e2f833981519152946133da935090613422908b906001600160a01b0316883091612f84565b613035565b61343a613432612d4b565b891115613244565b613310565b1561344657565b60405162461bcd60e51b815260206004820152601f60248201527f455243343632363a207769746864726177206d6f7265207468616e206d6178006044820152606490fd5b1561349257565b60405162461bcd60e51b815260206004820152601d60248201527f455243343632363a2072656465656d206d6f7265207468616e206d61780000006044820152606490fd5b949390916001600160a01b0391828416916134fb6134f361320a565b841515612341565b80159586159687613680575b61351390610ea4613227565b61352761351e612f67565b82841415612341565b80919660001461364a57505080613631575b61354a6135446126d7565b86613bec565b9687925b61356287868416938433036116fd57613156565b60408051858152602081018990523391600080516020613dcf83398151915291a41561361557600854604051631a4ca37b60e21b81526001600160a01b0391821660048201526024810192909252929092166044830152602090829060649082906000907f0000000000000000000000000000000000000000000000000000000000000000165af180156103d6576135f957509190565b6136109060203d81116103cf576103c18183610460565b509190565b60075461362d939192506001600160a01b0316613106565b9190565b61364561363d88612bd1565b86111561348b565b613539565b81989193965061365e908361366457613b5a565b9561354e565b61367b61367361160c85612bd1565b82111561343f565b613b5a565b508015613507565b60095481101561230b576009600052600080516020613e0f8339815191520190600090565b61083f926040613705926136e560018060a01b0382169560009287845260046020528585852054918383613720575b5050505061377c565b948152600b602052209060018060a01b0316600052602052604060002090565b906001600160801b03166001600160801b0319825416179055565b613773936137369361373193613838565b61377c565b888552600b60209081528686206001600160a01b03891660009081529152604090205b906001600160801b0382549181199060801b169116179055565b388581836136dc565b6001600160801b0390818111613790571690565b60405162461bcd60e51b815260206004820152602760248201527f53616665436173743a2076616c756520646f65736e27742066697420696e20316044820152663238206269747360c81b6064820152608490fd5b604051906137f282610444565b60018252603960f81b6020830152565b9060405161380f81610444565b91546001600160801b038116835260801c6020830152565b60ff16604d8111611f0957600a0a90565b61392590610616946138bf6138ba613902956107276138698260018060a01b0316600052600a602052604060002090565b956138a06040519761387a89610444565b5497602060ff8a16151591828152019860081c895260016138996137e5565b9114612341565b6001600160a01b03166000908152600b6020526040902090565b613802565b946138d46138cf60025460ff1690565b613827565b926138e960208801516001600160801b031690565b966001600160801b03968791516001600160801b031690565b16908161392c57516001600160f81b031690505b6001600160f81b031690613932565b911661290f565b50613916565b909291928115612ce4578303928311611f09576106169261395291612d38565b612ef6565b92919060005b8251811015613b3557613976610b0f610ba08386612310565b15613b2c5761398b611c00610ba08386612310565b906139c0826139ac8860018060a01b03166000526004602052604060002090565b546139ba610ba08589612310565b89613838565b6139d3610b0f610b0f610ba08589612310565b6040516370a0823160e01b815230600482015291906020908190849060249082905afa9081156103d657613a37958a948992600094613b0d575b505082600093808611613af2575b50808511613add575b508584613a3c575b5050505050506122d9565b61395d565b613ad295613759613a9894613a82610ba061373195613a7c613a60613ac19b61377c565b6001600160a01b039097166000908152600b6020526040902090565b93612310565b60018060a01b0316600052602052604060002090565b6001600160a01b038a166000908152600b6020526040902061370590613a82610ba0888c612310565b846106be610b0f610ba0868a612310565b853880868185613a2c565b809350613aea9194611efc565b919238613a24565b613b079150612e6761183c610ba08a87612310565b38613a1b565b613b24929450803d106103cf576103c18183610460565b913880613a0d565b613a37906122d9565b5050509050565b613b446126d7565b600019810190808211611f095761061691612ef6565b613b626126d7565b6b033b2e3c9fd0803ce800000091828102928184041490151715611f0957808201809211611f09576000198201918211611f095761061691612ef6565b613ba76126d7565b15612f0057600090565b613bb96126d7565b6b033b2e3c9fd0803ce800000091828102928184041490151715611f095761061691612ef6565b610616906119bc6126d7565b80158015613c14575b61280a576b033b2e3c9fd0803ce800000091613c1091612d38565b0490565b508115613bf5565b6001600160a01b038181166000818152600a60205260409020549092919060ff16613d0857613c4a82612843565b6009546801000000000000000081101561043f577fa8f4dd7e60441ca288d902a295362002a0255a46560b24825821b36716d6fe5b93613d0393613c978360016106c39501600955613688565b819291549060031b9189831b921b1916179055613ce3613cb5610832565b60018152916001600160f01b03851660208401526001600160a01b03166000908152600a6020526040902090565b815160209092015160081b60ff191660ff92151592909216919091179055565b0390a2565b505050565b60c081015164ffffffffff16428103613d37575060200151610616906001600160801b0316612e5b565b6001600160801b0360408301511690420390428211611f09576301e1338091613d5f91612d38565b046b033b2e3c9fd0803ce8000000908101809111611f0957613d91612e5b60206106169401516001600160801b031690565b90816b019d971e4fe8401e7400000019048111158215171561034d576b033b2e3c9fd0803ce800000091026b019d971e4fe8401e7400000001049056fefbde797d201c681b91056529119e0b02407c7bb96a4a2c75c01fc9667232c8dbddf252ad1be2c89b69c2b068fc378daa952ba7f163c4a11628f55a4df523b3ef6e1540171b6c0c960b71a7020d9f60077f6af931a8bbf590da0223dacf75c7afdcbc1c05240f31ff3ad067ef1ee35ce4997762752e3a095284754544f4c709d7a2646970667358221220dde703c96a5db923fca0d695ec8f6def9246f6dc43078a7e526e5784be0c500064736f6c63430008140033a2646970667358221220eeacce5f49d3b0ca46ca4ec4836f9248ec3d8f9fc890a076081946f93f8ae0dc64736f6c63430008140033",
  "devdoc": {
    "author": "BGD labs (modified by dTrinity)",
    "kind": "dev",
    "methods": {
      "createStaticATokens(address[])": {
        "params": {
          "underlyings": "the addresses of the underlyings to create."
        },
        "returns": {
          "_0": "address[] addresses of the new staticATokens."
        }
      },
      "getStaticAToken(address)": {
        "params": {
          "underlying": "the address of the underlying."
        },
        "returns": {
          "_0": "address the staticAToken address."
        }
      },
      "getStaticATokens()": {
        "returns": {
          "_0": "address[] list of tokens"
        }
      }
    },
    "title": "StaticATokenFactory",
    "version": 1
  },
  "userdoc": {
    "kind": "user",
    "methods": {
      "createStaticATokens(address[])": {
        "notice": "Creates new staticATokens"
      },
      "getStaticAToken(address)": {
        "notice": "Returns the staticAToken for a given underlying."
      },
      "getStaticATokens()": {
        "notice": "Returns all tokens deployed via this registry."
      }
    },
    "notice": "Factory contract that keeps track of all deployed static aToken wrappers for a specified pool. This registry also acts as a factory, allowing to deploy new static aTokens on demand. There can only be one static aToken per underlying on the registry at a time.",
    "version": 1
  },
  "storageLayout": {
    "storage": [
      {
        "astId": 78921,
        "contract": "contracts/vaults/atoken_wrapper/StaticATokenFactory.sol:StaticATokenFactory",
        "label": "_underlyingToStaticAToken",
        "offset": 0,
        "slot": "0",
        "type": "t_mapping(t_address,t_address)"
      },
      {
        "astId": 78924,
        "contract": "contracts/vaults/atoken_wrapper/StaticATokenFactory.sol:StaticATokenFactory",
        "label": "_staticATokens",
        "offset": 0,
        "slot": "1",
        "type": "t_array(t_address)dyn_storage"
      }
    ],
    "types": {
      "t_address": {
        "encoding": "inplace",
        "label": "address",
        "numberOfBytes": "20"
      },
      "t_array(t_address)dyn_storage": {
        "base": "t_address",
        "encoding": "dynamic_array",
        "label": "address[]",
        "numberOfBytes": "32"
      },
      "t_mapping(t_address,t_address)": {
        "encoding": "mapping",
        "key": "t_address",
        "label": "mapping(address => address)",
        "numberOfBytes": "32",
        "value": "t_address"
      }
    }
  }
}