{
  "address": "0x0766785BAb61bf64b4B703793C700D26ed098a28",
  "abi": [
    {
      "inputs": [
        {
          "internalType": "contract IERC3156FlashLender",
          "name": "_flashLender",
          "type": "address"
        },
        {
          "internalType": "contract IOdosRouterV2",
          "name": "_odosRouter",
          "type": "address"
        }
      ],
      "stateMutability": "nonpayable",
      "type": "constructor"
    },
    {
      "inputs": [
        {
          "internalType": "uint256",
          "name": "currentCollateralTokenAmount",
          "type": "uint256"
        },
        {
          "internalType": "uint256",
          "name": "minOutputCollateralAmount",
          "type": "uint256"
        }
      ],
      "name": "EstimatedCollateralTokenAmountLessThanMinOutputCollateralAmount",
      "type": "error"
    },
    {
      "inputs": [
        {
          "internalType": "address",
          "name": "flashLender",
          "type": "address"
        },
        {
          "internalType": "address",
          "name": "debtToken",
          "type": "address"
        }
      ],
      "name": "FlashLenderNotSameAsDebtToken",
      "type": "error"
    },
    {
      "inputs": [
        {
          "internalType": "address",
          "name": "currentDebtToken",
          "type": "address"
        },
        {
          "internalType": "address",
          "name": "dLoopCoreDebtToken",
          "type": "address"
        }
      ],
      "name": "IncompatibleDLoopCoreDebtToken",
      "type": "error"
    },
    {
      "inputs": [
        {
          "internalType": "uint256",
          "name": "expected",
          "type": "uint256"
        },
        {
          "internalType": "uint256",
          "name": "actual",
          "type": "uint256"
        }
      ],
      "name": "IncorrectSharesBurned",
      "type": "error"
    },
    {
      "inputs": [
        {
          "internalType": "uint256",
          "name": "received",
          "type": "uint256"
        },
        {
          "internalType": "uint256",
          "name": "expected",
          "type": "uint256"
        }
      ],
      "name": "InsufficientOutput",
      "type": "error"
    },
    {
      "inputs": [
        {
          "internalType": "uint256",
          "name": "outputTokenBalanceBefore",
          "type": "uint256"
        },
        {
          "internalType": "uint256",
          "name": "outputTokenBalanceAfter",
          "type": "uint256"
        }
      ],
      "name": "OutputTokenBalanceNotIncreasedAfterSwap",
      "type": "error"
    },
    {
      "inputs": [
        {
          "internalType": "address",
          "name": "owner",
          "type": "address"
        }
      ],
      "name": "OwnableInvalidOwner",
      "type": "error"
    },
    {
      "inputs": [
        {
          "internalType": "address",
          "name": "account",
          "type": "address"
        }
      ],
      "name": "OwnableUnauthorizedAccount",
      "type": "error"
    },
    {
      "inputs": [
        {
          "internalType": "uint256",
          "name": "receivedOutputTokenAmount",
          "type": "uint256"
        },
        {
          "internalType": "uint256",
          "name": "amountOut",
          "type": "uint256"
        }
      ],
      "name": "ReceivedOutputTokenAmountNotEqualAmountOut",
      "type": "error"
    },
    {
      "inputs": [],
      "name": "ReentrancyGuardReentrantCall",
      "type": "error"
    },
    {
      "inputs": [
        {
          "internalType": "address",
          "name": "token",
          "type": "address"
        }
      ],
      "name": "SafeERC20FailedOperation",
      "type": "error"
    },
    {
      "inputs": [
        {
          "internalType": "uint256",
          "name": "sharesBeforeWithdraw",
          "type": "uint256"
        },
        {
          "internalType": "uint256",
          "name": "sharesAfterWithdraw",
          "type": "uint256"
        }
      ],
      "name": "SharesNotDecreasedAfterFlashLoan",
      "type": "error"
    },
    {
      "inputs": [
        {
          "internalType": "uint256",
          "name": "slippageBps",
          "type": "uint256"
        }
      ],
      "name": "SlippageBpsCannotExceedOneHundredPercent",
      "type": "error"
    },
    {
      "inputs": [
        {
          "internalType": "uint256",
          "name": "spentInputTokenAmount",
          "type": "uint256"
        },
        {
          "internalType": "uint256",
          "name": "amountInMaximum",
          "type": "uint256"
        }
      ],
      "name": "SpentInputTokenAmountGreaterThanAmountInMaximum",
      "type": "error"
    },
    {
      "inputs": [
        {
          "internalType": "uint256",
          "name": "spentInputTokenAmount",
          "type": "uint256"
        },
        {
          "internalType": "uint256",
          "name": "returnedAmountIn",
          "type": "uint256"
        }
      ],
      "name": "SpentInputTokenAmountNotEqualReturnedAmountIn",
      "type": "error"
    },
    {
      "inputs": [
        {
          "internalType": "uint256",
          "name": "collateralTokenBalanceBefore",
          "type": "uint256"
        },
        {
          "internalType": "uint256",
          "name": "collateralTokenBalanceAfter",
          "type": "uint256"
        }
      ],
      "name": "UnexpectedDecreaseInCollateralToken",
      "type": "error"
    },
    {
      "inputs": [
        {
          "internalType": "uint256",
          "name": "collateralTokenBalanceBefore",
          "type": "uint256"
        },
        {
          "internalType": "uint256",
          "name": "collateralTokenBalanceAfter",
          "type": "uint256"
        }
      ],
      "name": "UnexpectedDecreaseInCollateralTokenAfterFlashLoan",
      "type": "error"
    },
    {
      "inputs": [
        {
          "internalType": "uint256",
          "name": "debtTokenBalanceBefore",
          "type": "uint256"
        },
        {
          "internalType": "uint256",
          "name": "debtTokenBalanceAfter",
          "type": "uint256"
        }
      ],
      "name": "UnexpectedIncreaseInDebtToken",
      "type": "error"
    },
    {
      "inputs": [
        {
          "internalType": "address",
          "name": "initiator",
          "type": "address"
        },
        {
          "internalType": "address",
          "name": "thisContract",
          "type": "address"
        }
      ],
      "name": "UnknownInitiator",
      "type": "error"
    },
    {
      "inputs": [
        {
          "internalType": "address",
          "name": "msgSender",
          "type": "address"
        },
        {
          "internalType": "address",
          "name": "flashLender",
          "type": "address"
        }
      ],
      "name": "UnknownLender",
      "type": "error"
    },
    {
      "inputs": [
        {
          "internalType": "uint256",
          "name": "withdrawnCollateralTokenAmount",
          "type": "uint256"
        },
        {
          "internalType": "uint256",
          "name": "minReceiveCollateralTokenAmount",
          "type": "uint256"
        }
      ],
      "name": "WithdrawnCollateralTokenAmountNotMetMinReceiveAmount",
      "type": "error"
    },
    {
      "anonymous": false,
      "inputs": [
        {
          "indexed": true,
          "internalType": "address",
          "name": "dLoopCore",
          "type": "address"
        },
        {
          "indexed": true,
          "internalType": "address",
          "name": "collateralToken",
          "type": "address"
        },
        {
          "indexed": false,
          "internalType": "uint256",
          "name": "amount",
          "type": "uint256"
        }
      ],
      "name": "LeftoverCollateralTokenTransferred",
      "type": "event"
    },
    {
      "anonymous": false,
      "inputs": [
        {
          "indexed": true,
          "internalType": "address",
          "name": "dLoopCore",
          "type": "address"
        },
        {
          "indexed": true,
          "internalType": "address",
          "name": "collateralToken",
          "type": "address"
        },
        {
          "indexed": false,
          "internalType": "uint256",
          "name": "minAmount",
          "type": "uint256"
        }
      ],
      "name": "MinLeftoverCollateralTokenAmountSet",
      "type": "event"
    },
    {
      "anonymous": false,
      "inputs": [
        {
          "indexed": true,
          "internalType": "address",
          "name": "previousOwner",
          "type": "address"
        },
        {
          "indexed": true,
          "internalType": "address",
          "name": "newOwner",
          "type": "address"
        }
      ],
      "name": "OwnershipTransferred",
      "type": "event"
    },
    {
      "inputs": [],
      "name": "FLASHLOAN_CALLBACK",
      "outputs": [
        {
          "internalType": "bytes32",
          "name": "",
          "type": "bytes32"
        }
      ],
      "stateMutability": "view",
      "type": "function"
    },
    {
      "inputs": [
        {
          "internalType": "uint256",
          "name": "shares",
          "type": "uint256"
        },
        {
          "internalType": "uint256",
          "name": "slippageBps",
          "type": "uint256"
        },
        {
          "internalType": "contract DLoopCoreBase",
          "name": "dLoopCore",
          "type": "address"
        }
      ],
      "name": "calculateMinOutputCollateral",
      "outputs": [
        {
          "internalType": "uint256",
          "name": "",
          "type": "uint256"
        }
      ],
      "stateMutability": "view",
      "type": "function"
    },
    {
      "inputs": [
        {
          "internalType": "uint256",
          "name": "",
          "type": "uint256"
        }
      ],
      "name": "existingCollateralTokens",
      "outputs": [
        {
          "internalType": "address",
          "name": "",
          "type": "address"
        }
      ],
      "stateMutability": "view",
      "type": "function"
    },
    {
      "inputs": [],
      "name": "flashLender",
      "outputs": [
        {
          "internalType": "contract IERC3156FlashLender",
          "name": "",
          "type": "address"
        }
      ],
      "stateMutability": "view",
      "type": "function"
    },
    {
      "inputs": [],
      "name": "getRestrictedRescueTokens",
      "outputs": [
        {
          "internalType": "address[]",
          "name": "restrictedTokens",
          "type": "address[]"
        }
      ],
      "stateMutability": "view",
      "type": "function"
    },
    {
      "inputs": [
        {
          "internalType": "address",
          "name": "",
          "type": "address"
        },
        {
          "internalType": "address",
          "name": "",
          "type": "address"
        }
      ],
      "name": "minLeftoverCollateralTokenAmount",
      "outputs": [
        {
          "internalType": "uint256",
          "name": "",
          "type": "uint256"
        }
      ],
      "stateMutability": "view",
      "type": "function"
    },
    {
      "inputs": [],
      "name": "odosRouter",
      "outputs": [
        {
          "internalType": "contract IOdosRouterV2",
          "name": "",
          "type": "address"
        }
      ],
      "stateMutability": "view",
      "type": "function"
    },
    {
      "inputs": [
        {
          "internalType": "address",
          "name": "initiator",
          "type": "address"
        },
        {
          "internalType": "address",
          "name": "token",
          "type": "address"
        },
        {
          "internalType": "uint256",
          "name": "",
          "type": "uint256"
        },
        {
          "internalType": "uint256",
          "name": "flashLoanFee",
          "type": "uint256"
        },
        {
          "internalType": "bytes",
          "name": "data",
          "type": "bytes"
        }
      ],
      "name": "onFlashLoan",
      "outputs": [
        {
          "internalType": "bytes32",
          "name": "",
          "type": "bytes32"
        }
      ],
      "stateMutability": "nonpayable",
      "type": "function"
    },
    {
      "inputs": [],
      "name": "owner",
      "outputs": [
        {
          "internalType": "address",
          "name": "",
          "type": "address"
        }
      ],
      "stateMutability": "view",
      "type": "function"
    },
    {
      "inputs": [
        {
          "internalType": "uint256",
          "name": "shares",
          "type": "uint256"
        },
        {
          "internalType": "address",
          "name": "receiver",
          "type": "address"
        },
        {
          "internalType": "uint256",
          "name": "minOutputCollateralAmount",
          "type": "uint256"
        },
        {
          "internalType": "bytes",
          "name": "collateralToDebtTokenSwapData",
          "type": "bytes"
        },
        {
          "internalType": "contract DLoopCoreBase",
          "name": "dLoopCore",
          "type": "address"
        }
      ],
      "name": "redeem",
      "outputs": [
        {
          "internalType": "uint256",
          "name": "assets",
          "type": "uint256"
        }
      ],
      "stateMutability": "nonpayable",
      "type": "function"
    },
    {
      "inputs": [],
      "name": "renounceOwnership",
      "outputs": [],
      "stateMutability": "nonpayable",
      "type": "function"
    },
    {
      "inputs": [
        {
          "internalType": "address",
          "name": "token",
          "type": "address"
        },
        {
          "internalType": "address",
          "name": "receiver",
          "type": "address"
        },
        {
          "internalType": "uint256",
          "name": "amount",
          "type": "uint256"
        }
      ],
      "name": "rescueToken",
      "outputs": [],
      "stateMutability": "nonpayable",
      "type": "function"
    },
    {
      "inputs": [
        {
          "internalType": "address",
          "name": "dLoopCore",
          "type": "address"
        },
        {
          "internalType": "address",
          "name": "collateralToken",
          "type": "address"
        },
        {
          "internalType": "uint256",
          "name": "minAmount",
          "type": "uint256"
        }
      ],
      "name": "setMinLeftoverCollateralTokenAmount",
      "outputs": [],
      "stateMutability": "nonpayable",
      "type": "function"
    },
    {
      "inputs": [
        {
          "internalType": "address",
          "name": "newOwner",
          "type": "address"
        }
      ],
      "name": "transferOwnership",
      "outputs": [],
      "stateMutability": "nonpayable",
      "type": "function"
    }
  ],
  "transactionHash": "0xa51ca286e2bb70d9c1b82b65a273734c753436e1b163e5d9918f4fa70d469236",
  "args": [
    "0x53a6aBb52B2F968fA80dF6A894e4f1b1020DA975",
    "0xaC041Df48dF9791B0654f1Dbbf2CC8450C5f2e9D"
  ],
  "numDeployments": 1,
  "solcInputHash": "9caaa9c1cca91e83209a10bdb9bb0c8a",
  "bytecode": "0x60c03461012357601f611def38819003918201601f19168301916001600160401b038311848410176101285780849260409485528339810103126101235780516001600160a01b03918282168203610123576020015190828216820361012357331561010a576000543360018060a01b0319821617600055604051933391167f8be0079c531659141344cd1fd0a4f28419497f9722a3daafe3b4186f6b6457e0600080a36001805560805260a052611cb0908161013f82396080518181816105aa015281816108440152818161091101528181610971015281816109e301528181610a5801528181610d7901528181610dc601526110bb015260a05181818161061801526114970152f35b604051631e4fbdf760e01b815260006004820152602490fd5b600080fd5b634e487b7160e01b600052604160045260246000fdfe608080604052600436101561001357600080fd5b60003560e01c90816323e30c8b1461106e575080632ae1810414611033578063500fc43414610f6b57806357ae0a72146106a0578063715018a6146106475780638321928d146106025780638da5cb5b146105d9578063a771445814610594578063b627bd401461047e578063e5711e8b1461033e578063e7a41486146101df578063e9c9dbff1461018e578063f2fde38b146101005763fc908293146100b957600080fd5b346100fb5760203660031901126100fb576004356004548110156100fb576100e2602091611a11565b905460405160039290921b1c6001600160a01b03168152f35b600080fd5b346100fb5760203660031901126100fb57610119611982565b610121611a5e565b6001600160a01b0390811690811561017557600054826bffffffffffffffffffffffff60a01b821617600055167f8be0079c531659141344cd1fd0a4f28419497f9722a3daafe3b4186f6b6457e0600080a3005b604051631e4fbdf760e01b815260006004820152602490fd5b346100fb5760403660031901126100fb576101a7611982565b6101af611998565b9060018060a01b038091166000526002602052604060002091166000526020526020604060002054604051908152f35b346100fb5760603660031901126100fb5760248035906044356001600160a01b03811691908290036100fb57620f4240908184116103285760405163266d6a8360e11b815260048035908201526020949085818481885afa80156102ed5786916000916102f9575b50836040518097819363c879cf7d60e01b835260048301525afa9384156102ed576000946102be575b508203928284116102a957838102938185041490151715610295575060405191048152f35b634e487b7160e01b60009081526011600452fd5b50634e487b7160e01b60009081526011600452fd5b9093508481813d83116102e6575b6102d68183611ac2565b810103126100fb57519285610270565b503d6102cc565b6040513d6000823e3d90fd5b82819392503d8311610321575b6103108183611ac2565b810103126100fb5785905187610247565b503d610306565b60405163103b7d4960e11b815260048101859052fd5b346100fb5761034c366119dc565b9091610356611a5e565b61035e611b83565b60405191829060045480855282602080960160046000527f8a35acfbc15ff81a39ae7d344fd709f28e8600b4aa8c65c6b64bfe7fe36bd19b9260005b8882821061045f575050506103b192500383611ac2565b60005b825181101561044557600581901b83018501516001600160a01b038581169116146104005760001981146103ea576001016103b4565b634e487b7160e01b600052601160045260246000fd5b60405162461bcd60e51b815260048101869052601e60248201527f43616e6e6f7420726573637565207265737472696374656420746f6b656e00006044820152606490fd5b61045982876001600160a01b038716611ae4565b60018055005b85546001600160a01b031684526001958601958895509301920161039a565b346100fb5761048c366119dc565b9091610496611b83565b61049e611a5e565b60018060a01b0380911691826000526002602052816040600020941693846000526020528060406000205560036020526040600020805460ff811615610512575b85857f0c50c097ce2862533c8b4cf54b8114ed60cba691c6e486c7e17d4e5908a46dda602086604051908152a360018055005b60ff19166001179055600454906801000000000000000082101561057e577f0c50c097ce2862533c8b4cf54b8114ed60cba691c6e486c7e17d4e5908a46dda9261056483600160209501600455611a11565b819291549060031b9188831b921b191617905590856104df565b634e487b7160e01b600052604160045260246000fd5b346100fb5760003660031901126100fb576040517f00000000000000000000000000000000000000000000000000000000000000006001600160a01b03168152602090f35b346100fb5760003660031901126100fb576000546040516001600160a01b039091168152602090f35b346100fb5760003660031901126100fb576040517f00000000000000000000000000000000000000000000000000000000000000006001600160a01b03168152602090f35b346100fb5760003660031901126100fb57610660611a5e565b600080546001600160a01b0319811682556001600160a01b03167f8be0079c531659141344cd1fd0a4f28419497f9722a3daafe3b4186f6b6457e08280a3005b346100fb5760a03660031901126100fb576106b9611998565b67ffffffffffffffff906064358281116100fb576106db9036906004016119ae565b92608435916001600160a01b03831683036100fb576106f8611b83565b604051906323b872dd60e01b602083015233602483015230604483015260043560648301526064825260a08201928284109084111761057e5761074d610766926107b89460405260018060a01b038616611b27565b6040519561075a87611a8a565b60043587523691611bcf565b9384602082015260018060a01b03831660408201525161079b6040519586926020840152606060408401526080830190611c55565b6001600160a01b038416606083015203601f198101855284611ac2565b604051632c805af560e21b8152926020846004816001600160a01b0386165afa9384156102ed57600094610f4a575b50604051631f1b131360e31b8152906020826004816001600160a01b0387165afa9182156102ed57600092610f19575b5060405163613255ab60e01b81526001600160a01b038381166004830152909190602090839060249082907f0000000000000000000000000000000000000000000000000000000000000000165afa9182156102ed57600092610ee5575b506040516370a0823160e01b8152306004820152916020836024816001600160a01b0389165afa9283156102ed57600093610eb1575b506040516370a0823160e01b8152306004820152936020856024816001600160a01b038c165afa9485156102ed57600095610e7d575b50604051633676633960e21b81526001600160a01b038216600482015260248101839052602081806044810103817f00000000000000000000000000000000000000000000000000000000000000006001600160a01b03165afa80156102ed57600090610e49575b610954915083611c25565b60405163095ea7b360e01b60208083018281526001600160a01b037f000000000000000000000000000000000000000000000000000000000000000016602485015260448085019590955293835290926000906109b2606485611ac2565b835190826001600160a01b0388165af16000513d82610e24575b505015610dad575b50506001600160a01b038181167f000000000000000000000000000000000000000000000000000000000000000090911603610d6257604051632e7ff4ef60e11b81523060048201526001600160a01b0390911660248201526044810191909152608060648201529060209082908190610a52906084830190611c55565b038160007f00000000000000000000000000000000000000000000000000000000000000006001600160a01b03165af180156102ed57610d2a575b506040516370a0823160e01b8152306004820152906020826024816001600160a01b0388165afa9182156102ed57600092610cf6575b5080821015610cd95790610ad691611ba6565b6004358103610cb957506040516370a0823160e01b81523060048201526020816024816001600160a01b0389165afa9081156102ed57600091610c87575b5081811115610c695790610b2791611ba6565b91604435808410610c4b5750610b489083906001600160a01b038616611ae4565b6040516370a0823160e01b8152306004820152926020846024816001600160a01b0385165afa9081156102ed57600091610c16575b6001600160a01b0383811660009081526002602090815260408083209385168352928152919020549095508211610bbe575b50505060018055604051908152f35b7fad79d05acd80cdd541a6b69468eb8c356bfb5426652f379c4c6d945f1ea15ec3908590610bf9846001600160a01b03878116908416611ae4565b6040519384526001600160a01b03908116941692a3828080610baf565b90506020843d602011610c43575b81610c3160209383611ac2565b810103126100fb576020935190610b7d565b3d9150610c24565b83604491604051916347247e7760e11b835260048301526024820152fd5b6044925060405191637506a25d60e11b835260048301526024820152fd5b90506020813d602011610cb1575b81610ca260209383611ac2565b810103126100fb575185610b14565b3d9150610c95565b604490604051906302d753ed60e61b825260043560048301526024820152fd5b60449160405191632b9e770560e11b835260048301526024820152fd5b9091506020813d602011610d22575b81610d1260209383611ac2565b810103126100fb57519086610ac3565b3d9150610d05565b6020813d602011610d5a575b81610d4360209383611ac2565b810103126100fb5751801515036100fb5785610a8d565b3d9150610d36565b60405163aaae67a160e01b81526001600160a01b037f000000000000000000000000000000000000000000000000000000000000000081166004830152919091166024820152604490fd5b610e0e610e1d9260405190602082015260018060a01b037f00000000000000000000000000000000000000000000000000000000000000001660248201526000604482015260448152610dff81611aa6565b6001600160a01b038516611b27565b6001600160a01b038316611b27565b88806109d4565b909150610e4157506001600160a01b0383163b15155b8b806109cc565b600114610e3a565b506020813d602011610e75575b81610e6360209383611ac2565b810103126100fb576109549051610949565b3d9150610e56565b9094506020813d602011610ea9575b81610e9960209383611ac2565b810103126100fb575193886108e1565b3d9150610e8c565b9092506020813d602011610edd575b81610ecd60209383611ac2565b810103126100fb575191876108ab565b3d9150610ec0565b9091506020813d602011610f11575b81610f0160209383611ac2565b810103126100fb57519086610875565b3d9150610ef4565b610f3c91925060203d602011610f43575b610f348183611ac2565b810190611c06565b9085610817565b503d610f2a565b610f6491945060203d602011610f4357610f348183611ac2565b92846107e7565b346100fb5760003660031901126100fb57604051806004548083526020809301809160046000527f8a35acfbc15ff81a39ae7d344fd709f28e8600b4aa8c65c6b64bfe7fe36bd19b9060005b86828210611016578686610fcd82880383611ac2565b604051928392818401908285525180915260408401929160005b828110610ff657505050500390f35b83516001600160a01b031685528695509381019392810192600101610fe7565b83546001600160a01b031685529093019260019283019201610fb7565b346100fb5760003660031901126100fb5760206040517f439148f0bbc682ca079e46d6e2c2f0c1e3b820f1a291b069d8882abf8cf18dd98152f35b346100fb5760a03660031901126100fb57611087611982565b90611090611998565b906084359267ffffffffffffffff938481116100fb576110b49036906004016119ae565b90929091907f00000000000000000000000000000000000000000000000000000000000000006001600160a01b03163381900361195f575050306001600160a01b0382160361193657509061110a913691611bcf565b906040519261111884611a8a565b60008452606060208501526040840192600084528051810190606081602084019303126100fb5760208101519260408201519081116100fb5781019082603f830112156100fb5760208201519161116e83611bb3565b9361117c6040519586611ac2565b838552604084830101116100fb5760609261119e916040602087019101611c32565b0151936001600160a01b03851685036100fb576001600160a01b03851690819052602086810192909252918552604051632c805af560e21b81529391849060049082905afa9283156102ed57600093611915575b50604051631f1b131360e31b8152916020836004816001600160a01b0386165afa9283156102ed576000936118f4575b506001600160a01b03838116908216036118ca57506040516370a0823160e01b8152306004820152906020826024816001600160a01b0387165afa9182156102ed57600092611896575b5060405163095ea7b360e01b60208201526001600160a01b038216602482015260001960448083019190915281526112a381611aa6565b8051602090600090838301826001600160a01b0389165af16000513d82611871575b50501561181e575b508451604051635d043b2960e11b815260048101919091523060248201819052604482015260208160648160006001600160a01b0387165af180156102ed576117f3575b5060405163095ea7b360e01b60208083019182526001600160a01b0384166024840152600060448085018290528452909161134b84611aa6565b835190826001600160a01b0389165af16000513d826117ce575b50501561176b575b50506040516370a0823160e01b81523060048201526020816024816001600160a01b0387165afa9081156102ed57600091611739575b5081811161171b576020916113be6113c39260643592611ba6565b611c25565b9301516040516370a0823160e01b815230600482015290926001600160a01b031690602081602481855afa9081156102ed576000916116e9575b506040516370a0823160e01b8152306004820152926020846024816001600160a01b0385165afa9384156102ed576000946116b2575b506040516304ecaec960e31b8152600481018490526001600160a01b03821660248201526044810187905260001960648201523060848201524260a482015261010060c482015293949293926020908490819061149590610104830190611c55565b7f00000000000000000000000000000000000000000000000000000000000000006001600160a01b031660e4830152038173f407Fc422d663D2dAab7DbceA44E16aDe15ca87d5af49283156102ed5760009361167b575b506020602494604051958680926370a0823160e01b82523060048301525afa9384156102ed57600094611646575b506040516370a0823160e01b81523060048201529390602090859060249082906001600160a01b03165afa9384156102ed57600094611612575b508181106115dd575b505050818111156115c0579061157291611ba6565b8181036115a35760206040517f439148f0bbc682ca079e46d6e2c2f0c1e3b820f1a291b069d8882abf8cf18dd98152f35b60449160405191638919e25360e01b835260048301526024820152fd5b60449250604051916204bb6760e81b835260048301526024820152fd5b6115e691611ba6565b908082036115f4578061155d565b6044925060405191637654e04760e11b835260048301526024820152fd5b9093506020813d60201161163e575b8161162e60209383611ac2565b810103126100fb57519286611554565b3d9150611621565b93506020843d602011611673575b8161166160209383611ac2565b810103126100fb57925192602061151a565b3d9150611654565b9392506020843d6020116116aa575b8161169760209383611ac2565b810103126100fb579251919260206114ec565b3d915061168a565b9293506020833d6020116116e1575b816116ce60209383611ac2565b810103126100fb57915192916020611433565b3d91506116c1565b90506020813d602011611713575b8161170460209383611ac2565b810103126100fb5751856113fd565b3d91506116f7565b604492506040519163a40ed01360e01b835260048301526024820152fd5b90506020813d602011611763575b8161175460209383611ac2565b810103126100fb5751856113a3565b3d9150611747565b60405163095ea7b360e01b60208201526001600160a01b039092166024830152600060448084019190915282526117c7916117b8906117a981611aa6565b6001600160a01b038616611b27565b6001600160a01b038416611b27565b848061136d565b9091506117eb57506001600160a01b0384163b15155b8780611365565b6001146117e4565b602090813d8311611817575b6118098183611ac2565b810103126100fb5785611311565b503d6117ff565b60405163095ea7b360e01b60208201526001600160a01b03831660248201526000604480830191909152815261186b9190610dff9061185c81611aa6565b6001600160a01b038716611b27565b856112cd565b90915061188e57506001600160a01b0384163b15155b87806112c5565b600114611887565b9091506020813d6020116118c2575b816118b260209383611ac2565b810103126100fb5751908561126c565b3d91506118a5565b60405163c7f1118d60e01b81526001600160a01b0391821660048201529083166024820152604490fd5b61190e91935060203d602011610f4357610f348183611ac2565b9185611222565b61192f91935060203d602011610f4357610f348183611ac2565b91846111f2565b604051636705ec4760e11b81526001600160a01b03919091166004820152306024820152604490fd5b631a01026f60e01b82523360048301526001600160a01b03166024820152604490fd5b600435906001600160a01b03821682036100fb57565b602435906001600160a01b03821682036100fb57565b9181601f840112156100fb5782359167ffffffffffffffff83116100fb57602083818601950101116100fb57565b60609060031901126100fb576001600160a01b039060043582811681036100fb579160243590811681036100fb579060443590565b600454811015611a485760046000527f8a35acfbc15ff81a39ae7d344fd709f28e8600b4aa8c65c6b64bfe7fe36bd19b0190600090565b634e487b7160e01b600052603260045260246000fd5b6000546001600160a01b03163303611a7257565b60405163118cdaa760e01b8152336004820152602490fd5b6060810190811067ffffffffffffffff82111761057e57604052565b6080810190811067ffffffffffffffff82111761057e57604052565b90601f8019910116810190811067ffffffffffffffff82111761057e57604052565b60405163a9059cbb60e01b60208201526001600160a01b03929092166024830152604480830193909352918152611b2591611b20606483611ac2565b611b27565b565b906000602091828151910182855af1156102ed576000513d611b7a57506001600160a01b0381163b155b611b585750565b604051635274afe760e01b81526001600160a01b039091166004820152602490fd5b60011415611b51565b600260015414611b94576002600155565b604051633ee5aeb560e01b8152600490fd5b919082039182116103ea57565b67ffffffffffffffff811161057e57601f01601f191660200190565b929192611bdb82611bb3565b91611be96040519384611ac2565b8294818452818301116100fb578281602093846000960137010152565b908160209103126100fb57516001600160a01b03811681036100fb5790565b919082018092116103ea57565b60005b838110611c455750506000910152565b8181015183820152602001611c35565b90602091611c6e81518092818552858086019101611c32565b601f01601f191601019056fea264697066735822122065d32210562196f237f238e5c558091632aa3ef029cc188c73a429341593568b64736f6c63430008140033",
  "deployedBytecode": "0x608080604052600436101561001357600080fd5b60003560e01c90816323e30c8b1461106e575080632ae1810414611033578063500fc43414610f6b57806357ae0a72146106a0578063715018a6146106475780638321928d146106025780638da5cb5b146105d9578063a771445814610594578063b627bd401461047e578063e5711e8b1461033e578063e7a41486146101df578063e9c9dbff1461018e578063f2fde38b146101005763fc908293146100b957600080fd5b346100fb5760203660031901126100fb576004356004548110156100fb576100e2602091611a11565b905460405160039290921b1c6001600160a01b03168152f35b600080fd5b346100fb5760203660031901126100fb57610119611982565b610121611a5e565b6001600160a01b0390811690811561017557600054826bffffffffffffffffffffffff60a01b821617600055167f8be0079c531659141344cd1fd0a4f28419497f9722a3daafe3b4186f6b6457e0600080a3005b604051631e4fbdf760e01b815260006004820152602490fd5b346100fb5760403660031901126100fb576101a7611982565b6101af611998565b9060018060a01b038091166000526002602052604060002091166000526020526020604060002054604051908152f35b346100fb5760603660031901126100fb5760248035906044356001600160a01b03811691908290036100fb57620f4240908184116103285760405163266d6a8360e11b815260048035908201526020949085818481885afa80156102ed5786916000916102f9575b50836040518097819363c879cf7d60e01b835260048301525afa9384156102ed576000946102be575b508203928284116102a957838102938185041490151715610295575060405191048152f35b634e487b7160e01b60009081526011600452fd5b50634e487b7160e01b60009081526011600452fd5b9093508481813d83116102e6575b6102d68183611ac2565b810103126100fb57519285610270565b503d6102cc565b6040513d6000823e3d90fd5b82819392503d8311610321575b6103108183611ac2565b810103126100fb5785905187610247565b503d610306565b60405163103b7d4960e11b815260048101859052fd5b346100fb5761034c366119dc565b9091610356611a5e565b61035e611b83565b60405191829060045480855282602080960160046000527f8a35acfbc15ff81a39ae7d344fd709f28e8600b4aa8c65c6b64bfe7fe36bd19b9260005b8882821061045f575050506103b192500383611ac2565b60005b825181101561044557600581901b83018501516001600160a01b038581169116146104005760001981146103ea576001016103b4565b634e487b7160e01b600052601160045260246000fd5b60405162461bcd60e51b815260048101869052601e60248201527f43616e6e6f7420726573637565207265737472696374656420746f6b656e00006044820152606490fd5b61045982876001600160a01b038716611ae4565b60018055005b85546001600160a01b031684526001958601958895509301920161039a565b346100fb5761048c366119dc565b9091610496611b83565b61049e611a5e565b60018060a01b0380911691826000526002602052816040600020941693846000526020528060406000205560036020526040600020805460ff811615610512575b85857f0c50c097ce2862533c8b4cf54b8114ed60cba691c6e486c7e17d4e5908a46dda602086604051908152a360018055005b60ff19166001179055600454906801000000000000000082101561057e577f0c50c097ce2862533c8b4cf54b8114ed60cba691c6e486c7e17d4e5908a46dda9261056483600160209501600455611a11565b819291549060031b9188831b921b191617905590856104df565b634e487b7160e01b600052604160045260246000fd5b346100fb5760003660031901126100fb576040517f00000000000000000000000000000000000000000000000000000000000000006001600160a01b03168152602090f35b346100fb5760003660031901126100fb576000546040516001600160a01b039091168152602090f35b346100fb5760003660031901126100fb576040517f00000000000000000000000000000000000000000000000000000000000000006001600160a01b03168152602090f35b346100fb5760003660031901126100fb57610660611a5e565b600080546001600160a01b0319811682556001600160a01b03167f8be0079c531659141344cd1fd0a4f28419497f9722a3daafe3b4186f6b6457e08280a3005b346100fb5760a03660031901126100fb576106b9611998565b67ffffffffffffffff906064358281116100fb576106db9036906004016119ae565b92608435916001600160a01b03831683036100fb576106f8611b83565b604051906323b872dd60e01b602083015233602483015230604483015260043560648301526064825260a08201928284109084111761057e5761074d610766926107b89460405260018060a01b038616611b27565b6040519561075a87611a8a565b60043587523691611bcf565b9384602082015260018060a01b03831660408201525161079b6040519586926020840152606060408401526080830190611c55565b6001600160a01b038416606083015203601f198101855284611ac2565b604051632c805af560e21b8152926020846004816001600160a01b0386165afa9384156102ed57600094610f4a575b50604051631f1b131360e31b8152906020826004816001600160a01b0387165afa9182156102ed57600092610f19575b5060405163613255ab60e01b81526001600160a01b038381166004830152909190602090839060249082907f0000000000000000000000000000000000000000000000000000000000000000165afa9182156102ed57600092610ee5575b506040516370a0823160e01b8152306004820152916020836024816001600160a01b0389165afa9283156102ed57600093610eb1575b506040516370a0823160e01b8152306004820152936020856024816001600160a01b038c165afa9485156102ed57600095610e7d575b50604051633676633960e21b81526001600160a01b038216600482015260248101839052602081806044810103817f00000000000000000000000000000000000000000000000000000000000000006001600160a01b03165afa80156102ed57600090610e49575b610954915083611c25565b60405163095ea7b360e01b60208083018281526001600160a01b037f000000000000000000000000000000000000000000000000000000000000000016602485015260448085019590955293835290926000906109b2606485611ac2565b835190826001600160a01b0388165af16000513d82610e24575b505015610dad575b50506001600160a01b038181167f000000000000000000000000000000000000000000000000000000000000000090911603610d6257604051632e7ff4ef60e11b81523060048201526001600160a01b0390911660248201526044810191909152608060648201529060209082908190610a52906084830190611c55565b038160007f00000000000000000000000000000000000000000000000000000000000000006001600160a01b03165af180156102ed57610d2a575b506040516370a0823160e01b8152306004820152906020826024816001600160a01b0388165afa9182156102ed57600092610cf6575b5080821015610cd95790610ad691611ba6565b6004358103610cb957506040516370a0823160e01b81523060048201526020816024816001600160a01b0389165afa9081156102ed57600091610c87575b5081811115610c695790610b2791611ba6565b91604435808410610c4b5750610b489083906001600160a01b038616611ae4565b6040516370a0823160e01b8152306004820152926020846024816001600160a01b0385165afa9081156102ed57600091610c16575b6001600160a01b0383811660009081526002602090815260408083209385168352928152919020549095508211610bbe575b50505060018055604051908152f35b7fad79d05acd80cdd541a6b69468eb8c356bfb5426652f379c4c6d945f1ea15ec3908590610bf9846001600160a01b03878116908416611ae4565b6040519384526001600160a01b03908116941692a3828080610baf565b90506020843d602011610c43575b81610c3160209383611ac2565b810103126100fb576020935190610b7d565b3d9150610c24565b83604491604051916347247e7760e11b835260048301526024820152fd5b6044925060405191637506a25d60e11b835260048301526024820152fd5b90506020813d602011610cb1575b81610ca260209383611ac2565b810103126100fb575185610b14565b3d9150610c95565b604490604051906302d753ed60e61b825260043560048301526024820152fd5b60449160405191632b9e770560e11b835260048301526024820152fd5b9091506020813d602011610d22575b81610d1260209383611ac2565b810103126100fb57519086610ac3565b3d9150610d05565b6020813d602011610d5a575b81610d4360209383611ac2565b810103126100fb5751801515036100fb5785610a8d565b3d9150610d36565b60405163aaae67a160e01b81526001600160a01b037f000000000000000000000000000000000000000000000000000000000000000081166004830152919091166024820152604490fd5b610e0e610e1d9260405190602082015260018060a01b037f00000000000000000000000000000000000000000000000000000000000000001660248201526000604482015260448152610dff81611aa6565b6001600160a01b038516611b27565b6001600160a01b038316611b27565b88806109d4565b909150610e4157506001600160a01b0383163b15155b8b806109cc565b600114610e3a565b506020813d602011610e75575b81610e6360209383611ac2565b810103126100fb576109549051610949565b3d9150610e56565b9094506020813d602011610ea9575b81610e9960209383611ac2565b810103126100fb575193886108e1565b3d9150610e8c565b9092506020813d602011610edd575b81610ecd60209383611ac2565b810103126100fb575191876108ab565b3d9150610ec0565b9091506020813d602011610f11575b81610f0160209383611ac2565b810103126100fb57519086610875565b3d9150610ef4565b610f3c91925060203d602011610f43575b610f348183611ac2565b810190611c06565b9085610817565b503d610f2a565b610f6491945060203d602011610f4357610f348183611ac2565b92846107e7565b346100fb5760003660031901126100fb57604051806004548083526020809301809160046000527f8a35acfbc15ff81a39ae7d344fd709f28e8600b4aa8c65c6b64bfe7fe36bd19b9060005b86828210611016578686610fcd82880383611ac2565b604051928392818401908285525180915260408401929160005b828110610ff657505050500390f35b83516001600160a01b031685528695509381019392810192600101610fe7565b83546001600160a01b031685529093019260019283019201610fb7565b346100fb5760003660031901126100fb5760206040517f439148f0bbc682ca079e46d6e2c2f0c1e3b820f1a291b069d8882abf8cf18dd98152f35b346100fb5760a03660031901126100fb57611087611982565b90611090611998565b906084359267ffffffffffffffff938481116100fb576110b49036906004016119ae565b90929091907f00000000000000000000000000000000000000000000000000000000000000006001600160a01b03163381900361195f575050306001600160a01b0382160361193657509061110a913691611bcf565b906040519261111884611a8a565b60008452606060208501526040840192600084528051810190606081602084019303126100fb5760208101519260408201519081116100fb5781019082603f830112156100fb5760208201519161116e83611bb3565b9361117c6040519586611ac2565b838552604084830101116100fb5760609261119e916040602087019101611c32565b0151936001600160a01b03851685036100fb576001600160a01b03851690819052602086810192909252918552604051632c805af560e21b81529391849060049082905afa9283156102ed57600093611915575b50604051631f1b131360e31b8152916020836004816001600160a01b0386165afa9283156102ed576000936118f4575b506001600160a01b03838116908216036118ca57506040516370a0823160e01b8152306004820152906020826024816001600160a01b0387165afa9182156102ed57600092611896575b5060405163095ea7b360e01b60208201526001600160a01b038216602482015260001960448083019190915281526112a381611aa6565b8051602090600090838301826001600160a01b0389165af16000513d82611871575b50501561181e575b508451604051635d043b2960e11b815260048101919091523060248201819052604482015260208160648160006001600160a01b0387165af180156102ed576117f3575b5060405163095ea7b360e01b60208083019182526001600160a01b0384166024840152600060448085018290528452909161134b84611aa6565b835190826001600160a01b0389165af16000513d826117ce575b50501561176b575b50506040516370a0823160e01b81523060048201526020816024816001600160a01b0387165afa9081156102ed57600091611739575b5081811161171b576020916113be6113c39260643592611ba6565b611c25565b9301516040516370a0823160e01b815230600482015290926001600160a01b031690602081602481855afa9081156102ed576000916116e9575b506040516370a0823160e01b8152306004820152926020846024816001600160a01b0385165afa9384156102ed576000946116b2575b506040516304ecaec960e31b8152600481018490526001600160a01b03821660248201526044810187905260001960648201523060848201524260a482015261010060c482015293949293926020908490819061149590610104830190611c55565b7f00000000000000000000000000000000000000000000000000000000000000006001600160a01b031660e4830152038173__$73ace4aa8e5f9c1a2b48f796123ca85165$__5af49283156102ed5760009361167b575b506020602494604051958680926370a0823160e01b82523060048301525afa9384156102ed57600094611646575b506040516370a0823160e01b81523060048201529390602090859060249082906001600160a01b03165afa9384156102ed57600094611612575b508181106115dd575b505050818111156115c0579061157291611ba6565b8181036115a35760206040517f439148f0bbc682ca079e46d6e2c2f0c1e3b820f1a291b069d8882abf8cf18dd98152f35b60449160405191638919e25360e01b835260048301526024820152fd5b60449250604051916204bb6760e81b835260048301526024820152fd5b6115e691611ba6565b908082036115f4578061155d565b6044925060405191637654e04760e11b835260048301526024820152fd5b9093506020813d60201161163e575b8161162e60209383611ac2565b810103126100fb57519286611554565b3d9150611621565b93506020843d602011611673575b8161166160209383611ac2565b810103126100fb57925192602061151a565b3d9150611654565b9392506020843d6020116116aa575b8161169760209383611ac2565b810103126100fb579251919260206114ec565b3d915061168a565b9293506020833d6020116116e1575b816116ce60209383611ac2565b810103126100fb57915192916020611433565b3d91506116c1565b90506020813d602011611713575b8161170460209383611ac2565b810103126100fb5751856113fd565b3d91506116f7565b604492506040519163a40ed01360e01b835260048301526024820152fd5b90506020813d602011611763575b8161175460209383611ac2565b810103126100fb5751856113a3565b3d9150611747565b60405163095ea7b360e01b60208201526001600160a01b039092166024830152600060448084019190915282526117c7916117b8906117a981611aa6565b6001600160a01b038616611b27565b6001600160a01b038416611b27565b848061136d565b9091506117eb57506001600160a01b0384163b15155b8780611365565b6001146117e4565b602090813d8311611817575b6118098183611ac2565b810103126100fb5785611311565b503d6117ff565b60405163095ea7b360e01b60208201526001600160a01b03831660248201526000604480830191909152815261186b9190610dff9061185c81611aa6565b6001600160a01b038716611b27565b856112cd565b90915061188e57506001600160a01b0384163b15155b87806112c5565b600114611887565b9091506020813d6020116118c2575b816118b260209383611ac2565b810103126100fb5751908561126c565b3d91506118a5565b60405163c7f1118d60e01b81526001600160a01b0391821660048201529083166024820152604490fd5b61190e91935060203d602011610f4357610f348183611ac2565b9185611222565b61192f91935060203d602011610f4357610f348183611ac2565b91846111f2565b604051636705ec4760e11b81526001600160a01b03919091166004820152306024820152604490fd5b631a01026f60e01b82523360048301526001600160a01b03166024820152604490fd5b600435906001600160a01b03821682036100fb57565b602435906001600160a01b03821682036100fb57565b9181601f840112156100fb5782359167ffffffffffffffff83116100fb57602083818601950101116100fb57565b60609060031901126100fb576001600160a01b039060043582811681036100fb579160243590811681036100fb579060443590565b600454811015611a485760046000527f8a35acfbc15ff81a39ae7d344fd709f28e8600b4aa8c65c6b64bfe7fe36bd19b0190600090565b634e487b7160e01b600052603260045260246000fd5b6000546001600160a01b03163303611a7257565b60405163118cdaa760e01b8152336004820152602490fd5b6060810190811067ffffffffffffffff82111761057e57604052565b6080810190811067ffffffffffffffff82111761057e57604052565b90601f8019910116810190811067ffffffffffffffff82111761057e57604052565b60405163a9059cbb60e01b60208201526001600160a01b03929092166024830152604480830193909352918152611b2591611b20606483611ac2565b611b27565b565b906000602091828151910182855af1156102ed576000513d611b7a57506001600160a01b0381163b155b611b585750565b604051635274afe760e01b81526001600160a01b039091166004820152602490fd5b60011415611b51565b600260015414611b94576002600155565b604051633ee5aeb560e01b8152600490fd5b919082039182116103ea57565b67ffffffffffffffff811161057e57601f01601f191660200190565b929192611bdb82611bb3565b91611be96040519384611ac2565b8294818452818301116100fb578281602093846000960137010152565b908160209103126100fb57516001600160a01b03811681036100fb5790565b919082018092116103ea57565b60005b838110611c455750506000910152565b8181015183820152602001611c35565b90602091611c6e81518092818552858086019101611c32565b601f01601f191601019056fea264697066735822122065d32210562196f237f238e5c558091632aa3ef029cc188c73a429341593568b64736f6c63430008140033",
  "libraries": {
    "OdosSwapLogic": "0xf407Fc422d663D2dAab7DbceA44E16aDe15ca87d"
  },
  "devdoc": {
    "details": "Implementation of DLoopRedeemerBase with Odos swap functionality",
    "errors": {
      "OwnableInvalidOwner(address)": [
        {
          "details": "The owner is not a valid owner account. (eg. `address(0)`)"
        }
      ],
      "OwnableUnauthorizedAccount(address)": [
        {
          "details": "The caller account is not authorized to perform an operation."
        }
      ],
      "ReentrancyGuardReentrantCall()": [
        {
          "details": "Unauthorized reentrant call."
        }
      ],
      "SafeERC20FailedOperation(address)": [
        {
          "details": "An operation with an ERC-20 token failed."
        }
      ]
    },
    "kind": "dev",
    "methods": {
      "calculateMinOutputCollateral(uint256,uint256,address)": {
        "details": "Calculates the minimum output collateral amount for a given shares and slippage bps",
        "params": {
          "dLoopCore": "Address of the DLoopCore contract",
          "shares": "Amount of shares to redeem",
          "slippageBps": "Slippage bps"
        },
        "returns": {
          "_0": "minOutputCollateralAmount Minimum output collateral amount"
        }
      },
      "constructor": {
        "details": "Constructor for the DLoopRedeemerOdos contract",
        "params": {
          "_flashLender": "Address of the flash loan provider",
          "_odosRouter": "Address of the Odos router"
        }
      },
      "getRestrictedRescueTokens()": {
        "details": "Gets the restricted rescue tokens",
        "returns": {
          "restrictedTokens": "Restricted rescue tokens"
        }
      },
      "onFlashLoan(address,address,uint256,uint256,bytes)": {
        "details": "Callback function for flash loans",
        "params": {
          "data": "Encoded flash loan parameters",
          "initiator": "Address that initiated the flash loan",
          "token": "Address of the flash-borrowed token"
        },
        "returns": {
          "_0": "bytes32 The flash loan callback success bytes"
        }
      },
      "owner()": {
        "details": "Returns the address of the current owner."
      },
      "redeem(uint256,address,uint256,bytes,address)": {
        "details": "Redeems shares from the core vault with flash loans      - The required debt token to withdraw will be flash loaned from the flash lender",
        "params": {
          "collateralToDebtTokenSwapData": "Swap data from collateral token to debt token",
          "dLoopCore": "Address of the DLoopCore contract to use",
          "minOutputCollateralAmount": "Minimum amount of collateral token to receive (slippage protection)",
          "receiver": "Address to receive the assets",
          "shares": "Amount of shares to redeem"
        },
        "returns": {
          "assets": "Amount of assets redeemed"
        }
      },
      "renounceOwnership()": {
        "details": "Leaves the contract without owner. It will not be possible to call `onlyOwner` functions. Can only be called by the current owner. NOTE: Renouncing ownership will leave the contract without an owner, thereby disabling any functionality that is only available to the owner."
      },
      "rescueToken(address,address,uint256)": {
        "details": "Rescues tokens accidentally sent to the contract (except for the collateral token and debt token)",
        "params": {
          "amount": "Amount of tokens to rescue",
          "receiver": "Address to receive the rescued tokens",
          "token": "Address of the token to rescue"
        }
      },
      "setMinLeftoverCollateralTokenAmount(address,address,uint256)": {
        "details": "Sets the minimum leftover collateral token amount for a given dLoopCore and collateral token",
        "params": {
          "collateralToken": "Address of the collateral token",
          "dLoopCore": "Address of the dLoopCore contract",
          "minAmount": "Minimum leftover collateral token amount for the given dLoopCore and collateral token"
        }
      },
      "transferOwnership(address)": {
        "details": "Transfers ownership of the contract to a new account (`newOwner`). Can only be called by the current owner."
      }
    },
    "title": "DLoopRedeemerOdos",
    "version": 1
  },
  "userdoc": {
    "kind": "user",
    "methods": {},
    "version": 1
  },
  "storageLayout": {
    "storage": [
      {
        "astId": 387,
        "contract": "contracts/vaults/dloop/periphery/venue/odos/DLoopRedeemerOdos.sol:DLoopRedeemerOdos",
        "label": "_owner",
        "offset": 0,
        "slot": "0",
        "type": "t_address"
      },
      {
        "astId": 2793,
        "contract": "contracts/vaults/dloop/periphery/venue/odos/DLoopRedeemerOdos.sol:DLoopRedeemerOdos",
        "label": "_status",
        "offset": 0,
        "slot": "1",
        "type": "t_uint256"
      },
      {
        "astId": 16579,
        "contract": "contracts/vaults/dloop/periphery/venue/odos/DLoopRedeemerOdos.sol:DLoopRedeemerOdos",
        "label": "minLeftoverCollateralTokenAmount",
        "offset": 0,
        "slot": "2",
        "type": "t_mapping(t_address,t_mapping(t_address,t_uint256))"
      },
      {
        "astId": 16583,
        "contract": "contracts/vaults/dloop/periphery/venue/odos/DLoopRedeemerOdos.sol:DLoopRedeemerOdos",
        "label": "_existingCollateralTokensMap",
        "offset": 0,
        "slot": "3",
        "type": "t_mapping(t_address,t_bool)"
      },
      {
        "astId": 16586,
        "contract": "contracts/vaults/dloop/periphery/venue/odos/DLoopRedeemerOdos.sol:DLoopRedeemerOdos",
        "label": "existingCollateralTokens",
        "offset": 0,
        "slot": "4",
        "type": "t_array(t_address)dyn_storage"
      }
    ],
    "types": {
      "t_address": {
        "encoding": "inplace",
        "label": "address",
        "numberOfBytes": "20"
      },
      "t_array(t_address)dyn_storage": {
        "base": "t_address",
        "encoding": "dynamic_array",
        "label": "address[]",
        "numberOfBytes": "32"
      },
      "t_bool": {
        "encoding": "inplace",
        "label": "bool",
        "numberOfBytes": "1"
      },
      "t_mapping(t_address,t_bool)": {
        "encoding": "mapping",
        "key": "t_address",
        "label": "mapping(address => bool)",
        "numberOfBytes": "32",
        "value": "t_bool"
      },
      "t_mapping(t_address,t_mapping(t_address,t_uint256))": {
        "encoding": "mapping",
        "key": "t_address",
        "label": "mapping(address => mapping(address => uint256))",
        "numberOfBytes": "32",
        "value": "t_mapping(t_address,t_uint256)"
      },
      "t_mapping(t_address,t_uint256)": {
        "encoding": "mapping",
        "key": "t_address",
        "label": "mapping(address => uint256)",
        "numberOfBytes": "32",
        "value": "t_uint256"
      },
      "t_uint256": {
        "encoding": "inplace",
        "label": "uint256",
        "numberOfBytes": "32"
      }
    }
  }
}