{
  "address": "0x5E8352729ebD1Ea860836d6B3f59eaf286488D15",
  "abi": [
    {
      "inputs": [
        {
          "internalType": "address",
          "name": "_collateralVault",
          "type": "address"
        },
        {
          "internalType": "address",
          "name": "_dstable",
          "type": "address"
        },
        {
          "internalType": "contract IPriceOracleGetter",
          "name": "oracle",
          "type": "address"
        },
        {
          "internalType": "address",
          "name": "_amoManager",
          "type": "address"
        }
      ],
      "stateMutability": "nonpayable",
      "type": "constructor"
    },
    {
      "inputs": [],
      "name": "AccessControlBadConfirmation",
      "type": "error"
    },
    {
      "inputs": [
        {
          "internalType": "address",
          "name": "account",
          "type": "address"
        },
        {
          "internalType": "bytes32",
          "name": "neededRole",
          "type": "bytes32"
        }
      ],
      "name": "AccessControlUnauthorizedAccount",
      "type": "error"
    },
    {
      "inputs": [
        {
          "internalType": "uint256",
          "name": "baseCurrencyUnit",
          "type": "uint256"
        }
      ],
      "name": "IncorrectBaseCurrencyUnit",
      "type": "error"
    },
    {
      "inputs": [
        {
          "internalType": "uint256",
          "name": "collateralInDstable",
          "type": "uint256"
        },
        {
          "internalType": "uint256",
          "name": "circulatingDstable",
          "type": "uint256"
        }
      ],
      "name": "IssuanceSurpassesExcessCollateral",
      "type": "error"
    },
    {
      "inputs": [
        {
          "internalType": "uint256",
          "name": "circulatingDstableBefore",
          "type": "uint256"
        },
        {
          "internalType": "uint256",
          "name": "circulatingDstableAfter",
          "type": "uint256"
        }
      ],
      "name": "MintingToAmoShouldNotIncreaseSupply",
      "type": "error"
    },
    {
      "inputs": [
        {
          "internalType": "address",
          "name": "token",
          "type": "address"
        }
      ],
      "name": "SafeERC20FailedOperation",
      "type": "error"
    },
    {
      "inputs": [
        {
          "internalType": "uint256",
          "name": "minDStable",
          "type": "uint256"
        },
        {
          "internalType": "uint256",
          "name": "dstableAmount",
          "type": "uint256"
        }
      ],
      "name": "SlippageTooHigh",
      "type": "error"
    },
    {
      "anonymous": false,
      "inputs": [
        {
          "indexed": true,
          "internalType": "address",
          "name": "amoManager",
          "type": "address"
        }
      ],
      "name": "AmoManagerSet",
      "type": "event"
    },
    {
      "anonymous": false,
      "inputs": [
        {
          "indexed": true,
          "internalType": "address",
          "name": "collateralVault",
          "type": "address"
        }
      ],
      "name": "CollateralVaultSet",
      "type": "event"
    },
    {
      "anonymous": false,
      "inputs": [
        {
          "indexed": true,
          "internalType": "address",
          "name": "newOracle",
          "type": "address"
        }
      ],
      "name": "OracleSet",
      "type": "event"
    },
    {
      "anonymous": false,
      "inputs": [
        {
          "indexed": true,
          "internalType": "bytes32",
          "name": "role",
          "type": "bytes32"
        },
        {
          "indexed": true,
          "internalType": "bytes32",
          "name": "previousAdminRole",
          "type": "bytes32"
        },
        {
          "indexed": true,
          "internalType": "bytes32",
          "name": "newAdminRole",
          "type": "bytes32"
        }
      ],
      "name": "RoleAdminChanged",
      "type": "event"
    },
    {
      "anonymous": false,
      "inputs": [
        {
          "indexed": true,
          "internalType": "bytes32",
          "name": "role",
          "type": "bytes32"
        },
        {
          "indexed": true,
          "internalType": "address",
          "name": "account",
          "type": "address"
        },
        {
          "indexed": true,
          "internalType": "address",
          "name": "sender",
          "type": "address"
        }
      ],
      "name": "RoleGranted",
      "type": "event"
    },
    {
      "anonymous": false,
      "inputs": [
        {
          "indexed": true,
          "internalType": "bytes32",
          "name": "role",
          "type": "bytes32"
        },
        {
          "indexed": true,
          "internalType": "address",
          "name": "account",
          "type": "address"
        },
        {
          "indexed": true,
          "internalType": "address",
          "name": "sender",
          "type": "address"
        }
      ],
      "name": "RoleRevoked",
      "type": "event"
    },
    {
      "inputs": [],
      "name": "AMO_MANAGER_ROLE",
      "outputs": [
        {
          "internalType": "bytes32",
          "name": "",
          "type": "bytes32"
        }
      ],
      "stateMutability": "view",
      "type": "function"
    },
    {
      "inputs": [],
      "name": "BASE_UNIT",
      "outputs": [
        {
          "internalType": "uint256",
          "name": "",
          "type": "uint256"
        }
      ],
      "stateMutability": "view",
      "type": "function"
    },
    {
      "inputs": [],
      "name": "DEFAULT_ADMIN_ROLE",
      "outputs": [
        {
          "internalType": "bytes32",
          "name": "",
          "type": "bytes32"
        }
      ],
      "stateMutability": "view",
      "type": "function"
    },
    {
      "inputs": [],
      "name": "INCENTIVES_MANAGER_ROLE",
      "outputs": [
        {
          "internalType": "bytes32",
          "name": "",
          "type": "bytes32"
        }
      ],
      "stateMutability": "view",
      "type": "function"
    },
    {
      "inputs": [],
      "name": "amoManager",
      "outputs": [
        {
          "internalType": "contract AmoManager",
          "name": "",
          "type": "address"
        }
      ],
      "stateMutability": "view",
      "type": "function"
    },
    {
      "inputs": [],
      "name": "baseCurrencyUnit",
      "outputs": [
        {
          "internalType": "uint256",
          "name": "",
          "type": "uint256"
        }
      ],
      "stateMutability": "view",
      "type": "function"
    },
    {
      "inputs": [
        {
          "internalType": "uint256",
          "name": "baseValue",
          "type": "uint256"
        }
      ],
      "name": "baseValueToDstableAmount",
      "outputs": [
        {
          "internalType": "uint256",
          "name": "",
          "type": "uint256"
        }
      ],
      "stateMutability": "view",
      "type": "function"
    },
    {
      "inputs": [],
      "name": "circulatingDstable",
      "outputs": [
        {
          "internalType": "uint256",
          "name": "",
          "type": "uint256"
        }
      ],
      "stateMutability": "view",
      "type": "function"
    },
    {
      "inputs": [],
      "name": "collateralInDstable",
      "outputs": [
        {
          "internalType": "uint256",
          "name": "",
          "type": "uint256"
        }
      ],
      "stateMutability": "view",
      "type": "function"
    },
    {
      "inputs": [],
      "name": "collateralVault",
      "outputs": [
        {
          "internalType": "contract CollateralVault",
          "name": "",
          "type": "address"
        }
      ],
      "stateMutability": "view",
      "type": "function"
    },
    {
      "inputs": [],
      "name": "dstable",
      "outputs": [
        {
          "internalType": "contract IMintableERC20",
          "name": "",
          "type": "address"
        }
      ],
      "stateMutability": "view",
      "type": "function"
    },
    {
      "inputs": [],
      "name": "dstableDecimals",
      "outputs": [
        {
          "internalType": "uint8",
          "name": "",
          "type": "uint8"
        }
      ],
      "stateMutability": "view",
      "type": "function"
    },
    {
      "inputs": [
        {
          "internalType": "bytes32",
          "name": "role",
          "type": "bytes32"
        }
      ],
      "name": "getRoleAdmin",
      "outputs": [
        {
          "internalType": "bytes32",
          "name": "",
          "type": "bytes32"
        }
      ],
      "stateMutability": "view",
      "type": "function"
    },
    {
      "inputs": [
        {
          "internalType": "bytes32",
          "name": "role",
          "type": "bytes32"
        },
        {
          "internalType": "address",
          "name": "account",
          "type": "address"
        }
      ],
      "name": "grantRole",
      "outputs": [],
      "stateMutability": "nonpayable",
      "type": "function"
    },
    {
      "inputs": [
        {
          "internalType": "bytes32",
          "name": "role",
          "type": "bytes32"
        },
        {
          "internalType": "address",
          "name": "account",
          "type": "address"
        }
      ],
      "name": "hasRole",
      "outputs": [
        {
          "internalType": "bool",
          "name": "",
          "type": "bool"
        }
      ],
      "stateMutability": "view",
      "type": "function"
    },
    {
      "inputs": [
        {
          "internalType": "uint256",
          "name": "dstableAmount",
          "type": "uint256"
        }
      ],
      "name": "increaseAmoSupply",
      "outputs": [],
      "stateMutability": "nonpayable",
      "type": "function"
    },
    {
      "inputs": [
        {
          "internalType": "uint256",
          "name": "collateralAmount",
          "type": "uint256"
        },
        {
          "internalType": "address",
          "name": "collateralAsset",
          "type": "address"
        },
        {
          "internalType": "uint256",
          "name": "minDStable",
          "type": "uint256"
        }
      ],
      "name": "issue",
      "outputs": [],
      "stateMutability": "nonpayable",
      "type": "function"
    },
    {
      "inputs": [
        {
          "internalType": "address",
          "name": "receiver",
          "type": "address"
        },
        {
          "internalType": "uint256",
          "name": "dstableAmount",
          "type": "uint256"
        }
      ],
      "name": "issueUsingExcessCollateral",
      "outputs": [],
      "stateMutability": "nonpayable",
      "type": "function"
    },
    {
      "inputs": [],
      "name": "oracle",
      "outputs": [
        {
          "internalType": "contract IPriceOracleGetter",
          "name": "",
          "type": "address"
        }
      ],
      "stateMutability": "view",
      "type": "function"
    },
    {
      "inputs": [
        {
          "internalType": "bytes32",
          "name": "role",
          "type": "bytes32"
        },
        {
          "internalType": "address",
          "name": "callerConfirmation",
          "type": "address"
        }
      ],
      "name": "renounceRole",
      "outputs": [],
      "stateMutability": "nonpayable",
      "type": "function"
    },
    {
      "inputs": [
        {
          "internalType": "bytes32",
          "name": "role",
          "type": "bytes32"
        },
        {
          "internalType": "address",
          "name": "account",
          "type": "address"
        }
      ],
      "name": "revokeRole",
      "outputs": [],
      "stateMutability": "nonpayable",
      "type": "function"
    },
    {
      "inputs": [
        {
          "internalType": "address",
          "name": "_amoManager",
          "type": "address"
        }
      ],
      "name": "setAmoManager",
      "outputs": [],
      "stateMutability": "nonpayable",
      "type": "function"
    },
    {
      "inputs": [
        {
          "internalType": "uint256",
          "name": "_newBaseCurrencyUnit",
          "type": "uint256"
        }
      ],
      "name": "setBaseCurrencyUnit",
      "outputs": [],
      "stateMutability": "nonpayable",
      "type": "function"
    },
    {
      "inputs": [
        {
          "internalType": "address",
          "name": "_collateralVault",
          "type": "address"
        }
      ],
      "name": "setCollateralVault",
      "outputs": [],
      "stateMutability": "nonpayable",
      "type": "function"
    },
    {
      "inputs": [
        {
          "internalType": "contract IPriceOracleGetter",
          "name": "newOracle",
          "type": "address"
        }
      ],
      "name": "setOracle",
      "outputs": [],
      "stateMutability": "nonpayable",
      "type": "function"
    },
    {
      "inputs": [
        {
          "internalType": "bytes4",
          "name": "interfaceId",
          "type": "bytes4"
        }
      ],
      "name": "supportsInterface",
      "outputs": [
        {
          "internalType": "bool",
          "name": "",
          "type": "bool"
        }
      ],
      "stateMutability": "view",
      "type": "function"
    }
  ],
  "transactionHash": "0xc63a2e9d840798bdd80cb655650876f5c12d12e11b706f13fd653b6a9f6e8db5",
  "args": [
    "0xD6BBab428240c6a4e093E13802f2eCa3E9F0De7d",
    "0x53a6aBb52B2F968fA80dF6A894e4f1b1020DA975",
    "0x1295A55D482257eCD66ba8846EAb6849712C3a9c",
    "0x0346E3770Fba1fA6B041aaE9B7FD5070Bd46973c"
  ],
  "numDeployments": 1,
  "solcInputHash": "8e62c4f78e5ecab2d6a0878ef9357cc0",
  "bytecode": "0x60c06040523480156200001157600080fd5b5060405162001590380380620015908339810160408190526200003491620003b8565b81826001600160a01b0316638c89b64f6040518163ffffffff1660e01b8152600401602060405180830381865afa15801562000074573d6000803e3d6000fd5b505050506040513d601f19601f820116820180604052508101906200009a919062000420565b600180546001600160a01b0319166001600160a01b0384161790556002819055620000c760003362000259565b5050600480546001600160a01b038088166001600160a01b0319928316178355600380549188169190921681179091556040805163313ce56760e01b8152905191935063313ce56792818101926020929091908290030181865afa15801562000134573d6000803e3d6000fd5b505050506040513d601f19601f820116820180604052508101906200015a91906200043a565b60ff16608052600580546001600160a01b0319166001600160a01b038381169190911790915560408051638c89b64f60e01b8152905191841691638c89b64f916004808201926020929091908290030181865afa158015620001c0573d6000803e3d6000fd5b505050506040513d601f19601f82011682018060405250810190620001e6919062000420565b60a052620001f660003362000259565b50620002237fbc4aa291e35c786eceb374be398429586e466107044903c4dff7a8687a5300703362000308565b6200024f7f5e1c59076ed40a2f2d7578e32a78795e357500600174cc5627a8953d155117223362000308565b5050505062000466565b6000828152602081815260408083206001600160a01b038516845290915281205460ff16620002fe576000838152602081815260408083206001600160a01b03861684529091529020805460ff19166001179055620002b53390565b6001600160a01b0316826001600160a01b0316847f2f8788117e7eff1d82e926ec794901d17c78024a50270940304540a733656f0d60405160405180910390a450600162000302565b5060005b92915050565b600082815260208190526040902060010154620003258162000337565b62000331838362000259565b50505050565b62000343813362000346565b50565b6000828152602081815260408083206001600160a01b038516845290915290205460ff166200039e5760405163e2517d3f60e01b81526001600160a01b03821660048201526024810183905260440160405180910390fd5b5050565b6001600160a01b03811681146200034357600080fd5b60008060008060808587031215620003cf57600080fd5b8451620003dc81620003a2565b6020860151909450620003ef81620003a2565b60408601519093506200040281620003a2565b60608601519092506200041581620003a2565b939692955090935050565b6000602082840312156200043357600080fd5b5051919050565b6000602082840312156200044d57600080fd5b815160ff811681146200045f57600080fd5b9392505050565b60805160a0516110f66200049a600039600081816101eb0152610ad501526000818161024b0152610af901526110f66000f3fe608060405234801561001057600080fd5b506004361061018e5760003560e01c806368a806c4116100de5780639d4cc8d311610097578063d54bc55e11610071578063d54bc55e146103c3578063e797c589146103d6578063f3bddde1146103e9578063f817f7d0146103f257600080fd5b80639d4cc8d314610395578063a217fddf146103a8578063d547741f146103b057600080fd5b806368a806c41461030f5780637adbf973146103225780637dc0d1d01461033557806391d148541461034857806397fe30ef1461035b5780639866f3201461036e57600080fd5b80632abcdf681161014b57806336568abe1161012557806336568abe146102af5780633ffa884c146102c25780634a0bbabb146102d55780635b8862dc146102e857600080fd5b80632abcdf681461027f5780632f2ff15d1461029457806330975247146102a757600080fd5b806301ffc9a7146101935780630bece79c146101bb5780630e962f00146101e657806311c71b3b1461021b578063248a9ca3146102235780632666391114610246575b600080fd5b6101a66101a1366004610e1f565b610405565b60405190151581526020015b60405180910390f35b6004546101ce906001600160a01b031681565b6040516001600160a01b0390911681526020016101b2565b61020d7f000000000000000000000000000000000000000000000000000000000000000081565b6040519081526020016101b2565b61020d61043c565b61020d610231366004610e50565b60009081526020819052604090206001015490565b61026d7f000000000000000000000000000000000000000000000000000000000000000081565b60405160ff90911681526020016101b2565b61029261028d366004610e50565b610544565b005b6102926102a2366004610e7e565b610623565b61020d610648565b6102926102bd366004610e7e565b6106c6565b6102926102d0366004610eae565b6106fe565b6102926102e3366004610e50565b6108b5565b61020d7fbc4aa291e35c786eceb374be398429586e466107044903c4dff7a8687a53007081565b61029261031d366004610ee6565b6108c6565b610292610330366004610ee6565b61091c565b6001546101ce906001600160a01b031681565b6101a6610356366004610e7e565b6109fb565b6003546101ce906001600160a01b031681565b61020d7f5e1c59076ed40a2f2d7578e32a78795e357500600174cc5627a8953d1551172281565b6102926103a3366004610ee6565b610a24565b61020d600081565b6102926103be366004610e7e565b610aac565b61020d6103d1366004610e50565b610ad1565b6102926103e4366004610f03565b610b33565b61020d60025481565b6005546101ce906001600160a01b031681565b60006001600160e01b03198216637965db0b60e01b148061043657506301ffc9a760e01b6001600160e01b03198316145b92915050565b600080600360009054906101000a90046001600160a01b03166001600160a01b03166318160ddd6040518163ffffffff1660e01b8152600401602060405180830381865afa158015610492573d6000803e3d6000fd5b505050506040513d601f19601f820116820180604052508101906104b69190610f2f565b90506000600560009054906101000a90046001600160a01b03166001600160a01b031663773df1516040518163ffffffff1660e01b8152600401602060405180830381865afa15801561050d573d6000803e3d6000fd5b505050506040513d601f19601f820116820180604052508101906105319190610f2f565b905061053d8183610f5e565b9250505090565b7fbc4aa291e35c786eceb374be398429586e466107044903c4dff7a8687a53007061056e81610c0d565b600061057861043c565b6003546005546040516340c10f1960e01b81526001600160a01b0391821660048201526024810187905292935016906340c10f1990604401600060405180830381600087803b1580156105ca57600080fd5b505af11580156105de573d6000803e3d6000fd5b5050505060006105ec61043c565b905081811461061d5760405163353d06cf60e21b815260048101839052602481018290526044015b60405180910390fd5b50505050565b60008281526020819052604090206001015461063e81610c0d565b61061d8383610c1a565b60048054604080516306a61f7560e51b8152905160009384936001600160a01b03169263d4c3eea092818301926020928290030181865afa158015610691573d6000803e3d6000fd5b505050506040513d601f19601f820116820180604052508101906106b59190610f2f565b90506106c081610ad1565b91505090565b6001600160a01b03811633146106ef5760405163334bd91960e11b815260040160405180910390fd5b6106f98282610cac565b505050565b6000826001600160a01b031663313ce5676040518163ffffffff1660e01b8152600401602060405180830381865afa15801561073e573d6000803e3d6000fd5b505050506040513d601f19601f820116820180604052508101906107629190610f71565b9050600061077182600a611078565b60015460405163b3596f0760e01b81526001600160a01b0387811660048301528892169063b3596f0790602401602060405180830381865afa1580156107bb573d6000803e3d6000fd5b505050506040513d601f19601f820116820180604052508101906107df9190610f2f565b6107e99190611087565b6107f3919061109e565b9050600061080082610ad1565b90508381101561082d57604051633b5d56ed60e11b81526004810185905260248101829052604401610614565b600454610849906001600160a01b038781169133911689610d17565b6003546040516340c10f1960e01b8152336004820152602481018390526001600160a01b03909116906340c10f1990604401600060405180830381600087803b15801561089557600080fd5b505af11580156108a9573d6000803e3d6000fd5b50505050505050505050565b60006108c081610c0d565b50600255565b60006108d181610c0d565b600480546001600160a01b0319166001600160a01b0384169081179091556040517fc92ec24b34ad9d3aa14cd5be87b888d7790d40903da5f44c6367b2fb6cdb208390600090a25050565b600061092781610c0d565b600254826001600160a01b0316638c89b64f6040518163ffffffff1660e01b8152600401602060405180830381865afa158015610968573d6000803e3d6000fd5b505050506040513d601f19601f8201168201806040525081019061098c9190610f2f565b146109b057600254604051639b6812b960e01b815260040161061491815260200190565b600180546001600160a01b0319166001600160a01b0384169081179091556040517f3f32684a32a11dabdbb8c0177de80aa3ae36a004d75210335b49e544e48cd0aa90600090a25050565b6000918252602082815260408084206001600160a01b0393909316845291905290205460ff1690565b6000610a2f81610c0d565b600580546001600160a01b0319166001600160a01b038416179055610a747fbc4aa291e35c786eceb374be398429586e466107044903c4dff7a8687a53007083610623565b6040516001600160a01b038316907fc1ed2a2e76938d5535836b1406331936bd2440c622b1314c8459f98a5065577b90600090a25050565b600082815260208190526040902060010154610ac781610c0d565b61061d8383610cac565b60007f0000000000000000000000000000000000000000000000000000000000000000610b1f7f0000000000000000000000000000000000000000000000000000000000000000600a611078565b610b299084611087565b610436919061109e565b7f5e1c59076ed40a2f2d7578e32a78795e357500600174cc5627a8953d15511722610b5d81610c0d565b6003546040516340c10f1960e01b81526001600160a01b03858116600483015260248201859052909116906340c10f1990604401600060405180830381600087803b158015610bab57600080fd5b505af1158015610bbf573d6000803e3d6000fd5b505050506000610bcd61043c565b90506000610bd9610648565b905081811015610c06576040516379f1a2a760e01b81526004810182905260248101839052604401610614565b5050505050565b610c178133610d71565b50565b6000610c2683836109fb565b610ca4576000838152602081815260408083206001600160a01b03861684529091529020805460ff19166001179055610c5c3390565b6001600160a01b0316826001600160a01b0316847f2f8788117e7eff1d82e926ec794901d17c78024a50270940304540a733656f0d60405160405180910390a4506001610436565b506000610436565b6000610cb883836109fb565b15610ca4576000838152602081815260408083206001600160a01b0386168085529252808320805460ff1916905551339286917ff6391f5c32d9c69d2a47ea670b442974b53935d1edc7fd64eb21e047a839171b9190a4506001610436565b604080516001600160a01b0385811660248301528416604482015260648082018490528251808303909101815260849091019091526020810180516001600160e01b03166323b872dd60e01b17905261061d908590610dae565b610d7b82826109fb565b610daa5760405163e2517d3f60e01b81526001600160a01b038216600482015260248101839052604401610614565b5050565b600080602060008451602086016000885af180610dd1576040513d6000823e3d81fd5b50506000513d91508115610de9578060011415610df6565b6001600160a01b0384163b155b1561061d57604051635274afe760e01b81526001600160a01b0385166004820152602401610614565b600060208284031215610e3157600080fd5b81356001600160e01b031981168114610e4957600080fd5b9392505050565b600060208284031215610e6257600080fd5b5035919050565b6001600160a01b0381168114610c1757600080fd5b60008060408385031215610e9157600080fd5b823591506020830135610ea381610e69565b809150509250929050565b600080600060608486031215610ec357600080fd5b833592506020840135610ed581610e69565b929592945050506040919091013590565b600060208284031215610ef857600080fd5b8135610e4981610e69565b60008060408385031215610f1657600080fd5b8235610f2181610e69565b946020939093013593505050565b600060208284031215610f4157600080fd5b5051919050565b634e487b7160e01b600052601160045260246000fd5b8181038181111561043657610436610f48565b600060208284031215610f8357600080fd5b815160ff81168114610e4957600080fd5b600181815b80851115610fcf578160001904821115610fb557610fb5610f48565b80851615610fc257918102915b93841c9390800290610f99565b509250929050565b600082610fe657506001610436565b81610ff357506000610436565b816001811461100957600281146110135761102f565b6001915050610436565b60ff84111561102457611024610f48565b50506001821b610436565b5060208310610133831016604e8410600b8410161715611052575081810a610436565b61105c8383610f94565b806000190482111561107057611070610f48565b029392505050565b6000610e4960ff841683610fd7565b808202811582820484141761043657610436610f48565b6000826110bb57634e487b7160e01b600052601260045260246000fd5b50049056fea264697066735822122076984262299da1f60137cc443c88029979c18dbc76162639506e1c1cb0bedfa964736f6c63430008140033",
  "devdoc": {
    "errors": {
      "AccessControlBadConfirmation()": [
        {
          "details": "The caller of a function is not the expected one. NOTE: Don't confuse with {AccessControlUnauthorizedAccount}."
        }
      ],
      "AccessControlUnauthorizedAccount(address,bytes32)": [
        {
          "details": "The `account` is missing a role."
        }
      ],
      "SafeERC20FailedOperation(address)": [
        {
          "details": "An operation with an ERC-20 token failed."
        }
      ]
    },
    "events": {
      "RoleAdminChanged(bytes32,bytes32,bytes32)": {
        "details": "Emitted when `newAdminRole` is set as ``role``'s admin role, replacing `previousAdminRole` `DEFAULT_ADMIN_ROLE` is the starting admin for all roles, despite {RoleAdminChanged} not being emitted signaling this."
      },
      "RoleGranted(bytes32,address,address)": {
        "details": "Emitted when `account` is granted `role`. `sender` is the account that originated the contract call. This account bears the admin role (for the granted role). Expected in cases where the role was granted using the internal {AccessControl-_grantRole}."
      },
      "RoleRevoked(bytes32,address,address)": {
        "details": "Emitted when `account` is revoked `role`. `sender` is the account that originated the contract call:   - if using `revokeRole`, it is the admin role bearer   - if using `renounceRole`, it is the role bearer (i.e. `account`)"
      }
    },
    "kind": "dev",
    "methods": {
      "baseValueToDstableAmount(uint256)": {
        "params": {
          "baseValue": "The amount of base value to convert"
        },
        "returns": {
          "_0": "The equivalent amount of dStable tokens"
        }
      },
      "circulatingDstable()": {
        "returns": {
          "_0": "The amount of dStable tokens that are not held by the AMO Manager"
        }
      },
      "collateralInDstable()": {
        "returns": {
          "_0": "The amount of dStable tokens equivalent to the collateral value"
        }
      },
      "constructor": {
        "params": {
          "_amoManager": "The address of the AMO Manager",
          "_collateralVault": "The address of the collateral vault",
          "_dstable": "The address of the dStable stablecoin",
          "oracle": "The address of the price oracle"
        }
      },
      "getRoleAdmin(bytes32)": {
        "details": "Returns the admin role that controls `role`. See {grantRole} and {revokeRole}. To change a role's admin, use {_setRoleAdmin}."
      },
      "grantRole(bytes32,address)": {
        "details": "Grants `role` to `account`. If `account` had not been already granted `role`, emits a {RoleGranted} event. Requirements: - the caller must have ``role``'s admin role. May emit a {RoleGranted} event."
      },
      "hasRole(bytes32,address)": {
        "details": "Returns `true` if `account` has been granted `role`."
      },
      "increaseAmoSupply(uint256)": {
        "params": {
          "dstableAmount": "The amount of dStable to mint and send to the AMO Manager"
        }
      },
      "issue(uint256,address,uint256)": {
        "params": {
          "collateralAmount": "The amount of collateral to deposit",
          "collateralAsset": "The address of the collateral asset",
          "minDStable": "The minimum amount of dStable to receive, used for slippage protection"
        }
      },
      "issueUsingExcessCollateral(address,uint256)": {
        "params": {
          "dstableAmount": "The amount of dStable to mint",
          "receiver": "The address to receive the minted dStable tokens"
        }
      },
      "renounceRole(bytes32,address)": {
        "details": "Revokes `role` from the calling account. Roles are often managed via {grantRole} and {revokeRole}: this function's purpose is to provide a mechanism for accounts to lose their privileges if they are compromised (such as when a trusted device is misplaced). If the calling account had been revoked `role`, emits a {RoleRevoked} event. Requirements: - the caller must be `callerConfirmation`. May emit a {RoleRevoked} event."
      },
      "revokeRole(bytes32,address)": {
        "details": "Revokes `role` from `account`. If `account` had been granted `role`, emits a {RoleRevoked} event. Requirements: - the caller must have ``role``'s admin role. May emit a {RoleRevoked} event."
      },
      "setAmoManager(address)": {
        "params": {
          "_amoManager": "The address of the AMO Manager"
        }
      },
      "setBaseCurrencyUnit(uint256)": {
        "details": "Only used if the oracle's base currency unit changes",
        "params": {
          "_newBaseCurrencyUnit": "The new base currency unit to set"
        }
      },
      "setCollateralVault(address)": {
        "params": {
          "_collateralVault": "The address of the collateral vault"
        }
      },
      "setOracle(address)": {
        "params": {
          "newOracle": "The new oracle to use"
        }
      },
      "supportsInterface(bytes4)": {
        "details": "See {IERC165-supportsInterface}."
      }
    },
    "title": "Issuer",
    "version": 1
  },
  "userdoc": {
    "kind": "user",
    "methods": {
      "baseValueToDstableAmount(uint256)": {
        "notice": "Converts a base value to an equivalent amount of dStable tokens"
      },
      "circulatingDstable()": {
        "notice": "Calculates the circulating supply of dStable tokens"
      },
      "collateralInDstable()": {
        "notice": "Calculates the collateral value in dStable tokens"
      },
      "constructor": {
        "notice": "Initializes the Issuer contract with core dependencies"
      },
      "increaseAmoSupply(uint256)": {
        "notice": "Increases the AMO supply by minting new dStable tokens"
      },
      "issue(uint256,address,uint256)": {
        "notice": "Issues dStable tokens in exchange for collateral from the caller"
      },
      "issueUsingExcessCollateral(address,uint256)": {
        "notice": "Issues dStable tokens using excess collateral in the system"
      },
      "setAmoManager(address)": {
        "notice": "Sets the AMO Manager address"
      },
      "setBaseCurrencyUnit(uint256)": {
        "notice": "Updates the base currency unit used for price calculations"
      },
      "setCollateralVault(address)": {
        "notice": "Sets the collateral vault address"
      },
      "setOracle(address)": {
        "notice": "Sets the oracle to use for collateral valuation"
      }
    },
    "notice": "Contract responsible for issuing dStable tokens",
    "version": 1
  },
  "storageLayout": {
    "storage": [
      {
        "astId": 26,
        "contract": "contracts/dstable/Issuer.sol:Issuer",
        "label": "_roles",
        "offset": 0,
        "slot": "0",
        "type": "t_mapping(t_bytes32,t_struct(RoleData)21_storage)"
      },
      {
        "astId": 6331,
        "contract": "contracts/dstable/Issuer.sol:Issuer",
        "label": "oracle",
        "offset": 0,
        "slot": "1",
        "type": "t_contract(IPriceOracleGetter)4068"
      },
      {
        "astId": 6333,
        "contract": "contracts/dstable/Issuer.sol:Issuer",
        "label": "baseCurrencyUnit",
        "offset": 0,
        "slot": "2",
        "type": "t_uint256"
      },
      {
        "astId": 5952,
        "contract": "contracts/dstable/Issuer.sol:Issuer",
        "label": "dstable",
        "offset": 0,
        "slot": "3",
        "type": "t_contract(IMintableERC20)4098"
      },
      {
        "astId": 5957,
        "contract": "contracts/dstable/Issuer.sol:Issuer",
        "label": "collateralVault",
        "offset": 0,
        "slot": "4",
        "type": "t_contract(CollateralVault)5931"
      },
      {
        "astId": 5960,
        "contract": "contracts/dstable/Issuer.sol:Issuer",
        "label": "amoManager",
        "offset": 0,
        "slot": "5",
        "type": "t_contract(AmoManager)4977"
      }
    ],
    "types": {
      "t_address": {
        "encoding": "inplace",
        "label": "address",
        "numberOfBytes": "20"
      },
      "t_bool": {
        "encoding": "inplace",
        "label": "bool",
        "numberOfBytes": "1"
      },
      "t_bytes32": {
        "encoding": "inplace",
        "label": "bytes32",
        "numberOfBytes": "32"
      },
      "t_contract(AmoManager)4977": {
        "encoding": "inplace",
        "label": "contract AmoManager",
        "numberOfBytes": "20"
      },
      "t_contract(CollateralVault)5931": {
        "encoding": "inplace",
        "label": "contract CollateralVault",
        "numberOfBytes": "20"
      },
      "t_contract(IMintableERC20)4098": {
        "encoding": "inplace",
        "label": "contract IMintableERC20",
        "numberOfBytes": "20"
      },
      "t_contract(IPriceOracleGetter)4068": {
        "encoding": "inplace",
        "label": "contract IPriceOracleGetter",
        "numberOfBytes": "20"
      },
      "t_mapping(t_address,t_bool)": {
        "encoding": "mapping",
        "key": "t_address",
        "label": "mapping(address => bool)",
        "numberOfBytes": "32",
        "value": "t_bool"
      },
      "t_mapping(t_bytes32,t_struct(RoleData)21_storage)": {
        "encoding": "mapping",
        "key": "t_bytes32",
        "label": "mapping(bytes32 => struct AccessControl.RoleData)",
        "numberOfBytes": "32",
        "value": "t_struct(RoleData)21_storage"
      },
      "t_struct(RoleData)21_storage": {
        "encoding": "inplace",
        "label": "struct AccessControl.RoleData",
        "members": [
          {
            "astId": 18,
            "contract": "contracts/dstable/Issuer.sol:Issuer",
            "label": "hasRole",
            "offset": 0,
            "slot": "0",
            "type": "t_mapping(t_address,t_bool)"
          },
          {
            "astId": 20,
            "contract": "contracts/dstable/Issuer.sol:Issuer",
            "label": "adminRole",
            "offset": 0,
            "slot": "1",
            "type": "t_bytes32"
          }
        ],
        "numberOfBytes": "64"
      },
      "t_uint256": {
        "encoding": "inplace",
        "label": "uint256",
        "numberOfBytes": "32"
      }
    }
  }
}