{
  "address": "0x35467925d77d58983F45A632B72CEA79fC14b4E9",
  "abi": [
    {
      "inputs": [
        {
          "internalType": "contract IPoolAddressesProvider",
          "name": "addressesProvider",
          "type": "address"
        },
        {
          "internalType": "address",
          "name": "pool",
          "type": "address"
        },
        {
          "internalType": "contract IOdosRouterV2",
          "name": "swapRouter",
          "type": "address"
        },
        {
          "internalType": "address",
          "name": "owner",
          "type": "address"
        }
      ],
      "stateMutability": "nonpayable",
      "type": "constructor"
    },
    {
      "inputs": [
        {
          "internalType": "address",
          "name": "caller",
          "type": "address"
        },
        {
          "internalType": "address",
          "name": "pool",
          "type": "address"
        }
      ],
      "name": "CallerMustBePool",
      "type": "error"
    },
    {
      "inputs": [
        {
          "internalType": "address",
          "name": "initiator",
          "type": "address"
        },
        {
          "internalType": "address",
          "name": "expectedInitiator",
          "type": "address"
        }
      ],
      "name": "InitiatorMustBeThis",
      "type": "error"
    },
    {
      "inputs": [
        {
          "internalType": "uint256",
          "name": "required",
          "type": "uint256"
        },
        {
          "internalType": "uint256",
          "name": "available",
          "type": "uint256"
        }
      ],
      "name": "InsufficientBalance",
      "type": "error"
    },
    {
      "inputs": [
        {
          "internalType": "uint256",
          "name": "balance",
          "type": "uint256"
        },
        {
          "internalType": "uint256",
          "name": "required",
          "type": "uint256"
        }
      ],
      "name": "InsufficientBalanceBeforeSwap",
      "type": "error"
    },
    {
      "inputs": [
        {
          "internalType": "uint256",
          "name": "expected",
          "type": "uint256"
        },
        {
          "internalType": "uint256",
          "name": "actual",
          "type": "uint256"
        }
      ],
      "name": "InsufficientOutput",
      "type": "error"
    },
    {
      "inputs": [
        {
          "internalType": "uint256",
          "name": "actual",
          "type": "uint256"
        },
        {
          "internalType": "uint256",
          "name": "expected",
          "type": "uint256"
        }
      ],
      "name": "InsufficientOutputAmount",
      "type": "error"
    },
    {
      "inputs": [
        {
          "internalType": "uint256",
          "name": "repayAmount",
          "type": "uint256"
        },
        {
          "internalType": "uint256",
          "name": "currentDebt",
          "type": "uint256"
        }
      ],
      "name": "InvalidDebtRepayAmount",
      "type": "error"
    },
    {
      "inputs": [],
      "name": "SwapFailed",
      "type": "error"
    },
    {
      "anonymous": false,
      "inputs": [
        {
          "indexed": true,
          "internalType": "address",
          "name": "tokenIn",
          "type": "address"
        },
        {
          "indexed": true,
          "internalType": "address",
          "name": "tokenOut",
          "type": "address"
        },
        {
          "indexed": false,
          "internalType": "uint256",
          "name": "amountIn",
          "type": "uint256"
        },
        {
          "indexed": false,
          "internalType": "uint256",
          "name": "amountOut",
          "type": "uint256"
        }
      ],
      "name": "Bought",
      "type": "event"
    },
    {
      "anonymous": false,
      "inputs": [
        {
          "indexed": true,
          "internalType": "address",
          "name": "previousOwner",
          "type": "address"
        },
        {
          "indexed": true,
          "internalType": "address",
          "name": "newOwner",
          "type": "address"
        }
      ],
      "name": "OwnershipTransferred",
      "type": "event"
    },
    {
      "inputs": [],
      "name": "ADDRESSES_PROVIDER",
      "outputs": [
        {
          "internalType": "contract IPoolAddressesProvider",
          "name": "",
          "type": "address"
        }
      ],
      "stateMutability": "view",
      "type": "function"
    },
    {
      "inputs": [],
      "name": "POOL",
      "outputs": [
        {
          "internalType": "contract IPool",
          "name": "",
          "type": "address"
        }
      ],
      "stateMutability": "view",
      "type": "function"
    },
    {
      "inputs": [],
      "name": "owner",
      "outputs": [
        {
          "internalType": "address",
          "name": "",
          "type": "address"
        }
      ],
      "stateMutability": "view",
      "type": "function"
    },
    {
      "inputs": [],
      "name": "renounceOwnership",
      "outputs": [],
      "stateMutability": "nonpayable",
      "type": "function"
    },
    {
      "inputs": [
        {
          "internalType": "contract IERC20",
          "name": "token",
          "type": "address"
        }
      ],
      "name": "rescueTokens",
      "outputs": [],
      "stateMutability": "nonpayable",
      "type": "function"
    },
    {
      "inputs": [],
      "name": "swapRouter",
      "outputs": [
        {
          "internalType": "contract IOdosRouterV2",
          "name": "",
          "type": "address"
        }
      ],
      "stateMutability": "view",
      "type": "function"
    },
    {
      "inputs": [
        {
          "internalType": "address",
          "name": "newOwner",
          "type": "address"
        }
      ],
      "name": "transferOwnership",
      "outputs": [],
      "stateMutability": "nonpayable",
      "type": "function"
    },
    {
      "inputs": [
        {
          "components": [
            {
              "internalType": "address",
              "name": "oldAsset",
              "type": "address"
            },
            {
              "internalType": "uint256",
              "name": "oldAssetAmount",
              "type": "uint256"
            },
            {
              "internalType": "address",
              "name": "newAsset",
              "type": "address"
            },
            {
              "internalType": "uint256",
              "name": "minAmountToReceive",
              "type": "uint256"
            },
            {
              "internalType": "address",
              "name": "user",
              "type": "address"
            },
            {
              "internalType": "bytes",
              "name": "swapData",
              "type": "bytes"
            }
          ],
          "internalType": "struct IOdosWithdrawSwapAdapter.WithdrawSwapParams",
          "name": "withdrawSwapParams",
          "type": "tuple"
        },
        {
          "components": [
            {
              "internalType": "contract IERC20WithPermit",
              "name": "aToken",
              "type": "address"
            },
            {
              "internalType": "uint256",
              "name": "value",
              "type": "uint256"
            },
            {
              "internalType": "uint256",
              "name": "deadline",
              "type": "uint256"
            },
            {
              "internalType": "uint8",
              "name": "v",
              "type": "uint8"
            },
            {
              "internalType": "bytes32",
              "name": "r",
              "type": "bytes32"
            },
            {
              "internalType": "bytes32",
              "name": "s",
              "type": "bytes32"
            }
          ],
          "internalType": "struct IBaseOdosAdapter.PermitInput",
          "name": "permitInput",
          "type": "tuple"
        }
      ],
      "name": "withdrawAndSwap",
      "outputs": [],
      "stateMutability": "nonpayable",
      "type": "function"
    }
  ],
  "transactionHash": "0xef9190594ee08000ededd48a9cf0a6adb44c02d779921642fa56f7f7ddf8f336",
  "args": [
    "0x1f8d8a3575d049aA0C195AA947483738811bAdcb",
    "0xEdC3cfB1aa36c570cc1D374876268bDda2D460CC",
    "0xaC041Df48dF9791B0654f1Dbbf2CC8450C5f2e9D",
    "0x51fc0830DBe3A446701E7897F32C89A3B04e5a0a"
  ],
  "numDeployments": 5,
  "solcInputHash": "8f8335870b3146cb02b1fb32bd5cb5c2",
  "bytecode": "0x60e03461016a57601f6112e338819003918201601f19168301916001600160401b0383118484101761016f5780849260809460405283398101031261016a578051906001600160a01b03808316830361016a5761005e60208301610185565b604083015192828416840361016a5760606100799101610185565b9160018060a01b0319926000948285875416947f8be0079c531659141344cd1fd0a4f28419497f9722a3daafe3b4186f6b6457e09833898b8180a36080521660a05260c052600180551691821561011657826040519533908680a3331617179055611149908161019a82396080518161017a015260a05181818161021c015281816109650152610d98015260c05181818161028a0152610bee0152f35b60405162461bcd60e51b815260206004820152602660248201527f4f776e61626c653a206e6577206f776e657220697320746865207a65726f206160448201526564647265737360d01b6064820152608490fd5b600080fd5b634e487b7160e01b600052604160045260246000fd5b51906001600160a01b038216820361016a5756fe6080604052600436101561001257600080fd5b6000803560e01c908162ae3bf814610099575080630542975c14610094578063715018a61461008f5780637535d2461461008a5780638da5cb5b14610085578063c31c9c0714610080578063e7464c841461007b5763f2fde38b1461007657600080fd5b6104ea565b61042f565b610274565b61024b565b610206565b6101a9565b610164565b346101405760203660031901126101405760246004356100b881610143565b82546001600160a01b03908116906020906100d43384146105c9565b6040516370a0823160e01b8152306004820152948591829086165afa91821561013b5761010893859361010b575b5061062f565b80f35b61012d91935060203d8111610134575b6101258183610320565b810190610614565b9185610102565b503d61011b565b610623565b80fd5b6001600160a01b0381160361015457565b600080fd5b600091031261015457565b34610154576000366003190112610154576040517f00000000000000000000000000000000000000000000000000000000000000006001600160a01b03168152602090f35b3461015457600080600319360112610140578054816001600160a01b0382166101d33382146105c9565b7f8be0079c531659141344cd1fd0a4f28419497f9722a3daafe3b4186f6b6457e08280a36001600160a01b031916815580f35b34610154576000366003190112610154576040517f00000000000000000000000000000000000000000000000000000000000000006001600160a01b03168152602090f35b34610154576000366003190112610154576000546040516001600160a01b039091168152602090f35b34610154576000366003190112610154576040517f00000000000000000000000000000000000000000000000000000000000000006001600160a01b03168152602090f35b634e487b7160e01b600052604160045260246000fd5b60c0810190811067ffffffffffffffff8211176102eb57604052565b6102b9565b67ffffffffffffffff81116102eb57604052565b6040810190811067ffffffffffffffff8211176102eb57604052565b90601f8019910116810190811067ffffffffffffffff8211176102eb57604052565b604051906101e0820182811067ffffffffffffffff8211176102eb57604052565b359061036e82610143565b565b67ffffffffffffffff81116102eb57601f01601f191660200190565b81601f82011215610154578035906103a382610370565b926103b16040519485610320565b8284526020838301011161015457816000926020809301838601378301015290565b60c090602319011261015457604051906103ec826102cf565b816024356103f981610143565b81526044356020820152606435604082015260843560ff8116810361015457606082015260a435608082015260a060c435910152565b346101545760031960e036820112610154576004359067ffffffffffffffff908183116101545760c0908336030112610154576040519061046f826102cf565b826004013561047d81610143565b82526024830135602083015261049560448401610363565b6040830152606483013560608301526104b060848401610363565b608083015260a4830135908111610154576104e89260046104d4923692010161038c565b60a08201526104e2366103d3565b90610867565b005b346101545760203660031901126101545760043561050781610143565b6000546001600160a01b0390811691906105223384146105c9565b81168015610575576104e8927f8be0079c531659141344cd1fd0a4f28419497f9722a3daafe3b4186f6b6457e0600080a360018060a01b03166bffffffffffffffffffffffff60a01b6000541617600055565b60405162461bcd60e51b815260206004820152602660248201527f4f776e61626c653a206e6577206f776e657220697320746865207a65726f206160448201526564647265737360d01b6064820152608490fd5b156105d057565b606460405162461bcd60e51b815260206004820152602060248201527f4f776e61626c653a2063616c6c6572206973206e6f7420746865206f776e65726044820152fd5b90816020910312610154575190565b6040513d6000823e3d90fd5b60405163a9059cbb60e01b60208201526001600160a01b0392909216602483015260448083019390935291815261036e9161066b606483610320565b6106e7565b90816020910312610154575180151581036101545790565b1561068f57565b60405162461bcd60e51b815260206004820152602a60248201527f5361666545524332303a204552433230206f7065726174696f6e20646964206e6044820152691bdd081cdd58d8d9595960b21b6064820152608490fd5b6040516001600160a01b03919091169161070082610304565b6020928383527f5361666545524332303a206c6f772d6c6576656c2063616c6c206661696c656484840152803b1561077757600082819282876107529796519301915af161074c6107bc565b906107ec565b8051908161075f57505050565b8261036e93610772938301019101610670565b610688565b60405162461bcd60e51b815260048101859052601d60248201527f416464726573733a2063616c6c20746f206e6f6e2d636f6e74726163740000006044820152606490fd5b3d156107e7573d906107cd82610370565b916107db6040519384610320565b82523d6000602084013e565b606090565b909190156107f8575090565b8151156108085750805190602001fd5b6040519062461bcd60e51b82528160208060048301528251908160248401526000935b82851061084e575050604492506000838284010152601f80199101168101030190fd5b848101820151868601604401529381019385935061082b565b600260015414610b3757600260015560018060a01b03808251169160808101918083511660209182840195865191604098898101519081610a7c575b5050806108af83610d6a565b8c516370a0823160e01b808252306004830152919094169690925090508783602481895afa96871561013b578893600098610a57575b50906108f391309088610c99565b8a5190815230600482015293849060249082905afa92831561013b5761096194869461092792600091610a3a575b50610c76565b8951631a4ca37b60e21b81526001600160a01b03909316600484015260248301523060448301529092839190829060009082906064820190565b03927f0000000000000000000000000000000000000000000000000000000000000000165af1801561013b57610a1396610a0d946109ff946109b8946109f194610a1c575b505080516109c4906001600160a01b03165b6001600160a01b031690565b91810180519098906109de906001600160a01b03166109b8565b90519060a0606084015193015193610b7c565b94516001600160a01b031690565b91516001600160a01b031690565b9061062f565b61036e60018055565b81610a3292903d10610134576101258183610320565b5038806109a6565b610a519150863d8811610134576101258183610320565b38610921565b6108f392919850610a7490853d8711610134576101258183610320565b9790916108e5565b8051610a90906001600160a01b03166109b8565b918782015192610aa4606084015160ff1690565b9360a06080850151940151823b15610154578e5163d505accf60e01b81526001600160a01b038b1660048201523060248201526044810192909252606482019390935260ff94909416608485015260a484019290925260c4830152600090829060e490829084905af1801561013b57610b1e575b806108a3565b80610b2b610b31926102f0565b80610159565b38610b18565b60405162461bcd60e51b815260206004820152601f60248201527f5265656e7472616e637947756172643a207265656e7472616e742063616c6c006044820152606490fd5b6040516370a0823160e01b815230600482015291959492936001600160a01b03918216939192602081602481885afa90811561013b57600091610c58575b50858110610c3757507fbf77fd13a39d14dc0da779342c14105c38d9a5d0c60f2caa22f5fd1d5525416d9291610c129186867f0000000000000000000000000000000000000000000000000000000000000000610f43565b95610c328760405193849316968360209093929193604081019481520152565b0390a3565b60405163b6554a4960e01b8152600481019190915260248101869052604490fd5b610c70915060203d8111610134576101258183610320565b38610bba565b91908203918211610c8357565b634e487b7160e01b600052601160045260246000fd5b6040516323b872dd60e01b60208201526001600160a01b03928316602482015292909116604483015260648083019390935291815260a081019181831067ffffffffffffffff8411176102eb5761036e926040526106e7565b9190826020910312610154576040516020810181811067ffffffffffffffff8211176102eb5760405291518252565b51906fffffffffffffffffffffffffffffffff8216820361015457565b519064ffffffffff8216820361015457565b519061ffff8216820361015457565b519061036e82610143565b6040516335ea6a7560e01b81526001600160a01b03918216600482015291906101e0908190849060249082907f0000000000000000000000000000000000000000000000000000000000000000165afa92831561013b57600093610e09575b50506101408201516001600160a01b0316610120830151909190610e0390610100906001600160a01b03169401516001600160a01b031690565b91929190565b909192823d8411610f3c575b610e1f8184610320565b820192828403126101405750610e3d610e36610342565b9282610cf2565b8252610e4b60208201610d21565b6020830152610e5c60408201610d21565b6040830152610e6d60608201610d21565b6060830152610e7e60808201610d21565b6080830152610e8f60a08201610d21565b60a0830152610ea060c08201610d3e565b60c0830152610eb160e08201610d50565b60e0830152610100610ec4818301610d5f565b90830152610120610ed6818301610d5f565b90830152610140610ee8818301610d5f565b90830152610160610efa818301610d5f565b90830152610180610f0c818301610d21565b908301526101a0610f1e818301610d21565b90830152610f306101c0809201610d21565b90820152903880610dc9565b503d610e15565b604080516370a0823160e01b8152306004808301919091529196919460209491936001600160a01b039283169392918686602481885afa95861561013b576000966110f4575b508086106110d157501690875191858380610fc763095ea7b360e01b98898352858c840160209093929193604081019460018060a01b031681520152565b03816000885af192831561013b57600087938192611022966110b4575b50848151910182855af193610ff76107bc565b9560008b5180968195829483528c83016020600091939293604081019460018060a01b031681520152565b03925af1801561013b57611087575b5015611069570151928284106110475750505090565b51630583371760e31b8152908101918252602082018390529081906040010390fd5b90818592519182611084575050505163081ceff360e41b8152fd5b01fd5b6110a690843d86116110ad575b61109e8183610320565b810190610670565b5038611031565b503d611094565b6110ca90863d88116110ad5761109e8183610320565b5038610fe4565b895163cf47918160e01b8152808901918252602082018790529081906040010390fd5b61110c919650873d8911610134576101258183610320565b9438610f8956fea26469706673582212204c27ad0ddcb57dbd11ae90a817a6be599634427ee6cc93537d0116c3f6309a9b64736f6c63430008140033",
  "devdoc": {
    "errors": {
      "CallerMustBePool(address,address)": [
        {
          "details": "Thrown when the caller is not the pool",
          "params": {
            "caller": "The actual caller",
            "pool": "The expected pool"
          }
        }
      ],
      "InitiatorMustBeThis(address,address)": [
        {
          "details": "Thrown when the initiator is not the expected initiator",
          "params": {
            "expectedInitiator": "The expected initiator",
            "initiator": "The actual initiator"
          }
        }
      ],
      "InsufficientBalanceBeforeSwap(uint256,uint256)": [
        {
          "details": "Thrown when the balance before swap is insufficient",
          "params": {
            "balance": "The actual balance",
            "required": "The required balance"
          }
        }
      ],
      "InsufficientOutputAmount(uint256,uint256)": [
        {
          "details": "Thrown when the output amount is less than the minimum expected",
          "params": {
            "actual": "The actual output amount",
            "expected": "The minimum expected output amount"
          }
        }
      ],
      "InvalidDebtRepayAmount(uint256,uint256)": [
        {
          "details": "Thrown when the debt repay amount is greater than the current debt",
          "params": {
            "currentDebt": "The current debt amount",
            "repayAmount": "The amount requested to repay"
          }
        }
      ]
    },
    "events": {
      "Bought(address,address,uint256,uint256)": {
        "details": "Emitted when a token is bought on Odos",
        "params": {
          "amountIn": "The amount of tokens sold",
          "amountOut": "The amount of tokens bought",
          "tokenIn": "The address of the token sold",
          "tokenOut": "The address of the token bought"
        }
      }
    },
    "kind": "dev",
    "methods": {
      "owner()": {
        "details": "Returns the address of the current owner."
      },
      "renounceOwnership()": {
        "details": "Leaves the contract without owner. It will not be possible to call `onlyOwner` functions anymore. Can only be called by the current owner. NOTE: Renouncing ownership will leave the contract without an owner, thereby removing any functionality that is only available to the owner."
      },
      "rescueTokens(address)": {
        "details": "Emergency rescue for token stucked on this contract, as failsafe mechanism - Funds should never remain in this contract more time than during transactions - Only callable by the owner"
      },
      "transferOwnership(address)": {
        "details": "Transfers ownership of the contract to a new account (`newOwner`). Can only be called by the current owner."
      },
      "withdrawAndSwap((address,uint256,address,uint256,address,bytes),(address,uint256,uint256,uint8,bytes32,bytes32))": {
        "params": {
          "permitInput": "optional permit for collateral aToken",
          "withdrawSwapParams": "struct describing the withdraw swap"
        }
      }
    },
    "title": "OdosWithdrawSwapAdapter",
    "version": 1
  },
  "userdoc": {
    "errors": {
      "InsufficientBalance(uint256,uint256)": [
        {
          "notice": "Custom error when contract balance is insufficient for the swap"
        }
      ],
      "InsufficientOutput(uint256,uint256)": [
        {
          "notice": "Custom error when actual output amount is less than expected"
        }
      ],
      "SwapFailed()": [
        {
          "notice": "Custom error for failed swap with no revert reason"
        }
      ]
    },
    "kind": "user",
    "methods": {
      "ADDRESSES_PROVIDER()": {
        "notice": "The address of the Aave PoolAddressesProvider contract"
      },
      "POOL()": {
        "notice": "The address of the Aave Pool contract"
      },
      "swapRouter()": {
        "notice": "The address of the Odos Router"
      },
      "withdrawAndSwap((address,uint256,address,uint256,address,bytes),(address,uint256,uint256,uint8,bytes32,bytes32))": {
        "notice": "Withdraws and swaps an asset that is supplied to the Aave Pool"
      }
    },
    "notice": "Adapter to swap then withdraw using Odos",
    "version": 1
  },
  "storageLayout": {
    "storage": [
      {
        "astId": 7108,
        "contract": "contracts/dlend/periphery/adapters/odos/OdosWithdrawSwapAdapter.sol:OdosWithdrawSwapAdapter",
        "label": "_owner",
        "offset": 0,
        "slot": "0",
        "type": "t_address"
      },
      {
        "astId": 11573,
        "contract": "contracts/dlend/periphery/adapters/odos/OdosWithdrawSwapAdapter.sol:OdosWithdrawSwapAdapter",
        "label": "_status",
        "offset": 0,
        "slot": "1",
        "type": "t_uint256"
      }
    ],
    "types": {
      "t_address": {
        "encoding": "inplace",
        "label": "address",
        "numberOfBytes": "20"
      },
      "t_uint256": {
        "encoding": "inplace",
        "label": "uint256",
        "numberOfBytes": "32"
      }
    }
  }
}