{
  "address": "0x43A11A26C078a94E28B0185Ce9272A1E1D4d07d6",
  "abi": [
    {
      "inputs": [
        {
          "internalType": "contract IPoolAddressesProvider",
          "name": "addressesProvider",
          "type": "address"
        },
        {
          "internalType": "address",
          "name": "pool",
          "type": "address"
        },
        {
          "internalType": "contract IOdosRouterV2",
          "name": "_swapRouter",
          "type": "address"
        },
        {
          "internalType": "address",
          "name": "owner",
          "type": "address"
        }
      ],
      "stateMutability": "nonpayable",
      "type": "constructor"
    },
    {
      "inputs": [
        {
          "internalType": "address",
          "name": "caller",
          "type": "address"
        },
        {
          "internalType": "address",
          "name": "pool",
          "type": "address"
        }
      ],
      "name": "CallerMustBePool",
      "type": "error"
    },
    {
      "inputs": [
        {
          "internalType": "uint256",
          "name": "estimated",
          "type": "uint256"
        },
        {
          "internalType": "uint256",
          "name": "maximum",
          "type": "uint256"
        }
      ],
      "name": "EstimatedAmountExceedsMaximum",
      "type": "error"
    },
    {
      "inputs": [
        {
          "internalType": "address",
          "name": "initiator",
          "type": "address"
        },
        {
          "internalType": "address",
          "name": "expectedInitiator",
          "type": "address"
        }
      ],
      "name": "InitiatorMustBeThis",
      "type": "error"
    },
    {
      "inputs": [
        {
          "internalType": "uint256",
          "name": "amountReceived",
          "type": "uint256"
        },
        {
          "internalType": "uint256",
          "name": "amountToRepay",
          "type": "uint256"
        }
      ],
      "name": "InsufficientAmountToRepay",
      "type": "error"
    },
    {
      "inputs": [
        {
          "internalType": "uint256",
          "name": "required",
          "type": "uint256"
        },
        {
          "internalType": "uint256",
          "name": "available",
          "type": "uint256"
        }
      ],
      "name": "InsufficientBalance",
      "type": "error"
    },
    {
      "inputs": [
        {
          "internalType": "uint256",
          "name": "balance",
          "type": "uint256"
        },
        {
          "internalType": "uint256",
          "name": "required",
          "type": "uint256"
        }
      ],
      "name": "InsufficientBalanceBeforeSwap",
      "type": "error"
    },
    {
      "inputs": [
        {
          "internalType": "uint256",
          "name": "expected",
          "type": "uint256"
        },
        {
          "internalType": "uint256",
          "name": "actual",
          "type": "uint256"
        }
      ],
      "name": "InsufficientOutput",
      "type": "error"
    },
    {
      "inputs": [
        {
          "internalType": "uint256",
          "name": "actual",
          "type": "uint256"
        },
        {
          "internalType": "uint256",
          "name": "expected",
          "type": "uint256"
        }
      ],
      "name": "InsufficientOutputAmount",
      "type": "error"
    },
    {
      "inputs": [
        {
          "internalType": "uint256",
          "name": "repayAmount",
          "type": "uint256"
        },
        {
          "internalType": "uint256",
          "name": "currentDebt",
          "type": "uint256"
        }
      ],
      "name": "InvalidDebtRepayAmount",
      "type": "error"
    },
    {
      "inputs": [],
      "name": "SwapFailed",
      "type": "error"
    },
    {
      "anonymous": false,
      "inputs": [
        {
          "indexed": true,
          "internalType": "address",
          "name": "tokenIn",
          "type": "address"
        },
        {
          "indexed": true,
          "internalType": "address",
          "name": "tokenOut",
          "type": "address"
        },
        {
          "indexed": false,
          "internalType": "uint256",
          "name": "amountIn",
          "type": "uint256"
        },
        {
          "indexed": false,
          "internalType": "uint256",
          "name": "amountOut",
          "type": "uint256"
        }
      ],
      "name": "Bought",
      "type": "event"
    },
    {
      "anonymous": false,
      "inputs": [
        {
          "indexed": true,
          "internalType": "address",
          "name": "previousOwner",
          "type": "address"
        },
        {
          "indexed": true,
          "internalType": "address",
          "name": "newOwner",
          "type": "address"
        }
      ],
      "name": "OwnershipTransferred",
      "type": "event"
    },
    {
      "inputs": [],
      "name": "ADDRESSES_PROVIDER",
      "outputs": [
        {
          "internalType": "contract IPoolAddressesProvider",
          "name": "",
          "type": "address"
        }
      ],
      "stateMutability": "view",
      "type": "function"
    },
    {
      "inputs": [],
      "name": "POOL",
      "outputs": [
        {
          "internalType": "contract IPool",
          "name": "",
          "type": "address"
        }
      ],
      "stateMutability": "view",
      "type": "function"
    },
    {
      "inputs": [],
      "name": "REFERRER",
      "outputs": [
        {
          "internalType": "uint16",
          "name": "",
          "type": "uint16"
        }
      ],
      "stateMutability": "view",
      "type": "function"
    },
    {
      "inputs": [
        {
          "internalType": "address[]",
          "name": "assets",
          "type": "address[]"
        },
        {
          "internalType": "uint256[]",
          "name": "amounts",
          "type": "uint256[]"
        },
        {
          "internalType": "uint256[]",
          "name": "premiums",
          "type": "uint256[]"
        },
        {
          "internalType": "address",
          "name": "initiator",
          "type": "address"
        },
        {
          "internalType": "bytes",
          "name": "params",
          "type": "bytes"
        }
      ],
      "name": "executeOperation",
      "outputs": [
        {
          "internalType": "bool",
          "name": "",
          "type": "bool"
        }
      ],
      "stateMutability": "nonpayable",
      "type": "function"
    },
    {
      "inputs": [],
      "name": "owner",
      "outputs": [
        {
          "internalType": "address",
          "name": "",
          "type": "address"
        }
      ],
      "stateMutability": "view",
      "type": "function"
    },
    {
      "inputs": [],
      "name": "renounceOwnership",
      "outputs": [],
      "stateMutability": "nonpayable",
      "type": "function"
    },
    {
      "inputs": [
        {
          "components": [
            {
              "internalType": "address",
              "name": "collateralAsset",
              "type": "address"
            },
            {
              "internalType": "uint256",
              "name": "collateralAmount",
              "type": "uint256"
            },
            {
              "internalType": "address",
              "name": "debtAsset",
              "type": "address"
            },
            {
              "internalType": "uint256",
              "name": "repayAmount",
              "type": "uint256"
            },
            {
              "internalType": "uint256",
              "name": "rateMode",
              "type": "uint256"
            },
            {
              "internalType": "bool",
              "name": "withFlashloan",
              "type": "bool"
            },
            {
              "internalType": "address",
              "name": "user",
              "type": "address"
            },
            {
              "internalType": "uint256",
              "name": "minAmountToReceive",
              "type": "uint256"
            },
            {
              "internalType": "bytes",
              "name": "swapData",
              "type": "bytes"
            }
          ],
          "internalType": "struct IOdosRepayAdapter.RepayParams",
          "name": "repayParams",
          "type": "tuple"
        },
        {
          "components": [
            {
              "internalType": "contract IERC20WithPermit",
              "name": "aToken",
              "type": "address"
            },
            {
              "internalType": "uint256",
              "name": "value",
              "type": "uint256"
            },
            {
              "internalType": "uint256",
              "name": "deadline",
              "type": "uint256"
            },
            {
              "internalType": "uint8",
              "name": "v",
              "type": "uint8"
            },
            {
              "internalType": "bytes32",
              "name": "r",
              "type": "bytes32"
            },
            {
              "internalType": "bytes32",
              "name": "s",
              "type": "bytes32"
            }
          ],
          "internalType": "struct IBaseOdosAdapter.PermitInput",
          "name": "collateralATokenPermit",
          "type": "tuple"
        }
      ],
      "name": "repayWithCollateral",
      "outputs": [],
      "stateMutability": "nonpayable",
      "type": "function"
    },
    {
      "inputs": [
        {
          "internalType": "contract IERC20",
          "name": "token",
          "type": "address"
        }
      ],
      "name": "rescueTokens",
      "outputs": [],
      "stateMutability": "nonpayable",
      "type": "function"
    },
    {
      "inputs": [],
      "name": "swapRouter",
      "outputs": [
        {
          "internalType": "contract IOdosRouterV2",
          "name": "",
          "type": "address"
        }
      ],
      "stateMutability": "view",
      "type": "function"
    },
    {
      "inputs": [
        {
          "internalType": "address",
          "name": "newOwner",
          "type": "address"
        }
      ],
      "name": "transferOwnership",
      "outputs": [],
      "stateMutability": "nonpayable",
      "type": "function"
    }
  ],
  "transactionHash": "0x6b7b3eff9756feaf71573f07c5a92cda95c62a8a6c2f5795fa0e36c6b3014110",
  "args": [
    "0x1f8d8a3575d049aA0C195AA947483738811bAdcb",
    "0xEdC3cfB1aa36c570cc1D374876268bDda2D460CC",
    "0xaC041Df48dF9791B0654f1Dbbf2CC8450C5f2e9D",
    "0x51fc0830DBe3A446701E7897F32C89A3B04e5a0a"
  ],
  "numDeployments": 7,
  "solcInputHash": "8f8335870b3146cb02b1fb32bd5cb5c2",
  "bytecode": "0x60e0346200019957601f6200207438819003918201601f19168301916001600160401b038311848410176200019e5780849260809460405283398101031262000199578051906001600160a01b03808316830362000199576200006560208301620001b4565b604083015192828416840362000199576060620000839101620001b4565b9160018060a01b0319926000948285875416947f8be0079c531659141344cd1fd0a4f28419497f9722a3daafe3b4186f6b6457e09833898b8180a36080521660a05260c05260018055169182156200014557826040519533908680a3331617179055611eaa9081620001ca8239608051816101de015260a05181818161028001528181610d9001528181610f590152818161136b015281816115ef015281816116e30152818161189c0152611b6e015260c05181818161042701526111960152f35b60405162461bcd60e51b815260206004820152602660248201527f4f776e61626c653a206e6577206f776e657220697320746865207a65726f206160448201526564647265737360d01b6064820152608490fd5b600080fd5b634e487b7160e01b600052604160045260246000fd5b51906001600160a01b0382168203620001995756fe6080604052600436101561001257600080fd5b6000803560e01c908162ae3bf8146100b9575080630542975c146100b4578063715018a6146100af5780637535d246146100aa5780638da5cb5b146100a5578063920f5c84146100a0578063c05603741461009b578063c31c9c0714610096578063d439bce4146100915763f2fde38b1461008c57600080fd5b610a08565b6107e9565b610411565b6103f4565b610342565b6102af565b61026a565b61020d565b6101c8565b346101a45760203660031901126101a45760246004356100d8816101a7565b82546001600160a01b0390811691906020906100f5338514610ae7565b6040516370a0823160e01b8152306004820152948591829085165afa91821561019f5761016893859361016b575b5060405163a9059cbb60e01b60208201526001600160a01b039091166024820152604481019290925261016382606481015b03601f19810184528361049f565b610bc1565b80f35b6101639193506101919060203d8111610198575b610189818361049f565b810190610b32565b9290610123565b503d61017f565b610b41565b80fd5b6001600160a01b038116036101b857565b600080fd5b60009103126101b857565b346101b85760003660031901126101b8576040517f00000000000000000000000000000000000000000000000000000000000000006001600160a01b03168152602090f35b346101b8576000806003193601126101a4578054816001600160a01b038216610237338214610ae7565b7f8be0079c531659141344cd1fd0a4f28419497f9722a3daafe3b4186f6b6457e08280a36001600160a01b031916815580f35b346101b85760003660031901126101b8576040517f00000000000000000000000000000000000000000000000000000000000000006001600160a01b03168152602090f35b346101b85760003660031901126101b8576000546040516001600160a01b039091168152602090f35b9181601f840112156101b8578235916001600160401b0383116101b8576020808501948460051b0101116101b857565b3590610313826101a7565b565b9181601f840112156101b8578235916001600160401b0383116101b857602083818601950101116101b857565b346101b85760a03660031901126101b8576001600160401b036004358181116101b8576103739036906004016102d8565b6024929192358281116101b85761038e9036906004016102d8565b6044949194358481116101b8576103a99036906004016102d8565b90606435926103b7846101a7565b6084359687116101b8576103f0976103d66103de983690600401610315565b979096610f47565b60405190151581529081906020820190565b0390f35b346101b85760003660031901126101b85760206040516134628152f35b346101b85760003660031901126101b8576040517f00000000000000000000000000000000000000000000000000000000000000006001600160a01b03168152602090f35b634e487b7160e01b600052604160045260246000fd5b6001600160401b03811161047f57604052565b610456565b604081019081106001600160401b0382111761047f57604052565b90601f801991011681019081106001600160401b0382111761047f57604052565b6040519061012082018281106001600160401b0382111761047f57604052565b604051906101e082018281106001600160401b0382111761047f57604052565b801515036101b857565b359061031382610500565b6001600160401b03811161047f57601f01601f191660200190565b81601f820112156101b85780359061054782610515565b92610555604051948561049f565b828452602083830101116101b857816000926020809301838601378301015290565b60c09060231901126101b8576040519060c082018281106001600160401b0382111761047f57604052816024356105ad816101a7565b81526044356020820152606435604082015260843560ff811681036101b857606082015260a435608082015260a060c435910152565b91908260c09103126101b85760405160c081018181106001600160401b0382111761047f5760405280928035610618816101a7565b82526020810135602083015260408101356040830152606081013560ff811681036101b85760a09182916060850152608081013560808501520135910152565b9060031960e0818401126101b8576004356001600160401b03918282116101b8576101209082860301126101b85761068e6104c0565b9061069b81600401610308565b8252602481013560208301526106b360448201610308565b604083015260648101356060830152608481013560808301526106d860a4820161050a565b60a08301526106e960c48201610308565b60c083015260e481013560e08301526101048101359283116101b85784600461072394610717930101610530565b61010082015292610577565b90565b919060e0838203126101b8576001600160401b039083358281116101b8578401610120818303126101b8576107596104c0565b61076282610308565b81526020820135602082015261077a60408301610308565b6040820152606082013560608201526080820135608082015261079f60a0830161050a565b60a08201526107b060c08301610308565b60c082015260e082013560e0820152610100808301359485116101b8576107de846107239660209501610530565b9082015294016105e3565b346101b8576107f736610658565b6002600154146109c35760026001556040820151610825906001600160a01b03165b6001600160a01b031690565b608083015160608401805160c0860180519094929361084f9392916001600160a01b031692611c03565b905260a083015115610870575061086591611afb565b61086e60018055565b005b825190919061088990610819906001600160a01b031681565b6040516370a0823160e01b80825230600483015260209391929091908490849060249082905afa92831561019f576000936109a0575b506108ca908661150e565b50845183906108e390610819906001600160a01b031681565b604051928352306004840152829060249082905afa92831561019f57600093610981575b505060009181811160001461097a576109209250610d60565b8061092e575b505050610865565b61096c61095e846109518461094c610972985160018060a01b031690565b610d72565b516001600160a01b031690565b92516001600160a01b031690565b9161188e565b388080610926565b5050610920565b610998929350803d1061019857610189818361049f565b903880610907565b6108ca9193506109bc90853d871161019857610189818361049f565b92906108bf565b60405162461bcd60e51b815260206004820152601f60248201527f5265656e7472616e637947756172643a207265656e7472616e742063616c6c006044820152606490fd5b346101b85760203660031901126101b857600435610a25816101a7565b6000546001600160a01b039081169190610a40338414610ae7565b81168015610a935761086e927f8be0079c531659141344cd1fd0a4f28419497f9722a3daafe3b4186f6b6457e0600080a360018060a01b03166bffffffffffffffffffffffff60a01b6000541617600055565b60405162461bcd60e51b815260206004820152602660248201527f4f776e61626c653a206e6577206f776e657220697320746865207a65726f206160448201526564647265737360d01b6064820152608490fd5b15610aee57565b606460405162461bcd60e51b815260206004820152602060248201527f4f776e61626c653a2063616c6c6572206973206e6f7420746865206f776e65726044820152fd5b908160209103126101b8575190565b6040513d6000823e3d90fd5b908160209103126101b8575161072381610500565b15610b6957565b60405162461bcd60e51b815260206004820152602a60248201527f5361666545524332303a204552433230206f7065726174696f6e20646964206e6044820152691bdd081cdd58d8d9595960b21b6064820152608490fd5b6040516001600160a01b039190911691610bda82610484565b6020928383527f5361666545524332303a206c6f772d6c6576656c2063616c6c206661696c656484840152803b15610c515760008281928287610c2c9796519301915af1610c26610c96565b90610d06565b80519081610c3957505050565b8261031393610c4c938301019101610b4d565b610b62565b60405162461bcd60e51b815260048101859052601d60248201527f416464726573733a2063616c6c20746f206e6f6e2d636f6e74726163740000006044820152606490fd5b3d15610cc1573d90610ca782610515565b91610cb5604051938461049f565b82523d6000602084013e565b606090565b919082519283825260005b848110610cf2575050826000602080949584010152601f8019910116010190565b602081830181015184830182015201610cd1565b90919015610d12575090565b815115610d225750805190602001fd5b60405162461bcd60e51b815260206004820152908190610d46906024830190610cc6565b0390fd5b634e487b7160e01b600052601160045260246000fd5b91908203918211610d6d57565b610d4a565b604051636eb1769f60e11b8082523060048301526001600160a01b037f0000000000000000000000000000000000000000000000000000000000000000811660248401819052919491931691602091908281604481875afa90811561019f57600091610e84575b5010610de6575b50505050565b6040519384523060048501526001600160a01b03831660248501528084604481855afa90811561019f57610e2a61016392610e5e96600091610e67575b5015610ea1565b60405163095ea7b360e01b918101919091526001600160a01b03909316602484015260001960448401528260648101610155565b38808080610de0565b610e7e9150833d851161019857610189818361049f565b38610e23565b610e9b9150833d851161019857610189818361049f565b38610dd9565b15610ea857565b60405162461bcd60e51b815260206004820152603660248201527f5361666545524332303a20617070726f76652066726f6d206e6f6e2d7a65726f60448201527520746f206e6f6e2d7a65726f20616c6c6f77616e636560501b6064820152608490fd5b634e487b7160e01b600052603260045260246000fd5b9015610f2b5790565b610f0c565b35610723816101a7565b91908201809211610d6d57565b9594929196909760018060a01b0395867f0000000000000000000000000000000000000000000000000000000000000000169687330361111d5730908216036110f4575091610fb3610fae610fa684610fc09796610fb9960190610726565b9b9099610f22565b610f30565b97610f22565b3592610f22565b835190359290610fd8906001600160a01b0316610819565b9560206110096040870198610ff66108198b5160018060a01b031690565b8660e08a0151916101008b015193611144565b885190969061102c906001600160a01b031699610951606084019b8c5190610d72565b98519360c06080830151920194600061104b875160018060a01b031690565b60405163573ade8160e01b81526001600160a01b039d8e1660048201526024810193909352604483019490945292909a1660648b015289916084918391905af194851561019f576110be6110b76110c5946110d19a6110cb996110d6575b50516001600160a01b031690565b9186610f3a565b908761128f565b50610f3a565b90610d72565b600190565b6110ed9060203d811161019857610189818361049f565b50386110a9565b60405163fdbc12a560e01b81526001600160a01b03919091166004820152306024820152604490fd5b6040516303c3463f60e31b81523360048201526001600160a01b0389166024820152604490fd5b6040516370a0823160e01b80825230600483015292969590946001600160a01b0392831694602092919083886024818a5afa97881561019f57600098611270575b5080881061124f57906111ba9291877f0000000000000000000000000000000000000000000000000000000000000000611ca4565b604051938452306004850152948184602481885afa90811561019f577fbf77fd13a39d14dc0da779342c14105c38d9a5d0c60f2caa22f5fd1d5525416d9461120b93600093611230575b5050610d60565b9561122b6040519283921695888360209093929193604081019481520152565b0390a3565b611247929350803d1061019857610189818361049f565b903880611204565b60405163b6554a4960e01b8152600481018990526024810191909152604490fd5b611288919850843d861161019857610189818361049f565b9638611185565b926040810151806113f8575b50506112a6836116b5565b6040516370a0823160e01b8082523060048301526020966001600160a01b0393841696955092935090918683602481895afa94851561019f5787936000966113d3575b50906112f7913090886114b6565b60405190815230600482015293849060249082905afa90811561019f5761132d85936113679360009687916113b6575b50610d60565b604051631a4ca37b60e21b81526001600160a01b039097166004880152602487018190523060448801529593849283919082906064820190565b03927f0000000000000000000000000000000000000000000000000000000000000000165af1801561019f5761139c57505090565b816113b292903d1061019857610189818361049f565b5090565b6113cd9150863d881161019857610189818361049f565b38611327565b6112f7929196506113f090853d871161019857610189818361049f565b9590916112e9565b815161140c906001600160a01b0316610819565b90602083015191611421606085015160ff1690565b9160a06080860151950151823b156101b85760405163d505accf60e01b81526001600160a01b03881660048201523060248201526044810195909552606485019190915260ff92909216608484015260a483019390935260c482015290600090829060e490829084905af1801561019f5761149d575b8061129b565b806114aa6114b09261046c565b806101bd565b38611497565b6040516323b872dd60e01b60208201526001600160a01b03928316602482015292909116604483015260648083019390935291815260a08101918183106001600160401b0384111761047f5761031392604052610bc1565b8051909190602090611540906001600160a01b031660c085018051909491906001600160a01b0316848701519161128f565b926115a161158861155a610819845160018060a01b031690565b604084018051909790611575906001600160a01b0316610819565b9060e08601519161010087015193611144565b85519095906109519087906001600160a01b0316610d72565b6060820151608090920151935160405163573ade8160e01b81526001600160a01b039283166004820152602481019390935260448301949094529092166064830152818060848101038160007f00000000000000000000000000000000000000000000000000000000000000006001600160a01b03165af1801561019f57611627575090565b6113b29060203d811161019857610189818361049f565b91908260209103126101b857604051602081018181106001600160401b0382111761047f5760405291518252565b51906fffffffffffffffffffffffffffffffff821682036101b857565b519064ffffffffff821682036101b857565b519061ffff821682036101b857565b5190610313826101a7565b6040516335ea6a7560e01b81526001600160a01b03918216600482015291906101e0908190849060249082907f0000000000000000000000000000000000000000000000000000000000000000165afa92831561019f57600093611754575b50506101408201516001600160a01b031661012083015190919061174e90610100906001600160a01b03169401516001600160a01b031690565b91929190565b909192823d8411611887575b61176a818461049f565b820192828403126101a457506117886117816104e0565b928261163e565b82526117966020820161166c565b60208301526117a76040820161166c565b60408301526117b86060820161166c565b60608301526117c96080820161166c565b60808301526117da60a0820161166c565b60a08301526117eb60c08201611689565b60c08301526117fc60e0820161169b565b60e083015261010061180f8183016116aa565b908301526101206118218183016116aa565b908301526101406118338183016116aa565b908301526101606118458183016116aa565b9083015261018061185781830161166c565b908301526101a061186981830161166c565b9083015261187b6101c080920161166c565b90820152903880611714565b503d611760565b9091906001600160a01b03907f0000000000000000000000000000000000000000000000000000000000000000821690813b156101b8576000608492848296604051988997889663617ba03760e01b8852166004870152602486015216604484015261346260648401525af1801561019f576119075750565b6103139061046c565b60e080825282516001600160a01b0316908201529291610313916020906119ae90808301516101008881019190915260408201516001600160a01b0316610120808a01919091529160608101516101408a015260808101516101608a015260a081015115156101808a015260c08101516001600160a01b03166101a08a015260e08101516101c08a01520151906101e0880152610200870190610cc6565b94019060a08091600180831b038151168452602081015160208501526040810151604085015260ff6060820151166060850152608081015160808501520151910152565b604051906119ff82610484565b6001825260203681840137565b805115610f2b5760200190565b90815180825260208080930193019160005b828110611a39575050505090565b835185529381019392810192600101611a2b565b969593929060e0880160018060a01b038092168952602060e0818b01528451809252806101008b019501926000905b838210611ae257505050505092611acc611aba611ad994611aac8560c0988c6040816103139d9a03910152611a19565b908a820360608c0152611a19565b6001600160a01b039093166080890152565b86820360a0880152610cc6565b93016134629052565b8451811687529582019593820193600190910190611a7c565b611b12610155926040519384918460208401611910565b611b1a6119f2565b8151611b41906001600160a01b0316611b3283611a0c565b6001600160a01b039091169052565b6020611b4b6119f2565b920151611b5783611a0c565b52611b606119f2565b6000611b6b82611a0c565b527f00000000000000000000000000000000000000000000000000000000000000006001600160a01b031690813b156101b85760008094611bc56040519788968795869463ab9c4b5d60e01b865230923060048801611a4d565b03925af1801561019f57611bd65750565b806114aa6103139261046c565b60031115611bed57565b634e487b7160e01b600052602160045260246000fd5b9192916020916001600160a01b0391602491600191611c239085166116b5565b50929091611c3081611be3565b611c3981611be3565b03611c9c5750935b6040516370a0823160e01b815290831660048201529384928391165afa90811561019f57600091611c7e575b50808211611c79575090565b905090565b611c96915060203d811161019857610189818361049f565b38611c6d565b905093611c41565b604080516370a0823160e01b8152306004808301919091529196919460209491936001600160a01b039283169392918686602481885afa95861561019f57600096611e55575b50808610611e3257501690875191858380611d2863095ea7b360e01b98898352858c840160209093929193604081019460018060a01b031681520152565b03816000885af192831561019f57600087938192611d8396611e15575b50848151910182855af193611d58610c96565b9560008b5180968195829483528c83016020600091939293604081019460018060a01b031681520152565b03925af1801561019f57611de8575b5015611dca57015192828410611da85750505090565b51630583371760e31b8152908101918252602082018390529081906040010390fd5b90818592519182611de5575050505163081ceff360e41b8152fd5b01fd5b611e0790843d8611611e0e575b611dff818361049f565b810190610b4d565b5038611d92565b503d611df5565b611e2b90863d8811611e0e57611dff818361049f565b5038611d45565b895163cf47918160e01b8152808901918252602082018790529081906040010390fd5b611e6d919650873d891161019857610189818361049f565b9438611cea56fea2646970667358221220a00bc606fe64212bedd73d83555e42969a5529a4a663e9b899595957618857cf64736f6c63430008140033",
  "devdoc": {
    "errors": {
      "CallerMustBePool(address,address)": [
        {
          "details": "Thrown when the caller is not the pool",
          "params": {
            "caller": "The actual caller",
            "pool": "The expected pool"
          }
        }
      ],
      "InitiatorMustBeThis(address,address)": [
        {
          "details": "Thrown when the initiator is not the expected initiator",
          "params": {
            "expectedInitiator": "The expected initiator",
            "initiator": "The actual initiator"
          }
        }
      ],
      "InsufficientAmountToRepay(uint256,uint256)": [
        {
          "details": "Custom error for insufficient amount to repay",
          "params": {
            "amountReceived": "The amount received from the swap",
            "amountToRepay": "The amount needed to repay"
          }
        }
      ],
      "InsufficientBalanceBeforeSwap(uint256,uint256)": [
        {
          "details": "Thrown when the balance before swap is insufficient",
          "params": {
            "balance": "The actual balance",
            "required": "The required balance"
          }
        }
      ],
      "InsufficientOutputAmount(uint256,uint256)": [
        {
          "details": "Thrown when the output amount is less than the minimum expected",
          "params": {
            "actual": "The actual output amount",
            "expected": "The minimum expected output amount"
          }
        }
      ],
      "InvalidDebtRepayAmount(uint256,uint256)": [
        {
          "details": "Thrown when the debt repay amount is greater than the current debt",
          "params": {
            "currentDebt": "The current debt amount",
            "repayAmount": "The amount requested to repay"
          }
        }
      ]
    },
    "events": {
      "Bought(address,address,uint256,uint256)": {
        "details": "Emitted when a token is bought on Odos",
        "params": {
          "amountIn": "The amount of tokens sold",
          "amountOut": "The amount of tokens bought",
          "tokenIn": "The address of the token sold",
          "tokenOut": "The address of the token bought"
        }
      }
    },
    "kind": "dev",
    "methods": {
      "executeOperation(address[],uint256[],uint256[],address,bytes)": {
        "details": "Executes the repay with collateral after receiving the flash-borrowed assetsWorkflow: 1. Buy debt asset by providing the flash-borrowed assets in exchange 2. Repay debt 3. Pull aToken collateral from user and withdraw from Pool 4. Repay flashloan",
        "params": {
          "amounts": "The amounts of the flash-borrowed assets",
          "assets": "The addresses of the flash-borrowed assets",
          "initiator": "The address of the flashloan initiator",
          "params": "The byte-encoded params passed when initiating the flashloan",
          "premiums": "The premiums of the flash-borrowed assets"
        },
        "returns": {
          "_0": "True if the execution of the operation succeeds, false otherwise"
        }
      },
      "owner()": {
        "details": "Returns the address of the current owner."
      },
      "renounceOwnership()": {
        "details": "Leaves the contract without owner. It will not be possible to call `onlyOwner` functions anymore. Can only be called by the current owner. NOTE: Renouncing ownership will leave the contract without an owner, thereby removing any functionality that is only available to the owner."
      },
      "repayWithCollateral((address,uint256,address,uint256,uint256,bool,address,uint256,bytes),(address,uint256,uint256,uint8,bytes32,bytes32))": {
        "params": {
          "collateralATokenPermit": "optional permit for collateral aToken",
          "repayParams": "struct describing the repay with collateral swap"
        }
      },
      "rescueTokens(address)": {
        "details": "Emergency rescue for token stucked on this contract, as failsafe mechanism - Funds should never remain in this contract more time than during transactions - Only callable by the owner"
      },
      "transferOwnership(address)": {
        "details": "Transfers ownership of the contract to a new account (`newOwner`). Can only be called by the current owner."
      }
    },
    "title": "OdosRepayAdapter",
    "version": 1
  },
  "userdoc": {
    "errors": {
      "InsufficientBalance(uint256,uint256)": [
        {
          "notice": "Custom error when contract balance is insufficient for the swap"
        }
      ],
      "InsufficientOutput(uint256,uint256)": [
        {
          "notice": "Custom error when actual output amount is less than expected"
        }
      ],
      "SwapFailed()": [
        {
          "notice": "Custom error for failed swap with no revert reason"
        }
      ]
    },
    "kind": "user",
    "methods": {
      "ADDRESSES_PROVIDER()": {
        "notice": "The address of the Aave PoolAddressesProvider contract"
      },
      "POOL()": {
        "notice": "The address of the Aave Pool contract"
      },
      "repayWithCollateral((address,uint256,address,uint256,uint256,bool,address,uint256,bytes),(address,uint256,uint256,uint8,bytes32,bytes32))": {
        "notice": "Repays with collateral by swapping the collateral asset to debt asset"
      },
      "swapRouter()": {
        "notice": "The address of the Odos Router"
      }
    },
    "notice": "Implements the logic for repaying a debt using a different asset as source",
    "version": 1
  },
  "storageLayout": {
    "storage": [
      {
        "astId": 7108,
        "contract": "contracts/dlend/periphery/adapters/odos/OdosRepayAdapter.sol:OdosRepayAdapter",
        "label": "_owner",
        "offset": 0,
        "slot": "0",
        "type": "t_address"
      },
      {
        "astId": 11573,
        "contract": "contracts/dlend/periphery/adapters/odos/OdosRepayAdapter.sol:OdosRepayAdapter",
        "label": "_status",
        "offset": 0,
        "slot": "1",
        "type": "t_uint256"
      }
    ],
    "types": {
      "t_address": {
        "encoding": "inplace",
        "label": "address",
        "numberOfBytes": "20"
      },
      "t_uint256": {
        "encoding": "inplace",
        "label": "uint256",
        "numberOfBytes": "32"
      }
    }
  }
}