{
  "address": "0x82a0687201C9594814406f581dbE3475EB865F2D",
  "abi": [
    {
      "inputs": [
        {
          "internalType": "contract IPoolAddressesProvider",
          "name": "addressesProvider",
          "type": "address"
        },
        {
          "internalType": "address",
          "name": "pool",
          "type": "address"
        },
        {
          "internalType": "contract IOdosRouterV2",
          "name": "_swapRouter",
          "type": "address"
        },
        {
          "internalType": "address",
          "name": "owner",
          "type": "address"
        }
      ],
      "stateMutability": "nonpayable",
      "type": "constructor"
    },
    {
      "inputs": [
        {
          "internalType": "address",
          "name": "caller",
          "type": "address"
        },
        {
          "internalType": "address",
          "name": "pool",
          "type": "address"
        }
      ],
      "name": "CallerMustBePool",
      "type": "error"
    },
    {
      "inputs": [
        {
          "internalType": "uint256",
          "name": "estimated",
          "type": "uint256"
        },
        {
          "internalType": "uint256",
          "name": "maximum",
          "type": "uint256"
        }
      ],
      "name": "EstimatedAmountExceedsMaximum",
      "type": "error"
    },
    {
      "inputs": [
        {
          "internalType": "address",
          "name": "initiator",
          "type": "address"
        },
        {
          "internalType": "address",
          "name": "expectedInitiator",
          "type": "address"
        }
      ],
      "name": "InitiatorMustBeThis",
      "type": "error"
    },
    {
      "inputs": [
        {
          "internalType": "uint256",
          "name": "required",
          "type": "uint256"
        },
        {
          "internalType": "uint256",
          "name": "available",
          "type": "uint256"
        }
      ],
      "name": "InsufficientBalance",
      "type": "error"
    },
    {
      "inputs": [
        {
          "internalType": "uint256",
          "name": "balance",
          "type": "uint256"
        },
        {
          "internalType": "uint256",
          "name": "required",
          "type": "uint256"
        }
      ],
      "name": "InsufficientBalanceBeforeSwap",
      "type": "error"
    },
    {
      "inputs": [
        {
          "internalType": "uint256",
          "name": "expected",
          "type": "uint256"
        },
        {
          "internalType": "uint256",
          "name": "actual",
          "type": "uint256"
        }
      ],
      "name": "InsufficientOutput",
      "type": "error"
    },
    {
      "inputs": [
        {
          "internalType": "uint256",
          "name": "actual",
          "type": "uint256"
        },
        {
          "internalType": "uint256",
          "name": "expected",
          "type": "uint256"
        }
      ],
      "name": "InsufficientOutputAmount",
      "type": "error"
    },
    {
      "inputs": [
        {
          "internalType": "uint256",
          "name": "repayAmount",
          "type": "uint256"
        },
        {
          "internalType": "uint256",
          "name": "currentDebt",
          "type": "uint256"
        }
      ],
      "name": "InvalidDebtRepayAmount",
      "type": "error"
    },
    {
      "inputs": [],
      "name": "SwapFailed",
      "type": "error"
    },
    {
      "anonymous": false,
      "inputs": [
        {
          "indexed": true,
          "internalType": "address",
          "name": "tokenIn",
          "type": "address"
        },
        {
          "indexed": true,
          "internalType": "address",
          "name": "tokenOut",
          "type": "address"
        },
        {
          "indexed": false,
          "internalType": "uint256",
          "name": "amountIn",
          "type": "uint256"
        },
        {
          "indexed": false,
          "internalType": "uint256",
          "name": "amountOut",
          "type": "uint256"
        }
      ],
      "name": "Bought",
      "type": "event"
    },
    {
      "anonymous": false,
      "inputs": [
        {
          "indexed": true,
          "internalType": "address",
          "name": "previousOwner",
          "type": "address"
        },
        {
          "indexed": true,
          "internalType": "address",
          "name": "newOwner",
          "type": "address"
        }
      ],
      "name": "OwnershipTransferred",
      "type": "event"
    },
    {
      "inputs": [],
      "name": "ADDRESSES_PROVIDER",
      "outputs": [
        {
          "internalType": "contract IPoolAddressesProvider",
          "name": "",
          "type": "address"
        }
      ],
      "stateMutability": "view",
      "type": "function"
    },
    {
      "inputs": [],
      "name": "POOL",
      "outputs": [
        {
          "internalType": "contract IPool",
          "name": "",
          "type": "address"
        }
      ],
      "stateMutability": "view",
      "type": "function"
    },
    {
      "inputs": [],
      "name": "REFERRER",
      "outputs": [
        {
          "internalType": "uint16",
          "name": "",
          "type": "uint16"
        }
      ],
      "stateMutability": "view",
      "type": "function"
    },
    {
      "inputs": [
        {
          "internalType": "address[]",
          "name": "assets",
          "type": "address[]"
        },
        {
          "internalType": "uint256[]",
          "name": "amounts",
          "type": "uint256[]"
        },
        {
          "internalType": "uint256[]",
          "name": "premiums",
          "type": "uint256[]"
        },
        {
          "internalType": "address",
          "name": "initiator",
          "type": "address"
        },
        {
          "internalType": "bytes",
          "name": "params",
          "type": "bytes"
        }
      ],
      "name": "executeOperation",
      "outputs": [
        {
          "internalType": "bool",
          "name": "",
          "type": "bool"
        }
      ],
      "stateMutability": "nonpayable",
      "type": "function"
    },
    {
      "inputs": [],
      "name": "owner",
      "outputs": [
        {
          "internalType": "address",
          "name": "",
          "type": "address"
        }
      ],
      "stateMutability": "view",
      "type": "function"
    },
    {
      "inputs": [],
      "name": "renounceOwnership",
      "outputs": [],
      "stateMutability": "nonpayable",
      "type": "function"
    },
    {
      "inputs": [
        {
          "internalType": "contract IERC20",
          "name": "token",
          "type": "address"
        }
      ],
      "name": "rescueTokens",
      "outputs": [],
      "stateMutability": "nonpayable",
      "type": "function"
    },
    {
      "inputs": [
        {
          "components": [
            {
              "internalType": "address",
              "name": "debtAsset",
              "type": "address"
            },
            {
              "internalType": "uint256",
              "name": "debtRepayAmount",
              "type": "uint256"
            },
            {
              "internalType": "uint256",
              "name": "debtRateMode",
              "type": "uint256"
            },
            {
              "internalType": "address",
              "name": "newDebtAsset",
              "type": "address"
            },
            {
              "internalType": "uint256",
              "name": "maxNewDebtAmount",
              "type": "uint256"
            },
            {
              "internalType": "address",
              "name": "extraCollateralAsset",
              "type": "address"
            },
            {
              "internalType": "uint256",
              "name": "extraCollateralAmount",
              "type": "uint256"
            },
            {
              "internalType": "bytes",
              "name": "swapData",
              "type": "bytes"
            }
          ],
          "internalType": "struct IOdosDebtSwapAdapter.DebtSwapParams",
          "name": "debtSwapParams",
          "type": "tuple"
        },
        {
          "components": [
            {
              "internalType": "address",
              "name": "debtToken",
              "type": "address"
            },
            {
              "internalType": "uint256",
              "name": "value",
              "type": "uint256"
            },
            {
              "internalType": "uint256",
              "name": "deadline",
              "type": "uint256"
            },
            {
              "internalType": "uint8",
              "name": "v",
              "type": "uint8"
            },
            {
              "internalType": "bytes32",
              "name": "r",
              "type": "bytes32"
            },
            {
              "internalType": "bytes32",
              "name": "s",
              "type": "bytes32"
            }
          ],
          "internalType": "struct IOdosDebtSwapAdapter.CreditDelegationInput",
          "name": "creditDelegationPermit",
          "type": "tuple"
        },
        {
          "components": [
            {
              "internalType": "contract IERC20WithPermit",
              "name": "aToken",
              "type": "address"
            },
            {
              "internalType": "uint256",
              "name": "value",
              "type": "uint256"
            },
            {
              "internalType": "uint256",
              "name": "deadline",
              "type": "uint256"
            },
            {
              "internalType": "uint8",
              "name": "v",
              "type": "uint8"
            },
            {
              "internalType": "bytes32",
              "name": "r",
              "type": "bytes32"
            },
            {
              "internalType": "bytes32",
              "name": "s",
              "type": "bytes32"
            }
          ],
          "internalType": "struct IBaseOdosAdapter.PermitInput",
          "name": "collateralATokenPermit",
          "type": "tuple"
        }
      ],
      "name": "swapDebt",
      "outputs": [],
      "stateMutability": "nonpayable",
      "type": "function"
    },
    {
      "inputs": [],
      "name": "swapRouter",
      "outputs": [
        {
          "internalType": "contract IOdosRouterV2",
          "name": "",
          "type": "address"
        }
      ],
      "stateMutability": "view",
      "type": "function"
    },
    {
      "inputs": [
        {
          "internalType": "address",
          "name": "newOwner",
          "type": "address"
        }
      ],
      "name": "transferOwnership",
      "outputs": [],
      "stateMutability": "nonpayable",
      "type": "function"
    }
  ],
  "transactionHash": "0xd1c69c71b76699d572d0fa19b56bd568a8642bcc929efa090a553590b90a031b",
  "args": [
    "0x1f8d8a3575d049aA0C195AA947483738811bAdcb",
    "0xEdC3cfB1aa36c570cc1D374876268bDda2D460CC",
    "0xaC041Df48dF9791B0654f1Dbbf2CC8450C5f2e9D",
    "0x51fc0830DBe3A446701E7897F32C89A3B04e5a0a"
  ],
  "numDeployments": 6,
  "solcInputHash": "8f8335870b3146cb02b1fb32bd5cb5c2",
  "bytecode": "0x60e060405234620000c55760806200293a80380380916200002082620000e0565b60e03912620000c5576200007060e0516200003b816200014d565b610100516200004a816200014d565b61012051906200005a826200014d565b61014051926200006a846200014d565b6200024c565b60405161212b9081620007ef8239608051816101de015260a05181818161058b01528181610dbb015281816110b3015281816113920152818161173301526119a7015260c05181818161078b0152611e160152f35b600080fd5b634e487b7160e01b600052604160045260246000fd5b60e0601f91909101601f19168101906001600160401b038211908210176200010757604052565b620000ca565b604081019081106001600160401b038211176200010757604052565b601f909101601f19168101906001600160401b038211908210176200010757604052565b6001600160a01b03811603620000c557565b906020908183820312620000c55782516001600160401b0393848211620000c5570181601f82011215620000c557805193841162000107578360051b9060405194620001ae8584018762000129565b85528380860192820101928311620000c5578301905b828210620001d3575050505090565b8380918351620001e3816200014d565b815201910190620001c4565b6040513d6000823e3d90fd5b60001981146200020b5760010190565b634e487b7160e01b600052601160045260246000fd5b8051821015620002365760209160051b010190565b634e487b7160e01b600052603260045260246000fd5b60049193926000913360018060a01b031984541617835533836000805160206200291a8339815191528180a360805260a09460018060a01b0316855260c0526200029b60019384805562000384565b83518190620002ba906001600160a01b03165b6001600160a01b031690565b6040516334651b6f60e21b815293849182905afa9182156200037e57819262000355575b50825b620002ed575b50505050565b81518110156200034f57806200034262000325620002ae620002ae6200031862000348968862000221565b516001600160a01b031690565b86516200033b906001600160a01b0316620002ae565b90620004fd565b620001fb565b82620002e1565b620002e7565b620003769192503d8084833e6200036d818362000129565b8101906200015f565b9038620002de565b620001ef565b6000546001600160a01b039081169190338303620004365781168015620003e257620003e0926000805160206200291a833981519152600080a3600080546001600160a01b0319166001600160a01b0392909216919091179055565b565b60405162461bcd60e51b815260206004820152602660248201527f4f776e61626c653a206e6577206f776e657220697320746865207a65726f206160448201526564647265737360d01b6064820152608490fd5b606460405162461bcd60e51b815260206004820152602060248201527f4f776e61626c653a2063616c6c6572206973206e6f7420746865206f776e65726044820152fd5b90816020910312620000c5575190565b156200049257565b60405162461bcd60e51b815260206004820152603660248201527f5361666545524332303a20617070726f76652066726f6d206e6f6e2d7a65726f60448201527f20746f206e6f6e2d7a65726f20616c6c6f77616e6365000000000000000000006064820152608490fd5b60405190636eb1769f60e11b825230600483015260208260448160018060a01b03808816602483015285165afa80156200037e57620003e09362000555620005969262000587956000916200059c575b50156200048a565b60405163095ea7b360e01b60208201526001600160a01b03909116602482015260001960448201529283906064820190565b03601f19810184528362000129565b6200064b565b620005c2915060203d8111620005c9575b620005b9818362000129565b8101906200047a565b386200054d565b503d620005ad565b90816020910312620000c557518015158103620000c55790565b15620005f357565b60405162461bcd60e51b815260206004820152602a60248201527f5361666545524332303a204552433230206f7065726174696f6e20646964206e6044820152691bdd081cdd58d8d9595960b21b6064820152608490fd5b6040516001600160a01b03919091169162000666826200010d565b6020928383527f5361666545524332303a206c6f772d6c6576656c2063616c6c206661696c656484840152803b15620006e75760008281928287620006bd9796519301915af1620006b66200072c565b906200076f565b80519081620006cb57505050565b82620003e093620006e1938301019101620005d1565b620005eb565b60405162461bcd60e51b815260048101859052601d60248201527f416464726573733a2063616c6c20746f206e6f6e2d636f6e74726163740000006044820152606490fd5b3d156200076a573d906001600160401b0382116200010757604051916200075e601f8201601f19166020018462000129565b82523d6000602084013e565b606090565b909190156200077c575090565b8151156200078d5750805190602001fd5b6040519062461bcd60e51b82528160208060048301528251908160248401526000935b828510620007d4575050604492506000838284010152601f80199101168101030190fd5b8481018201518686016044015293810193859350620007b056fe6080604052600436101561001257600080fd5b6000803560e01c908162ae3bf8146100b9575080630542975c146100b4578063271b767c146100af578063715018a6146100aa5780637535d246146100a55780638da5cb5b146100a0578063920f5c841461009b578063c056037414610096578063c31c9c07146100915763f2fde38b1461008c57600080fd5b6107ba565b610775565b610758565b610658565b6105ba565b610575565b610518565b610445565b6101c8565b346101a45760203660031901126101a45760246004356100d8816101a7565b82546001600160a01b0390811691906020906100f5338514610899565b6040516370a0823160e01b8152306004820152948591829085165afa91821561019f5761016893859361016b575b5060405163a9059cbb60e01b60208201526001600160a01b039091166024820152604481019290925261016382606481015b03601f19810184528361028c565b610976565b80f35b6101639193506101919060203d8111610198575b610189818361028c565b8101906108e4565b9290610123565b503d61017f565b6108f3565b80fd5b6001600160a01b038116036101b857565b600080fd5b60009103126101b857565b346101b85760003660031901126101b8576040517f00000000000000000000000000000000000000000000000000000000000000006001600160a01b03168152602090f35b634e487b7160e01b600052604160045260246000fd5b60c081019081106001600160401b0382111761023e57604052565b61020d565b6001600160401b03811161023e57604052565b604081019081106001600160401b0382111761023e57604052565b608081019081106001600160401b0382111761023e57604052565b90601f801991011681019081106001600160401b0382111761023e57604052565b6040519061010082018281106001600160401b0382111761023e57604052565b6040519060e082018281106001600160401b0382111761023e57604052565b604051906101e082018281106001600160401b0382111761023e57604052565b60643590610319826101a7565b565b3590610319826101a7565b6001600160401b03811161023e57601f01601f191660200190565b81601f820112156101b85780359061035882610326565b92610366604051948561028c565b828452602083830101116101b857816000926020809301838601378301015290565b60c09060231901126101b857604051906103a182610223565b816024356103ae816101a7565b81526044356020820152606435604082015260843560ff811681036101b857606082015260a435608082015260a060c435910152565b60c09060e31901126101b857604051906103fd82610223565b8160e43561040a816101a7565b81526101043560208201526101243560408201526101443560ff811681036101b857606082015261016435608082015260a061018435910152565b346101b8576003196101a0368201126101b857600435906001600160401b03908183116101b8576101009083360301126101b8576104816102ad565b9061048e8360040161031b565b825260248301356020830152604483013560408301526104b06064840161031b565b6060830152608483013560808301526104cb60a4840161031b565b60a083015260c483013560c083015260e48301359081116101b8576105169260046104f99236920101610341565b60e082015261050736610388565b610510366103e4565b91610b2f565b005b346101b8576000806003193601126101a4578054816001600160a01b038216610542338214610899565b7f8be0079c531659141344cd1fd0a4f28419497f9722a3daafe3b4186f6b6457e08280a36001600160a01b031916815580f35b346101b85760003660031901126101b8576040517f00000000000000000000000000000000000000000000000000000000000000006001600160a01b03168152602090f35b346101b85760003660031901126101b8576000546040516001600160a01b039091168152602090f35b6001600160401b03811161023e5760051b60200190565b81601f820112156101b857803591610611836105e3565b9261061f604051948561028c565b808452602092838086019260051b8201019283116101b8578301905b828210610649575050505090565b8135815290830190830161063b565b346101b85760a03660031901126101b8576004356001600160401b038082116101b857366023830112156101b8578160040135610694816105e3565b926106a2604051948561028c565b81845260209160248386019160051b830101913683116101b857602401905b82821061073f5785856024358181116101b8576106e29036906004016105fa565b916044358281116101b8576106fb9036906004016105fa565b61070361030c565b906084359384116101b85761073b94610723610729953690600401610341565b93611985565b60405190151581529081906020820190565b0390f35b838091833561074d816101a7565b8152019101906106c1565b346101b85760003660031901126101b85760206040516117308152f35b346101b85760003660031901126101b8576040517f00000000000000000000000000000000000000000000000000000000000000006001600160a01b03168152602090f35b346101b85760203660031901126101b8576004356107d7816101a7565b6000546001600160a01b0390811691906107f2338414610899565b8116801561084557610516927f8be0079c531659141344cd1fd0a4f28419497f9722a3daafe3b4186f6b6457e0600080a360018060a01b03166bffffffffffffffffffffffff60a01b6000541617600055565b60405162461bcd60e51b815260206004820152602660248201527f4f776e61626c653a206e6577206f776e657220697320746865207a65726f206160448201526564647265737360d01b6064820152608490fd5b156108a057565b606460405162461bcd60e51b815260206004820152602060248201527f4f776e61626c653a2063616c6c6572206973206e6f7420746865206f776e65726044820152fd5b908160209103126101b8575190565b6040513d6000823e3d90fd5b908160209103126101b8575180151581036101b85790565b1561091e57565b60405162461bcd60e51b815260206004820152602a60248201527f5361666545524332303a204552433230206f7065726174696f6e20646964206e6044820152691bdd081cdd58d8d9595960b21b6064820152608490fd5b6040516001600160a01b03919091169161098f82610256565b6020928383527f5361666545524332303a206c6f772d6c6576656c2063616c6c206661696c656484840152803b15610a0657600082819282876109e19796519301915af16109db610a4b565b90610ac3565b805190816109ee57505050565b8261031993610a019383010191016108ff565b610917565b60405162461bcd60e51b815260048101859052601d60248201527f416464726573733a2063616c6c20746f206e6f6e2d636f6e74726163740000006044820152606490fd5b3d15610a76573d90610a5c82610326565b91610a6a604051938461028c565b82523d6000602084013e565b606090565b60005b838110610a8e5750506000910152565b8181015183820152602001610a7e565b90602091610ab781518092818552858086019101610a7b565b601f01601f1916010190565b90919015610acf575090565b815115610adf5750805190602001fd5b60405162461bcd60e51b815260206004820152908190610b03906024830190610a9e565b0390fd5b634e487b7160e01b600052601160045260246000fd5b91908203918211610b2a57565b610b07565b60608101805192939092610b5990610b4d906001600160a01b031681565b6001600160a01b031690565b604080516370a0823160e01b808252306004808401919091526020989396909594919390918990849060249082905afa92831561019f57600093611076575b50868101519081610fbf575b50508051610bba906001600160a01b0316611364565b50878301805190939291600091600203610f6657505087518581523388820190815290918b918391908290819060200103916001600160a01b03165afa90811561019f57600091610f49575b50905b8981019180835111610f41575b5080516001600160a01b03169151925160e082015193610c46610c376102cd565b6001600160a01b039095168552565b838c015288830152600060608301818152608084019182523360a08501529360c084015260a0820180516001600160a01b03989192918c918e91908b9081161615610f20578c81015180610e35575b50505091610cd791610cc3610ce097610cb660c0965160018060a01b031690565b6001600160a01b03169052565b60808501519052516001600160a01b031690565b910151916116c0565b85518790610cf890610b4d906001600160a01b031681565b8651938452308685019081528491908290819060200103915afa91821561019f57600092610e16575b5060009181811115610e0f57610d379250610b1d565b80610d45575b505050505050565b60008694610d7687610d6985610d64610db79b5160018060a01b031690565b611095565b516001600160a01b031690565b905163573ade8160e01b81526001600160a01b0390911694810194855260208501929092526002604085015233606085015290948593849291839160800190565b03927f0000000000000000000000000000000000000000000000000000000000000000165af1801561019f57610df1575b80808080610d3d565b81610e0792903d1061019857610189818361028c565b503880610de8565b5050610d37565b610e2e919250873d891161019857610189818361028c565b9038610d21565b815192989593509091610e50906001600160a01b0316610b4d565b9782015197610e63606084015160ff1690565b9860a0608085015194015193823b156101b8578f8f906000968793610ed692519e8f988997889663d505accf60e01b88523090339089019360ff929897969360c0969260e087019a60018060a01b0380921688521660208701526040860152606085015216608083015260a08201520152565b03925af191821561019f57610cc360c094610cb68f610ce09a610cd797610f07575b5094965050978f929450610c95565b80610f14610f1a92610243565b806101bd565b38610ef8565b505051610f3c9550608092506001600160a01b03169050610cd7565b610ce0565b825238610c16565b610f6091508a3d8c1161019857610189818361028c565b38610c06565b8951878152338a8201908152929350918c9183918290819060200103916001600160a01b03165afa91821561019f5791610fa2575b5090610c09565b610fb991508a3d8c1161019857610189818361028c565b38610f9b565b8051610fd590610b4d906001600160a01b031681565b918a82015192610fe9606084015160ff1690565b9360a0608085015194015193823b156101b8578b5163016a5aab60e31b815233818d019081523060208201526040810193909352606083019490945260ff909516608082015260a081019490945260c084019290925291600091839182908490829060e00103925af1801561019f57611063575b80610ba4565b80610f1461107092610243565b3861105d565b61108e919350893d8b1161019857610189818361028c565b9138610b98565b604051636eb1769f60e11b8082523060048301526001600160a01b037f00000000000000000000000000000000000000000000000000000000000000008116602484018190529194602094909116928481604481875afa90811561019f57600091611199575b5010611108575b50505050565b6040519384523060048501526001600160a01b03811660248501528284604481855afa93841561019f57611173946111499160009161117c575b50156111b6565b6040519263095ea7b360e01b90840152602483015260001960448301526044825261016382610271565b38808080611102565b6111939150853d871161019857610189818361028c565b38611142565b6111b09150853d871161019857610189818361028c565b386110fb565b156111bd57565b60405162461bcd60e51b815260206004820152603660248201527f5361666545524332303a20617070726f76652066726f6d206e6f6e2d7a65726f60448201527520746f206e6f6e2d7a65726f20616c6c6f77616e636560501b6064820152608490fd5b9190918115801561126f575b6103199361123d610163926111b6565b60405163095ea7b360e01b60208201526001600160a01b03909116602482015260448101939093528260648101610155565b50604051636eb1769f60e11b81523060048201526001600160a01b038416602482015292602084806044810103816001600160a01b0386165afa90811561019f5761123d61016392610319966000916112cf575b5015925050935061122d565b6112e7915060203d811161019857610189818361028c565b386112c3565b91908260209103126101b857604051602081018181106001600160401b0382111761023e5760405291518252565b51906fffffffffffffffffffffffffffffffff821682036101b857565b519064ffffffffff821682036101b857565b519061ffff821682036101b857565b5190610319826101a7565b6040516335ea6a7560e01b81526001600160a01b03918216600482015291906101e0908190849060249082907f0000000000000000000000000000000000000000000000000000000000000000165afa92831561019f57600093611403575b50506101408201516001600160a01b03166101208301519091906113fd90610100906001600160a01b03169401516001600160a01b031690565b91929190565b909192823d8411611536575b611419818461028c565b820192828403126101a457506114376114306102ec565b92826112ed565b82526114456020820161131b565b60208301526114566040820161131b565b60408301526114676060820161131b565b60608301526114786080820161131b565b608083015261148960a0820161131b565b60a083015261149a60c08201611338565b60c08301526114ab60e0820161134a565b60e08301526101006114be818301611359565b908301526101206114d0818301611359565b908301526101406114e2818301611359565b908301526101606114f4818301611359565b9083015261018061150681830161131b565b908301526101a061151881830161131b565b9083015261152a6101c080920161131b565b908201529038806113c3565b503d61140f565b61010060c061159e936020845260018060a01b038082511660208601526020820151604086015260408201516060860152806060830151166080860152608082015160a086015260a0820151168285015201519160e0808201520190610a9e565b90565b604051906115ae82610256565b6001825260203681840137565b8051156115c85760200190565b634e487b7160e01b600052603260045260246000fd5b90815180825260208080930193019160005b8281106115fe575050505090565b8351855293810193928101926001016115f0565b969593929060e0880160018060a01b038092168952602060e0818b01528451809252806101008b019501926000905b8382106116a75750505050509261169161167f61169e946116718560c0988c6040816103199d9a039101526115de565b908a820360608c01526115de565b6001600160a01b039093166080890152565b86820360a0880152610a9e565b93016117309052565b8451811687529582019593820193600190910190611641565b906116e66116d893926040519485916020830161153d565b03601f19810185528461028c565b61170a6116f16115a1565b916116fb836115bb565b6001600160a01b039091169052565b6117126115a1565b9161171c836115bb565b526117256115a1565b6000611730826115bb565b527f00000000000000000000000000000000000000000000000000000000000000006001600160a01b031690813b156101b8576000809461178a6040519788968795869463ab9c4b5d60e01b865230923060048801611612565b03925af1801561019f5761179b5750565b80610f1461031992610243565b156117af57565b60405162461bcd60e51b815260206004820152601760248201527f43616c6c6261636b206f6e6c792066726f6d20504f4f4c0000000000000000006044820152606490fd5b156117fb57565b60405162461bcd60e51b815260206004820152601c60248201527f496e69746961746f72206f6e6c79207468697320636f6e7472616374000000006044820152606490fd5b91908201809211610b2a57565b81601f820112156101b857805161186381610326565b92611871604051948561028c565b818452602082840101116101b85761159e9160208085019101610a7b565b906020828203126101b85781516001600160401b03928382116101b857019060e0828203126101b8576118c06102cd565b926118ca83611359565b845260208301516020850152604083015160408501526118ec60608401611359565b60608501526080830151608085015261190760a08401611359565b60a085015260c08301519081116101b857611922920161184d565b60c082015290565b1561193157565b60405162461bcd60e51b815260206004820152602660248201527f496e73756666696369656e7420616d6f756e7420746f20726570617920666c6160448201526539b43637b0b760d11b6064820152608490fd5b90939291926119f56119ee6119e8610d696119e160018060a01b03996119dc8b7f000000000000000000000000000000000000000000000000000000000000000016996119d38b33146117a8565b8c1630146117f4565b6115bb565b51956115bb565b956115bb565b5183611840565b93611a0a60209283808251830101910161188f565b60608101805191979182166001600160a01b0316611bf7575086519082169390611a5390611a40906001600160a01b0316610b4d565b8489019283519060c08b01519288611dc4565b508651611a7790611a6e90610b4d906001600160a01b031681565b86835191611221565b86516001600160a01b0316905190611ae060a060408a0151990198611aa28a5160018060a01b031690565b60405163573ade8160e01b81526001600160a01b03948516600482015260248101959095526044850191909152909116606483015281906084820190565b03968382600099818b8a5af191821561019f57611b0a92611bda575b50516001600160a01b031690565b90843b15611bd65760405163a415bcad60e01b81526001600160a01b0391821660048201526024810187905260026044820152611730606482015291166084820152858160a48183885af1801561019f57611bc3575b506040516370a0823160e01b8152306004820152948186602481865afa801561019f57611ba196611b9c93879392611ba6575b5050101561192a565b611221565b600190565b611bbc9250803d1061019857610189818361028c565b3880611b93565b80610f14611bd092610243565b38611b60565b8680fd5b611bf090853d871161019857610189818361028c565b5038611afc565b909350819296611c09611c6c93611364565b60a084018051919593509150611c32906001600160a01b03168b8501958651918a309216611d6c565b8351604051631a4ca37b60e21b81526001600160a01b03881660048201526024810191909152306044820152948a90869081906064820190565b038160008c5af191821561019f578a611cf5611d0793611d1098608096611d4f575b5086516001600160a01b03169751604088015191519091906001600160a01b03169160c089015194611cd0611cc16102cd565b6001600160a01b03909c168c52565b8a01526040890152600060608901819052868901526001600160a01b031660a0880152565b60c0860152516001600160a01b031690565b91015190611f0f565b6040516370a0823160e01b81523060048201529116908481602481855afa94851561019f57611ba195611b9c928692600092611ba6575050101561192a565b611d6590843d861161019857610189818361028c565b5038611c8e565b6040516323b872dd60e01b60208201526001600160a01b03928316602482015292909116604483015260648083019390935291815260a08101918183106001600160401b0384111761023e5761031992604052610976565b6040516370a0823160e01b80825230600483015292969590946001600160a01b0392831694602092919083886024818a5afa97881561019f57600098611ef0575b50808810611ecf5790611e3a9291877f0000000000000000000000000000000000000000000000000000000000000000611f25565b604051938452306004850152948184602481885afa90811561019f577fbf77fd13a39d14dc0da779342c14105c38d9a5d0c60f2caa22f5fd1d5525416d94611e8b93600093611eb0575b5050610b1d565b95611eab6040519283921695888360209093929193604081019481520152565b0390a3565b611ec7929350803d1061019857610189818361028c565b903880611e84565b60405163b6554a4960e01b8152600481018990526024810191909152604490fd5b611f08919850843d861161019857610189818361028c565b9638611e05565b6116e66116d8936040519485916020830161153d565b604080516370a0823160e01b8152306004808301919091529196919460209491936001600160a01b039283169392918686602481885afa95861561019f576000966120d6575b508086106120b357501690875191858380611fa963095ea7b360e01b98898352858c840160209093929193604081019460018060a01b031681520152565b03816000885af192831561019f5760008793819261200496612096575b50848151910182855af193611fd9610a4b565b9560008b5180968195829483528c83016020600091939293604081019460018060a01b031681520152565b03925af1801561019f57612069575b501561204b570151928284106120295750505090565b51630583371760e31b8152908101918252602082018390529081906040010390fd5b90818592519182612066575050505163081ceff360e41b8152fd5b01fd5b61208890843d861161208f575b612080818361028c565b8101906108ff565b5038612013565b503d612076565b6120ac90863d881161208f57612080818361028c565b5038611fc6565b895163cf47918160e01b8152808901918252602082018790529081906040010390fd5b6120ee919650873d891161019857610189818361028c565b9438611f6b56fea264697066735822122037661284de62c5ddab4e5446d810dfe3940b56984131aad75ce0443193a0170364736f6c634300081400338be0079c531659141344cd1fd0a4f28419497f9722a3daafe3b4186f6b6457e0",
  "devdoc": {
    "errors": {
      "CallerMustBePool(address,address)": [
        {
          "details": "Thrown when the caller is not the pool",
          "params": {
            "caller": "The actual caller",
            "pool": "The expected pool"
          }
        }
      ],
      "InitiatorMustBeThis(address,address)": [
        {
          "details": "Thrown when the initiator is not the expected initiator",
          "params": {
            "expectedInitiator": "The expected initiator",
            "initiator": "The actual initiator"
          }
        }
      ],
      "InsufficientBalanceBeforeSwap(uint256,uint256)": [
        {
          "details": "Thrown when the balance before swap is insufficient",
          "params": {
            "balance": "The actual balance",
            "required": "The required balance"
          }
        }
      ],
      "InsufficientOutputAmount(uint256,uint256)": [
        {
          "details": "Thrown when the output amount is less than the minimum expected",
          "params": {
            "actual": "The actual output amount",
            "expected": "The minimum expected output amount"
          }
        }
      ],
      "InvalidDebtRepayAmount(uint256,uint256)": [
        {
          "details": "Thrown when the debt repay amount is greater than the current debt",
          "params": {
            "currentDebt": "The current debt amount",
            "repayAmount": "The amount requested to repay"
          }
        }
      ]
    },
    "events": {
      "Bought(address,address,uint256,uint256)": {
        "details": "Emitted when a token is bought on Odos",
        "params": {
          "amountIn": "The amount of tokens sold",
          "amountOut": "The amount of tokens bought",
          "tokenIn": "The address of the token sold",
          "tokenOut": "The address of the token bought"
        }
      }
    },
    "kind": "dev",
    "methods": {
      "executeOperation(address[],uint256[],uint256[],address,bytes)": {
        "details": "Ensure that the contract can return the debt + premium, e.g., has      enough funds to repay and has approved the Pool to pull the total amount",
        "params": {
          "amounts": "The amounts of the flash-borrowed assets",
          "assets": "The addresses of the flash-borrowed assets",
          "initiator": "The address of the flashloan initiator",
          "params": "The byte-encoded params passed when initiating the flashloan",
          "premiums": "The fee of each flash-borrowed asset"
        },
        "returns": {
          "_0": "True if the execution of the operation succeeds, false otherwise"
        }
      },
      "owner()": {
        "details": "Returns the address of the current owner."
      },
      "renounceOwnership()": {
        "details": "Leaves the contract without owner. It will not be possible to call `onlyOwner` functions anymore. Can only be called by the current owner. NOTE: Renouncing ownership will leave the contract without an owner, thereby removing any functionality that is only available to the owner."
      },
      "rescueTokens(address)": {
        "details": "Emergency rescue for token stucked on this contract, as failsafe mechanism - Funds should never remain in this contract more time than during transactions - Only callable by the owner"
      },
      "swapDebt((address,uint256,uint256,address,uint256,address,uint256,bytes),(address,uint256,uint256,uint8,bytes32,bytes32),(address,uint256,uint256,uint8,bytes32,bytes32))": {
        "details": "Swaps one type of debt to another. Therefore this methods performs the following actions in order: 1. Delegate credit in new debt 2. Flashloan in new debt 3. swap new debt to old debt 4. repay old debt",
        "params": {
          "collateralATokenPermit": "optional permit for collateral aToken",
          "creditDelegationPermit": "optional permit for credit delegation",
          "debtSwapParams": "the parameters describing the swap"
        }
      },
      "transferOwnership(address)": {
        "details": "Transfers ownership of the contract to a new account (`newOwner`). Can only be called by the current owner."
      }
    },
    "title": "OdosDebtSwapAdapter",
    "version": 1
  },
  "userdoc": {
    "errors": {
      "InsufficientBalance(uint256,uint256)": [
        {
          "notice": "Custom error when contract balance is insufficient for the swap"
        }
      ],
      "InsufficientOutput(uint256,uint256)": [
        {
          "notice": "Custom error when actual output amount is less than expected"
        }
      ],
      "SwapFailed()": [
        {
          "notice": "Custom error for failed swap with no revert reason"
        }
      ]
    },
    "kind": "user",
    "methods": {
      "ADDRESSES_PROVIDER()": {
        "notice": "The address of the Aave PoolAddressesProvider contract"
      },
      "POOL()": {
        "notice": "The address of the Aave Pool contract"
      },
      "executeOperation(address[],uint256[],uint256[],address,bytes)": {
        "notice": "Executes an operation after receiving the flash-borrowed assets"
      },
      "swapRouter()": {
        "notice": "The address of the Odos Router"
      }
    },
    "notice": "Odos Adapter to perform a swap of debt to another debt.*",
    "version": 1
  },
  "storageLayout": {
    "storage": [
      {
        "astId": 7108,
        "contract": "contracts/dlend/periphery/adapters/odos/OdosDebtSwapAdapter.sol:OdosDebtSwapAdapter",
        "label": "_owner",
        "offset": 0,
        "slot": "0",
        "type": "t_address"
      },
      {
        "astId": 11573,
        "contract": "contracts/dlend/periphery/adapters/odos/OdosDebtSwapAdapter.sol:OdosDebtSwapAdapter",
        "label": "_status",
        "offset": 0,
        "slot": "1",
        "type": "t_uint256"
      }
    ],
    "types": {
      "t_address": {
        "encoding": "inplace",
        "label": "address",
        "numberOfBytes": "20"
      },
      "t_uint256": {
        "encoding": "inplace",
        "label": "uint256",
        "numberOfBytes": "32"
      }
    }
  }
}